{
  "_format": "hh-sol-artifact-1",
  "contractName": "BenefitsGaslessContract",
  "sourceName": "src/blockchain/hardhat/contracts/BenefitsGaslessContract.sol",
  "abi": [
    {
      "inputs": [
        {
          "internalType": "contract MinimalForwarder",
          "name": "forwarder",
          "type": "address"
        }
      ],
      "stateMutability": "nonpayable",
      "type": "constructor"
    },
    {
      "inputs": [
        {
          "internalType": "string",
          "name": "",
          "type": "string"
        }
      ],
      "name": "benefitContracts",
      "outputs": [
        {
          "internalType": "address",
          "name": "",
          "type": "address"
        }
      ],
      "stateMutability": "view",
      "type": "function"
    },
    {
      "inputs": [
        {
          "internalType": "string",
          "name": "_benefitId",
          "type": "string"
        },
        {
          "internalType": "address",
          "name": "_addressBenefitContract",
          "type": "address"
        }
      ],
      "name": "createBenefit",
      "outputs": [],
      "stateMutability": "nonpayable",
      "type": "function"
    },
    {
      "inputs": [
        {
          "internalType": "string",
          "name": "_benefitId",
          "type": "string"
        }
      ],
      "name": "getBenefit",
      "outputs": [
        {
          "internalType": "address",
          "name": "",
          "type": "address"
        }
      ],
      "stateMutability": "view",
      "type": "function"
    },
    {
      "inputs": [
        {
          "internalType": "address",
          "name": "forwarder",
          "type": "address"
        }
      ],
      "name": "isTrustedForwarder",
      "outputs": [
        {
          "internalType": "bool",
          "name": "",
          "type": "bool"
        }
      ],
      "stateMutability": "view",
      "type": "function"
    }
  ],
  "bytecode": "0x60a060405234801561001057600080fd5b50604051610722380380610722833981810160405281019061003291906100e3565b808073ffffffffffffffffffffffffffffffffffffffff1660808173ffffffffffffffffffffffffffffffffffffffff16815250505050610110565b600080fd5b600073ffffffffffffffffffffffffffffffffffffffff82169050919050565b600061009e82610073565b9050919050565b60006100b082610093565b9050919050565b6100c0816100a5565b81146100cb57600080fd5b50565b6000815190506100dd816100b7565b92915050565b6000602082840312156100f9576100f861006e565b5b6000610107848285016100ce565b91505092915050565b6080516105f761012b600039600061014a01526105f76000f3fe608060405234801561001057600080fd5b506004361061004c5760003560e01c806305c6975714610051578063572b6c051461008157806357f415a2146100b15780635fe8c861146100cd575b600080fd5b61006b600480360381019061006691906103a0565b6100fd565b604051610078919061042a565b60405180910390f35b61009b60048036038101906100969190610471565b610146565b6040516100a891906104b9565b60405180910390f35b6100cb60048036038101906100c691906104d4565b61019e565b005b6100e760048036038101906100e291906103a0565b6101ff565b6040516100f4919061042a565b60405180910390f35b6000818051602081018201805184825260208301602085012081835280955050505050506000915054906101000a900473ffffffffffffffffffffffffffffffffffffffff1681565b60007f000000000000000000000000000000000000000000000000000000000000000073ffffffffffffffffffffffffffffffffffffffff168273ffffffffffffffffffffffffffffffffffffffff16149050919050565b806000836040516101af91906105aa565b908152602001604051809103902060006101000a81548173ffffffffffffffffffffffffffffffffffffffff021916908373ffffffffffffffffffffffffffffffffffffffff1602179055505050565b6000808260405161021091906105aa565b908152602001604051809103902060009054906101000a900473ffffffffffffffffffffffffffffffffffffffff169050919050565b6000604051905090565b600080fd5b600080fd5b600080fd5b600080fd5b6000601f19601f8301169050919050565b7f4e487b7100000000000000000000000000000000000000000000000000000000600052604160045260246000fd5b6102ad82610264565b810181811067ffffffffffffffff821117156102cc576102cb610275565b5b80604052505050565b60006102df610246565b90506102eb82826102a4565b919050565b600067ffffffffffffffff82111561030b5761030a610275565b5b61031482610264565b9050602081019050919050565b82818337600083830152505050565b600061034361033e846102f0565b6102d5565b90508281526020810184848401111561035f5761035e61025f565b5b61036a848285610321565b509392505050565b600082601f8301126103875761038661025a565b5b8135610397848260208601610330565b91505092915050565b6000602082840312156103b6576103b5610250565b5b600082013567ffffffffffffffff8111156103d4576103d3610255565b5b6103e084828501610372565b91505092915050565b600073ffffffffffffffffffffffffffffffffffffffff82169050919050565b6000610414826103e9565b9050919050565b61042481610409565b82525050565b600060208201905061043f600083018461041b565b92915050565b61044e81610409565b811461045957600080fd5b50565b60008135905061046b81610445565b92915050565b60006020828403121561048757610486610250565b5b60006104958482850161045c565b91505092915050565b60008115159050919050565b6104b38161049e565b82525050565b60006020820190506104ce60008301846104aa565b92915050565b600080604083850312156104eb576104ea610250565b5b600083013567ffffffffffffffff81111561050957610508610255565b5b61051585828601610372565b92505060206105268582860161045c565b9150509250929050565b600081519050919050565b600081905092915050565b60005b83811015610564578082015181840152602081019050610549565b83811115610573576000848401525b50505050565b600061058482610530565b61058e818561053b565b935061059e818560208601610546565b80840191505092915050565b60006105b68284610579565b91508190509291505056fea26469706673582212209e68d9e9e79b7fd7965ac8086a6693bb942adb269287ae859c817b98efa628e964736f6c634300080f0033",
  "linkReferences": {},
  "deployedLinkReferences": {}
}