{
  "_format": "hh-sol-artifact-1",
  "contractName": "PaymentGatewayContract",
  "sourceName": "src/blockchain/hardhat/contracts/PaymentGatewayContract.sol",
  "abi": [
    {
      "inputs": [
        {
          "internalType": "address",
          "name": "_cosmoContract",
          "type": "address"
        }
      ],
      "stateMutability": "nonpayable",
      "type": "constructor"
    },
    {
      "anonymous": false,
      "inputs": [
        {
          "indexed": true,
          "internalType": "bytes32",
          "name": "id",
          "type": "bytes32"
        }
      ],
      "name": "ChainlinkCancelled",
      "type": "event"
    },
    {
      "anonymous": false,
      "inputs": [
        {
          "indexed": true,
          "internalType": "bytes32",
          "name": "id",
          "type": "bytes32"
        }
      ],
      "name": "ChainlinkFulfilled",
      "type": "event"
    },
    {
      "anonymous": false,
      "inputs": [
        {
          "indexed": true,
          "internalType": "bytes32",
          "name": "id",
          "type": "bytes32"
        }
      ],
      "name": "ChainlinkRequested",
      "type": "event"
    },
    {
      "anonymous": false,
      "inputs": [
        {
          "indexed": true,
          "internalType": "address",
          "name": "from",
          "type": "address"
        },
        {
          "indexed": true,
          "internalType": "address",
          "name": "to",
          "type": "address"
        }
      ],
      "name": "OwnershipTransferRequested",
      "type": "event"
    },
    {
      "anonymous": false,
      "inputs": [
        {
          "indexed": true,
          "internalType": "address",
          "name": "from",
          "type": "address"
        },
        {
          "indexed": true,
          "internalType": "address",
          "name": "to",
          "type": "address"
        }
      ],
      "name": "OwnershipTransferred",
      "type": "event"
    },
    {
      "anonymous": false,
      "inputs": [
        {
          "indexed": true,
          "internalType": "bytes32",
          "name": "requestId",
          "type": "bytes32"
        },
        {
          "indexed": true,
          "internalType": "string",
          "name": "response",
          "type": "string"
        }
      ],
      "name": "RequestForInfoFulfilled",
      "type": "event"
    },
    {
      "inputs": [],
      "name": "acceptOwnership",
      "outputs": [],
      "stateMutability": "nonpayable",
      "type": "function"
    },
    {
      "inputs": [],
      "name": "account",
      "outputs": [
        {
          "internalType": "address",
          "name": "",
          "type": "address"
        }
      ],
      "stateMutability": "view",
      "type": "function"
    },
    {
      "inputs": [],
      "name": "amount",
      "outputs": [
        {
          "internalType": "uint256",
          "name": "",
          "type": "uint256"
        }
      ],
      "stateMutability": "view",
      "type": "function"
    },
    {
      "inputs": [
        {
          "internalType": "bytes32",
          "name": "_requestId",
          "type": "bytes32"
        },
        {
          "internalType": "uint256",
          "name": "_payment",
          "type": "uint256"
        },
        {
          "internalType": "bytes4",
          "name": "_callbackFunctionId",
          "type": "bytes4"
        },
        {
          "internalType": "uint256",
          "name": "_expiration",
          "type": "uint256"
        }
      ],
      "name": "cancelRequest",
      "outputs": [],
      "stateMutability": "nonpayable",
      "type": "function"
    },
    {
      "inputs": [],
      "name": "contractBalances",
      "outputs": [
        {
          "internalType": "uint256",
          "name": "eth",
          "type": "uint256"
        },
        {
          "internalType": "uint256",
          "name": "link",
          "type": "uint256"
        }
      ],
      "stateMutability": "view",
      "type": "function"
    },
    {
      "inputs": [],
      "name": "erc777",
      "outputs": [
        {
          "internalType": "contract ERC777",
          "name": "",
          "type": "address"
        }
      ],
      "stateMutability": "view",
      "type": "function"
    },
    {
      "inputs": [
        {
          "internalType": "bytes32",
          "name": "_requestId",
          "type": "bytes32"
        },
        {
          "internalType": "string",
          "name": "_info",
          "type": "string"
        }
      ],
      "name": "fulfillRequestInfo",
      "outputs": [],
      "stateMutability": "nonpayable",
      "type": "function"
    },
    {
      "inputs": [],
      "name": "getChainlinkToken",
      "outputs": [
        {
          "internalType": "address",
          "name": "",
          "type": "address"
        }
      ],
      "stateMutability": "view",
      "type": "function"
    },
    {
      "inputs": [],
      "name": "lastRetrievedInfo",
      "outputs": [
        {
          "internalType": "string",
          "name": "",
          "type": "string"
        }
      ],
      "stateMutability": "view",
      "type": "function"
    },
    {
      "inputs": [],
      "name": "owner",
      "outputs": [
        {
          "internalType": "address",
          "name": "",
          "type": "address"
        }
      ],
      "stateMutability": "view",
      "type": "function"
    },
    {
      "inputs": [
        {
          "internalType": "address",
          "name": "_oracle",
          "type": "address"
        },
        {
          "internalType": "string",
          "name": "_jobId",
          "type": "string"
        },
        {
          "internalType": "string",
          "name": "email",
          "type": "string"
        },
        {
          "internalType": "uint256",
          "name": "value",
          "type": "uint256"
        },
        {
          "internalType": "string",
          "name": "valor",
          "type": "string"
        }
      ],
      "name": "requestPayOut",
      "outputs": [],
      "stateMutability": "nonpayable",
      "type": "function"
    },
    {
      "inputs": [
        {
          "internalType": "address",
          "name": "_operator",
          "type": "address"
        },
        {
          "internalType": "address",
          "name": "_from",
          "type": "address"
        },
        {
          "internalType": "address",
          "name": "_to",
          "type": "address"
        },
        {
          "internalType": "uint256",
          "name": "_amount",
          "type": "uint256"
        },
        {
          "internalType": "bytes",
          "name": "_userData",
          "type": "bytes"
        },
        {
          "internalType": "bytes",
          "name": "_operatorData",
          "type": "bytes"
        }
      ],
      "name": "tokensReceived",
      "outputs": [],
      "stateMutability": "nonpayable",
      "type": "function"
    },
    {
      "inputs": [
        {
          "internalType": "address",
          "name": "to",
          "type": "address"
        }
      ],
      "name": "transferOwnership",
      "outputs": [],
      "stateMutability": "nonpayable",
      "type": "function"
    },
    {
      "inputs": [],
      "name": "withdrawBalance",
      "outputs": [],
      "stateMutability": "nonpayable",
      "type": "function"
    },
    {
      "inputs": [],
      "name": "withdrawLink",
      "outputs": [],
      "stateMutability": "nonpayable",
      "type": "function"
    },
    {
      "inputs": [],
      "name": "withdrawTokens",
      "outputs": [],
      "stateMutability": "nonpayable",
      "type": "function"
    }
  ],
  "bytecode": "0x60c060405260016005553480156200001657600080fd5b506040516200337c3803806200337c83398181016040528101906200003c91906200049a565b3380600083731820a4b7618bde71dce8cdc73aab6c95905fad2473ffffffffffffffffffffffffffffffffffffffff166329965a1d307fb281fc8c12954d22544db45de3159a39272895b169a852b314f9cc762e44c53b306040518463ffffffff1660e01b8152600401620000b493929190620004f8565b600060405180830381600087803b158015620000cf57600080fd5b505af1158015620000e4573d6000803e3d6000fd5b505050508073ffffffffffffffffffffffffffffffffffffffff1660808173ffffffffffffffffffffffffffffffffffffffff16815250503373ffffffffffffffffffffffffffffffffffffffff1660a08173ffffffffffffffffffffffffffffffffffffffff168152505050600073ffffffffffffffffffffffffffffffffffffffff168273ffffffffffffffffffffffffffffffffffffffff1603620001c3576040517f08c379a0000000000000000000000000000000000000000000000000000000008152600401620001ba9062000596565b60405180910390fd5b81600760006101000a81548173ffffffffffffffffffffffffffffffffffffffff021916908373ffffffffffffffffffffffffffffffffffffffff160217905550600073ffffffffffffffffffffffffffffffffffffffff168173ffffffffffffffffffffffffffffffffffffffff16146200024b576200024a81620002bb60201b60201c565b5b50505062000273730b9d5d9136855f6fec3c0993fee6e9ce8a297846620003ec60201b60201c565b80600960006101000a81548173ffffffffffffffffffffffffffffffffffffffff021916908373ffffffffffffffffffffffffffffffffffffffff160217905550506200062a565b3373ffffffffffffffffffffffffffffffffffffffff168173ffffffffffffffffffffffffffffffffffffffff16036200032c576040517f08c379a0000000000000000000000000000000000000000000000000000000008152600401620003239062000608565b60405180910390fd5b80600860006101000a81548173ffffffffffffffffffffffffffffffffffffffff021916908373ffffffffffffffffffffffffffffffffffffffff1602179055508073ffffffffffffffffffffffffffffffffffffffff16600760009054906101000a900473ffffffffffffffffffffffffffffffffffffffff1673ffffffffffffffffffffffffffffffffffffffff167fed8889f560326eb138920d842192f0eb3dd22b4f139c87a2c57538e05bae127860405160405180910390a350565b80600360006101000a81548173ffffffffffffffffffffffffffffffffffffffff021916908373ffffffffffffffffffffffffffffffffffffffff16021790555050565b600080fd5b600073ffffffffffffffffffffffffffffffffffffffff82169050919050565b6000620004628262000435565b9050919050565b620004748162000455565b81146200048057600080fd5b50565b600081519050620004948162000469565b92915050565b600060208284031215620004b357620004b262000430565b5b6000620004c38482850162000483565b91505092915050565b620004d78162000455565b82525050565b6000819050919050565b620004f281620004dd565b82525050565b60006060820190506200050f6000830186620004cc565b6200051e6020830185620004e7565b6200052d6040830184620004cc565b949350505050565b600082825260208201905092915050565b7f43616e6e6f7420736574206f776e657220746f207a65726f0000000000000000600082015250565b60006200057e60188362000535565b91506200058b8262000546565b602082019050919050565b60006020820190508181036000830152620005b1816200056f565b9050919050565b7f43616e6e6f74207472616e7366657220746f2073656c66000000000000000000600082015250565b6000620005f060178362000535565b9150620005fd82620005b8565b602082019050919050565b600060208201905081810360008301526200062381620005e1565b9050919050565b60805160a051612d1e6200065e60003960006103510152600081816106fe01528181610c090152610d1d0152612d1e6000f3fe608060405234801561001057600080fd5b50600436106100ff5760003560e01c80638da5cb5b116100975780639e8e4d1d116100665780639e8e4d1d14610217578063aa8c217c14610235578063ec65d0f814610253578063f2fde38b1461026f576100ff565b80638da5cb5b146101b55780638dc654a2146101d357806392bb9e18146101dd57806399fbe43e146101fb576100ff565b80635fd8c710116100d35780635fd8c7101461017b5780637642d3751461018557806379ba5097146101a15780638d8f2adb146101ab576100ff565b806223de2914610104578063165d35e1146101205780632163885a1461013e5780635dab24201461015d575b600080fd5b61011e600480360381019061011991906119c0565b61028b565b005b6101286102ad565b6040516101359190611a9e565b60405180910390f35b6101466102bc565b604051610154929190611ac8565b60405180910390f35b61016561034f565b6040516101729190611a9e565b60405180910390f35b610183610373565b005b61019f600480360381019061019a9190611c68565b6103c4565b005b6101a9610521565b005b6101b36106b8565b005b6101bd610796565b6040516101ca9190611a9e565b60405180910390f35b6101db6107c0565b005b6101e561090d565b6040516101f29190611d4c565b60405180910390f35b61021560048036038101906102109190611d6e565b61099b565b005b61021f610c07565b60405161022c9190611e9c565b60405180910390f35b61023d610c2b565b60405161024a9190611eb7565b60405180910390f35b61026d60048036038101906102689190611f2a565b610c31565b005b61028960048036038101906102849190611f91565b610c4b565b005b8460008082825461029c9190611fed565b925050819055505050505050505050565b60006102b7610c5f565b905090565b60008047915060006102cc610c5f565b90508073ffffffffffffffffffffffffffffffffffffffff166370a08231306040518263ffffffff1660e01b81526004016103079190611a9e565b602060405180830381865afa158015610324573d6000803e3d6000fd5b505050506040513d601f19601f820116820180604052508101906103489190612058565b9150509091565b7f000000000000000000000000000000000000000000000000000000000000000081565b61037b610c89565b3373ffffffffffffffffffffffffffffffffffffffff166108fc479081150290604051600060405180830381858888f193505050501580156103c1573d6000803e3d6000fd5b50565b816006600082815260200190815260200160002060009054906101000a900473ffffffffffffffffffffffffffffffffffffffff1673ffffffffffffffffffffffffffffffffffffffff163373ffffffffffffffffffffffffffffffffffffffff1614610466576040517f08c379a000000000000000000000000000000000000000000000000000000000815260040161045d906120f7565b60405180910390fd5b6006600082815260200190815260200160002060006101000a81549073ffffffffffffffffffffffffffffffffffffffff0219169055807f7cc135e0cebb02c3480ae5d74d377283180a2601f8f644edf7987b009316c63a60405160405180910390a2816040516104d79190612153565b6040518091039020837f05d0ea3a4c0dc17f032ba24393c968625c8648a6d6afc1053e8765b0c9519d5a60405160405180910390a381600a908161051b919061236c565b50505050565b600860009054906101000a900473ffffffffffffffffffffffffffffffffffffffff1673ffffffffffffffffffffffffffffffffffffffff163373ffffffffffffffffffffffffffffffffffffffff16146105b1576040517f08c379a00000000000000000000000000000000000000000000000000000000081526004016105a89061248a565b60405180910390fd5b6000600760009054906101000a900473ffffffffffffffffffffffffffffffffffffffff16905033600760006101000a81548173ffffffffffffffffffffffffffffffffffffffff021916908373ffffffffffffffffffffffffffffffffffffffff1602179055506000600860006101000a81548173ffffffffffffffffffffffffffffffffffffffff021916908373ffffffffffffffffffffffffffffffffffffffff1602179055503373ffffffffffffffffffffffffffffffffffffffff168173ffffffffffffffffffffffffffffffffffffffff167f8be0079c531659141344cd1fd0a4f28419497f9722a3daafe3b4186f6b6457e060405160405180910390a350565b60008054116106fc576040517f08c379a00000000000000000000000000000000000000000000000000000000081526004016106f3906124f6565b60405180910390fd5b7f000000000000000000000000000000000000000000000000000000000000000073ffffffffffffffffffffffffffffffffffffffff166362ad1b8330336000546040518463ffffffff1660e01b815260040161075b9392919061254d565b600060405180830381600087803b15801561077557600080fd5b505af1158015610789573d6000803e3d6000fd5b5050505060008081905550565b6000600760009054906101000a900473ffffffffffffffffffffffffffffffffffffffff16905090565b6107c8610c89565b60006107d2610c5f565b90508073ffffffffffffffffffffffffffffffffffffffff1663a9059cbb338373ffffffffffffffffffffffffffffffffffffffff166370a08231306040518263ffffffff1660e01b815260040161082a9190611a9e565b602060405180830381865afa158015610847573d6000803e3d6000fd5b505050506040513d601f19601f8201168201806040525081019061086b9190612058565b6040518363ffffffff1660e01b81526004016108889291906125aa565b6020604051808303816000875af11580156108a7573d6000803e3d6000fd5b505050506040513d601f19601f820116820180604052508101906108cb919061260b565b61090a576040517f08c379a000000000000000000000000000000000000000000000000000000000815260040161090190612684565b60405180910390fd5b50565b600a805461091a90612199565b80601f016020809104026020016040519081016040528092919081815260200182805461094690612199565b80156109935780601f1061096857610100808354040283529160200191610993565b820191906000526020600020905b81548152906001019060200180831161097657829003601f168201915b505050505081565b6109a3610c89565b670de0b6b3a7640000826109b791906126a4565b600960009054906101000a900473ffffffffffffffffffffffffffffffffffffffff1673ffffffffffffffffffffffffffffffffffffffff1663f38e266a336040518263ffffffff1660e01b8152600401610a129190611a9e565b602060405180830381865afa158015610a2f573d6000803e3d6000fd5b505050506040513d601f19601f82011682018060405250810190610a539190612058565b11610a93576040517f08c379a0000000000000000000000000000000000000000000000000000000008152600401610a8a9061274a565b60405180910390fd5b610aaf670de0b6b3a764000083610aaa91906126a4565b610d1b565b6000610aca610abd86610dc5565b637642d37560e01b610dee565b9050610b166040518060400160405280600581526020017f656d61696c0000000000000000000000000000000000000000000000000000008152508583610e1e9092919063ffffffff16565b610b606040518060400160405280600581526020017f76616c75650000000000000000000000000000000000000000000000000000008152508383610e1e9092919063ffffffff16565b610bdf6040518060400160405280600981526020017f686173685472616e7800000000000000000000000000000000000000000000008152506040518060400160405280600c81526020017f706f72496d706c656e746172000000000000000000000000000000000000000081525083610e1e9092919063ffffffff16565b610bfe8682670de0b6b3a76400006001610bf991906126a4565b610e51565b50505050505050565b7f000000000000000000000000000000000000000000000000000000000000000081565b60005481565b610c39610c89565b610c4584848484610f1b565b50505050565b610c53610c89565b610c5c8161102e565b50565b6000600360009054906101000a900473ffffffffffffffffffffffffffffffffffffffff16905090565b600760009054906101000a900473ffffffffffffffffffffffffffffffffffffffff1673ffffffffffffffffffffffffffffffffffffffff163373ffffffffffffffffffffffffffffffffffffffff1614610d19576040517f08c379a0000000000000000000000000000000000000000000000000000000008152600401610d10906127b6565b60405180910390fd5b565b7f000000000000000000000000000000000000000000000000000000000000000073ffffffffffffffffffffffffffffffffffffffff166362ad1b833330846040518463ffffffff1660e01b8152600401610d789392919061254d565b600060405180830381600087803b158015610d9257600080fd5b505af1158015610da6573d6000803e3d6000fd5b5050505080600080828254610dbb9190611fed565b9250508190555050565b6000808290506000815103610de0576000801b915050610de9565b60208301519150505b919050565b610df661182c565b610dfe61182c565b610e158430858461115c909392919063ffffffff16565b91505092915050565b610e3582846080015161120c90919063ffffffff16565b610e4c81846080015161120c90919063ffffffff16565b505050565b6000806005549050600181610e669190611fed565b6005819055506000633c6d41b960e01b600080876000015188604001518660028b6080015160000151604051602401610ea59796959493929190612838565b604051602081830303815290604052907bffffffffffffffffffffffffffffffffffffffffffffffffffffffff19166020820180517bffffffffffffffffffffffffffffffffffffffffffffffffffffffff83818316178352505050509050610f1086838684611231565b925050509392505050565b60006006600086815260200190815260200160002060009054906101000a900473ffffffffffffffffffffffffffffffffffffffff1690506006600086815260200190815260200160002060006101000a81549073ffffffffffffffffffffffffffffffffffffffff0219169055847fe1fe3afa0f7f761ff0a8b89086790efd5140d2907ebd5b7ff6bfcb5e075fd4c560405160405180910390a28073ffffffffffffffffffffffffffffffffffffffff16636ee4d553868686866040518563ffffffff1660e01b8152600401610ff594939291906128ae565b600060405180830381600087803b15801561100f57600080fd5b505af1158015611023573d6000803e3d6000fd5b505050505050505050565b3373ffffffffffffffffffffffffffffffffffffffff168173ffffffffffffffffffffffffffffffffffffffff160361109c576040517f08c379a00000000000000000000000000000000000000000000000000000000081526004016110939061293f565b60405180910390fd5b80600860006101000a81548173ffffffffffffffffffffffffffffffffffffffff021916908373ffffffffffffffffffffffffffffffffffffffff1602179055508073ffffffffffffffffffffffffffffffffffffffff16600760009054906101000a900473ffffffffffffffffffffffffffffffffffffffff1673ffffffffffffffffffffffffffffffffffffffff167fed8889f560326eb138920d842192f0eb3dd22b4f139c87a2c57538e05bae127860405160405180910390a350565b61116461182c565b61117485608001516101006113c6565b508385600001818152505082856020019073ffffffffffffffffffffffffffffffffffffffff16908173ffffffffffffffffffffffffffffffffffffffff16815250508185604001907bffffffffffffffffffffffffffffffffffffffffffffffffffffffff191690817bffffffffffffffffffffffffffffffffffffffffffffffffffffffff191681525050849050949350505050565b6112198260038351611430565b61122c81836115b590919063ffffffff16565b505050565b600030846040516020016112469291906129da565b604051602081830303815290604052805190602001209050846006600083815260200190815260200160002060006101000a81548173ffffffffffffffffffffffffffffffffffffffff021916908373ffffffffffffffffffffffffffffffffffffffff160217905550807fb5e6e01e79f91267dc17b4e6314d5d4d03593d2ceee0fbb452b750bd70ea5af960405160405180910390a2600360009054906101000a900473ffffffffffffffffffffffffffffffffffffffff1673ffffffffffffffffffffffffffffffffffffffff16634000aea08685856040518463ffffffff1660e01b815260040161133c93929190612a06565b6020604051808303816000875af115801561135b573d6000803e3d6000fd5b505050506040513d601f19601f8201168201806040525081019061137f919061260b565b6113be576040517f08c379a00000000000000000000000000000000000000000000000000000000081526004016113b590612ab6565b60405180910390fd5b949350505050565b6113ce611899565b60006020836113dd9190612b05565b14611409576020826113ef9190612b05565b60206113fb9190612b36565b826114069190611fed565b91505b81836020018181525050604051808452600081528281016020016040525082905092915050565b60178167ffffffffffffffff1611611467576114618160058460ff16901b60ff1617846115d790919063ffffffff16565b506115b0565b60ff8167ffffffffffffffff16116114bd57611496601860058460ff16901b17846115d790919063ffffffff16565b506114b78167ffffffffffffffff166001856115f79092919063ffffffff16565b506115af565b61ffff8167ffffffffffffffff1611611514576114ed601960058460ff16901b17846115d790919063ffffffff16565b5061150e8167ffffffffffffffff166002856115f79092919063ffffffff16565b506115ae565b63ffffffff8167ffffffffffffffff161161156d57611546601a60058460ff16901b17846115d790919063ffffffff16565b506115678167ffffffffffffffff166004856115f79092919063ffffffff16565b506115ad565b61158a601b60058460ff16901b17846115d790919063ffffffff16565b506115ab8167ffffffffffffffff166008856115f79092919063ffffffff16565b505b5b5b5b505050565b6115bd611899565b6115cf83846000015151848551611619565b905092915050565b6115df611899565b6115ef8384600001515184611708565b905092915050565b6115ff611899565b61161084856000015151858561175e565b90509392505050565b611621611899565b825182111561162f57600080fd5b846020015182856116409190611fed565b111561167557611674856002611665886020015188876116609190611fed565b6117ec565b61166f91906126a4565b611808565b5b6000808651805187602083010193508088870111156116945787860182525b60208701925050505b602084106116db57805182526020826116b69190611fed565b91506020816116c59190611fed565b90506020846116d49190612b36565b935061169d565b60006001856020036101000a03905080198251168184511681811785525050508692505050949350505050565b611710611899565b8360200151831061173657611735846002866020015161173091906126a4565b611808565b5b83518051602085830101848153818603611751576001820183525b5050508390509392505050565b611766611899565b846020015184836117779190611fed565b111561179f5761179e856002868561178f9190611fed565b61179991906126a4565b611808565b5b60006001836101006117b19190612c9d565b6117bb9190612b36565b905085518386820101858319825116178152815185880111156117de5784870182525b505085915050949350505050565b6000818311156117fe57829050611802565b8190505b92915050565b60008260000151905061181b83836113c6565b5061182683826115b5565b50505050565b6040518060a0016040528060008019168152602001600073ffffffffffffffffffffffffffffffffffffffff16815260200160007bffffffffffffffffffffffffffffffffffffffffffffffffffffffff1916815260200160008152602001611893611899565b81525090565b604051806040016040528060608152602001600081525090565b6000604051905090565b600080fd5b600080fd5b600073ffffffffffffffffffffffffffffffffffffffff82169050919050565b60006118f2826118c7565b9050919050565b611902816118e7565b811461190d57600080fd5b50565b60008135905061191f816118f9565b92915050565b6000819050919050565b61193881611925565b811461194357600080fd5b50565b6000813590506119558161192f565b92915050565b600080fd5b600080fd5b600080fd5b60008083601f8401126119805761197f61195b565b5b8235905067ffffffffffffffff81111561199d5761199c611960565b5b6020830191508360018202830111156119b9576119b8611965565b5b9250929050565b60008060008060008060008060c0898b0312156119e0576119df6118bd565b5b60006119ee8b828c01611910565b98505060206119ff8b828c01611910565b9750506040611a108b828c01611910565b9650506060611a218b828c01611946565b955050608089013567ffffffffffffffff811115611a4257611a416118c2565b5b611a4e8b828c0161196a565b945094505060a089013567ffffffffffffffff811115611a7157611a706118c2565b5b611a7d8b828c0161196a565b92509250509295985092959890939650565b611a98816118e7565b82525050565b6000602082019050611ab36000830184611a8f565b92915050565b611ac281611925565b82525050565b6000604082019050611add6000830185611ab9565b611aea6020830184611ab9565b9392505050565b6000819050919050565b611b0481611af1565b8114611b0f57600080fd5b50565b600081359050611b2181611afb565b92915050565b600080fd5b6000601f19601f8301169050919050565b7f4e487b7100000000000000000000000000000000000000000000000000000000600052604160045260246000fd5b611b7582611b2c565b810181811067ffffffffffffffff82111715611b9457611b93611b3d565b5b80604052505050565b6000611ba76118b3565b9050611bb38282611b6c565b919050565b600067ffffffffffffffff821115611bd357611bd2611b3d565b5b611bdc82611b2c565b9050602081019050919050565b82818337600083830152505050565b6000611c0b611c0684611bb8565b611b9d565b905082815260208101848484011115611c2757611c26611b27565b5b611c32848285611be9565b509392505050565b600082601f830112611c4f57611c4e61195b565b5b8135611c5f848260208601611bf8565b91505092915050565b60008060408385031215611c7f57611c7e6118bd565b5b6000611c8d85828601611b12565b925050602083013567ffffffffffffffff811115611cae57611cad6118c2565b5b611cba85828601611c3a565b9150509250929050565b600081519050919050565b600082825260208201905092915050565b60005b83811015611cfe578082015181840152602081019050611ce3565b83811115611d0d576000848401525b50505050565b6000611d1e82611cc4565b611d288185611ccf565b9350611d38818560208601611ce0565b611d4181611b2c565b840191505092915050565b60006020820190508181036000830152611d668184611d13565b905092915050565b600080600080600060a08688031215611d8a57611d896118bd565b5b6000611d9888828901611910565b955050602086013567ffffffffffffffff811115611db957611db86118c2565b5b611dc588828901611c3a565b945050604086013567ffffffffffffffff811115611de657611de56118c2565b5b611df288828901611c3a565b9350506060611e0388828901611946565b925050608086013567ffffffffffffffff811115611e2457611e236118c2565b5b611e3088828901611c3a565b9150509295509295909350565b6000819050919050565b6000611e62611e5d611e58846118c7565b611e3d565b6118c7565b9050919050565b6000611e7482611e47565b9050919050565b6000611e8682611e69565b9050919050565b611e9681611e7b565b82525050565b6000602082019050611eb16000830184611e8d565b92915050565b6000602082019050611ecc6000830184611ab9565b92915050565b60007fffffffff0000000000000000000000000000000000000000000000000000000082169050919050565b611f0781611ed2565b8114611f1257600080fd5b50565b600081359050611f2481611efe565b92915050565b60008060008060808587031215611f4457611f436118bd565b5b6000611f5287828801611b12565b9450506020611f6387828801611946565b9350506040611f7487828801611f15565b9250506060611f8587828801611946565b91505092959194509250565b600060208284031215611fa757611fa66118bd565b5b6000611fb584828501611910565b91505092915050565b7f4e487b7100000000000000000000000000000000000000000000000000000000600052601160045260246000fd5b6000611ff882611925565b915061200383611925565b9250827fffffffffffffffffffffffffffffffffffffffffffffffffffffffffffffffff0382111561203857612037611fbe565b5b828201905092915050565b6000815190506120528161192f565b92915050565b60006020828403121561206e5761206d6118bd565b5b600061207c84828501612043565b91505092915050565b7f536f75726365206d75737420626520746865206f7261636c65206f662074686560008201527f2072657175657374000000000000000000000000000000000000000000000000602082015250565b60006120e1602883611ccf565b91506120ec82612085565b604082019050919050565b60006020820190508181036000830152612110816120d4565b9050919050565b600081905092915050565b600061212d82611cc4565b6121378185612117565b9350612147818560208601611ce0565b80840191505092915050565b600061215f8284612122565b915081905092915050565b7f4e487b7100000000000000000000000000000000000000000000000000000000600052602260045260246000fd5b600060028204905060018216806121b157607f821691505b6020821081036121c4576121c361216a565b5b50919050565b60008190508160005260206000209050919050565b60006020601f8301049050919050565b600082821b905092915050565b60006008830261222c7fffffffffffffffffffffffffffffffffffffffffffffffffffffffffffffffff826121ef565b61223686836121ef565b95508019841693508086168417925050509392505050565b600061226961226461225f84611925565b611e3d565b611925565b9050919050565b6000819050919050565b6122838361224e565b61229761228f82612270565b8484546121fc565b825550505050565b600090565b6122ac61229f565b6122b781848461227a565b505050565b5b818110156122db576122d06000826122a4565b6001810190506122bd565b5050565b601f821115612320576122f1816121ca565b6122fa846121df565b81016020851015612309578190505b61231d612315856121df565b8301826122bc565b50505b505050565b600082821c905092915050565b600061234360001984600802612325565b1980831691505092915050565b600061235c8383612332565b9150826002028217905092915050565b61237582611cc4565b67ffffffffffffffff81111561238e5761238d611b3d565b5b6123988254612199565b6123a38282856122df565b600060209050601f8311600181146123d657600084156123c4578287015190505b6123ce8582612350565b865550612436565b601f1984166123e4866121ca565b60005b8281101561240c578489015182556001820191506020850194506020810190506123e7565b868310156124295784890151612425601f891682612332565b8355505b6001600288020188555050505b505050505050565b7f4d7573742062652070726f706f736564206f776e657200000000000000000000600082015250565b6000612474601683611ccf565b915061247f8261243e565b602082019050919050565b600060208201905081810360008301526124a381612467565b9050919050565b7f546865726520646f6e277420626520746f6b656e730000000000000000000000600082015250565b60006124e0601583611ccf565b91506124eb826124aa565b602082019050919050565b6000602082019050818103600083015261250f816124d3565b9050919050565b600082825260208201905092915050565b50565b6000612537600083612516565b915061254282612527565b600082019050919050565b600060a0820190506125626000830186611a8f565b61256f6020830185611a8f565b61257c6040830184611ab9565b818103606083015261258d8161252a565b905081810360808301526125a08161252a565b9050949350505050565b60006040820190506125bf6000830185611a8f565b6125cc6020830184611ab9565b9392505050565b60008115159050919050565b6125e8816125d3565b81146125f357600080fd5b50565b600081519050612605816125df565b92915050565b600060208284031215612621576126206118bd565b5b600061262f848285016125f6565b91505092915050565b7f556e61626c6520746f207472616e73666572204c696e6b000000000000000000600082015250565b600061266e601783611ccf565b915061267982612638565b602082019050919050565b6000602082019050818103600083015261269d81612661565b9050919050565b60006126af82611925565b91506126ba83611925565b9250817fffffffffffffffffffffffffffffffffffffffffffffffffffffffffffffffff04831182151516156126f3576126f2611fbe565b5b828202905092915050565b7f496e73756666696369656e7420746f6b656e7300000000000000000000000000600082015250565b6000612734601383611ccf565b915061273f826126fe565b602082019050919050565b6000602082019050818103600083015261276381612727565b9050919050565b7f4f6e6c792063616c6c61626c65206279206f776e657200000000000000000000600082015250565b60006127a0601683611ccf565b91506127ab8261276a565b602082019050919050565b600060208201905081810360008301526127cf81612793565b9050919050565b6127df81611af1565b82525050565b6127ee81611ed2565b82525050565b600081519050919050565b600061280a826127f4565b6128148185612516565b9350612824818560208601611ce0565b61282d81611b2c565b840191505092915050565b600060e08201905061284d600083018a611a8f565b61285a6020830189611ab9565b61286760408301886127d6565b61287460608301876127e5565b6128816080830186611ab9565b61288e60a0830185611ab9565b81810360c08301526128a081846127ff565b905098975050505050505050565b60006080820190506128c360008301876127d6565b6128d06020830186611ab9565b6128dd60408301856127e5565b6128ea6060830184611ab9565b95945050505050565b7f43616e6e6f74207472616e7366657220746f2073656c66000000000000000000600082015250565b6000612929601783611ccf565b9150612934826128f3565b602082019050919050565b600060208201905081810360008301526129588161291c565b9050919050565b600061296a82611e69565b9050919050565b60008160601b9050919050565b600061298982612971565b9050919050565b600061299b8261297e565b9050919050565b6129b36129ae8261295f565b612990565b82525050565b6000819050919050565b6129d46129cf82611925565b6129b9565b82525050565b60006129e682856129a2565b6014820191506129f682846129c3565b6020820191508190509392505050565b6000606082019050612a1b6000830186611a8f565b612a286020830185611ab9565b8181036040830152612a3a81846127ff565b9050949350505050565b7f756e61626c6520746f207472616e73666572416e6443616c6c20746f206f726160008201527f636c650000000000000000000000000000000000000000000000000000000000602082015250565b6000612aa0602383611ccf565b9150612aab82612a44565b604082019050919050565b60006020820190508181036000830152612acf81612a93565b9050919050565b7f4e487b7100000000000000000000000000000000000000000000000000000000600052601260045260246000fd5b6000612b1082611925565b9150612b1b83611925565b925082612b2b57612b2a612ad6565b5b828206905092915050565b6000612b4182611925565b9150612b4c83611925565b925082821015612b5f57612b5e611fbe565b5b828203905092915050565b60008160011c9050919050565b6000808291508390505b6001851115612bc157808604811115612b9d57612b9c611fbe565b5b6001851615612bac5780820291505b8081029050612bba85612b6a565b9450612b81565b94509492505050565b600082612bda5760019050612c96565b81612be85760009050612c96565b8160018114612bfe5760028114612c0857612c37565b6001915050612c96565b60ff841115612c1a57612c19611fbe565b5b8360020a915084821115612c3157612c30611fbe565b5b50612c96565b5060208310610133831016604e8410600b8410161715612c6c5782820a905083811115612c6757612c66611fbe565b5b612c96565b612c798484846001612b77565b92509050818404811115612c9057612c8f611fbe565b5b81810290505b9392505050565b6000612ca882611925565b9150612cb383611925565b9250612ce07fffffffffffffffffffffffffffffffffffffffffffffffffffffffffffffffff8484612bca565b90509291505056fea26469706673582212202b7b9da7e6db04c97a844c44e3763157e1afb72f6cb240f0089d3e3b584b1b8b64736f6c634300080f0033",
  "linkReferences": {},
  "deployedLinkReferences": {}
}