{
  "_format": "hh-sol-artifact-1",
  "contractName": "BenefitGaslessContract",
  "sourceName": "src/blockchain/hardhat/contracts/BenefitGaslessContract.sol",
  "abi": [
    {
      "inputs": [
        {
          "internalType": "contract MinimalForwarder",
          "name": "forwarder",
          "type": "address"
        },
        {
          "internalType": "address",
          "name": "_manager",
          "type": "address"
        },
        {
          "internalType": "uint256",
          "name": "_maxMint",
          "type": "uint256"
        },
        {
          "internalType": "string",
          "name": "_uri",
          "type": "string"
        },
        {
          "internalType": "uint256",
          "name": "_price",
          "type": "uint256"
        },
        {
          "internalType": "address",
          "name": "_erc777Address",
          "type": "address"
        },
        {
          "internalType": "string",
          "name": "_name",
          "type": "string"
        },
        {
          "internalType": "string",
          "name": "_symbol",
          "type": "string"
        }
      ],
      "stateMutability": "nonpayable",
      "type": "constructor"
    },
    {
      "anonymous": false,
      "inputs": [
        {
          "indexed": true,
          "internalType": "address",
          "name": "owner",
          "type": "address"
        },
        {
          "indexed": true,
          "internalType": "address",
          "name": "approved",
          "type": "address"
        },
        {
          "indexed": true,
          "internalType": "uint256",
          "name": "tokenId",
          "type": "uint256"
        }
      ],
      "name": "Approval",
      "type": "event"
    },
    {
      "anonymous": false,
      "inputs": [
        {
          "indexed": true,
          "internalType": "address",
          "name": "owner",
          "type": "address"
        },
        {
          "indexed": true,
          "internalType": "address",
          "name": "operator",
          "type": "address"
        },
        {
          "indexed": false,
          "internalType": "bool",
          "name": "approved",
          "type": "bool"
        }
      ],
      "name": "ApprovalForAll",
      "type": "event"
    },
    {
      "anonymous": false,
      "inputs": [
        {
          "indexed": true,
          "internalType": "address",
          "name": "from",
          "type": "address"
        },
        {
          "indexed": true,
          "internalType": "address",
          "name": "to",
          "type": "address"
        },
        {
          "indexed": true,
          "internalType": "uint256",
          "name": "tokenId",
          "type": "uint256"
        }
      ],
      "name": "Transfer",
      "type": "event"
    },
    {
      "inputs": [],
      "name": "ItemCounter",
      "outputs": [
        {
          "internalType": "uint256",
          "name": "_value",
          "type": "uint256"
        }
      ],
      "stateMutability": "view",
      "type": "function"
    },
    {
      "inputs": [],
      "name": "account",
      "outputs": [
        {
          "internalType": "address",
          "name": "",
          "type": "address"
        }
      ],
      "stateMutability": "view",
      "type": "function"
    },
    {
      "inputs": [],
      "name": "amount",
      "outputs": [
        {
          "internalType": "uint256",
          "name": "",
          "type": "uint256"
        }
      ],
      "stateMutability": "view",
      "type": "function"
    },
    {
      "inputs": [
        {
          "internalType": "address",
          "name": "to",
          "type": "address"
        },
        {
          "internalType": "uint256",
          "name": "tokenId",
          "type": "uint256"
        }
      ],
      "name": "approve",
      "outputs": [],
      "stateMutability": "nonpayable",
      "type": "function"
    },
    {
      "inputs": [
        {
          "internalType": "address",
          "name": "owner",
          "type": "address"
        }
      ],
      "name": "balanceOf",
      "outputs": [
        {
          "internalType": "uint256",
          "name": "",
          "type": "uint256"
        }
      ],
      "stateMutability": "view",
      "type": "function"
    },
    {
      "inputs": [
        {
          "internalType": "address",
          "name": "",
          "type": "address"
        },
        {
          "internalType": "uint256",
          "name": "",
          "type": "uint256"
        }
      ],
      "name": "benefitsIdByCustomer",
      "outputs": [
        {
          "internalType": "uint256",
          "name": "",
          "type": "uint256"
        }
      ],
      "stateMutability": "view",
      "type": "function"
    },
    {
      "inputs": [
        {
          "internalType": "uint256",
          "name": "_tokenId",
          "type": "uint256"
        }
      ],
      "name": "checkIn",
      "outputs": [
        {
          "internalType": "bool",
          "name": "",
          "type": "bool"
        }
      ],
      "stateMutability": "nonpayable",
      "type": "function"
    },
    {
      "inputs": [],
      "name": "erc777",
      "outputs": [
        {
          "internalType": "contract ERC777",
          "name": "",
          "type": "address"
        }
      ],
      "stateMutability": "view",
      "type": "function"
    },
    {
      "inputs": [
        {
          "internalType": "uint256",
          "name": "tokenId",
          "type": "uint256"
        }
      ],
      "name": "getApproved",
      "outputs": [
        {
          "internalType": "address",
          "name": "",
          "type": "address"
        }
      ],
      "stateMutability": "view",
      "type": "function"
    },
    {
      "inputs": [
        {
          "internalType": "address",
          "name": "_owner",
          "type": "address"
        }
      ],
      "name": "getBenefitsIdsByCustomer",
      "outputs": [
        {
          "internalType": "uint256[]",
          "name": "",
          "type": "uint256[]"
        }
      ],
      "stateMutability": "view",
      "type": "function"
    },
    {
      "inputs": [
        {
          "internalType": "address",
          "name": "owner",
          "type": "address"
        },
        {
          "internalType": "address",
          "name": "operator",
          "type": "address"
        }
      ],
      "name": "isApprovedForAll",
      "outputs": [
        {
          "internalType": "bool",
          "name": "",
          "type": "bool"
        }
      ],
      "stateMutability": "view",
      "type": "function"
    },
    {
      "inputs": [],
      "name": "isManagerOrAdmin",
      "outputs": [
        {
          "internalType": "bool",
          "name": "",
          "type": "bool"
        }
      ],
      "stateMutability": "view",
      "type": "function"
    },
    {
      "inputs": [
        {
          "internalType": "address",
          "name": "forwarder",
          "type": "address"
        }
      ],
      "name": "isTrustedForwarder",
      "outputs": [
        {
          "internalType": "bool",
          "name": "",
          "type": "bool"
        }
      ],
      "stateMutability": "view",
      "type": "function"
    },
    {
      "inputs": [],
      "name": "maxMint",
      "outputs": [
        {
          "internalType": "uint256",
          "name": "",
          "type": "uint256"
        }
      ],
      "stateMutability": "view",
      "type": "function"
    },
    {
      "inputs": [],
      "name": "name",
      "outputs": [
        {
          "internalType": "string",
          "name": "",
          "type": "string"
        }
      ],
      "stateMutability": "view",
      "type": "function"
    },
    {
      "inputs": [
        {
          "internalType": "uint256",
          "name": "tokenId",
          "type": "uint256"
        }
      ],
      "name": "ownerOf",
      "outputs": [
        {
          "internalType": "address",
          "name": "",
          "type": "address"
        }
      ],
      "stateMutability": "view",
      "type": "function"
    },
    {
      "inputs": [],
      "name": "price",
      "outputs": [
        {
          "internalType": "uint256",
          "name": "",
          "type": "uint256"
        }
      ],
      "stateMutability": "view",
      "type": "function"
    },
    {
      "inputs": [
        {
          "internalType": "address",
          "name": "_customer",
          "type": "address"
        },
        {
          "internalType": "uint256",
          "name": "_tokenId",
          "type": "uint256"
        }
      ],
      "name": "redeemBenefit",
      "outputs": [
        {
          "internalType": "bool",
          "name": "",
          "type": "bool"
        }
      ],
      "stateMutability": "nonpayable",
      "type": "function"
    },
    {
      "inputs": [
        {
          "internalType": "address",
          "name": "_tokenAddress",
          "type": "address"
        }
      ],
      "name": "safeMint",
      "outputs": [
        {
          "internalType": "uint256",
          "name": "",
          "type": "uint256"
        }
      ],
      "stateMutability": "nonpayable",
      "type": "function"
    },
    {
      "inputs": [
        {
          "internalType": "address",
          "name": "from",
          "type": "address"
        },
        {
          "internalType": "address",
          "name": "to",
          "type": "address"
        },
        {
          "internalType": "uint256",
          "name": "tokenId",
          "type": "uint256"
        }
      ],
      "name": "safeTransferFrom",
      "outputs": [],
      "stateMutability": "nonpayable",
      "type": "function"
    },
    {
      "inputs": [
        {
          "internalType": "address",
          "name": "from",
          "type": "address"
        },
        {
          "internalType": "address",
          "name": "to",
          "type": "address"
        },
        {
          "internalType": "uint256",
          "name": "tokenId",
          "type": "uint256"
        },
        {
          "internalType": "bytes",
          "name": "data",
          "type": "bytes"
        }
      ],
      "name": "safeTransferFrom",
      "outputs": [],
      "stateMutability": "nonpayable",
      "type": "function"
    },
    {
      "inputs": [
        {
          "internalType": "address",
          "name": "operator",
          "type": "address"
        },
        {
          "internalType": "bool",
          "name": "approved",
          "type": "bool"
        }
      ],
      "name": "setApprovalForAll",
      "outputs": [],
      "stateMutability": "nonpayable",
      "type": "function"
    },
    {
      "inputs": [
        {
          "internalType": "bytes4",
          "name": "interfaceId",
          "type": "bytes4"
        }
      ],
      "name": "supportsInterface",
      "outputs": [
        {
          "internalType": "bool",
          "name": "",
          "type": "bool"
        }
      ],
      "stateMutability": "view",
      "type": "function"
    },
    {
      "inputs": [],
      "name": "symbol",
      "outputs": [
        {
          "internalType": "string",
          "name": "",
          "type": "string"
        }
      ],
      "stateMutability": "view",
      "type": "function"
    },
    {
      "inputs": [],
      "name": "tokenIdCounter",
      "outputs": [
        {
          "internalType": "uint256",
          "name": "_value",
          "type": "uint256"
        }
      ],
      "stateMutability": "view",
      "type": "function"
    },
    {
      "inputs": [
        {
          "internalType": "uint256",
          "name": "tokenId",
          "type": "uint256"
        }
      ],
      "name": "tokenURI",
      "outputs": [
        {
          "internalType": "string",
          "name": "",
          "type": "string"
        }
      ],
      "stateMutability": "view",
      "type": "function"
    },
    {
      "inputs": [
        {
          "internalType": "uint256",
          "name": "",
          "type": "uint256"
        }
      ],
      "name": "tokens",
      "outputs": [
        {
          "internalType": "uint256",
          "name": "id",
          "type": "uint256"
        },
        {
          "internalType": "string",
          "name": "URI",
          "type": "string"
        },
        {
          "internalType": "bool",
          "name": "checkIn",
          "type": "bool"
        },
        {
          "internalType": "bool",
          "name": "redeem",
          "type": "bool"
        },
        {
          "internalType": "address",
          "name": "buyer",
          "type": "address"
        }
      ],
      "stateMutability": "view",
      "type": "function"
    },
    {
      "inputs": [
        {
          "internalType": "address",
          "name": "_operator",
          "type": "address"
        },
        {
          "internalType": "address",
          "name": "_from",
          "type": "address"
        },
        {
          "internalType": "address",
          "name": "_to",
          "type": "address"
        },
        {
          "internalType": "uint256",
          "name": "_amount",
          "type": "uint256"
        },
        {
          "internalType": "bytes",
          "name": "_userData",
          "type": "bytes"
        },
        {
          "internalType": "bytes",
          "name": "_operatorData",
          "type": "bytes"
        }
      ],
      "name": "tokensReceived",
      "outputs": [],
      "stateMutability": "nonpayable",
      "type": "function"
    },
    {
      "inputs": [
        {
          "internalType": "address",
          "name": "from",
          "type": "address"
        },
        {
          "internalType": "address",
          "name": "to",
          "type": "address"
        },
        {
          "internalType": "uint256",
          "name": "tokenId",
          "type": "uint256"
        }
      ],
      "name": "transferFrom",
      "outputs": [],
      "stateMutability": "nonpayable",
      "type": "function"
    },
    {
      "inputs": [],
      "name": "uri",
      "outputs": [
        {
          "internalType": "string",
          "name": "",
          "type": "string"
        }
      ],
      "stateMutability": "view",
      "type": "function"
    },
    {
      "inputs": [],
      "name": "withdrawTokens",
      "outputs": [],
      "stateMutability": "nonpayable",
      "type": "function"
    }
  ],
  "bytecode": "0x60e06040523480156200001157600080fd5b506040516200517238038062005172833981810160405281019062000037919062000609565b8282828a8073ffffffffffffffffffffffffffffffffffffffff1660808173ffffffffffffffffffffffffffffffffffffffff168152505050816000908162000081919062000970565b50806001908162000093919062000970565b505050731820a4b7618bde71dce8cdc73aab6c95905fad2473ffffffffffffffffffffffffffffffffffffffff166329965a1d307fb281fc8c12954d22544db45de3159a39272895b169a852b314f9cc762e44c53b306040518463ffffffff1660e01b8152600401620001099392919062000a83565b600060405180830381600087803b1580156200012457600080fd5b505af115801562000139573d6000803e3d6000fd5b505050508073ffffffffffffffffffffffffffffffffffffffff1660a08173ffffffffffffffffffffffffffffffffffffffff16815250503373ffffffffffffffffffffffffffffffffffffffff1660c08173ffffffffffffffffffffffffffffffffffffffff168152505050620001c13360086200020a60201b620019411790919060201c565b620001dc8760096200020a60201b620019411790919060201c565b84600e9081620001ed919062000970565b508360108190555085600f81905550505050505050505062000bdb565b6200021c8282620002bd60201b60201c565b156200025f576040517f08c379a0000000000000000000000000000000000000000000000000000000008152600401620002569062000b21565b60405180910390fd5b60018260000160008373ffffffffffffffffffffffffffffffffffffffff1673ffffffffffffffffffffffffffffffffffffffff16815260200190815260200160002060006101000a81548160ff0219169083151502179055505050565b60008073ffffffffffffffffffffffffffffffffffffffff168273ffffffffffffffffffffffffffffffffffffffff160362000330576040517f08c379a0000000000000000000000000000000000000000000000000000000008152600401620003279062000bb9565b60405180910390fd5b8260000160008373ffffffffffffffffffffffffffffffffffffffff1673ffffffffffffffffffffffffffffffffffffffff16815260200190815260200160002060009054906101000a900460ff16905092915050565b6000604051905090565b600080fd5b600080fd5b600073ffffffffffffffffffffffffffffffffffffffff82169050919050565b6000620003c8826200039b565b9050919050565b6000620003dc82620003bb565b9050919050565b620003ee81620003cf565b8114620003fa57600080fd5b50565b6000815190506200040e81620003e3565b92915050565b6200041f81620003bb565b81146200042b57600080fd5b50565b6000815190506200043f8162000414565b92915050565b6000819050919050565b6200045a8162000445565b81146200046657600080fd5b50565b6000815190506200047a816200044f565b92915050565b600080fd5b600080fd5b6000601f19601f8301169050919050565b7f4e487b7100000000000000000000000000000000000000000000000000000000600052604160045260246000fd5b620004d5826200048a565b810181811067ffffffffffffffff82111715620004f757620004f66200049b565b5b80604052505050565b60006200050c62000387565b90506200051a8282620004ca565b919050565b600067ffffffffffffffff8211156200053d576200053c6200049b565b5b62000548826200048a565b9050602081019050919050565b60005b838110156200057557808201518184015260208101905062000558565b8381111562000585576000848401525b50505050565b6000620005a26200059c846200051f565b62000500565b905082815260208101848484011115620005c157620005c062000485565b5b620005ce84828562000555565b509392505050565b600082601f830112620005ee57620005ed62000480565b5b8151620006008482602086016200058b565b91505092915050565b600080600080600080600080610100898b0312156200062d576200062c62000391565b5b60006200063d8b828c01620003fd565b9850506020620006508b828c016200042e565b9750506040620006638b828c0162000469565b965050606089015167ffffffffffffffff81111562000687576200068662000396565b5b620006958b828c01620005d6565b9550506080620006a88b828c0162000469565b94505060a0620006bb8b828c016200042e565b93505060c089015167ffffffffffffffff811115620006df57620006de62000396565b5b620006ed8b828c01620005d6565b92505060e089015167ffffffffffffffff81111562000711576200071062000396565b5b6200071f8b828c01620005d6565b9150509295985092959890939650565b600081519050919050565b7f4e487b7100000000000000000000000000000000000000000000000000000000600052602260045260246000fd5b600060028204905060018216806200078257607f821691505b6020821081036200079857620007976200073a565b5b50919050565b60008190508160005260206000209050919050565b60006020601f8301049050919050565b600082821b905092915050565b600060088302620008027fffffffffffffffffffffffffffffffffffffffffffffffffffffffffffffffff82620007c3565b6200080e8683620007c3565b95508019841693508086168417925050509392505050565b6000819050919050565b6000620008516200084b620008458462000445565b62000826565b62000445565b9050919050565b6000819050919050565b6200086d8362000830565b620008856200087c8262000858565b848454620007d0565b825550505050565b600090565b6200089c6200088d565b620008a981848462000862565b505050565b5b81811015620008d157620008c560008262000892565b600181019050620008af565b5050565b601f8211156200092057620008ea816200079e565b620008f584620007b3565b8101602085101562000905578190505b6200091d6200091485620007b3565b830182620008ae565b50505b505050565b600082821c905092915050565b6000620009456000198460080262000925565b1980831691505092915050565b600062000960838362000932565b9150826002028217905092915050565b6200097b826200072f565b67ffffffffffffffff8111156200099757620009966200049b565b5b620009a3825462000769565b620009b0828285620008d5565b600060209050601f831160018114620009e85760008415620009d3578287015190505b620009df858262000952565b86555062000a4f565b601f198416620009f8866200079e565b60005b8281101562000a2257848901518255600182019150602085019450602081019050620009fb565b8683101562000a42578489015162000a3e601f89168262000932565b8355505b6001600288020188555050505b505050505050565b62000a6281620003bb565b82525050565b6000819050919050565b62000a7d8162000a68565b82525050565b600060608201905062000a9a600083018662000a57565b62000aa9602083018562000a72565b62000ab8604083018462000a57565b949350505050565b600082825260208201905092915050565b7f526f6c65733a206163636f756e7420616c72656164792068617320726f6c6500600082015250565b600062000b09601f8362000ac0565b915062000b168262000ad1565b602082019050919050565b6000602082019050818103600083015262000b3c8162000afa565b9050919050565b7f526f6c65733a206163636f756e7420697320746865207a65726f20616464726560008201527f7373000000000000000000000000000000000000000000000000000000000000602082015250565b600062000ba160228362000ac0565b915062000bae8262000b43565b604082019050919050565b6000602082019050818103600083015262000bd48162000b92565b9050919050565b60805160a05160c05161455262000c206000396000818161103c01526111a3015260008181611276015281816113af0152611f1a01526000610fe601526145526000f3fe608060405234801561001057600080fd5b50600436106101e45760003560e01c80637501f7411161010f578063b88d4fde116100a2578063e95a644f11610071578063e95a644f146105bd578063e985e9c5146105ed578063eac989f81461061d578063f958aada1461063b576101e4565b8063b88d4fde14610523578063c87b56dd1461053f578063cef073cb1461056f578063d4ff13481461059f576101e4565b80639e8e4d1d116100de5780639e8e4d1d146104ad578063a035b1fe146104cb578063a22cb465146104e9578063aa8c217c14610505576101e4565b80637501f741146104495780638d8f2adb1461046757806395d89b411461047157806398bdf6f51461048f576101e4565b806340d097c311610187578063572b6c0511610156578063572b6c051461039b5780635dab2420146103cb5780636352211e146103e957806370a0823114610419576101e4565b806340d097c3146102eb57806342842e0e1461031b5780634f64b2be1461033757806355cfab221461036b576101e4565b8063081812fc116101c3578063081812fc14610253578063095ea7b3146102835780630e1443671461029f57806323b872dd146102cf576101e4565b806223de29146101e957806301ffc9a71461020557806306fdde0314610235575b600080fd5b61020360048036038101906101fe9190612c90565b610659565b005b61021f600480360381019061021a9190612db7565b61067c565b60405161022c9190612dff565b60405180910390f35b61023d61075e565b60405161024a9190612eb3565b60405180910390f35b61026d60048036038101906102689190612ed5565b6107f0565b60405161027a9190612f11565b60405180910390f35b61029d60048036038101906102989190612f2c565b610836565b005b6102b960048036038101906102b49190612f2c565b61094d565b6040516102c69190612f7b565b60405180910390f35b6102e960048036038101906102e49190612f96565b61097e565b005b61030560048036038101906103009190612fe9565b6109de565b6040516103129190612f7b565b60405180910390f35b61033560048036038101906103309190612f96565b610e33565b005b610351600480360381019061034c9190612ed5565b610e53565b604051610362959493929190613016565b60405180910390f35b61038560048036038101906103809190612fe9565b610f4b565b604051610392919061312e565b60405180910390f35b6103b560048036038101906103b09190612fe9565b610fe2565b6040516103c29190612dff565b60405180910390f35b6103d361103a565b6040516103e09190612f11565b60405180910390f35b61040360048036038101906103fe9190612ed5565b61105e565b6040516104109190612f11565b60405180910390f35b610433600480360381019061042e9190612fe9565b6110e4565b6040516104409190612f7b565b60405180910390f35b61045161119b565b60405161045e9190612f7b565b60405180910390f35b61046f6111a1565b005b61047961130f565b6040516104869190612eb3565b60405180910390f35b6104976113a1565b6040516104a49190612f7b565b60405180910390f35b6104b56113ad565b6040516104c291906131af565b60405180910390f35b6104d36113d1565b6040516104e09190612f7b565b60405180910390f35b61050360048036038101906104fe91906131f6565b6113d7565b005b61050d6113ed565b60405161051a9190612f7b565b60405180910390f35b61053d60048036038101906105389190613366565b6113f3565b005b61055960048036038101906105549190612ed5565b611455565b6040516105669190612eb3565b60405180910390f35b61058960048036038101906105849190612f2c565b611567565b6040516105969190612dff565b60405180910390f35b6105a76116ff565b6040516105b49190612dff565b60405180910390f35b6105d760048036038101906105d29190612ed5565b61174d565b6040516105e49190612dff565b60405180910390f35b610607600480360381019061060291906133e9565b611813565b6040516106149190612dff565b60405180910390f35b6106256118a7565b6040516106329190612eb3565b60405180910390f35b610643611935565b6040516106509190612f7b565b60405180910390f35b846007600082825461066b9190613458565b925050819055505050505050505050565b60007f80ac58cd000000000000000000000000000000000000000000000000000000007bffffffffffffffffffffffffffffffffffffffffffffffffffffffff1916827bffffffffffffffffffffffffffffffffffffffffffffffffffffffff1916148061074757507f5b5e139f000000000000000000000000000000000000000000000000000000007bffffffffffffffffffffffffffffffffffffffffffffffffffffffff1916827bffffffffffffffffffffffffffffffffffffffffffffffffffffffff1916145b806107575750610756826119e9565b5b9050919050565b60606000805461076d906134dd565b80601f0160208091040260200160405190810160405280929190818152602001828054610799906134dd565b80156107e65780601f106107bb576101008083540402835291602001916107e6565b820191906000526020600020905b8154815290600101906020018083116107c957829003601f168201915b5050505050905090565b60006107fb82611a53565b6004600083815260200190815260200160002060009054906101000a900473ffffffffffffffffffffffffffffffffffffffff169050919050565b60006108418261105e565b90508073ffffffffffffffffffffffffffffffffffffffff168373ffffffffffffffffffffffffffffffffffffffff16036108b1576040517f08c379a00000000000000000000000000000000000000000000000000000000081526004016108a890613580565b60405180910390fd5b8073ffffffffffffffffffffffffffffffffffffffff166108d0611a9e565b73ffffffffffffffffffffffffffffffffffffffff1614806108ff57506108fe816108f9611a9e565b611813565b5b61093e576040517f08c379a000000000000000000000000000000000000000000000000000000000815260040161093590613612565b60405180910390fd5b6109488383611aad565b505050565b600d602052816000526040600020818154811061096957600080fd5b90600052602060002001600091509150505481565b61098f610989611a9e565b82611b66565b6109ce576040517f08c379a00000000000000000000000000000000000000000000000000000000081526004016109c5906136a4565b60405180910390fd5b6109d9838383611bfb565b505050565b6000600f546109ed600b611ef4565b10610a2d576040517f08c379a0000000000000000000000000000000000000000000000000000000008152600401610a2490613710565b60405180910390fd5b6010548273ffffffffffffffffffffffffffffffffffffffff1663f38e266a336040518263ffffffff1660e01b8152600401610a699190612f11565b602060405180830381865afa158015610a86573d6000803e3d6000fd5b505050506040513d601f19601f82011682018060405250810190610aaa9190613745565b11610aea576040517f08c379a0000000000000000000000000000000000000000000000000000000008152600401610ae1906137be565b60405180910390fd5b8173ffffffffffffffffffffffffffffffffffffffff166325e8e00c336010546040518363ffffffff1660e01b8152600401610b279291906137de565b6020604051808303816000875af1158015610b46573d6000803e3d6000fd5b505050506040513d601f19601f82011682018060405250810190610b6a919061381c565b610b7357600080fd5b6000610b7f600b611ef4565b9050610b8b600b611f02565b60006040518060a00160405280838152602001600e8054610bab906134dd565b80601f0160208091040260200160405190810160405280929190818152602001828054610bd7906134dd565b8015610c245780601f10610bf957610100808354040283529160200191610c24565b820191906000526020600020905b815481529060010190602001808311610c0757829003601f168201915b505050505081526020016000151581526020016000151581526020013373ffffffffffffffffffffffffffffffffffffffff16815250905080600c6000848152602001908152602001600020600082015181600001556020820151816001019081610c8f91906139eb565b5060408201518160020160006101000a81548160ff02191690831515021790555060608201518160020160016101000a81548160ff02191690831515021790555060808201518160020160026101000a81548173ffffffffffffffffffffffffffffffffffffffff021916908373ffffffffffffffffffffffffffffffffffffffff160217905550905050600d60003373ffffffffffffffffffffffffffffffffffffffff1673ffffffffffffffffffffffffffffffffffffffff168152602001908152602001600020829080600181540180825580915050600190039060005260206000200160009091909190915055610d8b601054611f18565b610d953383611fc3565b610e2982600e8054610da6906134dd565b80601f0160208091040260200160405190810160405280929190818152602001828054610dd2906134dd565b8015610e1f5780601f10610df457610100808354040283529160200191610e1f565b820191906000526020600020905b815481529060010190602001808311610e0257829003601f168201915b5050505050611fe1565b8192505050919050565b610e4e838383604051806020016040528060008152506113f3565b505050565b600c602052806000526040600020600091509050806000015490806001018054610e7c906134dd565b80601f0160208091040260200160405190810160405280929190818152602001828054610ea8906134dd565b8015610ef55780601f10610eca57610100808354040283529160200191610ef5565b820191906000526020600020905b815481529060010190602001808311610ed857829003601f168201915b5050505050908060020160009054906101000a900460ff16908060020160019054906101000a900460ff16908060020160029054906101000a900473ffffffffffffffffffffffffffffffffffffffff16905085565b6060600d60008373ffffffffffffffffffffffffffffffffffffffff1673ffffffffffffffffffffffffffffffffffffffff168152602001908152602001600020805480602002602001604051908101604052809291908181526020018280548015610fd657602002820191906000526020600020905b815481526020019060010190808311610fc2575b50505050509050919050565b60007f000000000000000000000000000000000000000000000000000000000000000073ffffffffffffffffffffffffffffffffffffffff168273ffffffffffffffffffffffffffffffffffffffff16149050919050565b7f000000000000000000000000000000000000000000000000000000000000000081565b60008061106a8361204e565b9050600073ffffffffffffffffffffffffffffffffffffffff168173ffffffffffffffffffffffffffffffffffffffff16036110db576040517f08c379a00000000000000000000000000000000000000000000000000000000081526004016110d290613b09565b60405180910390fd5b80915050919050565b60008073ffffffffffffffffffffffffffffffffffffffff168273ffffffffffffffffffffffffffffffffffffffff1603611154576040517f08c379a000000000000000000000000000000000000000000000000000000000815260040161114b90613b9b565b60405180910390fd5b600360008373ffffffffffffffffffffffffffffffffffffffff1673ffffffffffffffffffffffffffffffffffffffff168152602001908152602001600020549050919050565b600f5481565b7f000000000000000000000000000000000000000000000000000000000000000073ffffffffffffffffffffffffffffffffffffffff163373ffffffffffffffffffffffffffffffffffffffff161461122f576040517f08c379a000000000000000000000000000000000000000000000000000000000815260040161122690613c2d565b60405180910390fd5b600060075411611274576040517f08c379a000000000000000000000000000000000000000000000000000000000815260040161126b90613c99565b60405180910390fd5b7f000000000000000000000000000000000000000000000000000000000000000073ffffffffffffffffffffffffffffffffffffffff166362ad1b8330336007546040518463ffffffff1660e01b81526004016112d393929190613cf0565b600060405180830381600087803b1580156112ed57600080fd5b505af1158015611301573d6000803e3d6000fd5b505050506000600781905550565b60606001805461131e906134dd565b80601f016020809104026020016040519081016040528092919081815260200182805461134a906134dd565b80156113975780601f1061136c57610100808354040283529160200191611397565b820191906000526020600020905b81548152906001019060200180831161137a57829003601f168201915b5050505050905090565b600b8060000154905081565b7f000000000000000000000000000000000000000000000000000000000000000081565b60105481565b6113e96113e2611a9e565b838361208b565b5050565b60075481565b6114046113fe611a9e565b83611b66565b611443576040517f08c379a000000000000000000000000000000000000000000000000000000000815260040161143a906136a4565b60405180910390fd5b61144f848484846121f7565b50505050565b606061146082611a53565b6000600660008481526020019081526020016000208054611480906134dd565b80601f01602080910402602001604051908101604052809291908181526020018280546114ac906134dd565b80156114f95780601f106114ce576101008083540402835291602001916114f9565b820191906000526020600020905b8154815290600101906020018083116114dc57829003601f168201915b50505050509050600061150a612253565b9050600081510361151f578192505050611562565b60008251111561155457808260405160200161153c929190613d89565b60405160208183030381529060405292505050611562565b61155d8461226a565b925050505b919050565b600061157d3360096122d290919063ffffffff16565b8061159857506115973360086122d290919063ffffffff16565b5b6115d7576040517f08c379a00000000000000000000000000000000000000000000000000000000081526004016115ce90613df9565b60405180910390fd5b8273ffffffffffffffffffffffffffffffffffffffff166115f78361105e565b73ffffffffffffffffffffffffffffffffffffffff161461164d576040517f08c379a000000000000000000000000000000000000000000000000000000000815260040161164490613e65565b60405180910390fd5b600c600083815260200190815260200160002060020160009054906101000a900460ff166116b0576040517f08c379a00000000000000000000000000000000000000000000000000000000081526004016116a790613ed1565b60405180910390fd5b6000600c6000848152602001908152602001600020905060018160020160016101000a81548160ff0219169083151502179055508060020160019054906101000a900460ff1691505092915050565b60006117153360096122d290919063ffffffff16565b15611723576001905061174a565b6117373360086122d290919063ffffffff16565b15611745576001905061174a565b600090505b90565b60003373ffffffffffffffffffffffffffffffffffffffff1661176f8361105e565b73ffffffffffffffffffffffffffffffffffffffff16146117c5576040517f08c379a00000000000000000000000000000000000000000000000000000000081526004016117bc90613f3d565b60405180910390fd5b6000600c6000848152602001908152602001600020905060018160020160006101000a81548160ff0219169083151502179055508060020160009054906101000a900460ff16915050919050565b6000600560008473ffffffffffffffffffffffffffffffffffffffff1673ffffffffffffffffffffffffffffffffffffffff16815260200190815260200160002060008373ffffffffffffffffffffffffffffffffffffffff1673ffffffffffffffffffffffffffffffffffffffff16815260200190815260200160002060009054906101000a900460ff16905092915050565b600e80546118b4906134dd565b80601f01602080910402602001604051908101604052809291908181526020018280546118e0906134dd565b801561192d5780601f106119025761010080835404028352916020019161192d565b820191906000526020600020905b81548152906001019060200180831161191057829003601f168201915b505050505081565b600a8060000154905081565b61194b82826122d2565b1561198b576040517f08c379a000000000000000000000000000000000000000000000000000000000815260040161198290613fa9565b60405180910390fd5b60018260000160008373ffffffffffffffffffffffffffffffffffffffff1673ffffffffffffffffffffffffffffffffffffffff16815260200190815260200160002060006101000a81548160ff0219169083151502179055505050565b60007f01ffc9a7000000000000000000000000000000000000000000000000000000007bffffffffffffffffffffffffffffffffffffffffffffffffffffffff1916827bffffffffffffffffffffffffffffffffffffffffffffffffffffffff1916149050919050565b611a5c81612399565b611a9b576040517f08c379a0000000000000000000000000000000000000000000000000000000008152600401611a9290613b09565b60405180910390fd5b50565b6000611aa86123da565b905090565b816004600083815260200190815260200160002060006101000a81548173ffffffffffffffffffffffffffffffffffffffff021916908373ffffffffffffffffffffffffffffffffffffffff160217905550808273ffffffffffffffffffffffffffffffffffffffff16611b208361105e565b73ffffffffffffffffffffffffffffffffffffffff167f8c5be1e5ebec7d5bd14f71427d1e84f3dd0314c0f7b2291e5b200ac8c7c3b92560405160405180910390a45050565b600080611b728361105e565b90508073ffffffffffffffffffffffffffffffffffffffff168473ffffffffffffffffffffffffffffffffffffffff161480611bb45750611bb38185611813565b5b80611bf257508373ffffffffffffffffffffffffffffffffffffffff16611bda846107f0565b73ffffffffffffffffffffffffffffffffffffffff16145b91505092915050565b8273ffffffffffffffffffffffffffffffffffffffff16611c1b8261105e565b73ffffffffffffffffffffffffffffffffffffffff1614611c71576040517f08c379a0000000000000000000000000000000000000000000000000000000008152600401611c689061403b565b60405180910390fd5b600073ffffffffffffffffffffffffffffffffffffffff168273ffffffffffffffffffffffffffffffffffffffff1603611ce0576040517f08c379a0000000000000000000000000000000000000000000000000000000008152600401611cd7906140cd565b60405180910390fd5b611ced838383600161240c565b8273ffffffffffffffffffffffffffffffffffffffff16611d0d8261105e565b73ffffffffffffffffffffffffffffffffffffffff1614611d63576040517f08c379a0000000000000000000000000000000000000000000000000000000008152600401611d5a9061403b565b60405180910390fd5b6004600082815260200190815260200160002060006101000a81549073ffffffffffffffffffffffffffffffffffffffff02191690556001600360008573ffffffffffffffffffffffffffffffffffffffff1673ffffffffffffffffffffffffffffffffffffffff168152602001908152602001600020600082825403925050819055506001600360008473ffffffffffffffffffffffffffffffffffffffff1673ffffffffffffffffffffffffffffffffffffffff16815260200190815260200160002060008282540192505081905550816002600083815260200190815260200160002060006101000a81548173ffffffffffffffffffffffffffffffffffffffff021916908373ffffffffffffffffffffffffffffffffffffffff160217905550808273ffffffffffffffffffffffffffffffffffffffff168473ffffffffffffffffffffffffffffffffffffffff167fddf252ad1be2c89b69c2b068fc378daa952ba7f163c4a11628f55a4df523b3ef60405160405180910390a4611eef8383836001612532565b505050565b600081600001549050919050565b6001816000016000828254019250508190555050565b7f000000000000000000000000000000000000000000000000000000000000000073ffffffffffffffffffffffffffffffffffffffff166362ad1b833330846040518463ffffffff1660e01b8152600401611f7593929190613cf0565b600060405180830381600087803b158015611f8f57600080fd5b505af1158015611fa3573d6000803e3d6000fd5b505050508060076000828254611fb99190613458565b9250508190555050565b611fdd828260405180602001604052806000815250612538565b5050565b611fea82612399565b612029576040517f08c379a00000000000000000000000000000000000000000000000000000000081526004016120209061415f565b60405180910390fd5b8060066000848152602001908152602001600020908161204991906139eb565b505050565b60006002600083815260200190815260200160002060009054906101000a900473ffffffffffffffffffffffffffffffffffffffff169050919050565b8173ffffffffffffffffffffffffffffffffffffffff168373ffffffffffffffffffffffffffffffffffffffff16036120f9576040517f08c379a00000000000000000000000000000000000000000000000000000000081526004016120f0906141cb565b60405180910390fd5b80600560008573ffffffffffffffffffffffffffffffffffffffff1673ffffffffffffffffffffffffffffffffffffffff16815260200190815260200160002060008473ffffffffffffffffffffffffffffffffffffffff1673ffffffffffffffffffffffffffffffffffffffff16815260200190815260200160002060006101000a81548160ff0219169083151502179055508173ffffffffffffffffffffffffffffffffffffffff168373ffffffffffffffffffffffffffffffffffffffff167f17307eab39ab6107e8899845ad3d59bd9653f200f220920489ca2b5937696c31836040516121ea9190612dff565b60405180910390a3505050565b612202848484611bfb565b61220e84848484612593565b61224d576040517f08c379a00000000000000000000000000000000000000000000000000000000081526004016122449061425d565b60405180910390fd5b50505050565b606060405180602001604052806000815250905090565b606061227582611a53565b600061227f612253565b9050600081511161229f57604051806020016040528060008152506122ca565b806122a98461271a565b6040516020016122ba929190613d89565b6040516020818303038152906040525b915050919050565b60008073ffffffffffffffffffffffffffffffffffffffff168273ffffffffffffffffffffffffffffffffffffffff1603612342576040517f08c379a0000000000000000000000000000000000000000000000000000000008152600401612339906142ef565b60405180910390fd5b8260000160008373ffffffffffffffffffffffffffffffffffffffff1673ffffffffffffffffffffffffffffffffffffffff16815260200190815260200160002060009054906101000a900460ff16905092915050565b60008073ffffffffffffffffffffffffffffffffffffffff166123bb8361204e565b73ffffffffffffffffffffffffffffffffffffffff1614159050919050565b60006123e533610fe2565b156123f957601436033560601c9050612408565b6124016127e8565b9050612409565b5b90565b600181111561252c57600073ffffffffffffffffffffffffffffffffffffffff168473ffffffffffffffffffffffffffffffffffffffff16146124a05780600360008673ffffffffffffffffffffffffffffffffffffffff1673ffffffffffffffffffffffffffffffffffffffff1681526020019081526020016000206000828254612498919061430f565b925050819055505b600073ffffffffffffffffffffffffffffffffffffffff168373ffffffffffffffffffffffffffffffffffffffff161461252b5780600360008573ffffffffffffffffffffffffffffffffffffffff1673ffffffffffffffffffffffffffffffffffffffff16815260200190815260200160002060008282546125239190613458565b925050819055505b5b50505050565b50505050565b61254283836127f0565b61254f6000848484612593565b61258e576040517f08c379a00000000000000000000000000000000000000000000000000000000081526004016125859061425d565b60405180910390fd5b505050565b60006125b48473ffffffffffffffffffffffffffffffffffffffff16612a0d565b1561270d578373ffffffffffffffffffffffffffffffffffffffff1663150b7a026125dd611a9e565b8786866040518563ffffffff1660e01b81526004016125ff9493929190614387565b6020604051808303816000875af192505050801561263b57506040513d601f19601f8201168201806040525081019061263891906143e8565b60015b6126bd573d806000811461266b576040519150601f19603f3d011682016040523d82523d6000602084013e612670565b606091505b5060008151036126b5576040517f08c379a00000000000000000000000000000000000000000000000000000000081526004016126ac9061425d565b60405180910390fd5b805181602001fd5b63150b7a0260e01b7bffffffffffffffffffffffffffffffffffffffffffffffffffffffff1916817bffffffffffffffffffffffffffffffffffffffffffffffffffffffff191614915050612712565b600190505b949350505050565b60606000600161272984612a30565b01905060008167ffffffffffffffff8111156127485761274761323b565b5b6040519080825280601f01601f19166020018201604052801561277a5781602001600182028036833780820191505090505b509050600082602001820190505b6001156127dd578080600190039150507f3031323334353637383961626364656600000000000000000000000000000000600a86061a8153600a85816127d1576127d0614415565b5b04945060008503612788575b819350505050919050565b600033905090565b600073ffffffffffffffffffffffffffffffffffffffff168273ffffffffffffffffffffffffffffffffffffffff160361285f576040517f08c379a000000000000000000000000000000000000000000000000000000000815260040161285690614490565b60405180910390fd5b61286881612399565b156128a8576040517f08c379a000000000000000000000000000000000000000000000000000000000815260040161289f906144fc565b60405180910390fd5b6128b660008383600161240c565b6128bf81612399565b156128ff576040517f08c379a00000000000000000000000000000000000000000000000000000000081526004016128f6906144fc565b60405180910390fd5b6001600360008473ffffffffffffffffffffffffffffffffffffffff1673ffffffffffffffffffffffffffffffffffffffff16815260200190815260200160002060008282540192505081905550816002600083815260200190815260200160002060006101000a81548173ffffffffffffffffffffffffffffffffffffffff021916908373ffffffffffffffffffffffffffffffffffffffff160217905550808273ffffffffffffffffffffffffffffffffffffffff16600073ffffffffffffffffffffffffffffffffffffffff167fddf252ad1be2c89b69c2b068fc378daa952ba7f163c4a11628f55a4df523b3ef60405160405180910390a4612a09600083836001612532565b5050565b6000808273ffffffffffffffffffffffffffffffffffffffff163b119050919050565b600080600090507a184f03e93ff9f4daa797ed6e38ed64bf6a1f0100000000000000008310612a8e577a184f03e93ff9f4daa797ed6e38ed64bf6a1f0100000000000000008381612a8457612a83614415565b5b0492506040810190505b6d04ee2d6d415b85acef81000000008310612acb576d04ee2d6d415b85acef81000000008381612ac157612ac0614415565b5b0492506020810190505b662386f26fc100008310612afa57662386f26fc100008381612af057612aef614415565b5b0492506010810190505b6305f5e1008310612b23576305f5e1008381612b1957612b18614415565b5b0492506008810190505b6127108310612b48576127108381612b3e57612b3d614415565b5b0492506004810190505b60648310612b6b5760648381612b6157612b60614415565b5b0492506002810190505b600a8310612b7a576001810190505b80915050919050565b6000604051905090565b600080fd5b600080fd5b600073ffffffffffffffffffffffffffffffffffffffff82169050919050565b6000612bc282612b97565b9050919050565b612bd281612bb7565b8114612bdd57600080fd5b50565b600081359050612bef81612bc9565b92915050565b6000819050919050565b612c0881612bf5565b8114612c1357600080fd5b50565b600081359050612c2581612bff565b92915050565b600080fd5b600080fd5b600080fd5b60008083601f840112612c5057612c4f612c2b565b5b8235905067ffffffffffffffff811115612c6d57612c6c612c30565b5b602083019150836001820283011115612c8957612c88612c35565b5b9250929050565b60008060008060008060008060c0898b031215612cb057612caf612b8d565b5b6000612cbe8b828c01612be0565b9850506020612ccf8b828c01612be0565b9750506040612ce08b828c01612be0565b9650506060612cf18b828c01612c16565b955050608089013567ffffffffffffffff811115612d1257612d11612b92565b5b612d1e8b828c01612c3a565b945094505060a089013567ffffffffffffffff811115612d4157612d40612b92565b5b612d4d8b828c01612c3a565b92509250509295985092959890939650565b60007fffffffff0000000000000000000000000000000000000000000000000000000082169050919050565b612d9481612d5f565b8114612d9f57600080fd5b50565b600081359050612db181612d8b565b92915050565b600060208284031215612dcd57612dcc612b8d565b5b6000612ddb84828501612da2565b91505092915050565b60008115159050919050565b612df981612de4565b82525050565b6000602082019050612e146000830184612df0565b92915050565b600081519050919050565b600082825260208201905092915050565b60005b83811015612e54578082015181840152602081019050612e39565b83811115612e63576000848401525b50505050565b6000601f19601f8301169050919050565b6000612e8582612e1a565b612e8f8185612e25565b9350612e9f818560208601612e36565b612ea881612e69565b840191505092915050565b60006020820190508181036000830152612ecd8184612e7a565b905092915050565b600060208284031215612eeb57612eea612b8d565b5b6000612ef984828501612c16565b91505092915050565b612f0b81612bb7565b82525050565b6000602082019050612f266000830184612f02565b92915050565b60008060408385031215612f4357612f42612b8d565b5b6000612f5185828601612be0565b9250506020612f6285828601612c16565b9150509250929050565b612f7581612bf5565b82525050565b6000602082019050612f906000830184612f6c565b92915050565b600080600060608486031215612faf57612fae612b8d565b5b6000612fbd86828701612be0565b9350506020612fce86828701612be0565b9250506040612fdf86828701612c16565b9150509250925092565b600060208284031215612fff57612ffe612b8d565b5b600061300d84828501612be0565b91505092915050565b600060a08201905061302b6000830188612f6c565b818103602083015261303d8187612e7a565b905061304c6040830186612df0565b6130596060830185612df0565b6130666080830184612f02565b9695505050505050565b600081519050919050565b600082825260208201905092915050565b6000819050602082019050919050565b6130a581612bf5565b82525050565b60006130b7838361309c565b60208301905092915050565b6000602082019050919050565b60006130db82613070565b6130e5818561307b565b93506130f08361308c565b8060005b8381101561312157815161310888826130ab565b9750613113836130c3565b9250506001810190506130f4565b5085935050505092915050565b6000602082019050818103600083015261314881846130d0565b905092915050565b6000819050919050565b600061317561317061316b84612b97565b613150565b612b97565b9050919050565b60006131878261315a565b9050919050565b60006131998261317c565b9050919050565b6131a98161318e565b82525050565b60006020820190506131c460008301846131a0565b92915050565b6131d381612de4565b81146131de57600080fd5b50565b6000813590506131f0816131ca565b92915050565b6000806040838503121561320d5761320c612b8d565b5b600061321b85828601612be0565b925050602061322c858286016131e1565b9150509250929050565b600080fd5b7f4e487b7100000000000000000000000000000000000000000000000000000000600052604160045260246000fd5b61327382612e69565b810181811067ffffffffffffffff821117156132925761329161323b565b5b80604052505050565b60006132a5612b83565b90506132b1828261326a565b919050565b600067ffffffffffffffff8211156132d1576132d061323b565b5b6132da82612e69565b9050602081019050919050565b82818337600083830152505050565b6000613309613304846132b6565b61329b565b90508281526020810184848401111561332557613324613236565b5b6133308482856132e7565b509392505050565b600082601f83011261334d5761334c612c2b565b5b813561335d8482602086016132f6565b91505092915050565b600080600080608085870312156133805761337f612b8d565b5b600061338e87828801612be0565b945050602061339f87828801612be0565b93505060406133b087828801612c16565b925050606085013567ffffffffffffffff8111156133d1576133d0612b92565b5b6133dd87828801613338565b91505092959194509250565b60008060408385031215613400576133ff612b8d565b5b600061340e85828601612be0565b925050602061341f85828601612be0565b9150509250929050565b7f4e487b7100000000000000000000000000000000000000000000000000000000600052601160045260246000fd5b600061346382612bf5565b915061346e83612bf5565b9250827fffffffffffffffffffffffffffffffffffffffffffffffffffffffffffffffff038211156134a3576134a2613429565b5b828201905092915050565b7f4e487b7100000000000000000000000000000000000000000000000000000000600052602260045260246000fd5b600060028204905060018216806134f557607f821691505b602082108103613508576135076134ae565b5b50919050565b7f4552433732313a20617070726f76616c20746f2063757272656e74206f776e6560008201527f7200000000000000000000000000000000000000000000000000000000000000602082015250565b600061356a602183612e25565b91506135758261350e565b604082019050919050565b600060208201905081810360008301526135998161355d565b9050919050565b7f4552433732313a20617070726f76652063616c6c6572206973206e6f7420746f60008201527f6b656e206f776e6572206f7220617070726f76656420666f7220616c6c000000602082015250565b60006135fc603d83612e25565b9150613607826135a0565b604082019050919050565b6000602082019050818103600083015261362b816135ef565b9050919050565b7f4552433732313a2063616c6c6572206973206e6f7420746f6b656e206f776e6560008201527f72206f7220617070726f76656400000000000000000000000000000000000000602082015250565b600061368e602d83612e25565b915061369982613632565b604082019050919050565b600060208201905081810360008301526136bd81613681565b9050919050565b7f4d696e74206c696d697420636f6d706c65746564000000000000000000000000600082015250565b60006136fa601483612e25565b9150613705826136c4565b602082019050919050565b60006020820190508181036000830152613729816136ed565b9050919050565b60008151905061373f81612bff565b92915050565b60006020828403121561375b5761375a612b8d565b5b600061376984828501613730565b91505092915050565b7f496e73756666696369656e7420746f6b656e7300000000000000000000000000600082015250565b60006137a8601383612e25565b91506137b382613772565b602082019050919050565b600060208201905081810360008301526137d78161379b565b9050919050565b60006040820190506137f36000830185612f02565b6138006020830184612f6c565b9392505050565b600081519050613816816131ca565b92915050565b60006020828403121561383257613831612b8d565b5b600061384084828501613807565b91505092915050565b60008190508160005260206000209050919050565b60006020601f8301049050919050565b600082821b905092915050565b6000600883026138ab7fffffffffffffffffffffffffffffffffffffffffffffffffffffffffffffffff8261386e565b6138b5868361386e565b95508019841693508086168417925050509392505050565b60006138e86138e36138de84612bf5565b613150565b612bf5565b9050919050565b6000819050919050565b613902836138cd565b61391661390e826138ef565b84845461387b565b825550505050565b600090565b61392b61391e565b6139368184846138f9565b505050565b5b8181101561395a5761394f600082613923565b60018101905061393c565b5050565b601f82111561399f5761397081613849565b6139798461385e565b81016020851015613988578190505b61399c6139948561385e565b83018261393b565b50505b505050565b600082821c905092915050565b60006139c2600019846008026139a4565b1980831691505092915050565b60006139db83836139b1565b9150826002028217905092915050565b6139f482612e1a565b67ffffffffffffffff811115613a0d57613a0c61323b565b5b613a1782546134dd565b613a2282828561395e565b600060209050601f831160018114613a555760008415613a43578287015190505b613a4d85826139cf565b865550613ab5565b601f198416613a6386613849565b60005b82811015613a8b57848901518255600182019150602085019450602081019050613a66565b86831015613aa85784890151613aa4601f8916826139b1565b8355505b6001600288020188555050505b505050505050565b7f4552433732313a20696e76616c696420746f6b656e2049440000000000000000600082015250565b6000613af3601883612e25565b9150613afe82613abd565b602082019050919050565b60006020820190508181036000830152613b2281613ae6565b9050919050565b7f4552433732313a2061646472657373207a65726f206973206e6f74206120766160008201527f6c6964206f776e65720000000000000000000000000000000000000000000000602082015250565b6000613b85602983612e25565b9150613b9082613b29565b604082019050919050565b60006020820190508181036000830152613bb481613b78565b9050919050565b7f4d61726b6574506c616365436f6e74726163743a2063616c6c6572206973206e60008201527f6f7420746865206f776e65720000000000000000000000000000000000000000602082015250565b6000613c17602c83612e25565b9150613c2282613bbb565b604082019050919050565b60006020820190508181036000830152613c4681613c0a565b9050919050565b7f546865726520646f6e277420626520746f6b656e730000000000000000000000600082015250565b6000613c83601583612e25565b9150613c8e82613c4d565b602082019050919050565b60006020820190508181036000830152613cb281613c76565b9050919050565b600082825260208201905092915050565b50565b6000613cda600083613cb9565b9150613ce582613cca565b600082019050919050565b600060a082019050613d056000830186612f02565b613d126020830185612f02565b613d1f6040830184612f6c565b8181036060830152613d3081613ccd565b90508181036080830152613d4381613ccd565b9050949350505050565b600081905092915050565b6000613d6382612e1a565b613d6d8185613d4d565b9350613d7d818560208601612e36565b80840191505092915050565b6000613d958285613d58565b9150613da18284613d58565b91508190509392505050565b7f444f45535f4e4f545f484156455f4d494e5445525f524f4c4500000000000000600082015250565b6000613de3601983612e25565b9150613dee82613dad565b602082019050919050565b60006020820190508181036000830152613e1281613dd6565b9050919050565b7f5468697320746f6b656e20646f65736e277420796f7572000000000000000000600082015250565b6000613e4f601783612e25565b9150613e5a82613e19565b602082019050919050565b60006020820190508181036000830152613e7e81613e42565b9050919050565b7f596f75206e65656420746f20646f20636865636b2d696e000000000000000000600082015250565b6000613ebb601783612e25565b9150613ec682613e85565b602082019050919050565b60006020820190508181036000830152613eea81613eae565b9050919050565b7f596f7520617265206e6f7420746865206f776e6572206f6620746865204e4654600082015250565b6000613f27602083612e25565b9150613f3282613ef1565b602082019050919050565b60006020820190508181036000830152613f5681613f1a565b9050919050565b7f526f6c65733a206163636f756e7420616c72656164792068617320726f6c6500600082015250565b6000613f93601f83612e25565b9150613f9e82613f5d565b602082019050919050565b60006020820190508181036000830152613fc281613f86565b9050919050565b7f4552433732313a207472616e736665722066726f6d20696e636f72726563742060008201527f6f776e6572000000000000000000000000000000000000000000000000000000602082015250565b6000614025602583612e25565b915061403082613fc9565b604082019050919050565b6000602082019050818103600083015261405481614018565b9050919050565b7f4552433732313a207472616e7366657220746f20746865207a65726f2061646460008201527f7265737300000000000000000000000000000000000000000000000000000000602082015250565b60006140b7602483612e25565b91506140c28261405b565b604082019050919050565b600060208201905081810360008301526140e6816140aa565b9050919050565b7f45524337323155524953746f726167653a2055524920736574206f66206e6f6e60008201527f6578697374656e7420746f6b656e000000000000000000000000000000000000602082015250565b6000614149602e83612e25565b9150614154826140ed565b604082019050919050565b600060208201905081810360008301526141788161413c565b9050919050565b7f4552433732313a20617070726f766520746f2063616c6c657200000000000000600082015250565b60006141b5601983612e25565b91506141c08261417f565b602082019050919050565b600060208201905081810360008301526141e4816141a8565b9050919050565b7f4552433732313a207472616e7366657220746f206e6f6e20455243373231526560008201527f63656976657220696d706c656d656e7465720000000000000000000000000000602082015250565b6000614247603283612e25565b9150614252826141eb565b604082019050919050565b600060208201905081810360008301526142768161423a565b9050919050565b7f526f6c65733a206163636f756e7420697320746865207a65726f20616464726560008201527f7373000000000000000000000000000000000000000000000000000000000000602082015250565b60006142d9602283612e25565b91506142e48261427d565b604082019050919050565b60006020820190508181036000830152614308816142cc565b9050919050565b600061431a82612bf5565b915061432583612bf5565b92508282101561433857614337613429565b5b828203905092915050565b600081519050919050565b600061435982614343565b6143638185613cb9565b9350614373818560208601612e36565b61437c81612e69565b840191505092915050565b600060808201905061439c6000830187612f02565b6143a96020830186612f02565b6143b66040830185612f6c565b81810360608301526143c8818461434e565b905095945050505050565b6000815190506143e281612d8b565b92915050565b6000602082840312156143fe576143fd612b8d565b5b600061440c848285016143d3565b91505092915050565b7f4e487b7100000000000000000000000000000000000000000000000000000000600052601260045260246000fd5b7f4552433732313a206d696e7420746f20746865207a65726f2061646472657373600082015250565b600061447a602083612e25565b915061448582614444565b602082019050919050565b600060208201905081810360008301526144a98161446d565b9050919050565b7f4552433732313a20746f6b656e20616c7265616479206d696e74656400000000600082015250565b60006144e6601c83612e25565b91506144f1826144b0565b602082019050919050565b60006020820190508181036000830152614515816144d9565b905091905056fea264697066735822122092c32a98434cc9304eb1041e03fbaa6f16e10f6a99cd741cf371c658a65d1a6164736f6c634300080f0033",
  "linkReferences": {},
  "deployedLinkReferences": {}
}