{
  "_format": "hh-sol-artifact-1",
  "contractName": "RecipientContract",
  "sourceName": "src/blockchain/hardhat/contracts/RecipientContract.sol",
  "abi": [
    {
      "inputs": [
        {
          "internalType": "address",
          "name": "_erc777Address",
          "type": "address"
        }
      ],
      "stateMutability": "nonpayable",
      "type": "constructor"
    },
    {
      "inputs": [],
      "name": "account",
      "outputs": [
        {
          "internalType": "address",
          "name": "",
          "type": "address"
        }
      ],
      "stateMutability": "view",
      "type": "function"
    },
    {
      "inputs": [
        {
          "internalType": "uint256",
          "name": "amount",
          "type": "uint256"
        }
      ],
      "name": "deposit",
      "outputs": [],
      "stateMutability": "nonpayable",
      "type": "function"
    },
    {
      "inputs": [],
      "name": "erc777",
      "outputs": [
        {
          "internalType": "contract ERC777",
          "name": "",
          "type": "address"
        }
      ],
      "stateMutability": "view",
      "type": "function"
    },
    {
      "inputs": [
        {
          "internalType": "address",
          "name": "_operator",
          "type": "address"
        },
        {
          "internalType": "address",
          "name": "_from",
          "type": "address"
        },
        {
          "internalType": "address",
          "name": "_to",
          "type": "address"
        },
        {
          "internalType": "uint256",
          "name": "_amount",
          "type": "uint256"
        },
        {
          "internalType": "bytes",
          "name": "_userData",
          "type": "bytes"
        },
        {
          "internalType": "bytes",
          "name": "_operatorData",
          "type": "bytes"
        }
      ],
      "name": "tokensReceived",
      "outputs": [],
      "stateMutability": "nonpayable",
      "type": "function"
    },
    {
      "inputs": [],
      "name": "totalAsserts",
      "outputs": [
        {
          "internalType": "uint256",
          "name": "",
          "type": "uint256"
        }
      ],
      "stateMutability": "view",
      "type": "function"
    },
    {
      "inputs": [],
      "name": "withdrawTokens",
      "outputs": [],
      "stateMutability": "nonpayable",
      "type": "function"
    }
  ],
  "bytecode": "0x60c060405234801561001057600080fd5b50604051610a62380380610a62833981810160405281019061003291906101a6565b731820a4b7618bde71dce8cdc73aab6c95905fad2473ffffffffffffffffffffffffffffffffffffffff166329965a1d307fb281fc8c12954d22544db45de3159a39272895b169a852b314f9cc762e44c53b306040518463ffffffff1660e01b81526004016100a3939291906101fb565b600060405180830381600087803b1580156100bd57600080fd5b505af11580156100d1573d6000803e3d6000fd5b505050508073ffffffffffffffffffffffffffffffffffffffff1660808173ffffffffffffffffffffffffffffffffffffffff16815250503373ffffffffffffffffffffffffffffffffffffffff1660a08173ffffffffffffffffffffffffffffffffffffffff168152505050610232565b600080fd5b600073ffffffffffffffffffffffffffffffffffffffff82169050919050565b600061017382610148565b9050919050565b61018381610168565b811461018e57600080fd5b50565b6000815190506101a08161017a565b92915050565b6000602082840312156101bc576101bb610143565b5b60006101ca84828501610191565b91505092915050565b6101dc81610168565b82525050565b6000819050919050565b6101f5816101e2565b82525050565b600060608201905061021060008301866101d3565b61021d60208301856101ec565b61022a60408301846101d3565b949350505050565b60805160a0516107f661026c6000396000818161010e01526101320152600081816102030152818161029401526102b801526107f66000f3fe608060405234801561001057600080fd5b50600436106100615760003560e01c806223de29146100665780635dab2420146100825780638d8f2adb146100a05780639e8e4d1d146100aa578063b6b55f25146100c8578063e5c65d30146100e4575b600080fd5b610080600480360381019061007b9190610453565b610102565b005b61008a61010c565b6040516100979190610531565b60405180910390f35b6100a8610130565b005b6100b2610292565b6040516100bf91906105ab565b60405180910390f35b6100e260048036038101906100dd91906105c6565b6102b6565b005b6100ec610348565b6040516100f99190610602565b60405180910390f35b5050505050505050565b7f000000000000000000000000000000000000000000000000000000000000000081565b7f000000000000000000000000000000000000000000000000000000000000000073ffffffffffffffffffffffffffffffffffffffff163373ffffffffffffffffffffffffffffffffffffffff16146101be576040517f08c379a00000000000000000000000000000000000000000000000000000000081526004016101b5906106a0565b60405180910390fd5b60004711610201576040517f08c379a00000000000000000000000000000000000000000000000000000000081526004016101f89061070c565b60405180910390fd5b7f000000000000000000000000000000000000000000000000000000000000000073ffffffffffffffffffffffffffffffffffffffff166362ad1b833033476040518463ffffffff1660e01b815260040161025e93929190610763565b600060405180830381600087803b15801561027857600080fd5b505af115801561028c573d6000803e3d6000fd5b50505050565b7f000000000000000000000000000000000000000000000000000000000000000081565b7f000000000000000000000000000000000000000000000000000000000000000073ffffffffffffffffffffffffffffffffffffffff166362ad1b833330846040518463ffffffff1660e01b815260040161031393929190610763565b600060405180830381600087803b15801561032d57600080fd5b505af1158015610341573d6000803e3d6000fd5b5050505050565b600047905090565b600080fd5b600080fd5b600073ffffffffffffffffffffffffffffffffffffffff82169050919050565b60006103858261035a565b9050919050565b6103958161037a565b81146103a057600080fd5b50565b6000813590506103b28161038c565b92915050565b6000819050919050565b6103cb816103b8565b81146103d657600080fd5b50565b6000813590506103e8816103c2565b92915050565b600080fd5b600080fd5b600080fd5b60008083601f840112610413576104126103ee565b5b8235905067ffffffffffffffff8111156104305761042f6103f3565b5b60208301915083600182028301111561044c5761044b6103f8565b5b9250929050565b60008060008060008060008060c0898b03121561047357610472610350565b5b60006104818b828c016103a3565b98505060206104928b828c016103a3565b97505060406104a38b828c016103a3565b96505060606104b48b828c016103d9565b955050608089013567ffffffffffffffff8111156104d5576104d4610355565b5b6104e18b828c016103fd565b945094505060a089013567ffffffffffffffff81111561050457610503610355565b5b6105108b828c016103fd565b92509250509295985092959890939650565b61052b8161037a565b82525050565b60006020820190506105466000830184610522565b92915050565b6000819050919050565b600061057161056c6105678461035a565b61054c565b61035a565b9050919050565b600061058382610556565b9050919050565b600061059582610578565b9050919050565b6105a58161058a565b82525050565b60006020820190506105c0600083018461059c565b92915050565b6000602082840312156105dc576105db610350565b5b60006105ea848285016103d9565b91505092915050565b6105fc816103b8565b82525050565b600060208201905061061760008301846105f3565b92915050565b600082825260208201905092915050565b7f4d61726b6574506c616365436f6e74726163743a2063616c6c6572206973206e60008201527f6f7420746865206f776e65720000000000000000000000000000000000000000602082015250565b600061068a602c8361061d565b91506106958261062e565b604082019050919050565b600060208201905081810360008301526106b98161067d565b9050919050565b7f546865726520646f6e277420746f6b656e730000000000000000000000000000600082015250565b60006106f660128361061d565b9150610701826106c0565b602082019050919050565b60006020820190508181036000830152610725816106e9565b9050919050565b600082825260208201905092915050565b50565b600061074d60008361072c565b91506107588261073d565b600082019050919050565b600060a0820190506107786000830186610522565b6107856020830185610522565b61079260408301846105f3565b81810360608301526107a381610740565b905081810360808301526107b681610740565b905094935050505056fea26469706673582212202914c6613cc3be687ceeeb8e7b8e709692945fe4666765967570da114776ca6a64736f6c634300080f0033",
  "linkReferences": {},
  "deployedLinkReferences": {}
}