{
  "_format": "hh-sol-artifact-1",
  "contractName": "BenefitGaslessContract",
  "sourceName": "src/blockchain/hardhat/contracts/BenefictGaslessContract.sol",
  "abi": [
    {
      "inputs": [
        {
          "internalType": "contract MinimalForwarder",
          "name": "forwarder",
          "type": "address"
        },
        {
          "internalType": "address",
          "name": "_manager",
          "type": "address"
        },
        {
          "internalType": "uint256",
          "name": "_maxMint",
          "type": "uint256"
        },
        {
          "internalType": "string",
          "name": "_uri",
          "type": "string"
        },
        {
          "internalType": "uint256",
          "name": "_price",
          "type": "uint256"
        },
        {
          "internalType": "address",
          "name": "_erc777Address",
          "type": "address"
        },
        {
          "internalType": "string",
          "name": "_name",
          "type": "string"
        },
        {
          "internalType": "string",
          "name": "_symbol",
          "type": "string"
        }
      ],
      "stateMutability": "nonpayable",
      "type": "constructor"
    },
    {
      "anonymous": false,
      "inputs": [
        {
          "indexed": true,
          "internalType": "address",
          "name": "owner",
          "type": "address"
        },
        {
          "indexed": true,
          "internalType": "address",
          "name": "approved",
          "type": "address"
        },
        {
          "indexed": true,
          "internalType": "uint256",
          "name": "tokenId",
          "type": "uint256"
        }
      ],
      "name": "Approval",
      "type": "event"
    },
    {
      "anonymous": false,
      "inputs": [
        {
          "indexed": true,
          "internalType": "address",
          "name": "owner",
          "type": "address"
        },
        {
          "indexed": true,
          "internalType": "address",
          "name": "operator",
          "type": "address"
        },
        {
          "indexed": false,
          "internalType": "bool",
          "name": "approved",
          "type": "bool"
        }
      ],
      "name": "ApprovalForAll",
      "type": "event"
    },
    {
      "anonymous": false,
      "inputs": [
        {
          "indexed": true,
          "internalType": "address",
          "name": "from",
          "type": "address"
        },
        {
          "indexed": true,
          "internalType": "address",
          "name": "to",
          "type": "address"
        },
        {
          "indexed": true,
          "internalType": "uint256",
          "name": "tokenId",
          "type": "uint256"
        }
      ],
      "name": "Transfer",
      "type": "event"
    },
    {
      "inputs": [],
      "name": "EPNS_COMM_ADDRESS",
      "outputs": [
        {
          "internalType": "address",
          "name": "",
          "type": "address"
        }
      ],
      "stateMutability": "view",
      "type": "function"
    },
    {
      "inputs": [],
      "name": "ItemCounter",
      "outputs": [
        {
          "internalType": "uint256",
          "name": "_value",
          "type": "uint256"
        }
      ],
      "stateMutability": "view",
      "type": "function"
    },
    {
      "inputs": [],
      "name": "account",
      "outputs": [
        {
          "internalType": "address",
          "name": "",
          "type": "address"
        }
      ],
      "stateMutability": "view",
      "type": "function"
    },
    {
      "inputs": [],
      "name": "amount",
      "outputs": [
        {
          "internalType": "uint256",
          "name": "",
          "type": "uint256"
        }
      ],
      "stateMutability": "view",
      "type": "function"
    },
    {
      "inputs": [
        {
          "internalType": "address",
          "name": "to",
          "type": "address"
        },
        {
          "internalType": "uint256",
          "name": "tokenId",
          "type": "uint256"
        }
      ],
      "name": "approve",
      "outputs": [],
      "stateMutability": "nonpayable",
      "type": "function"
    },
    {
      "inputs": [
        {
          "internalType": "address",
          "name": "owner",
          "type": "address"
        }
      ],
      "name": "balanceOf",
      "outputs": [
        {
          "internalType": "uint256",
          "name": "",
          "type": "uint256"
        }
      ],
      "stateMutability": "view",
      "type": "function"
    },
    {
      "inputs": [
        {
          "internalType": "address",
          "name": "",
          "type": "address"
        },
        {
          "internalType": "uint256",
          "name": "",
          "type": "uint256"
        }
      ],
      "name": "benefitsIdByCustomer",
      "outputs": [
        {
          "internalType": "uint256",
          "name": "",
          "type": "uint256"
        }
      ],
      "stateMutability": "view",
      "type": "function"
    },
    {
      "inputs": [
        {
          "internalType": "uint256",
          "name": "_tokenId",
          "type": "uint256"
        }
      ],
      "name": "checkIn",
      "outputs": [
        {
          "internalType": "bool",
          "name": "",
          "type": "bool"
        }
      ],
      "stateMutability": "nonpayable",
      "type": "function"
    },
    {
      "inputs": [],
      "name": "erc777",
      "outputs": [
        {
          "internalType": "contract ERC777",
          "name": "",
          "type": "address"
        }
      ],
      "stateMutability": "view",
      "type": "function"
    },
    {
      "inputs": [
        {
          "internalType": "uint256",
          "name": "tokenId",
          "type": "uint256"
        }
      ],
      "name": "getApproved",
      "outputs": [
        {
          "internalType": "address",
          "name": "",
          "type": "address"
        }
      ],
      "stateMutability": "view",
      "type": "function"
    },
    {
      "inputs": [
        {
          "internalType": "address",
          "name": "_owner",
          "type": "address"
        }
      ],
      "name": "getBenefitsIdsByCustomer",
      "outputs": [
        {
          "internalType": "uint256[]",
          "name": "",
          "type": "uint256[]"
        }
      ],
      "stateMutability": "view",
      "type": "function"
    },
    {
      "inputs": [
        {
          "internalType": "address",
          "name": "owner",
          "type": "address"
        },
        {
          "internalType": "address",
          "name": "operator",
          "type": "address"
        }
      ],
      "name": "isApprovedForAll",
      "outputs": [
        {
          "internalType": "bool",
          "name": "",
          "type": "bool"
        }
      ],
      "stateMutability": "view",
      "type": "function"
    },
    {
      "inputs": [],
      "name": "isManagerOrAdmin",
      "outputs": [
        {
          "internalType": "bool",
          "name": "",
          "type": "bool"
        }
      ],
      "stateMutability": "view",
      "type": "function"
    },
    {
      "inputs": [
        {
          "internalType": "address",
          "name": "forwarder",
          "type": "address"
        }
      ],
      "name": "isTrustedForwarder",
      "outputs": [
        {
          "internalType": "bool",
          "name": "",
          "type": "bool"
        }
      ],
      "stateMutability": "view",
      "type": "function"
    },
    {
      "inputs": [],
      "name": "maxMint",
      "outputs": [
        {
          "internalType": "uint256",
          "name": "",
          "type": "uint256"
        }
      ],
      "stateMutability": "view",
      "type": "function"
    },
    {
      "inputs": [],
      "name": "name",
      "outputs": [
        {
          "internalType": "string",
          "name": "",
          "type": "string"
        }
      ],
      "stateMutability": "view",
      "type": "function"
    },
    {
      "inputs": [
        {
          "internalType": "uint256",
          "name": "tokenId",
          "type": "uint256"
        }
      ],
      "name": "ownerOf",
      "outputs": [
        {
          "internalType": "address",
          "name": "",
          "type": "address"
        }
      ],
      "stateMutability": "view",
      "type": "function"
    },
    {
      "inputs": [],
      "name": "price",
      "outputs": [
        {
          "internalType": "uint256",
          "name": "",
          "type": "uint256"
        }
      ],
      "stateMutability": "view",
      "type": "function"
    },
    {
      "inputs": [
        {
          "internalType": "address",
          "name": "_customer",
          "type": "address"
        },
        {
          "internalType": "uint256",
          "name": "_tokenId",
          "type": "uint256"
        }
      ],
      "name": "redeemBenefit",
      "outputs": [
        {
          "internalType": "bool",
          "name": "",
          "type": "bool"
        }
      ],
      "stateMutability": "nonpayable",
      "type": "function"
    },
    {
      "inputs": [
        {
          "internalType": "address",
          "name": "_tokenAddress",
          "type": "address"
        }
      ],
      "name": "safeMint",
      "outputs": [
        {
          "internalType": "uint256",
          "name": "",
          "type": "uint256"
        }
      ],
      "stateMutability": "nonpayable",
      "type": "function"
    },
    {
      "inputs": [
        {
          "internalType": "address",
          "name": "from",
          "type": "address"
        },
        {
          "internalType": "address",
          "name": "to",
          "type": "address"
        },
        {
          "internalType": "uint256",
          "name": "tokenId",
          "type": "uint256"
        }
      ],
      "name": "safeTransferFrom",
      "outputs": [],
      "stateMutability": "nonpayable",
      "type": "function"
    },
    {
      "inputs": [
        {
          "internalType": "address",
          "name": "from",
          "type": "address"
        },
        {
          "internalType": "address",
          "name": "to",
          "type": "address"
        },
        {
          "internalType": "uint256",
          "name": "tokenId",
          "type": "uint256"
        },
        {
          "internalType": "bytes",
          "name": "data",
          "type": "bytes"
        }
      ],
      "name": "safeTransferFrom",
      "outputs": [],
      "stateMutability": "nonpayable",
      "type": "function"
    },
    {
      "inputs": [
        {
          "internalType": "address",
          "name": "operator",
          "type": "address"
        },
        {
          "internalType": "bool",
          "name": "approved",
          "type": "bool"
        }
      ],
      "name": "setApprovalForAll",
      "outputs": [],
      "stateMutability": "nonpayable",
      "type": "function"
    },
    {
      "inputs": [
        {
          "internalType": "bytes4",
          "name": "interfaceId",
          "type": "bytes4"
        }
      ],
      "name": "supportsInterface",
      "outputs": [
        {
          "internalType": "bool",
          "name": "",
          "type": "bool"
        }
      ],
      "stateMutability": "view",
      "type": "function"
    },
    {
      "inputs": [],
      "name": "symbol",
      "outputs": [
        {
          "internalType": "string",
          "name": "",
          "type": "string"
        }
      ],
      "stateMutability": "view",
      "type": "function"
    },
    {
      "inputs": [],
      "name": "tokenIdCounter",
      "outputs": [
        {
          "internalType": "uint256",
          "name": "_value",
          "type": "uint256"
        }
      ],
      "stateMutability": "view",
      "type": "function"
    },
    {
      "inputs": [
        {
          "internalType": "uint256",
          "name": "tokenId",
          "type": "uint256"
        }
      ],
      "name": "tokenURI",
      "outputs": [
        {
          "internalType": "string",
          "name": "",
          "type": "string"
        }
      ],
      "stateMutability": "view",
      "type": "function"
    },
    {
      "inputs": [
        {
          "internalType": "uint256",
          "name": "",
          "type": "uint256"
        }
      ],
      "name": "tokens",
      "outputs": [
        {
          "internalType": "uint256",
          "name": "id",
          "type": "uint256"
        },
        {
          "internalType": "string",
          "name": "URI",
          "type": "string"
        },
        {
          "internalType": "bool",
          "name": "checkIn",
          "type": "bool"
        },
        {
          "internalType": "bool",
          "name": "redeem",
          "type": "bool"
        },
        {
          "internalType": "address",
          "name": "buyer",
          "type": "address"
        }
      ],
      "stateMutability": "view",
      "type": "function"
    },
    {
      "inputs": [
        {
          "internalType": "address",
          "name": "_operator",
          "type": "address"
        },
        {
          "internalType": "address",
          "name": "_from",
          "type": "address"
        },
        {
          "internalType": "address",
          "name": "_to",
          "type": "address"
        },
        {
          "internalType": "uint256",
          "name": "_amount",
          "type": "uint256"
        },
        {
          "internalType": "bytes",
          "name": "_userData",
          "type": "bytes"
        },
        {
          "internalType": "bytes",
          "name": "_operatorData",
          "type": "bytes"
        }
      ],
      "name": "tokensReceived",
      "outputs": [],
      "stateMutability": "nonpayable",
      "type": "function"
    },
    {
      "inputs": [
        {
          "internalType": "address",
          "name": "from",
          "type": "address"
        },
        {
          "internalType": "address",
          "name": "to",
          "type": "address"
        },
        {
          "internalType": "uint256",
          "name": "tokenId",
          "type": "uint256"
        }
      ],
      "name": "transferFrom",
      "outputs": [],
      "stateMutability": "nonpayable",
      "type": "function"
    },
    {
      "inputs": [],
      "name": "uri",
      "outputs": [
        {
          "internalType": "string",
          "name": "",
          "type": "string"
        }
      ],
      "stateMutability": "view",
      "type": "function"
    },
    {
      "inputs": [],
      "name": "withdrawTokens",
      "outputs": [],
      "stateMutability": "nonpayable",
      "type": "function"
    }
  ],
  "bytecode": "0x60e060405273b3971bcef2d791bc4027bbfedfb47319a4aaaaaa601160006101000a81548173ffffffffffffffffffffffffffffffffffffffff021916908373ffffffffffffffffffffffffffffffffffffffff1602179055503480156200006657600080fd5b50604051620052163803806200521683398181016040528101906200008c91906200065e565b8282828a8073ffffffffffffffffffffffffffffffffffffffff1660808173ffffffffffffffffffffffffffffffffffffffff1681525050508160009081620000d69190620009c5565b508060019081620000e89190620009c5565b505050731820a4b7618bde71dce8cdc73aab6c95905fad2473ffffffffffffffffffffffffffffffffffffffff166329965a1d307fb281fc8c12954d22544db45de3159a39272895b169a852b314f9cc762e44c53b306040518463ffffffff1660e01b81526004016200015e9392919062000ad8565b600060405180830381600087803b1580156200017957600080fd5b505af11580156200018e573d6000803e3d6000fd5b505050508073ffffffffffffffffffffffffffffffffffffffff1660a08173ffffffffffffffffffffffffffffffffffffffff16815250503373ffffffffffffffffffffffffffffffffffffffff1660c08173ffffffffffffffffffffffffffffffffffffffff168152505050620002163360086200025f60201b620019901790919060201c565b620002318760096200025f60201b620019901790919060201c565b84600e9081620002429190620009c5565b508360108190555085600f81905550505050505050505062000c30565b6200027182826200031260201b60201c565b15620002b4576040517f08c379a0000000000000000000000000000000000000000000000000000000008152600401620002ab9062000b76565b60405180910390fd5b60018260000160008373ffffffffffffffffffffffffffffffffffffffff1673ffffffffffffffffffffffffffffffffffffffff16815260200190815260200160002060006101000a81548160ff0219169083151502179055505050565b60008073ffffffffffffffffffffffffffffffffffffffff168273ffffffffffffffffffffffffffffffffffffffff160362000385576040517f08c379a00000000000000000000000000000000000000000000000000000000081526004016200037c9062000c0e565b60405180910390fd5b8260000160008373ffffffffffffffffffffffffffffffffffffffff1673ffffffffffffffffffffffffffffffffffffffff16815260200190815260200160002060009054906101000a900460ff16905092915050565b6000604051905090565b600080fd5b600080fd5b600073ffffffffffffffffffffffffffffffffffffffff82169050919050565b60006200041d82620003f0565b9050919050565b6000620004318262000410565b9050919050565b620004438162000424565b81146200044f57600080fd5b50565b600081519050620004638162000438565b92915050565b620004748162000410565b81146200048057600080fd5b50565b600081519050620004948162000469565b92915050565b6000819050919050565b620004af816200049a565b8114620004bb57600080fd5b50565b600081519050620004cf81620004a4565b92915050565b600080fd5b600080fd5b6000601f19601f8301169050919050565b7f4e487b7100000000000000000000000000000000000000000000000000000000600052604160045260246000fd5b6200052a82620004df565b810181811067ffffffffffffffff821117156200054c576200054b620004f0565b5b80604052505050565b600062000561620003dc565b90506200056f82826200051f565b919050565b600067ffffffffffffffff821115620005925762000591620004f0565b5b6200059d82620004df565b9050602081019050919050565b60005b83811015620005ca578082015181840152602081019050620005ad565b83811115620005da576000848401525b50505050565b6000620005f7620005f18462000574565b62000555565b905082815260208101848484011115620006165762000615620004da565b5b62000623848285620005aa565b509392505050565b600082601f830112620006435762000642620004d5565b5b815162000655848260208601620005e0565b91505092915050565b600080600080600080600080610100898b031215620006825762000681620003e6565b5b6000620006928b828c0162000452565b9850506020620006a58b828c0162000483565b9750506040620006b88b828c01620004be565b965050606089015167ffffffffffffffff811115620006dc57620006db620003eb565b5b620006ea8b828c016200062b565b9550506080620006fd8b828c01620004be565b94505060a0620007108b828c0162000483565b93505060c089015167ffffffffffffffff811115620007345762000733620003eb565b5b620007428b828c016200062b565b92505060e089015167ffffffffffffffff811115620007665762000765620003eb565b5b620007748b828c016200062b565b9150509295985092959890939650565b600081519050919050565b7f4e487b7100000000000000000000000000000000000000000000000000000000600052602260045260246000fd5b60006002820490506001821680620007d757607f821691505b602082108103620007ed57620007ec6200078f565b5b50919050565b60008190508160005260206000209050919050565b60006020601f8301049050919050565b600082821b905092915050565b600060088302620008577fffffffffffffffffffffffffffffffffffffffffffffffffffffffffffffffff8262000818565b62000863868362000818565b95508019841693508086168417925050509392505050565b6000819050919050565b6000620008a6620008a06200089a846200049a565b6200087b565b6200049a565b9050919050565b6000819050919050565b620008c28362000885565b620008da620008d182620008ad565b84845462000825565b825550505050565b600090565b620008f1620008e2565b620008fe818484620008b7565b505050565b5b8181101562000926576200091a600082620008e7565b60018101905062000904565b5050565b601f82111562000975576200093f81620007f3565b6200094a8462000808565b810160208510156200095a578190505b62000972620009698562000808565b83018262000903565b50505b505050565b600082821c905092915050565b60006200099a600019846008026200097a565b1980831691505092915050565b6000620009b5838362000987565b9150826002028217905092915050565b620009d08262000784565b67ffffffffffffffff811115620009ec57620009eb620004f0565b5b620009f88254620007be565b62000a058282856200092a565b600060209050601f83116001811462000a3d576000841562000a28578287015190505b62000a348582620009a7565b86555062000aa4565b601f19841662000a4d86620007f3565b60005b8281101562000a775784890151825560018201915060208501945060208101905062000a50565b8683101562000a97578489015162000a93601f89168262000987565b8355505b6001600288020188555050505b505050505050565b62000ab78162000410565b82525050565b6000819050919050565b62000ad28162000abd565b82525050565b600060608201905062000aef600083018662000aac565b62000afe602083018562000ac7565b62000b0d604083018462000aac565b949350505050565b600082825260208201905092915050565b7f526f6c65733a206163636f756e7420616c72656164792068617320726f6c6500600082015250565b600062000b5e601f8362000b15565b915062000b6b8262000b26565b602082019050919050565b6000602082019050818103600083015262000b918162000b4f565b9050919050565b7f526f6c65733a206163636f756e7420697320746865207a65726f20616464726560008201527f7373000000000000000000000000000000000000000000000000000000000000602082015250565b600062000bf660228362000b15565b915062000c038262000b98565b604082019050919050565b6000602082019050818103600083015262000c298162000be7565b9050919050565b60805160a05160c0516145a162000c756000396000818161108b01526111f20152600081816112c5015281816113fe0152611f690152600061103501526145a16000f3fe608060405234801561001057600080fd5b50600436106101ef5760003560e01c80637501f7411161010f578063b88d4fde116100a2578063e95a644f11610071578063e95a644f146105e6578063e985e9c514610616578063eac989f814610646578063f958aada14610664576101ef565b8063b88d4fde1461054c578063c87b56dd14610568578063cef073cb14610598578063d4ff1348146105c8576101ef565b80639e8e4d1d116100de5780639e8e4d1d146104d6578063a035b1fe146104f4578063a22cb46514610512578063aa8c217c1461052e576101ef565b80637501f741146104725780638d8f2adb1461049057806395d89b411461049a57806398bdf6f5146104b8576101ef565b806342842e0e11610187578063572b6c0511610156578063572b6c05146103c45780635dab2420146103f45780636352211e1461041257806370a0823114610442576101ef565b806342842e0e1461032657806348a3b4a4146103425780634f64b2be1461036057806355cfab2214610394576101ef565b8063095ea7b3116101c3578063095ea7b31461028e5780630e144367146102aa57806323b872dd146102da57806340d097c3146102f6576101ef565b806223de29146101f457806301ffc9a71461021057806306fdde0314610240578063081812fc1461025e575b600080fd5b61020e60048036038101906102099190612cdf565b610682565b005b61022a60048036038101906102259190612e06565b6106a5565b6040516102379190612e4e565b60405180910390f35b610248610787565b6040516102559190612f02565b60405180910390f35b61027860048036038101906102739190612f24565b610819565b6040516102859190612f60565b60405180910390f35b6102a860048036038101906102a39190612f7b565b61085f565b005b6102c460048036038101906102bf9190612f7b565b610976565b6040516102d19190612fca565b60405180910390f35b6102f460048036038101906102ef9190612fe5565b6109a7565b005b610310600480360381019061030b9190613038565b610a07565b60405161031d9190612fca565b60405180910390f35b610340600480360381019061033b9190612fe5565b610e5c565b005b61034a610e7c565b6040516103579190612f60565b60405180910390f35b61037a60048036038101906103759190612f24565b610ea2565b60405161038b959493929190613065565b60405180910390f35b6103ae60048036038101906103a99190613038565b610f9a565b6040516103bb919061317d565b60405180910390f35b6103de60048036038101906103d99190613038565b611031565b6040516103eb9190612e4e565b60405180910390f35b6103fc611089565b6040516104099190612f60565b60405180910390f35b61042c60048036038101906104279190612f24565b6110ad565b6040516104399190612f60565b60405180910390f35b61045c60048036038101906104579190613038565b611133565b6040516104699190612fca565b60405180910390f35b61047a6111ea565b6040516104879190612fca565b60405180910390f35b6104986111f0565b005b6104a261135e565b6040516104af9190612f02565b60405180910390f35b6104c06113f0565b6040516104cd9190612fca565b60405180910390f35b6104de6113fc565b6040516104eb91906131fe565b60405180910390f35b6104fc611420565b6040516105099190612fca565b60405180910390f35b61052c60048036038101906105279190613245565b611426565b005b61053661143c565b6040516105439190612fca565b60405180910390f35b610566600480360381019061056191906133b5565b611442565b005b610582600480360381019061057d9190612f24565b6114a4565b60405161058f9190612f02565b60405180910390f35b6105b260048036038101906105ad9190612f7b565b6115b6565b6040516105bf9190612e4e565b60405180910390f35b6105d061174e565b6040516105dd9190612e4e565b60405180910390f35b61060060048036038101906105fb9190612f24565b61179c565b60405161060d9190612e4e565b60405180910390f35b610630600480360381019061062b9190613438565b611862565b60405161063d9190612e4e565b60405180910390f35b61064e6118f6565b60405161065b9190612f02565b60405180910390f35b61066c611984565b6040516106799190612fca565b60405180910390f35b846007600082825461069491906134a7565b925050819055505050505050505050565b60007f80ac58cd000000000000000000000000000000000000000000000000000000007bffffffffffffffffffffffffffffffffffffffffffffffffffffffff1916827bffffffffffffffffffffffffffffffffffffffffffffffffffffffff1916148061077057507f5b5e139f000000000000000000000000000000000000000000000000000000007bffffffffffffffffffffffffffffffffffffffffffffffffffffffff1916827bffffffffffffffffffffffffffffffffffffffffffffffffffffffff1916145b80610780575061077f82611a38565b5b9050919050565b6060600080546107969061352c565b80601f01602080910402602001604051908101604052809291908181526020018280546107c29061352c565b801561080f5780601f106107e45761010080835404028352916020019161080f565b820191906000526020600020905b8154815290600101906020018083116107f257829003601f168201915b5050505050905090565b600061082482611aa2565b6004600083815260200190815260200160002060009054906101000a900473ffffffffffffffffffffffffffffffffffffffff169050919050565b600061086a826110ad565b90508073ffffffffffffffffffffffffffffffffffffffff168373ffffffffffffffffffffffffffffffffffffffff16036108da576040517f08c379a00000000000000000000000000000000000000000000000000000000081526004016108d1906135cf565b60405180910390fd5b8073ffffffffffffffffffffffffffffffffffffffff166108f9611aed565b73ffffffffffffffffffffffffffffffffffffffff161480610928575061092781610922611aed565b611862565b5b610967576040517f08c379a000000000000000000000000000000000000000000000000000000000815260040161095e90613661565b60405180910390fd5b6109718383611afc565b505050565b600d602052816000526040600020818154811061099257600080fd5b90600052602060002001600091509150505481565b6109b86109b2611aed565b82611bb5565b6109f7576040517f08c379a00000000000000000000000000000000000000000000000000000000081526004016109ee906136f3565b60405180910390fd5b610a02838383611c4a565b505050565b6000600f54610a16600b611f43565b10610a56576040517f08c379a0000000000000000000000000000000000000000000000000000000008152600401610a4d9061375f565b60405180910390fd5b6010548273ffffffffffffffffffffffffffffffffffffffff1663f38e266a336040518263ffffffff1660e01b8152600401610a929190612f60565b602060405180830381865afa158015610aaf573d6000803e3d6000fd5b505050506040513d601f19601f82011682018060405250810190610ad39190613794565b11610b13576040517f08c379a0000000000000000000000000000000000000000000000000000000008152600401610b0a9061380d565b60405180910390fd5b8173ffffffffffffffffffffffffffffffffffffffff1663e8d880c6336010546040518363ffffffff1660e01b8152600401610b5092919061382d565b6020604051808303816000875af1158015610b6f573d6000803e3d6000fd5b505050506040513d601f19601f82011682018060405250810190610b93919061386b565b610b9c57600080fd5b6000610ba8600b611f43565b9050610bb4600b611f51565b60006040518060a00160405280838152602001600e8054610bd49061352c565b80601f0160208091040260200160405190810160405280929190818152602001828054610c009061352c565b8015610c4d5780601f10610c2257610100808354040283529160200191610c4d565b820191906000526020600020905b815481529060010190602001808311610c3057829003601f168201915b505050505081526020016000151581526020016000151581526020013373ffffffffffffffffffffffffffffffffffffffff16815250905080600c6000848152602001908152602001600020600082015181600001556020820151816001019081610cb89190613a3a565b5060408201518160020160006101000a81548160ff02191690831515021790555060608201518160020160016101000a81548160ff02191690831515021790555060808201518160020160026101000a81548173ffffffffffffffffffffffffffffffffffffffff021916908373ffffffffffffffffffffffffffffffffffffffff160217905550905050600d60003373ffffffffffffffffffffffffffffffffffffffff1673ffffffffffffffffffffffffffffffffffffffff168152602001908152602001600020829080600181540180825580915050600190039060005260206000200160009091909190915055610db4601054611f67565b610dbe3383612012565b610e5282600e8054610dcf9061352c565b80601f0160208091040260200160405190810160405280929190818152602001828054610dfb9061352c565b8015610e485780601f10610e1d57610100808354040283529160200191610e48565b820191906000526020600020905b815481529060010190602001808311610e2b57829003601f168201915b5050505050612030565b8192505050919050565b610e7783838360405180602001604052806000815250611442565b505050565b601160009054906101000a900473ffffffffffffffffffffffffffffffffffffffff1681565b600c602052806000526040600020600091509050806000015490806001018054610ecb9061352c565b80601f0160208091040260200160405190810160405280929190818152602001828054610ef79061352c565b8015610f445780601f10610f1957610100808354040283529160200191610f44565b820191906000526020600020905b815481529060010190602001808311610f2757829003601f168201915b5050505050908060020160009054906101000a900460ff16908060020160019054906101000a900460ff16908060020160029054906101000a900473ffffffffffffffffffffffffffffffffffffffff16905085565b6060600d60008373ffffffffffffffffffffffffffffffffffffffff1673ffffffffffffffffffffffffffffffffffffffff16815260200190815260200160002080548060200260200160405190810160405280929190818152602001828054801561102557602002820191906000526020600020905b815481526020019060010190808311611011575b50505050509050919050565b60007f000000000000000000000000000000000000000000000000000000000000000073ffffffffffffffffffffffffffffffffffffffff168273ffffffffffffffffffffffffffffffffffffffff16149050919050565b7f000000000000000000000000000000000000000000000000000000000000000081565b6000806110b98361209d565b9050600073ffffffffffffffffffffffffffffffffffffffff168173ffffffffffffffffffffffffffffffffffffffff160361112a576040517f08c379a000000000000000000000000000000000000000000000000000000000815260040161112190613b58565b60405180910390fd5b80915050919050565b60008073ffffffffffffffffffffffffffffffffffffffff168273ffffffffffffffffffffffffffffffffffffffff16036111a3576040517f08c379a000000000000000000000000000000000000000000000000000000000815260040161119a90613bea565b60405180910390fd5b600360008373ffffffffffffffffffffffffffffffffffffffff1673ffffffffffffffffffffffffffffffffffffffff168152602001908152602001600020549050919050565b600f5481565b7f000000000000000000000000000000000000000000000000000000000000000073ffffffffffffffffffffffffffffffffffffffff163373ffffffffffffffffffffffffffffffffffffffff161461127e576040517f08c379a000000000000000000000000000000000000000000000000000000000815260040161127590613c7c565b60405180910390fd5b6000600754116112c3576040517f08c379a00000000000000000000000000000000000000000000000000000000081526004016112ba90613ce8565b60405180910390fd5b7f000000000000000000000000000000000000000000000000000000000000000073ffffffffffffffffffffffffffffffffffffffff166362ad1b8330336007546040518463ffffffff1660e01b815260040161132293929190613d3f565b600060405180830381600087803b15801561133c57600080fd5b505af1158015611350573d6000803e3d6000fd5b505050506000600781905550565b60606001805461136d9061352c565b80601f01602080910402602001604051908101604052809291908181526020018280546113999061352c565b80156113e65780601f106113bb576101008083540402835291602001916113e6565b820191906000526020600020905b8154815290600101906020018083116113c957829003601f168201915b5050505050905090565b600b8060000154905081565b7f000000000000000000000000000000000000000000000000000000000000000081565b60105481565b611438611431611aed565b83836120da565b5050565b60075481565b61145361144d611aed565b83611bb5565b611492576040517f08c379a0000000000000000000000000000000000000000000000000000000008152600401611489906136f3565b60405180910390fd5b61149e84848484612246565b50505050565b60606114af82611aa2565b60006006600084815260200190815260200160002080546114cf9061352c565b80601f01602080910402602001604051908101604052809291908181526020018280546114fb9061352c565b80156115485780601f1061151d57610100808354040283529160200191611548565b820191906000526020600020905b81548152906001019060200180831161152b57829003601f168201915b5050505050905060006115596122a2565b9050600081510361156e5781925050506115b1565b6000825111156115a357808260405160200161158b929190613dd8565b604051602081830303815290604052925050506115b1565b6115ac846122b9565b925050505b919050565b60006115cc33600961232190919063ffffffff16565b806115e757506115e633600861232190919063ffffffff16565b5b611626576040517f08c379a000000000000000000000000000000000000000000000000000000000815260040161161d90613e48565b60405180910390fd5b8273ffffffffffffffffffffffffffffffffffffffff16611646836110ad565b73ffffffffffffffffffffffffffffffffffffffff161461169c576040517f08c379a000000000000000000000000000000000000000000000000000000000815260040161169390613eb4565b60405180910390fd5b600c600083815260200190815260200160002060020160009054906101000a900460ff166116ff576040517f08c379a00000000000000000000000000000000000000000000000000000000081526004016116f690613f20565b60405180910390fd5b6000600c6000848152602001908152602001600020905060018160020160016101000a81548160ff0219169083151502179055508060020160019054906101000a900460ff1691505092915050565b600061176433600961232190919063ffffffff16565b156117725760019050611799565b61178633600861232190919063ffffffff16565b156117945760019050611799565b600090505b90565b60003373ffffffffffffffffffffffffffffffffffffffff166117be836110ad565b73ffffffffffffffffffffffffffffffffffffffff1614611814576040517f08c379a000000000000000000000000000000000000000000000000000000000815260040161180b90613f8c565b60405180910390fd5b6000600c6000848152602001908152602001600020905060018160020160006101000a81548160ff0219169083151502179055508060020160009054906101000a900460ff16915050919050565b6000600560008473ffffffffffffffffffffffffffffffffffffffff1673ffffffffffffffffffffffffffffffffffffffff16815260200190815260200160002060008373ffffffffffffffffffffffffffffffffffffffff1673ffffffffffffffffffffffffffffffffffffffff16815260200190815260200160002060009054906101000a900460ff16905092915050565b600e80546119039061352c565b80601f016020809104026020016040519081016040528092919081815260200182805461192f9061352c565b801561197c5780601f106119515761010080835404028352916020019161197c565b820191906000526020600020905b81548152906001019060200180831161195f57829003601f168201915b505050505081565b600a8060000154905081565b61199a8282612321565b156119da576040517f08c379a00000000000000000000000000000000000000000000000000000000081526004016119d190613ff8565b60405180910390fd5b60018260000160008373ffffffffffffffffffffffffffffffffffffffff1673ffffffffffffffffffffffffffffffffffffffff16815260200190815260200160002060006101000a81548160ff0219169083151502179055505050565b60007f01ffc9a7000000000000000000000000000000000000000000000000000000007bffffffffffffffffffffffffffffffffffffffffffffffffffffffff1916827bffffffffffffffffffffffffffffffffffffffffffffffffffffffff1916149050919050565b611aab816123e8565b611aea576040517f08c379a0000000000000000000000000000000000000000000000000000000008152600401611ae190613b58565b60405180910390fd5b50565b6000611af7612429565b905090565b816004600083815260200190815260200160002060006101000a81548173ffffffffffffffffffffffffffffffffffffffff021916908373ffffffffffffffffffffffffffffffffffffffff160217905550808273ffffffffffffffffffffffffffffffffffffffff16611b6f836110ad565b73ffffffffffffffffffffffffffffffffffffffff167f8c5be1e5ebec7d5bd14f71427d1e84f3dd0314c0f7b2291e5b200ac8c7c3b92560405160405180910390a45050565b600080611bc1836110ad565b90508073ffffffffffffffffffffffffffffffffffffffff168473ffffffffffffffffffffffffffffffffffffffff161480611c035750611c028185611862565b5b80611c4157508373ffffffffffffffffffffffffffffffffffffffff16611c2984610819565b73ffffffffffffffffffffffffffffffffffffffff16145b91505092915050565b8273ffffffffffffffffffffffffffffffffffffffff16611c6a826110ad565b73ffffffffffffffffffffffffffffffffffffffff1614611cc0576040517f08c379a0000000000000000000000000000000000000000000000000000000008152600401611cb79061408a565b60405180910390fd5b600073ffffffffffffffffffffffffffffffffffffffff168273ffffffffffffffffffffffffffffffffffffffff1603611d2f576040517f08c379a0000000000000000000000000000000000000000000000000000000008152600401611d269061411c565b60405180910390fd5b611d3c838383600161245b565b8273ffffffffffffffffffffffffffffffffffffffff16611d5c826110ad565b73ffffffffffffffffffffffffffffffffffffffff1614611db2576040517f08c379a0000000000000000000000000000000000000000000000000000000008152600401611da99061408a565b60405180910390fd5b6004600082815260200190815260200160002060006101000a81549073ffffffffffffffffffffffffffffffffffffffff02191690556001600360008573ffffffffffffffffffffffffffffffffffffffff1673ffffffffffffffffffffffffffffffffffffffff168152602001908152602001600020600082825403925050819055506001600360008473ffffffffffffffffffffffffffffffffffffffff1673ffffffffffffffffffffffffffffffffffffffff16815260200190815260200160002060008282540192505081905550816002600083815260200190815260200160002060006101000a81548173ffffffffffffffffffffffffffffffffffffffff021916908373ffffffffffffffffffffffffffffffffffffffff160217905550808273ffffffffffffffffffffffffffffffffffffffff168473ffffffffffffffffffffffffffffffffffffffff167fddf252ad1be2c89b69c2b068fc378daa952ba7f163c4a11628f55a4df523b3ef60405160405180910390a4611f3e8383836001612581565b505050565b600081600001549050919050565b6001816000016000828254019250508190555050565b7f000000000000000000000000000000000000000000000000000000000000000073ffffffffffffffffffffffffffffffffffffffff166362ad1b833330846040518463ffffffff1660e01b8152600401611fc493929190613d3f565b600060405180830381600087803b158015611fde57600080fd5b505af1158015611ff2573d6000803e3d6000fd5b50505050806007600082825461200891906134a7565b9250508190555050565b61202c828260405180602001604052806000815250612587565b5050565b612039826123e8565b612078576040517f08c379a000000000000000000000000000000000000000000000000000000000815260040161206f906141ae565b60405180910390fd5b806006600084815260200190815260200160002090816120989190613a3a565b505050565b60006002600083815260200190815260200160002060009054906101000a900473ffffffffffffffffffffffffffffffffffffffff169050919050565b8173ffffffffffffffffffffffffffffffffffffffff168373ffffffffffffffffffffffffffffffffffffffff1603612148576040517f08c379a000000000000000000000000000000000000000000000000000000000815260040161213f9061421a565b60405180910390fd5b80600560008573ffffffffffffffffffffffffffffffffffffffff1673ffffffffffffffffffffffffffffffffffffffff16815260200190815260200160002060008473ffffffffffffffffffffffffffffffffffffffff1673ffffffffffffffffffffffffffffffffffffffff16815260200190815260200160002060006101000a81548160ff0219169083151502179055508173ffffffffffffffffffffffffffffffffffffffff168373ffffffffffffffffffffffffffffffffffffffff167f17307eab39ab6107e8899845ad3d59bd9653f200f220920489ca2b5937696c31836040516122399190612e4e565b60405180910390a3505050565b612251848484611c4a565b61225d848484846125e2565b61229c576040517f08c379a0000000000000000000000000000000000000000000000000000000008152600401612293906142ac565b60405180910390fd5b50505050565b606060405180602001604052806000815250905090565b60606122c482611aa2565b60006122ce6122a2565b905060008151116122ee5760405180602001604052806000815250612319565b806122f884612769565b604051602001612309929190613dd8565b6040516020818303038152906040525b915050919050565b60008073ffffffffffffffffffffffffffffffffffffffff168273ffffffffffffffffffffffffffffffffffffffff1603612391576040517f08c379a00000000000000000000000000000000000000000000000000000000081526004016123889061433e565b60405180910390fd5b8260000160008373ffffffffffffffffffffffffffffffffffffffff1673ffffffffffffffffffffffffffffffffffffffff16815260200190815260200160002060009054906101000a900460ff16905092915050565b60008073ffffffffffffffffffffffffffffffffffffffff1661240a8361209d565b73ffffffffffffffffffffffffffffffffffffffff1614159050919050565b600061243433611031565b1561244857601436033560601c9050612457565b612450612837565b9050612458565b5b90565b600181111561257b57600073ffffffffffffffffffffffffffffffffffffffff168473ffffffffffffffffffffffffffffffffffffffff16146124ef5780600360008673ffffffffffffffffffffffffffffffffffffffff1673ffffffffffffffffffffffffffffffffffffffff16815260200190815260200160002060008282546124e7919061435e565b925050819055505b600073ffffffffffffffffffffffffffffffffffffffff168373ffffffffffffffffffffffffffffffffffffffff161461257a5780600360008573ffffffffffffffffffffffffffffffffffffffff1673ffffffffffffffffffffffffffffffffffffffff168152602001908152602001600020600082825461257291906134a7565b925050819055505b5b50505050565b50505050565b612591838361283f565b61259e60008484846125e2565b6125dd576040517f08c379a00000000000000000000000000000000000000000000000000000000081526004016125d4906142ac565b60405180910390fd5b505050565b60006126038473ffffffffffffffffffffffffffffffffffffffff16612a5c565b1561275c578373ffffffffffffffffffffffffffffffffffffffff1663150b7a0261262c611aed565b8786866040518563ffffffff1660e01b815260040161264e94939291906143d6565b6020604051808303816000875af192505050801561268a57506040513d601f19601f820116820180604052508101906126879190614437565b60015b61270c573d80600081146126ba576040519150601f19603f3d011682016040523d82523d6000602084013e6126bf565b606091505b506000815103612704576040517f08c379a00000000000000000000000000000000000000000000000000000000081526004016126fb906142ac565b60405180910390fd5b805181602001fd5b63150b7a0260e01b7bffffffffffffffffffffffffffffffffffffffffffffffffffffffff1916817bffffffffffffffffffffffffffffffffffffffffffffffffffffffff191614915050612761565b600190505b949350505050565b60606000600161277884612a7f565b01905060008167ffffffffffffffff8111156127975761279661328a565b5b6040519080825280601f01601f1916602001820160405280156127c95781602001600182028036833780820191505090505b509050600082602001820190505b60011561282c578080600190039150507f3031323334353637383961626364656600000000000000000000000000000000600a86061a8153600a85816128205761281f614464565b5b049450600085036127d7575b819350505050919050565b600033905090565b600073ffffffffffffffffffffffffffffffffffffffff168273ffffffffffffffffffffffffffffffffffffffff16036128ae576040517f08c379a00000000000000000000000000000000000000000000000000000000081526004016128a5906144df565b60405180910390fd5b6128b7816123e8565b156128f7576040517f08c379a00000000000000000000000000000000000000000000000000000000081526004016128ee9061454b565b60405180910390fd5b61290560008383600161245b565b61290e816123e8565b1561294e576040517f08c379a00000000000000000000000000000000000000000000000000000000081526004016129459061454b565b60405180910390fd5b6001600360008473ffffffffffffffffffffffffffffffffffffffff1673ffffffffffffffffffffffffffffffffffffffff16815260200190815260200160002060008282540192505081905550816002600083815260200190815260200160002060006101000a81548173ffffffffffffffffffffffffffffffffffffffff021916908373ffffffffffffffffffffffffffffffffffffffff160217905550808273ffffffffffffffffffffffffffffffffffffffff16600073ffffffffffffffffffffffffffffffffffffffff167fddf252ad1be2c89b69c2b068fc378daa952ba7f163c4a11628f55a4df523b3ef60405160405180910390a4612a58600083836001612581565b5050565b6000808273ffffffffffffffffffffffffffffffffffffffff163b119050919050565b600080600090507a184f03e93ff9f4daa797ed6e38ed64bf6a1f0100000000000000008310612add577a184f03e93ff9f4daa797ed6e38ed64bf6a1f0100000000000000008381612ad357612ad2614464565b5b0492506040810190505b6d04ee2d6d415b85acef81000000008310612b1a576d04ee2d6d415b85acef81000000008381612b1057612b0f614464565b5b0492506020810190505b662386f26fc100008310612b4957662386f26fc100008381612b3f57612b3e614464565b5b0492506010810190505b6305f5e1008310612b72576305f5e1008381612b6857612b67614464565b5b0492506008810190505b6127108310612b97576127108381612b8d57612b8c614464565b5b0492506004810190505b60648310612bba5760648381612bb057612baf614464565b5b0492506002810190505b600a8310612bc9576001810190505b80915050919050565b6000604051905090565b600080fd5b600080fd5b600073ffffffffffffffffffffffffffffffffffffffff82169050919050565b6000612c1182612be6565b9050919050565b612c2181612c06565b8114612c2c57600080fd5b50565b600081359050612c3e81612c18565b92915050565b6000819050919050565b612c5781612c44565b8114612c6257600080fd5b50565b600081359050612c7481612c4e565b92915050565b600080fd5b600080fd5b600080fd5b60008083601f840112612c9f57612c9e612c7a565b5b8235905067ffffffffffffffff811115612cbc57612cbb612c7f565b5b602083019150836001820283011115612cd857612cd7612c84565b5b9250929050565b60008060008060008060008060c0898b031215612cff57612cfe612bdc565b5b6000612d0d8b828c01612c2f565b9850506020612d1e8b828c01612c2f565b9750506040612d2f8b828c01612c2f565b9650506060612d408b828c01612c65565b955050608089013567ffffffffffffffff811115612d6157612d60612be1565b5b612d6d8b828c01612c89565b945094505060a089013567ffffffffffffffff811115612d9057612d8f612be1565b5b612d9c8b828c01612c89565b92509250509295985092959890939650565b60007fffffffff0000000000000000000000000000000000000000000000000000000082169050919050565b612de381612dae565b8114612dee57600080fd5b50565b600081359050612e0081612dda565b92915050565b600060208284031215612e1c57612e1b612bdc565b5b6000612e2a84828501612df1565b91505092915050565b60008115159050919050565b612e4881612e33565b82525050565b6000602082019050612e636000830184612e3f565b92915050565b600081519050919050565b600082825260208201905092915050565b60005b83811015612ea3578082015181840152602081019050612e88565b83811115612eb2576000848401525b50505050565b6000601f19601f8301169050919050565b6000612ed482612e69565b612ede8185612e74565b9350612eee818560208601612e85565b612ef781612eb8565b840191505092915050565b60006020820190508181036000830152612f1c8184612ec9565b905092915050565b600060208284031215612f3a57612f39612bdc565b5b6000612f4884828501612c65565b91505092915050565b612f5a81612c06565b82525050565b6000602082019050612f756000830184612f51565b92915050565b60008060408385031215612f9257612f91612bdc565b5b6000612fa085828601612c2f565b9250506020612fb185828601612c65565b9150509250929050565b612fc481612c44565b82525050565b6000602082019050612fdf6000830184612fbb565b92915050565b600080600060608486031215612ffe57612ffd612bdc565b5b600061300c86828701612c2f565b935050602061301d86828701612c2f565b925050604061302e86828701612c65565b9150509250925092565b60006020828403121561304e5761304d612bdc565b5b600061305c84828501612c2f565b91505092915050565b600060a08201905061307a6000830188612fbb565b818103602083015261308c8187612ec9565b905061309b6040830186612e3f565b6130a86060830185612e3f565b6130b56080830184612f51565b9695505050505050565b600081519050919050565b600082825260208201905092915050565b6000819050602082019050919050565b6130f481612c44565b82525050565b600061310683836130eb565b60208301905092915050565b6000602082019050919050565b600061312a826130bf565b61313481856130ca565b935061313f836130db565b8060005b8381101561317057815161315788826130fa565b975061316283613112565b925050600181019050613143565b5085935050505092915050565b60006020820190508181036000830152613197818461311f565b905092915050565b6000819050919050565b60006131c46131bf6131ba84612be6565b61319f565b612be6565b9050919050565b60006131d6826131a9565b9050919050565b60006131e8826131cb565b9050919050565b6131f8816131dd565b82525050565b600060208201905061321360008301846131ef565b92915050565b61322281612e33565b811461322d57600080fd5b50565b60008135905061323f81613219565b92915050565b6000806040838503121561325c5761325b612bdc565b5b600061326a85828601612c2f565b925050602061327b85828601613230565b9150509250929050565b600080fd5b7f4e487b7100000000000000000000000000000000000000000000000000000000600052604160045260246000fd5b6132c282612eb8565b810181811067ffffffffffffffff821117156132e1576132e061328a565b5b80604052505050565b60006132f4612bd2565b905061330082826132b9565b919050565b600067ffffffffffffffff8211156133205761331f61328a565b5b61332982612eb8565b9050602081019050919050565b82818337600083830152505050565b600061335861335384613305565b6132ea565b90508281526020810184848401111561337457613373613285565b5b61337f848285613336565b509392505050565b600082601f83011261339c5761339b612c7a565b5b81356133ac848260208601613345565b91505092915050565b600080600080608085870312156133cf576133ce612bdc565b5b60006133dd87828801612c2f565b94505060206133ee87828801612c2f565b93505060406133ff87828801612c65565b925050606085013567ffffffffffffffff8111156134205761341f612be1565b5b61342c87828801613387565b91505092959194509250565b6000806040838503121561344f5761344e612bdc565b5b600061345d85828601612c2f565b925050602061346e85828601612c2f565b9150509250929050565b7f4e487b7100000000000000000000000000000000000000000000000000000000600052601160045260246000fd5b60006134b282612c44565b91506134bd83612c44565b9250827fffffffffffffffffffffffffffffffffffffffffffffffffffffffffffffffff038211156134f2576134f1613478565b5b828201905092915050565b7f4e487b7100000000000000000000000000000000000000000000000000000000600052602260045260246000fd5b6000600282049050600182168061354457607f821691505b602082108103613557576135566134fd565b5b50919050565b7f4552433732313a20617070726f76616c20746f2063757272656e74206f776e6560008201527f7200000000000000000000000000000000000000000000000000000000000000602082015250565b60006135b9602183612e74565b91506135c48261355d565b604082019050919050565b600060208201905081810360008301526135e8816135ac565b9050919050565b7f4552433732313a20617070726f76652063616c6c6572206973206e6f7420746f60008201527f6b656e206f776e6572206f7220617070726f76656420666f7220616c6c000000602082015250565b600061364b603d83612e74565b9150613656826135ef565b604082019050919050565b6000602082019050818103600083015261367a8161363e565b9050919050565b7f4552433732313a2063616c6c6572206973206e6f7420746f6b656e206f776e6560008201527f72206f7220617070726f76656400000000000000000000000000000000000000602082015250565b60006136dd602d83612e74565b91506136e882613681565b604082019050919050565b6000602082019050818103600083015261370c816136d0565b9050919050565b7f4d696e74206c696d697420636f6d706c65746564000000000000000000000000600082015250565b6000613749601483612e74565b915061375482613713565b602082019050919050565b600060208201905081810360008301526137788161373c565b9050919050565b60008151905061378e81612c4e565b92915050565b6000602082840312156137aa576137a9612bdc565b5b60006137b88482850161377f565b91505092915050565b7f496e73756666696369656e7420746f6b656e7300000000000000000000000000600082015250565b60006137f7601383612e74565b9150613802826137c1565b602082019050919050565b60006020820190508181036000830152613826816137ea565b9050919050565b60006040820190506138426000830185612f51565b61384f6020830184612fbb565b9392505050565b60008151905061386581613219565b92915050565b60006020828403121561388157613880612bdc565b5b600061388f84828501613856565b91505092915050565b60008190508160005260206000209050919050565b60006020601f8301049050919050565b600082821b905092915050565b6000600883026138fa7fffffffffffffffffffffffffffffffffffffffffffffffffffffffffffffffff826138bd565b61390486836138bd565b95508019841693508086168417925050509392505050565b600061393761393261392d84612c44565b61319f565b612c44565b9050919050565b6000819050919050565b6139518361391c565b61396561395d8261393e565b8484546138ca565b825550505050565b600090565b61397a61396d565b613985818484613948565b505050565b5b818110156139a95761399e600082613972565b60018101905061398b565b5050565b601f8211156139ee576139bf81613898565b6139c8846138ad565b810160208510156139d7578190505b6139eb6139e3856138ad565b83018261398a565b50505b505050565b600082821c905092915050565b6000613a11600019846008026139f3565b1980831691505092915050565b6000613a2a8383613a00565b9150826002028217905092915050565b613a4382612e69565b67ffffffffffffffff811115613a5c57613a5b61328a565b5b613a66825461352c565b613a718282856139ad565b600060209050601f831160018114613aa45760008415613a92578287015190505b613a9c8582613a1e565b865550613b04565b601f198416613ab286613898565b60005b82811015613ada57848901518255600182019150602085019450602081019050613ab5565b86831015613af75784890151613af3601f891682613a00565b8355505b6001600288020188555050505b505050505050565b7f4552433732313a20696e76616c696420746f6b656e2049440000000000000000600082015250565b6000613b42601883612e74565b9150613b4d82613b0c565b602082019050919050565b60006020820190508181036000830152613b7181613b35565b9050919050565b7f4552433732313a2061646472657373207a65726f206973206e6f74206120766160008201527f6c6964206f776e65720000000000000000000000000000000000000000000000602082015250565b6000613bd4602983612e74565b9150613bdf82613b78565b604082019050919050565b60006020820190508181036000830152613c0381613bc7565b9050919050565b7f4d61726b6574506c616365436f6e74726163743a2063616c6c6572206973206e60008201527f6f7420746865206f776e65720000000000000000000000000000000000000000602082015250565b6000613c66602c83612e74565b9150613c7182613c0a565b604082019050919050565b60006020820190508181036000830152613c9581613c59565b9050919050565b7f546865726520646f6e277420626520746f6b656e730000000000000000000000600082015250565b6000613cd2601583612e74565b9150613cdd82613c9c565b602082019050919050565b60006020820190508181036000830152613d0181613cc5565b9050919050565b600082825260208201905092915050565b50565b6000613d29600083613d08565b9150613d3482613d19565b600082019050919050565b600060a082019050613d546000830186612f51565b613d616020830185612f51565b613d6e6040830184612fbb565b8181036060830152613d7f81613d1c565b90508181036080830152613d9281613d1c565b9050949350505050565b600081905092915050565b6000613db282612e69565b613dbc8185613d9c565b9350613dcc818560208601612e85565b80840191505092915050565b6000613de48285613da7565b9150613df08284613da7565b91508190509392505050565b7f444f45535f4e4f545f484156455f4d494e5445525f524f4c4500000000000000600082015250565b6000613e32601983612e74565b9150613e3d82613dfc565b602082019050919050565b60006020820190508181036000830152613e6181613e25565b9050919050565b7f5468697320746f6b656e20646f65736e277420796f7572000000000000000000600082015250565b6000613e9e601783612e74565b9150613ea982613e68565b602082019050919050565b60006020820190508181036000830152613ecd81613e91565b9050919050565b7f596f75206e65656420746f20646f20636865636b2d696e000000000000000000600082015250565b6000613f0a601783612e74565b9150613f1582613ed4565b602082019050919050565b60006020820190508181036000830152613f3981613efd565b9050919050565b7f596f7520617265206e6f7420746865206f776e6572206f6620746865204e4654600082015250565b6000613f76602083612e74565b9150613f8182613f40565b602082019050919050565b60006020820190508181036000830152613fa581613f69565b9050919050565b7f526f6c65733a206163636f756e7420616c72656164792068617320726f6c6500600082015250565b6000613fe2601f83612e74565b9150613fed82613fac565b602082019050919050565b6000602082019050818103600083015261401181613fd5565b9050919050565b7f4552433732313a207472616e736665722066726f6d20696e636f72726563742060008201527f6f776e6572000000000000000000000000000000000000000000000000000000602082015250565b6000614074602583612e74565b915061407f82614018565b604082019050919050565b600060208201905081810360008301526140a381614067565b9050919050565b7f4552433732313a207472616e7366657220746f20746865207a65726f2061646460008201527f7265737300000000000000000000000000000000000000000000000000000000602082015250565b6000614106602483612e74565b9150614111826140aa565b604082019050919050565b60006020820190508181036000830152614135816140f9565b9050919050565b7f45524337323155524953746f726167653a2055524920736574206f66206e6f6e60008201527f6578697374656e7420746f6b656e000000000000000000000000000000000000602082015250565b6000614198602e83612e74565b91506141a38261413c565b604082019050919050565b600060208201905081810360008301526141c78161418b565b9050919050565b7f4552433732313a20617070726f766520746f2063616c6c657200000000000000600082015250565b6000614204601983612e74565b915061420f826141ce565b602082019050919050565b60006020820190508181036000830152614233816141f7565b9050919050565b7f4552433732313a207472616e7366657220746f206e6f6e20455243373231526560008201527f63656976657220696d706c656d656e7465720000000000000000000000000000602082015250565b6000614296603283612e74565b91506142a18261423a565b604082019050919050565b600060208201905081810360008301526142c581614289565b9050919050565b7f526f6c65733a206163636f756e7420697320746865207a65726f20616464726560008201527f7373000000000000000000000000000000000000000000000000000000000000602082015250565b6000614328602283612e74565b9150614333826142cc565b604082019050919050565b600060208201905081810360008301526143578161431b565b9050919050565b600061436982612c44565b915061437483612c44565b92508282101561438757614386613478565b5b828203905092915050565b600081519050919050565b60006143a882614392565b6143b28185613d08565b93506143c2818560208601612e85565b6143cb81612eb8565b840191505092915050565b60006080820190506143eb6000830187612f51565b6143f86020830186612f51565b6144056040830185612fbb565b8181036060830152614417818461439d565b905095945050505050565b60008151905061443181612dda565b92915050565b60006020828403121561444d5761444c612bdc565b5b600061445b84828501614422565b91505092915050565b7f4e487b7100000000000000000000000000000000000000000000000000000000600052601260045260246000fd5b7f4552433732313a206d696e7420746f20746865207a65726f2061646472657373600082015250565b60006144c9602083612e74565b91506144d482614493565b602082019050919050565b600060208201905081810360008301526144f8816144bc565b9050919050565b7f4552433732313a20746f6b656e20616c7265616479206d696e74656400000000600082015250565b6000614535601c83612e74565b9150614540826144ff565b602082019050919050565b6000602082019050818103600083015261456481614528565b905091905056fea26469706673582212202c17bc05f212c7b119dc84fb5c85280f8dd1f2adba0afaa48afe4e9061c41bb364736f6c634300080f0033",
  "linkReferences": {},
  "deployedLinkReferences": {}
}