{
  "_format": "hh-sol-artifact-1",
  "contractName": "RoyaltiesContract",
  "sourceName": "src/blockchain/hardhat/contracts/RoyaltiesContract.sol",
  "abi": [
    {
      "inputs": [
        {
          "internalType": "address",
          "name": "_artist",
          "type": "address"
        },
        {
          "internalType": "address",
          "name": "_erc777Address",
          "type": "address"
        },
        {
          "internalType": "uint256",
          "name": "_txFeeAmount",
          "type": "uint256"
        }
      ],
      "stateMutability": "nonpayable",
      "type": "constructor"
    },
    {
      "anonymous": false,
      "inputs": [
        {
          "indexed": true,
          "internalType": "address",
          "name": "owner",
          "type": "address"
        },
        {
          "indexed": true,
          "internalType": "address",
          "name": "approved",
          "type": "address"
        },
        {
          "indexed": true,
          "internalType": "uint256",
          "name": "tokenId",
          "type": "uint256"
        }
      ],
      "name": "Approval",
      "type": "event"
    },
    {
      "anonymous": false,
      "inputs": [
        {
          "indexed": true,
          "internalType": "address",
          "name": "owner",
          "type": "address"
        },
        {
          "indexed": true,
          "internalType": "address",
          "name": "operator",
          "type": "address"
        },
        {
          "indexed": false,
          "internalType": "bool",
          "name": "approved",
          "type": "bool"
        }
      ],
      "name": "ApprovalForAll",
      "type": "event"
    },
    {
      "anonymous": false,
      "inputs": [
        {
          "indexed": true,
          "internalType": "address",
          "name": "from",
          "type": "address"
        },
        {
          "indexed": true,
          "internalType": "address",
          "name": "to",
          "type": "address"
        },
        {
          "indexed": true,
          "internalType": "uint256",
          "name": "tokenId",
          "type": "uint256"
        }
      ],
      "name": "Transfer",
      "type": "event"
    },
    {
      "inputs": [
        {
          "internalType": "address",
          "name": "to",
          "type": "address"
        },
        {
          "internalType": "uint256",
          "name": "tokenId",
          "type": "uint256"
        }
      ],
      "name": "approve",
      "outputs": [],
      "stateMutability": "nonpayable",
      "type": "function"
    },
    {
      "inputs": [],
      "name": "artist",
      "outputs": [
        {
          "internalType": "address",
          "name": "",
          "type": "address"
        }
      ],
      "stateMutability": "view",
      "type": "function"
    },
    {
      "inputs": [
        {
          "internalType": "address",
          "name": "owner",
          "type": "address"
        }
      ],
      "name": "balanceOf",
      "outputs": [
        {
          "internalType": "uint256",
          "name": "",
          "type": "uint256"
        }
      ],
      "stateMutability": "view",
      "type": "function"
    },
    {
      "inputs": [],
      "name": "erc777",
      "outputs": [
        {
          "internalType": "contract ERC777",
          "name": "",
          "type": "address"
        }
      ],
      "stateMutability": "view",
      "type": "function"
    },
    {
      "inputs": [
        {
          "internalType": "address",
          "name": "",
          "type": "address"
        }
      ],
      "name": "excludedList",
      "outputs": [
        {
          "internalType": "bool",
          "name": "",
          "type": "bool"
        }
      ],
      "stateMutability": "view",
      "type": "function"
    },
    {
      "inputs": [
        {
          "internalType": "uint256",
          "name": "tokenId",
          "type": "uint256"
        }
      ],
      "name": "getApproved",
      "outputs": [
        {
          "internalType": "address",
          "name": "",
          "type": "address"
        }
      ],
      "stateMutability": "view",
      "type": "function"
    },
    {
      "inputs": [
        {
          "internalType": "address",
          "name": "owner",
          "type": "address"
        },
        {
          "internalType": "address",
          "name": "operator",
          "type": "address"
        }
      ],
      "name": "isApprovedForAll",
      "outputs": [
        {
          "internalType": "bool",
          "name": "",
          "type": "bool"
        }
      ],
      "stateMutability": "view",
      "type": "function"
    },
    {
      "inputs": [],
      "name": "name",
      "outputs": [
        {
          "internalType": "string",
          "name": "",
          "type": "string"
        }
      ],
      "stateMutability": "view",
      "type": "function"
    },
    {
      "inputs": [
        {
          "internalType": "uint256",
          "name": "tokenId",
          "type": "uint256"
        }
      ],
      "name": "ownerOf",
      "outputs": [
        {
          "internalType": "address",
          "name": "",
          "type": "address"
        }
      ],
      "stateMutability": "view",
      "type": "function"
    },
    {
      "inputs": [
        {
          "internalType": "address",
          "name": "from",
          "type": "address"
        },
        {
          "internalType": "address",
          "name": "to",
          "type": "address"
        },
        {
          "internalType": "uint256",
          "name": "tokenId",
          "type": "uint256"
        }
      ],
      "name": "safeTransferFrom",
      "outputs": [],
      "stateMutability": "nonpayable",
      "type": "function"
    },
    {
      "inputs": [
        {
          "internalType": "address",
          "name": "from",
          "type": "address"
        },
        {
          "internalType": "address",
          "name": "to",
          "type": "address"
        },
        {
          "internalType": "uint256",
          "name": "tokenId",
          "type": "uint256"
        },
        {
          "internalType": "bytes",
          "name": "_data",
          "type": "bytes"
        }
      ],
      "name": "safeTransferFrom",
      "outputs": [],
      "stateMutability": "nonpayable",
      "type": "function"
    },
    {
      "inputs": [
        {
          "internalType": "address",
          "name": "operator",
          "type": "address"
        },
        {
          "internalType": "bool",
          "name": "approved",
          "type": "bool"
        }
      ],
      "name": "setApprovalForAll",
      "outputs": [],
      "stateMutability": "nonpayable",
      "type": "function"
    },
    {
      "inputs": [
        {
          "internalType": "address",
          "name": "excluded",
          "type": "address"
        },
        {
          "internalType": "bool",
          "name": "status",
          "type": "bool"
        }
      ],
      "name": "setExcluded",
      "outputs": [],
      "stateMutability": "nonpayable",
      "type": "function"
    },
    {
      "inputs": [
        {
          "internalType": "bytes4",
          "name": "interfaceId",
          "type": "bytes4"
        }
      ],
      "name": "supportsInterface",
      "outputs": [
        {
          "internalType": "bool",
          "name": "",
          "type": "bool"
        }
      ],
      "stateMutability": "view",
      "type": "function"
    },
    {
      "inputs": [],
      "name": "symbol",
      "outputs": [
        {
          "internalType": "string",
          "name": "",
          "type": "string"
        }
      ],
      "stateMutability": "view",
      "type": "function"
    },
    {
      "inputs": [
        {
          "internalType": "uint256",
          "name": "tokenId",
          "type": "uint256"
        }
      ],
      "name": "tokenURI",
      "outputs": [
        {
          "internalType": "string",
          "name": "",
          "type": "string"
        }
      ],
      "stateMutability": "view",
      "type": "function"
    },
    {
      "inputs": [
        {
          "internalType": "address",
          "name": "_operator",
          "type": "address"
        },
        {
          "internalType": "address",
          "name": "_from",
          "type": "address"
        },
        {
          "internalType": "address",
          "name": "_to",
          "type": "address"
        },
        {
          "internalType": "uint256",
          "name": "_amount",
          "type": "uint256"
        },
        {
          "internalType": "bytes",
          "name": "_userData",
          "type": "bytes"
        },
        {
          "internalType": "bytes",
          "name": "_operatorData",
          "type": "bytes"
        }
      ],
      "name": "tokensReceived",
      "outputs": [],
      "stateMutability": "nonpayable",
      "type": "function"
    },
    {
      "inputs": [
        {
          "internalType": "address",
          "name": "from",
          "type": "address"
        },
        {
          "internalType": "address",
          "name": "to",
          "type": "address"
        },
        {
          "internalType": "uint256",
          "name": "tokenId",
          "type": "uint256"
        }
      ],
      "name": "transferFrom",
      "outputs": [],
      "stateMutability": "nonpayable",
      "type": "function"
    },
    {
      "inputs": [],
      "name": "txFeeAmount",
      "outputs": [
        {
          "internalType": "uint256",
          "name": "",
          "type": "uint256"
        }
      ],
      "stateMutability": "view",
      "type": "function"
    },
    {
      "inputs": [],
      "name": "txFeeToken",
      "outputs": [
        {
          "internalType": "address",
          "name": "",
          "type": "address"
        }
      ],
      "stateMutability": "view",
      "type": "function"
    }
  ],
  "bytecode": "0x60e06040523480156200001157600080fd5b50604051620038f2380380620038f283398181016040528101906200003791906200059d565b6040518060400160405280600981526020017f526f79616c7469657300000000000000000000000000000000000000000000008152506040518060400160405280600481526020017f52595453000000000000000000000000000000000000000000000000000000008152508160009081620000b4919062000869565b508060019081620000c6919062000869565b505050731820a4b7618bde71dce8cdc73aab6c95905fad2473ffffffffffffffffffffffffffffffffffffffff166329965a1d307fb281fc8c12954d22544db45de3159a39272895b169a852b314f9cc762e44c53b306040518463ffffffff1660e01b81526004016200013c939291906200097c565b600060405180830381600087803b1580156200015757600080fd5b505af11580156200016c573d6000803e3d6000fd5b505050508173ffffffffffffffffffffffffffffffffffffffff1660808173ffffffffffffffffffffffffffffffffffffffff16815250508173ffffffffffffffffffffffffffffffffffffffff1660a08173ffffffffffffffffffffffffffffffffffffffff16815250508273ffffffffffffffffffffffffffffffffffffffff1660c08173ffffffffffffffffffffffffffffffffffffffff1681525050806006819055506001600760008573ffffffffffffffffffffffffffffffffffffffff1673ffffffffffffffffffffffffffffffffffffffff16815260200190815260200160002060006101000a81548160ff0219169083151502179055506200028060c05160006200028960201b60201c565b50505062000b3a565b600073ffffffffffffffffffffffffffffffffffffffff168273ffffffffffffffffffffffffffffffffffffffff1603620002fb576040517f08c379a0000000000000000000000000000000000000000000000000000000008152600401620002f29062000a1a565b60405180910390fd5b6200030c816200048260201b60201c565b156200034f576040517f08c379a0000000000000000000000000000000000000000000000000000000008152600401620003469062000a8c565b60405180910390fd5b6200036360008383620004ee60201b60201c565b6001600360008473ffffffffffffffffffffffffffffffffffffffff1673ffffffffffffffffffffffffffffffffffffffff1681526020019081526020016000206000828254620003b5919062000add565b92505081905550816002600083815260200190815260200160002060006101000a81548173ffffffffffffffffffffffffffffffffffffffff021916908373ffffffffffffffffffffffffffffffffffffffff160217905550808273ffffffffffffffffffffffffffffffffffffffff16600073ffffffffffffffffffffffffffffffffffffffff167fddf252ad1be2c89b69c2b068fc378daa952ba7f163c4a11628f55a4df523b3ef60405160405180910390a46200047e60008383620004f360201b60201c565b5050565b60008073ffffffffffffffffffffffffffffffffffffffff166002600084815260200190815260200160002060009054906101000a900473ffffffffffffffffffffffffffffffffffffffff1673ffffffffffffffffffffffffffffffffffffffff1614159050919050565b505050565b505050565b600080fd5b600073ffffffffffffffffffffffffffffffffffffffff82169050919050565b60006200052a82620004fd565b9050919050565b6200053c816200051d565b81146200054857600080fd5b50565b6000815190506200055c8162000531565b92915050565b6000819050919050565b620005778162000562565b81146200058357600080fd5b50565b60008151905062000597816200056c565b92915050565b600080600060608486031215620005b957620005b8620004f8565b5b6000620005c9868287016200054b565b9350506020620005dc868287016200054b565b9250506040620005ef8682870162000586565b9150509250925092565b600081519050919050565b7f4e487b7100000000000000000000000000000000000000000000000000000000600052604160045260246000fd5b7f4e487b7100000000000000000000000000000000000000000000000000000000600052602260045260246000fd5b600060028204905060018216806200067b57607f821691505b60208210810362000691576200069062000633565b5b50919050565b60008190508160005260206000209050919050565b60006020601f8301049050919050565b600082821b905092915050565b600060088302620006fb7fffffffffffffffffffffffffffffffffffffffffffffffffffffffffffffffff82620006bc565b620007078683620006bc565b95508019841693508086168417925050509392505050565b6000819050919050565b60006200074a620007446200073e8462000562565b6200071f565b62000562565b9050919050565b6000819050919050565b620007668362000729565b6200077e620007758262000751565b848454620006c9565b825550505050565b600090565b6200079562000786565b620007a28184846200075b565b505050565b5b81811015620007ca57620007be6000826200078b565b600181019050620007a8565b5050565b601f8211156200081957620007e38162000697565b620007ee84620006ac565b81016020851015620007fe578190505b620008166200080d85620006ac565b830182620007a7565b50505b505050565b600082821c905092915050565b60006200083e600019846008026200081e565b1980831691505092915050565b60006200085983836200082b565b9150826002028217905092915050565b6200087482620005f9565b67ffffffffffffffff81111562000890576200088f62000604565b5b6200089c825462000662565b620008a9828285620007ce565b600060209050601f831160018114620008e15760008415620008cc578287015190505b620008d885826200084b565b86555062000948565b601f198416620008f18662000697565b60005b828110156200091b57848901518255600182019150602085019450602081019050620008f4565b868310156200093b578489015162000937601f8916826200082b565b8355505b6001600288020188555050505b505050505050565b6200095b816200051d565b82525050565b6000819050919050565b620009768162000961565b82525050565b600060608201905062000993600083018662000950565b620009a260208301856200096b565b620009b1604083018462000950565b949350505050565b600082825260208201905092915050565b7f4552433732313a206d696e7420746f20746865207a65726f2061646472657373600082015250565b600062000a02602083620009b9565b915062000a0f82620009ca565b602082019050919050565b6000602082019050818103600083015262000a3581620009f3565b9050919050565b7f4552433732313a20746f6b656e20616c7265616479206d696e74656400000000600082015250565b600062000a74601c83620009b9565b915062000a818262000a3c565b602082019050919050565b6000602082019050818103600083015262000aa78162000a65565b9050919050565b7f4e487b7100000000000000000000000000000000000000000000000000000000600052601160045260246000fd5b600062000aea8262000562565b915062000af78362000562565b9250827fffffffffffffffffffffffffffffffffffffffffffffffffffffffffffffffff0382111562000b2f5762000b2e62000aae565b5b828201905092915050565b60805160a05160c051612d6562000b8d600039600081816107970152818161090201526111e6015260008181610aae01528181610f72015261104c015260008181610b6a01526111a90152612d656000f3fe608060405234801561001057600080fd5b506004361061012b5760003560e01c80636352211e116100ad5780639e8e4d1d116100715780639e8e4d1d14610342578063a22cb46514610360578063b88d4fde1461037c578063c87b56dd14610398578063e985e9c5146103c85761012b565b80636352211e1461028857806370a08231146102b857806377c567a7146102e85780638fbceaad1461030657806395d89b41146103245761012b565b806323b872dd116100f457806323b872dd146101e65780632836be241461020257806342842e0e1461021e57806343bc16121461023a5780635600d2fa146102585761012b565b806223de291461013057806301ffc9a71461014c57806306fdde031461017c578063081812fc1461019a578063095ea7b3146101ca575b600080fd5b61014a60048036038101906101459190611bf2565b6103f8565b005b61016660048036038101906101619190611d19565b610402565b6040516101739190611d61565b60405180910390f35b6101846104e4565b6040516101919190611e15565b60405180910390f35b6101b460048036038101906101af9190611e37565b610576565b6040516101c19190611e73565b60405180910390f35b6101e460048036038101906101df9190611e8e565b6105bc565b005b61020060048036038101906101fb9190611ece565b6106d3565b005b61021c60048036038101906102179190611f4d565b610795565b005b61023860048036038101906102339190611ece565b61087e565b005b610242610900565b60405161024f9190611e73565b60405180910390f35b610272600480360381019061026d9190611f8d565b610924565b60405161027f9190611d61565b60405180910390f35b6102a2600480360381019061029d9190611e37565b610944565b6040516102af9190611e73565b60405180910390f35b6102d260048036038101906102cd9190611f8d565b6109f5565b6040516102df9190611fc9565b60405180910390f35b6102f0610aac565b6040516102fd9190611e73565b60405180910390f35b61030e610ad0565b60405161031b9190611fc9565b60405180910390f35b61032c610ad6565b6040516103399190611e15565b60405180910390f35b61034a610b68565b6040516103579190612043565b60405180910390f35b61037a60048036038101906103759190611f4d565b610b8c565b005b6103966004803603810190610391919061218e565b610ba2565b005b6103b260048036038101906103ad9190611e37565b610c66565b6040516103bf9190611e15565b60405180910390f35b6103e260048036038101906103dd9190612211565b610cce565b6040516103ef9190611d61565b60405180910390f35b5050505050505050565b60007f80ac58cd000000000000000000000000000000000000000000000000000000007bffffffffffffffffffffffffffffffffffffffffffffffffffffffff1916827bffffffffffffffffffffffffffffffffffffffffffffffffffffffff191614806104cd57507f5b5e139f000000000000000000000000000000000000000000000000000000007bffffffffffffffffffffffffffffffffffffffffffffffffffffffff1916827bffffffffffffffffffffffffffffffffffffffffffffffffffffffff1916145b806104dd57506104dc82610d62565b5b9050919050565b6060600080546104f390612280565b80601f016020809104026020016040519081016040528092919081815260200182805461051f90612280565b801561056c5780601f106105415761010080835404028352916020019161056c565b820191906000526020600020905b81548152906001019060200180831161054f57829003601f168201915b5050505050905090565b600061058182610dcc565b6004600083815260200190815260200160002060009054906101000a900473ffffffffffffffffffffffffffffffffffffffff169050919050565b60006105c782610944565b90508073ffffffffffffffffffffffffffffffffffffffff168373ffffffffffffffffffffffffffffffffffffffff1603610637576040517f08c379a000000000000000000000000000000000000000000000000000000000815260040161062e90612323565b60405180910390fd5b8073ffffffffffffffffffffffffffffffffffffffff16610656610e17565b73ffffffffffffffffffffffffffffffffffffffff16148061068557506106848161067f610e17565b610cce565b5b6106c4576040517f08c379a00000000000000000000000000000000000000000000000000000000081526004016106bb906123b5565b60405180910390fd5b6106ce8383610e1f565b505050565b6106e46106de610e17565b82610ed8565b610723576040517f08c379a000000000000000000000000000000000000000000000000000000000815260040161071a90612447565b60405180910390fd5b60001515600760008573ffffffffffffffffffffffffffffffffffffffff1673ffffffffffffffffffffffffffffffffffffffff16815260200190815260200160002060009054906101000a900460ff161515036107855761078483610f6d565b5b61079083838361125b565b505050565b7f000000000000000000000000000000000000000000000000000000000000000073ffffffffffffffffffffffffffffffffffffffff163373ffffffffffffffffffffffffffffffffffffffff1614610823576040517f08c379a000000000000000000000000000000000000000000000000000000000815260040161081a906124b3565b60405180910390fd5b80600760008473ffffffffffffffffffffffffffffffffffffffff1673ffffffffffffffffffffffffffffffffffffffff16815260200190815260200160002060006101000a81548160ff0219169083151502179055505050565b60001515600760008573ffffffffffffffffffffffffffffffffffffffff1673ffffffffffffffffffffffffffffffffffffffff16815260200190815260200160002060009054906101000a900460ff161515036108e0576108df83610f6d565b5b6108fb83838360405180602001604052806000815250610ba2565b505050565b7f000000000000000000000000000000000000000000000000000000000000000081565b60076020528060005260406000206000915054906101000a900460ff1681565b6000806002600084815260200190815260200160002060009054906101000a900473ffffffffffffffffffffffffffffffffffffffff169050600073ffffffffffffffffffffffffffffffffffffffff168173ffffffffffffffffffffffffffffffffffffffff16036109ec576040517f08c379a00000000000000000000000000000000000000000000000000000000081526004016109e39061251f565b60405180910390fd5b80915050919050565b60008073ffffffffffffffffffffffffffffffffffffffff168273ffffffffffffffffffffffffffffffffffffffff1603610a65576040517f08c379a0000000000000000000000000000000000000000000000000000000008152600401610a5c906125b1565b60405180910390fd5b600360008373ffffffffffffffffffffffffffffffffffffffff1673ffffffffffffffffffffffffffffffffffffffff168152602001908152602001600020549050919050565b7f000000000000000000000000000000000000000000000000000000000000000081565b60065481565b606060018054610ae590612280565b80601f0160208091040260200160405190810160405280929190818152602001828054610b1190612280565b8015610b5e5780601f10610b3357610100808354040283529160200191610b5e565b820191906000526020600020905b815481529060010190602001808311610b4157829003601f168201915b5050505050905090565b7f000000000000000000000000000000000000000000000000000000000000000081565b610b9e610b97610e17565b83836114c1565b5050565b610bb3610bad610e17565b83610ed8565b610bf2576040517f08c379a0000000000000000000000000000000000000000000000000000000008152600401610be990612447565b60405180910390fd5b60001515600760008673ffffffffffffffffffffffffffffffffffffffff1673ffffffffffffffffffffffffffffffffffffffff16815260200190815260200160002060009054906101000a900460ff16151503610c5457610c5384610f6d565b5b610c608484848461162d565b50505050565b6060610c7182610dcc565b6000610c7b611689565b90506000815111610c9b5760405180602001604052806000815250610cc6565b80610ca5846116a0565b604051602001610cb692919061260d565b6040516020818303038152906040525b915050919050565b6000600560008473ffffffffffffffffffffffffffffffffffffffff1673ffffffffffffffffffffffffffffffffffffffff16815260200190815260200160002060008373ffffffffffffffffffffffffffffffffffffffff1673ffffffffffffffffffffffffffffffffffffffff16815260200190815260200160002060009054906101000a900460ff16905092915050565b60007f01ffc9a7000000000000000000000000000000000000000000000000000000007bffffffffffffffffffffffffffffffffffffffffffffffffffffffff1916827bffffffffffffffffffffffffffffffffffffffffffffffffffffffff1916149050919050565b610dd581611800565b610e14576040517f08c379a0000000000000000000000000000000000000000000000000000000008152600401610e0b9061251f565b60405180910390fd5b50565b600033905090565b816004600083815260200190815260200160002060006101000a81548173ffffffffffffffffffffffffffffffffffffffff021916908373ffffffffffffffffffffffffffffffffffffffff160217905550808273ffffffffffffffffffffffffffffffffffffffff16610e9283610944565b73ffffffffffffffffffffffffffffffffffffffff167f8c5be1e5ebec7d5bd14f71427d1e84f3dd0314c0f7b2291e5b200ac8c7c3b92560405160405180910390a45050565b600080610ee483610944565b90508073ffffffffffffffffffffffffffffffffffffffff168473ffffffffffffffffffffffffffffffffffffffff161480610f265750610f258185610cce565b5b80610f6457508373ffffffffffffffffffffffffffffffffffffffff16610f4c84610576565b73ffffffffffffffffffffffffffffffffffffffff16145b91505092915050565b6006547f000000000000000000000000000000000000000000000000000000000000000073ffffffffffffffffffffffffffffffffffffffff1663f38e266a836040518263ffffffff1660e01b8152600401610fc99190611e73565b602060405180830381865afa158015610fe6573d6000803e3d6000fd5b505050506040513d601f19601f8201168201806040525081019061100a9190612646565b1161104a576040517f08c379a0000000000000000000000000000000000000000000000000000000008152600401611041906126bf565b60405180910390fd5b7f000000000000000000000000000000000000000000000000000000000000000073ffffffffffffffffffffffffffffffffffffffff166325e8e00c826006546040518363ffffffff1660e01b81526004016110a79291906126df565b6020604051808303816000875af11580156110c6573d6000803e3d6000fd5b505050506040513d601f19601f820116820180604052508101906110ea919061271d565b611129576040517f08c379a000000000000000000000000000000000000000000000000000000000815260040161112090612796565b60405180910390fd5b6111686040518060400160405280600681526020017f66726f6d3a2000000000000000000000000000000000000000000000000000008152508261186c565b6111a76040518060400160405280600581526020017f6d73673a200000000000000000000000000000000000000000000000000000008152503361186c565b7f000000000000000000000000000000000000000000000000000000000000000073ffffffffffffffffffffffffffffffffffffffff166362ad1b83827f00000000000000000000000000000000000000000000000000000000000000006006546040518463ffffffff1660e01b8152600401611226939291906127ed565b600060405180830381600087803b15801561124057600080fd5b505af1158015611254573d6000803e3d6000fd5b5050505050565b8273ffffffffffffffffffffffffffffffffffffffff1661127b82610944565b73ffffffffffffffffffffffffffffffffffffffff16146112d1576040517f08c379a00000000000000000000000000000000000000000000000000000000081526004016112c8906128bc565b60405180910390fd5b600073ffffffffffffffffffffffffffffffffffffffff168273ffffffffffffffffffffffffffffffffffffffff1603611340576040517f08c379a00000000000000000000000000000000000000000000000000000000081526004016113379061294e565b60405180910390fd5b61134b838383611908565b611356600082610e1f565b6001600360008573ffffffffffffffffffffffffffffffffffffffff1673ffffffffffffffffffffffffffffffffffffffff16815260200190815260200160002060008282546113a6919061299d565b925050819055506001600360008473ffffffffffffffffffffffffffffffffffffffff1673ffffffffffffffffffffffffffffffffffffffff16815260200190815260200160002060008282546113fd91906129d1565b92505081905550816002600083815260200190815260200160002060006101000a81548173ffffffffffffffffffffffffffffffffffffffff021916908373ffffffffffffffffffffffffffffffffffffffff160217905550808273ffffffffffffffffffffffffffffffffffffffff168473ffffffffffffffffffffffffffffffffffffffff167fddf252ad1be2c89b69c2b068fc378daa952ba7f163c4a11628f55a4df523b3ef60405160405180910390a46114bc83838361190d565b505050565b8173ffffffffffffffffffffffffffffffffffffffff168373ffffffffffffffffffffffffffffffffffffffff160361152f576040517f08c379a000000000000000000000000000000000000000000000000000000000815260040161152690612a73565b60405180910390fd5b80600560008573ffffffffffffffffffffffffffffffffffffffff1673ffffffffffffffffffffffffffffffffffffffff16815260200190815260200160002060008473ffffffffffffffffffffffffffffffffffffffff1673ffffffffffffffffffffffffffffffffffffffff16815260200190815260200160002060006101000a81548160ff0219169083151502179055508173ffffffffffffffffffffffffffffffffffffffff168373ffffffffffffffffffffffffffffffffffffffff167f17307eab39ab6107e8899845ad3d59bd9653f200f220920489ca2b5937696c31836040516116209190611d61565b60405180910390a3505050565b61163884848461125b565b61164484848484611912565b611683576040517f08c379a000000000000000000000000000000000000000000000000000000000815260040161167a90612b05565b60405180910390fd5b50505050565b606060405180602001604052806000815250905090565b6060600082036116e7576040518060400160405280600181526020017f300000000000000000000000000000000000000000000000000000000000000081525090506117fb565b600082905060005b6000821461171957808061170290612b25565b915050600a826117129190612b9c565b91506116ef565b60008167ffffffffffffffff81111561173557611734612063565b5b6040519080825280601f01601f1916602001820160405280156117675781602001600182028036833780820191505090505b5090505b600085146117f457600182611780919061299d565b9150600a8561178f9190612bcd565b603061179b91906129d1565b60f81b8183815181106117b1576117b0612bfe565b5b60200101907effffffffffffffffffffffffffffffffffffffffffffffffffffffffffffff1916908160001a905350600a856117ed9190612b9c565b945061176b565b8093505050505b919050565b60008073ffffffffffffffffffffffffffffffffffffffff166002600084815260200190815260200160002060009054906101000a900473ffffffffffffffffffffffffffffffffffffffff1673ffffffffffffffffffffffffffffffffffffffff1614159050919050565b6119048282604051602401611882929190612c2d565b6040516020818303038152906040527f319af333000000000000000000000000000000000000000000000000000000007bffffffffffffffffffffffffffffffffffffffffffffffffffffffff19166020820180517bffffffffffffffffffffffffffffffffffffffffffffffffffffffff8381831617835250505050611a99565b5050565b505050565b505050565b60006119338473ffffffffffffffffffffffffffffffffffffffff16611ac2565b15611a8c578373ffffffffffffffffffffffffffffffffffffffff1663150b7a0261195c610e17565b8786866040518563ffffffff1660e01b815260040161197e9493929190612ca1565b6020604051808303816000875af19250505080156119ba57506040513d601f19601f820116820180604052508101906119b79190612d02565b60015b611a3c573d80600081146119ea576040519150601f19603f3d011682016040523d82523d6000602084013e6119ef565b606091505b506000815103611a34576040517f08c379a0000000000000000000000000000000000000000000000000000000008152600401611a2b90612b05565b60405180910390fd5b805181602001fd5b63150b7a0260e01b7bffffffffffffffffffffffffffffffffffffffffffffffffffffffff1916817bffffffffffffffffffffffffffffffffffffffffffffffffffffffff191614915050611a91565b600190505b949350505050565b60008151905060006a636f6e736f6c652e6c6f679050602083016000808483855afa5050505050565b6000808273ffffffffffffffffffffffffffffffffffffffff163b119050919050565b6000604051905090565b600080fd5b600080fd5b600073ffffffffffffffffffffffffffffffffffffffff82169050919050565b6000611b2482611af9565b9050919050565b611b3481611b19565b8114611b3f57600080fd5b50565b600081359050611b5181611b2b565b92915050565b6000819050919050565b611b6a81611b57565b8114611b7557600080fd5b50565b600081359050611b8781611b61565b92915050565b600080fd5b600080fd5b600080fd5b60008083601f840112611bb257611bb1611b8d565b5b8235905067ffffffffffffffff811115611bcf57611bce611b92565b5b602083019150836001820283011115611beb57611bea611b97565b5b9250929050565b60008060008060008060008060c0898b031215611c1257611c11611aef565b5b6000611c208b828c01611b42565b9850506020611c318b828c01611b42565b9750506040611c428b828c01611b42565b9650506060611c538b828c01611b78565b955050608089013567ffffffffffffffff811115611c7457611c73611af4565b5b611c808b828c01611b9c565b945094505060a089013567ffffffffffffffff811115611ca357611ca2611af4565b5b611caf8b828c01611b9c565b92509250509295985092959890939650565b60007fffffffff0000000000000000000000000000000000000000000000000000000082169050919050565b611cf681611cc1565b8114611d0157600080fd5b50565b600081359050611d1381611ced565b92915050565b600060208284031215611d2f57611d2e611aef565b5b6000611d3d84828501611d04565b91505092915050565b60008115159050919050565b611d5b81611d46565b82525050565b6000602082019050611d766000830184611d52565b92915050565b600081519050919050565b600082825260208201905092915050565b60005b83811015611db6578082015181840152602081019050611d9b565b83811115611dc5576000848401525b50505050565b6000601f19601f8301169050919050565b6000611de782611d7c565b611df18185611d87565b9350611e01818560208601611d98565b611e0a81611dcb565b840191505092915050565b60006020820190508181036000830152611e2f8184611ddc565b905092915050565b600060208284031215611e4d57611e4c611aef565b5b6000611e5b84828501611b78565b91505092915050565b611e6d81611b19565b82525050565b6000602082019050611e886000830184611e64565b92915050565b60008060408385031215611ea557611ea4611aef565b5b6000611eb385828601611b42565b9250506020611ec485828601611b78565b9150509250929050565b600080600060608486031215611ee757611ee6611aef565b5b6000611ef586828701611b42565b9350506020611f0686828701611b42565b9250506040611f1786828701611b78565b9150509250925092565b611f2a81611d46565b8114611f3557600080fd5b50565b600081359050611f4781611f21565b92915050565b60008060408385031215611f6457611f63611aef565b5b6000611f7285828601611b42565b9250506020611f8385828601611f38565b9150509250929050565b600060208284031215611fa357611fa2611aef565b5b6000611fb184828501611b42565b91505092915050565b611fc381611b57565b82525050565b6000602082019050611fde6000830184611fba565b92915050565b6000819050919050565b6000612009612004611fff84611af9565b611fe4565b611af9565b9050919050565b600061201b82611fee565b9050919050565b600061202d82612010565b9050919050565b61203d81612022565b82525050565b60006020820190506120586000830184612034565b92915050565b600080fd5b7f4e487b7100000000000000000000000000000000000000000000000000000000600052604160045260246000fd5b61209b82611dcb565b810181811067ffffffffffffffff821117156120ba576120b9612063565b5b80604052505050565b60006120cd611ae5565b90506120d98282612092565b919050565b600067ffffffffffffffff8211156120f9576120f8612063565b5b61210282611dcb565b9050602081019050919050565b82818337600083830152505050565b600061213161212c846120de565b6120c3565b90508281526020810184848401111561214d5761214c61205e565b5b61215884828561210f565b509392505050565b600082601f83011261217557612174611b8d565b5b813561218584826020860161211e565b91505092915050565b600080600080608085870312156121a8576121a7611aef565b5b60006121b687828801611b42565b94505060206121c787828801611b42565b93505060406121d887828801611b78565b925050606085013567ffffffffffffffff8111156121f9576121f8611af4565b5b61220587828801612160565b91505092959194509250565b6000806040838503121561222857612227611aef565b5b600061223685828601611b42565b925050602061224785828601611b42565b9150509250929050565b7f4e487b7100000000000000000000000000000000000000000000000000000000600052602260045260246000fd5b6000600282049050600182168061229857607f821691505b6020821081036122ab576122aa612251565b5b50919050565b7f4552433732313a20617070726f76616c20746f2063757272656e74206f776e6560008201527f7200000000000000000000000000000000000000000000000000000000000000602082015250565b600061230d602183611d87565b9150612318826122b1565b604082019050919050565b6000602082019050818103600083015261233c81612300565b9050919050565b7f4552433732313a20617070726f76652063616c6c6572206973206e6f7420746f60008201527f6b656e206f776e6572206e6f7220617070726f76656420666f7220616c6c0000602082015250565b600061239f603e83611d87565b91506123aa82612343565b604082019050919050565b600060208201905081810360008301526123ce81612392565b9050919050565b7f4552433732313a207472616e736665722063616c6c6572206973206e6f74206f60008201527f776e6572206e6f7220617070726f766564000000000000000000000000000000602082015250565b6000612431603183611d87565b915061243c826123d5565b604082019050919050565b6000602082019050818103600083015261246081612424565b9050919050565b7f617274697374206f6e6c79000000000000000000000000000000000000000000600082015250565b600061249d600b83611d87565b91506124a882612467565b602082019050919050565b600060208201905081810360008301526124cc81612490565b9050919050565b7f4552433732313a20696e76616c696420746f6b656e2049440000000000000000600082015250565b6000612509601883611d87565b9150612514826124d3565b602082019050919050565b60006020820190508181036000830152612538816124fc565b9050919050565b7f4552433732313a2061646472657373207a65726f206973206e6f74206120766160008201527f6c6964206f776e65720000000000000000000000000000000000000000000000602082015250565b600061259b602983611d87565b91506125a68261253f565b604082019050919050565b600060208201905081810360008301526125ca8161258e565b9050919050565b600081905092915050565b60006125e782611d7c565b6125f181856125d1565b9350612601818560208601611d98565b80840191505092915050565b600061261982856125dc565b915061262582846125dc565b91508190509392505050565b60008151905061264081611b61565b92915050565b60006020828403121561265c5761265b611aef565b5b600061266a84828501612631565b91505092915050565b7f496e73756666696369656e7420746f6b656e7300000000000000000000000000600082015250565b60006126a9601383611d87565b91506126b482612673565b602082019050919050565b600060208201905081810360008301526126d88161269c565b9050919050565b60006040820190506126f46000830185611e64565b6127016020830184611fba565b9392505050565b60008151905061271781611f21565b92915050565b60006020828403121561273357612732611aef565b5b600061274184828501612708565b91505092915050565b7f596f75722066756e64732061726520696e73756666696369656e747300000000600082015250565b6000612780601c83611d87565b915061278b8261274a565b602082019050919050565b600060208201905081810360008301526127af81612773565b9050919050565b600082825260208201905092915050565b50565b60006127d76000836127b6565b91506127e2826127c7565b600082019050919050565b600060a0820190506128026000830186611e64565b61280f6020830185611e64565b61281c6040830184611fba565b818103606083015261282d816127ca565b90508181036080830152612840816127ca565b9050949350505050565b7f4552433732313a207472616e736665722066726f6d20696e636f72726563742060008201527f6f776e6572000000000000000000000000000000000000000000000000000000602082015250565b60006128a6602583611d87565b91506128b18261284a565b604082019050919050565b600060208201905081810360008301526128d581612899565b9050919050565b7f4552433732313a207472616e7366657220746f20746865207a65726f2061646460008201527f7265737300000000000000000000000000000000000000000000000000000000602082015250565b6000612938602483611d87565b9150612943826128dc565b604082019050919050565b600060208201905081810360008301526129678161292b565b9050919050565b7f4e487b7100000000000000000000000000000000000000000000000000000000600052601160045260246000fd5b60006129a882611b57565b91506129b383611b57565b9250828210156129c6576129c561296e565b5b828203905092915050565b60006129dc82611b57565b91506129e783611b57565b9250827fffffffffffffffffffffffffffffffffffffffffffffffffffffffffffffffff03821115612a1c57612a1b61296e565b5b828201905092915050565b7f4552433732313a20617070726f766520746f2063616c6c657200000000000000600082015250565b6000612a5d601983611d87565b9150612a6882612a27565b602082019050919050565b60006020820190508181036000830152612a8c81612a50565b9050919050565b7f4552433732313a207472616e7366657220746f206e6f6e20455243373231526560008201527f63656976657220696d706c656d656e7465720000000000000000000000000000602082015250565b6000612aef603283611d87565b9150612afa82612a93565b604082019050919050565b60006020820190508181036000830152612b1e81612ae2565b9050919050565b6000612b3082611b57565b91507fffffffffffffffffffffffffffffffffffffffffffffffffffffffffffffffff8203612b6257612b6161296e565b5b600182019050919050565b7f4e487b7100000000000000000000000000000000000000000000000000000000600052601260045260246000fd5b6000612ba782611b57565b9150612bb283611b57565b925082612bc257612bc1612b6d565b5b828204905092915050565b6000612bd882611b57565b9150612be383611b57565b925082612bf357612bf2612b6d565b5b828206905092915050565b7f4e487b7100000000000000000000000000000000000000000000000000000000600052603260045260246000fd5b60006040820190508181036000830152612c478185611ddc565b9050612c566020830184611e64565b9392505050565b600081519050919050565b6000612c7382612c5d565b612c7d81856127b6565b9350612c8d818560208601611d98565b612c9681611dcb565b840191505092915050565b6000608082019050612cb66000830187611e64565b612cc36020830186611e64565b612cd06040830185611fba565b8181036060830152612ce28184612c68565b905095945050505050565b600081519050612cfc81611ced565b92915050565b600060208284031215612d1857612d17611aef565b5b6000612d2684828501612ced565b9150509291505056fea264697066735822122032cc35f8129caf70d0b3d40841879eaa3a422a10fadd9b0eb3d1c0f83740269364736f6c634300080f0033",
  "linkReferences": {},
  "deployedLinkReferences": {}
}