{
  "_format": "hh-sol-artifact-1",
  "contractName": "MarketPlaceContract",
  "sourceName": "src/blockchain/hardhat/contracts/MarketplaceContract.sol",
  "abi": [
    {
      "inputs": [
        {
          "internalType": "address",
          "name": "_erc777Address",
          "type": "address"
        }
      ],
      "stateMutability": "nonpayable",
      "type": "constructor"
    },
    {
      "anonymous": false,
      "inputs": [
        {
          "indexed": true,
          "internalType": "address",
          "name": "owner",
          "type": "address"
        },
        {
          "indexed": true,
          "internalType": "address",
          "name": "approved",
          "type": "address"
        },
        {
          "indexed": true,
          "internalType": "uint256",
          "name": "tokenId",
          "type": "uint256"
        }
      ],
      "name": "Approval",
      "type": "event"
    },
    {
      "anonymous": false,
      "inputs": [
        {
          "indexed": true,
          "internalType": "address",
          "name": "owner",
          "type": "address"
        },
        {
          "indexed": true,
          "internalType": "address",
          "name": "operator",
          "type": "address"
        },
        {
          "indexed": false,
          "internalType": "bool",
          "name": "approved",
          "type": "bool"
        }
      ],
      "name": "ApprovalForAll",
      "type": "event"
    },
    {
      "anonymous": false,
      "inputs": [
        {
          "indexed": false,
          "internalType": "uint256",
          "name": "_itemId",
          "type": "uint256"
        },
        {
          "indexed": true,
          "internalType": "address",
          "name": "_nft",
          "type": "address"
        },
        {
          "indexed": false,
          "internalType": "uint256",
          "name": "_tokenId",
          "type": "uint256"
        },
        {
          "indexed": false,
          "internalType": "string",
          "name": "_tokenURI",
          "type": "string"
        },
        {
          "indexed": false,
          "internalType": "uint256",
          "name": "_price",
          "type": "uint256"
        },
        {
          "indexed": true,
          "internalType": "address",
          "name": "_buyer",
          "type": "address"
        }
      ],
      "name": "Bought",
      "type": "event"
    },
    {
      "anonymous": false,
      "inputs": [
        {
          "indexed": false,
          "internalType": "uint256",
          "name": "_itemId",
          "type": "uint256"
        },
        {
          "indexed": true,
          "internalType": "address",
          "name": "_nft",
          "type": "address"
        },
        {
          "indexed": false,
          "internalType": "uint256",
          "name": "_tokenId",
          "type": "uint256"
        },
        {
          "indexed": false,
          "internalType": "string",
          "name": "_tokenURI",
          "type": "string"
        },
        {
          "indexed": false,
          "internalType": "uint256",
          "name": "_price",
          "type": "uint256"
        },
        {
          "indexed": true,
          "internalType": "address",
          "name": "_seller",
          "type": "address"
        }
      ],
      "name": "Offerd",
      "type": "event"
    },
    {
      "anonymous": false,
      "inputs": [
        {
          "indexed": true,
          "internalType": "address",
          "name": "from",
          "type": "address"
        },
        {
          "indexed": true,
          "internalType": "address",
          "name": "to",
          "type": "address"
        },
        {
          "indexed": true,
          "internalType": "uint256",
          "name": "tokenId",
          "type": "uint256"
        }
      ],
      "name": "Transfer",
      "type": "event"
    },
    {
      "inputs": [],
      "name": "ItemCounter",
      "outputs": [
        {
          "internalType": "uint256",
          "name": "_value",
          "type": "uint256"
        }
      ],
      "stateMutability": "view",
      "type": "function"
    },
    {
      "inputs": [],
      "name": "account",
      "outputs": [
        {
          "internalType": "address",
          "name": "",
          "type": "address"
        }
      ],
      "stateMutability": "view",
      "type": "function"
    },
    {
      "inputs": [
        {
          "internalType": "address",
          "name": "_address",
          "type": "address"
        }
      ],
      "name": "addContractToken",
      "outputs": [],
      "stateMutability": "nonpayable",
      "type": "function"
    },
    {
      "inputs": [],
      "name": "amount",
      "outputs": [
        {
          "internalType": "uint256",
          "name": "",
          "type": "uint256"
        }
      ],
      "stateMutability": "view",
      "type": "function"
    },
    {
      "inputs": [
        {
          "internalType": "address",
          "name": "to",
          "type": "address"
        },
        {
          "internalType": "uint256",
          "name": "tokenId",
          "type": "uint256"
        }
      ],
      "name": "approve",
      "outputs": [],
      "stateMutability": "nonpayable",
      "type": "function"
    },
    {
      "inputs": [
        {
          "internalType": "address",
          "name": "owner",
          "type": "address"
        }
      ],
      "name": "balanceOf",
      "outputs": [
        {
          "internalType": "uint256",
          "name": "",
          "type": "uint256"
        }
      ],
      "stateMutability": "view",
      "type": "function"
    },
    {
      "inputs": [
        {
          "internalType": "address",
          "name": "_tokenAddress",
          "type": "address"
        },
        {
          "internalType": "uint256",
          "name": "_itemId",
          "type": "uint256"
        }
      ],
      "name": "buyItem",
      "outputs": [],
      "stateMutability": "payable",
      "type": "function"
    },
    {
      "inputs": [],
      "name": "erc777",
      "outputs": [
        {
          "internalType": "contract ERC777",
          "name": "",
          "type": "address"
        }
      ],
      "stateMutability": "view",
      "type": "function"
    },
    {
      "inputs": [
        {
          "internalType": "uint256",
          "name": "tokenId",
          "type": "uint256"
        }
      ],
      "name": "getApproved",
      "outputs": [
        {
          "internalType": "address",
          "name": "",
          "type": "address"
        }
      ],
      "stateMutability": "view",
      "type": "function"
    },
    {
      "inputs": [
        {
          "internalType": "address",
          "name": "owner",
          "type": "address"
        },
        {
          "internalType": "address",
          "name": "operator",
          "type": "address"
        }
      ],
      "name": "isApprovedForAll",
      "outputs": [
        {
          "internalType": "bool",
          "name": "",
          "type": "bool"
        }
      ],
      "stateMutability": "view",
      "type": "function"
    },
    {
      "inputs": [
        {
          "internalType": "uint256",
          "name": "",
          "type": "uint256"
        }
      ],
      "name": "items",
      "outputs": [
        {
          "internalType": "uint256",
          "name": "itemId",
          "type": "uint256"
        },
        {
          "internalType": "contract IERC721",
          "name": "nft",
          "type": "address"
        },
        {
          "internalType": "uint256",
          "name": "tokenId",
          "type": "uint256"
        },
        {
          "internalType": "string",
          "name": "tokenURI",
          "type": "string"
        },
        {
          "internalType": "uint256",
          "name": "price",
          "type": "uint256"
        },
        {
          "internalType": "bool",
          "name": "sold",
          "type": "bool"
        },
        {
          "internalType": "address payable",
          "name": "seller",
          "type": "address"
        }
      ],
      "stateMutability": "view",
      "type": "function"
    },
    {
      "inputs": [
        {
          "internalType": "string",
          "name": "_tokenURI",
          "type": "string"
        }
      ],
      "name": "mint",
      "outputs": [
        {
          "internalType": "uint256",
          "name": "",
          "type": "uint256"
        }
      ],
      "stateMutability": "nonpayable",
      "type": "function"
    },
    {
      "inputs": [],
      "name": "name",
      "outputs": [
        {
          "internalType": "string",
          "name": "",
          "type": "string"
        }
      ],
      "stateMutability": "view",
      "type": "function"
    },
    {
      "inputs": [
        {
          "internalType": "uint256",
          "name": "tokenId",
          "type": "uint256"
        }
      ],
      "name": "ownerOf",
      "outputs": [
        {
          "internalType": "address",
          "name": "",
          "type": "address"
        }
      ],
      "stateMutability": "view",
      "type": "function"
    },
    {
      "inputs": [
        {
          "internalType": "address",
          "name": "from",
          "type": "address"
        },
        {
          "internalType": "address",
          "name": "to",
          "type": "address"
        },
        {
          "internalType": "uint256",
          "name": "tokenId",
          "type": "uint256"
        }
      ],
      "name": "safeTransferFrom",
      "outputs": [],
      "stateMutability": "nonpayable",
      "type": "function"
    },
    {
      "inputs": [
        {
          "internalType": "address",
          "name": "from",
          "type": "address"
        },
        {
          "internalType": "address",
          "name": "to",
          "type": "address"
        },
        {
          "internalType": "uint256",
          "name": "tokenId",
          "type": "uint256"
        },
        {
          "internalType": "bytes",
          "name": "data",
          "type": "bytes"
        }
      ],
      "name": "safeTransferFrom",
      "outputs": [],
      "stateMutability": "nonpayable",
      "type": "function"
    },
    {
      "inputs": [
        {
          "internalType": "contract IERC721",
          "name": "_nft",
          "type": "address"
        },
        {
          "internalType": "uint256",
          "name": "_tokenId",
          "type": "uint256"
        },
        {
          "internalType": "uint256",
          "name": "_price",
          "type": "uint256"
        }
      ],
      "name": "sellItem",
      "outputs": [],
      "stateMutability": "nonpayable",
      "type": "function"
    },
    {
      "inputs": [
        {
          "internalType": "address",
          "name": "operator",
          "type": "address"
        },
        {
          "internalType": "bool",
          "name": "approved",
          "type": "bool"
        }
      ],
      "name": "setApprovalForAll",
      "outputs": [],
      "stateMutability": "nonpayable",
      "type": "function"
    },
    {
      "inputs": [
        {
          "internalType": "bytes4",
          "name": "interfaceId",
          "type": "bytes4"
        }
      ],
      "name": "supportsInterface",
      "outputs": [
        {
          "internalType": "bool",
          "name": "",
          "type": "bool"
        }
      ],
      "stateMutability": "view",
      "type": "function"
    },
    {
      "inputs": [],
      "name": "symbol",
      "outputs": [
        {
          "internalType": "string",
          "name": "",
          "type": "string"
        }
      ],
      "stateMutability": "view",
      "type": "function"
    },
    {
      "inputs": [
        {
          "internalType": "address",
          "name": "",
          "type": "address"
        }
      ],
      "name": "tokenApproved",
      "outputs": [
        {
          "internalType": "bool",
          "name": "",
          "type": "bool"
        }
      ],
      "stateMutability": "view",
      "type": "function"
    },
    {
      "inputs": [],
      "name": "tokenIdCounter",
      "outputs": [
        {
          "internalType": "uint256",
          "name": "_value",
          "type": "uint256"
        }
      ],
      "stateMutability": "view",
      "type": "function"
    },
    {
      "inputs": [
        {
          "internalType": "uint256",
          "name": "tokenId",
          "type": "uint256"
        }
      ],
      "name": "tokenURI",
      "outputs": [
        {
          "internalType": "string",
          "name": "",
          "type": "string"
        }
      ],
      "stateMutability": "view",
      "type": "function"
    },
    {
      "inputs": [
        {
          "internalType": "uint256",
          "name": "",
          "type": "uint256"
        }
      ],
      "name": "tokens",
      "outputs": [
        {
          "internalType": "uint256",
          "name": "id",
          "type": "uint256"
        },
        {
          "internalType": "string",
          "name": "URI",
          "type": "string"
        }
      ],
      "stateMutability": "view",
      "type": "function"
    },
    {
      "inputs": [
        {
          "internalType": "address",
          "name": "_operator",
          "type": "address"
        },
        {
          "internalType": "address",
          "name": "_from",
          "type": "address"
        },
        {
          "internalType": "address",
          "name": "_to",
          "type": "address"
        },
        {
          "internalType": "uint256",
          "name": "_amount",
          "type": "uint256"
        },
        {
          "internalType": "bytes",
          "name": "_userData",
          "type": "bytes"
        },
        {
          "internalType": "bytes",
          "name": "_operatorData",
          "type": "bytes"
        }
      ],
      "name": "tokensReceived",
      "outputs": [],
      "stateMutability": "nonpayable",
      "type": "function"
    },
    {
      "inputs": [
        {
          "internalType": "address",
          "name": "from",
          "type": "address"
        },
        {
          "internalType": "address",
          "name": "to",
          "type": "address"
        },
        {
          "internalType": "uint256",
          "name": "tokenId",
          "type": "uint256"
        }
      ],
      "name": "transferFrom",
      "outputs": [],
      "stateMutability": "nonpayable",
      "type": "function"
    },
    {
      "inputs": [],
      "name": "withdrawTokens",
      "outputs": [],
      "stateMutability": "nonpayable",
      "type": "function"
    }
  ],
  "bytecode": "0x60c06040523480156200001157600080fd5b5060405162004ed138038062004ed1833981810160405281019062000037919062000253565b806040518060400160405280600681526020017f436f736d6f7300000000000000000000000000000000000000000000000000008152506040518060400160405280600481526020017f43534d53000000000000000000000000000000000000000000000000000000008152508160009081620000b59190620004ff565b508060019081620000c79190620004ff565b5050506001600781905550731820a4b7618bde71dce8cdc73aab6c95905fad2473ffffffffffffffffffffffffffffffffffffffff166329965a1d307fb281fc8c12954d22544db45de3159a39272895b169a852b314f9cc762e44c53b306040518463ffffffff1660e01b8152600401620001459392919062000612565b600060405180830381600087803b1580156200016057600080fd5b505af115801562000175573d6000803e3d6000fd5b505050508073ffffffffffffffffffffffffffffffffffffffff1660808173ffffffffffffffffffffffffffffffffffffffff16815250503373ffffffffffffffffffffffffffffffffffffffff1660a08173ffffffffffffffffffffffffffffffffffffffff168152505050506200064f565b600080fd5b600073ffffffffffffffffffffffffffffffffffffffff82169050919050565b60006200021b82620001ee565b9050919050565b6200022d816200020e565b81146200023957600080fd5b50565b6000815190506200024d8162000222565b92915050565b6000602082840312156200026c576200026b620001e9565b5b60006200027c848285016200023c565b91505092915050565b600081519050919050565b7f4e487b7100000000000000000000000000000000000000000000000000000000600052604160045260246000fd5b7f4e487b7100000000000000000000000000000000000000000000000000000000600052602260045260246000fd5b600060028204905060018216806200030757607f821691505b6020821081036200031d576200031c620002bf565b5b50919050565b60008190508160005260206000209050919050565b60006020601f8301049050919050565b600082821b905092915050565b600060088302620003877fffffffffffffffffffffffffffffffffffffffffffffffffffffffffffffffff8262000348565b62000393868362000348565b95508019841693508086168417925050509392505050565b6000819050919050565b6000819050919050565b6000620003e0620003da620003d484620003ab565b620003b5565b620003ab565b9050919050565b6000819050919050565b620003fc83620003bf565b620004146200040b82620003e7565b84845462000355565b825550505050565b600090565b6200042b6200041c565b62000438818484620003f1565b505050565b5b8181101562000460576200045460008262000421565b6001810190506200043e565b5050565b601f821115620004af57620004798162000323565b620004848462000338565b8101602085101562000494578190505b620004ac620004a38562000338565b8301826200043d565b50505b505050565b600082821c905092915050565b6000620004d460001984600802620004b4565b1980831691505092915050565b6000620004ef8383620004c1565b9150826002028217905092915050565b6200050a8262000285565b67ffffffffffffffff81111562000526576200052562000290565b5b620005328254620002ee565b6200053f82828562000464565b600060209050601f83116001811462000577576000841562000562578287015190505b6200056e8582620004e1565b865550620005de565b601f198416620005878662000323565b60005b82811015620005b1578489015182556001820191506020850194506020810190506200058a565b86831015620005d15784890151620005cd601f891682620004c1565b8355505b6001600288020188555050505b505050505050565b620005f1816200020e565b82525050565b6000819050919050565b6200060c81620005f7565b82525050565b6000606082019050620006296000830186620005e6565b62000638602083018562000601565b620006476040830184620005e6565b949350505050565b60805160a0516148326200069f60003960008181610af301528181610bc8015281816110c4015281816112d00152611c920152600081816111970152818161144c01526122d501526148326000f3fe60806040526004361061019b5760003560e01c80638d8f2adb116100ec578063aa8c217c1161008a578063c87b56dd11610064578063c87b56dd146105cf578063d85d3d271461060c578063e985e9c514610649578063f958aada146106865761019b565b8063aa8c217c14610538578063b88d4fde14610563578063bfb231d21461058c5761019b565b80639e70b75c116100c65780639e70b75c1461049f5780639e8e4d1d146104c85780639f37092a146104f3578063a22cb4651461050f5761019b565b80638d8f2adb1461043257806395d89b411461044957806398bdf6f5146104745761019b565b806323b872dd116101595780635dab2420116101335780635dab2420146103645780636352211e1461038f57806368915327146103cc57806370a08231146103f55761019b565b806323b872dd146102d457806342842e0e146102fd5780634f64b2be146103265761019b565b806223de29146101a057806301ffc9a7146101c957806306fdde0314610206578063081812fc14610231578063095ea7b31461026e578063170e2b8a14610297575b600080fd5b3480156101ac57600080fd5b506101c760048036038101906101c29190612d11565b6106b1565b005b3480156101d557600080fd5b506101f060048036038101906101eb9190612e38565b6106d4565b6040516101fd9190612e80565b60405180910390f35b34801561021257600080fd5b5061021b6107b6565b6040516102289190612f34565b60405180910390f35b34801561023d57600080fd5b5061025860048036038101906102539190612f56565b610848565b6040516102659190612f92565b60405180910390f35b34801561027a57600080fd5b5061029560048036038101906102909190612fad565b61088e565b005b3480156102a357600080fd5b506102be60048036038101906102b99190612fed565b6109a5565b6040516102cb9190612e80565b60405180910390f35b3480156102e057600080fd5b506102fb60048036038101906102f6919061301a565b6109c5565b005b34801561030957600080fd5b50610324600480360381019061031f919061301a565b610a25565b005b34801561033257600080fd5b5061034d60048036038101906103489190612f56565b610a45565b60405161035b92919061307c565b60405180910390f35b34801561037057600080fd5b50610379610af1565b6040516103869190612f92565b60405180910390f35b34801561039b57600080fd5b506103b660048036038101906103b19190612f56565b610b15565b6040516103c39190612f92565b60405180910390f35b3480156103d857600080fd5b506103f360048036038101906103ee91906130ea565b610bc6565b005b34801561040157600080fd5b5061041c60048036038101906104179190612fed565b61100b565b604051610429919061313d565b60405180910390f35b34801561043e57600080fd5b506104476110c2565b005b34801561045557600080fd5b5061045e611230565b60405161046b9190612f34565b60405180910390f35b34801561048057600080fd5b506104896112c2565b604051610496919061313d565b60405180910390f35b3480156104ab57600080fd5b506104c660048036038101906104c19190612fed565b6112ce565b005b3480156104d457600080fd5b506104dd61144a565b6040516104ea91906131b7565b60405180910390f35b61050d60048036038101906105089190612fad565b61146e565b005b34801561051b57600080fd5b50610536600480360381019061053191906131fe565b6119e7565b005b34801561054457600080fd5b5061054d6119fd565b60405161055a919061313d565b60405180910390f35b34801561056f57600080fd5b5061058a6004803603810190610585919061336e565b611a03565b005b34801561059857600080fd5b506105b360048036038101906105ae9190612f56565b611a65565b6040516105c69796959493929190613433565b60405180910390f35b3480156105db57600080fd5b506105f660048036038101906105f19190612f56565b611b7c565b6040516106039190612f34565b60405180910390f35b34801561061857600080fd5b50610633600480360381019061062e919061354a565b611c8e565b604051610640919061313d565b60405180910390f35b34801561065557600080fd5b50610670600480360381019061066b9190613593565b611d9e565b60405161067d9190612e80565b60405180910390f35b34801561069257600080fd5b5061069b611e32565b6040516106a8919061313d565b60405180910390f35b84600860008282546106c39190613602565b925050819055505050505050505050565b60007f80ac58cd000000000000000000000000000000000000000000000000000000007bffffffffffffffffffffffffffffffffffffffffffffffffffffffff1916827bffffffffffffffffffffffffffffffffffffffffffffffffffffffff1916148061079f57507f5b5e139f000000000000000000000000000000000000000000000000000000007bffffffffffffffffffffffffffffffffffffffffffffffffffffffff1916827bffffffffffffffffffffffffffffffffffffffffffffffffffffffff1916145b806107af57506107ae82611e3e565b5b9050919050565b6060600080546107c590613687565b80601f01602080910402602001604051908101604052809291908181526020018280546107f190613687565b801561083e5780601f106108135761010080835404028352916020019161083e565b820191906000526020600020905b81548152906001019060200180831161082157829003601f168201915b5050505050905090565b600061085382611ea8565b6004600083815260200190815260200160002060009054906101000a900473ffffffffffffffffffffffffffffffffffffffff169050919050565b600061089982610b15565b90508073ffffffffffffffffffffffffffffffffffffffff168373ffffffffffffffffffffffffffffffffffffffff1603610909576040517f08c379a00000000000000000000000000000000000000000000000000000000081526004016109009061372a565b60405180910390fd5b8073ffffffffffffffffffffffffffffffffffffffff16610928611ef3565b73ffffffffffffffffffffffffffffffffffffffff161480610957575061095681610951611ef3565b611d9e565b5b610996576040517f08c379a000000000000000000000000000000000000000000000000000000000815260040161098d906137bc565b60405180910390fd5b6109a08383611efb565b505050565b600d6020528060005260406000206000915054906101000a900460ff1681565b6109d66109d0611ef3565b82611fb4565b610a15576040517f08c379a0000000000000000000000000000000000000000000000000000000008152600401610a0c9061384e565b60405180910390fd5b610a20838383612049565b505050565b610a4083838360405180602001604052806000815250611a03565b505050565b600c602052806000526040600020600091509050806000015490806001018054610a6e90613687565b80601f0160208091040260200160405190810160405280929190818152602001828054610a9a90613687565b8015610ae75780601f10610abc57610100808354040283529160200191610ae7565b820191906000526020600020905b815481529060010190602001808311610aca57829003601f168201915b5050505050905082565b7f000000000000000000000000000000000000000000000000000000000000000081565b6000806002600084815260200190815260200160002060009054906101000a900473ffffffffffffffffffffffffffffffffffffffff169050600073ffffffffffffffffffffffffffffffffffffffff168173ffffffffffffffffffffffffffffffffffffffff1603610bbd576040517f08c379a0000000000000000000000000000000000000000000000000000000008152600401610bb4906138ba565b60405180910390fd5b80915050919050565b7f000000000000000000000000000000000000000000000000000000000000000073ffffffffffffffffffffffffffffffffffffffff163373ffffffffffffffffffffffffffffffffffffffff1614610c54576040517f08c379a0000000000000000000000000000000000000000000000000000000008152600401610c4b9061394c565b60405180910390fd5b600260075403610c99576040517f08c379a0000000000000000000000000000000000000000000000000000000008152600401610c90906139b8565b60405180910390fd5b600260078190555060008111610ce4576040517f08c379a0000000000000000000000000000000000000000000000000000000008152600401610cdb90613a24565b60405180910390fd5b610cee60096122af565b6000610cfa60096122c5565b90508373ffffffffffffffffffffffffffffffffffffffff166323b872dd3330866040518463ffffffff1660e01b8152600401610d3993929190613a44565b600060405180830381600087803b158015610d5357600080fd5b505af1158015610d67573d6000803e3d6000fd5b505050506000600c600085815260200190815260200160002060405180604001604052908160008201548152602001600182018054610da590613687565b80601f0160208091040260200160405190810160405280929190818152602001828054610dd190613687565b8015610e1e5780601f10610df357610100808354040283529160200191610e1e565b820191906000526020600020905b815481529060010190602001808311610e0157829003601f168201915b505050505081525050905060006040518060e001604052808481526020018773ffffffffffffffffffffffffffffffffffffffff168152602001868152602001836020015181526020018581526020016000151581526020013373ffffffffffffffffffffffffffffffffffffffff16815250905080600b60008581526020019081526020016000206000820151816000015560208201518160010160006101000a81548173ffffffffffffffffffffffffffffffffffffffff021916908373ffffffffffffffffffffffffffffffffffffffff160217905550604082015181600201556060820151816003019081610f179190613c1d565b506080820151816004015560a08201518160050160006101000a81548160ff02191690831515021790555060c08201518160050160016101000a81548173ffffffffffffffffffffffffffffffffffffffff021916908373ffffffffffffffffffffffffffffffffffffffff1602179055509050503373ffffffffffffffffffffffffffffffffffffffff168673ffffffffffffffffffffffffffffffffffffffff167ffbb702af9404f72d4778d0a1a80c9c80e330025cf49efc62679bf95f636a4be78588866020015189604051610ff39493929190613cef565b60405180910390a35050506001600781905550505050565b60008073ffffffffffffffffffffffffffffffffffffffff168273ffffffffffffffffffffffffffffffffffffffff160361107b576040517f08c379a000000000000000000000000000000000000000000000000000000000815260040161107290613dad565b60405180910390fd5b600360008373ffffffffffffffffffffffffffffffffffffffff1673ffffffffffffffffffffffffffffffffffffffff168152602001908152602001600020549050919050565b7f000000000000000000000000000000000000000000000000000000000000000073ffffffffffffffffffffffffffffffffffffffff163373ffffffffffffffffffffffffffffffffffffffff1614611150576040517f08c379a00000000000000000000000000000000000000000000000000000000081526004016111479061394c565b60405180910390fd5b600060085411611195576040517f08c379a000000000000000000000000000000000000000000000000000000000815260040161118c90613e19565b60405180910390fd5b7f000000000000000000000000000000000000000000000000000000000000000073ffffffffffffffffffffffffffffffffffffffff166362ad1b8330336008546040518463ffffffff1660e01b81526004016111f493929190613e70565b600060405180830381600087803b15801561120e57600080fd5b505af1158015611222573d6000803e3d6000fd5b505050506000600881905550565b60606001805461123f90613687565b80601f016020809104026020016040519081016040528092919081815260200182805461126b90613687565b80156112b85780601f1061128d576101008083540402835291602001916112b8565b820191906000526020600020905b81548152906001019060200180831161129b57829003601f168201915b5050505050905090565b600a8060000154905081565b7f000000000000000000000000000000000000000000000000000000000000000073ffffffffffffffffffffffffffffffffffffffff163373ffffffffffffffffffffffffffffffffffffffff161461135c576040517f08c379a00000000000000000000000000000000000000000000000000000000081526004016113539061394c565b60405180910390fd5b60001515600d60008373ffffffffffffffffffffffffffffffffffffffff1673ffffffffffffffffffffffffffffffffffffffff16815260200190815260200160002060009054906101000a900460ff161515146113ef576040517f08c379a00000000000000000000000000000000000000000000000000000000081526004016113e690613f19565b60405180910390fd5b6001600d60008373ffffffffffffffffffffffffffffffffffffffff1673ffffffffffffffffffffffffffffffffffffffff16815260200190815260200160002060006101000a81548160ff02191690831515021790555050565b7f000000000000000000000000000000000000000000000000000000000000000081565b6002600754036114b3576040517f08c379a00000000000000000000000000000000000000000000000000000000081526004016114aa906139b8565b60405180910390fd5b60026007819055506000600b60008381526020019081526020016000206004015490506000600b6000848152602001908152602001600020905060011515600d60008673ffffffffffffffffffffffffffffffffffffffff1673ffffffffffffffffffffffffffffffffffffffff16815260200190815260200160002060009054906101000a900460ff16151514611580576040517f08c379a000000000000000000000000000000000000000000000000000000000815260040161157790613f85565b60405180910390fd5b818473ffffffffffffffffffffffffffffffffffffffff1663f38e266a336040518263ffffffff1660e01b81526004016115ba9190612f92565b602060405180830381865afa1580156115d7573d6000803e3d6000fd5b505050506040513d601f19601f820116820180604052508101906115fb9190613fba565b1161163b576040517f08c379a000000000000000000000000000000000000000000000000000000000815260040161163290614033565b60405180910390fd5b600083118015611654575061165060096122c5565b8311155b611693576040517f08c379a000000000000000000000000000000000000000000000000000000000815260040161168a9061409f565b60405180910390fd5b8060050160009054906101000a900460ff16156116e5576040517f08c379a00000000000000000000000000000000000000000000000000000000081526004016116dc9061410b565b60405180910390fd5b8373ffffffffffffffffffffffffffffffffffffffff166325e8e00c33846040518363ffffffff1660e01b815260040161172092919061412b565b6020604051808303816000875af115801561173f573d6000803e3d6000fd5b505050506040513d601f19601f820116820180604052508101906117639190614169565b6117a2576040517f08c379a0000000000000000000000000000000000000000000000000000000008152600401611799906141e2565b60405180910390fd5b6117ab826122d3565b8060010160009054906101000a900473ffffffffffffffffffffffffffffffffffffffff1673ffffffffffffffffffffffffffffffffffffffff166323b872dd303384600201546040518463ffffffff1660e01b815260040161181093929190613a44565b600060405180830381600087803b15801561182a57600080fd5b505af115801561183e573d6000803e3d6000fd5b505050506000600b6000858152602001908152602001600020905060018160050160006101000a81548160ff0219169083151502179055506000600c600083600201548152602001908152602001600020604051806040016040529081600082015481526020016001820180546118b490613687565b80601f01602080910402602001604051908101604052809291908181526020018280546118e090613687565b801561192d5780601f106119025761010080835404028352916020019161192d565b820191906000526020600020905b81548152906001019060200180831161191057829003601f168201915b50505050508152505090503373ffffffffffffffffffffffffffffffffffffffff168360010160009054906101000a900473ffffffffffffffffffffffffffffffffffffffff1673ffffffffffffffffffffffffffffffffffffffff167ff0640a5e49fe03f4079b28dce79dc3ecebd847760c8fed4b6095e30bd1f16c5585600001548660020154856020015188600401546040516119cf9493929190613cef565b60405180910390a35050505060016007819055505050565b6119f96119f2611ef3565b838361237e565b5050565b60085481565b611a14611a0e611ef3565b83611fb4565b611a53576040517f08c379a0000000000000000000000000000000000000000000000000000000008152600401611a4a9061384e565b60405180910390fd5b611a5f848484846124ea565b50505050565b600b6020528060005260406000206000915090508060000154908060010160009054906101000a900473ffffffffffffffffffffffffffffffffffffffff1690806002015490806003018054611aba90613687565b80601f0160208091040260200160405190810160405280929190818152602001828054611ae690613687565b8015611b335780601f10611b0857610100808354040283529160200191611b33565b820191906000526020600020905b815481529060010190602001808311611b1657829003601f168201915b5050505050908060040154908060050160009054906101000a900460ff16908060050160019054906101000a900473ffffffffffffffffffffffffffffffffffffffff16905087565b6060611b8782611ea8565b6000600660008481526020019081526020016000208054611ba790613687565b80601f0160208091040260200160405190810160405280929190818152602001828054611bd390613687565b8015611c205780601f10611bf557610100808354040283529160200191611c20565b820191906000526020600020905b815481529060010190602001808311611c0357829003601f168201915b505050505090506000611c31612546565b90506000815103611c46578192505050611c89565b600082511115611c7b578082604051602001611c6392919061423e565b60405160208183030381529060405292505050611c89565b611c848461255d565b925050505b919050565b60007f000000000000000000000000000000000000000000000000000000000000000073ffffffffffffffffffffffffffffffffffffffff163373ffffffffffffffffffffffffffffffffffffffff1614611d1e576040517f08c379a0000000000000000000000000000000000000000000000000000000008152600401611d159061394c565b60405180910390fd5b6000611d2a600a6122c5565b9050611d36600a6122af565b611d4033826125c5565b611d4a81846125e3565b604051806040016040528082815260200184815250600c6000838152602001908152602001600020600082015181600001556020820151816001019081611d919190613c1d565b5090505080915050919050565b6000600560008473ffffffffffffffffffffffffffffffffffffffff1673ffffffffffffffffffffffffffffffffffffffff16815260200190815260200160002060008373ffffffffffffffffffffffffffffffffffffffff1673ffffffffffffffffffffffffffffffffffffffff16815260200190815260200160002060009054906101000a900460ff16905092915050565b60098060000154905081565b60007f01ffc9a7000000000000000000000000000000000000000000000000000000007bffffffffffffffffffffffffffffffffffffffffffffffffffffffff1916827bffffffffffffffffffffffffffffffffffffffffffffffffffffffff1916149050919050565b611eb181612650565b611ef0576040517f08c379a0000000000000000000000000000000000000000000000000000000008152600401611ee7906138ba565b60405180910390fd5b50565b600033905090565b816004600083815260200190815260200160002060006101000a81548173ffffffffffffffffffffffffffffffffffffffff021916908373ffffffffffffffffffffffffffffffffffffffff160217905550808273ffffffffffffffffffffffffffffffffffffffff16611f6e83610b15565b73ffffffffffffffffffffffffffffffffffffffff167f8c5be1e5ebec7d5bd14f71427d1e84f3dd0314c0f7b2291e5b200ac8c7c3b92560405160405180910390a45050565b600080611fc083610b15565b90508073ffffffffffffffffffffffffffffffffffffffff168473ffffffffffffffffffffffffffffffffffffffff16148061200257506120018185611d9e565b5b8061204057508373ffffffffffffffffffffffffffffffffffffffff1661202884610848565b73ffffffffffffffffffffffffffffffffffffffff16145b91505092915050565b8273ffffffffffffffffffffffffffffffffffffffff1661206982610b15565b73ffffffffffffffffffffffffffffffffffffffff16146120bf576040517f08c379a00000000000000000000000000000000000000000000000000000000081526004016120b6906142d4565b60405180910390fd5b600073ffffffffffffffffffffffffffffffffffffffff168273ffffffffffffffffffffffffffffffffffffffff160361212e576040517f08c379a000000000000000000000000000000000000000000000000000000000815260040161212590614366565b60405180910390fd5b6121398383836126bc565b612144600082611efb565b6001600360008573ffffffffffffffffffffffffffffffffffffffff1673ffffffffffffffffffffffffffffffffffffffff16815260200190815260200160002060008282546121949190614386565b925050819055506001600360008473ffffffffffffffffffffffffffffffffffffffff1673ffffffffffffffffffffffffffffffffffffffff16815260200190815260200160002060008282546121eb9190613602565b92505081905550816002600083815260200190815260200160002060006101000a81548173ffffffffffffffffffffffffffffffffffffffff021916908373ffffffffffffffffffffffffffffffffffffffff160217905550808273ffffffffffffffffffffffffffffffffffffffff168473ffffffffffffffffffffffffffffffffffffffff167fddf252ad1be2c89b69c2b068fc378daa952ba7f163c4a11628f55a4df523b3ef60405160405180910390a46122aa8383836126c1565b505050565b6001816000016000828254019250508190555050565b600081600001549050919050565b7f000000000000000000000000000000000000000000000000000000000000000073ffffffffffffffffffffffffffffffffffffffff166362ad1b833330846040518463ffffffff1660e01b815260040161233093929190613e70565b600060405180830381600087803b15801561234a57600080fd5b505af115801561235e573d6000803e3d6000fd5b5050505080600860008282546123749190613602565b9250508190555050565b8173ffffffffffffffffffffffffffffffffffffffff168373ffffffffffffffffffffffffffffffffffffffff16036123ec576040517f08c379a00000000000000000000000000000000000000000000000000000000081526004016123e390614406565b60405180910390fd5b80600560008573ffffffffffffffffffffffffffffffffffffffff1673ffffffffffffffffffffffffffffffffffffffff16815260200190815260200160002060008473ffffffffffffffffffffffffffffffffffffffff1673ffffffffffffffffffffffffffffffffffffffff16815260200190815260200160002060006101000a81548160ff0219169083151502179055508173ffffffffffffffffffffffffffffffffffffffff168373ffffffffffffffffffffffffffffffffffffffff167f17307eab39ab6107e8899845ad3d59bd9653f200f220920489ca2b5937696c31836040516124dd9190612e80565b60405180910390a3505050565b6124f5848484612049565b612501848484846126c6565b612540576040517f08c379a000000000000000000000000000000000000000000000000000000000815260040161253790614498565b60405180910390fd5b50505050565b606060405180602001604052806000815250905090565b606061256882611ea8565b6000612572612546565b9050600081511161259257604051806020016040528060008152506125bd565b8061259c8461284d565b6040516020016125ad92919061423e565b6040516020818303038152906040525b915050919050565b6125df8282604051806020016040528060008152506129ad565b5050565b6125ec82612650565b61262b576040517f08c379a00000000000000000000000000000000000000000000000000000000081526004016126229061452a565b60405180910390fd5b8060066000848152602001908152602001600020908161264b9190613c1d565b505050565b60008073ffffffffffffffffffffffffffffffffffffffff166002600084815260200190815260200160002060009054906101000a900473ffffffffffffffffffffffffffffffffffffffff1673ffffffffffffffffffffffffffffffffffffffff1614159050919050565b505050565b505050565b60006126e78473ffffffffffffffffffffffffffffffffffffffff16612a08565b15612840578373ffffffffffffffffffffffffffffffffffffffff1663150b7a02612710611ef3565b8786866040518563ffffffff1660e01b8152600401612732949392919061458e565b6020604051808303816000875af192505050801561276e57506040513d601f19601f8201168201806040525081019061276b91906145ef565b60015b6127f0573d806000811461279e576040519150601f19603f3d011682016040523d82523d6000602084013e6127a3565b606091505b5060008151036127e8576040517f08c379a00000000000000000000000000000000000000000000000000000000081526004016127df90614498565b60405180910390fd5b805181602001fd5b63150b7a0260e01b7bffffffffffffffffffffffffffffffffffffffffffffffffffffffff1916817bffffffffffffffffffffffffffffffffffffffffffffffffffffffff191614915050612845565b600190505b949350505050565b606060008203612894576040518060400160405280600181526020017f300000000000000000000000000000000000000000000000000000000000000081525090506129a8565b600082905060005b600082146128c65780806128af9061461c565b915050600a826128bf9190614693565b915061289c565b60008167ffffffffffffffff8111156128e2576128e1613243565b5b6040519080825280601f01601f1916602001820160405280156129145781602001600182028036833780820191505090505b5090505b600085146129a15760018261292d9190614386565b9150600a8561293c91906146c4565b60306129489190613602565b60f81b81838151811061295e5761295d6146f5565b5b60200101907effffffffffffffffffffffffffffffffffffffffffffffffffffffffffffff1916908160001a905350600a8561299a9190614693565b9450612918565b8093505050505b919050565b6129b78383612a2b565b6129c460008484846126c6565b612a03576040517f08c379a00000000000000000000000000000000000000000000000000000000081526004016129fa90614498565b60405180910390fd5b505050565b6000808273ffffffffffffffffffffffffffffffffffffffff163b119050919050565b600073ffffffffffffffffffffffffffffffffffffffff168273ffffffffffffffffffffffffffffffffffffffff1603612a9a576040517f08c379a0000000000000000000000000000000000000000000000000000000008152600401612a9190614770565b60405180910390fd5b612aa381612650565b15612ae3576040517f08c379a0000000000000000000000000000000000000000000000000000000008152600401612ada906147dc565b60405180910390fd5b612aef600083836126bc565b6001600360008473ffffffffffffffffffffffffffffffffffffffff1673ffffffffffffffffffffffffffffffffffffffff1681526020019081526020016000206000828254612b3f9190613602565b92505081905550816002600083815260200190815260200160002060006101000a81548173ffffffffffffffffffffffffffffffffffffffff021916908373ffffffffffffffffffffffffffffffffffffffff160217905550808273ffffffffffffffffffffffffffffffffffffffff16600073ffffffffffffffffffffffffffffffffffffffff167fddf252ad1be2c89b69c2b068fc378daa952ba7f163c4a11628f55a4df523b3ef60405160405180910390a4612c00600083836126c1565b5050565b6000604051905090565b600080fd5b600080fd5b600073ffffffffffffffffffffffffffffffffffffffff82169050919050565b6000612c4382612c18565b9050919050565b612c5381612c38565b8114612c5e57600080fd5b50565b600081359050612c7081612c4a565b92915050565b6000819050919050565b612c8981612c76565b8114612c9457600080fd5b50565b600081359050612ca681612c80565b92915050565b600080fd5b600080fd5b600080fd5b60008083601f840112612cd157612cd0612cac565b5b8235905067ffffffffffffffff811115612cee57612ced612cb1565b5b602083019150836001820283011115612d0a57612d09612cb6565b5b9250929050565b60008060008060008060008060c0898b031215612d3157612d30612c0e565b5b6000612d3f8b828c01612c61565b9850506020612d508b828c01612c61565b9750506040612d618b828c01612c61565b9650506060612d728b828c01612c97565b955050608089013567ffffffffffffffff811115612d9357612d92612c13565b5b612d9f8b828c01612cbb565b945094505060a089013567ffffffffffffffff811115612dc257612dc1612c13565b5b612dce8b828c01612cbb565b92509250509295985092959890939650565b60007fffffffff0000000000000000000000000000000000000000000000000000000082169050919050565b612e1581612de0565b8114612e2057600080fd5b50565b600081359050612e3281612e0c565b92915050565b600060208284031215612e4e57612e4d612c0e565b5b6000612e5c84828501612e23565b91505092915050565b60008115159050919050565b612e7a81612e65565b82525050565b6000602082019050612e956000830184612e71565b92915050565b600081519050919050565b600082825260208201905092915050565b60005b83811015612ed5578082015181840152602081019050612eba565b83811115612ee4576000848401525b50505050565b6000601f19601f8301169050919050565b6000612f0682612e9b565b612f108185612ea6565b9350612f20818560208601612eb7565b612f2981612eea565b840191505092915050565b60006020820190508181036000830152612f4e8184612efb565b905092915050565b600060208284031215612f6c57612f6b612c0e565b5b6000612f7a84828501612c97565b91505092915050565b612f8c81612c38565b82525050565b6000602082019050612fa76000830184612f83565b92915050565b60008060408385031215612fc457612fc3612c0e565b5b6000612fd285828601612c61565b9250506020612fe385828601612c97565b9150509250929050565b60006020828403121561300357613002612c0e565b5b600061301184828501612c61565b91505092915050565b60008060006060848603121561303357613032612c0e565b5b600061304186828701612c61565b935050602061305286828701612c61565b925050604061306386828701612c97565b9150509250925092565b61307681612c76565b82525050565b6000604082019050613091600083018561306d565b81810360208301526130a38184612efb565b90509392505050565b60006130b782612c38565b9050919050565b6130c7816130ac565b81146130d257600080fd5b50565b6000813590506130e4816130be565b92915050565b60008060006060848603121561310357613102612c0e565b5b6000613111868287016130d5565b935050602061312286828701612c97565b925050604061313386828701612c97565b9150509250925092565b6000602082019050613152600083018461306d565b92915050565b6000819050919050565b600061317d61317861317384612c18565b613158565b612c18565b9050919050565b600061318f82613162565b9050919050565b60006131a182613184565b9050919050565b6131b181613196565b82525050565b60006020820190506131cc60008301846131a8565b92915050565b6131db81612e65565b81146131e657600080fd5b50565b6000813590506131f8816131d2565b92915050565b6000806040838503121561321557613214612c0e565b5b600061322385828601612c61565b9250506020613234858286016131e9565b9150509250929050565b600080fd5b7f4e487b7100000000000000000000000000000000000000000000000000000000600052604160045260246000fd5b61327b82612eea565b810181811067ffffffffffffffff8211171561329a57613299613243565b5b80604052505050565b60006132ad612c04565b90506132b98282613272565b919050565b600067ffffffffffffffff8211156132d9576132d8613243565b5b6132e282612eea565b9050602081019050919050565b82818337600083830152505050565b600061331161330c846132be565b6132a3565b90508281526020810184848401111561332d5761332c61323e565b5b6133388482856132ef565b509392505050565b600082601f83011261335557613354612cac565b5b81356133658482602086016132fe565b91505092915050565b6000806000806080858703121561338857613387612c0e565b5b600061339687828801612c61565b94505060206133a787828801612c61565b93505060406133b887828801612c97565b925050606085013567ffffffffffffffff8111156133d9576133d8612c13565b5b6133e587828801613340565b91505092959194509250565b60006133fc82613184565b9050919050565b61340c816133f1565b82525050565b600061341d82612c18565b9050919050565b61342d81613412565b82525050565b600060e082019050613448600083018a61306d565b6134556020830189613403565b613462604083018861306d565b81810360608301526134748187612efb565b9050613483608083018661306d565b61349060a0830185612e71565b61349d60c0830184613424565b98975050505050505050565b600067ffffffffffffffff8211156134c4576134c3613243565b5b6134cd82612eea565b9050602081019050919050565b60006134ed6134e8846134a9565b6132a3565b9050828152602081018484840111156135095761350861323e565b5b6135148482856132ef565b509392505050565b600082601f83011261353157613530612cac565b5b81356135418482602086016134da565b91505092915050565b6000602082840312156135605761355f612c0e565b5b600082013567ffffffffffffffff81111561357e5761357d612c13565b5b61358a8482850161351c565b91505092915050565b600080604083850312156135aa576135a9612c0e565b5b60006135b885828601612c61565b92505060206135c985828601612c61565b9150509250929050565b7f4e487b7100000000000000000000000000000000000000000000000000000000600052601160045260246000fd5b600061360d82612c76565b915061361883612c76565b9250827fffffffffffffffffffffffffffffffffffffffffffffffffffffffffffffffff0382111561364d5761364c6135d3565b5b828201905092915050565b7f4e487b7100000000000000000000000000000000000000000000000000000000600052602260045260246000fd5b6000600282049050600182168061369f57607f821691505b6020821081036136b2576136b1613658565b5b50919050565b7f4552433732313a20617070726f76616c20746f2063757272656e74206f776e6560008201527f7200000000000000000000000000000000000000000000000000000000000000602082015250565b6000613714602183612ea6565b915061371f826136b8565b604082019050919050565b6000602082019050818103600083015261374381613707565b9050919050565b7f4552433732313a20617070726f76652063616c6c6572206973206e6f7420746f60008201527f6b656e206f776e6572206e6f7220617070726f76656420666f7220616c6c0000602082015250565b60006137a6603e83612ea6565b91506137b18261374a565b604082019050919050565b600060208201905081810360008301526137d581613799565b9050919050565b7f4552433732313a2063616c6c6572206973206e6f7420746f6b656e206f776e6560008201527f72206e6f7220617070726f766564000000000000000000000000000000000000602082015250565b6000613838602e83612ea6565b9150613843826137dc565b604082019050919050565b600060208201905081810360008301526138678161382b565b9050919050565b7f4552433732313a20696e76616c696420746f6b656e2049440000000000000000600082015250565b60006138a4601883612ea6565b91506138af8261386e565b602082019050919050565b600060208201905081810360008301526138d381613897565b9050919050565b7f4d61726b6574506c616365436f6e74726163743a2063616c6c6572206973206e60008201527f6f7420746865206f776e65720000000000000000000000000000000000000000602082015250565b6000613936602c83612ea6565b9150613941826138da565b604082019050919050565b6000602082019050818103600083015261396581613929565b9050919050565b7f5265656e7472616e637947756172643a207265656e7472616e742063616c6c00600082015250565b60006139a2601f83612ea6565b91506139ad8261396c565b602082019050919050565b600060208201905081810360008301526139d181613995565b9050919050565b7f5072696365206d75737420626520677265617465722074686174203000000000600082015250565b6000613a0e601c83612ea6565b9150613a19826139d8565b602082019050919050565b60006020820190508181036000830152613a3d81613a01565b9050919050565b6000606082019050613a596000830186612f83565b613a666020830185612f83565b613a73604083018461306d565b949350505050565b60008190508160005260206000209050919050565b60006020601f8301049050919050565b600082821b905092915050565b600060088302613add7fffffffffffffffffffffffffffffffffffffffffffffffffffffffffffffffff82613aa0565b613ae78683613aa0565b95508019841693508086168417925050509392505050565b6000613b1a613b15613b1084612c76565b613158565b612c76565b9050919050565b6000819050919050565b613b3483613aff565b613b48613b4082613b21565b848454613aad565b825550505050565b600090565b613b5d613b50565b613b68818484613b2b565b505050565b5b81811015613b8c57613b81600082613b55565b600181019050613b6e565b5050565b601f821115613bd157613ba281613a7b565b613bab84613a90565b81016020851015613bba578190505b613bce613bc685613a90565b830182613b6d565b50505b505050565b600082821c905092915050565b6000613bf460001984600802613bd6565b1980831691505092915050565b6000613c0d8383613be3565b9150826002028217905092915050565b613c2682612e9b565b67ffffffffffffffff811115613c3f57613c3e613243565b5b613c498254613687565b613c54828285613b90565b600060209050601f831160018114613c875760008415613c75578287015190505b613c7f8582613c01565b865550613ce7565b601f198416613c9586613a7b565b60005b82811015613cbd57848901518255600182019150602085019450602081019050613c98565b86831015613cda5784890151613cd6601f891682613be3565b8355505b6001600288020188555050505b505050505050565b6000608082019050613d04600083018761306d565b613d11602083018661306d565b8181036040830152613d238185612efb565b9050613d32606083018461306d565b95945050505050565b7f4552433732313a2061646472657373207a65726f206973206e6f74206120766160008201527f6c6964206f776e65720000000000000000000000000000000000000000000000602082015250565b6000613d97602983612ea6565b9150613da282613d3b565b604082019050919050565b60006020820190508181036000830152613dc681613d8a565b9050919050565b7f546865726520646f6e277420626520746f6b656e730000000000000000000000600082015250565b6000613e03601583612ea6565b9150613e0e82613dcd565b602082019050919050565b60006020820190508181036000830152613e3281613df6565b9050919050565b600082825260208201905092915050565b50565b6000613e5a600083613e39565b9150613e6582613e4a565b600082019050919050565b600060a082019050613e856000830186612f83565b613e926020830185612f83565b613e9f604083018461306d565b8181036060830152613eb081613e4d565b90508181036080830152613ec381613e4d565b9050949350505050565b7f5468697320746f6b656e20697320616c726561647920617070726f7665640000600082015250565b6000613f03601e83612ea6565b9150613f0e82613ecd565b602082019050919050565b60006020820190508181036000830152613f3281613ef6565b9050919050565b7f576520646f6e277420616363657074207468697320746f6b656e000000000000600082015250565b6000613f6f601a83612ea6565b9150613f7a82613f39565b602082019050919050565b60006020820190508181036000830152613f9e81613f62565b9050919050565b600081519050613fb481612c80565b92915050565b600060208284031215613fd057613fcf612c0e565b5b6000613fde84828501613fa5565b91505092915050565b7f496e73756666696369656e7420746f6b656e7300000000000000000000000000600082015250565b600061401d601383612ea6565b915061402882613fe7565b602082019050919050565b6000602082019050818103600083015261404c81614010565b9050919050565b7f4974656d20646f6e277420657869737400000000000000000000000000000000600082015250565b6000614089601083612ea6565b915061409482614053565b602082019050919050565b600060208201905081810360008301526140b88161407c565b9050919050565b7f4974656d20616c726561647920736f6c64000000000000000000000000000000600082015250565b60006140f5601183612ea6565b9150614100826140bf565b602082019050919050565b60006020820190508181036000830152614124816140e8565b9050919050565b60006040820190506141406000830185612f83565b61414d602083018461306d565b9392505050565b600081519050614163816131d2565b92915050565b60006020828403121561417f5761417e612c0e565b5b600061418d84828501614154565b91505092915050565b7f596f75722066756e64732061726520696e73756666696369656e740000000000600082015250565b60006141cc601b83612ea6565b91506141d782614196565b602082019050919050565b600060208201905081810360008301526141fb816141bf565b9050919050565b600081905092915050565b600061421882612e9b565b6142228185614202565b9350614232818560208601612eb7565b80840191505092915050565b600061424a828561420d565b9150614256828461420d565b91508190509392505050565b7f4552433732313a207472616e736665722066726f6d20696e636f72726563742060008201527f6f776e6572000000000000000000000000000000000000000000000000000000602082015250565b60006142be602583612ea6565b91506142c982614262565b604082019050919050565b600060208201905081810360008301526142ed816142b1565b9050919050565b7f4552433732313a207472616e7366657220746f20746865207a65726f2061646460008201527f7265737300000000000000000000000000000000000000000000000000000000602082015250565b6000614350602483612ea6565b915061435b826142f4565b604082019050919050565b6000602082019050818103600083015261437f81614343565b9050919050565b600061439182612c76565b915061439c83612c76565b9250828210156143af576143ae6135d3565b5b828203905092915050565b7f4552433732313a20617070726f766520746f2063616c6c657200000000000000600082015250565b60006143f0601983612ea6565b91506143fb826143ba565b602082019050919050565b6000602082019050818103600083015261441f816143e3565b9050919050565b7f4552433732313a207472616e7366657220746f206e6f6e20455243373231526560008201527f63656976657220696d706c656d656e7465720000000000000000000000000000602082015250565b6000614482603283612ea6565b915061448d82614426565b604082019050919050565b600060208201905081810360008301526144b181614475565b9050919050565b7f45524337323155524953746f726167653a2055524920736574206f66206e6f6e60008201527f6578697374656e7420746f6b656e000000000000000000000000000000000000602082015250565b6000614514602e83612ea6565b915061451f826144b8565b604082019050919050565b6000602082019050818103600083015261454381614507565b9050919050565b600081519050919050565b60006145608261454a565b61456a8185613e39565b935061457a818560208601612eb7565b61458381612eea565b840191505092915050565b60006080820190506145a36000830187612f83565b6145b06020830186612f83565b6145bd604083018561306d565b81810360608301526145cf8184614555565b905095945050505050565b6000815190506145e981612e0c565b92915050565b60006020828403121561460557614604612c0e565b5b6000614613848285016145da565b91505092915050565b600061462782612c76565b91507fffffffffffffffffffffffffffffffffffffffffffffffffffffffffffffffff8203614659576146586135d3565b5b600182019050919050565b7f4e487b7100000000000000000000000000000000000000000000000000000000600052601260045260246000fd5b600061469e82612c76565b91506146a983612c76565b9250826146b9576146b8614664565b5b828204905092915050565b60006146cf82612c76565b91506146da83612c76565b9250826146ea576146e9614664565b5b828206905092915050565b7f4e487b7100000000000000000000000000000000000000000000000000000000600052603260045260246000fd5b7f4552433732313a206d696e7420746f20746865207a65726f2061646472657373600082015250565b600061475a602083612ea6565b915061476582614724565b602082019050919050565b600060208201905081810360008301526147898161474d565b9050919050565b7f4552433732313a20746f6b656e20616c7265616479206d696e74656400000000600082015250565b60006147c6601c83612ea6565b91506147d182614790565b602082019050919050565b600060208201905081810360008301526147f5816147b9565b905091905056fea2646970667358221220dfed57ef957dee484f9e58c78f8b36bbbcdae2951e73bf9f37582e00af734b7164736f6c634300080f0033",
  "linkReferences": {},
  "deployedLinkReferences": {}
}