{
  "_format": "hh-sol-artifact-1",
  "contractName": "MarketPlaceContract",
  "sourceName": "src/blockchain/hardhat/contracts/MarketPlaceContract.sol",
  "abi": [
    {
      "inputs": [
        {
          "internalType": "address",
          "name": "_erc777Address",
          "type": "address"
        }
      ],
      "stateMutability": "nonpayable",
      "type": "constructor"
    },
    {
      "anonymous": false,
      "inputs": [
        {
          "indexed": true,
          "internalType": "address",
          "name": "owner",
          "type": "address"
        },
        {
          "indexed": true,
          "internalType": "address",
          "name": "approved",
          "type": "address"
        },
        {
          "indexed": true,
          "internalType": "uint256",
          "name": "tokenId",
          "type": "uint256"
        }
      ],
      "name": "Approval",
      "type": "event"
    },
    {
      "anonymous": false,
      "inputs": [
        {
          "indexed": true,
          "internalType": "address",
          "name": "owner",
          "type": "address"
        },
        {
          "indexed": true,
          "internalType": "address",
          "name": "operator",
          "type": "address"
        },
        {
          "indexed": false,
          "internalType": "bool",
          "name": "approved",
          "type": "bool"
        }
      ],
      "name": "ApprovalForAll",
      "type": "event"
    },
    {
      "anonymous": false,
      "inputs": [
        {
          "indexed": false,
          "internalType": "uint256",
          "name": "_itemId",
          "type": "uint256"
        },
        {
          "indexed": true,
          "internalType": "address",
          "name": "_nft",
          "type": "address"
        },
        {
          "indexed": false,
          "internalType": "uint256",
          "name": "_tokenId",
          "type": "uint256"
        },
        {
          "indexed": false,
          "internalType": "string",
          "name": "_tokenURI",
          "type": "string"
        },
        {
          "indexed": false,
          "internalType": "uint256",
          "name": "_price",
          "type": "uint256"
        },
        {
          "indexed": false,
          "internalType": "address",
          "name": "_artist",
          "type": "address"
        },
        {
          "indexed": false,
          "internalType": "uint256",
          "name": "_taxFee",
          "type": "uint256"
        },
        {
          "indexed": false,
          "internalType": "address",
          "name": "_addressTaxFeeToken",
          "type": "address"
        },
        {
          "indexed": true,
          "internalType": "address",
          "name": "_buyer",
          "type": "address"
        }
      ],
      "name": "Bought",
      "type": "event"
    },
    {
      "anonymous": false,
      "inputs": [
        {
          "indexed": false,
          "internalType": "uint256",
          "name": "_itemId",
          "type": "uint256"
        },
        {
          "indexed": true,
          "internalType": "address",
          "name": "_nft",
          "type": "address"
        },
        {
          "indexed": false,
          "internalType": "uint256",
          "name": "_tokenId",
          "type": "uint256"
        },
        {
          "indexed": false,
          "internalType": "string",
          "name": "_tokenURI",
          "type": "string"
        },
        {
          "indexed": false,
          "internalType": "uint256",
          "name": "_price",
          "type": "uint256"
        },
        {
          "indexed": false,
          "internalType": "address",
          "name": "_artist",
          "type": "address"
        },
        {
          "indexed": false,
          "internalType": "uint256",
          "name": "_taxFee",
          "type": "uint256"
        },
        {
          "indexed": false,
          "internalType": "address",
          "name": "_addressTaxFeeToken",
          "type": "address"
        },
        {
          "indexed": true,
          "internalType": "address",
          "name": "_seller",
          "type": "address"
        }
      ],
      "name": "Offerd",
      "type": "event"
    },
    {
      "anonymous": false,
      "inputs": [
        {
          "indexed": true,
          "internalType": "address",
          "name": "from",
          "type": "address"
        },
        {
          "indexed": true,
          "internalType": "address",
          "name": "to",
          "type": "address"
        },
        {
          "indexed": true,
          "internalType": "uint256",
          "name": "tokenId",
          "type": "uint256"
        }
      ],
      "name": "Transfer",
      "type": "event"
    },
    {
      "inputs": [],
      "name": "ItemCounter",
      "outputs": [
        {
          "internalType": "uint256",
          "name": "_value",
          "type": "uint256"
        }
      ],
      "stateMutability": "view",
      "type": "function"
    },
    {
      "inputs": [],
      "name": "account",
      "outputs": [
        {
          "internalType": "address",
          "name": "",
          "type": "address"
        }
      ],
      "stateMutability": "view",
      "type": "function"
    },
    {
      "inputs": [
        {
          "internalType": "address",
          "name": "_addressToken",
          "type": "address"
        }
      ],
      "name": "addContractToken",
      "outputs": [],
      "stateMutability": "nonpayable",
      "type": "function"
    },
    {
      "inputs": [],
      "name": "amount",
      "outputs": [
        {
          "internalType": "uint256",
          "name": "",
          "type": "uint256"
        }
      ],
      "stateMutability": "view",
      "type": "function"
    },
    {
      "inputs": [
        {
          "internalType": "address",
          "name": "to",
          "type": "address"
        },
        {
          "internalType": "uint256",
          "name": "tokenId",
          "type": "uint256"
        }
      ],
      "name": "approve",
      "outputs": [],
      "stateMutability": "nonpayable",
      "type": "function"
    },
    {
      "inputs": [
        {
          "internalType": "address",
          "name": "owner",
          "type": "address"
        }
      ],
      "name": "balanceOf",
      "outputs": [
        {
          "internalType": "uint256",
          "name": "",
          "type": "uint256"
        }
      ],
      "stateMutability": "view",
      "type": "function"
    },
    {
      "inputs": [
        {
          "internalType": "address",
          "name": "_cosmoAddress",
          "type": "address"
        },
        {
          "internalType": "uint256",
          "name": "_itemId",
          "type": "uint256"
        }
      ],
      "name": "buyItem",
      "outputs": [],
      "stateMutability": "payable",
      "type": "function"
    },
    {
      "inputs": [],
      "name": "erc777",
      "outputs": [
        {
          "internalType": "contract ERC777",
          "name": "",
          "type": "address"
        }
      ],
      "stateMutability": "view",
      "type": "function"
    },
    {
      "inputs": [
        {
          "internalType": "uint256",
          "name": "tokenId",
          "type": "uint256"
        }
      ],
      "name": "getApproved",
      "outputs": [
        {
          "internalType": "address",
          "name": "",
          "type": "address"
        }
      ],
      "stateMutability": "view",
      "type": "function"
    },
    {
      "inputs": [
        {
          "internalType": "address",
          "name": "owner",
          "type": "address"
        },
        {
          "internalType": "address",
          "name": "operator",
          "type": "address"
        }
      ],
      "name": "isApprovedForAll",
      "outputs": [
        {
          "internalType": "bool",
          "name": "",
          "type": "bool"
        }
      ],
      "stateMutability": "view",
      "type": "function"
    },
    {
      "inputs": [
        {
          "internalType": "uint256",
          "name": "",
          "type": "uint256"
        }
      ],
      "name": "items",
      "outputs": [
        {
          "internalType": "uint256",
          "name": "itemId",
          "type": "uint256"
        },
        {
          "internalType": "contract IERC721",
          "name": "nft",
          "type": "address"
        },
        {
          "internalType": "uint256",
          "name": "tokenId",
          "type": "uint256"
        },
        {
          "internalType": "string",
          "name": "tokenURI",
          "type": "string"
        },
        {
          "internalType": "uint256",
          "name": "price",
          "type": "uint256"
        },
        {
          "internalType": "address",
          "name": "artist",
          "type": "address"
        },
        {
          "internalType": "uint256",
          "name": "tokenTaxFee",
          "type": "uint256"
        },
        {
          "internalType": "address",
          "name": "addressTaxFeeToken",
          "type": "address"
        },
        {
          "internalType": "bool",
          "name": "sold",
          "type": "bool"
        },
        {
          "internalType": "address payable",
          "name": "seller",
          "type": "address"
        }
      ],
      "stateMutability": "view",
      "type": "function"
    },
    {
      "inputs": [
        {
          "internalType": "string",
          "name": "_tokenURI",
          "type": "string"
        },
        {
          "internalType": "address",
          "name": "_artist",
          "type": "address"
        },
        {
          "internalType": "uint256",
          "name": "_taxFee",
          "type": "uint256"
        },
        {
          "internalType": "address",
          "name": "_addressTaxFeeToken",
          "type": "address"
        }
      ],
      "name": "mint",
      "outputs": [
        {
          "internalType": "uint256",
          "name": "",
          "type": "uint256"
        }
      ],
      "stateMutability": "nonpayable",
      "type": "function"
    },
    {
      "inputs": [],
      "name": "name",
      "outputs": [
        {
          "internalType": "string",
          "name": "",
          "type": "string"
        }
      ],
      "stateMutability": "view",
      "type": "function"
    },
    {
      "inputs": [
        {
          "internalType": "uint256",
          "name": "tokenId",
          "type": "uint256"
        }
      ],
      "name": "ownerOf",
      "outputs": [
        {
          "internalType": "address",
          "name": "",
          "type": "address"
        }
      ],
      "stateMutability": "view",
      "type": "function"
    },
    {
      "inputs": [
        {
          "internalType": "address",
          "name": "_from",
          "type": "address"
        },
        {
          "internalType": "address",
          "name": "_to",
          "type": "address"
        },
        {
          "internalType": "uint256",
          "name": "_tokenId",
          "type": "uint256"
        }
      ],
      "name": "safeTransferFrom",
      "outputs": [],
      "stateMutability": "nonpayable",
      "type": "function"
    },
    {
      "inputs": [
        {
          "internalType": "address",
          "name": "_from",
          "type": "address"
        },
        {
          "internalType": "address",
          "name": "_to",
          "type": "address"
        },
        {
          "internalType": "uint256",
          "name": "_tokenId",
          "type": "uint256"
        },
        {
          "internalType": "bytes",
          "name": "_data",
          "type": "bytes"
        }
      ],
      "name": "safeTransferFrom",
      "outputs": [],
      "stateMutability": "nonpayable",
      "type": "function"
    },
    {
      "inputs": [
        {
          "internalType": "contract IERC721",
          "name": "_nft",
          "type": "address"
        },
        {
          "internalType": "uint256",
          "name": "_tokenId",
          "type": "uint256"
        },
        {
          "internalType": "uint256",
          "name": "_price",
          "type": "uint256"
        }
      ],
      "name": "sellItem",
      "outputs": [],
      "stateMutability": "nonpayable",
      "type": "function"
    },
    {
      "inputs": [
        {
          "internalType": "address",
          "name": "operator",
          "type": "address"
        },
        {
          "internalType": "bool",
          "name": "approved",
          "type": "bool"
        }
      ],
      "name": "setApprovalForAll",
      "outputs": [],
      "stateMutability": "nonpayable",
      "type": "function"
    },
    {
      "inputs": [
        {
          "internalType": "address",
          "name": "_excluded",
          "type": "address"
        },
        {
          "internalType": "bool",
          "name": "_status",
          "type": "bool"
        }
      ],
      "name": "setExcluded",
      "outputs": [],
      "stateMutability": "nonpayable",
      "type": "function"
    },
    {
      "inputs": [
        {
          "internalType": "bytes4",
          "name": "interfaceId",
          "type": "bytes4"
        }
      ],
      "name": "supportsInterface",
      "outputs": [
        {
          "internalType": "bool",
          "name": "",
          "type": "bool"
        }
      ],
      "stateMutability": "view",
      "type": "function"
    },
    {
      "inputs": [],
      "name": "symbol",
      "outputs": [
        {
          "internalType": "string",
          "name": "",
          "type": "string"
        }
      ],
      "stateMutability": "view",
      "type": "function"
    },
    {
      "inputs": [
        {
          "internalType": "address",
          "name": "",
          "type": "address"
        }
      ],
      "name": "tokenApproved",
      "outputs": [
        {
          "internalType": "bool",
          "name": "",
          "type": "bool"
        }
      ],
      "stateMutability": "view",
      "type": "function"
    },
    {
      "inputs": [],
      "name": "tokenIdCounter",
      "outputs": [
        {
          "internalType": "uint256",
          "name": "_value",
          "type": "uint256"
        }
      ],
      "stateMutability": "view",
      "type": "function"
    },
    {
      "inputs": [
        {
          "internalType": "uint256",
          "name": "tokenId",
          "type": "uint256"
        }
      ],
      "name": "tokenURI",
      "outputs": [
        {
          "internalType": "string",
          "name": "",
          "type": "string"
        }
      ],
      "stateMutability": "view",
      "type": "function"
    },
    {
      "inputs": [
        {
          "internalType": "uint256",
          "name": "",
          "type": "uint256"
        }
      ],
      "name": "tokens",
      "outputs": [
        {
          "internalType": "uint256",
          "name": "id",
          "type": "uint256"
        },
        {
          "internalType": "string",
          "name": "URI",
          "type": "string"
        },
        {
          "internalType": "address",
          "name": "artist",
          "type": "address"
        },
        {
          "internalType": "uint256",
          "name": "taxFee",
          "type": "uint256"
        },
        {
          "internalType": "address",
          "name": "addressTaxFeeToken",
          "type": "address"
        }
      ],
      "stateMutability": "view",
      "type": "function"
    },
    {
      "inputs": [
        {
          "internalType": "address",
          "name": "_operator",
          "type": "address"
        },
        {
          "internalType": "address",
          "name": "_from",
          "type": "address"
        },
        {
          "internalType": "address",
          "name": "_to",
          "type": "address"
        },
        {
          "internalType": "uint256",
          "name": "_amount",
          "type": "uint256"
        },
        {
          "internalType": "bytes",
          "name": "_userData",
          "type": "bytes"
        },
        {
          "internalType": "bytes",
          "name": "_operatorData",
          "type": "bytes"
        }
      ],
      "name": "tokensReceived",
      "outputs": [],
      "stateMutability": "nonpayable",
      "type": "function"
    },
    {
      "inputs": [
        {
          "internalType": "address",
          "name": "_from",
          "type": "address"
        },
        {
          "internalType": "address",
          "name": "_to",
          "type": "address"
        },
        {
          "internalType": "uint256",
          "name": "_tokenId",
          "type": "uint256"
        }
      ],
      "name": "transferFrom",
      "outputs": [],
      "stateMutability": "nonpayable",
      "type": "function"
    },
    {
      "inputs": [],
      "name": "withdrawTokens",
      "outputs": [],
      "stateMutability": "nonpayable",
      "type": "function"
    }
  ],
  "bytecode": "0x60c06040523480156200001157600080fd5b5060405162005c3838038062005c38833981810160405281019062000037919062000253565b806040518060400160405280600681526020017f436f736d6f7300000000000000000000000000000000000000000000000000008152506040518060400160405280600481526020017f43534d53000000000000000000000000000000000000000000000000000000008152508160009081620000b59190620004ff565b508060019081620000c79190620004ff565b5050506001600781905550731820a4b7618bde71dce8cdc73aab6c95905fad2473ffffffffffffffffffffffffffffffffffffffff166329965a1d307fb281fc8c12954d22544db45de3159a39272895b169a852b314f9cc762e44c53b306040518463ffffffff1660e01b8152600401620001459392919062000612565b600060405180830381600087803b1580156200016057600080fd5b505af115801562000175573d6000803e3d6000fd5b505050508073ffffffffffffffffffffffffffffffffffffffff1660808173ffffffffffffffffffffffffffffffffffffffff16815250503373ffffffffffffffffffffffffffffffffffffffff1660a08173ffffffffffffffffffffffffffffffffffffffff168152505050506200064f565b600080fd5b600073ffffffffffffffffffffffffffffffffffffffff82169050919050565b60006200021b82620001ee565b9050919050565b6200022d816200020e565b81146200023957600080fd5b50565b6000815190506200024d8162000222565b92915050565b6000602082840312156200026c576200026b620001e9565b5b60006200027c848285016200023c565b91505092915050565b600081519050919050565b7f4e487b7100000000000000000000000000000000000000000000000000000000600052604160045260246000fd5b7f4e487b7100000000000000000000000000000000000000000000000000000000600052602260045260246000fd5b600060028204905060018216806200030757607f821691505b6020821081036200031d576200031c620002bf565b5b50919050565b60008190508160005260206000209050919050565b60006020601f8301049050919050565b600082821b905092915050565b600060088302620003877fffffffffffffffffffffffffffffffffffffffffffffffffffffffffffffffff8262000348565b62000393868362000348565b95508019841693508086168417925050509392505050565b6000819050919050565b6000819050919050565b6000620003e0620003da620003d484620003ab565b620003b5565b620003ab565b9050919050565b6000819050919050565b620003fc83620003bf565b620004146200040b82620003e7565b84845462000355565b825550505050565b600090565b6200042b6200041c565b62000438818484620003f1565b505050565b5b8181101562000460576200045460008262000421565b6001810190506200043e565b5050565b601f821115620004af57620004798162000323565b620004848462000338565b8101602085101562000494578190505b620004ac620004a38562000338565b8301826200043d565b50505b505050565b600082821c905092915050565b6000620004d460001984600802620004b4565b1980831691505092915050565b6000620004ef8383620004c1565b9150826002028217905092915050565b6200050a8262000285565b67ffffffffffffffff81111562000526576200052562000290565b5b620005328254620002ee565b6200053f82828562000464565b600060209050601f83116001811462000577576000841562000562578287015190505b6200056e8582620004e1565b865550620005de565b601f198416620005878662000323565b60005b82811015620005b1578489015182556001820191506020850194506020810190506200058a565b86831015620005d15784890151620005cd601f891682620004c1565b8355505b6001600288020188555050505b505050505050565b620005f1816200020e565b82525050565b6000819050919050565b6200060c81620005f7565b82525050565b6000606082019050620006296000830186620005e6565b62000638602083018562000601565b620006476040830184620005e6565b949350505050565b60805160a0516155996200069f60003960008181610fa401528181610fca015281816112e0015281816119890152611b95015260008181611a5c01528181611d1101526131e201526155996000f3fe6080604052600436106101b65760003560e01c806370a08231116100ec578063a22cb4651161008a578063bfb231d211610064578063bfb231d214610610578063c87b56dd14610656578063e985e9c514610693578063f958aada146106d0576101b6565b8063a22cb46514610593578063aa8c217c146105bc578063b88d4fde146105e7576101b6565b806398bdf6f5116100c657806398bdf6f5146104f85780639e70b75c146105235780639e8e4d1d1461054c5780639f37092a14610577576101b6565b806370a08231146104795780638d8f2adb146104b657806395d89b41146104cd576101b6565b80632836be24116101595780635dab2420116101335780635dab2420146103ab57806360c6a3c8146103d65780636352211e146104135780636891532714610450576101b6565b80632836be241461031857806342842e0e146103415780634f64b2be1461036a576101b6565b8063081812fc11610195578063081812fc1461024c578063095ea7b314610289578063170e2b8a146102b257806323b872dd146102ef576101b6565b806223de29146101bb57806301ffc9a7146101e457806306fdde0314610221575b600080fd5b3480156101c757600080fd5b506101e260048036038101906101dd91906138bf565b6106fb565b005b3480156101f057600080fd5b5061020b600480360381019061020691906139e6565b61071e565b6040516102189190613a2e565b60405180910390f35b34801561022d57600080fd5b50610236610800565b6040516102439190613ae2565b60405180910390f35b34801561025857600080fd5b50610273600480360381019061026e9190613b04565b610892565b6040516102809190613b40565b60405180910390f35b34801561029557600080fd5b506102b060048036038101906102ab9190613b5b565b6108d8565b005b3480156102be57600080fd5b506102d960048036038101906102d49190613b9b565b6109ef565b6040516102e69190613a2e565b60405180910390f35b3480156102fb57600080fd5b5061031660048036038101906103119190613bc8565b610a0f565b005b34801561032457600080fd5b5061033f600480360381019061033a9190613c47565b610be9565b005b34801561034d57600080fd5b5061036860048036038101906103639190613bc8565b610d4e565b005b34801561037657600080fd5b50610391600480360381019061038c9190613b04565b610ea4565b6040516103a2959493929190613c96565b60405180910390f35b3480156103b757600080fd5b506103c0610fa2565b6040516103cd9190613b40565b60405180910390f35b3480156103e257600080fd5b506103fd60048036038101906103f89190613e20565b610fc6565b60405161040a9190613ea3565b60405180910390f35b34801561041f57600080fd5b5061043a60048036038101906104359190613b04565b61122d565b6040516104479190613b40565b60405180910390f35b34801561045c57600080fd5b5061047760048036038101906104729190613efc565b6112de565b005b34801561048557600080fd5b506104a0600480360381019061049b9190613b9b565b6118d0565b6040516104ad9190613ea3565b60405180910390f35b3480156104c257600080fd5b506104cb611987565b005b3480156104d957600080fd5b506104e2611af5565b6040516104ef9190613ae2565b60405180910390f35b34801561050457600080fd5b5061050d611b87565b60405161051a9190613ea3565b60405180910390f35b34801561052f57600080fd5b5061054a60048036038101906105459190613b9b565b611b93565b005b34801561055857600080fd5b50610561611d0f565b60405161056e9190613fae565b60405180910390f35b610591600480360381019061058c9190613b5b565b611d33565b005b34801561059f57600080fd5b506105ba60048036038101906105b59190613c47565b6123ab565b005b3480156105c857600080fd5b506105d16123c1565b6040516105de9190613ea3565b60405180910390f35b3480156105f357600080fd5b5061060e6004803603810190610609919061406a565b6123c7565b005b34801561061c57600080fd5b5061063760048036038101906106329190613b04565b61255f565b60405161064d9a9998979695949392919061412f565b60405180910390f35b34801561066257600080fd5b5061067d60048036038101906106789190613b04565b6126c8565b60405161068a9190613ae2565b60405180910390f35b34801561069f57600080fd5b506106ba60048036038101906106b591906141d2565b6127da565b6040516106c79190613a2e565b60405180910390f35b3480156106dc57600080fd5b506106e561286e565b6040516106f29190613ea3565b60405180910390f35b846008600082825461070d9190614241565b925050819055505050505050505050565b60007f80ac58cd000000000000000000000000000000000000000000000000000000007bffffffffffffffffffffffffffffffffffffffffffffffffffffffff1916827bffffffffffffffffffffffffffffffffffffffffffffffffffffffff191614806107e957507f5b5e139f000000000000000000000000000000000000000000000000000000007bffffffffffffffffffffffffffffffffffffffffffffffffffffffff1916827bffffffffffffffffffffffffffffffffffffffffffffffffffffffff1916145b806107f957506107f88261287a565b5b9050919050565b60606000805461080f906142c6565b80601f016020809104026020016040519081016040528092919081815260200182805461083b906142c6565b80156108885780601f1061085d57610100808354040283529160200191610888565b820191906000526020600020905b81548152906001019060200180831161086b57829003601f168201915b5050505050905090565b600061089d826128e4565b6004600083815260200190815260200160002060009054906101000a900473ffffffffffffffffffffffffffffffffffffffff169050919050565b60006108e38261122d565b90508073ffffffffffffffffffffffffffffffffffffffff168373ffffffffffffffffffffffffffffffffffffffff1603610953576040517f08c379a000000000000000000000000000000000000000000000000000000000815260040161094a90614369565b60405180910390fd5b8073ffffffffffffffffffffffffffffffffffffffff1661097261292f565b73ffffffffffffffffffffffffffffffffffffffff1614806109a157506109a08161099b61292f565b6127da565b5b6109e0576040517f08c379a00000000000000000000000000000000000000000000000000000000081526004016109d7906143fb565b60405180910390fd5b6109ea8383612937565b505050565b600d6020528060005260406000206000915054906101000a900460ff1681565b3073ffffffffffffffffffffffffffffffffffffffff168273ffffffffffffffffffffffffffffffffffffffff1603610a5257610a4d8383836129f0565b610be4565b610a63610a5d61292f565b82612c56565b610aa2576040517f08c379a0000000000000000000000000000000000000000000000000000000008152600401610a999061448d565b60405180910390fd5b6000600c600083815260200190815260200160002060020160009054906101000a900473ffffffffffffffffffffffffffffffffffffffff16905060001515600f60008373ffffffffffffffffffffffffffffffffffffffff1673ffffffffffffffffffffffffffffffffffffffff16815260200190815260200160002060008673ffffffffffffffffffffffffffffffffffffffff1673ffffffffffffffffffffffffffffffffffffffff16815260200190815260200160002060009054906101000a900460ff16151503610bd7576000600c60008481526020019081526020016000206003015490506000600c600085815260200190815260200160002060040160009054906101000a900473ffffffffffffffffffffffffffffffffffffffff169050610bd486848484612ceb565b50505b610be28484846129f0565b505b505050565b3373ffffffffffffffffffffffffffffffffffffffff16600e60003373ffffffffffffffffffffffffffffffffffffffff1673ffffffffffffffffffffffffffffffffffffffff16815260200190815260200160002060009054906101000a900473ffffffffffffffffffffffffffffffffffffffff1673ffffffffffffffffffffffffffffffffffffffff1614610cb6576040517f08c379a0000000000000000000000000000000000000000000000000000000008152600401610cad9061451f565b60405180910390fd5b80600f60003373ffffffffffffffffffffffffffffffffffffffff1673ffffffffffffffffffffffffffffffffffffffff16815260200190815260200160002060008473ffffffffffffffffffffffffffffffffffffffff1673ffffffffffffffffffffffffffffffffffffffff16815260200190815260200160002060006101000a81548160ff0219169083151502179055505050565b6000600c600083815260200190815260200160002060020160009054906101000a900473ffffffffffffffffffffffffffffffffffffffff16905060001515600f60008373ffffffffffffffffffffffffffffffffffffffff1673ffffffffffffffffffffffffffffffffffffffff16815260200190815260200160002060008673ffffffffffffffffffffffffffffffffffffffff1673ffffffffffffffffffffffffffffffffffffffff16815260200190815260200160002060009054906101000a900460ff16151503610e83576000600c60008481526020019081526020016000206003015490506000600c600085815260200190815260200160002060040160009054906101000a900473ffffffffffffffffffffffffffffffffffffffff169050610e8086848484612ceb565b50505b610e9e848484604051806020016040528060008152506123c7565b50505050565b600c602052806000526040600020600091509050806000015490806001018054610ecd906142c6565b80601f0160208091040260200160405190810160405280929190818152602001828054610ef9906142c6565b8015610f465780601f10610f1b57610100808354040283529160200191610f46565b820191906000526020600020905b815481529060010190602001808311610f2957829003601f168201915b5050505050908060020160009054906101000a900473ffffffffffffffffffffffffffffffffffffffff16908060030154908060040160009054906101000a900473ffffffffffffffffffffffffffffffffffffffff16905085565b7f000000000000000000000000000000000000000000000000000000000000000081565b60007f000000000000000000000000000000000000000000000000000000000000000073ffffffffffffffffffffffffffffffffffffffff163373ffffffffffffffffffffffffffffffffffffffff1614611056576040517f08c379a000000000000000000000000000000000000000000000000000000000815260040161104d906145b1565b60405180910390fd5b83600e60008673ffffffffffffffffffffffffffffffffffffffff1673ffffffffffffffffffffffffffffffffffffffff16815260200190815260200160002060006101000a81548173ffffffffffffffffffffffffffffffffffffffff021916908373ffffffffffffffffffffffffffffffffffffffff16021790555060006110e0600a612e74565b90506110ec600a612e82565b6110f63382612e98565b6111008187612eb6565b6040518060a001604052808281526020018781526020018673ffffffffffffffffffffffffffffffffffffffff1681526020018581526020018473ffffffffffffffffffffffffffffffffffffffff16815250600c60008381526020019081526020016000206000820151816000015560208201518160010190816111859190614773565b5060408201518160020160006101000a81548173ffffffffffffffffffffffffffffffffffffffff021916908373ffffffffffffffffffffffffffffffffffffffff1602179055506060820151816003015560808201518160040160006101000a81548173ffffffffffffffffffffffffffffffffffffffff021916908373ffffffffffffffffffffffffffffffffffffffff16021790555090505080915050949350505050565b6000806002600084815260200190815260200160002060009054906101000a900473ffffffffffffffffffffffffffffffffffffffff169050600073ffffffffffffffffffffffffffffffffffffffff168173ffffffffffffffffffffffffffffffffffffffff16036112d5576040517f08c379a00000000000000000000000000000000000000000000000000000000081526004016112cc90614891565b60405180910390fd5b80915050919050565b7f000000000000000000000000000000000000000000000000000000000000000073ffffffffffffffffffffffffffffffffffffffff163373ffffffffffffffffffffffffffffffffffffffff161461136c576040517f08c379a0000000000000000000000000000000000000000000000000000000008152600401611363906145b1565b60405180910390fd5b6002600754036113b1576040517f08c379a00000000000000000000000000000000000000000000000000000000081526004016113a8906148fd565b60405180910390fd5b6002600781905550600081116113fc576040517f08c379a00000000000000000000000000000000000000000000000000000000081526004016113f390614969565b60405180910390fd5b6114066009612e82565b60006114126009612e74565b90508373ffffffffffffffffffffffffffffffffffffffff166323b872dd3330866040518463ffffffff1660e01b815260040161145193929190614989565b600060405180830381600087803b15801561146b57600080fd5b505af115801561147f573d6000803e3d6000fd5b505050506000600c60008581526020019081526020016000206040518060a0016040529081600082015481526020016001820180546114bd906142c6565b80601f01602080910402602001604051908101604052809291908181526020018280546114e9906142c6565b80156115365780601f1061150b57610100808354040283529160200191611536565b820191906000526020600020905b81548152906001019060200180831161151957829003601f168201915b505050505081526020016002820160009054906101000a900473ffffffffffffffffffffffffffffffffffffffff1673ffffffffffffffffffffffffffffffffffffffff1673ffffffffffffffffffffffffffffffffffffffff168152602001600382015481526020016004820160009054906101000a900473ffffffffffffffffffffffffffffffffffffffff1673ffffffffffffffffffffffffffffffffffffffff1673ffffffffffffffffffffffffffffffffffffffff1681525050905060006040518061014001604052808481526020018773ffffffffffffffffffffffffffffffffffffffff16815260200186815260200183602001518152602001858152602001836040015173ffffffffffffffffffffffffffffffffffffffff16815260200183606001518152602001836080015173ffffffffffffffffffffffffffffffffffffffff1681526020016000151581526020013373ffffffffffffffffffffffffffffffffffffffff16815250905080600b60008581526020019081526020016000206000820151816000015560208201518160010160006101000a81548173ffffffffffffffffffffffffffffffffffffffff021916908373ffffffffffffffffffffffffffffffffffffffff1602179055506040820151816002015560608201518160030190816117309190614773565b506080820151816004015560a08201518160050160006101000a81548173ffffffffffffffffffffffffffffffffffffffff021916908373ffffffffffffffffffffffffffffffffffffffff16021790555060c0820151816006015560e08201518160070160006101000a81548173ffffffffffffffffffffffffffffffffffffffff021916908373ffffffffffffffffffffffffffffffffffffffff1602179055506101008201518160070160146101000a81548160ff0219169083151502179055506101208201518160080160006101000a81548173ffffffffffffffffffffffffffffffffffffffff021916908373ffffffffffffffffffffffffffffffffffffffff1602179055509050503373ffffffffffffffffffffffffffffffffffffffff168673ffffffffffffffffffffffffffffffffffffffff167f975211cbc9861c9448d1a3c68ce608f0445c3ecf60a30bcca7fb923d4056b7948588866020015189886040015189606001518a608001516040516118b897969594939291906149c0565b60405180910390a35050506001600781905550505050565b60008073ffffffffffffffffffffffffffffffffffffffff168273ffffffffffffffffffffffffffffffffffffffff1603611940576040517f08c379a000000000000000000000000000000000000000000000000000000000815260040161193790614aa8565b60405180910390fd5b600360008373ffffffffffffffffffffffffffffffffffffffff1673ffffffffffffffffffffffffffffffffffffffff168152602001908152602001600020549050919050565b7f000000000000000000000000000000000000000000000000000000000000000073ffffffffffffffffffffffffffffffffffffffff163373ffffffffffffffffffffffffffffffffffffffff1614611a15576040517f08c379a0000000000000000000000000000000000000000000000000000000008152600401611a0c906145b1565b60405180910390fd5b600060085411611a5a576040517f08c379a0000000000000000000000000000000000000000000000000000000008152600401611a5190614b14565b60405180910390fd5b7f000000000000000000000000000000000000000000000000000000000000000073ffffffffffffffffffffffffffffffffffffffff166362ad1b8330336008546040518463ffffffff1660e01b8152600401611ab993929190614b6b565b600060405180830381600087803b158015611ad357600080fd5b505af1158015611ae7573d6000803e3d6000fd5b505050506000600881905550565b606060018054611b04906142c6565b80601f0160208091040260200160405190810160405280929190818152602001828054611b30906142c6565b8015611b7d5780601f10611b5257610100808354040283529160200191611b7d565b820191906000526020600020905b815481529060010190602001808311611b6057829003601f168201915b5050505050905090565b600a8060000154905081565b7f000000000000000000000000000000000000000000000000000000000000000073ffffffffffffffffffffffffffffffffffffffff163373ffffffffffffffffffffffffffffffffffffffff1614611c21576040517f08c379a0000000000000000000000000000000000000000000000000000000008152600401611c18906145b1565b60405180910390fd5b60001515600d60008373ffffffffffffffffffffffffffffffffffffffff1673ffffffffffffffffffffffffffffffffffffffff16815260200190815260200160002060009054906101000a900460ff16151514611cb4576040517f08c379a0000000000000000000000000000000000000000000000000000000008152600401611cab90614c14565b60405180910390fd5b6001600d60008373ffffffffffffffffffffffffffffffffffffffff1673ffffffffffffffffffffffffffffffffffffffff16815260200190815260200160002060006101000a81548160ff02191690831515021790555050565b7f000000000000000000000000000000000000000000000000000000000000000081565b600260075403611d78576040517f08c379a0000000000000000000000000000000000000000000000000000000008152600401611d6f906148fd565b60405180910390fd5b60026007819055506000600b60008381526020019081526020016000206004015490506000600b6000848152602001908152602001600020905060011515600d60008673ffffffffffffffffffffffffffffffffffffffff1673ffffffffffffffffffffffffffffffffffffffff16815260200190815260200160002060009054906101000a900460ff16151514611e45576040517f08c379a0000000000000000000000000000000000000000000000000000000008152600401611e3c90614c80565b60405180910390fd5b818473ffffffffffffffffffffffffffffffffffffffff1663f38e266a336040518263ffffffff1660e01b8152600401611e7f9190613b40565b602060405180830381865afa158015611e9c573d6000803e3d6000fd5b505050506040513d601f19601f82011682018060405250810190611ec09190614cb5565b11611f00576040517f08c379a0000000000000000000000000000000000000000000000000000000008152600401611ef790614d2e565b60405180910390fd5b600083118015611f195750611f156009612e74565b8311155b611f58576040517f08c379a0000000000000000000000000000000000000000000000000000000008152600401611f4f90614d9a565b60405180910390fd5b8060070160149054906101000a900460ff1615611faa576040517f08c379a0000000000000000000000000000000000000000000000000000000008152600401611fa190614e06565b60405180910390fd5b8373ffffffffffffffffffffffffffffffffffffffff166325e8e00c33846040518363ffffffff1660e01b8152600401611fe5929190614e26565b6020604051808303816000875af1158015612004573d6000803e3d6000fd5b505050506040513d601f19601f820116820180604052508101906120289190614e64565b612067576040517f08c379a000000000000000000000000000000000000000000000000000000000815260040161205e90614edd565b60405180910390fd5b8060010160009054906101000a900473ffffffffffffffffffffffffffffffffffffffff1673ffffffffffffffffffffffffffffffffffffffff166323b872dd303384600201546040518463ffffffff1660e01b81526004016120cc93929190614989565b600060405180830381600087803b1580156120e657600080fd5b505af11580156120fa573d6000803e3d6000fd5b505050506000600b6000858152602001908152602001600020905060018160070160146101000a81548160ff0219169083151502179055506000600c6000836002015481526020019081526020016000206040518060a001604052908160008201548152602001600182018054612170906142c6565b80601f016020809104026020016040519081016040528092919081815260200182805461219c906142c6565b80156121e95780601f106121be576101008083540402835291602001916121e9565b820191906000526020600020905b8154815290600101906020018083116121cc57829003601f168201915b505050505081526020016002820160009054906101000a900473ffffffffffffffffffffffffffffffffffffffff1673ffffffffffffffffffffffffffffffffffffffff1673ffffffffffffffffffffffffffffffffffffffff168152602001600382015481526020016004820160009054906101000a900473ffffffffffffffffffffffffffffffffffffffff1673ffffffffffffffffffffffffffffffffffffffff1673ffffffffffffffffffffffffffffffffffffffff168152505090503373ffffffffffffffffffffffffffffffffffffffff168360010160009054906101000a900473ffffffffffffffffffffffffffffffffffffffff1673ffffffffffffffffffffffffffffffffffffffff167fdc7540e6f6fa2d49abe473a1fbe2315ef51c17ba1d7611cde26c6da3adfac3ef85600001548660020154856020015188600401548960050160009054906101000a900473ffffffffffffffffffffffffffffffffffffffff168a600601548b60070160009054906101000a900473ffffffffffffffffffffffffffffffffffffffff1660405161239397969594939291906149c0565b60405180910390a35050505060016007819055505050565b6123bd6123b661292f565b8383612f23565b5050565b60085481565b6123d86123d261292f565b83612c56565b612417576040517f08c379a000000000000000000000000000000000000000000000000000000000815260040161240e9061448d565b60405180910390fd5b6000600c600084815260200190815260200160002060020160009054906101000a900473ffffffffffffffffffffffffffffffffffffffff16905060001515600f60008373ffffffffffffffffffffffffffffffffffffffff1673ffffffffffffffffffffffffffffffffffffffff16815260200190815260200160002060008773ffffffffffffffffffffffffffffffffffffffff1673ffffffffffffffffffffffffffffffffffffffff16815260200190815260200160002060009054906101000a900460ff1615150361254c576000600c60008581526020019081526020016000206003015490506000600c600086815260200190815260200160002060040160009054906101000a900473ffffffffffffffffffffffffffffffffffffffff16905061254987848484612ceb565b50505b6125588585858561308f565b5050505050565b600b6020528060005260406000206000915090508060000154908060010160009054906101000a900473ffffffffffffffffffffffffffffffffffffffff16908060020154908060030180546125b4906142c6565b80601f01602080910402602001604051908101604052809291908181526020018280546125e0906142c6565b801561262d5780601f106126025761010080835404028352916020019161262d565b820191906000526020600020905b81548152906001019060200180831161261057829003601f168201915b5050505050908060040154908060050160009054906101000a900473ffffffffffffffffffffffffffffffffffffffff16908060060154908060070160009054906101000a900473ffffffffffffffffffffffffffffffffffffffff16908060070160149054906101000a900460ff16908060080160009054906101000a900473ffffffffffffffffffffffffffffffffffffffff1690508a565b60606126d3826128e4565b60006006600084815260200190815260200160002080546126f3906142c6565b80601f016020809104026020016040519081016040528092919081815260200182805461271f906142c6565b801561276c5780601f106127415761010080835404028352916020019161276c565b820191906000526020600020905b81548152906001019060200180831161274f57829003601f168201915b50505050509050600061277d6130eb565b905060008151036127925781925050506127d5565b6000825111156127c75780826040516020016127af929190614f39565b604051602081830303815290604052925050506127d5565b6127d084613102565b925050505b919050565b6000600560008473ffffffffffffffffffffffffffffffffffffffff1673ffffffffffffffffffffffffffffffffffffffff16815260200190815260200160002060008373ffffffffffffffffffffffffffffffffffffffff1673ffffffffffffffffffffffffffffffffffffffff16815260200190815260200160002060009054906101000a900460ff16905092915050565b60098060000154905081565b60007f01ffc9a7000000000000000000000000000000000000000000000000000000007bffffffffffffffffffffffffffffffffffffffffffffffffffffffff1916827bffffffffffffffffffffffffffffffffffffffffffffffffffffffff1916149050919050565b6128ed8161316a565b61292c576040517f08c379a000000000000000000000000000000000000000000000000000000000815260040161292390614891565b60405180910390fd5b50565b600033905090565b816004600083815260200190815260200160002060006101000a81548173ffffffffffffffffffffffffffffffffffffffff021916908373ffffffffffffffffffffffffffffffffffffffff160217905550808273ffffffffffffffffffffffffffffffffffffffff166129aa8361122d565b73ffffffffffffffffffffffffffffffffffffffff167f8c5be1e5ebec7d5bd14f71427d1e84f3dd0314c0f7b2291e5b200ac8c7c3b92560405160405180910390a45050565b8273ffffffffffffffffffffffffffffffffffffffff16612a108261122d565b73ffffffffffffffffffffffffffffffffffffffff1614612a66576040517f08c379a0000000000000000000000000000000000000000000000000000000008152600401612a5d90614fcf565b60405180910390fd5b600073ffffffffffffffffffffffffffffffffffffffff168273ffffffffffffffffffffffffffffffffffffffff1603612ad5576040517f08c379a0000000000000000000000000000000000000000000000000000000008152600401612acc90615061565b60405180910390fd5b612ae08383836131d6565b612aeb600082612937565b6001600360008573ffffffffffffffffffffffffffffffffffffffff1673ffffffffffffffffffffffffffffffffffffffff1681526020019081526020016000206000828254612b3b9190615081565b925050819055506001600360008473ffffffffffffffffffffffffffffffffffffffff1673ffffffffffffffffffffffffffffffffffffffff1681526020019081526020016000206000828254612b929190614241565b92505081905550816002600083815260200190815260200160002060006101000a81548173ffffffffffffffffffffffffffffffffffffffff021916908373ffffffffffffffffffffffffffffffffffffffff160217905550808273ffffffffffffffffffffffffffffffffffffffff168473ffffffffffffffffffffffffffffffffffffffff167fddf252ad1be2c89b69c2b068fc378daa952ba7f163c4a11628f55a4df523b3ef60405160405180910390a4612c518383836131db565b505050565b600080612c628361122d565b90508073ffffffffffffffffffffffffffffffffffffffff168473ffffffffffffffffffffffffffffffffffffffff161480612ca45750612ca381856127da565b5b80612ce257508373ffffffffffffffffffffffffffffffffffffffff16612cca84610892565b73ffffffffffffffffffffffffffffffffffffffff16145b91505092915050565b818173ffffffffffffffffffffffffffffffffffffffff1663f38e266a866040518263ffffffff1660e01b8152600401612d259190613b40565b602060405180830381865afa158015612d42573d6000803e3d6000fd5b505050506040513d601f19601f82011682018060405250810190612d669190614cb5565b11612da6576040517f08c379a0000000000000000000000000000000000000000000000000000000008152600401612d9d90614d2e565b60405180910390fd5b8073ffffffffffffffffffffffffffffffffffffffff166325e8e00c85846040518363ffffffff1660e01b8152600401612de1929190614e26565b6020604051808303816000875af1158015612e00573d6000803e3d6000fd5b505050506040513d601f19601f82011682018060405250810190612e249190614e64565b612e63576040517f08c379a0000000000000000000000000000000000000000000000000000000008152600401612e5a90615101565b60405180910390fd5b612e6e8484846131e0565b50505050565b600081600001549050919050565b6001816000016000828254019250508190555050565b612eb2828260405180602001604052806000815250613274565b5050565b612ebf8261316a565b612efe576040517f08c379a0000000000000000000000000000000000000000000000000000000008152600401612ef590615193565b60405180910390fd5b80600660008481526020019081526020016000209081612f1e9190614773565b505050565b8173ffffffffffffffffffffffffffffffffffffffff168373ffffffffffffffffffffffffffffffffffffffff1603612f91576040517f08c379a0000000000000000000000000000000000000000000000000000000008152600401612f88906151ff565b60405180910390fd5b80600560008573ffffffffffffffffffffffffffffffffffffffff1673ffffffffffffffffffffffffffffffffffffffff16815260200190815260200160002060008473ffffffffffffffffffffffffffffffffffffffff1673ffffffffffffffffffffffffffffffffffffffff16815260200190815260200160002060006101000a81548160ff0219169083151502179055508173ffffffffffffffffffffffffffffffffffffffff168373ffffffffffffffffffffffffffffffffffffffff167f17307eab39ab6107e8899845ad3d59bd9653f200f220920489ca2b5937696c31836040516130829190613a2e565b60405180910390a3505050565b61309a8484846129f0565b6130a6848484846132cf565b6130e5576040517f08c379a00000000000000000000000000000000000000000000000000000000081526004016130dc90615291565b60405180910390fd5b50505050565b606060405180602001604052806000815250905090565b606061310d826128e4565b60006131176130eb565b905060008151116131375760405180602001604052806000815250613162565b8061314184613456565b604051602001613152929190614f39565b6040516020818303038152906040525b915050919050565b60008073ffffffffffffffffffffffffffffffffffffffff166002600084815260200190815260200160002060009054906101000a900473ffffffffffffffffffffffffffffffffffffffff1673ffffffffffffffffffffffffffffffffffffffff1614159050919050565b505050565b505050565b7f000000000000000000000000000000000000000000000000000000000000000073ffffffffffffffffffffffffffffffffffffffff166362ad1b838484846040518463ffffffff1660e01b815260040161323d93929190614b6b565b600060405180830381600087803b15801561325757600080fd5b505af115801561326b573d6000803e3d6000fd5b50505050505050565b61327e83836135b6565b61328b60008484846132cf565b6132ca576040517f08c379a00000000000000000000000000000000000000000000000000000000081526004016132c190615291565b60405180910390fd5b505050565b60006132f08473ffffffffffffffffffffffffffffffffffffffff1661378f565b15613449578373ffffffffffffffffffffffffffffffffffffffff1663150b7a0261331961292f565b8786866040518563ffffffff1660e01b815260040161333b94939291906152f5565b6020604051808303816000875af192505050801561337757506040513d601f19601f820116820180604052508101906133749190615356565b60015b6133f9573d80600081146133a7576040519150601f19603f3d011682016040523d82523d6000602084013e6133ac565b606091505b5060008151036133f1576040517f08c379a00000000000000000000000000000000000000000000000000000000081526004016133e890615291565b60405180910390fd5b805181602001fd5b63150b7a0260e01b7bffffffffffffffffffffffffffffffffffffffffffffffffffffffff1916817bffffffffffffffffffffffffffffffffffffffffffffffffffffffff19161491505061344e565b600190505b949350505050565b60606000820361349d576040518060400160405280600181526020017f300000000000000000000000000000000000000000000000000000000000000081525090506135b1565b600082905060005b600082146134cf5780806134b890615383565b915050600a826134c891906153fa565b91506134a5565b60008167ffffffffffffffff8111156134eb576134ea613cf5565b5b6040519080825280601f01601f19166020018201604052801561351d5781602001600182028036833780820191505090505b5090505b600085146135aa576001826135369190615081565b9150600a85613545919061542b565b60306135519190614241565b60f81b8183815181106135675761356661545c565b5b60200101907effffffffffffffffffffffffffffffffffffffffffffffffffffffffffffff1916908160001a905350600a856135a391906153fa565b9450613521565b8093505050505b919050565b600073ffffffffffffffffffffffffffffffffffffffff168273ffffffffffffffffffffffffffffffffffffffff1603613625576040517f08c379a000000000000000000000000000000000000000000000000000000000815260040161361c906154d7565b60405180910390fd5b61362e8161316a565b1561366e576040517f08c379a000000000000000000000000000000000000000000000000000000000815260040161366590615543565b60405180910390fd5b61367a600083836131d6565b6001600360008473ffffffffffffffffffffffffffffffffffffffff1673ffffffffffffffffffffffffffffffffffffffff16815260200190815260200160002060008282546136ca9190614241565b92505081905550816002600083815260200190815260200160002060006101000a81548173ffffffffffffffffffffffffffffffffffffffff021916908373ffffffffffffffffffffffffffffffffffffffff160217905550808273ffffffffffffffffffffffffffffffffffffffff16600073ffffffffffffffffffffffffffffffffffffffff167fddf252ad1be2c89b69c2b068fc378daa952ba7f163c4a11628f55a4df523b3ef60405160405180910390a461378b600083836131db565b5050565b6000808273ffffffffffffffffffffffffffffffffffffffff163b119050919050565b6000604051905090565b600080fd5b600080fd5b600073ffffffffffffffffffffffffffffffffffffffff82169050919050565b60006137f1826137c6565b9050919050565b613801816137e6565b811461380c57600080fd5b50565b60008135905061381e816137f8565b92915050565b6000819050919050565b61383781613824565b811461384257600080fd5b50565b6000813590506138548161382e565b92915050565b600080fd5b600080fd5b600080fd5b60008083601f84011261387f5761387e61385a565b5b8235905067ffffffffffffffff81111561389c5761389b61385f565b5b6020830191508360018202830111156138b8576138b7613864565b5b9250929050565b60008060008060008060008060c0898b0312156138df576138de6137bc565b5b60006138ed8b828c0161380f565b98505060206138fe8b828c0161380f565b975050604061390f8b828c0161380f565b96505060606139208b828c01613845565b955050608089013567ffffffffffffffff811115613941576139406137c1565b5b61394d8b828c01613869565b945094505060a089013567ffffffffffffffff8111156139705761396f6137c1565b5b61397c8b828c01613869565b92509250509295985092959890939650565b60007fffffffff0000000000000000000000000000000000000000000000000000000082169050919050565b6139c38161398e565b81146139ce57600080fd5b50565b6000813590506139e0816139ba565b92915050565b6000602082840312156139fc576139fb6137bc565b5b6000613a0a848285016139d1565b91505092915050565b60008115159050919050565b613a2881613a13565b82525050565b6000602082019050613a436000830184613a1f565b92915050565b600081519050919050565b600082825260208201905092915050565b60005b83811015613a83578082015181840152602081019050613a68565b83811115613a92576000848401525b50505050565b6000601f19601f8301169050919050565b6000613ab482613a49565b613abe8185613a54565b9350613ace818560208601613a65565b613ad781613a98565b840191505092915050565b60006020820190508181036000830152613afc8184613aa9565b905092915050565b600060208284031215613b1a57613b196137bc565b5b6000613b2884828501613845565b91505092915050565b613b3a816137e6565b82525050565b6000602082019050613b556000830184613b31565b92915050565b60008060408385031215613b7257613b716137bc565b5b6000613b808582860161380f565b9250506020613b9185828601613845565b9150509250929050565b600060208284031215613bb157613bb06137bc565b5b6000613bbf8482850161380f565b91505092915050565b600080600060608486031215613be157613be06137bc565b5b6000613bef8682870161380f565b9350506020613c008682870161380f565b9250506040613c1186828701613845565b9150509250925092565b613c2481613a13565b8114613c2f57600080fd5b50565b600081359050613c4181613c1b565b92915050565b60008060408385031215613c5e57613c5d6137bc565b5b6000613c6c8582860161380f565b9250506020613c7d85828601613c32565b9150509250929050565b613c9081613824565b82525050565b600060a082019050613cab6000830188613c87565b8181036020830152613cbd8187613aa9565b9050613ccc6040830186613b31565b613cd96060830185613c87565b613ce66080830184613b31565b9695505050505050565b600080fd5b7f4e487b7100000000000000000000000000000000000000000000000000000000600052604160045260246000fd5b613d2d82613a98565b810181811067ffffffffffffffff82111715613d4c57613d4b613cf5565b5b80604052505050565b6000613d5f6137b2565b9050613d6b8282613d24565b919050565b600067ffffffffffffffff821115613d8b57613d8a613cf5565b5b613d9482613a98565b9050602081019050919050565b82818337600083830152505050565b6000613dc3613dbe84613d70565b613d55565b905082815260208101848484011115613ddf57613dde613cf0565b5b613dea848285613da1565b509392505050565b600082601f830112613e0757613e0661385a565b5b8135613e17848260208601613db0565b91505092915050565b60008060008060808587031215613e3a57613e396137bc565b5b600085013567ffffffffffffffff811115613e5857613e576137c1565b5b613e6487828801613df2565b9450506020613e758782880161380f565b9350506040613e8687828801613845565b9250506060613e978782880161380f565b91505092959194509250565b6000602082019050613eb86000830184613c87565b92915050565b6000613ec9826137e6565b9050919050565b613ed981613ebe565b8114613ee457600080fd5b50565b600081359050613ef681613ed0565b92915050565b600080600060608486031215613f1557613f146137bc565b5b6000613f2386828701613ee7565b9350506020613f3486828701613845565b9250506040613f4586828701613845565b9150509250925092565b6000819050919050565b6000613f74613f6f613f6a846137c6565b613f4f565b6137c6565b9050919050565b6000613f8682613f59565b9050919050565b6000613f9882613f7b565b9050919050565b613fa881613f8d565b82525050565b6000602082019050613fc36000830184613f9f565b92915050565b600067ffffffffffffffff821115613fe457613fe3613cf5565b5b613fed82613a98565b9050602081019050919050565b600061400d61400884613fc9565b613d55565b90508281526020810184848401111561402957614028613cf0565b5b614034848285613da1565b509392505050565b600082601f8301126140515761405061385a565b5b8135614061848260208601613ffa565b91505092915050565b60008060008060808587031215614084576140836137bc565b5b60006140928782880161380f565b94505060206140a38782880161380f565b93505060406140b487828801613845565b925050606085013567ffffffffffffffff8111156140d5576140d46137c1565b5b6140e18782880161403c565b91505092959194509250565b60006140f882613f7b565b9050919050565b614108816140ed565b82525050565b6000614119826137c6565b9050919050565b6141298161410e565b82525050565b600061014082019050614145600083018d613c87565b614152602083018c6140ff565b61415f604083018b613c87565b8181036060830152614171818a613aa9565b90506141806080830189613c87565b61418d60a0830188613b31565b61419a60c0830187613c87565b6141a760e0830186613b31565b6141b5610100830185613a1f565b6141c3610120830184614120565b9b9a5050505050505050505050565b600080604083850312156141e9576141e86137bc565b5b60006141f78582860161380f565b92505060206142088582860161380f565b9150509250929050565b7f4e487b7100000000000000000000000000000000000000000000000000000000600052601160045260246000fd5b600061424c82613824565b915061425783613824565b9250827fffffffffffffffffffffffffffffffffffffffffffffffffffffffffffffffff0382111561428c5761428b614212565b5b828201905092915050565b7f4e487b7100000000000000000000000000000000000000000000000000000000600052602260045260246000fd5b600060028204905060018216806142de57607f821691505b6020821081036142f1576142f0614297565b5b50919050565b7f4552433732313a20617070726f76616c20746f2063757272656e74206f776e6560008201527f7200000000000000000000000000000000000000000000000000000000000000602082015250565b6000614353602183613a54565b915061435e826142f7565b604082019050919050565b6000602082019050818103600083015261438281614346565b9050919050565b7f4552433732313a20617070726f76652063616c6c6572206973206e6f7420746f60008201527f6b656e206f776e6572206e6f7220617070726f76656420666f7220616c6c0000602082015250565b60006143e5603e83613a54565b91506143f082614389565b604082019050919050565b60006020820190508181036000830152614414816143d8565b9050919050565b7f4552433732313a207472616e736665722063616c6c6572206973206e6f74206f60008201527f776e6572206e6f7220617070726f766564000000000000000000000000000000602082015250565b6000614477603183613a54565b91506144828261441b565b604082019050919050565b600060208201905081810360008301526144a68161446a565b9050919050565b7f646f65736e277420686173204e46547320696e20746865206d61726b6574706c60008201527f6163650000000000000000000000000000000000000000000000000000000000602082015250565b6000614509602383613a54565b9150614514826144ad565b604082019050919050565b60006020820190508181036000830152614538816144fc565b9050919050565b7f4d61726b6574506c616365436f6e74726163743a2063616c6c6572206973206e60008201527f6f7420746865206f776e65720000000000000000000000000000000000000000602082015250565b600061459b602c83613a54565b91506145a68261453f565b604082019050919050565b600060208201905081810360008301526145ca8161458e565b9050919050565b60008190508160005260206000209050919050565b60006020601f8301049050919050565b600082821b905092915050565b6000600883026146337fffffffffffffffffffffffffffffffffffffffffffffffffffffffffffffffff826145f6565b61463d86836145f6565b95508019841693508086168417925050509392505050565b600061467061466b61466684613824565b613f4f565b613824565b9050919050565b6000819050919050565b61468a83614655565b61469e61469682614677565b848454614603565b825550505050565b600090565b6146b36146a6565b6146be818484614681565b505050565b5b818110156146e2576146d76000826146ab565b6001810190506146c4565b5050565b601f821115614727576146f8816145d1565b614701846145e6565b81016020851015614710578190505b61472461471c856145e6565b8301826146c3565b50505b505050565b600082821c905092915050565b600061474a6000198460080261472c565b1980831691505092915050565b60006147638383614739565b9150826002028217905092915050565b61477c82613a49565b67ffffffffffffffff81111561479557614794613cf5565b5b61479f82546142c6565b6147aa8282856146e6565b600060209050601f8311600181146147dd57600084156147cb578287015190505b6147d58582614757565b86555061483d565b601f1984166147eb866145d1565b60005b82811015614813578489015182556001820191506020850194506020810190506147ee565b86831015614830578489015161482c601f891682614739565b8355505b6001600288020188555050505b505050505050565b7f4552433732313a20696e76616c696420746f6b656e2049440000000000000000600082015250565b600061487b601883613a54565b915061488682614845565b602082019050919050565b600060208201905081810360008301526148aa8161486e565b9050919050565b7f5265656e7472616e637947756172643a207265656e7472616e742063616c6c00600082015250565b60006148e7601f83613a54565b91506148f2826148b1565b602082019050919050565b60006020820190508181036000830152614916816148da565b9050919050565b7f5072696365206d75737420626520677265617465722074686174203000000000600082015250565b6000614953601c83613a54565b915061495e8261491d565b602082019050919050565b6000602082019050818103600083015261498281614946565b9050919050565b600060608201905061499e6000830186613b31565b6149ab6020830185613b31565b6149b86040830184613c87565b949350505050565b600060e0820190506149d5600083018a613c87565b6149e26020830189613c87565b81810360408301526149f48188613aa9565b9050614a036060830187613c87565b614a106080830186613b31565b614a1d60a0830185613c87565b614a2a60c0830184613b31565b98975050505050505050565b7f4552433732313a2061646472657373207a65726f206973206e6f74206120766160008201527f6c6964206f776e65720000000000000000000000000000000000000000000000602082015250565b6000614a92602983613a54565b9150614a9d82614a36565b604082019050919050565b60006020820190508181036000830152614ac181614a85565b9050919050565b7f546865726520646f6e277420626520746f6b656e730000000000000000000000600082015250565b6000614afe601583613a54565b9150614b0982614ac8565b602082019050919050565b60006020820190508181036000830152614b2d81614af1565b9050919050565b600082825260208201905092915050565b50565b6000614b55600083614b34565b9150614b6082614b45565b600082019050919050565b600060a082019050614b806000830186613b31565b614b8d6020830185613b31565b614b9a6040830184613c87565b8181036060830152614bab81614b48565b90508181036080830152614bbe81614b48565b9050949350505050565b7f5468697320746f6b656e20697320616c726561647920617070726f7665640000600082015250565b6000614bfe601e83613a54565b9150614c0982614bc8565b602082019050919050565b60006020820190508181036000830152614c2d81614bf1565b9050919050565b7f576520646f6e277420616363657074207468697320746f6b656e000000000000600082015250565b6000614c6a601a83613a54565b9150614c7582614c34565b602082019050919050565b60006020820190508181036000830152614c9981614c5d565b9050919050565b600081519050614caf8161382e565b92915050565b600060208284031215614ccb57614cca6137bc565b5b6000614cd984828501614ca0565b91505092915050565b7f496e73756666696369656e7420746f6b656e7300000000000000000000000000600082015250565b6000614d18601383613a54565b9150614d2382614ce2565b602082019050919050565b60006020820190508181036000830152614d4781614d0b565b9050919050565b7f4974656d20646f6e277420657869737400000000000000000000000000000000600082015250565b6000614d84601083613a54565b9150614d8f82614d4e565b602082019050919050565b60006020820190508181036000830152614db381614d77565b9050919050565b7f4974656d20616c726561647920736f6c64000000000000000000000000000000600082015250565b6000614df0601183613a54565b9150614dfb82614dba565b602082019050919050565b60006020820190508181036000830152614e1f81614de3565b9050919050565b6000604082019050614e3b6000830185613b31565b614e486020830184613c87565b9392505050565b600081519050614e5e81613c1b565b92915050565b600060208284031215614e7a57614e796137bc565b5b6000614e8884828501614e4f565b91505092915050565b7f596f75722066756e64732061726520696e73756666696369656e740000000000600082015250565b6000614ec7601b83613a54565b9150614ed282614e91565b602082019050919050565b60006020820190508181036000830152614ef681614eba565b9050919050565b600081905092915050565b6000614f1382613a49565b614f1d8185614efd565b9350614f2d818560208601613a65565b80840191505092915050565b6000614f458285614f08565b9150614f518284614f08565b91508190509392505050565b7f4552433732313a207472616e736665722066726f6d20696e636f72726563742060008201527f6f776e6572000000000000000000000000000000000000000000000000000000602082015250565b6000614fb9602583613a54565b9150614fc482614f5d565b604082019050919050565b60006020820190508181036000830152614fe881614fac565b9050919050565b7f4552433732313a207472616e7366657220746f20746865207a65726f2061646460008201527f7265737300000000000000000000000000000000000000000000000000000000602082015250565b600061504b602483613a54565b915061505682614fef565b604082019050919050565b6000602082019050818103600083015261507a8161503e565b9050919050565b600061508c82613824565b915061509783613824565b9250828210156150aa576150a9614212565b5b828203905092915050565b7f596f75722066756e64732061726520696e73756666696369656e747300000000600082015250565b60006150eb601c83613a54565b91506150f6826150b5565b602082019050919050565b6000602082019050818103600083015261511a816150de565b9050919050565b7f45524337323155524953746f726167653a2055524920736574206f66206e6f6e60008201527f6578697374656e7420746f6b656e000000000000000000000000000000000000602082015250565b600061517d602e83613a54565b915061518882615121565b604082019050919050565b600060208201905081810360008301526151ac81615170565b9050919050565b7f4552433732313a20617070726f766520746f2063616c6c657200000000000000600082015250565b60006151e9601983613a54565b91506151f4826151b3565b602082019050919050565b60006020820190508181036000830152615218816151dc565b9050919050565b7f4552433732313a207472616e7366657220746f206e6f6e20455243373231526560008201527f63656976657220696d706c656d656e7465720000000000000000000000000000602082015250565b600061527b603283613a54565b91506152868261521f565b604082019050919050565b600060208201905081810360008301526152aa8161526e565b9050919050565b600081519050919050565b60006152c7826152b1565b6152d18185614b34565b93506152e1818560208601613a65565b6152ea81613a98565b840191505092915050565b600060808201905061530a6000830187613b31565b6153176020830186613b31565b6153246040830185613c87565b818103606083015261533681846152bc565b905095945050505050565b600081519050615350816139ba565b92915050565b60006020828403121561536c5761536b6137bc565b5b600061537a84828501615341565b91505092915050565b600061538e82613824565b91507fffffffffffffffffffffffffffffffffffffffffffffffffffffffffffffffff82036153c0576153bf614212565b5b600182019050919050565b7f4e487b7100000000000000000000000000000000000000000000000000000000600052601260045260246000fd5b600061540582613824565b915061541083613824565b9250826154205761541f6153cb565b5b828204905092915050565b600061543682613824565b915061544183613824565b925082615451576154506153cb565b5b828206905092915050565b7f4e487b7100000000000000000000000000000000000000000000000000000000600052603260045260246000fd5b7f4552433732313a206d696e7420746f20746865207a65726f2061646472657373600082015250565b60006154c1602083613a54565b91506154cc8261548b565b602082019050919050565b600060208201905081810360008301526154f0816154b4565b9050919050565b7f4552433732313a20746f6b656e20616c7265616479206d696e74656400000000600082015250565b600061552d601c83613a54565b9150615538826154f7565b602082019050919050565b6000602082019050818103600083015261555c81615520565b905091905056fea2646970667358221220dcb0bd75a6e06673795905e49ccb65287a2f5eb3ebe7ddaa305b8b141b292a8064736f6c634300080f0033",
  "linkReferences": {},
  "deployedLinkReferences": {}
}