{
  "_format": "hh-sol-artifact-1",
  "contractName": "MarketPlaceContract",
  "sourceName": "src/blockchain/hardhat/contracts/MarketPlaceContract.sol",
  "abi": [
    {
      "inputs": [
        {
          "internalType": "address",
          "name": "_erc777Address",
          "type": "address"
        }
      ],
      "stateMutability": "nonpayable",
      "type": "constructor"
    },
    {
      "anonymous": false,
      "inputs": [
        {
          "indexed": true,
          "internalType": "address",
          "name": "owner",
          "type": "address"
        },
        {
          "indexed": true,
          "internalType": "address",
          "name": "approved",
          "type": "address"
        },
        {
          "indexed": true,
          "internalType": "uint256",
          "name": "tokenId",
          "type": "uint256"
        }
      ],
      "name": "Approval",
      "type": "event"
    },
    {
      "anonymous": false,
      "inputs": [
        {
          "indexed": true,
          "internalType": "address",
          "name": "owner",
          "type": "address"
        },
        {
          "indexed": true,
          "internalType": "address",
          "name": "operator",
          "type": "address"
        },
        {
          "indexed": false,
          "internalType": "bool",
          "name": "approved",
          "type": "bool"
        }
      ],
      "name": "ApprovalForAll",
      "type": "event"
    },
    {
      "anonymous": false,
      "inputs": [
        {
          "indexed": false,
          "internalType": "uint256",
          "name": "_itemId",
          "type": "uint256"
        },
        {
          "indexed": true,
          "internalType": "address",
          "name": "_nft",
          "type": "address"
        },
        {
          "indexed": false,
          "internalType": "uint256",
          "name": "_tokenId",
          "type": "uint256"
        },
        {
          "indexed": false,
          "internalType": "string",
          "name": "_tokenURI",
          "type": "string"
        },
        {
          "indexed": false,
          "internalType": "uint256",
          "name": "_price",
          "type": "uint256"
        },
        {
          "indexed": false,
          "internalType": "address",
          "name": "_artist",
          "type": "address"
        },
        {
          "indexed": false,
          "internalType": "uint256",
          "name": "_taxFee",
          "type": "uint256"
        },
        {
          "indexed": false,
          "internalType": "address",
          "name": "_addressTaxFeeToken",
          "type": "address"
        },
        {
          "indexed": true,
          "internalType": "address",
          "name": "_buyer",
          "type": "address"
        }
      ],
      "name": "Bought",
      "type": "event"
    },
    {
      "anonymous": false,
      "inputs": [
        {
          "indexed": false,
          "internalType": "uint256",
          "name": "_itemId",
          "type": "uint256"
        },
        {
          "indexed": true,
          "internalType": "address",
          "name": "_nft",
          "type": "address"
        },
        {
          "indexed": false,
          "internalType": "uint256",
          "name": "_tokenId",
          "type": "uint256"
        },
        {
          "indexed": false,
          "internalType": "string",
          "name": "_tokenURI",
          "type": "string"
        },
        {
          "indexed": false,
          "internalType": "uint256",
          "name": "_price",
          "type": "uint256"
        },
        {
          "indexed": false,
          "internalType": "address",
          "name": "_artist",
          "type": "address"
        },
        {
          "indexed": false,
          "internalType": "uint256",
          "name": "_taxFee",
          "type": "uint256"
        },
        {
          "indexed": false,
          "internalType": "address",
          "name": "_addressTaxFeeToken",
          "type": "address"
        },
        {
          "indexed": true,
          "internalType": "address",
          "name": "_seller",
          "type": "address"
        }
      ],
      "name": "Offerd",
      "type": "event"
    },
    {
      "anonymous": false,
      "inputs": [
        {
          "indexed": true,
          "internalType": "address",
          "name": "from",
          "type": "address"
        },
        {
          "indexed": true,
          "internalType": "address",
          "name": "to",
          "type": "address"
        },
        {
          "indexed": true,
          "internalType": "uint256",
          "name": "tokenId",
          "type": "uint256"
        }
      ],
      "name": "Transfer",
      "type": "event"
    },
    {
      "inputs": [],
      "name": "ItemCounter",
      "outputs": [
        {
          "internalType": "uint256",
          "name": "_value",
          "type": "uint256"
        }
      ],
      "stateMutability": "view",
      "type": "function"
    },
    {
      "inputs": [],
      "name": "account",
      "outputs": [
        {
          "internalType": "address",
          "name": "",
          "type": "address"
        }
      ],
      "stateMutability": "view",
      "type": "function"
    },
    {
      "inputs": [
        {
          "internalType": "address",
          "name": "_addressToken",
          "type": "address"
        }
      ],
      "name": "addContractToken",
      "outputs": [],
      "stateMutability": "nonpayable",
      "type": "function"
    },
    {
      "inputs": [],
      "name": "amount",
      "outputs": [
        {
          "internalType": "uint256",
          "name": "",
          "type": "uint256"
        }
      ],
      "stateMutability": "view",
      "type": "function"
    },
    {
      "inputs": [
        {
          "internalType": "address",
          "name": "to",
          "type": "address"
        },
        {
          "internalType": "uint256",
          "name": "tokenId",
          "type": "uint256"
        }
      ],
      "name": "approve",
      "outputs": [],
      "stateMutability": "nonpayable",
      "type": "function"
    },
    {
      "inputs": [
        {
          "internalType": "address",
          "name": "owner",
          "type": "address"
        }
      ],
      "name": "balanceOf",
      "outputs": [
        {
          "internalType": "uint256",
          "name": "",
          "type": "uint256"
        }
      ],
      "stateMutability": "view",
      "type": "function"
    },
    {
      "inputs": [
        {
          "internalType": "address",
          "name": "_cosmoAddress",
          "type": "address"
        },
        {
          "internalType": "uint256",
          "name": "_itemId",
          "type": "uint256"
        }
      ],
      "name": "buyItem",
      "outputs": [],
      "stateMutability": "payable",
      "type": "function"
    },
    {
      "inputs": [],
      "name": "erc777",
      "outputs": [
        {
          "internalType": "contract ERC777",
          "name": "",
          "type": "address"
        }
      ],
      "stateMutability": "view",
      "type": "function"
    },
    {
      "inputs": [
        {
          "internalType": "uint256",
          "name": "tokenId",
          "type": "uint256"
        }
      ],
      "name": "getApproved",
      "outputs": [
        {
          "internalType": "address",
          "name": "",
          "type": "address"
        }
      ],
      "stateMutability": "view",
      "type": "function"
    },
    {
      "inputs": [
        {
          "internalType": "address",
          "name": "owner",
          "type": "address"
        },
        {
          "internalType": "address",
          "name": "operator",
          "type": "address"
        }
      ],
      "name": "isApprovedForAll",
      "outputs": [
        {
          "internalType": "bool",
          "name": "",
          "type": "bool"
        }
      ],
      "stateMutability": "view",
      "type": "function"
    },
    {
      "inputs": [
        {
          "internalType": "uint256",
          "name": "",
          "type": "uint256"
        }
      ],
      "name": "items",
      "outputs": [
        {
          "internalType": "uint256",
          "name": "itemId",
          "type": "uint256"
        },
        {
          "internalType": "contract IERC721",
          "name": "nft",
          "type": "address"
        },
        {
          "internalType": "uint256",
          "name": "tokenId",
          "type": "uint256"
        },
        {
          "internalType": "string",
          "name": "tokenURI",
          "type": "string"
        },
        {
          "internalType": "uint256",
          "name": "price",
          "type": "uint256"
        },
        {
          "internalType": "address",
          "name": "artist",
          "type": "address"
        },
        {
          "internalType": "uint256",
          "name": "tokenTaxFee",
          "type": "uint256"
        },
        {
          "internalType": "address",
          "name": "addressTaxFeeToken",
          "type": "address"
        },
        {
          "internalType": "bool",
          "name": "sold",
          "type": "bool"
        },
        {
          "internalType": "address payable",
          "name": "seller",
          "type": "address"
        }
      ],
      "stateMutability": "view",
      "type": "function"
    },
    {
      "inputs": [
        {
          "internalType": "string",
          "name": "_tokenURI",
          "type": "string"
        },
        {
          "internalType": "address",
          "name": "_artist",
          "type": "address"
        },
        {
          "internalType": "uint256",
          "name": "_taxFee",
          "type": "uint256"
        },
        {
          "internalType": "address",
          "name": "_addressTaxFeeToken",
          "type": "address"
        }
      ],
      "name": "mint",
      "outputs": [
        {
          "internalType": "uint256",
          "name": "",
          "type": "uint256"
        }
      ],
      "stateMutability": "nonpayable",
      "type": "function"
    },
    {
      "inputs": [],
      "name": "name",
      "outputs": [
        {
          "internalType": "string",
          "name": "",
          "type": "string"
        }
      ],
      "stateMutability": "view",
      "type": "function"
    },
    {
      "inputs": [
        {
          "internalType": "uint256",
          "name": "tokenId",
          "type": "uint256"
        }
      ],
      "name": "ownerOf",
      "outputs": [
        {
          "internalType": "address",
          "name": "",
          "type": "address"
        }
      ],
      "stateMutability": "view",
      "type": "function"
    },
    {
      "inputs": [
        {
          "internalType": "address",
          "name": "_from",
          "type": "address"
        },
        {
          "internalType": "address",
          "name": "_to",
          "type": "address"
        },
        {
          "internalType": "uint256",
          "name": "_tokenId",
          "type": "uint256"
        }
      ],
      "name": "safeTransferFrom",
      "outputs": [],
      "stateMutability": "nonpayable",
      "type": "function"
    },
    {
      "inputs": [
        {
          "internalType": "address",
          "name": "_from",
          "type": "address"
        },
        {
          "internalType": "address",
          "name": "_to",
          "type": "address"
        },
        {
          "internalType": "uint256",
          "name": "_tokenId",
          "type": "uint256"
        },
        {
          "internalType": "bytes",
          "name": "_data",
          "type": "bytes"
        }
      ],
      "name": "safeTransferFrom",
      "outputs": [],
      "stateMutability": "nonpayable",
      "type": "function"
    },
    {
      "inputs": [
        {
          "internalType": "contract IERC721",
          "name": "_nft",
          "type": "address"
        },
        {
          "internalType": "uint256",
          "name": "_tokenId",
          "type": "uint256"
        },
        {
          "internalType": "uint256",
          "name": "_price",
          "type": "uint256"
        }
      ],
      "name": "sellItem",
      "outputs": [],
      "stateMutability": "nonpayable",
      "type": "function"
    },
    {
      "inputs": [
        {
          "internalType": "address",
          "name": "operator",
          "type": "address"
        },
        {
          "internalType": "bool",
          "name": "approved",
          "type": "bool"
        }
      ],
      "name": "setApprovalForAll",
      "outputs": [],
      "stateMutability": "nonpayable",
      "type": "function"
    },
    {
      "inputs": [
        {
          "internalType": "address",
          "name": "_excluded",
          "type": "address"
        },
        {
          "internalType": "bool",
          "name": "_status",
          "type": "bool"
        }
      ],
      "name": "setExcluded",
      "outputs": [],
      "stateMutability": "nonpayable",
      "type": "function"
    },
    {
      "inputs": [
        {
          "internalType": "bytes4",
          "name": "interfaceId",
          "type": "bytes4"
        }
      ],
      "name": "supportsInterface",
      "outputs": [
        {
          "internalType": "bool",
          "name": "",
          "type": "bool"
        }
      ],
      "stateMutability": "view",
      "type": "function"
    },
    {
      "inputs": [],
      "name": "symbol",
      "outputs": [
        {
          "internalType": "string",
          "name": "",
          "type": "string"
        }
      ],
      "stateMutability": "view",
      "type": "function"
    },
    {
      "inputs": [
        {
          "internalType": "address",
          "name": "",
          "type": "address"
        }
      ],
      "name": "tokenApproved",
      "outputs": [
        {
          "internalType": "bool",
          "name": "",
          "type": "bool"
        }
      ],
      "stateMutability": "view",
      "type": "function"
    },
    {
      "inputs": [],
      "name": "tokenIdCounter",
      "outputs": [
        {
          "internalType": "uint256",
          "name": "_value",
          "type": "uint256"
        }
      ],
      "stateMutability": "view",
      "type": "function"
    },
    {
      "inputs": [
        {
          "internalType": "uint256",
          "name": "tokenId",
          "type": "uint256"
        }
      ],
      "name": "tokenURI",
      "outputs": [
        {
          "internalType": "string",
          "name": "",
          "type": "string"
        }
      ],
      "stateMutability": "view",
      "type": "function"
    },
    {
      "inputs": [
        {
          "internalType": "uint256",
          "name": "",
          "type": "uint256"
        }
      ],
      "name": "tokens",
      "outputs": [
        {
          "internalType": "uint256",
          "name": "id",
          "type": "uint256"
        },
        {
          "internalType": "string",
          "name": "URI",
          "type": "string"
        },
        {
          "internalType": "address",
          "name": "artist",
          "type": "address"
        },
        {
          "internalType": "uint256",
          "name": "taxFee",
          "type": "uint256"
        },
        {
          "internalType": "address",
          "name": "addressTaxFeeToken",
          "type": "address"
        }
      ],
      "stateMutability": "view",
      "type": "function"
    },
    {
      "inputs": [
        {
          "internalType": "address",
          "name": "_operator",
          "type": "address"
        },
        {
          "internalType": "address",
          "name": "_from",
          "type": "address"
        },
        {
          "internalType": "address",
          "name": "_to",
          "type": "address"
        },
        {
          "internalType": "uint256",
          "name": "_amount",
          "type": "uint256"
        },
        {
          "internalType": "bytes",
          "name": "_userData",
          "type": "bytes"
        },
        {
          "internalType": "bytes",
          "name": "_operatorData",
          "type": "bytes"
        }
      ],
      "name": "tokensReceived",
      "outputs": [],
      "stateMutability": "nonpayable",
      "type": "function"
    },
    {
      "inputs": [
        {
          "internalType": "address",
          "name": "_from",
          "type": "address"
        },
        {
          "internalType": "address",
          "name": "_to",
          "type": "address"
        },
        {
          "internalType": "uint256",
          "name": "_tokenId",
          "type": "uint256"
        }
      ],
      "name": "transferFrom",
      "outputs": [],
      "stateMutability": "nonpayable",
      "type": "function"
    },
    {
      "inputs": [],
      "name": "withdrawTokens",
      "outputs": [],
      "stateMutability": "nonpayable",
      "type": "function"
    }
  ],
  "bytecode": "0x60c06040523480156200001157600080fd5b5060405162005bc738038062005bc7833981810160405281019062000037919062000253565b806040518060400160405280600681526020017f436f736d6f7300000000000000000000000000000000000000000000000000008152506040518060400160405280600481526020017f43534d53000000000000000000000000000000000000000000000000000000008152508160009081620000b59190620004ff565b508060019081620000c79190620004ff565b5050506001600781905550731820a4b7618bde71dce8cdc73aab6c95905fad2473ffffffffffffffffffffffffffffffffffffffff166329965a1d307fb281fc8c12954d22544db45de3159a39272895b169a852b314f9cc762e44c53b306040518463ffffffff1660e01b8152600401620001459392919062000612565b600060405180830381600087803b1580156200016057600080fd5b505af115801562000175573d6000803e3d6000fd5b505050508073ffffffffffffffffffffffffffffffffffffffff1660808173ffffffffffffffffffffffffffffffffffffffff16815250503373ffffffffffffffffffffffffffffffffffffffff1660a08173ffffffffffffffffffffffffffffffffffffffff168152505050506200064f565b600080fd5b600073ffffffffffffffffffffffffffffffffffffffff82169050919050565b60006200021b82620001ee565b9050919050565b6200022d816200020e565b81146200023957600080fd5b50565b6000815190506200024d8162000222565b92915050565b6000602082840312156200026c576200026b620001e9565b5b60006200027c848285016200023c565b91505092915050565b600081519050919050565b7f4e487b7100000000000000000000000000000000000000000000000000000000600052604160045260246000fd5b7f4e487b7100000000000000000000000000000000000000000000000000000000600052602260045260246000fd5b600060028204905060018216806200030757607f821691505b6020821081036200031d576200031c620002bf565b5b50919050565b60008190508160005260206000209050919050565b60006020601f8301049050919050565b600082821b905092915050565b600060088302620003877fffffffffffffffffffffffffffffffffffffffffffffffffffffffffffffffff8262000348565b62000393868362000348565b95508019841693508086168417925050509392505050565b6000819050919050565b6000819050919050565b6000620003e0620003da620003d484620003ab565b620003b5565b620003ab565b9050919050565b6000819050919050565b620003fc83620003bf565b620004146200040b82620003e7565b84845462000355565b825550505050565b600090565b6200042b6200041c565b62000438818484620003f1565b505050565b5b8181101562000460576200045460008262000421565b6001810190506200043e565b5050565b601f821115620004af57620004798162000323565b620004848462000338565b8101602085101562000494578190505b620004ac620004a38562000338565b8301826200043d565b50505b505050565b600082821c905092915050565b6000620004d460001984600802620004b4565b1980831691505092915050565b6000620004ef8383620004c1565b9150826002028217905092915050565b6200050a8262000285565b67ffffffffffffffff81111562000526576200052562000290565b5b620005328254620002ee565b6200053f82828562000464565b600060209050601f83116001811462000577576000841562000562578287015190505b6200056e8582620004e1565b865550620005de565b601f198416620005878662000323565b60005b82811015620005b1578489015182556001820191506020850194506020810190506200058a565b86831015620005d15784890151620005cd601f891682620004c1565b8355505b6001600288020188555050505b505050505050565b620005f1816200020e565b82525050565b6000819050919050565b6200060c81620005f7565b82525050565b6000606082019050620006296000830186620005e6565b62000638602083018562000601565b620006476040830184620005e6565b949350505050565b60805160a05161552f6200069860003960008181610fa401528181610fca015281816112e0015281816119890152611b95015260008181611a5c0152611d11015261552f6000f3fe6080604052600436106101b65760003560e01c806370a08231116100ec578063a22cb4651161008a578063bfb231d211610064578063bfb231d214610610578063c87b56dd14610656578063e985e9c514610693578063f958aada146106d0576101b6565b8063a22cb46514610593578063aa8c217c146105bc578063b88d4fde146105e7576101b6565b806398bdf6f5116100c657806398bdf6f5146104f85780639e70b75c146105235780639e8e4d1d1461054c5780639f37092a14610577576101b6565b806370a08231146104795780638d8f2adb146104b657806395d89b41146104cd576101b6565b80632836be24116101595780635dab2420116101335780635dab2420146103ab57806360c6a3c8146103d65780636352211e146104135780636891532714610450576101b6565b80632836be241461031857806342842e0e146103415780634f64b2be1461036a576101b6565b8063081812fc11610195578063081812fc1461024c578063095ea7b314610289578063170e2b8a146102b257806323b872dd146102ef576101b6565b806223de29146101bb57806301ffc9a7146101e457806306fdde0314610221575b600080fd5b3480156101c757600080fd5b506101e260048036038101906101dd9190613855565b6106fb565b005b3480156101f057600080fd5b5061020b6004803603810190610206919061397c565b61071e565b60405161021891906139c4565b60405180910390f35b34801561022d57600080fd5b50610236610800565b6040516102439190613a78565b60405180910390f35b34801561025857600080fd5b50610273600480360381019061026e9190613a9a565b610892565b6040516102809190613ad6565b60405180910390f35b34801561029557600080fd5b506102b060048036038101906102ab9190613af1565b6108d8565b005b3480156102be57600080fd5b506102d960048036038101906102d49190613b31565b6109ef565b6040516102e691906139c4565b60405180910390f35b3480156102fb57600080fd5b5061031660048036038101906103119190613b5e565b610a0f565b005b34801561032457600080fd5b5061033f600480360381019061033a9190613bdd565b610be9565b005b34801561034d57600080fd5b5061036860048036038101906103639190613b5e565b610d4e565b005b34801561037657600080fd5b50610391600480360381019061038c9190613a9a565b610ea4565b6040516103a2959493929190613c2c565b60405180910390f35b3480156103b757600080fd5b506103c0610fa2565b6040516103cd9190613ad6565b60405180910390f35b3480156103e257600080fd5b506103fd60048036038101906103f89190613db6565b610fc6565b60405161040a9190613e39565b60405180910390f35b34801561041f57600080fd5b5061043a60048036038101906104359190613a9a565b61122d565b6040516104479190613ad6565b60405180910390f35b34801561045c57600080fd5b5061047760048036038101906104729190613e92565b6112de565b005b34801561048557600080fd5b506104a0600480360381019061049b9190613b31565b6118d0565b6040516104ad9190613e39565b60405180910390f35b3480156104c257600080fd5b506104cb611987565b005b3480156104d957600080fd5b506104e2611af5565b6040516104ef9190613a78565b60405180910390f35b34801561050457600080fd5b5061050d611b87565b60405161051a9190613e39565b60405180910390f35b34801561052f57600080fd5b5061054a60048036038101906105459190613b31565b611b93565b005b34801561055857600080fd5b50610561611d0f565b60405161056e9190613f44565b60405180910390f35b610591600480360381019061058c9190613af1565b611d33565b005b34801561059f57600080fd5b506105ba60048036038101906105b59190613bdd565b6123ab565b005b3480156105c857600080fd5b506105d16123c1565b6040516105de9190613e39565b60405180910390f35b3480156105f357600080fd5b5061060e60048036038101906106099190614000565b6123c7565b005b34801561061c57600080fd5b5061063760048036038101906106329190613a9a565b61255f565b60405161064d9a999897969594939291906140c5565b60405180910390f35b34801561066257600080fd5b5061067d60048036038101906106789190613a9a565b6126c8565b60405161068a9190613a78565b60405180910390f35b34801561069f57600080fd5b506106ba60048036038101906106b59190614168565b6127da565b6040516106c791906139c4565b60405180910390f35b3480156106dc57600080fd5b506106e561286e565b6040516106f29190613e39565b60405180910390f35b846008600082825461070d91906141d7565b925050819055505050505050505050565b60007f80ac58cd000000000000000000000000000000000000000000000000000000007bffffffffffffffffffffffffffffffffffffffffffffffffffffffff1916827bffffffffffffffffffffffffffffffffffffffffffffffffffffffff191614806107e957507f5b5e139f000000000000000000000000000000000000000000000000000000007bffffffffffffffffffffffffffffffffffffffffffffffffffffffff1916827bffffffffffffffffffffffffffffffffffffffffffffffffffffffff1916145b806107f957506107f88261287a565b5b9050919050565b60606000805461080f9061425c565b80601f016020809104026020016040519081016040528092919081815260200182805461083b9061425c565b80156108885780601f1061085d57610100808354040283529160200191610888565b820191906000526020600020905b81548152906001019060200180831161086b57829003601f168201915b5050505050905090565b600061089d826128e4565b6004600083815260200190815260200160002060009054906101000a900473ffffffffffffffffffffffffffffffffffffffff169050919050565b60006108e38261122d565b90508073ffffffffffffffffffffffffffffffffffffffff168373ffffffffffffffffffffffffffffffffffffffff1603610953576040517f08c379a000000000000000000000000000000000000000000000000000000000815260040161094a906142ff565b60405180910390fd5b8073ffffffffffffffffffffffffffffffffffffffff1661097261292f565b73ffffffffffffffffffffffffffffffffffffffff1614806109a157506109a08161099b61292f565b6127da565b5b6109e0576040517f08c379a00000000000000000000000000000000000000000000000000000000081526004016109d790614391565b60405180910390fd5b6109ea8383612937565b505050565b600d6020528060005260406000206000915054906101000a900460ff1681565b3073ffffffffffffffffffffffffffffffffffffffff168273ffffffffffffffffffffffffffffffffffffffff1603610a5257610a4d8383836129f0565b610be4565b610a63610a5d61292f565b82612c56565b610aa2576040517f08c379a0000000000000000000000000000000000000000000000000000000008152600401610a9990614423565b60405180910390fd5b6000600c600083815260200190815260200160002060020160009054906101000a900473ffffffffffffffffffffffffffffffffffffffff16905060001515600f60008373ffffffffffffffffffffffffffffffffffffffff1673ffffffffffffffffffffffffffffffffffffffff16815260200190815260200160002060008673ffffffffffffffffffffffffffffffffffffffff1673ffffffffffffffffffffffffffffffffffffffff16815260200190815260200160002060009054906101000a900460ff16151503610bd7576000600c60008481526020019081526020016000206003015490506000600c600085815260200190815260200160002060040160009054906101000a900473ffffffffffffffffffffffffffffffffffffffff169050610bd486848484612ceb565b50505b610be28484846129f0565b505b505050565b3373ffffffffffffffffffffffffffffffffffffffff16600e60003373ffffffffffffffffffffffffffffffffffffffff1673ffffffffffffffffffffffffffffffffffffffff16815260200190815260200160002060009054906101000a900473ffffffffffffffffffffffffffffffffffffffff1673ffffffffffffffffffffffffffffffffffffffff1614610cb6576040517f08c379a0000000000000000000000000000000000000000000000000000000008152600401610cad906144b5565b60405180910390fd5b80600f60003373ffffffffffffffffffffffffffffffffffffffff1673ffffffffffffffffffffffffffffffffffffffff16815260200190815260200160002060008473ffffffffffffffffffffffffffffffffffffffff1673ffffffffffffffffffffffffffffffffffffffff16815260200190815260200160002060006101000a81548160ff0219169083151502179055505050565b6000600c600083815260200190815260200160002060020160009054906101000a900473ffffffffffffffffffffffffffffffffffffffff16905060001515600f60008373ffffffffffffffffffffffffffffffffffffffff1673ffffffffffffffffffffffffffffffffffffffff16815260200190815260200160002060008673ffffffffffffffffffffffffffffffffffffffff1673ffffffffffffffffffffffffffffffffffffffff16815260200190815260200160002060009054906101000a900460ff16151503610e83576000600c60008481526020019081526020016000206003015490506000600c600085815260200190815260200160002060040160009054906101000a900473ffffffffffffffffffffffffffffffffffffffff169050610e8086848484612ceb565b50505b610e9e848484604051806020016040528060008152506123c7565b50505050565b600c602052806000526040600020600091509050806000015490806001018054610ecd9061425c565b80601f0160208091040260200160405190810160405280929190818152602001828054610ef99061425c565b8015610f465780601f10610f1b57610100808354040283529160200191610f46565b820191906000526020600020905b815481529060010190602001808311610f2957829003601f168201915b5050505050908060020160009054906101000a900473ffffffffffffffffffffffffffffffffffffffff16908060030154908060040160009054906101000a900473ffffffffffffffffffffffffffffffffffffffff16905085565b7f000000000000000000000000000000000000000000000000000000000000000081565b60007f000000000000000000000000000000000000000000000000000000000000000073ffffffffffffffffffffffffffffffffffffffff163373ffffffffffffffffffffffffffffffffffffffff1614611056576040517f08c379a000000000000000000000000000000000000000000000000000000000815260040161104d90614547565b60405180910390fd5b83600e60008673ffffffffffffffffffffffffffffffffffffffff1673ffffffffffffffffffffffffffffffffffffffff16815260200190815260200160002060006101000a81548173ffffffffffffffffffffffffffffffffffffffff021916908373ffffffffffffffffffffffffffffffffffffffff16021790555060006110e0600a612e9e565b90506110ec600a612eac565b6110f63382612ec2565b6111008187612ee0565b6040518060a001604052808281526020018781526020018673ffffffffffffffffffffffffffffffffffffffff1681526020018581526020018473ffffffffffffffffffffffffffffffffffffffff16815250600c60008381526020019081526020016000206000820151816000015560208201518160010190816111859190614709565b5060408201518160020160006101000a81548173ffffffffffffffffffffffffffffffffffffffff021916908373ffffffffffffffffffffffffffffffffffffffff1602179055506060820151816003015560808201518160040160006101000a81548173ffffffffffffffffffffffffffffffffffffffff021916908373ffffffffffffffffffffffffffffffffffffffff16021790555090505080915050949350505050565b6000806002600084815260200190815260200160002060009054906101000a900473ffffffffffffffffffffffffffffffffffffffff169050600073ffffffffffffffffffffffffffffffffffffffff168173ffffffffffffffffffffffffffffffffffffffff16036112d5576040517f08c379a00000000000000000000000000000000000000000000000000000000081526004016112cc90614827565b60405180910390fd5b80915050919050565b7f000000000000000000000000000000000000000000000000000000000000000073ffffffffffffffffffffffffffffffffffffffff163373ffffffffffffffffffffffffffffffffffffffff161461136c576040517f08c379a000000000000000000000000000000000000000000000000000000000815260040161136390614547565b60405180910390fd5b6002600754036113b1576040517f08c379a00000000000000000000000000000000000000000000000000000000081526004016113a890614893565b60405180910390fd5b6002600781905550600081116113fc576040517f08c379a00000000000000000000000000000000000000000000000000000000081526004016113f3906148ff565b60405180910390fd5b6114066009612eac565b60006114126009612e9e565b90508373ffffffffffffffffffffffffffffffffffffffff166323b872dd3330866040518463ffffffff1660e01b81526004016114519392919061491f565b600060405180830381600087803b15801561146b57600080fd5b505af115801561147f573d6000803e3d6000fd5b505050506000600c60008581526020019081526020016000206040518060a0016040529081600082015481526020016001820180546114bd9061425c565b80601f01602080910402602001604051908101604052809291908181526020018280546114e99061425c565b80156115365780601f1061150b57610100808354040283529160200191611536565b820191906000526020600020905b81548152906001019060200180831161151957829003601f168201915b505050505081526020016002820160009054906101000a900473ffffffffffffffffffffffffffffffffffffffff1673ffffffffffffffffffffffffffffffffffffffff1673ffffffffffffffffffffffffffffffffffffffff168152602001600382015481526020016004820160009054906101000a900473ffffffffffffffffffffffffffffffffffffffff1673ffffffffffffffffffffffffffffffffffffffff1673ffffffffffffffffffffffffffffffffffffffff1681525050905060006040518061014001604052808481526020018773ffffffffffffffffffffffffffffffffffffffff16815260200186815260200183602001518152602001858152602001836040015173ffffffffffffffffffffffffffffffffffffffff16815260200183606001518152602001836080015173ffffffffffffffffffffffffffffffffffffffff1681526020016000151581526020013373ffffffffffffffffffffffffffffffffffffffff16815250905080600b60008581526020019081526020016000206000820151816000015560208201518160010160006101000a81548173ffffffffffffffffffffffffffffffffffffffff021916908373ffffffffffffffffffffffffffffffffffffffff1602179055506040820151816002015560608201518160030190816117309190614709565b506080820151816004015560a08201518160050160006101000a81548173ffffffffffffffffffffffffffffffffffffffff021916908373ffffffffffffffffffffffffffffffffffffffff16021790555060c0820151816006015560e08201518160070160006101000a81548173ffffffffffffffffffffffffffffffffffffffff021916908373ffffffffffffffffffffffffffffffffffffffff1602179055506101008201518160070160146101000a81548160ff0219169083151502179055506101208201518160080160006101000a81548173ffffffffffffffffffffffffffffffffffffffff021916908373ffffffffffffffffffffffffffffffffffffffff1602179055509050503373ffffffffffffffffffffffffffffffffffffffff168673ffffffffffffffffffffffffffffffffffffffff167f975211cbc9861c9448d1a3c68ce608f0445c3ecf60a30bcca7fb923d4056b7948588866020015189886040015189606001518a608001516040516118b89796959493929190614956565b60405180910390a35050506001600781905550505050565b60008073ffffffffffffffffffffffffffffffffffffffff168273ffffffffffffffffffffffffffffffffffffffff1603611940576040517f08c379a000000000000000000000000000000000000000000000000000000000815260040161193790614a3e565b60405180910390fd5b600360008373ffffffffffffffffffffffffffffffffffffffff1673ffffffffffffffffffffffffffffffffffffffff168152602001908152602001600020549050919050565b7f000000000000000000000000000000000000000000000000000000000000000073ffffffffffffffffffffffffffffffffffffffff163373ffffffffffffffffffffffffffffffffffffffff1614611a15576040517f08c379a0000000000000000000000000000000000000000000000000000000008152600401611a0c90614547565b60405180910390fd5b600060085411611a5a576040517f08c379a0000000000000000000000000000000000000000000000000000000008152600401611a5190614aaa565b60405180910390fd5b7f000000000000000000000000000000000000000000000000000000000000000073ffffffffffffffffffffffffffffffffffffffff166362ad1b8330336008546040518463ffffffff1660e01b8152600401611ab993929190614b01565b600060405180830381600087803b158015611ad357600080fd5b505af1158015611ae7573d6000803e3d6000fd5b505050506000600881905550565b606060018054611b049061425c565b80601f0160208091040260200160405190810160405280929190818152602001828054611b309061425c565b8015611b7d5780601f10611b5257610100808354040283529160200191611b7d565b820191906000526020600020905b815481529060010190602001808311611b6057829003601f168201915b5050505050905090565b600a8060000154905081565b7f000000000000000000000000000000000000000000000000000000000000000073ffffffffffffffffffffffffffffffffffffffff163373ffffffffffffffffffffffffffffffffffffffff1614611c21576040517f08c379a0000000000000000000000000000000000000000000000000000000008152600401611c1890614547565b60405180910390fd5b60001515600d60008373ffffffffffffffffffffffffffffffffffffffff1673ffffffffffffffffffffffffffffffffffffffff16815260200190815260200160002060009054906101000a900460ff16151514611cb4576040517f08c379a0000000000000000000000000000000000000000000000000000000008152600401611cab90614baa565b60405180910390fd5b6001600d60008373ffffffffffffffffffffffffffffffffffffffff1673ffffffffffffffffffffffffffffffffffffffff16815260200190815260200160002060006101000a81548160ff02191690831515021790555050565b7f000000000000000000000000000000000000000000000000000000000000000081565b600260075403611d78576040517f08c379a0000000000000000000000000000000000000000000000000000000008152600401611d6f90614893565b60405180910390fd5b60026007819055506000600b60008381526020019081526020016000206004015490506000600b6000848152602001908152602001600020905060011515600d60008673ffffffffffffffffffffffffffffffffffffffff1673ffffffffffffffffffffffffffffffffffffffff16815260200190815260200160002060009054906101000a900460ff16151514611e45576040517f08c379a0000000000000000000000000000000000000000000000000000000008152600401611e3c90614c16565b60405180910390fd5b818473ffffffffffffffffffffffffffffffffffffffff1663f38e266a336040518263ffffffff1660e01b8152600401611e7f9190613ad6565b602060405180830381865afa158015611e9c573d6000803e3d6000fd5b505050506040513d601f19601f82011682018060405250810190611ec09190614c4b565b11611f00576040517f08c379a0000000000000000000000000000000000000000000000000000000008152600401611ef790614cc4565b60405180910390fd5b600083118015611f195750611f156009612e9e565b8311155b611f58576040517f08c379a0000000000000000000000000000000000000000000000000000000008152600401611f4f90614d30565b60405180910390fd5b8060070160149054906101000a900460ff1615611faa576040517f08c379a0000000000000000000000000000000000000000000000000000000008152600401611fa190614d9c565b60405180910390fd5b8373ffffffffffffffffffffffffffffffffffffffff166325e8e00c33846040518363ffffffff1660e01b8152600401611fe5929190614dbc565b6020604051808303816000875af1158015612004573d6000803e3d6000fd5b505050506040513d601f19601f820116820180604052508101906120289190614dfa565b612067576040517f08c379a000000000000000000000000000000000000000000000000000000000815260040161205e90614e73565b60405180910390fd5b8060010160009054906101000a900473ffffffffffffffffffffffffffffffffffffffff1673ffffffffffffffffffffffffffffffffffffffff166323b872dd303384600201546040518463ffffffff1660e01b81526004016120cc9392919061491f565b600060405180830381600087803b1580156120e657600080fd5b505af11580156120fa573d6000803e3d6000fd5b505050506000600b6000858152602001908152602001600020905060018160070160146101000a81548160ff0219169083151502179055506000600c6000836002015481526020019081526020016000206040518060a0016040529081600082015481526020016001820180546121709061425c565b80601f016020809104026020016040519081016040528092919081815260200182805461219c9061425c565b80156121e95780601f106121be576101008083540402835291602001916121e9565b820191906000526020600020905b8154815290600101906020018083116121cc57829003601f168201915b505050505081526020016002820160009054906101000a900473ffffffffffffffffffffffffffffffffffffffff1673ffffffffffffffffffffffffffffffffffffffff1673ffffffffffffffffffffffffffffffffffffffff168152602001600382015481526020016004820160009054906101000a900473ffffffffffffffffffffffffffffffffffffffff1673ffffffffffffffffffffffffffffffffffffffff1673ffffffffffffffffffffffffffffffffffffffff168152505090503373ffffffffffffffffffffffffffffffffffffffff168360010160009054906101000a900473ffffffffffffffffffffffffffffffffffffffff1673ffffffffffffffffffffffffffffffffffffffff167fdc7540e6f6fa2d49abe473a1fbe2315ef51c17ba1d7611cde26c6da3adfac3ef85600001548660020154856020015188600401548960050160009054906101000a900473ffffffffffffffffffffffffffffffffffffffff168a600601548b60070160009054906101000a900473ffffffffffffffffffffffffffffffffffffffff166040516123939796959493929190614956565b60405180910390a35050505060016007819055505050565b6123bd6123b661292f565b8383612f4d565b5050565b60085481565b6123d86123d261292f565b83612c56565b612417576040517f08c379a000000000000000000000000000000000000000000000000000000000815260040161240e90614423565b60405180910390fd5b6000600c600084815260200190815260200160002060020160009054906101000a900473ffffffffffffffffffffffffffffffffffffffff16905060001515600f60008373ffffffffffffffffffffffffffffffffffffffff1673ffffffffffffffffffffffffffffffffffffffff16815260200190815260200160002060008773ffffffffffffffffffffffffffffffffffffffff1673ffffffffffffffffffffffffffffffffffffffff16815260200190815260200160002060009054906101000a900460ff1615150361254c576000600c60008581526020019081526020016000206003015490506000600c600086815260200190815260200160002060040160009054906101000a900473ffffffffffffffffffffffffffffffffffffffff16905061254987848484612ceb565b50505b612558858585856130b9565b5050505050565b600b6020528060005260406000206000915090508060000154908060010160009054906101000a900473ffffffffffffffffffffffffffffffffffffffff16908060020154908060030180546125b49061425c565b80601f01602080910402602001604051908101604052809291908181526020018280546125e09061425c565b801561262d5780601f106126025761010080835404028352916020019161262d565b820191906000526020600020905b81548152906001019060200180831161261057829003601f168201915b5050505050908060040154908060050160009054906101000a900473ffffffffffffffffffffffffffffffffffffffff16908060060154908060070160009054906101000a900473ffffffffffffffffffffffffffffffffffffffff16908060070160149054906101000a900460ff16908060080160009054906101000a900473ffffffffffffffffffffffffffffffffffffffff1690508a565b60606126d3826128e4565b60006006600084815260200190815260200160002080546126f39061425c565b80601f016020809104026020016040519081016040528092919081815260200182805461271f9061425c565b801561276c5780601f106127415761010080835404028352916020019161276c565b820191906000526020600020905b81548152906001019060200180831161274f57829003601f168201915b50505050509050600061277d613115565b905060008151036127925781925050506127d5565b6000825111156127c75780826040516020016127af929190614ecf565b604051602081830303815290604052925050506127d5565b6127d08461312c565b925050505b919050565b6000600560008473ffffffffffffffffffffffffffffffffffffffff1673ffffffffffffffffffffffffffffffffffffffff16815260200190815260200160002060008373ffffffffffffffffffffffffffffffffffffffff1673ffffffffffffffffffffffffffffffffffffffff16815260200190815260200160002060009054906101000a900460ff16905092915050565b60098060000154905081565b60007f01ffc9a7000000000000000000000000000000000000000000000000000000007bffffffffffffffffffffffffffffffffffffffffffffffffffffffff1916827bffffffffffffffffffffffffffffffffffffffffffffffffffffffff1916149050919050565b6128ed81613194565b61292c576040517f08c379a000000000000000000000000000000000000000000000000000000000815260040161292390614827565b60405180910390fd5b50565b600033905090565b816004600083815260200190815260200160002060006101000a81548173ffffffffffffffffffffffffffffffffffffffff021916908373ffffffffffffffffffffffffffffffffffffffff160217905550808273ffffffffffffffffffffffffffffffffffffffff166129aa8361122d565b73ffffffffffffffffffffffffffffffffffffffff167f8c5be1e5ebec7d5bd14f71427d1e84f3dd0314c0f7b2291e5b200ac8c7c3b92560405160405180910390a45050565b8273ffffffffffffffffffffffffffffffffffffffff16612a108261122d565b73ffffffffffffffffffffffffffffffffffffffff1614612a66576040517f08c379a0000000000000000000000000000000000000000000000000000000008152600401612a5d90614f65565b60405180910390fd5b600073ffffffffffffffffffffffffffffffffffffffff168273ffffffffffffffffffffffffffffffffffffffff1603612ad5576040517f08c379a0000000000000000000000000000000000000000000000000000000008152600401612acc90614ff7565b60405180910390fd5b612ae0838383613200565b612aeb600082612937565b6001600360008573ffffffffffffffffffffffffffffffffffffffff1673ffffffffffffffffffffffffffffffffffffffff1681526020019081526020016000206000828254612b3b9190615017565b925050819055506001600360008473ffffffffffffffffffffffffffffffffffffffff1673ffffffffffffffffffffffffffffffffffffffff1681526020019081526020016000206000828254612b9291906141d7565b92505081905550816002600083815260200190815260200160002060006101000a81548173ffffffffffffffffffffffffffffffffffffffff021916908373ffffffffffffffffffffffffffffffffffffffff160217905550808273ffffffffffffffffffffffffffffffffffffffff168473ffffffffffffffffffffffffffffffffffffffff167fddf252ad1be2c89b69c2b068fc378daa952ba7f163c4a11628f55a4df523b3ef60405160405180910390a4612c51838383613205565b505050565b600080612c628361122d565b90508073ffffffffffffffffffffffffffffffffffffffff168473ffffffffffffffffffffffffffffffffffffffff161480612ca45750612ca381856127da565b5b80612ce257508373ffffffffffffffffffffffffffffffffffffffff16612cca84610892565b73ffffffffffffffffffffffffffffffffffffffff16145b91505092915050565b8373ffffffffffffffffffffffffffffffffffffffff163073ffffffffffffffffffffffffffffffffffffffff160315612e9857818173ffffffffffffffffffffffffffffffffffffffff1663f38e266a866040518263ffffffff1660e01b8152600401612d599190613ad6565b602060405180830381865afa158015612d76573d6000803e3d6000fd5b505050506040513d601f19601f82011682018060405250810190612d9a9190614c4b565b11612dda576040517f08c379a0000000000000000000000000000000000000000000000000000000008152600401612dd190614cc4565b60405180910390fd5b8073ffffffffffffffffffffffffffffffffffffffff166325e8e00c85846040518363ffffffff1660e01b8152600401612e15929190614dbc565b6020604051808303816000875af1158015612e34573d6000803e3d6000fd5b505050506040513d601f19601f82011682018060405250810190612e589190614dfa565b612e97576040517f08c379a0000000000000000000000000000000000000000000000000000000008152600401612e8e90615097565b60405180910390fd5b5b50505050565b600081600001549050919050565b6001816000016000828254019250508190555050565b612edc82826040518060200160405280600081525061320a565b5050565b612ee982613194565b612f28576040517f08c379a0000000000000000000000000000000000000000000000000000000008152600401612f1f90615129565b60405180910390fd5b80600660008481526020019081526020016000209081612f489190614709565b505050565b8173ffffffffffffffffffffffffffffffffffffffff168373ffffffffffffffffffffffffffffffffffffffff1603612fbb576040517f08c379a0000000000000000000000000000000000000000000000000000000008152600401612fb290615195565b60405180910390fd5b80600560008573ffffffffffffffffffffffffffffffffffffffff1673ffffffffffffffffffffffffffffffffffffffff16815260200190815260200160002060008473ffffffffffffffffffffffffffffffffffffffff1673ffffffffffffffffffffffffffffffffffffffff16815260200190815260200160002060006101000a81548160ff0219169083151502179055508173ffffffffffffffffffffffffffffffffffffffff168373ffffffffffffffffffffffffffffffffffffffff167f17307eab39ab6107e8899845ad3d59bd9653f200f220920489ca2b5937696c31836040516130ac91906139c4565b60405180910390a3505050565b6130c48484846129f0565b6130d084848484613265565b61310f576040517f08c379a000000000000000000000000000000000000000000000000000000000815260040161310690615227565b60405180910390fd5b50505050565b606060405180602001604052806000815250905090565b6060613137826128e4565b6000613141613115565b90506000815111613161576040518060200160405280600081525061318c565b8061316b846133ec565b60405160200161317c929190614ecf565b6040516020818303038152906040525b915050919050565b60008073ffffffffffffffffffffffffffffffffffffffff166002600084815260200190815260200160002060009054906101000a900473ffffffffffffffffffffffffffffffffffffffff1673ffffffffffffffffffffffffffffffffffffffff1614159050919050565b505050565b505050565b613214838361354c565b6132216000848484613265565b613260576040517f08c379a000000000000000000000000000000000000000000000000000000000815260040161325790615227565b60405180910390fd5b505050565b60006132868473ffffffffffffffffffffffffffffffffffffffff16613725565b156133df578373ffffffffffffffffffffffffffffffffffffffff1663150b7a026132af61292f565b8786866040518563ffffffff1660e01b81526004016132d1949392919061528b565b6020604051808303816000875af192505050801561330d57506040513d601f19601f8201168201806040525081019061330a91906152ec565b60015b61338f573d806000811461333d576040519150601f19603f3d011682016040523d82523d6000602084013e613342565b606091505b506000815103613387576040517f08c379a000000000000000000000000000000000000000000000000000000000815260040161337e90615227565b60405180910390fd5b805181602001fd5b63150b7a0260e01b7bffffffffffffffffffffffffffffffffffffffffffffffffffffffff1916817bffffffffffffffffffffffffffffffffffffffffffffffffffffffff1916149150506133e4565b600190505b949350505050565b606060008203613433576040518060400160405280600181526020017f30000000000000000000000000000000000000000000000000000000000000008152509050613547565b600082905060005b6000821461346557808061344e90615319565b915050600a8261345e9190615390565b915061343b565b60008167ffffffffffffffff81111561348157613480613c8b565b5b6040519080825280601f01601f1916602001820160405280156134b35781602001600182028036833780820191505090505b5090505b60008514613540576001826134cc9190615017565b9150600a856134db91906153c1565b60306134e791906141d7565b60f81b8183815181106134fd576134fc6153f2565b5b60200101907effffffffffffffffffffffffffffffffffffffffffffffffffffffffffffff1916908160001a905350600a856135399190615390565b94506134b7565b8093505050505b919050565b600073ffffffffffffffffffffffffffffffffffffffff168273ffffffffffffffffffffffffffffffffffffffff16036135bb576040517f08c379a00000000000000000000000000000000000000000000000000000000081526004016135b29061546d565b60405180910390fd5b6135c481613194565b15613604576040517f08c379a00000000000000000000000000000000000000000000000000000000081526004016135fb906154d9565b60405180910390fd5b61361060008383613200565b6001600360008473ffffffffffffffffffffffffffffffffffffffff1673ffffffffffffffffffffffffffffffffffffffff168152602001908152602001600020600082825461366091906141d7565b92505081905550816002600083815260200190815260200160002060006101000a81548173ffffffffffffffffffffffffffffffffffffffff021916908373ffffffffffffffffffffffffffffffffffffffff160217905550808273ffffffffffffffffffffffffffffffffffffffff16600073ffffffffffffffffffffffffffffffffffffffff167fddf252ad1be2c89b69c2b068fc378daa952ba7f163c4a11628f55a4df523b3ef60405160405180910390a461372160008383613205565b5050565b6000808273ffffffffffffffffffffffffffffffffffffffff163b119050919050565b6000604051905090565b600080fd5b600080fd5b600073ffffffffffffffffffffffffffffffffffffffff82169050919050565b60006137878261375c565b9050919050565b6137978161377c565b81146137a257600080fd5b50565b6000813590506137b48161378e565b92915050565b6000819050919050565b6137cd816137ba565b81146137d857600080fd5b50565b6000813590506137ea816137c4565b92915050565b600080fd5b600080fd5b600080fd5b60008083601f840112613815576138146137f0565b5b8235905067ffffffffffffffff811115613832576138316137f5565b5b60208301915083600182028301111561384e5761384d6137fa565b5b9250929050565b60008060008060008060008060c0898b03121561387557613874613752565b5b60006138838b828c016137a5565b98505060206138948b828c016137a5565b97505060406138a58b828c016137a5565b96505060606138b68b828c016137db565b955050608089013567ffffffffffffffff8111156138d7576138d6613757565b5b6138e38b828c016137ff565b945094505060a089013567ffffffffffffffff81111561390657613905613757565b5b6139128b828c016137ff565b92509250509295985092959890939650565b60007fffffffff0000000000000000000000000000000000000000000000000000000082169050919050565b61395981613924565b811461396457600080fd5b50565b60008135905061397681613950565b92915050565b60006020828403121561399257613991613752565b5b60006139a084828501613967565b91505092915050565b60008115159050919050565b6139be816139a9565b82525050565b60006020820190506139d960008301846139b5565b92915050565b600081519050919050565b600082825260208201905092915050565b60005b83811015613a195780820151818401526020810190506139fe565b83811115613a28576000848401525b50505050565b6000601f19601f8301169050919050565b6000613a4a826139df565b613a5481856139ea565b9350613a648185602086016139fb565b613a6d81613a2e565b840191505092915050565b60006020820190508181036000830152613a928184613a3f565b905092915050565b600060208284031215613ab057613aaf613752565b5b6000613abe848285016137db565b91505092915050565b613ad08161377c565b82525050565b6000602082019050613aeb6000830184613ac7565b92915050565b60008060408385031215613b0857613b07613752565b5b6000613b16858286016137a5565b9250506020613b27858286016137db565b9150509250929050565b600060208284031215613b4757613b46613752565b5b6000613b55848285016137a5565b91505092915050565b600080600060608486031215613b7757613b76613752565b5b6000613b85868287016137a5565b9350506020613b96868287016137a5565b9250506040613ba7868287016137db565b9150509250925092565b613bba816139a9565b8114613bc557600080fd5b50565b600081359050613bd781613bb1565b92915050565b60008060408385031215613bf457613bf3613752565b5b6000613c02858286016137a5565b9250506020613c1385828601613bc8565b9150509250929050565b613c26816137ba565b82525050565b600060a082019050613c416000830188613c1d565b8181036020830152613c538187613a3f565b9050613c626040830186613ac7565b613c6f6060830185613c1d565b613c7c6080830184613ac7565b9695505050505050565b600080fd5b7f4e487b7100000000000000000000000000000000000000000000000000000000600052604160045260246000fd5b613cc382613a2e565b810181811067ffffffffffffffff82111715613ce257613ce1613c8b565b5b80604052505050565b6000613cf5613748565b9050613d018282613cba565b919050565b600067ffffffffffffffff821115613d2157613d20613c8b565b5b613d2a82613a2e565b9050602081019050919050565b82818337600083830152505050565b6000613d59613d5484613d06565b613ceb565b905082815260208101848484011115613d7557613d74613c86565b5b613d80848285613d37565b509392505050565b600082601f830112613d9d57613d9c6137f0565b5b8135613dad848260208601613d46565b91505092915050565b60008060008060808587031215613dd057613dcf613752565b5b600085013567ffffffffffffffff811115613dee57613ded613757565b5b613dfa87828801613d88565b9450506020613e0b878288016137a5565b9350506040613e1c878288016137db565b9250506060613e2d878288016137a5565b91505092959194509250565b6000602082019050613e4e6000830184613c1d565b92915050565b6000613e5f8261377c565b9050919050565b613e6f81613e54565b8114613e7a57600080fd5b50565b600081359050613e8c81613e66565b92915050565b600080600060608486031215613eab57613eaa613752565b5b6000613eb986828701613e7d565b9350506020613eca868287016137db565b9250506040613edb868287016137db565b9150509250925092565b6000819050919050565b6000613f0a613f05613f008461375c565b613ee5565b61375c565b9050919050565b6000613f1c82613eef565b9050919050565b6000613f2e82613f11565b9050919050565b613f3e81613f23565b82525050565b6000602082019050613f596000830184613f35565b92915050565b600067ffffffffffffffff821115613f7a57613f79613c8b565b5b613f8382613a2e565b9050602081019050919050565b6000613fa3613f9e84613f5f565b613ceb565b905082815260208101848484011115613fbf57613fbe613c86565b5b613fca848285613d37565b509392505050565b600082601f830112613fe757613fe66137f0565b5b8135613ff7848260208601613f90565b91505092915050565b6000806000806080858703121561401a57614019613752565b5b6000614028878288016137a5565b9450506020614039878288016137a5565b935050604061404a878288016137db565b925050606085013567ffffffffffffffff81111561406b5761406a613757565b5b61407787828801613fd2565b91505092959194509250565b600061408e82613f11565b9050919050565b61409e81614083565b82525050565b60006140af8261375c565b9050919050565b6140bf816140a4565b82525050565b6000610140820190506140db600083018d613c1d565b6140e8602083018c614095565b6140f5604083018b613c1d565b8181036060830152614107818a613a3f565b90506141166080830189613c1d565b61412360a0830188613ac7565b61413060c0830187613c1d565b61413d60e0830186613ac7565b61414b6101008301856139b5565b6141596101208301846140b6565b9b9a5050505050505050505050565b6000806040838503121561417f5761417e613752565b5b600061418d858286016137a5565b925050602061419e858286016137a5565b9150509250929050565b7f4e487b7100000000000000000000000000000000000000000000000000000000600052601160045260246000fd5b60006141e2826137ba565b91506141ed836137ba565b9250827fffffffffffffffffffffffffffffffffffffffffffffffffffffffffffffffff03821115614222576142216141a8565b5b828201905092915050565b7f4e487b7100000000000000000000000000000000000000000000000000000000600052602260045260246000fd5b6000600282049050600182168061427457607f821691505b6020821081036142875761428661422d565b5b50919050565b7f4552433732313a20617070726f76616c20746f2063757272656e74206f776e6560008201527f7200000000000000000000000000000000000000000000000000000000000000602082015250565b60006142e96021836139ea565b91506142f48261428d565b604082019050919050565b60006020820190508181036000830152614318816142dc565b9050919050565b7f4552433732313a20617070726f76652063616c6c6572206973206e6f7420746f60008201527f6b656e206f776e6572206e6f7220617070726f76656420666f7220616c6c0000602082015250565b600061437b603e836139ea565b91506143868261431f565b604082019050919050565b600060208201905081810360008301526143aa8161436e565b9050919050565b7f4552433732313a207472616e736665722063616c6c6572206973206e6f74206f60008201527f776e6572206e6f7220617070726f766564000000000000000000000000000000602082015250565b600061440d6031836139ea565b9150614418826143b1565b604082019050919050565b6000602082019050818103600083015261443c81614400565b9050919050565b7f646f65736e277420686173204e46547320696e20746865206d61726b6574706c60008201527f6163650000000000000000000000000000000000000000000000000000000000602082015250565b600061449f6023836139ea565b91506144aa82614443565b604082019050919050565b600060208201905081810360008301526144ce81614492565b9050919050565b7f4d61726b6574506c616365436f6e74726163743a2063616c6c6572206973206e60008201527f6f7420746865206f776e65720000000000000000000000000000000000000000602082015250565b6000614531602c836139ea565b915061453c826144d5565b604082019050919050565b6000602082019050818103600083015261456081614524565b9050919050565b60008190508160005260206000209050919050565b60006020601f8301049050919050565b600082821b905092915050565b6000600883026145c97fffffffffffffffffffffffffffffffffffffffffffffffffffffffffffffffff8261458c565b6145d3868361458c565b95508019841693508086168417925050509392505050565b60006146066146016145fc846137ba565b613ee5565b6137ba565b9050919050565b6000819050919050565b614620836145eb565b61463461462c8261460d565b848454614599565b825550505050565b600090565b61464961463c565b614654818484614617565b505050565b5b818110156146785761466d600082614641565b60018101905061465a565b5050565b601f8211156146bd5761468e81614567565b6146978461457c565b810160208510156146a6578190505b6146ba6146b28561457c565b830182614659565b50505b505050565b600082821c905092915050565b60006146e0600019846008026146c2565b1980831691505092915050565b60006146f983836146cf565b9150826002028217905092915050565b614712826139df565b67ffffffffffffffff81111561472b5761472a613c8b565b5b614735825461425c565b61474082828561467c565b600060209050601f8311600181146147735760008415614761578287015190505b61476b85826146ed565b8655506147d3565b601f19841661478186614567565b60005b828110156147a957848901518255600182019150602085019450602081019050614784565b868310156147c657848901516147c2601f8916826146cf565b8355505b6001600288020188555050505b505050505050565b7f4552433732313a20696e76616c696420746f6b656e2049440000000000000000600082015250565b60006148116018836139ea565b915061481c826147db565b602082019050919050565b6000602082019050818103600083015261484081614804565b9050919050565b7f5265656e7472616e637947756172643a207265656e7472616e742063616c6c00600082015250565b600061487d601f836139ea565b915061488882614847565b602082019050919050565b600060208201905081810360008301526148ac81614870565b9050919050565b7f5072696365206d75737420626520677265617465722074686174203000000000600082015250565b60006148e9601c836139ea565b91506148f4826148b3565b602082019050919050565b60006020820190508181036000830152614918816148dc565b9050919050565b60006060820190506149346000830186613ac7565b6149416020830185613ac7565b61494e6040830184613c1d565b949350505050565b600060e08201905061496b600083018a613c1d565b6149786020830189613c1d565b818103604083015261498a8188613a3f565b90506149996060830187613c1d565b6149a66080830186613ac7565b6149b360a0830185613c1d565b6149c060c0830184613ac7565b98975050505050505050565b7f4552433732313a2061646472657373207a65726f206973206e6f74206120766160008201527f6c6964206f776e65720000000000000000000000000000000000000000000000602082015250565b6000614a286029836139ea565b9150614a33826149cc565b604082019050919050565b60006020820190508181036000830152614a5781614a1b565b9050919050565b7f546865726520646f6e277420626520746f6b656e730000000000000000000000600082015250565b6000614a946015836139ea565b9150614a9f82614a5e565b602082019050919050565b60006020820190508181036000830152614ac381614a87565b9050919050565b600082825260208201905092915050565b50565b6000614aeb600083614aca565b9150614af682614adb565b600082019050919050565b600060a082019050614b166000830186613ac7565b614b236020830185613ac7565b614b306040830184613c1d565b8181036060830152614b4181614ade565b90508181036080830152614b5481614ade565b9050949350505050565b7f5468697320746f6b656e20697320616c726561647920617070726f7665640000600082015250565b6000614b94601e836139ea565b9150614b9f82614b5e565b602082019050919050565b60006020820190508181036000830152614bc381614b87565b9050919050565b7f576520646f6e277420616363657074207468697320746f6b656e000000000000600082015250565b6000614c00601a836139ea565b9150614c0b82614bca565b602082019050919050565b60006020820190508181036000830152614c2f81614bf3565b9050919050565b600081519050614c45816137c4565b92915050565b600060208284031215614c6157614c60613752565b5b6000614c6f84828501614c36565b91505092915050565b7f496e73756666696369656e7420746f6b656e7300000000000000000000000000600082015250565b6000614cae6013836139ea565b9150614cb982614c78565b602082019050919050565b60006020820190508181036000830152614cdd81614ca1565b9050919050565b7f4974656d20646f6e277420657869737400000000000000000000000000000000600082015250565b6000614d1a6010836139ea565b9150614d2582614ce4565b602082019050919050565b60006020820190508181036000830152614d4981614d0d565b9050919050565b7f4974656d20616c726561647920736f6c64000000000000000000000000000000600082015250565b6000614d866011836139ea565b9150614d9182614d50565b602082019050919050565b60006020820190508181036000830152614db581614d79565b9050919050565b6000604082019050614dd16000830185613ac7565b614dde6020830184613c1d565b9392505050565b600081519050614df481613bb1565b92915050565b600060208284031215614e1057614e0f613752565b5b6000614e1e84828501614de5565b91505092915050565b7f596f75722066756e64732061726520696e73756666696369656e740000000000600082015250565b6000614e5d601b836139ea565b9150614e6882614e27565b602082019050919050565b60006020820190508181036000830152614e8c81614e50565b9050919050565b600081905092915050565b6000614ea9826139df565b614eb38185614e93565b9350614ec38185602086016139fb565b80840191505092915050565b6000614edb8285614e9e565b9150614ee78284614e9e565b91508190509392505050565b7f4552433732313a207472616e736665722066726f6d20696e636f72726563742060008201527f6f776e6572000000000000000000000000000000000000000000000000000000602082015250565b6000614f4f6025836139ea565b9150614f5a82614ef3565b604082019050919050565b60006020820190508181036000830152614f7e81614f42565b9050919050565b7f4552433732313a207472616e7366657220746f20746865207a65726f2061646460008201527f7265737300000000000000000000000000000000000000000000000000000000602082015250565b6000614fe16024836139ea565b9150614fec82614f85565b604082019050919050565b6000602082019050818103600083015261501081614fd4565b9050919050565b6000615022826137ba565b915061502d836137ba565b9250828210156150405761503f6141a8565b5b828203905092915050565b7f596f75722066756e64732061726520696e73756666696369656e747300000000600082015250565b6000615081601c836139ea565b915061508c8261504b565b602082019050919050565b600060208201905081810360008301526150b081615074565b9050919050565b7f45524337323155524953746f726167653a2055524920736574206f66206e6f6e60008201527f6578697374656e7420746f6b656e000000000000000000000000000000000000602082015250565b6000615113602e836139ea565b915061511e826150b7565b604082019050919050565b6000602082019050818103600083015261514281615106565b9050919050565b7f4552433732313a20617070726f766520746f2063616c6c657200000000000000600082015250565b600061517f6019836139ea565b915061518a82615149565b602082019050919050565b600060208201905081810360008301526151ae81615172565b9050919050565b7f4552433732313a207472616e7366657220746f206e6f6e20455243373231526560008201527f63656976657220696d706c656d656e7465720000000000000000000000000000602082015250565b60006152116032836139ea565b915061521c826151b5565b604082019050919050565b6000602082019050818103600083015261524081615204565b9050919050565b600081519050919050565b600061525d82615247565b6152678185614aca565b93506152778185602086016139fb565b61528081613a2e565b840191505092915050565b60006080820190506152a06000830187613ac7565b6152ad6020830186613ac7565b6152ba6040830185613c1d565b81810360608301526152cc8184615252565b905095945050505050565b6000815190506152e681613950565b92915050565b60006020828403121561530257615301613752565b5b6000615310848285016152d7565b91505092915050565b6000615324826137ba565b91507fffffffffffffffffffffffffffffffffffffffffffffffffffffffffffffffff8203615356576153556141a8565b5b600182019050919050565b7f4e487b7100000000000000000000000000000000000000000000000000000000600052601260045260246000fd5b600061539b826137ba565b91506153a6836137ba565b9250826153b6576153b5615361565b5b828204905092915050565b60006153cc826137ba565b91506153d7836137ba565b9250826153e7576153e6615361565b5b828206905092915050565b7f4e487b7100000000000000000000000000000000000000000000000000000000600052603260045260246000fd5b7f4552433732313a206d696e7420746f20746865207a65726f2061646472657373600082015250565b60006154576020836139ea565b915061546282615421565b602082019050919050565b600060208201905081810360008301526154868161544a565b9050919050565b7f4552433732313a20746f6b656e20616c7265616479206d696e74656400000000600082015250565b60006154c3601c836139ea565b91506154ce8261548d565b602082019050919050565b600060208201905081810360008301526154f2816154b6565b905091905056fea2646970667358221220c3e1ea2bad09643e6836733606e4a8469cb6f140eb09a41040e9b67dadf0a33d64736f6c634300080f0033",
  "linkReferences": {},
  "deployedLinkReferences": {}
}