{
  "_format": "hh-sol-artifact-1",
  "contractName": "MarketPlaceGaslessContract",
  "sourceName": "src/blockchain/hardhat/contracts/MarketplaceGaslessContract.sol",
  "abi": [
    {
      "inputs": [
        {
          "internalType": "contract MinimalForwarder",
          "name": "forwarder",
          "type": "address"
        },
        {
          "internalType": "address",
          "name": "_erc777Address",
          "type": "address"
        }
      ],
      "stateMutability": "nonpayable",
      "type": "constructor"
    },
    {
      "anonymous": false,
      "inputs": [
        {
          "indexed": true,
          "internalType": "address",
          "name": "owner",
          "type": "address"
        },
        {
          "indexed": true,
          "internalType": "address",
          "name": "approved",
          "type": "address"
        },
        {
          "indexed": true,
          "internalType": "uint256",
          "name": "tokenId",
          "type": "uint256"
        }
      ],
      "name": "Approval",
      "type": "event"
    },
    {
      "anonymous": false,
      "inputs": [
        {
          "indexed": true,
          "internalType": "address",
          "name": "owner",
          "type": "address"
        },
        {
          "indexed": true,
          "internalType": "address",
          "name": "operator",
          "type": "address"
        },
        {
          "indexed": false,
          "internalType": "bool",
          "name": "approved",
          "type": "bool"
        }
      ],
      "name": "ApprovalForAll",
      "type": "event"
    },
    {
      "anonymous": false,
      "inputs": [
        {
          "indexed": false,
          "internalType": "uint256",
          "name": "_itemId",
          "type": "uint256"
        },
        {
          "indexed": true,
          "internalType": "address",
          "name": "_nft",
          "type": "address"
        },
        {
          "indexed": false,
          "internalType": "uint256",
          "name": "_tokenId",
          "type": "uint256"
        },
        {
          "indexed": false,
          "internalType": "string",
          "name": "_tokenURI",
          "type": "string"
        },
        {
          "indexed": false,
          "internalType": "uint256",
          "name": "_price",
          "type": "uint256"
        },
        {
          "indexed": false,
          "internalType": "address",
          "name": "_artist",
          "type": "address"
        },
        {
          "indexed": false,
          "internalType": "uint256",
          "name": "_taxFee",
          "type": "uint256"
        },
        {
          "indexed": false,
          "internalType": "address",
          "name": "_addressTaxFeeToken",
          "type": "address"
        },
        {
          "indexed": true,
          "internalType": "address",
          "name": "_buyer",
          "type": "address"
        }
      ],
      "name": "Bought",
      "type": "event"
    },
    {
      "anonymous": false,
      "inputs": [
        {
          "indexed": false,
          "internalType": "uint256",
          "name": "_itemId",
          "type": "uint256"
        },
        {
          "indexed": true,
          "internalType": "address",
          "name": "_nft",
          "type": "address"
        },
        {
          "indexed": false,
          "internalType": "uint256",
          "name": "_tokenId",
          "type": "uint256"
        },
        {
          "indexed": false,
          "internalType": "string",
          "name": "_tokenURI",
          "type": "string"
        },
        {
          "indexed": false,
          "internalType": "uint256",
          "name": "_price",
          "type": "uint256"
        },
        {
          "indexed": false,
          "internalType": "address",
          "name": "_artist",
          "type": "address"
        },
        {
          "indexed": false,
          "internalType": "uint256",
          "name": "_taxFee",
          "type": "uint256"
        },
        {
          "indexed": false,
          "internalType": "address",
          "name": "_addressTaxFeeToken",
          "type": "address"
        },
        {
          "indexed": true,
          "internalType": "address",
          "name": "_seller",
          "type": "address"
        }
      ],
      "name": "Offerd",
      "type": "event"
    },
    {
      "anonymous": false,
      "inputs": [
        {
          "indexed": true,
          "internalType": "address",
          "name": "from",
          "type": "address"
        },
        {
          "indexed": true,
          "internalType": "address",
          "name": "to",
          "type": "address"
        },
        {
          "indexed": true,
          "internalType": "uint256",
          "name": "tokenId",
          "type": "uint256"
        }
      ],
      "name": "Transfer",
      "type": "event"
    },
    {
      "inputs": [],
      "name": "EPNS_COMM_ADDRESS",
      "outputs": [
        {
          "internalType": "address",
          "name": "",
          "type": "address"
        }
      ],
      "stateMutability": "view",
      "type": "function"
    },
    {
      "inputs": [],
      "name": "ItemCounter",
      "outputs": [
        {
          "internalType": "uint256",
          "name": "_value",
          "type": "uint256"
        }
      ],
      "stateMutability": "view",
      "type": "function"
    },
    {
      "inputs": [],
      "name": "account",
      "outputs": [
        {
          "internalType": "address",
          "name": "",
          "type": "address"
        }
      ],
      "stateMutability": "view",
      "type": "function"
    },
    {
      "inputs": [
        {
          "internalType": "address",
          "name": "_addressToken",
          "type": "address"
        }
      ],
      "name": "addContractToken",
      "outputs": [],
      "stateMutability": "nonpayable",
      "type": "function"
    },
    {
      "inputs": [],
      "name": "amount",
      "outputs": [
        {
          "internalType": "uint256",
          "name": "",
          "type": "uint256"
        }
      ],
      "stateMutability": "view",
      "type": "function"
    },
    {
      "inputs": [
        {
          "internalType": "address",
          "name": "to",
          "type": "address"
        },
        {
          "internalType": "uint256",
          "name": "tokenId",
          "type": "uint256"
        }
      ],
      "name": "approve",
      "outputs": [],
      "stateMutability": "nonpayable",
      "type": "function"
    },
    {
      "inputs": [
        {
          "internalType": "address",
          "name": "owner",
          "type": "address"
        }
      ],
      "name": "balanceOf",
      "outputs": [
        {
          "internalType": "uint256",
          "name": "",
          "type": "uint256"
        }
      ],
      "stateMutability": "view",
      "type": "function"
    },
    {
      "inputs": [
        {
          "internalType": "address",
          "name": "_cosmoAddress",
          "type": "address"
        },
        {
          "internalType": "uint256",
          "name": "_itemId",
          "type": "uint256"
        }
      ],
      "name": "buyItem",
      "outputs": [],
      "stateMutability": "payable",
      "type": "function"
    },
    {
      "inputs": [],
      "name": "erc777",
      "outputs": [
        {
          "internalType": "contract ERC777",
          "name": "",
          "type": "address"
        }
      ],
      "stateMutability": "view",
      "type": "function"
    },
    {
      "inputs": [
        {
          "internalType": "uint256",
          "name": "tokenId",
          "type": "uint256"
        }
      ],
      "name": "getApproved",
      "outputs": [
        {
          "internalType": "address",
          "name": "",
          "type": "address"
        }
      ],
      "stateMutability": "view",
      "type": "function"
    },
    {
      "inputs": [
        {
          "internalType": "address",
          "name": "owner",
          "type": "address"
        },
        {
          "internalType": "address",
          "name": "operator",
          "type": "address"
        }
      ],
      "name": "isApprovedForAll",
      "outputs": [
        {
          "internalType": "bool",
          "name": "",
          "type": "bool"
        }
      ],
      "stateMutability": "view",
      "type": "function"
    },
    {
      "inputs": [
        {
          "internalType": "address",
          "name": "forwarder",
          "type": "address"
        }
      ],
      "name": "isTrustedForwarder",
      "outputs": [
        {
          "internalType": "bool",
          "name": "",
          "type": "bool"
        }
      ],
      "stateMutability": "view",
      "type": "function"
    },
    {
      "inputs": [
        {
          "internalType": "uint256",
          "name": "",
          "type": "uint256"
        }
      ],
      "name": "items",
      "outputs": [
        {
          "internalType": "uint256",
          "name": "itemId",
          "type": "uint256"
        },
        {
          "internalType": "contract IERC721",
          "name": "nft",
          "type": "address"
        },
        {
          "internalType": "uint256",
          "name": "tokenId",
          "type": "uint256"
        },
        {
          "internalType": "string",
          "name": "tokenURI",
          "type": "string"
        },
        {
          "internalType": "uint256",
          "name": "price",
          "type": "uint256"
        },
        {
          "internalType": "address",
          "name": "artist",
          "type": "address"
        },
        {
          "internalType": "uint256",
          "name": "tokenTaxFee",
          "type": "uint256"
        },
        {
          "internalType": "address",
          "name": "addressTaxFeeToken",
          "type": "address"
        },
        {
          "internalType": "bool",
          "name": "sold",
          "type": "bool"
        },
        {
          "internalType": "address payable",
          "name": "seller",
          "type": "address"
        }
      ],
      "stateMutability": "view",
      "type": "function"
    },
    {
      "inputs": [
        {
          "internalType": "string",
          "name": "_tokenURI",
          "type": "string"
        },
        {
          "internalType": "address",
          "name": "_artist",
          "type": "address"
        },
        {
          "internalType": "uint256",
          "name": "_taxFee",
          "type": "uint256"
        },
        {
          "internalType": "address",
          "name": "_addressTaxFeeToken",
          "type": "address"
        }
      ],
      "name": "mint",
      "outputs": [
        {
          "internalType": "uint256",
          "name": "",
          "type": "uint256"
        }
      ],
      "stateMutability": "nonpayable",
      "type": "function"
    },
    {
      "inputs": [],
      "name": "name",
      "outputs": [
        {
          "internalType": "string",
          "name": "",
          "type": "string"
        }
      ],
      "stateMutability": "view",
      "type": "function"
    },
    {
      "inputs": [
        {
          "internalType": "uint256",
          "name": "tokenId",
          "type": "uint256"
        }
      ],
      "name": "ownerOf",
      "outputs": [
        {
          "internalType": "address",
          "name": "",
          "type": "address"
        }
      ],
      "stateMutability": "view",
      "type": "function"
    },
    {
      "inputs": [
        {
          "internalType": "address",
          "name": "_from",
          "type": "address"
        },
        {
          "internalType": "address",
          "name": "_to",
          "type": "address"
        },
        {
          "internalType": "uint256",
          "name": "_tokenId",
          "type": "uint256"
        }
      ],
      "name": "safeTransferFrom",
      "outputs": [],
      "stateMutability": "nonpayable",
      "type": "function"
    },
    {
      "inputs": [
        {
          "internalType": "address",
          "name": "_from",
          "type": "address"
        },
        {
          "internalType": "address",
          "name": "_to",
          "type": "address"
        },
        {
          "internalType": "uint256",
          "name": "_tokenId",
          "type": "uint256"
        },
        {
          "internalType": "bytes",
          "name": "_data",
          "type": "bytes"
        }
      ],
      "name": "safeTransferFrom",
      "outputs": [],
      "stateMutability": "nonpayable",
      "type": "function"
    },
    {
      "inputs": [
        {
          "internalType": "contract IERC721",
          "name": "_nft",
          "type": "address"
        },
        {
          "internalType": "uint256",
          "name": "_tokenId",
          "type": "uint256"
        },
        {
          "internalType": "uint256",
          "name": "_price",
          "type": "uint256"
        }
      ],
      "name": "sellItem",
      "outputs": [],
      "stateMutability": "nonpayable",
      "type": "function"
    },
    {
      "inputs": [
        {
          "internalType": "address",
          "name": "operator",
          "type": "address"
        },
        {
          "internalType": "bool",
          "name": "approved",
          "type": "bool"
        }
      ],
      "name": "setApprovalForAll",
      "outputs": [],
      "stateMutability": "nonpayable",
      "type": "function"
    },
    {
      "inputs": [
        {
          "internalType": "address",
          "name": "_excluded",
          "type": "address"
        },
        {
          "internalType": "bool",
          "name": "_status",
          "type": "bool"
        }
      ],
      "name": "setExcluded",
      "outputs": [],
      "stateMutability": "nonpayable",
      "type": "function"
    },
    {
      "inputs": [
        {
          "internalType": "bytes4",
          "name": "interfaceId",
          "type": "bytes4"
        }
      ],
      "name": "supportsInterface",
      "outputs": [
        {
          "internalType": "bool",
          "name": "",
          "type": "bool"
        }
      ],
      "stateMutability": "view",
      "type": "function"
    },
    {
      "inputs": [],
      "name": "symbol",
      "outputs": [
        {
          "internalType": "string",
          "name": "",
          "type": "string"
        }
      ],
      "stateMutability": "view",
      "type": "function"
    },
    {
      "inputs": [
        {
          "internalType": "address",
          "name": "",
          "type": "address"
        }
      ],
      "name": "tokenApproved",
      "outputs": [
        {
          "internalType": "bool",
          "name": "",
          "type": "bool"
        }
      ],
      "stateMutability": "view",
      "type": "function"
    },
    {
      "inputs": [],
      "name": "tokenIdCounter",
      "outputs": [
        {
          "internalType": "uint256",
          "name": "_value",
          "type": "uint256"
        }
      ],
      "stateMutability": "view",
      "type": "function"
    },
    {
      "inputs": [
        {
          "internalType": "uint256",
          "name": "tokenId",
          "type": "uint256"
        }
      ],
      "name": "tokenURI",
      "outputs": [
        {
          "internalType": "string",
          "name": "",
          "type": "string"
        }
      ],
      "stateMutability": "view",
      "type": "function"
    },
    {
      "inputs": [
        {
          "internalType": "uint256",
          "name": "",
          "type": "uint256"
        }
      ],
      "name": "tokens",
      "outputs": [
        {
          "internalType": "uint256",
          "name": "id",
          "type": "uint256"
        },
        {
          "internalType": "string",
          "name": "URI",
          "type": "string"
        },
        {
          "internalType": "address",
          "name": "artist",
          "type": "address"
        },
        {
          "internalType": "uint256",
          "name": "taxFee",
          "type": "uint256"
        },
        {
          "internalType": "address",
          "name": "addressTaxFeeToken",
          "type": "address"
        }
      ],
      "stateMutability": "view",
      "type": "function"
    },
    {
      "inputs": [
        {
          "internalType": "address",
          "name": "_operator",
          "type": "address"
        },
        {
          "internalType": "address",
          "name": "_from",
          "type": "address"
        },
        {
          "internalType": "address",
          "name": "_to",
          "type": "address"
        },
        {
          "internalType": "uint256",
          "name": "_amount",
          "type": "uint256"
        },
        {
          "internalType": "bytes",
          "name": "_userData",
          "type": "bytes"
        },
        {
          "internalType": "bytes",
          "name": "_operatorData",
          "type": "bytes"
        }
      ],
      "name": "tokensReceived",
      "outputs": [],
      "stateMutability": "nonpayable",
      "type": "function"
    },
    {
      "inputs": [
        {
          "internalType": "address",
          "name": "_from",
          "type": "address"
        },
        {
          "internalType": "address",
          "name": "_to",
          "type": "address"
        },
        {
          "internalType": "uint256",
          "name": "_tokenId",
          "type": "uint256"
        }
      ],
      "name": "transferFrom",
      "outputs": [],
      "stateMutability": "nonpayable",
      "type": "function"
    },
    {
      "inputs": [],
      "name": "withdrawTokens",
      "outputs": [],
      "stateMutability": "nonpayable",
      "type": "function"
    }
  ],
  "bytecode": "0x60e060405273b3971bcef2d791bc4027bbfedfb47319a4aaaaaa601060006101000a81548173ffffffffffffffffffffffffffffffffffffffff021916908373ffffffffffffffffffffffffffffffffffffffff1602179055503480156200006657600080fd5b50604051620060573803806200605783398181016040528101906200008c919062000324565b806040518060400160405280600681526020017f436f736d6f7300000000000000000000000000000000000000000000000000008152506040518060400160405280600481526020017f43534d5300000000000000000000000000000000000000000000000000000000815250848073ffffffffffffffffffffffffffffffffffffffff1660808173ffffffffffffffffffffffffffffffffffffffff1681525050508160009081620001409190620005e5565b508060019081620001529190620005e5565b5050506001600781905550731820a4b7618bde71dce8cdc73aab6c95905fad2473ffffffffffffffffffffffffffffffffffffffff166329965a1d307fb281fc8c12954d22544db45de3159a39272895b169a852b314f9cc762e44c53b306040518463ffffffff1660e01b8152600401620001d093929190620006f8565b600060405180830381600087803b158015620001eb57600080fd5b505af115801562000200573d6000803e3d6000fd5b505050508073ffffffffffffffffffffffffffffffffffffffff1660a08173ffffffffffffffffffffffffffffffffffffffff16815250503373ffffffffffffffffffffffffffffffffffffffff1660c08173ffffffffffffffffffffffffffffffffffffffff168152505050505062000735565b600080fd5b600073ffffffffffffffffffffffffffffffffffffffff82169050919050565b6000620002a7826200027a565b9050919050565b6000620002bb826200029a565b9050919050565b620002cd81620002ae565b8114620002d957600080fd5b50565b600081519050620002ed81620002c2565b92915050565b620002fe816200029a565b81146200030a57600080fd5b50565b6000815190506200031e81620002f3565b92915050565b600080604083850312156200033e576200033d62000275565b5b60006200034e85828601620002dc565b925050602062000361858286016200030d565b9150509250929050565b600081519050919050565b7f4e487b7100000000000000000000000000000000000000000000000000000000600052604160045260246000fd5b7f4e487b7100000000000000000000000000000000000000000000000000000000600052602260045260246000fd5b60006002820490506001821680620003ed57607f821691505b602082108103620004035762000402620003a5565b5b50919050565b60008190508160005260206000209050919050565b60006020601f8301049050919050565b600082821b905092915050565b6000600883026200046d7fffffffffffffffffffffffffffffffffffffffffffffffffffffffffffffffff826200042e565b6200047986836200042e565b95508019841693508086168417925050509392505050565b6000819050919050565b6000819050919050565b6000620004c6620004c0620004ba8462000491565b6200049b565b62000491565b9050919050565b6000819050919050565b620004e283620004a5565b620004fa620004f182620004cd565b8484546200043b565b825550505050565b600090565b6200051162000502565b6200051e818484620004d7565b505050565b5b8181101562000546576200053a60008262000507565b60018101905062000524565b5050565b601f82111562000595576200055f8162000409565b6200056a846200041e565b810160208510156200057a578190505b6200059262000589856200041e565b83018262000523565b50505b505050565b600082821c905092915050565b6000620005ba600019846008026200059a565b1980831691505092915050565b6000620005d58383620005a7565b9150826002028217905092915050565b620005f0826200036b565b67ffffffffffffffff8111156200060c576200060b62000376565b5b620006188254620003d4565b620006258282856200054a565b600060209050601f8311600181146200065d576000841562000648578287015190505b620006548582620005c7565b865550620006c4565b601f1984166200066d8662000409565b60005b82811015620006975784890151825560018201915060208501945060208101905062000670565b86831015620006b75784890151620006b3601f891682620005a7565b8355505b6001600288020188555050505b505050505050565b620006d7816200029a565b82525050565b6000819050919050565b620006f281620006dd565b82525050565b60006060820190506200070f6000830186620006cc565b6200071e6020830185620006e7565b6200072d6040830184620006cc565b949350505050565b60805160a05160c0516158c86200078f600039600081816110a0015281816110c6015281816119870152611b93015260008181611a5a01528181611d0f0152818161304c01526134dd0152600061104a01526158c86000f3fe6080604052600436106101cc5760003560e01c806368915327116100f75780639f37092a11610095578063bfb231d211610064578063bfb231d21461068e578063c87b56dd146106d4578063e985e9c514610711578063f958aada1461074e576101cc565b80639f37092a146105f5578063a22cb46514610611578063aa8c217c1461063a578063b88d4fde14610665576101cc565b806395d89b41116100d157806395d89b411461054b57806398bdf6f5146105765780639e70b75c146105a15780639e8e4d1d146105ca576101cc565b806368915327146104ce57806370a08231146104f75780638d8f2adb14610534576101cc565b80632836be241161016f578063572b6c051161013e578063572b6c05146103ec5780635dab24201461042957806360c6a3c8146104545780636352211e14610491576101cc565b80632836be241461032e57806342842e0e1461035757806348a3b4a4146103805780634f64b2be146103ab576101cc565b8063081812fc116101ab578063081812fc14610262578063095ea7b31461029f578063170e2b8a146102c857806323b872dd14610305576101cc565b806223de29146101d157806301ffc9a7146101fa57806306fdde0314610237575b600080fd5b3480156101dd57600080fd5b506101f860048036038101906101f39190613cc7565b610779565b005b34801561020657600080fd5b50610221600480360381019061021c9190613dee565b61079c565b60405161022e9190613e36565b60405180910390f35b34801561024357600080fd5b5061024c61087e565b6040516102599190613eea565b60405180910390f35b34801561026e57600080fd5b5061028960048036038101906102849190613f0c565b610910565b6040516102969190613f48565b60405180910390f35b3480156102ab57600080fd5b506102c660048036038101906102c19190613f63565b610956565b005b3480156102d457600080fd5b506102ef60048036038101906102ea9190613fa3565b610a6d565b6040516102fc9190613e36565b60405180910390f35b34801561031157600080fd5b5061032c60048036038101906103279190613fd0565b610a8d565b005b34801561033a57600080fd5b506103556004803603810190610350919061404f565b610c67565b005b34801561036357600080fd5b5061037e60048036038101906103799190613fd0565b610dcc565b005b34801561038c57600080fd5b50610395610f22565b6040516103a29190613f48565b60405180910390f35b3480156103b757600080fd5b506103d260048036038101906103cd9190613f0c565b610f48565b6040516103e395949392919061409e565b60405180910390f35b3480156103f857600080fd5b50610413600480360381019061040e9190613fa3565b611046565b6040516104209190613e36565b60405180910390f35b34801561043557600080fd5b5061043e61109e565b60405161044b9190613f48565b60405180910390f35b34801561046057600080fd5b5061047b60048036038101906104769190614228565b6110c2565b60405161048891906142ab565b60405180910390f35b34801561049d57600080fd5b506104b860048036038101906104b39190613f0c565b611329565b6040516104c59190613f48565b60405180910390f35b3480156104da57600080fd5b506104f560048036038101906104f09190614304565b6113af565b005b34801561050357600080fd5b5061051e60048036038101906105199190613fa3565b6118ce565b60405161052b91906142ab565b60405180910390f35b34801561054057600080fd5b50610549611985565b005b34801561055757600080fd5b50610560611af3565b60405161056d9190613eea565b60405180910390f35b34801561058257600080fd5b5061058b611b85565b60405161059891906142ab565b60405180910390f35b3480156105ad57600080fd5b506105c860048036038101906105c39190613fa3565b611b91565b005b3480156105d657600080fd5b506105df611d0d565b6040516105ec91906143b6565b60405180910390f35b61060f600480360381019061060a9190613f63565b611d31565b005b34801561061d57600080fd5b506106386004803603810190610633919061404f565b61236d565b005b34801561064657600080fd5b5061064f612383565b60405161065c91906142ab565b60405180910390f35b34801561067157600080fd5b5061068c60048036038101906106879190614472565b612389565b005b34801561069a57600080fd5b506106b560048036038101906106b09190613f0c565b612521565b6040516106cb9a99989796959493929190614537565b60405180910390f35b3480156106e057600080fd5b506106fb60048036038101906106f69190613f0c565b61268a565b6040516107089190613eea565b60405180910390f35b34801561071d57600080fd5b50610738600480360381019061073391906145da565b61279c565b6040516107459190613e36565b60405180910390f35b34801561075a57600080fd5b50610763612830565b60405161077091906142ab565b60405180910390f35b846008600082825461078b9190614649565b925050819055505050505050505050565b60007f80ac58cd000000000000000000000000000000000000000000000000000000007bffffffffffffffffffffffffffffffffffffffffffffffffffffffff1916827bffffffffffffffffffffffffffffffffffffffffffffffffffffffff1916148061086757507f5b5e139f000000000000000000000000000000000000000000000000000000007bffffffffffffffffffffffffffffffffffffffffffffffffffffffff1916827bffffffffffffffffffffffffffffffffffffffffffffffffffffffff1916145b8061087757506108768261283c565b5b9050919050565b60606000805461088d906146ce565b80601f01602080910402602001604051908101604052809291908181526020018280546108b9906146ce565b80156109065780601f106108db57610100808354040283529160200191610906565b820191906000526020600020905b8154815290600101906020018083116108e957829003601f168201915b5050505050905090565b600061091b826128a6565b6004600083815260200190815260200160002060009054906101000a900473ffffffffffffffffffffffffffffffffffffffff169050919050565b600061096182611329565b90508073ffffffffffffffffffffffffffffffffffffffff168373ffffffffffffffffffffffffffffffffffffffff16036109d1576040517f08c379a00000000000000000000000000000000000000000000000000000000081526004016109c890614771565b60405180910390fd5b8073ffffffffffffffffffffffffffffffffffffffff166109f06128f1565b73ffffffffffffffffffffffffffffffffffffffff161480610a1f5750610a1e81610a196128f1565b61279c565b5b610a5e576040517f08c379a0000000000000000000000000000000000000000000000000000000008152600401610a5590614803565b60405180910390fd5b610a688383612900565b505050565b600d6020528060005260406000206000915054906101000a900460ff1681565b3073ffffffffffffffffffffffffffffffffffffffff168273ffffffffffffffffffffffffffffffffffffffff1603610ad057610acb8383836129b9565b610c62565b610ae1610adb6128f1565b82612cb2565b610b20576040517f08c379a0000000000000000000000000000000000000000000000000000000008152600401610b1790614895565b60405180910390fd5b6000600c600083815260200190815260200160002060020160009054906101000a900473ffffffffffffffffffffffffffffffffffffffff16905060001515600f60008373ffffffffffffffffffffffffffffffffffffffff1673ffffffffffffffffffffffffffffffffffffffff16815260200190815260200160002060008673ffffffffffffffffffffffffffffffffffffffff1673ffffffffffffffffffffffffffffffffffffffff16815260200190815260200160002060009054906101000a900460ff16151503610c55576000600c60008481526020019081526020016000206003015490506000600c600085815260200190815260200160002060040160009054906101000a900473ffffffffffffffffffffffffffffffffffffffff169050610c5286848484612d47565b50505b610c608484846129b9565b505b505050565b3373ffffffffffffffffffffffffffffffffffffffff16600e60003373ffffffffffffffffffffffffffffffffffffffff1673ffffffffffffffffffffffffffffffffffffffff16815260200190815260200160002060009054906101000a900473ffffffffffffffffffffffffffffffffffffffff1673ffffffffffffffffffffffffffffffffffffffff1614610d34576040517f08c379a0000000000000000000000000000000000000000000000000000000008152600401610d2b90614927565b60405180910390fd5b80600f60003373ffffffffffffffffffffffffffffffffffffffff1673ffffffffffffffffffffffffffffffffffffffff16815260200190815260200160002060008473ffffffffffffffffffffffffffffffffffffffff1673ffffffffffffffffffffffffffffffffffffffff16815260200190815260200160002060006101000a81548160ff0219169083151502179055505050565b6000600c600083815260200190815260200160002060020160009054906101000a900473ffffffffffffffffffffffffffffffffffffffff16905060001515600f60008373ffffffffffffffffffffffffffffffffffffffff1673ffffffffffffffffffffffffffffffffffffffff16815260200190815260200160002060008673ffffffffffffffffffffffffffffffffffffffff1673ffffffffffffffffffffffffffffffffffffffff16815260200190815260200160002060009054906101000a900460ff16151503610f01576000600c60008481526020019081526020016000206003015490506000600c600085815260200190815260200160002060040160009054906101000a900473ffffffffffffffffffffffffffffffffffffffff169050610efe86848484612d47565b50505b610f1c84848460405180602001604052806000815250612389565b50505050565b601060009054906101000a900473ffffffffffffffffffffffffffffffffffffffff1681565b600c602052806000526040600020600091509050806000015490806001018054610f71906146ce565b80601f0160208091040260200160405190810160405280929190818152602001828054610f9d906146ce565b8015610fea5780601f10610fbf57610100808354040283529160200191610fea565b820191906000526020600020905b815481529060010190602001808311610fcd57829003601f168201915b5050505050908060020160009054906101000a900473ffffffffffffffffffffffffffffffffffffffff16908060030154908060040160009054906101000a900473ffffffffffffffffffffffffffffffffffffffff16905085565b60007f000000000000000000000000000000000000000000000000000000000000000073ffffffffffffffffffffffffffffffffffffffff168273ffffffffffffffffffffffffffffffffffffffff16149050919050565b7f000000000000000000000000000000000000000000000000000000000000000081565b60007f000000000000000000000000000000000000000000000000000000000000000073ffffffffffffffffffffffffffffffffffffffff163373ffffffffffffffffffffffffffffffffffffffff1614611152576040517f08c379a0000000000000000000000000000000000000000000000000000000008152600401611149906149b9565b60405180910390fd5b83600e60008673ffffffffffffffffffffffffffffffffffffffff1673ffffffffffffffffffffffffffffffffffffffff16815260200190815260200160002060006101000a81548173ffffffffffffffffffffffffffffffffffffffff021916908373ffffffffffffffffffffffffffffffffffffffff16021790555060006111dc600a612f05565b90506111e8600a612f13565b6111f23382612f29565b6111fc8187612f47565b6040518060a001604052808281526020018781526020018673ffffffffffffffffffffffffffffffffffffffff1681526020018581526020018473ffffffffffffffffffffffffffffffffffffffff16815250600c60008381526020019081526020016000206000820151816000015560208201518160010190816112819190614b7b565b5060408201518160020160006101000a81548173ffffffffffffffffffffffffffffffffffffffff021916908373ffffffffffffffffffffffffffffffffffffffff1602179055506060820151816003015560808201518160040160006101000a81548173ffffffffffffffffffffffffffffffffffffffff021916908373ffffffffffffffffffffffffffffffffffffffff16021790555090505080915050949350505050565b60008061133583612fb4565b9050600073ffffffffffffffffffffffffffffffffffffffff168173ffffffffffffffffffffffffffffffffffffffff16036113a6576040517f08c379a000000000000000000000000000000000000000000000000000000000815260040161139d90614c99565b60405180910390fd5b80915050919050565b6113b7612ff1565b600081116113fa576040517f08c379a00000000000000000000000000000000000000000000000000000000081526004016113f190614d05565b60405180910390fd5b6114046009612f13565b60006114106009612f05565b90508373ffffffffffffffffffffffffffffffffffffffff166323b872dd3330866040518463ffffffff1660e01b815260040161144f93929190614d25565b600060405180830381600087803b15801561146957600080fd5b505af115801561147d573d6000803e3d6000fd5b505050506000600c60008581526020019081526020016000206040518060a0016040529081600082015481526020016001820180546114bb906146ce565b80601f01602080910402602001604051908101604052809291908181526020018280546114e7906146ce565b80156115345780601f1061150957610100808354040283529160200191611534565b820191906000526020600020905b81548152906001019060200180831161151757829003601f168201915b505050505081526020016002820160009054906101000a900473ffffffffffffffffffffffffffffffffffffffff1673ffffffffffffffffffffffffffffffffffffffff1673ffffffffffffffffffffffffffffffffffffffff168152602001600382015481526020016004820160009054906101000a900473ffffffffffffffffffffffffffffffffffffffff1673ffffffffffffffffffffffffffffffffffffffff1673ffffffffffffffffffffffffffffffffffffffff1681525050905060006040518061014001604052808481526020018773ffffffffffffffffffffffffffffffffffffffff16815260200186815260200183602001518152602001858152602001836040015173ffffffffffffffffffffffffffffffffffffffff16815260200183606001518152602001836080015173ffffffffffffffffffffffffffffffffffffffff1681526020016000151581526020013373ffffffffffffffffffffffffffffffffffffffff16815250905080600b60008581526020019081526020016000206000820151816000015560208201518160010160006101000a81548173ffffffffffffffffffffffffffffffffffffffff021916908373ffffffffffffffffffffffffffffffffffffffff16021790555060408201518160020155606082015181600301908161172e9190614b7b565b506080820151816004015560a08201518160050160006101000a81548173ffffffffffffffffffffffffffffffffffffffff021916908373ffffffffffffffffffffffffffffffffffffffff16021790555060c0820151816006015560e08201518160070160006101000a81548173ffffffffffffffffffffffffffffffffffffffff021916908373ffffffffffffffffffffffffffffffffffffffff1602179055506101008201518160070160146101000a81548160ff0219169083151502179055506101208201518160080160006101000a81548173ffffffffffffffffffffffffffffffffffffffff021916908373ffffffffffffffffffffffffffffffffffffffff1602179055509050503373ffffffffffffffffffffffffffffffffffffffff168673ffffffffffffffffffffffffffffffffffffffff167f975211cbc9861c9448d1a3c68ce608f0445c3ecf60a30bcca7fb923d4056b7948588866020015189886040015189606001518a608001516040516118b69796959493929190614d5c565b60405180910390a35050506118c9613040565b505050565b60008073ffffffffffffffffffffffffffffffffffffffff168273ffffffffffffffffffffffffffffffffffffffff160361193e576040517f08c379a000000000000000000000000000000000000000000000000000000000815260040161193590614e44565b60405180910390fd5b600360008373ffffffffffffffffffffffffffffffffffffffff1673ffffffffffffffffffffffffffffffffffffffff168152602001908152602001600020549050919050565b7f000000000000000000000000000000000000000000000000000000000000000073ffffffffffffffffffffffffffffffffffffffff163373ffffffffffffffffffffffffffffffffffffffff1614611a13576040517f08c379a0000000000000000000000000000000000000000000000000000000008152600401611a0a906149b9565b60405180910390fd5b600060085411611a58576040517f08c379a0000000000000000000000000000000000000000000000000000000008152600401611a4f90614eb0565b60405180910390fd5b7f000000000000000000000000000000000000000000000000000000000000000073ffffffffffffffffffffffffffffffffffffffff166362ad1b8330336008546040518463ffffffff1660e01b8152600401611ab793929190614f07565b600060405180830381600087803b158015611ad157600080fd5b505af1158015611ae5573d6000803e3d6000fd5b505050506000600881905550565b606060018054611b02906146ce565b80601f0160208091040260200160405190810160405280929190818152602001828054611b2e906146ce565b8015611b7b5780601f10611b5057610100808354040283529160200191611b7b565b820191906000526020600020905b815481529060010190602001808311611b5e57829003601f168201915b5050505050905090565b600a8060000154905081565b7f000000000000000000000000000000000000000000000000000000000000000073ffffffffffffffffffffffffffffffffffffffff163373ffffffffffffffffffffffffffffffffffffffff1614611c1f576040517f08c379a0000000000000000000000000000000000000000000000000000000008152600401611c16906149b9565b60405180910390fd5b60001515600d60008373ffffffffffffffffffffffffffffffffffffffff1673ffffffffffffffffffffffffffffffffffffffff16815260200190815260200160002060009054906101000a900460ff16151514611cb2576040517f08c379a0000000000000000000000000000000000000000000000000000000008152600401611ca990614fb0565b60405180910390fd5b6001600d60008373ffffffffffffffffffffffffffffffffffffffff1673ffffffffffffffffffffffffffffffffffffffff16815260200190815260200160002060006101000a81548160ff02191690831515021790555050565b7f000000000000000000000000000000000000000000000000000000000000000081565b611d39612ff1565b6000600b60008381526020019081526020016000206004015490506000600b6000848152602001908152602001600020905060011515600d60008673ffffffffffffffffffffffffffffffffffffffff1673ffffffffffffffffffffffffffffffffffffffff16815260200190815260200160002060009054906101000a900460ff16151514611dfe576040517f08c379a0000000000000000000000000000000000000000000000000000000008152600401611df59061501c565b60405180910390fd5b818473ffffffffffffffffffffffffffffffffffffffff1663f38e266a336040518263ffffffff1660e01b8152600401611e389190613f48565b602060405180830381865afa158015611e55573d6000803e3d6000fd5b505050506040513d601f19601f82011682018060405250810190611e799190615051565b11611eb9576040517f08c379a0000000000000000000000000000000000000000000000000000000008152600401611eb0906150ca565b60405180910390fd5b600083118015611ed25750611ece6009612f05565b8311155b611f11576040517f08c379a0000000000000000000000000000000000000000000000000000000008152600401611f0890615136565b60405180910390fd5b8060070160149054906101000a900460ff1615611f63576040517f08c379a0000000000000000000000000000000000000000000000000000000008152600401611f5a906151a2565b60405180910390fd5b8373ffffffffffffffffffffffffffffffffffffffff166325e8e00c33846040518363ffffffff1660e01b8152600401611f9e9291906151c2565b6020604051808303816000875af1158015611fbd573d6000803e3d6000fd5b505050506040513d601f19601f82011682018060405250810190611fe19190615200565b612020576040517f08c379a000000000000000000000000000000000000000000000000000000000815260040161201790615279565b60405180910390fd5b6120298261304a565b8060010160009054906101000a900473ffffffffffffffffffffffffffffffffffffffff1673ffffffffffffffffffffffffffffffffffffffff166323b872dd303384600201546040518463ffffffff1660e01b815260040161208e93929190614d25565b600060405180830381600087803b1580156120a857600080fd5b505af11580156120bc573d6000803e3d6000fd5b505050506000600b6000858152602001908152602001600020905060018160070160146101000a81548160ff0219169083151502179055506000600c6000836002015481526020019081526020016000206040518060a001604052908160008201548152602001600182018054612132906146ce565b80601f016020809104026020016040519081016040528092919081815260200182805461215e906146ce565b80156121ab5780601f10612180576101008083540402835291602001916121ab565b820191906000526020600020905b81548152906001019060200180831161218e57829003601f168201915b505050505081526020016002820160009054906101000a900473ffffffffffffffffffffffffffffffffffffffff1673ffffffffffffffffffffffffffffffffffffffff1673ffffffffffffffffffffffffffffffffffffffff168152602001600382015481526020016004820160009054906101000a900473ffffffffffffffffffffffffffffffffffffffff1673ffffffffffffffffffffffffffffffffffffffff1673ffffffffffffffffffffffffffffffffffffffff168152505090503373ffffffffffffffffffffffffffffffffffffffff168360010160009054906101000a900473ffffffffffffffffffffffffffffffffffffffff1673ffffffffffffffffffffffffffffffffffffffff167fdc7540e6f6fa2d49abe473a1fbe2315ef51c17ba1d7611cde26c6da3adfac3ef85600001548660020154856020015188600401548960050160009054906101000a900473ffffffffffffffffffffffffffffffffffffffff168a600601548b60070160009054906101000a900473ffffffffffffffffffffffffffffffffffffffff166040516123559796959493929190614d5c565b60405180910390a350505050612369613040565b5050565b61237f6123786128f1565b83836130f5565b5050565b60085481565b61239a6123946128f1565b83612cb2565b6123d9576040517f08c379a00000000000000000000000000000000000000000000000000000000081526004016123d090614895565b60405180910390fd5b6000600c600084815260200190815260200160002060020160009054906101000a900473ffffffffffffffffffffffffffffffffffffffff16905060001515600f60008373ffffffffffffffffffffffffffffffffffffffff1673ffffffffffffffffffffffffffffffffffffffff16815260200190815260200160002060008773ffffffffffffffffffffffffffffffffffffffff1673ffffffffffffffffffffffffffffffffffffffff16815260200190815260200160002060009054906101000a900460ff1615150361250e576000600c60008581526020019081526020016000206003015490506000600c600086815260200190815260200160002060040160009054906101000a900473ffffffffffffffffffffffffffffffffffffffff16905061250b87848484612d47565b50505b61251a85858585613261565b5050505050565b600b6020528060005260406000206000915090508060000154908060010160009054906101000a900473ffffffffffffffffffffffffffffffffffffffff1690806002015490806003018054612576906146ce565b80601f01602080910402602001604051908101604052809291908181526020018280546125a2906146ce565b80156125ef5780601f106125c4576101008083540402835291602001916125ef565b820191906000526020600020905b8154815290600101906020018083116125d257829003601f168201915b5050505050908060040154908060050160009054906101000a900473ffffffffffffffffffffffffffffffffffffffff16908060060154908060070160009054906101000a900473ffffffffffffffffffffffffffffffffffffffff16908060070160149054906101000a900460ff16908060080160009054906101000a900473ffffffffffffffffffffffffffffffffffffffff1690508a565b6060612695826128a6565b60006006600084815260200190815260200160002080546126b5906146ce565b80601f01602080910402602001604051908101604052809291908181526020018280546126e1906146ce565b801561272e5780601f106127035761010080835404028352916020019161272e565b820191906000526020600020905b81548152906001019060200180831161271157829003601f168201915b50505050509050600061273f6132bd565b90506000815103612754578192505050612797565b6000825111156127895780826040516020016127719291906152d5565b60405160208183030381529060405292505050612797565b612792846132d4565b925050505b919050565b6000600560008473ffffffffffffffffffffffffffffffffffffffff1673ffffffffffffffffffffffffffffffffffffffff16815260200190815260200160002060008373ffffffffffffffffffffffffffffffffffffffff1673ffffffffffffffffffffffffffffffffffffffff16815260200190815260200160002060009054906101000a900460ff16905092915050565b60098060000154905081565b60007f01ffc9a7000000000000000000000000000000000000000000000000000000007bffffffffffffffffffffffffffffffffffffffffffffffffffffffff1916827bffffffffffffffffffffffffffffffffffffffffffffffffffffffff1916149050919050565b6128af8161333c565b6128ee576040517f08c379a00000000000000000000000000000000000000000000000000000000081526004016128e590614c99565b60405180910390fd5b50565b60006128fb61337d565b905090565b816004600083815260200190815260200160002060006101000a81548173ffffffffffffffffffffffffffffffffffffffff021916908373ffffffffffffffffffffffffffffffffffffffff160217905550808273ffffffffffffffffffffffffffffffffffffffff1661297383611329565b73ffffffffffffffffffffffffffffffffffffffff167f8c5be1e5ebec7d5bd14f71427d1e84f3dd0314c0f7b2291e5b200ac8c7c3b92560405160405180910390a45050565b8273ffffffffffffffffffffffffffffffffffffffff166129d982611329565b73ffffffffffffffffffffffffffffffffffffffff1614612a2f576040517f08c379a0000000000000000000000000000000000000000000000000000000008152600401612a269061536b565b60405180910390fd5b600073ffffffffffffffffffffffffffffffffffffffff168273ffffffffffffffffffffffffffffffffffffffff1603612a9e576040517f08c379a0000000000000000000000000000000000000000000000000000000008152600401612a95906153fd565b60405180910390fd5b612aab83838360016133af565b8273ffffffffffffffffffffffffffffffffffffffff16612acb82611329565b73ffffffffffffffffffffffffffffffffffffffff1614612b21576040517f08c379a0000000000000000000000000000000000000000000000000000000008152600401612b189061536b565b60405180910390fd5b6004600082815260200190815260200160002060006101000a81549073ffffffffffffffffffffffffffffffffffffffff02191690556001600360008573ffffffffffffffffffffffffffffffffffffffff1673ffffffffffffffffffffffffffffffffffffffff168152602001908152602001600020600082825403925050819055506001600360008473ffffffffffffffffffffffffffffffffffffffff1673ffffffffffffffffffffffffffffffffffffffff16815260200190815260200160002060008282540192505081905550816002600083815260200190815260200160002060006101000a81548173ffffffffffffffffffffffffffffffffffffffff021916908373ffffffffffffffffffffffffffffffffffffffff160217905550808273ffffffffffffffffffffffffffffffffffffffff168473ffffffffffffffffffffffffffffffffffffffff167fddf252ad1be2c89b69c2b068fc378daa952ba7f163c4a11628f55a4df523b3ef60405160405180910390a4612cad83838360016134d5565b505050565b600080612cbe83611329565b90508073ffffffffffffffffffffffffffffffffffffffff168473ffffffffffffffffffffffffffffffffffffffff161480612d005750612cff818561279c565b5b80612d3e57508373ffffffffffffffffffffffffffffffffffffffff16612d2684610910565b73ffffffffffffffffffffffffffffffffffffffff16145b91505092915050565b8373ffffffffffffffffffffffffffffffffffffffff163073ffffffffffffffffffffffffffffffffffffffff160315612eff57818173ffffffffffffffffffffffffffffffffffffffff1663f38e266a866040518263ffffffff1660e01b8152600401612db59190613f48565b602060405180830381865afa158015612dd2573d6000803e3d6000fd5b505050506040513d601f19601f82011682018060405250810190612df69190615051565b11612e36576040517f08c379a0000000000000000000000000000000000000000000000000000000008152600401612e2d906150ca565b60405180910390fd5b8073ffffffffffffffffffffffffffffffffffffffff166325e8e00c85846040518363ffffffff1660e01b8152600401612e719291906151c2565b6020604051808303816000875af1158015612e90573d6000803e3d6000fd5b505050506040513d601f19601f82011682018060405250810190612eb49190615200565b612ef3576040517f08c379a0000000000000000000000000000000000000000000000000000000008152600401612eea90615469565b60405180910390fd5b612efe8484846134db565b5b50505050565b600081600001549050919050565b6001816000016000828254019250508190555050565b612f4382826040518060200160405280600081525061356f565b5050565b612f508261333c565b612f8f576040517f08c379a0000000000000000000000000000000000000000000000000000000008152600401612f86906154fb565b60405180910390fd5b80600660008481526020019081526020016000209081612faf9190614b7b565b505050565b60006002600083815260200190815260200160002060009054906101000a900473ffffffffffffffffffffffffffffffffffffffff169050919050565b600260075403613036576040517f08c379a000000000000000000000000000000000000000000000000000000000815260040161302d90615567565b60405180910390fd5b6002600781905550565b6001600781905550565b7f000000000000000000000000000000000000000000000000000000000000000073ffffffffffffffffffffffffffffffffffffffff166362ad1b833330846040518463ffffffff1660e01b81526004016130a793929190614f07565b600060405180830381600087803b1580156130c157600080fd5b505af11580156130d5573d6000803e3d6000fd5b5050505080600860008282546130eb9190614649565b9250508190555050565b8173ffffffffffffffffffffffffffffffffffffffff168373ffffffffffffffffffffffffffffffffffffffff1603613163576040517f08c379a000000000000000000000000000000000000000000000000000000000815260040161315a906155d3565b60405180910390fd5b80600560008573ffffffffffffffffffffffffffffffffffffffff1673ffffffffffffffffffffffffffffffffffffffff16815260200190815260200160002060008473ffffffffffffffffffffffffffffffffffffffff1673ffffffffffffffffffffffffffffffffffffffff16815260200190815260200160002060006101000a81548160ff0219169083151502179055508173ffffffffffffffffffffffffffffffffffffffff168373ffffffffffffffffffffffffffffffffffffffff167f17307eab39ab6107e8899845ad3d59bd9653f200f220920489ca2b5937696c31836040516132549190613e36565b60405180910390a3505050565b61326c8484846129b9565b613278848484846135ca565b6132b7576040517f08c379a00000000000000000000000000000000000000000000000000000000081526004016132ae90615665565b60405180910390fd5b50505050565b606060405180602001604052806000815250905090565b60606132df826128a6565b60006132e96132bd565b905060008151116133095760405180602001604052806000815250613334565b8061331384613751565b6040516020016133249291906152d5565b6040516020818303038152906040525b915050919050565b60008073ffffffffffffffffffffffffffffffffffffffff1661335e83612fb4565b73ffffffffffffffffffffffffffffffffffffffff1614159050919050565b600061338833611046565b1561339c57601436033560601c90506133ab565b6133a461381f565b90506133ac565b5b90565b60018111156134cf57600073ffffffffffffffffffffffffffffffffffffffff168473ffffffffffffffffffffffffffffffffffffffff16146134435780600360008673ffffffffffffffffffffffffffffffffffffffff1673ffffffffffffffffffffffffffffffffffffffff168152602001908152602001600020600082825461343b9190615685565b925050819055505b600073ffffffffffffffffffffffffffffffffffffffff168373ffffffffffffffffffffffffffffffffffffffff16146134ce5780600360008573ffffffffffffffffffffffffffffffffffffffff1673ffffffffffffffffffffffffffffffffffffffff16815260200190815260200160002060008282546134c69190614649565b925050819055505b5b50505050565b50505050565b7f000000000000000000000000000000000000000000000000000000000000000073ffffffffffffffffffffffffffffffffffffffff166362ad1b838484846040518463ffffffff1660e01b815260040161353893929190614f07565b600060405180830381600087803b15801561355257600080fd5b505af1158015613566573d6000803e3d6000fd5b50505050505050565b6135798383613827565b61358660008484846135ca565b6135c5576040517f08c379a00000000000000000000000000000000000000000000000000000000081526004016135bc90615665565b60405180910390fd5b505050565b60006135eb8473ffffffffffffffffffffffffffffffffffffffff16613a44565b15613744578373ffffffffffffffffffffffffffffffffffffffff1663150b7a026136146128f1565b8786866040518563ffffffff1660e01b815260040161363694939291906156fd565b6020604051808303816000875af192505050801561367257506040513d601f19601f8201168201806040525081019061366f919061575e565b60015b6136f4573d80600081146136a2576040519150601f19603f3d011682016040523d82523d6000602084013e6136a7565b606091505b5060008151036136ec576040517f08c379a00000000000000000000000000000000000000000000000000000000081526004016136e390615665565b60405180910390fd5b805181602001fd5b63150b7a0260e01b7bffffffffffffffffffffffffffffffffffffffffffffffffffffffff1916817bffffffffffffffffffffffffffffffffffffffffffffffffffffffff191614915050613749565b600190505b949350505050565b60606000600161376084613a67565b01905060008167ffffffffffffffff81111561377f5761377e6140fd565b5b6040519080825280601f01601f1916602001820160405280156137b15781602001600182028036833780820191505090505b509050600082602001820190505b600115613814578080600190039150507f3031323334353637383961626364656600000000000000000000000000000000600a86061a8153600a85816138085761380761578b565b5b049450600085036137bf575b819350505050919050565b600033905090565b600073ffffffffffffffffffffffffffffffffffffffff168273ffffffffffffffffffffffffffffffffffffffff1603613896576040517f08c379a000000000000000000000000000000000000000000000000000000000815260040161388d90615806565b60405180910390fd5b61389f8161333c565b156138df576040517f08c379a00000000000000000000000000000000000000000000000000000000081526004016138d690615872565b60405180910390fd5b6138ed6000838360016133af565b6138f68161333c565b15613936576040517f08c379a000000000000000000000000000000000000000000000000000000000815260040161392d90615872565b60405180910390fd5b6001600360008473ffffffffffffffffffffffffffffffffffffffff1673ffffffffffffffffffffffffffffffffffffffff16815260200190815260200160002060008282540192505081905550816002600083815260200190815260200160002060006101000a81548173ffffffffffffffffffffffffffffffffffffffff021916908373ffffffffffffffffffffffffffffffffffffffff160217905550808273ffffffffffffffffffffffffffffffffffffffff16600073ffffffffffffffffffffffffffffffffffffffff167fddf252ad1be2c89b69c2b068fc378daa952ba7f163c4a11628f55a4df523b3ef60405160405180910390a4613a406000838360016134d5565b5050565b6000808273ffffffffffffffffffffffffffffffffffffffff163b119050919050565b600080600090507a184f03e93ff9f4daa797ed6e38ed64bf6a1f0100000000000000008310613ac5577a184f03e93ff9f4daa797ed6e38ed64bf6a1f0100000000000000008381613abb57613aba61578b565b5b0492506040810190505b6d04ee2d6d415b85acef81000000008310613b02576d04ee2d6d415b85acef81000000008381613af857613af761578b565b5b0492506020810190505b662386f26fc100008310613b3157662386f26fc100008381613b2757613b2661578b565b5b0492506010810190505b6305f5e1008310613b5a576305f5e1008381613b5057613b4f61578b565b5b0492506008810190505b6127108310613b7f576127108381613b7557613b7461578b565b5b0492506004810190505b60648310613ba25760648381613b9857613b9761578b565b5b0492506002810190505b600a8310613bb1576001810190505b80915050919050565b6000604051905090565b600080fd5b600080fd5b600073ffffffffffffffffffffffffffffffffffffffff82169050919050565b6000613bf982613bce565b9050919050565b613c0981613bee565b8114613c1457600080fd5b50565b600081359050613c2681613c00565b92915050565b6000819050919050565b613c3f81613c2c565b8114613c4a57600080fd5b50565b600081359050613c5c81613c36565b92915050565b600080fd5b600080fd5b600080fd5b60008083601f840112613c8757613c86613c62565b5b8235905067ffffffffffffffff811115613ca457613ca3613c67565b5b602083019150836001820283011115613cc057613cbf613c6c565b5b9250929050565b60008060008060008060008060c0898b031215613ce757613ce6613bc4565b5b6000613cf58b828c01613c17565b9850506020613d068b828c01613c17565b9750506040613d178b828c01613c17565b9650506060613d288b828c01613c4d565b955050608089013567ffffffffffffffff811115613d4957613d48613bc9565b5b613d558b828c01613c71565b945094505060a089013567ffffffffffffffff811115613d7857613d77613bc9565b5b613d848b828c01613c71565b92509250509295985092959890939650565b60007fffffffff0000000000000000000000000000000000000000000000000000000082169050919050565b613dcb81613d96565b8114613dd657600080fd5b50565b600081359050613de881613dc2565b92915050565b600060208284031215613e0457613e03613bc4565b5b6000613e1284828501613dd9565b91505092915050565b60008115159050919050565b613e3081613e1b565b82525050565b6000602082019050613e4b6000830184613e27565b92915050565b600081519050919050565b600082825260208201905092915050565b60005b83811015613e8b578082015181840152602081019050613e70565b83811115613e9a576000848401525b50505050565b6000601f19601f8301169050919050565b6000613ebc82613e51565b613ec68185613e5c565b9350613ed6818560208601613e6d565b613edf81613ea0565b840191505092915050565b60006020820190508181036000830152613f048184613eb1565b905092915050565b600060208284031215613f2257613f21613bc4565b5b6000613f3084828501613c4d565b91505092915050565b613f4281613bee565b82525050565b6000602082019050613f5d6000830184613f39565b92915050565b60008060408385031215613f7a57613f79613bc4565b5b6000613f8885828601613c17565b9250506020613f9985828601613c4d565b9150509250929050565b600060208284031215613fb957613fb8613bc4565b5b6000613fc784828501613c17565b91505092915050565b600080600060608486031215613fe957613fe8613bc4565b5b6000613ff786828701613c17565b935050602061400886828701613c17565b925050604061401986828701613c4d565b9150509250925092565b61402c81613e1b565b811461403757600080fd5b50565b60008135905061404981614023565b92915050565b6000806040838503121561406657614065613bc4565b5b600061407485828601613c17565b92505060206140858582860161403a565b9150509250929050565b61409881613c2c565b82525050565b600060a0820190506140b3600083018861408f565b81810360208301526140c58187613eb1565b90506140d46040830186613f39565b6140e1606083018561408f565b6140ee6080830184613f39565b9695505050505050565b600080fd5b7f4e487b7100000000000000000000000000000000000000000000000000000000600052604160045260246000fd5b61413582613ea0565b810181811067ffffffffffffffff82111715614154576141536140fd565b5b80604052505050565b6000614167613bba565b9050614173828261412c565b919050565b600067ffffffffffffffff821115614193576141926140fd565b5b61419c82613ea0565b9050602081019050919050565b82818337600083830152505050565b60006141cb6141c684614178565b61415d565b9050828152602081018484840111156141e7576141e66140f8565b5b6141f28482856141a9565b509392505050565b600082601f83011261420f5761420e613c62565b5b813561421f8482602086016141b8565b91505092915050565b6000806000806080858703121561424257614241613bc4565b5b600085013567ffffffffffffffff8111156142605761425f613bc9565b5b61426c878288016141fa565b945050602061427d87828801613c17565b935050604061428e87828801613c4d565b925050606061429f87828801613c17565b91505092959194509250565b60006020820190506142c0600083018461408f565b92915050565b60006142d182613bee565b9050919050565b6142e1816142c6565b81146142ec57600080fd5b50565b6000813590506142fe816142d8565b92915050565b60008060006060848603121561431d5761431c613bc4565b5b600061432b868287016142ef565b935050602061433c86828701613c4d565b925050604061434d86828701613c4d565b9150509250925092565b6000819050919050565b600061437c61437761437284613bce565b614357565b613bce565b9050919050565b600061438e82614361565b9050919050565b60006143a082614383565b9050919050565b6143b081614395565b82525050565b60006020820190506143cb60008301846143a7565b92915050565b600067ffffffffffffffff8211156143ec576143eb6140fd565b5b6143f582613ea0565b9050602081019050919050565b6000614415614410846143d1565b61415d565b905082815260208101848484011115614431576144306140f8565b5b61443c8482856141a9565b509392505050565b600082601f83011261445957614458613c62565b5b8135614469848260208601614402565b91505092915050565b6000806000806080858703121561448c5761448b613bc4565b5b600061449a87828801613c17565b94505060206144ab87828801613c17565b93505060406144bc87828801613c4d565b925050606085013567ffffffffffffffff8111156144dd576144dc613bc9565b5b6144e987828801614444565b91505092959194509250565b600061450082614383565b9050919050565b614510816144f5565b82525050565b600061452182613bce565b9050919050565b61453181614516565b82525050565b60006101408201905061454d600083018d61408f565b61455a602083018c614507565b614567604083018b61408f565b8181036060830152614579818a613eb1565b9050614588608083018961408f565b61459560a0830188613f39565b6145a260c083018761408f565b6145af60e0830186613f39565b6145bd610100830185613e27565b6145cb610120830184614528565b9b9a5050505050505050505050565b600080604083850312156145f1576145f0613bc4565b5b60006145ff85828601613c17565b925050602061461085828601613c17565b9150509250929050565b7f4e487b7100000000000000000000000000000000000000000000000000000000600052601160045260246000fd5b600061465482613c2c565b915061465f83613c2c565b9250827fffffffffffffffffffffffffffffffffffffffffffffffffffffffffffffffff038211156146945761469361461a565b5b828201905092915050565b7f4e487b7100000000000000000000000000000000000000000000000000000000600052602260045260246000fd5b600060028204905060018216806146e657607f821691505b6020821081036146f9576146f861469f565b5b50919050565b7f4552433732313a20617070726f76616c20746f2063757272656e74206f776e6560008201527f7200000000000000000000000000000000000000000000000000000000000000602082015250565b600061475b602183613e5c565b9150614766826146ff565b604082019050919050565b6000602082019050818103600083015261478a8161474e565b9050919050565b7f4552433732313a20617070726f76652063616c6c6572206973206e6f7420746f60008201527f6b656e206f776e6572206f7220617070726f76656420666f7220616c6c000000602082015250565b60006147ed603d83613e5c565b91506147f882614791565b604082019050919050565b6000602082019050818103600083015261481c816147e0565b9050919050565b7f4552433732313a207472616e736665722063616c6c6572206973206e6f74206f60008201527f776e6572206e6f7220617070726f766564000000000000000000000000000000602082015250565b600061487f603183613e5c565b915061488a82614823565b604082019050919050565b600060208201905081810360008301526148ae81614872565b9050919050565b7f646f65736e277420686173204e46547320696e20746865206d61726b6574706c60008201527f6163650000000000000000000000000000000000000000000000000000000000602082015250565b6000614911602383613e5c565b915061491c826148b5565b604082019050919050565b6000602082019050818103600083015261494081614904565b9050919050565b7f4d61726b6574506c616365436f6e74726163743a2063616c6c6572206973206e60008201527f6f7420746865206f776e65720000000000000000000000000000000000000000602082015250565b60006149a3602c83613e5c565b91506149ae82614947565b604082019050919050565b600060208201905081810360008301526149d281614996565b9050919050565b60008190508160005260206000209050919050565b60006020601f8301049050919050565b600082821b905092915050565b600060088302614a3b7fffffffffffffffffffffffffffffffffffffffffffffffffffffffffffffffff826149fe565b614a4586836149fe565b95508019841693508086168417925050509392505050565b6000614a78614a73614a6e84613c2c565b614357565b613c2c565b9050919050565b6000819050919050565b614a9283614a5d565b614aa6614a9e82614a7f565b848454614a0b565b825550505050565b600090565b614abb614aae565b614ac6818484614a89565b505050565b5b81811015614aea57614adf600082614ab3565b600181019050614acc565b5050565b601f821115614b2f57614b00816149d9565b614b09846149ee565b81016020851015614b18578190505b614b2c614b24856149ee565b830182614acb565b50505b505050565b600082821c905092915050565b6000614b5260001984600802614b34565b1980831691505092915050565b6000614b6b8383614b41565b9150826002028217905092915050565b614b8482613e51565b67ffffffffffffffff811115614b9d57614b9c6140fd565b5b614ba782546146ce565b614bb2828285614aee565b600060209050601f831160018114614be55760008415614bd3578287015190505b614bdd8582614b5f565b865550614c45565b601f198416614bf3866149d9565b60005b82811015614c1b57848901518255600182019150602085019450602081019050614bf6565b86831015614c385784890151614c34601f891682614b41565b8355505b6001600288020188555050505b505050505050565b7f4552433732313a20696e76616c696420746f6b656e2049440000000000000000600082015250565b6000614c83601883613e5c565b9150614c8e82614c4d565b602082019050919050565b60006020820190508181036000830152614cb281614c76565b9050919050565b7f5072696365206d75737420626520677265617465722074686174203000000000600082015250565b6000614cef601c83613e5c565b9150614cfa82614cb9565b602082019050919050565b60006020820190508181036000830152614d1e81614ce2565b9050919050565b6000606082019050614d3a6000830186613f39565b614d476020830185613f39565b614d54604083018461408f565b949350505050565b600060e082019050614d71600083018a61408f565b614d7e602083018961408f565b8181036040830152614d908188613eb1565b9050614d9f606083018761408f565b614dac6080830186613f39565b614db960a083018561408f565b614dc660c0830184613f39565b98975050505050505050565b7f4552433732313a2061646472657373207a65726f206973206e6f74206120766160008201527f6c6964206f776e65720000000000000000000000000000000000000000000000602082015250565b6000614e2e602983613e5c565b9150614e3982614dd2565b604082019050919050565b60006020820190508181036000830152614e5d81614e21565b9050919050565b7f546865726520646f6e277420626520746f6b656e730000000000000000000000600082015250565b6000614e9a601583613e5c565b9150614ea582614e64565b602082019050919050565b60006020820190508181036000830152614ec981614e8d565b9050919050565b600082825260208201905092915050565b50565b6000614ef1600083614ed0565b9150614efc82614ee1565b600082019050919050565b600060a082019050614f1c6000830186613f39565b614f296020830185613f39565b614f36604083018461408f565b8181036060830152614f4781614ee4565b90508181036080830152614f5a81614ee4565b9050949350505050565b7f5468697320746f6b656e20697320616c726561647920617070726f7665640000600082015250565b6000614f9a601e83613e5c565b9150614fa582614f64565b602082019050919050565b60006020820190508181036000830152614fc981614f8d565b9050919050565b7f576520646f6e277420616363657074207468697320746f6b656e000000000000600082015250565b6000615006601a83613e5c565b915061501182614fd0565b602082019050919050565b6000602082019050818103600083015261503581614ff9565b9050919050565b60008151905061504b81613c36565b92915050565b60006020828403121561506757615066613bc4565b5b60006150758482850161503c565b91505092915050565b7f496e73756666696369656e7420746f6b656e7300000000000000000000000000600082015250565b60006150b4601383613e5c565b91506150bf8261507e565b602082019050919050565b600060208201905081810360008301526150e3816150a7565b9050919050565b7f4974656d20646f6e277420657869737400000000000000000000000000000000600082015250565b6000615120601083613e5c565b915061512b826150ea565b602082019050919050565b6000602082019050818103600083015261514f81615113565b9050919050565b7f4974656d20616c726561647920736f6c64000000000000000000000000000000600082015250565b600061518c601183613e5c565b915061519782615156565b602082019050919050565b600060208201905081810360008301526151bb8161517f565b9050919050565b60006040820190506151d76000830185613f39565b6151e4602083018461408f565b9392505050565b6000815190506151fa81614023565b92915050565b60006020828403121561521657615215613bc4565b5b6000615224848285016151eb565b91505092915050565b7f596f75722066756e64732061726520696e73756666696369656e740000000000600082015250565b6000615263601b83613e5c565b915061526e8261522d565b602082019050919050565b6000602082019050818103600083015261529281615256565b9050919050565b600081905092915050565b60006152af82613e51565b6152b98185615299565b93506152c9818560208601613e6d565b80840191505092915050565b60006152e182856152a4565b91506152ed82846152a4565b91508190509392505050565b7f4552433732313a207472616e736665722066726f6d20696e636f72726563742060008201527f6f776e6572000000000000000000000000000000000000000000000000000000602082015250565b6000615355602583613e5c565b9150615360826152f9565b604082019050919050565b6000602082019050818103600083015261538481615348565b9050919050565b7f4552433732313a207472616e7366657220746f20746865207a65726f2061646460008201527f7265737300000000000000000000000000000000000000000000000000000000602082015250565b60006153e7602483613e5c565b91506153f28261538b565b604082019050919050565b60006020820190508181036000830152615416816153da565b9050919050565b7f596f75722066756e64732061726520696e73756666696369656e747300000000600082015250565b6000615453601c83613e5c565b915061545e8261541d565b602082019050919050565b6000602082019050818103600083015261548281615446565b9050919050565b7f45524337323155524953746f726167653a2055524920736574206f66206e6f6e60008201527f6578697374656e7420746f6b656e000000000000000000000000000000000000602082015250565b60006154e5602e83613e5c565b91506154f082615489565b604082019050919050565b60006020820190508181036000830152615514816154d8565b9050919050565b7f5265656e7472616e637947756172643a207265656e7472616e742063616c6c00600082015250565b6000615551601f83613e5c565b915061555c8261551b565b602082019050919050565b6000602082019050818103600083015261558081615544565b9050919050565b7f4552433732313a20617070726f766520746f2063616c6c657200000000000000600082015250565b60006155bd601983613e5c565b91506155c882615587565b602082019050919050565b600060208201905081810360008301526155ec816155b0565b9050919050565b7f4552433732313a207472616e7366657220746f206e6f6e20455243373231526560008201527f63656976657220696d706c656d656e7465720000000000000000000000000000602082015250565b600061564f603283613e5c565b915061565a826155f3565b604082019050919050565b6000602082019050818103600083015261567e81615642565b9050919050565b600061569082613c2c565b915061569b83613c2c565b9250828210156156ae576156ad61461a565b5b828203905092915050565b600081519050919050565b60006156cf826156b9565b6156d98185614ed0565b93506156e9818560208601613e6d565b6156f281613ea0565b840191505092915050565b60006080820190506157126000830187613f39565b61571f6020830186613f39565b61572c604083018561408f565b818103606083015261573e81846156c4565b905095945050505050565b60008151905061575881613dc2565b92915050565b60006020828403121561577457615773613bc4565b5b600061578284828501615749565b91505092915050565b7f4e487b7100000000000000000000000000000000000000000000000000000000600052601260045260246000fd5b7f4552433732313a206d696e7420746f20746865207a65726f2061646472657373600082015250565b60006157f0602083613e5c565b91506157fb826157ba565b602082019050919050565b6000602082019050818103600083015261581f816157e3565b9050919050565b7f4552433732313a20746f6b656e20616c7265616479206d696e74656400000000600082015250565b600061585c601c83613e5c565b915061586782615826565b602082019050919050565b6000602082019050818103600083015261588b8161584f565b905091905056fea26469706673582212202b68f05432cce9fe21ab08a6e5075e10ad175b542772cd536baf263b43e10df364736f6c634300080f0033",
  "linkReferences": {},
  "deployedLinkReferences": {}
}