{
  "_format": "hh-sol-artifact-1",
  "contractName": "BenefitsContract",
  "sourceName": "src/blockchain/hardhat/contracts/BenefitsContract.sol",
  "abi": [
    {
      "inputs": [],
      "stateMutability": "nonpayable",
      "type": "constructor"
    },
    {
      "inputs": [
        {
          "internalType": "string",
          "name": "_benefitId",
          "type": "string"
        },
        {
          "internalType": "uint256",
          "name": "_nftNumber",
          "type": "uint256"
        },
        {
          "internalType": "address",
          "name": "_manager",
          "type": "address"
        },
        {
          "internalType": "string",
          "name": "_uri",
          "type": "string"
        },
        {
          "internalType": "uint256",
          "name": "_price",
          "type": "uint256"
        },
        {
          "internalType": "address",
          "name": "_erc777Address",
          "type": "address"
        },
        {
          "internalType": "string",
          "name": "_name",
          "type": "string"
        },
        {
          "internalType": "string",
          "name": "_symbol",
          "type": "string"
        }
      ],
      "name": "createBenefit",
      "outputs": [],
      "stateMutability": "nonpayable",
      "type": "function"
    },
    {
      "inputs": [
        {
          "internalType": "string",
          "name": "_benefitId",
          "type": "string"
        }
      ],
      "name": "getBenefit",
      "outputs": [
        {
          "internalType": "address",
          "name": "",
          "type": "address"
        }
      ],
      "stateMutability": "view",
      "type": "function"
    }
  ],
  "bytecode": "0x608060405234801561001057600080fd5b50615ea9806100206000396000f3fe60806040523480156200001157600080fd5b50600436106200003a5760003560e01c80635fe8c861146200003f57806364ad60861462000075575b600080fd5b6200005d600480360381019062000057919062000315565b62000095565b6040516200006c9190620003ab565b60405180910390f35b6200009360048036038101906200008d919062000434565b620000de565b005b60008082604051620000a89190620005fc565b908152602001604051809103902060009054906101000a900473ffffffffffffffffffffffffffffffffffffffff169050919050565b600086888787878787604051620000f59062000191565b62000107979695949392919062000678565b604051809103906000f08015801562000124573d6000803e3d6000fd5b5090508060008a6040516200013a9190620005fc565b908152602001604051809103902060006101000a81548173ffffffffffffffffffffffffffffffffffffffff021916908373ffffffffffffffffffffffffffffffffffffffff160217905550505050505050505050565b615769806200070b83390190565b6000604051905090565b600080fd5b600080fd5b600080fd5b600080fd5b6000601f19601f8301169050919050565b7f4e487b7100000000000000000000000000000000000000000000000000000000600052604160045260246000fd5b6200020882620001bd565b810181811067ffffffffffffffff821117156200022a5762000229620001ce565b5b80604052505050565b60006200023f6200019f565b90506200024d8282620001fd565b919050565b600067ffffffffffffffff82111562000270576200026f620001ce565b5b6200027b82620001bd565b9050602081019050919050565b82818337600083830152505050565b6000620002ae620002a88462000252565b62000233565b905082815260208101848484011115620002cd57620002cc620001b8565b5b620002da84828562000288565b509392505050565b600082601f830112620002fa57620002f9620001b3565b5b81356200030c84826020860162000297565b91505092915050565b6000602082840312156200032e576200032d620001a9565b5b600082013567ffffffffffffffff8111156200034f576200034e620001ae565b5b6200035d84828501620002e2565b91505092915050565b600073ffffffffffffffffffffffffffffffffffffffff82169050919050565b6000620003938262000366565b9050919050565b620003a58162000386565b82525050565b6000602082019050620003c260008301846200039a565b92915050565b6000819050919050565b620003dd81620003c8565b8114620003e957600080fd5b50565b600081359050620003fd81620003d2565b92915050565b6200040e8162000386565b81146200041a57600080fd5b50565b6000813590506200042e8162000403565b92915050565b600080600080600080600080610100898b031215620004585762000457620001a9565b5b600089013567ffffffffffffffff811115620004795762000478620001ae565b5b620004878b828c01620002e2565b98505060206200049a8b828c01620003ec565b9750506040620004ad8b828c016200041d565b965050606089013567ffffffffffffffff811115620004d157620004d0620001ae565b5b620004df8b828c01620002e2565b9550506080620004f28b828c01620003ec565b94505060a0620005058b828c016200041d565b93505060c089013567ffffffffffffffff811115620005295762000528620001ae565b5b620005378b828c01620002e2565b92505060e089013567ffffffffffffffff8111156200055b576200055a620001ae565b5b620005698b828c01620002e2565b9150509295985092959890939650565b600081519050919050565b600081905092915050565b60005b83811015620005af57808201518184015260208101905062000592565b83811115620005bf576000848401525b50505050565b6000620005d28262000579565b620005de818562000584565b9350620005f08185602086016200058f565b80840191505092915050565b60006200060a8284620005c5565b915081905092915050565b6200062081620003c8565b82525050565b600082825260208201905092915050565b6000620006448262000579565b62000650818562000626565b9350620006628185602086016200058f565b6200066d81620001bd565b840191505092915050565b600060e0820190506200068f600083018a6200039a565b6200069e602083018962000615565b8181036040830152620006b2818862000637565b9050620006c3606083018762000615565b620006d260808301866200039a565b81810360a0830152620006e6818562000637565b905081810360c0830152620006fc818462000637565b90509897505050505050505056fe60c06040523480156200001157600080fd5b50604051620057693803806200576983398181016040528101906200003791906200058d565b82828281600090816200004b9190620008de565b5080600190816200005d9190620008de565b505050731820a4b7618bde71dce8cdc73aab6c95905fad2473ffffffffffffffffffffffffffffffffffffffff166329965a1d307fb281fc8c12954d22544db45de3159a39272895b169a852b314f9cc762e44c53b306040518463ffffffff1660e01b8152600401620000d393929190620009f1565b600060405180830381600087803b158015620000ee57600080fd5b505af115801562000103573d6000803e3d6000fd5b505050508073ffffffffffffffffffffffffffffffffffffffff1660808173ffffffffffffffffffffffffffffffffffffffff16815250503373ffffffffffffffffffffffffffffffffffffffff1660a08173ffffffffffffffffffffffffffffffffffffffff1681525050506200018b336008620001d360201b62001f581790919060201c565b620001a6876009620001d360201b62001f581790919060201c565b8460119081620001b79190620008de565b5083600f81905550856010819055505050505050505062000b49565b620001e582826200028660201b60201c565b1562000228576040517f08c379a00000000000000000000000000000000000000000000000000000000081526004016200021f9062000a8f565b60405180910390fd5b60018260000160008373ffffffffffffffffffffffffffffffffffffffff1673ffffffffffffffffffffffffffffffffffffffff16815260200190815260200160002060006101000a81548160ff0219169083151502179055505050565b60008073ffffffffffffffffffffffffffffffffffffffff168273ffffffffffffffffffffffffffffffffffffffff1603620002f9576040517f08c379a0000000000000000000000000000000000000000000000000000000008152600401620002f09062000b27565b60405180910390fd5b8260000160008373ffffffffffffffffffffffffffffffffffffffff1673ffffffffffffffffffffffffffffffffffffffff16815260200190815260200160002060009054906101000a900460ff16905092915050565b6000604051905090565b600080fd5b600080fd5b600073ffffffffffffffffffffffffffffffffffffffff82169050919050565b6000620003918262000364565b9050919050565b620003a38162000384565b8114620003af57600080fd5b50565b600081519050620003c38162000398565b92915050565b6000819050919050565b620003de81620003c9565b8114620003ea57600080fd5b50565b600081519050620003fe81620003d3565b92915050565b600080fd5b600080fd5b6000601f19601f8301169050919050565b7f4e487b7100000000000000000000000000000000000000000000000000000000600052604160045260246000fd5b62000459826200040e565b810181811067ffffffffffffffff821117156200047b576200047a6200041f565b5b80604052505050565b60006200049062000350565b90506200049e82826200044e565b919050565b600067ffffffffffffffff821115620004c157620004c06200041f565b5b620004cc826200040e565b9050602081019050919050565b60005b83811015620004f9578082015181840152602081019050620004dc565b8381111562000509576000848401525b50505050565b6000620005266200052084620004a3565b62000484565b90508281526020810184848401111562000545576200054462000409565b5b62000552848285620004d9565b509392505050565b600082601f83011262000572576200057162000404565b5b8151620005848482602086016200050f565b91505092915050565b600080600080600080600060e0888a031215620005af57620005ae6200035a565b5b6000620005bf8a828b01620003b2565b9750506020620005d28a828b01620003ed565b965050604088015167ffffffffffffffff811115620005f657620005f56200035f565b5b620006048a828b016200055a565b9550506060620006178a828b01620003ed565b94505060806200062a8a828b01620003b2565b93505060a088015167ffffffffffffffff8111156200064e576200064d6200035f565b5b6200065c8a828b016200055a565b92505060c088015167ffffffffffffffff81111562000680576200067f6200035f565b5b6200068e8a828b016200055a565b91505092959891949750929550565b600081519050919050565b7f4e487b7100000000000000000000000000000000000000000000000000000000600052602260045260246000fd5b60006002820490506001821680620006f057607f821691505b602082108103620007065762000705620006a8565b5b50919050565b60008190508160005260206000209050919050565b60006020601f8301049050919050565b600082821b905092915050565b600060088302620007707fffffffffffffffffffffffffffffffffffffffffffffffffffffffffffffffff8262000731565b6200077c868362000731565b95508019841693508086168417925050509392505050565b6000819050919050565b6000620007bf620007b9620007b384620003c9565b62000794565b620003c9565b9050919050565b6000819050919050565b620007db836200079e565b620007f3620007ea82620007c6565b8484546200073e565b825550505050565b600090565b6200080a620007fb565b62000817818484620007d0565b505050565b5b818110156200083f576200083360008262000800565b6001810190506200081d565b5050565b601f8211156200088e5762000858816200070c565b620008638462000721565b8101602085101562000873578190505b6200088b620008828562000721565b8301826200081c565b50505b505050565b600082821c905092915050565b6000620008b36000198460080262000893565b1980831691505092915050565b6000620008ce8383620008a0565b9150826002028217905092915050565b620008e9826200069d565b67ffffffffffffffff8111156200090557620009046200041f565b5b620009118254620006d7565b6200091e82828562000843565b600060209050601f83116001811462000956576000841562000941578287015190505b6200094d8582620008c0565b865550620009bd565b601f19841662000966866200070c565b60005b82811015620009905784890151825560018201915060208501945060208101905062000969565b86831015620009b05784890151620009ac601f891682620008a0565b8355505b6001600288020188555050505b505050505050565b620009d08162000384565b82525050565b6000819050919050565b620009eb81620009d6565b82525050565b600060608201905062000a086000830186620009c5565b62000a176020830185620009e0565b62000a266040830184620009c5565b949350505050565b600082825260208201905092915050565b7f526f6c65733a206163636f756e7420616c72656164792068617320726f6c6500600082015250565b600062000a77601f8362000a2e565b915062000a848262000a3f565b602082019050919050565b6000602082019050818103600083015262000aaa8162000a68565b9050919050565b7f526f6c65733a206163636f756e7420697320746865207a65726f20616464726560008201527f7373000000000000000000000000000000000000000000000000000000000000602082015250565b600062000b0f60228362000a2e565b915062000b1c8262000ab1565b604082019050919050565b6000602082019050818103600083015262000b428162000b00565b9050919050565b60805160a051614be562000b8460003960008181610b8301526112d40152600081816113a70152818161162101526125e90152614be56000f3fe6080604052600436106101c15760003560e01c80638d8f2adb116100f7578063aa8c217c11610095578063cef073cb11610064578063cef073cb1461065f578063e95a644f1461069c578063e985e9c5146106d9578063f958aada14610716576101c1565b8063aa8c217c14610589578063b88d4fde146105b4578063bfb231d2146105dd578063c87b56dd14610622576101c1565b80639e70b75c116100d15780639e70b75c146104f05780639e8e4d1d146105195780639f37092a14610544578063a22cb46514610560576101c1565b80638d8f2adb1461048357806395d89b411461049a57806398bdf6f5146104c5576101c1565b806342842e0e116101645780636352211e1161013e5780636352211e146103b55780636871ee40146103f2578063689153271461041d57806370a0823114610446576101c1565b806342842e0e146103235780634f64b2be1461034c5780635dab24201461038a576101c1565b8063081812fc116101a0578063081812fc14610257578063095ea7b314610294578063170e2b8a146102bd57806323b872dd146102fa576101c1565b806223de29146101c657806301ffc9a7146101ef57806306fdde031461022c575b600080fd5b3480156101d257600080fd5b506101ed60048036038101906101e89190612f9a565b610741565b005b3480156101fb57600080fd5b50610216600480360381019061021191906130c1565b610764565b6040516102239190613109565b60405180910390f35b34801561023857600080fd5b50610241610846565b60405161024e91906131bd565b60405180910390f35b34801561026357600080fd5b5061027e600480360381019061027991906131df565b6108d8565b60405161028b919061321b565b60405180910390f35b3480156102a057600080fd5b506102bb60048036038101906102b69190613236565b61091e565b005b3480156102c957600080fd5b506102e460048036038101906102df9190613276565b610a35565b6040516102f19190613109565b60405180910390f35b34801561030657600080fd5b50610321600480360381019061031c91906132a3565b610a55565b005b34801561032f57600080fd5b5061034a600480360381019061034591906132a3565b610ab5565b005b34801561035857600080fd5b50610373600480360381019061036e91906131df565b610ad5565b604051610381929190613305565b60405180910390f35b34801561039657600080fd5b5061039f610b81565b6040516103ac919061321b565b60405180910390f35b3480156103c157600080fd5b506103dc60048036038101906103d791906131df565b610ba5565b6040516103e9919061321b565b60405180910390f35b3480156103fe57600080fd5b50610407610c56565b6040516104149190613335565b60405180910390f35b34801561042957600080fd5b50610444600480360381019061043f919061338e565b610e81565b005b34801561045257600080fd5b5061046d60048036038101906104689190613276565b61121b565b60405161047a9190613335565b60405180910390f35b34801561048f57600080fd5b506104986112d2565b005b3480156104a657600080fd5b506104af611440565b6040516104bc91906131bd565b60405180910390f35b3480156104d157600080fd5b506104da6114d2565b6040516104e79190613335565b60405180910390f35b3480156104fc57600080fd5b5061051760048036038101906105129190613276565b6114de565b005b34801561052557600080fd5b5061052e61161f565b60405161053b9190613440565b60405180910390f35b61055e60048036038101906105599190613236565b611643565b005b34801561056c57600080fd5b5061058760048036038101906105829190613487565b6119b9565b005b34801561059557600080fd5b5061059e6119cf565b6040516105ab9190613335565b60405180910390f35b3480156105c057600080fd5b506105db60048036038101906105d691906135f7565b6119d5565b005b3480156105e957600080fd5b5061060460048036038101906105ff91906131df565b611a37565b604051610619999897969594939291906136bc565b60405180910390f35b34801561062e57600080fd5b50610649600480360381019061064491906131df565b611b74565b60405161065691906131bd565b60405180910390f35b34801561066b57600080fd5b5061068660048036038101906106819190613236565b611c86565b6040516106939190613109565b60405180910390f35b3480156106a857600080fd5b506106c360048036038101906106be91906131df565b611df2565b6040516106d09190613109565b60405180910390f35b3480156106e557600080fd5b5061070060048036038101906106fb9190613750565b611eb8565b60405161070d9190613109565b60405180910390f35b34801561072257600080fd5b5061072b611f4c565b6040516107389190613335565b60405180910390f35b846007600082825461075391906137bf565b925050819055505050505050505050565b60007f80ac58cd000000000000000000000000000000000000000000000000000000007bffffffffffffffffffffffffffffffffffffffffffffffffffffffff1916827bffffffffffffffffffffffffffffffffffffffffffffffffffffffff1916148061082f57507f5b5e139f000000000000000000000000000000000000000000000000000000007bffffffffffffffffffffffffffffffffffffffffffffffffffffffff1916827bffffffffffffffffffffffffffffffffffffffffffffffffffffffff1916145b8061083f575061083e82612000565b5b9050919050565b60606000805461085590613844565b80601f016020809104026020016040519081016040528092919081815260200182805461088190613844565b80156108ce5780601f106108a3576101008083540402835291602001916108ce565b820191906000526020600020905b8154815290600101906020018083116108b157829003601f168201915b5050505050905090565b60006108e38261206a565b6004600083815260200190815260200160002060009054906101000a900473ffffffffffffffffffffffffffffffffffffffff169050919050565b600061092982610ba5565b90508073ffffffffffffffffffffffffffffffffffffffff168373ffffffffffffffffffffffffffffffffffffffff1603610999576040517f08c379a0000000000000000000000000000000000000000000000000000000008152600401610990906138e7565b60405180910390fd5b8073ffffffffffffffffffffffffffffffffffffffff166109b86120b5565b73ffffffffffffffffffffffffffffffffffffffff1614806109e757506109e6816109e16120b5565b611eb8565b5b610a26576040517f08c379a0000000000000000000000000000000000000000000000000000000008152600401610a1d90613979565b60405180910390fd5b610a3083836120bd565b505050565b600e6020528060005260406000206000915054906101000a900460ff1681565b610a66610a606120b5565b82612176565b610aa5576040517f08c379a0000000000000000000000000000000000000000000000000000000008152600401610a9c90613a0b565b60405180910390fd5b610ab083838361220b565b505050565b610ad0838383604051806020016040528060008152506119d5565b505050565b600d602052806000526040600020600091509050806000015490806001018054610afe90613844565b80601f0160208091040260200160405190810160405280929190818152602001828054610b2a90613844565b8015610b775780601f10610b4c57610100808354040283529160200191610b77565b820191906000526020600020905b815481529060010190602001808311610b5a57829003601f168201915b5050505050905082565b7f000000000000000000000000000000000000000000000000000000000000000081565b6000806002600084815260200190815260200160002060009054906101000a900473ffffffffffffffffffffffffffffffffffffffff169050600073ffffffffffffffffffffffffffffffffffffffff168173ffffffffffffffffffffffffffffffffffffffff1603610c4d576040517f08c379a0000000000000000000000000000000000000000000000000000000008152600401610c4490613a77565b60405180910390fd5b80915050919050565b6000610c6c33600861247190919063ffffffff16565b610cab576040517f08c379a0000000000000000000000000000000000000000000000000000000008152600401610ca290613ae3565b60405180910390fd5b6000610cb7600b612538565b90506010548111610cfd576040517f08c379a0000000000000000000000000000000000000000000000000000000008152600401610cf490613b4f565b60405180910390fd5b610d07600b612546565b604051806040016040528082815260200160118054610d2590613844565b80601f0160208091040260200160405190810160405280929190818152602001828054610d5190613844565b8015610d9e5780601f10610d7357610100808354040283529160200191610d9e565b820191906000526020600020905b815481529060010190602001808311610d8157829003601f168201915b5050505050815250600d6000838152602001908152602001600020600082015181600001556020820151816001019081610dd89190613d11565b50905050610de6338261255c565b610e7a8160118054610df790613844565b80601f0160208091040260200160405190810160405280929190818152602001828054610e2390613844565b8015610e705780601f10610e4557610100808354040283529160200191610e70565b820191906000526020600020905b815481529060010190602001808311610e5357829003601f168201915b505050505061257a565b8091505090565b610e9533600861247190919063ffffffff16565b610ed4576040517f08c379a0000000000000000000000000000000000000000000000000000000008152600401610ecb90613ae3565b60405180910390fd5b60008111610f17576040517f08c379a0000000000000000000000000000000000000000000000000000000008152600401610f0e90613e2f565b60405180910390fd5b610f21600a612546565b6000610f2d600a612538565b90506000600d600085815260200190815260200160002060405180604001604052908160008201548152602001600182018054610f6990613844565b80601f0160208091040260200160405190810160405280929190818152602001828054610f9590613844565b8015610fe25780601f10610fb757610100808354040283529160200191610fe2565b820191906000526020600020905b815481529060010190602001808311610fc557829003601f168201915b505050505081525050905060006040518061012001604052808773ffffffffffffffffffffffffffffffffffffffff168152602001848152602001868152602001836020015181526020018581526020016000151581526020016000151581526020016000151581526020013373ffffffffffffffffffffffffffffffffffffffff16815250905080600c600085815260200190815260200160002060008201518160000160006101000a81548173ffffffffffffffffffffffffffffffffffffffff021916908373ffffffffffffffffffffffffffffffffffffffff160217905550602082015181600101556040820151816002015560608201518160030190816110ee9190613d11565b506080820151816004015560a08201518160050160006101000a81548160ff02191690831515021790555060c08201518160050160016101000a81548160ff02191690831515021790555060e08201518160050160026101000a81548160ff0219169083151502179055506101008201518160050160036101000a81548173ffffffffffffffffffffffffffffffffffffffff021916908373ffffffffffffffffffffffffffffffffffffffff1602179055509050508573ffffffffffffffffffffffffffffffffffffffff166323b872dd3330886040518463ffffffff1660e01b81526004016111e193929190613e4f565b600060405180830381600087803b1580156111fb57600080fd5b505af115801561120f573d6000803e3d6000fd5b50505050505050505050565b60008073ffffffffffffffffffffffffffffffffffffffff168273ffffffffffffffffffffffffffffffffffffffff160361128b576040517f08c379a000000000000000000000000000000000000000000000000000000000815260040161128290613ef8565b60405180910390fd5b600360008373ffffffffffffffffffffffffffffffffffffffff1673ffffffffffffffffffffffffffffffffffffffff168152602001908152602001600020549050919050565b7f000000000000000000000000000000000000000000000000000000000000000073ffffffffffffffffffffffffffffffffffffffff163373ffffffffffffffffffffffffffffffffffffffff1614611360576040517f08c379a000000000000000000000000000000000000000000000000000000000815260040161135790613f8a565b60405180910390fd5b6000600754116113a5576040517f08c379a000000000000000000000000000000000000000000000000000000000815260040161139c90613ff6565b60405180910390fd5b7f000000000000000000000000000000000000000000000000000000000000000073ffffffffffffffffffffffffffffffffffffffff166362ad1b8330336007546040518463ffffffff1660e01b81526004016114049392919061404d565b600060405180830381600087803b15801561141e57600080fd5b505af1158015611432573d6000803e3d6000fd5b505050506000600781905550565b60606001805461144f90613844565b80601f016020809104026020016040519081016040528092919081815260200182805461147b90613844565b80156114c85780601f1061149d576101008083540402835291602001916114c8565b820191906000526020600020905b8154815290600101906020018083116114ab57829003601f168201915b5050505050905090565b600b8060000154905081565b6114f233600861247190919063ffffffff16565b611531576040517f08c379a000000000000000000000000000000000000000000000000000000000815260040161152890613ae3565b60405180910390fd5b60001515600e60008373ffffffffffffffffffffffffffffffffffffffff1673ffffffffffffffffffffffffffffffffffffffff16815260200190815260200160002060009054906101000a900460ff161515146115c4576040517f08c379a00000000000000000000000000000000000000000000000000000000081526004016115bb906140f6565b60405180910390fd5b6001600e60008373ffffffffffffffffffffffffffffffffffffffff1673ffffffffffffffffffffffffffffffffffffffff16815260200190815260200160002060006101000a81548160ff02191690831515021790555050565b7f000000000000000000000000000000000000000000000000000000000000000081565b6000600c6000838152602001908152602001600020905060011515600e60008573ffffffffffffffffffffffffffffffffffffffff1673ffffffffffffffffffffffffffffffffffffffff16815260200190815260200160002060009054906101000a900460ff161515146116ed576040517f08c379a00000000000000000000000000000000000000000000000000000000081526004016116e490614162565b60405180910390fd5b600f548373ffffffffffffffffffffffffffffffffffffffff1663f38e266a336040518263ffffffff1660e01b8152600401611729919061321b565b602060405180830381865afa158015611746573d6000803e3d6000fd5b505050506040513d601f19601f8201168201806040525081019061176a9190614197565b116117aa576040517f08c379a00000000000000000000000000000000000000000000000000000000081526004016117a190614210565b60405180910390fd5b6000821180156117c357506117bf600a612538565b8211155b611802576040517f08c379a00000000000000000000000000000000000000000000000000000000081526004016117f99061427c565b60405180910390fd5b8060050160009054906101000a900460ff1615611854576040517f08c379a000000000000000000000000000000000000000000000000000000000815260040161184b906142e8565b60405180910390fd5b8273ffffffffffffffffffffffffffffffffffffffff166325e8e00c33600f546040518363ffffffff1660e01b8152600401611891929190614308565b6020604051808303816000875af11580156118b0573d6000803e3d6000fd5b505050506040513d601f19601f820116820180604052508101906118d49190614346565b6118dd57600080fd5b6118e8600f546125e7565b8060000160009054906101000a900473ffffffffffffffffffffffffffffffffffffffff1673ffffffffffffffffffffffffffffffffffffffff166323b872dd303384600201546040518463ffffffff1660e01b815260040161194d93929190613e4f565b600060405180830381600087803b15801561196757600080fd5b505af115801561197b573d6000803e3d6000fd5b505050506000600c6000848152602001908152602001600020905060018160050160006101000a81548160ff02191690831515021790555050505050565b6119cb6119c46120b5565b8383612692565b5050565b60075481565b6119e66119e06120b5565b83612176565b611a25576040517f08c379a0000000000000000000000000000000000000000000000000000000008152600401611a1c90613a0b565b60405180910390fd5b611a31848484846127fe565b50505050565b600c6020528060005260406000206000915090508060000160009054906101000a900473ffffffffffffffffffffffffffffffffffffffff1690806001015490806002015490806003018054611a8c90613844565b80601f0160208091040260200160405190810160405280929190818152602001828054611ab890613844565b8015611b055780601f10611ada57610100808354040283529160200191611b05565b820191906000526020600020905b815481529060010190602001808311611ae857829003601f168201915b5050505050908060040154908060050160009054906101000a900460ff16908060050160019054906101000a900460ff16908060050160029054906101000a900460ff16908060050160039054906101000a900473ffffffffffffffffffffffffffffffffffffffff16905089565b6060611b7f8261206a565b6000600660008481526020019081526020016000208054611b9f90613844565b80601f0160208091040260200160405190810160405280929190818152602001828054611bcb90613844565b8015611c185780601f10611bed57610100808354040283529160200191611c18565b820191906000526020600020905b815481529060010190602001808311611bfb57829003601f168201915b505050505090506000611c2961285a565b90506000815103611c3e578192505050611c81565b600082511115611c73578082604051602001611c5b9291906143af565b60405160208183030381529060405292505050611c81565b611c7c84612871565b925050505b919050565b6000611c9c33600961247190919063ffffffff16565b80611cb75750611cb633600861247190919063ffffffff16565b5b611cf6576040517f08c379a0000000000000000000000000000000000000000000000000000000008152600401611ced90613ae3565b60405180910390fd5b81611d008461121b565b14611d40576040517f08c379a0000000000000000000000000000000000000000000000000000000008152600401611d379061441f565b60405180910390fd5b600c600083815260200190815260200160002060050160019054906101000a900460ff16611da3576040517f08c379a0000000000000000000000000000000000000000000000000000000008152600401611d9a9061448b565b60405180910390fd5b6000600c6000848152602001908152602001600020905060018160050160026101000a81548160ff0219169083151502179055508060050160029054906101000a900460ff1691505092915050565b60003373ffffffffffffffffffffffffffffffffffffffff16611e1483610ba5565b73ffffffffffffffffffffffffffffffffffffffff1614611e6a576040517f08c379a0000000000000000000000000000000000000000000000000000000008152600401611e61906144f7565b60405180910390fd5b6000600c6000848152602001908152602001600020905060018160050160016101000a81548160ff0219169083151502179055508060050160019054906101000a900460ff16915050919050565b6000600560008473ffffffffffffffffffffffffffffffffffffffff1673ffffffffffffffffffffffffffffffffffffffff16815260200190815260200160002060008373ffffffffffffffffffffffffffffffffffffffff1673ffffffffffffffffffffffffffffffffffffffff16815260200190815260200160002060009054906101000a900460ff16905092915050565b600a8060000154905081565b611f628282612471565b15611fa2576040517f08c379a0000000000000000000000000000000000000000000000000000000008152600401611f9990614563565b60405180910390fd5b60018260000160008373ffffffffffffffffffffffffffffffffffffffff1673ffffffffffffffffffffffffffffffffffffffff16815260200190815260200160002060006101000a81548160ff0219169083151502179055505050565b60007f01ffc9a7000000000000000000000000000000000000000000000000000000007bffffffffffffffffffffffffffffffffffffffffffffffffffffffff1916827bffffffffffffffffffffffffffffffffffffffffffffffffffffffff1916149050919050565b612073816128d9565b6120b2576040517f08c379a00000000000000000000000000000000000000000000000000000000081526004016120a990613a77565b60405180910390fd5b50565b600033905090565b816004600083815260200190815260200160002060006101000a81548173ffffffffffffffffffffffffffffffffffffffff021916908373ffffffffffffffffffffffffffffffffffffffff160217905550808273ffffffffffffffffffffffffffffffffffffffff1661213083610ba5565b73ffffffffffffffffffffffffffffffffffffffff167f8c5be1e5ebec7d5bd14f71427d1e84f3dd0314c0f7b2291e5b200ac8c7c3b92560405160405180910390a45050565b60008061218283610ba5565b90508073ffffffffffffffffffffffffffffffffffffffff168473ffffffffffffffffffffffffffffffffffffffff1614806121c457506121c38185611eb8565b5b8061220257508373ffffffffffffffffffffffffffffffffffffffff166121ea846108d8565b73ffffffffffffffffffffffffffffffffffffffff16145b91505092915050565b8273ffffffffffffffffffffffffffffffffffffffff1661222b82610ba5565b73ffffffffffffffffffffffffffffffffffffffff1614612281576040517f08c379a0000000000000000000000000000000000000000000000000000000008152600401612278906145f5565b60405180910390fd5b600073ffffffffffffffffffffffffffffffffffffffff168273ffffffffffffffffffffffffffffffffffffffff16036122f0576040517f08c379a00000000000000000000000000000000000000000000000000000000081526004016122e790614687565b60405180910390fd5b6122fb838383612945565b6123066000826120bd565b6001600360008573ffffffffffffffffffffffffffffffffffffffff1673ffffffffffffffffffffffffffffffffffffffff168152602001908152602001600020600082825461235691906146a7565b925050819055506001600360008473ffffffffffffffffffffffffffffffffffffffff1673ffffffffffffffffffffffffffffffffffffffff16815260200190815260200160002060008282546123ad91906137bf565b92505081905550816002600083815260200190815260200160002060006101000a81548173ffffffffffffffffffffffffffffffffffffffff021916908373ffffffffffffffffffffffffffffffffffffffff160217905550808273ffffffffffffffffffffffffffffffffffffffff168473ffffffffffffffffffffffffffffffffffffffff167fddf252ad1be2c89b69c2b068fc378daa952ba7f163c4a11628f55a4df523b3ef60405160405180910390a461246c83838361294a565b505050565b60008073ffffffffffffffffffffffffffffffffffffffff168273ffffffffffffffffffffffffffffffffffffffff16036124e1576040517f08c379a00000000000000000000000000000000000000000000000000000000081526004016124d89061474d565b60405180910390fd5b8260000160008373ffffffffffffffffffffffffffffffffffffffff1673ffffffffffffffffffffffffffffffffffffffff16815260200190815260200160002060009054906101000a900460ff16905092915050565b600081600001549050919050565b6001816000016000828254019250508190555050565b61257682826040518060200160405280600081525061294f565b5050565b612583826128d9565b6125c2576040517f08c379a00000000000000000000000000000000000000000000000000000000081526004016125b9906147df565b60405180910390fd5b806006600084815260200190815260200160002090816125e29190613d11565b505050565b7f000000000000000000000000000000000000000000000000000000000000000073ffffffffffffffffffffffffffffffffffffffff166362ad1b833330846040518463ffffffff1660e01b81526004016126449392919061404d565b600060405180830381600087803b15801561265e57600080fd5b505af1158015612672573d6000803e3d6000fd5b50505050806007600082825461268891906137bf565b9250508190555050565b8173ffffffffffffffffffffffffffffffffffffffff168373ffffffffffffffffffffffffffffffffffffffff1603612700576040517f08c379a00000000000000000000000000000000000000000000000000000000081526004016126f79061484b565b60405180910390fd5b80600560008573ffffffffffffffffffffffffffffffffffffffff1673ffffffffffffffffffffffffffffffffffffffff16815260200190815260200160002060008473ffffffffffffffffffffffffffffffffffffffff1673ffffffffffffffffffffffffffffffffffffffff16815260200190815260200160002060006101000a81548160ff0219169083151502179055508173ffffffffffffffffffffffffffffffffffffffff168373ffffffffffffffffffffffffffffffffffffffff167f17307eab39ab6107e8899845ad3d59bd9653f200f220920489ca2b5937696c31836040516127f19190613109565b60405180910390a3505050565b61280984848461220b565b612815848484846129aa565b612854576040517f08c379a000000000000000000000000000000000000000000000000000000000815260040161284b906148dd565b60405180910390fd5b50505050565b606060405180602001604052806000815250905090565b606061287c8261206a565b600061288661285a565b905060008151116128a657604051806020016040528060008152506128d1565b806128b084612b31565b6040516020016128c19291906143af565b6040516020818303038152906040525b915050919050565b60008073ffffffffffffffffffffffffffffffffffffffff166002600084815260200190815260200160002060009054906101000a900473ffffffffffffffffffffffffffffffffffffffff1673ffffffffffffffffffffffffffffffffffffffff1614159050919050565b505050565b505050565b6129598383612c91565b61296660008484846129aa565b6129a5576040517f08c379a000000000000000000000000000000000000000000000000000000000815260040161299c906148dd565b60405180910390fd5b505050565b60006129cb8473ffffffffffffffffffffffffffffffffffffffff16612e6a565b15612b24578373ffffffffffffffffffffffffffffffffffffffff1663150b7a026129f46120b5565b8786866040518563ffffffff1660e01b8152600401612a169493929190614941565b6020604051808303816000875af1925050508015612a5257506040513d601f19601f82011682018060405250810190612a4f91906149a2565b60015b612ad4573d8060008114612a82576040519150601f19603f3d011682016040523d82523d6000602084013e612a87565b606091505b506000815103612acc576040517f08c379a0000000000000000000000000000000000000000000000000000000008152600401612ac3906148dd565b60405180910390fd5b805181602001fd5b63150b7a0260e01b7bffffffffffffffffffffffffffffffffffffffffffffffffffffffff1916817bffffffffffffffffffffffffffffffffffffffffffffffffffffffff191614915050612b29565b600190505b949350505050565b606060008203612b78576040518060400160405280600181526020017f30000000000000000000000000000000000000000000000000000000000000008152509050612c8c565b600082905060005b60008214612baa578080612b93906149cf565b915050600a82612ba39190614a46565b9150612b80565b60008167ffffffffffffffff811115612bc657612bc56134cc565b5b6040519080825280601f01601f191660200182016040528015612bf85781602001600182028036833780820191505090505b5090505b60008514612c8557600182612c1191906146a7565b9150600a85612c209190614a77565b6030612c2c91906137bf565b60f81b818381518110612c4257612c41614aa8565b5b60200101907effffffffffffffffffffffffffffffffffffffffffffffffffffffffffffff1916908160001a905350600a85612c7e9190614a46565b9450612bfc565b8093505050505b919050565b600073ffffffffffffffffffffffffffffffffffffffff168273ffffffffffffffffffffffffffffffffffffffff1603612d00576040517f08c379a0000000000000000000000000000000000000000000000000000000008152600401612cf790614b23565b60405180910390fd5b612d09816128d9565b15612d49576040517f08c379a0000000000000000000000000000000000000000000000000000000008152600401612d4090614b8f565b60405180910390fd5b612d5560008383612945565b6001600360008473ffffffffffffffffffffffffffffffffffffffff1673ffffffffffffffffffffffffffffffffffffffff1681526020019081526020016000206000828254612da591906137bf565b92505081905550816002600083815260200190815260200160002060006101000a81548173ffffffffffffffffffffffffffffffffffffffff021916908373ffffffffffffffffffffffffffffffffffffffff160217905550808273ffffffffffffffffffffffffffffffffffffffff16600073ffffffffffffffffffffffffffffffffffffffff167fddf252ad1be2c89b69c2b068fc378daa952ba7f163c4a11628f55a4df523b3ef60405160405180910390a4612e666000838361294a565b5050565b6000808273ffffffffffffffffffffffffffffffffffffffff163b119050919050565b6000604051905090565b600080fd5b600080fd5b600073ffffffffffffffffffffffffffffffffffffffff82169050919050565b6000612ecc82612ea1565b9050919050565b612edc81612ec1565b8114612ee757600080fd5b50565b600081359050612ef981612ed3565b92915050565b6000819050919050565b612f1281612eff565b8114612f1d57600080fd5b50565b600081359050612f2f81612f09565b92915050565b600080fd5b600080fd5b600080fd5b60008083601f840112612f5a57612f59612f35565b5b8235905067ffffffffffffffff811115612f7757612f76612f3a565b5b602083019150836001820283011115612f9357612f92612f3f565b5b9250929050565b60008060008060008060008060c0898b031215612fba57612fb9612e97565b5b6000612fc88b828c01612eea565b9850506020612fd98b828c01612eea565b9750506040612fea8b828c01612eea565b9650506060612ffb8b828c01612f20565b955050608089013567ffffffffffffffff81111561301c5761301b612e9c565b5b6130288b828c01612f44565b945094505060a089013567ffffffffffffffff81111561304b5761304a612e9c565b5b6130578b828c01612f44565b92509250509295985092959890939650565b60007fffffffff0000000000000000000000000000000000000000000000000000000082169050919050565b61309e81613069565b81146130a957600080fd5b50565b6000813590506130bb81613095565b92915050565b6000602082840312156130d7576130d6612e97565b5b60006130e5848285016130ac565b91505092915050565b60008115159050919050565b613103816130ee565b82525050565b600060208201905061311e60008301846130fa565b92915050565b600081519050919050565b600082825260208201905092915050565b60005b8381101561315e578082015181840152602081019050613143565b8381111561316d576000848401525b50505050565b6000601f19601f8301169050919050565b600061318f82613124565b613199818561312f565b93506131a9818560208601613140565b6131b281613173565b840191505092915050565b600060208201905081810360008301526131d78184613184565b905092915050565b6000602082840312156131f5576131f4612e97565b5b600061320384828501612f20565b91505092915050565b61321581612ec1565b82525050565b6000602082019050613230600083018461320c565b92915050565b6000806040838503121561324d5761324c612e97565b5b600061325b85828601612eea565b925050602061326c85828601612f20565b9150509250929050565b60006020828403121561328c5761328b612e97565b5b600061329a84828501612eea565b91505092915050565b6000806000606084860312156132bc576132bb612e97565b5b60006132ca86828701612eea565b93505060206132db86828701612eea565b92505060406132ec86828701612f20565b9150509250925092565b6132ff81612eff565b82525050565b600060408201905061331a60008301856132f6565b818103602083015261332c8184613184565b90509392505050565b600060208201905061334a60008301846132f6565b92915050565b600061335b82612ec1565b9050919050565b61336b81613350565b811461337657600080fd5b50565b60008135905061338881613362565b92915050565b6000806000606084860312156133a7576133a6612e97565b5b60006133b586828701613379565b93505060206133c686828701612f20565b92505060406133d786828701612f20565b9150509250925092565b6000819050919050565b60006134066134016133fc84612ea1565b6133e1565b612ea1565b9050919050565b6000613418826133eb565b9050919050565b600061342a8261340d565b9050919050565b61343a8161341f565b82525050565b60006020820190506134556000830184613431565b92915050565b613464816130ee565b811461346f57600080fd5b50565b6000813590506134818161345b565b92915050565b6000806040838503121561349e5761349d612e97565b5b60006134ac85828601612eea565b92505060206134bd85828601613472565b9150509250929050565b600080fd5b7f4e487b7100000000000000000000000000000000000000000000000000000000600052604160045260246000fd5b61350482613173565b810181811067ffffffffffffffff82111715613523576135226134cc565b5b80604052505050565b6000613536612e8d565b905061354282826134fb565b919050565b600067ffffffffffffffff821115613562576135616134cc565b5b61356b82613173565b9050602081019050919050565b82818337600083830152505050565b600061359a61359584613547565b61352c565b9050828152602081018484840111156135b6576135b56134c7565b5b6135c1848285613578565b509392505050565b600082601f8301126135de576135dd612f35565b5b81356135ee848260208601613587565b91505092915050565b6000806000806080858703121561361157613610612e97565b5b600061361f87828801612eea565b945050602061363087828801612eea565b935050604061364187828801612f20565b925050606085013567ffffffffffffffff81111561366257613661612e9c565b5b61366e878288016135c9565b91505092959194509250565b60006136858261340d565b9050919050565b6136958161367a565b82525050565b60006136a682612ea1565b9050919050565b6136b68161369b565b82525050565b6000610120820190506136d2600083018c61368c565b6136df602083018b6132f6565b6136ec604083018a6132f6565b81810360608301526136fe8189613184565b905061370d60808301886132f6565b61371a60a08301876130fa565b61372760c08301866130fa565b61373460e08301856130fa565b6137426101008301846136ad565b9a9950505050505050505050565b6000806040838503121561376757613766612e97565b5b600061377585828601612eea565b925050602061378685828601612eea565b9150509250929050565b7f4e487b7100000000000000000000000000000000000000000000000000000000600052601160045260246000fd5b60006137ca82612eff565b91506137d583612eff565b9250827fffffffffffffffffffffffffffffffffffffffffffffffffffffffffffffffff0382111561380a57613809613790565b5b828201905092915050565b7f4e487b7100000000000000000000000000000000000000000000000000000000600052602260045260246000fd5b6000600282049050600182168061385c57607f821691505b60208210810361386f5761386e613815565b5b50919050565b7f4552433732313a20617070726f76616c20746f2063757272656e74206f776e6560008201527f7200000000000000000000000000000000000000000000000000000000000000602082015250565b60006138d160218361312f565b91506138dc82613875565b604082019050919050565b60006020820190508181036000830152613900816138c4565b9050919050565b7f4552433732313a20617070726f76652063616c6c6572206973206e6f7420746f60008201527f6b656e206f776e6572206e6f7220617070726f76656420666f7220616c6c0000602082015250565b6000613963603e8361312f565b915061396e82613907565b604082019050919050565b6000602082019050818103600083015261399281613956565b9050919050565b7f4552433732313a2063616c6c6572206973206e6f7420746f6b656e206f776e6560008201527f72206e6f7220617070726f766564000000000000000000000000000000000000602082015250565b60006139f5602e8361312f565b9150613a0082613999565b604082019050919050565b60006020820190508181036000830152613a24816139e8565b9050919050565b7f4552433732313a20696e76616c696420746f6b656e2049440000000000000000600082015250565b6000613a6160188361312f565b9150613a6c82613a2b565b602082019050919050565b60006020820190508181036000830152613a9081613a54565b9050919050565b7f444f45535f4e4f545f484156455f4d494e5445525f524f4c4500000000000000600082015250565b6000613acd60198361312f565b9150613ad882613a97565b602082019050919050565b60006020820190508181036000830152613afc81613ac0565b9050919050565b7f4d696e74206c696d697420636f6d706c65746564000000000000000000000000600082015250565b6000613b3960148361312f565b9150613b4482613b03565b602082019050919050565b60006020820190508181036000830152613b6881613b2c565b9050919050565b60008190508160005260206000209050919050565b60006020601f8301049050919050565b600082821b905092915050565b600060088302613bd17fffffffffffffffffffffffffffffffffffffffffffffffffffffffffffffffff82613b94565b613bdb8683613b94565b95508019841693508086168417925050509392505050565b6000613c0e613c09613c0484612eff565b6133e1565b612eff565b9050919050565b6000819050919050565b613c2883613bf3565b613c3c613c3482613c15565b848454613ba1565b825550505050565b600090565b613c51613c44565b613c5c818484613c1f565b505050565b5b81811015613c8057613c75600082613c49565b600181019050613c62565b5050565b601f821115613cc557613c9681613b6f565b613c9f84613b84565b81016020851015613cae578190505b613cc2613cba85613b84565b830182613c61565b50505b505050565b600082821c905092915050565b6000613ce860001984600802613cca565b1980831691505092915050565b6000613d018383613cd7565b9150826002028217905092915050565b613d1a82613124565b67ffffffffffffffff811115613d3357613d326134cc565b5b613d3d8254613844565b613d48828285613c84565b600060209050601f831160018114613d7b5760008415613d69578287015190505b613d738582613cf5565b865550613ddb565b601f198416613d8986613b6f565b60005b82811015613db157848901518255600182019150602085019450602081019050613d8c565b86831015613dce5784890151613dca601f891682613cd7565b8355505b6001600288020188555050505b505050505050565b7f5072696365206d75737420626520677265617465722074686174203000000000600082015250565b6000613e19601c8361312f565b9150613e2482613de3565b602082019050919050565b60006020820190508181036000830152613e4881613e0c565b9050919050565b6000606082019050613e64600083018661320c565b613e71602083018561320c565b613e7e60408301846132f6565b949350505050565b7f4552433732313a2061646472657373207a65726f206973206e6f74206120766160008201527f6c6964206f776e65720000000000000000000000000000000000000000000000602082015250565b6000613ee260298361312f565b9150613eed82613e86565b604082019050919050565b60006020820190508181036000830152613f1181613ed5565b9050919050565b7f4d61726b6574506c616365436f6e74726163743a2063616c6c6572206973206e60008201527f6f7420746865206f776e65720000000000000000000000000000000000000000602082015250565b6000613f74602c8361312f565b9150613f7f82613f18565b604082019050919050565b60006020820190508181036000830152613fa381613f67565b9050919050565b7f546865726520646f6e277420626520746f6b656e730000000000000000000000600082015250565b6000613fe060158361312f565b9150613feb82613faa565b602082019050919050565b6000602082019050818103600083015261400f81613fd3565b9050919050565b600082825260208201905092915050565b50565b6000614037600083614016565b915061404282614027565b600082019050919050565b600060a082019050614062600083018661320c565b61406f602083018561320c565b61407c60408301846132f6565b818103606083015261408d8161402a565b905081810360808301526140a08161402a565b9050949350505050565b7f5468697320746f6b656e20697320616c726561647920617070726f7665640000600082015250565b60006140e0601e8361312f565b91506140eb826140aa565b602082019050919050565b6000602082019050818103600083015261410f816140d3565b9050919050565b7f576520646f6e277420616363657074207468697320746f6b656e000000000000600082015250565b600061414c601a8361312f565b915061415782614116565b602082019050919050565b6000602082019050818103600083015261417b8161413f565b9050919050565b60008151905061419181612f09565b92915050565b6000602082840312156141ad576141ac612e97565b5b60006141bb84828501614182565b91505092915050565b7f496e73756666696369656e7420746f6b656e7300000000000000000000000000600082015250565b60006141fa60138361312f565b9150614205826141c4565b602082019050919050565b60006020820190508181036000830152614229816141ed565b9050919050565b7f4974656d20646f6e277420657869737400000000000000000000000000000000600082015250565b600061426660108361312f565b915061427182614230565b602082019050919050565b6000602082019050818103600083015261429581614259565b9050919050565b7f4974656d20616c726561647920736f6c64000000000000000000000000000000600082015250565b60006142d260118361312f565b91506142dd8261429c565b602082019050919050565b60006020820190508181036000830152614301816142c5565b9050919050565b600060408201905061431d600083018561320c565b61432a60208301846132f6565b9392505050565b6000815190506143408161345b565b92915050565b60006020828403121561435c5761435b612e97565b5b600061436a84828501614331565b91505092915050565b600081905092915050565b600061438982613124565b6143938185614373565b93506143a3818560208601613140565b80840191505092915050565b60006143bb828561437e565b91506143c7828461437e565b91508190509392505050565b7f5468697320746f6b656e20646f65736e277420796f7572000000000000000000600082015250565b600061440960178361312f565b9150614414826143d3565b602082019050919050565b60006020820190508181036000830152614438816143fc565b9050919050565b7f596f75206e65656420746f20646f20636865636b2d696e000000000000000000600082015250565b600061447560178361312f565b91506144808261443f565b602082019050919050565b600060208201905081810360008301526144a481614468565b9050919050565b7f596f7520617265206e6f7420746865206f776e6572206f6620746865204e4654600082015250565b60006144e160208361312f565b91506144ec826144ab565b602082019050919050565b60006020820190508181036000830152614510816144d4565b9050919050565b7f526f6c65733a206163636f756e7420616c72656164792068617320726f6c6500600082015250565b600061454d601f8361312f565b915061455882614517565b602082019050919050565b6000602082019050818103600083015261457c81614540565b9050919050565b7f4552433732313a207472616e736665722066726f6d20696e636f72726563742060008201527f6f776e6572000000000000000000000000000000000000000000000000000000602082015250565b60006145df60258361312f565b91506145ea82614583565b604082019050919050565b6000602082019050818103600083015261460e816145d2565b9050919050565b7f4552433732313a207472616e7366657220746f20746865207a65726f2061646460008201527f7265737300000000000000000000000000000000000000000000000000000000602082015250565b600061467160248361312f565b915061467c82614615565b604082019050919050565b600060208201905081810360008301526146a081614664565b9050919050565b60006146b282612eff565b91506146bd83612eff565b9250828210156146d0576146cf613790565b5b828203905092915050565b7f526f6c65733a206163636f756e7420697320746865207a65726f20616464726560008201527f7373000000000000000000000000000000000000000000000000000000000000602082015250565b600061473760228361312f565b9150614742826146db565b604082019050919050565b600060208201905081810360008301526147668161472a565b9050919050565b7f45524337323155524953746f726167653a2055524920736574206f66206e6f6e60008201527f6578697374656e7420746f6b656e000000000000000000000000000000000000602082015250565b60006147c9602e8361312f565b91506147d48261476d565b604082019050919050565b600060208201905081810360008301526147f8816147bc565b9050919050565b7f4552433732313a20617070726f766520746f2063616c6c657200000000000000600082015250565b600061483560198361312f565b9150614840826147ff565b602082019050919050565b6000602082019050818103600083015261486481614828565b9050919050565b7f4552433732313a207472616e7366657220746f206e6f6e20455243373231526560008201527f63656976657220696d706c656d656e7465720000000000000000000000000000602082015250565b60006148c760328361312f565b91506148d28261486b565b604082019050919050565b600060208201905081810360008301526148f6816148ba565b9050919050565b600081519050919050565b6000614913826148fd565b61491d8185614016565b935061492d818560208601613140565b61493681613173565b840191505092915050565b6000608082019050614956600083018761320c565b614963602083018661320c565b61497060408301856132f6565b81810360608301526149828184614908565b905095945050505050565b60008151905061499c81613095565b92915050565b6000602082840312156149b8576149b7612e97565b5b60006149c68482850161498d565b91505092915050565b60006149da82612eff565b91507fffffffffffffffffffffffffffffffffffffffffffffffffffffffffffffffff8203614a0c57614a0b613790565b5b600182019050919050565b7f4e487b7100000000000000000000000000000000000000000000000000000000600052601260045260246000fd5b6000614a5182612eff565b9150614a5c83612eff565b925082614a6c57614a6b614a17565b5b828204905092915050565b6000614a8282612eff565b9150614a8d83612eff565b925082614a9d57614a9c614a17565b5b828206905092915050565b7f4e487b7100000000000000000000000000000000000000000000000000000000600052603260045260246000fd5b7f4552433732313a206d696e7420746f20746865207a65726f2061646472657373600082015250565b6000614b0d60208361312f565b9150614b1882614ad7565b602082019050919050565b60006020820190508181036000830152614b3c81614b00565b9050919050565b7f4552433732313a20746f6b656e20616c7265616479206d696e74656400000000600082015250565b6000614b79601c8361312f565b9150614b8482614b43565b602082019050919050565b60006020820190508181036000830152614ba881614b6c565b905091905056fea2646970667358221220ad5e417b8ebdd65117136a49871459c8db8f3f4306e11e23fa386c53e200424c64736f6c634300080f0033a2646970667358221220df74cb916e609f79bbae8aee7a9a029bcc48d04e54450f30b6a517260408b42864736f6c634300080f0033",
  "linkReferences": {},
  "deployedLinkReferences": {}
}