{
  "_format": "hh-sol-artifact-1",
  "contractName": "MarketPlaceContract",
  "sourceName": "src/blockchain/hardhat/contracts/Marketplace.sol",
  "abi": [
    {
      "inputs": [
        {
          "internalType": "address",
          "name": "_erc777Address",
          "type": "address"
        }
      ],
      "stateMutability": "nonpayable",
      "type": "constructor"
    },
    {
      "anonymous": false,
      "inputs": [
        {
          "indexed": true,
          "internalType": "address",
          "name": "owner",
          "type": "address"
        },
        {
          "indexed": true,
          "internalType": "address",
          "name": "approved",
          "type": "address"
        },
        {
          "indexed": true,
          "internalType": "uint256",
          "name": "tokenId",
          "type": "uint256"
        }
      ],
      "name": "Approval",
      "type": "event"
    },
    {
      "anonymous": false,
      "inputs": [
        {
          "indexed": true,
          "internalType": "address",
          "name": "owner",
          "type": "address"
        },
        {
          "indexed": true,
          "internalType": "address",
          "name": "operator",
          "type": "address"
        },
        {
          "indexed": false,
          "internalType": "bool",
          "name": "approved",
          "type": "bool"
        }
      ],
      "name": "ApprovalForAll",
      "type": "event"
    },
    {
      "anonymous": false,
      "inputs": [
        {
          "indexed": false,
          "internalType": "uint256",
          "name": "_itemId",
          "type": "uint256"
        },
        {
          "indexed": true,
          "internalType": "address",
          "name": "_nft",
          "type": "address"
        },
        {
          "indexed": false,
          "internalType": "uint256",
          "name": "_tokenId",
          "type": "uint256"
        },
        {
          "indexed": false,
          "internalType": "string",
          "name": "_tokenURI",
          "type": "string"
        },
        {
          "indexed": false,
          "internalType": "uint256",
          "name": "_price",
          "type": "uint256"
        },
        {
          "indexed": true,
          "internalType": "address",
          "name": "_buyer",
          "type": "address"
        }
      ],
      "name": "Bought",
      "type": "event"
    },
    {
      "anonymous": false,
      "inputs": [
        {
          "indexed": false,
          "internalType": "uint256",
          "name": "_itemId",
          "type": "uint256"
        },
        {
          "indexed": true,
          "internalType": "address",
          "name": "_nft",
          "type": "address"
        },
        {
          "indexed": false,
          "internalType": "uint256",
          "name": "_tokenId",
          "type": "uint256"
        },
        {
          "indexed": false,
          "internalType": "string",
          "name": "_tokenURI",
          "type": "string"
        },
        {
          "indexed": false,
          "internalType": "uint256",
          "name": "_price",
          "type": "uint256"
        },
        {
          "indexed": true,
          "internalType": "address",
          "name": "_seller",
          "type": "address"
        }
      ],
      "name": "Offerd",
      "type": "event"
    },
    {
      "anonymous": false,
      "inputs": [
        {
          "indexed": true,
          "internalType": "address",
          "name": "from",
          "type": "address"
        },
        {
          "indexed": true,
          "internalType": "address",
          "name": "to",
          "type": "address"
        },
        {
          "indexed": true,
          "internalType": "uint256",
          "name": "tokenId",
          "type": "uint256"
        }
      ],
      "name": "Transfer",
      "type": "event"
    },
    {
      "inputs": [],
      "name": "ItemCounter",
      "outputs": [
        {
          "internalType": "uint256",
          "name": "_value",
          "type": "uint256"
        }
      ],
      "stateMutability": "view",
      "type": "function"
    },
    {
      "inputs": [],
      "name": "account",
      "outputs": [
        {
          "internalType": "address",
          "name": "",
          "type": "address"
        }
      ],
      "stateMutability": "view",
      "type": "function"
    },
    {
      "inputs": [
        {
          "internalType": "address",
          "name": "_address",
          "type": "address"
        }
      ],
      "name": "addContractToken",
      "outputs": [],
      "stateMutability": "nonpayable",
      "type": "function"
    },
    {
      "inputs": [
        {
          "internalType": "address",
          "name": "to",
          "type": "address"
        },
        {
          "internalType": "uint256",
          "name": "tokenId",
          "type": "uint256"
        }
      ],
      "name": "approve",
      "outputs": [],
      "stateMutability": "nonpayable",
      "type": "function"
    },
    {
      "inputs": [
        {
          "internalType": "address",
          "name": "owner",
          "type": "address"
        }
      ],
      "name": "balanceOf",
      "outputs": [
        {
          "internalType": "uint256",
          "name": "",
          "type": "uint256"
        }
      ],
      "stateMutability": "view",
      "type": "function"
    },
    {
      "inputs": [
        {
          "internalType": "address",
          "name": "_tokenAddress",
          "type": "address"
        },
        {
          "internalType": "uint256",
          "name": "_itemId",
          "type": "uint256"
        }
      ],
      "name": "buyItem",
      "outputs": [],
      "stateMutability": "payable",
      "type": "function"
    },
    {
      "inputs": [
        {
          "internalType": "uint256",
          "name": "amount",
          "type": "uint256"
        }
      ],
      "name": "deposit",
      "outputs": [],
      "stateMutability": "nonpayable",
      "type": "function"
    },
    {
      "inputs": [],
      "name": "erc777",
      "outputs": [
        {
          "internalType": "contract ERC777",
          "name": "",
          "type": "address"
        }
      ],
      "stateMutability": "view",
      "type": "function"
    },
    {
      "inputs": [
        {
          "internalType": "uint256",
          "name": "tokenId",
          "type": "uint256"
        }
      ],
      "name": "getApproved",
      "outputs": [
        {
          "internalType": "address",
          "name": "",
          "type": "address"
        }
      ],
      "stateMutability": "view",
      "type": "function"
    },
    {
      "inputs": [
        {
          "internalType": "address",
          "name": "owner",
          "type": "address"
        },
        {
          "internalType": "address",
          "name": "operator",
          "type": "address"
        }
      ],
      "name": "isApprovedForAll",
      "outputs": [
        {
          "internalType": "bool",
          "name": "",
          "type": "bool"
        }
      ],
      "stateMutability": "view",
      "type": "function"
    },
    {
      "inputs": [
        {
          "internalType": "uint256",
          "name": "",
          "type": "uint256"
        }
      ],
      "name": "items",
      "outputs": [
        {
          "internalType": "uint256",
          "name": "itemId",
          "type": "uint256"
        },
        {
          "internalType": "contract IERC721",
          "name": "nft",
          "type": "address"
        },
        {
          "internalType": "uint256",
          "name": "tokenId",
          "type": "uint256"
        },
        {
          "internalType": "string",
          "name": "tokenURI",
          "type": "string"
        },
        {
          "internalType": "uint256",
          "name": "price",
          "type": "uint256"
        },
        {
          "internalType": "bool",
          "name": "sold",
          "type": "bool"
        },
        {
          "internalType": "address payable",
          "name": "seller",
          "type": "address"
        }
      ],
      "stateMutability": "view",
      "type": "function"
    },
    {
      "inputs": [
        {
          "internalType": "string",
          "name": "_tokenURI",
          "type": "string"
        }
      ],
      "name": "mint",
      "outputs": [
        {
          "internalType": "uint256",
          "name": "",
          "type": "uint256"
        }
      ],
      "stateMutability": "nonpayable",
      "type": "function"
    },
    {
      "inputs": [],
      "name": "name",
      "outputs": [
        {
          "internalType": "string",
          "name": "",
          "type": "string"
        }
      ],
      "stateMutability": "view",
      "type": "function"
    },
    {
      "inputs": [
        {
          "internalType": "uint256",
          "name": "tokenId",
          "type": "uint256"
        }
      ],
      "name": "ownerOf",
      "outputs": [
        {
          "internalType": "address",
          "name": "",
          "type": "address"
        }
      ],
      "stateMutability": "view",
      "type": "function"
    },
    {
      "inputs": [
        {
          "internalType": "address",
          "name": "from",
          "type": "address"
        },
        {
          "internalType": "address",
          "name": "to",
          "type": "address"
        },
        {
          "internalType": "uint256",
          "name": "tokenId",
          "type": "uint256"
        }
      ],
      "name": "safeTransferFrom",
      "outputs": [],
      "stateMutability": "nonpayable",
      "type": "function"
    },
    {
      "inputs": [
        {
          "internalType": "address",
          "name": "from",
          "type": "address"
        },
        {
          "internalType": "address",
          "name": "to",
          "type": "address"
        },
        {
          "internalType": "uint256",
          "name": "tokenId",
          "type": "uint256"
        },
        {
          "internalType": "bytes",
          "name": "data",
          "type": "bytes"
        }
      ],
      "name": "safeTransferFrom",
      "outputs": [],
      "stateMutability": "nonpayable",
      "type": "function"
    },
    {
      "inputs": [
        {
          "internalType": "contract IERC721",
          "name": "_nft",
          "type": "address"
        },
        {
          "internalType": "uint256",
          "name": "_tokenId",
          "type": "uint256"
        },
        {
          "internalType": "uint256",
          "name": "_price",
          "type": "uint256"
        }
      ],
      "name": "sellItem",
      "outputs": [],
      "stateMutability": "nonpayable",
      "type": "function"
    },
    {
      "inputs": [
        {
          "internalType": "address",
          "name": "operator",
          "type": "address"
        },
        {
          "internalType": "bool",
          "name": "approved",
          "type": "bool"
        }
      ],
      "name": "setApprovalForAll",
      "outputs": [],
      "stateMutability": "nonpayable",
      "type": "function"
    },
    {
      "inputs": [
        {
          "internalType": "bytes4",
          "name": "interfaceId",
          "type": "bytes4"
        }
      ],
      "name": "supportsInterface",
      "outputs": [
        {
          "internalType": "bool",
          "name": "",
          "type": "bool"
        }
      ],
      "stateMutability": "view",
      "type": "function"
    },
    {
      "inputs": [],
      "name": "symbol",
      "outputs": [
        {
          "internalType": "string",
          "name": "",
          "type": "string"
        }
      ],
      "stateMutability": "view",
      "type": "function"
    },
    {
      "inputs": [
        {
          "internalType": "address",
          "name": "",
          "type": "address"
        }
      ],
      "name": "tokenApproved",
      "outputs": [
        {
          "internalType": "bool",
          "name": "",
          "type": "bool"
        }
      ],
      "stateMutability": "view",
      "type": "function"
    },
    {
      "inputs": [],
      "name": "tokenIdCounter",
      "outputs": [
        {
          "internalType": "uint256",
          "name": "_value",
          "type": "uint256"
        }
      ],
      "stateMutability": "view",
      "type": "function"
    },
    {
      "inputs": [
        {
          "internalType": "uint256",
          "name": "tokenId",
          "type": "uint256"
        }
      ],
      "name": "tokenURI",
      "outputs": [
        {
          "internalType": "string",
          "name": "",
          "type": "string"
        }
      ],
      "stateMutability": "view",
      "type": "function"
    },
    {
      "inputs": [
        {
          "internalType": "uint256",
          "name": "",
          "type": "uint256"
        }
      ],
      "name": "tokens",
      "outputs": [
        {
          "internalType": "uint256",
          "name": "id",
          "type": "uint256"
        },
        {
          "internalType": "string",
          "name": "URI",
          "type": "string"
        }
      ],
      "stateMutability": "view",
      "type": "function"
    },
    {
      "inputs": [
        {
          "internalType": "address",
          "name": "_operator",
          "type": "address"
        },
        {
          "internalType": "address",
          "name": "_from",
          "type": "address"
        },
        {
          "internalType": "address",
          "name": "_to",
          "type": "address"
        },
        {
          "internalType": "uint256",
          "name": "_amount",
          "type": "uint256"
        },
        {
          "internalType": "bytes",
          "name": "_userData",
          "type": "bytes"
        },
        {
          "internalType": "bytes",
          "name": "_operatorData",
          "type": "bytes"
        }
      ],
      "name": "tokensReceived",
      "outputs": [],
      "stateMutability": "nonpayable",
      "type": "function"
    },
    {
      "inputs": [],
      "name": "totalAsserts",
      "outputs": [
        {
          "internalType": "uint256",
          "name": "",
          "type": "uint256"
        }
      ],
      "stateMutability": "view",
      "type": "function"
    },
    {
      "inputs": [
        {
          "internalType": "address",
          "name": "from",
          "type": "address"
        },
        {
          "internalType": "address",
          "name": "to",
          "type": "address"
        },
        {
          "internalType": "uint256",
          "name": "tokenId",
          "type": "uint256"
        }
      ],
      "name": "transferFrom",
      "outputs": [],
      "stateMutability": "nonpayable",
      "type": "function"
    },
    {
      "inputs": [],
      "name": "withdrawTokens",
      "outputs": [],
      "stateMutability": "nonpayable",
      "type": "function"
    }
  ],
  "bytecode": "0x60c06040523480156200001157600080fd5b5060405162004c8b38038062004c8b833981810160405281019062000037919062000253565b806040518060400160405280600681526020017f436f736d6f7300000000000000000000000000000000000000000000000000008152506040518060400160405280600481526020017f43534d53000000000000000000000000000000000000000000000000000000008152508160009081620000b59190620004ff565b508060019081620000c79190620004ff565b5050506001600781905550731820a4b7618bde71dce8cdc73aab6c95905fad2473ffffffffffffffffffffffffffffffffffffffff166329965a1d307fb281fc8c12954d22544db45de3159a39272895b169a852b314f9cc762e44c53b306040518463ffffffff1660e01b8152600401620001459392919062000612565b600060405180830381600087803b1580156200016057600080fd5b505af115801562000175573d6000803e3d6000fd5b505050508073ffffffffffffffffffffffffffffffffffffffff1660808173ffffffffffffffffffffffffffffffffffffffff16815250503373ffffffffffffffffffffffffffffffffffffffff1660a08173ffffffffffffffffffffffffffffffffffffffff168152505050506200064f565b600080fd5b600073ffffffffffffffffffffffffffffffffffffffff82169050919050565b60006200021b82620001ee565b9050919050565b6200022d816200020e565b81146200023957600080fd5b50565b6000815190506200024d8162000222565b92915050565b6000602082840312156200026c576200026b620001e9565b5b60006200027c848285016200023c565b91505092915050565b600081519050919050565b7f4e487b7100000000000000000000000000000000000000000000000000000000600052604160045260246000fd5b7f4e487b7100000000000000000000000000000000000000000000000000000000600052602260045260246000fd5b600060028204905060018216806200030757607f821691505b6020821081036200031d576200031c620002bf565b5b50919050565b60008190508160005260206000209050919050565b60006020601f8301049050919050565b600082821b905092915050565b600060088302620003877fffffffffffffffffffffffffffffffffffffffffffffffffffffffffffffffff8262000348565b62000393868362000348565b95508019841693508086168417925050509392505050565b6000819050919050565b6000819050919050565b6000620003e0620003da620003d484620003ab565b620003b5565b620003ab565b9050919050565b6000819050919050565b620003fc83620003bf565b620004146200040b82620003e7565b84845462000355565b825550505050565b600090565b6200042b6200041c565b62000438818484620003f1565b505050565b5b8181101562000460576200045460008262000421565b6001810190506200043e565b5050565b601f821115620004af57620004798162000323565b620004848462000338565b8101602085101562000494578190505b620004ac620004a38562000338565b8301826200043d565b50505b505050565b600082821c905092915050565b6000620004d460001984600802620004b4565b1980831691505092915050565b6000620004ef8383620004c1565b9150826002028217905092915050565b6200050a8262000285565b67ffffffffffffffff81111562000526576200052562000290565b5b620005328254620002ee565b6200053f82828562000464565b600060209050601f83116001811462000577576000841562000562578287015190505b6200056e8582620004e1565b865550620005de565b601f198416620005878662000323565b60005b82811015620005b1578489015182556001820191506020850194506020810190506200058a565b86831015620005d15784890151620005cd601f891682620004c1565b8355505b6001600288020188555050505b505050505050565b620005f1816200020e565b82525050565b6000819050919050565b6200060c81620005f7565b82525050565b6000606082019050620006296000830186620005e6565b62000638602083018562000601565b620006476040830184620005e6565b949350505050565b60805160a0516145ec6200069f60003960008181610b1e01528181610bf3015281816110ef015281816112ef0152611c080152600081816111c00152818161146b01526118e901526145ec6000f3fe6080604052600436106101b65760003560e01c806395d89b41116100ec578063b88d4fde1161008a578063d85d3d2711610064578063d85d3d2714610625578063e5c65d3014610662578063e985e9c51461068d578063f958aada146106ca576101b6565b8063b88d4fde1461057c578063bfb231d2146105a5578063c87b56dd146105e8576101b6565b80639e8e4d1d116100c65780639e8e4d1d146104e35780639f37092a1461050e578063a22cb4651461052a578063b6b55f2514610553576101b6565b806395d89b411461046457806398bdf6f51461048f5780639e70b75c146104ba576101b6565b806342842e0e116101595780636352211e116101335780636352211e146103aa57806368915327146103e757806370a08231146104105780638d8f2adb1461044d576101b6565b806342842e0e146103185780634f64b2be146103415780635dab24201461037f576101b6565b8063081812fc11610195578063081812fc1461024c578063095ea7b314610289578063170e2b8a146102b257806323b872dd146102ef576101b6565b806223de29146101bb57806301ffc9a7146101e457806306fdde0314610221575b600080fd5b3480156101c757600080fd5b506101e260048036038101906101dd9190612be4565b6106f5565b005b3480156101f057600080fd5b5061020b60048036038101906102069190612d0b565b6106ff565b6040516102189190612d53565b60405180910390f35b34801561022d57600080fd5b506102366107e1565b6040516102439190612e07565b60405180910390f35b34801561025857600080fd5b50610273600480360381019061026e9190612e29565b610873565b6040516102809190612e65565b60405180910390f35b34801561029557600080fd5b506102b060048036038101906102ab9190612e80565b6108b9565b005b3480156102be57600080fd5b506102d960048036038101906102d49190612ec0565b6109d0565b6040516102e69190612d53565b60405180910390f35b3480156102fb57600080fd5b5061031660048036038101906103119190612eed565b6109f0565b005b34801561032457600080fd5b5061033f600480360381019061033a9190612eed565b610a50565b005b34801561034d57600080fd5b5061036860048036038101906103639190612e29565b610a70565b604051610376929190612f4f565b60405180910390f35b34801561038b57600080fd5b50610394610b1c565b6040516103a19190612e65565b60405180910390f35b3480156103b657600080fd5b506103d160048036038101906103cc9190612e29565b610b40565b6040516103de9190612e65565b60405180910390f35b3480156103f357600080fd5b5061040e60048036038101906104099190612fbd565b610bf1565b005b34801561041c57600080fd5b5061043760048036038101906104329190612ec0565b611036565b6040516104449190613010565b60405180910390f35b34801561045957600080fd5b506104626110ed565b005b34801561047057600080fd5b5061047961124f565b6040516104869190612e07565b60405180910390f35b34801561049b57600080fd5b506104a46112e1565b6040516104b19190613010565b60405180910390f35b3480156104c657600080fd5b506104e160048036038101906104dc9190612ec0565b6112ed565b005b3480156104ef57600080fd5b506104f8611469565b604051610505919061308a565b60405180910390f35b61052860048036038101906105239190612e80565b61148d565b005b34801561053657600080fd5b50610551600480360381019061054c91906130d1565b6118d1565b005b34801561055f57600080fd5b5061057a60048036038101906105759190612e29565b6118e7565b005b34801561058857600080fd5b506105a3600480360381019061059e9190613241565b611979565b005b3480156105b157600080fd5b506105cc60048036038101906105c79190612e29565b6119db565b6040516105df9796959493929190613306565b60405180910390f35b3480156105f457600080fd5b5061060f600480360381019061060a9190612e29565b611af2565b60405161061c9190612e07565b60405180910390f35b34801561063157600080fd5b5061064c6004803603810190610647919061341d565b611c04565b6040516106599190613010565b60405180910390f35b34801561066e57600080fd5b50610677611d14565b6040516106849190613010565b60405180910390f35b34801561069957600080fd5b506106b460048036038101906106af9190613466565b611d1c565b6040516106c19190612d53565b60405180910390f35b3480156106d657600080fd5b506106df611db0565b6040516106ec9190613010565b60405180910390f35b5050505050505050565b60007f80ac58cd000000000000000000000000000000000000000000000000000000007bffffffffffffffffffffffffffffffffffffffffffffffffffffffff1916827bffffffffffffffffffffffffffffffffffffffffffffffffffffffff191614806107ca57507f5b5e139f000000000000000000000000000000000000000000000000000000007bffffffffffffffffffffffffffffffffffffffffffffffffffffffff1916827bffffffffffffffffffffffffffffffffffffffffffffffffffffffff1916145b806107da57506107d982611dbc565b5b9050919050565b6060600080546107f0906134d5565b80601f016020809104026020016040519081016040528092919081815260200182805461081c906134d5565b80156108695780601f1061083e57610100808354040283529160200191610869565b820191906000526020600020905b81548152906001019060200180831161084c57829003601f168201915b5050505050905090565b600061087e82611e26565b6004600083815260200190815260200160002060009054906101000a900473ffffffffffffffffffffffffffffffffffffffff169050919050565b60006108c482610b40565b90508073ffffffffffffffffffffffffffffffffffffffff168373ffffffffffffffffffffffffffffffffffffffff1603610934576040517f08c379a000000000000000000000000000000000000000000000000000000000815260040161092b90613578565b60405180910390fd5b8073ffffffffffffffffffffffffffffffffffffffff16610953611e71565b73ffffffffffffffffffffffffffffffffffffffff16148061098257506109818161097c611e71565b611d1c565b5b6109c1576040517f08c379a00000000000000000000000000000000000000000000000000000000081526004016109b89061360a565b60405180910390fd5b6109cb8383611e79565b505050565b600c6020528060005260406000206000915054906101000a900460ff1681565b610a016109fb611e71565b82611f32565b610a40576040517f08c379a0000000000000000000000000000000000000000000000000000000008152600401610a379061369c565b60405180910390fd5b610a4b838383611fc7565b505050565b610a6b83838360405180602001604052806000815250611979565b505050565b600b602052806000526040600020600091509050806000015490806001018054610a99906134d5565b80601f0160208091040260200160405190810160405280929190818152602001828054610ac5906134d5565b8015610b125780601f10610ae757610100808354040283529160200191610b12565b820191906000526020600020905b815481529060010190602001808311610af557829003601f168201915b5050505050905082565b7f000000000000000000000000000000000000000000000000000000000000000081565b6000806002600084815260200190815260200160002060009054906101000a900473ffffffffffffffffffffffffffffffffffffffff169050600073ffffffffffffffffffffffffffffffffffffffff168173ffffffffffffffffffffffffffffffffffffffff1603610be8576040517f08c379a0000000000000000000000000000000000000000000000000000000008152600401610bdf90613708565b60405180910390fd5b80915050919050565b7f000000000000000000000000000000000000000000000000000000000000000073ffffffffffffffffffffffffffffffffffffffff163373ffffffffffffffffffffffffffffffffffffffff1614610c7f576040517f08c379a0000000000000000000000000000000000000000000000000000000008152600401610c769061379a565b60405180910390fd5b600260075403610cc4576040517f08c379a0000000000000000000000000000000000000000000000000000000008152600401610cbb90613806565b60405180910390fd5b600260078190555060008111610d0f576040517f08c379a0000000000000000000000000000000000000000000000000000000008152600401610d0690613872565b60405180910390fd5b610d19600861222d565b6000610d256008612243565b90508373ffffffffffffffffffffffffffffffffffffffff166323b872dd3330866040518463ffffffff1660e01b8152600401610d6493929190613892565b600060405180830381600087803b158015610d7e57600080fd5b505af1158015610d92573d6000803e3d6000fd5b505050506000600b600085815260200190815260200160002060405180604001604052908160008201548152602001600182018054610dd0906134d5565b80601f0160208091040260200160405190810160405280929190818152602001828054610dfc906134d5565b8015610e495780601f10610e1e57610100808354040283529160200191610e49565b820191906000526020600020905b815481529060010190602001808311610e2c57829003601f168201915b505050505081525050905060006040518060e001604052808481526020018773ffffffffffffffffffffffffffffffffffffffff168152602001868152602001836020015181526020018581526020016000151581526020013373ffffffffffffffffffffffffffffffffffffffff16815250905080600a60008581526020019081526020016000206000820151816000015560208201518160010160006101000a81548173ffffffffffffffffffffffffffffffffffffffff021916908373ffffffffffffffffffffffffffffffffffffffff160217905550604082015181600201556060820151816003019081610f429190613a6b565b506080820151816004015560a08201518160050160006101000a81548160ff02191690831515021790555060c08201518160050160016101000a81548173ffffffffffffffffffffffffffffffffffffffff021916908373ffffffffffffffffffffffffffffffffffffffff1602179055509050503373ffffffffffffffffffffffffffffffffffffffff168673ffffffffffffffffffffffffffffffffffffffff167ffbb702af9404f72d4778d0a1a80c9c80e330025cf49efc62679bf95f636a4be7858886602001518960405161101e9493929190613b3d565b60405180910390a35050506001600781905550505050565b60008073ffffffffffffffffffffffffffffffffffffffff168273ffffffffffffffffffffffffffffffffffffffff16036110a6576040517f08c379a000000000000000000000000000000000000000000000000000000000815260040161109d90613bfb565b60405180910390fd5b600360008373ffffffffffffffffffffffffffffffffffffffff1673ffffffffffffffffffffffffffffffffffffffff168152602001908152602001600020549050919050565b7f000000000000000000000000000000000000000000000000000000000000000073ffffffffffffffffffffffffffffffffffffffff163373ffffffffffffffffffffffffffffffffffffffff161461117b576040517f08c379a00000000000000000000000000000000000000000000000000000000081526004016111729061379a565b60405180910390fd5b600047116111be576040517f08c379a00000000000000000000000000000000000000000000000000000000081526004016111b590613c67565b60405180910390fd5b7f000000000000000000000000000000000000000000000000000000000000000073ffffffffffffffffffffffffffffffffffffffff166362ad1b833033476040518463ffffffff1660e01b815260040161121b93929190613cbe565b600060405180830381600087803b15801561123557600080fd5b505af1158015611249573d6000803e3d6000fd5b50505050565b60606001805461125e906134d5565b80601f016020809104026020016040519081016040528092919081815260200182805461128a906134d5565b80156112d75780601f106112ac576101008083540402835291602001916112d7565b820191906000526020600020905b8154815290600101906020018083116112ba57829003601f168201915b5050505050905090565b60098060000154905081565b7f000000000000000000000000000000000000000000000000000000000000000073ffffffffffffffffffffffffffffffffffffffff163373ffffffffffffffffffffffffffffffffffffffff161461137b576040517f08c379a00000000000000000000000000000000000000000000000000000000081526004016113729061379a565b60405180910390fd5b60001515600c60008373ffffffffffffffffffffffffffffffffffffffff1673ffffffffffffffffffffffffffffffffffffffff16815260200190815260200160002060009054906101000a900460ff1615151461140e576040517f08c379a000000000000000000000000000000000000000000000000000000000815260040161140590613d67565b60405180910390fd5b6001600c60008373ffffffffffffffffffffffffffffffffffffffff1673ffffffffffffffffffffffffffffffffffffffff16815260200190815260200160002060006101000a81548160ff02191690831515021790555050565b7f000000000000000000000000000000000000000000000000000000000000000081565b6002600754036114d2576040517f08c379a00000000000000000000000000000000000000000000000000000000081526004016114c990613806565b60405180910390fd5b60026007819055506000600a60008381526020019081526020016000206004015490506000600a6000848152602001908152602001600020905060011515600c60008673ffffffffffffffffffffffffffffffffffffffff1673ffffffffffffffffffffffffffffffffffffffff16815260200190815260200160002060009054906101000a900460ff1615151461159f576040517f08c379a000000000000000000000000000000000000000000000000000000000815260040161159690613dd3565b60405180910390fd5b6000831180156115b857506115b46008612243565b8311155b6115f7576040517f08c379a00000000000000000000000000000000000000000000000000000000081526004016115ee90613e3f565b60405180910390fd5b8134101561163a576040517f08c379a000000000000000000000000000000000000000000000000000000000815260040161163190613eab565b60405180910390fd5b8060050160009054906101000a900460ff161561168c576040517f08c379a000000000000000000000000000000000000000000000000000000000815260040161168390613f17565b60405180910390fd5b611695826118e7565b8060010160009054906101000a900473ffffffffffffffffffffffffffffffffffffffff1673ffffffffffffffffffffffffffffffffffffffff166323b872dd303384600201546040518463ffffffff1660e01b81526004016116fa93929190613892565b600060405180830381600087803b15801561171457600080fd5b505af1158015611728573d6000803e3d6000fd5b505050506000600a6000858152602001908152602001600020905060018160050160006101000a81548160ff0219169083151502179055506000600b6000836002015481526020019081526020016000206040518060400160405290816000820154815260200160018201805461179e906134d5565b80601f01602080910402602001604051908101604052809291908181526020018280546117ca906134d5565b80156118175780601f106117ec57610100808354040283529160200191611817565b820191906000526020600020905b8154815290600101906020018083116117fa57829003601f168201915b50505050508152505090503373ffffffffffffffffffffffffffffffffffffffff168360010160009054906101000a900473ffffffffffffffffffffffffffffffffffffffff1673ffffffffffffffffffffffffffffffffffffffff167ff0640a5e49fe03f4079b28dce79dc3ecebd847760c8fed4b6095e30bd1f16c5585600001548660020154856020015188600401546040516118b99493929190613b3d565b60405180910390a35050505060016007819055505050565b6118e36118dc611e71565b8383612251565b5050565b7f000000000000000000000000000000000000000000000000000000000000000073ffffffffffffffffffffffffffffffffffffffff166362ad1b833330846040518463ffffffff1660e01b815260040161194493929190613cbe565b600060405180830381600087803b15801561195e57600080fd5b505af1158015611972573d6000803e3d6000fd5b5050505050565b61198a611984611e71565b83611f32565b6119c9576040517f08c379a00000000000000000000000000000000000000000000000000000000081526004016119c09061369c565b60405180910390fd5b6119d5848484846123bd565b50505050565b600a6020528060005260406000206000915090508060000154908060010160009054906101000a900473ffffffffffffffffffffffffffffffffffffffff1690806002015490806003018054611a30906134d5565b80601f0160208091040260200160405190810160405280929190818152602001828054611a5c906134d5565b8015611aa95780601f10611a7e57610100808354040283529160200191611aa9565b820191906000526020600020905b815481529060010190602001808311611a8c57829003601f168201915b5050505050908060040154908060050160009054906101000a900460ff16908060050160019054906101000a900473ffffffffffffffffffffffffffffffffffffffff16905087565b6060611afd82611e26565b6000600660008481526020019081526020016000208054611b1d906134d5565b80601f0160208091040260200160405190810160405280929190818152602001828054611b49906134d5565b8015611b965780601f10611b6b57610100808354040283529160200191611b96565b820191906000526020600020905b815481529060010190602001808311611b7957829003601f168201915b505050505090506000611ba7612419565b90506000815103611bbc578192505050611bff565b600082511115611bf1578082604051602001611bd9929190613f73565b60405160208183030381529060405292505050611bff565b611bfa84612430565b925050505b919050565b60007f000000000000000000000000000000000000000000000000000000000000000073ffffffffffffffffffffffffffffffffffffffff163373ffffffffffffffffffffffffffffffffffffffff1614611c94576040517f08c379a0000000000000000000000000000000000000000000000000000000008152600401611c8b9061379a565b60405180910390fd5b6000611ca06009612243565b9050611cac600961222d565b611cb63382612498565b611cc081846124b6565b604051806040016040528082815260200184815250600b6000838152602001908152602001600020600082015181600001556020820151816001019081611d079190613a6b565b5090505080915050919050565b600047905090565b6000600560008473ffffffffffffffffffffffffffffffffffffffff1673ffffffffffffffffffffffffffffffffffffffff16815260200190815260200160002060008373ffffffffffffffffffffffffffffffffffffffff1673ffffffffffffffffffffffffffffffffffffffff16815260200190815260200160002060009054906101000a900460ff16905092915050565b60088060000154905081565b60007f01ffc9a7000000000000000000000000000000000000000000000000000000007bffffffffffffffffffffffffffffffffffffffffffffffffffffffff1916827bffffffffffffffffffffffffffffffffffffffffffffffffffffffff1916149050919050565b611e2f81612523565b611e6e576040517f08c379a0000000000000000000000000000000000000000000000000000000008152600401611e6590613708565b60405180910390fd5b50565b600033905090565b816004600083815260200190815260200160002060006101000a81548173ffffffffffffffffffffffffffffffffffffffff021916908373ffffffffffffffffffffffffffffffffffffffff160217905550808273ffffffffffffffffffffffffffffffffffffffff16611eec83610b40565b73ffffffffffffffffffffffffffffffffffffffff167f8c5be1e5ebec7d5bd14f71427d1e84f3dd0314c0f7b2291e5b200ac8c7c3b92560405160405180910390a45050565b600080611f3e83610b40565b90508073ffffffffffffffffffffffffffffffffffffffff168473ffffffffffffffffffffffffffffffffffffffff161480611f805750611f7f8185611d1c565b5b80611fbe57508373ffffffffffffffffffffffffffffffffffffffff16611fa684610873565b73ffffffffffffffffffffffffffffffffffffffff16145b91505092915050565b8273ffffffffffffffffffffffffffffffffffffffff16611fe782610b40565b73ffffffffffffffffffffffffffffffffffffffff161461203d576040517f08c379a000000000000000000000000000000000000000000000000000000000815260040161203490614009565b60405180910390fd5b600073ffffffffffffffffffffffffffffffffffffffff168273ffffffffffffffffffffffffffffffffffffffff16036120ac576040517f08c379a00000000000000000000000000000000000000000000000000000000081526004016120a39061409b565b60405180910390fd5b6120b783838361258f565b6120c2600082611e79565b6001600360008573ffffffffffffffffffffffffffffffffffffffff1673ffffffffffffffffffffffffffffffffffffffff168152602001908152602001600020600082825461211291906140ea565b925050819055506001600360008473ffffffffffffffffffffffffffffffffffffffff1673ffffffffffffffffffffffffffffffffffffffff1681526020019081526020016000206000828254612169919061411e565b92505081905550816002600083815260200190815260200160002060006101000a81548173ffffffffffffffffffffffffffffffffffffffff021916908373ffffffffffffffffffffffffffffffffffffffff160217905550808273ffffffffffffffffffffffffffffffffffffffff168473ffffffffffffffffffffffffffffffffffffffff167fddf252ad1be2c89b69c2b068fc378daa952ba7f163c4a11628f55a4df523b3ef60405160405180910390a4612228838383612594565b505050565b6001816000016000828254019250508190555050565b600081600001549050919050565b8173ffffffffffffffffffffffffffffffffffffffff168373ffffffffffffffffffffffffffffffffffffffff16036122bf576040517f08c379a00000000000000000000000000000000000000000000000000000000081526004016122b6906141c0565b60405180910390fd5b80600560008573ffffffffffffffffffffffffffffffffffffffff1673ffffffffffffffffffffffffffffffffffffffff16815260200190815260200160002060008473ffffffffffffffffffffffffffffffffffffffff1673ffffffffffffffffffffffffffffffffffffffff16815260200190815260200160002060006101000a81548160ff0219169083151502179055508173ffffffffffffffffffffffffffffffffffffffff168373ffffffffffffffffffffffffffffffffffffffff167f17307eab39ab6107e8899845ad3d59bd9653f200f220920489ca2b5937696c31836040516123b09190612d53565b60405180910390a3505050565b6123c8848484611fc7565b6123d484848484612599565b612413576040517f08c379a000000000000000000000000000000000000000000000000000000000815260040161240a90614252565b60405180910390fd5b50505050565b606060405180602001604052806000815250905090565b606061243b82611e26565b6000612445612419565b905060008151116124655760405180602001604052806000815250612490565b8061246f84612720565b604051602001612480929190613f73565b6040516020818303038152906040525b915050919050565b6124b2828260405180602001604052806000815250612880565b5050565b6124bf82612523565b6124fe576040517f08c379a00000000000000000000000000000000000000000000000000000000081526004016124f5906142e4565b60405180910390fd5b8060066000848152602001908152602001600020908161251e9190613a6b565b505050565b60008073ffffffffffffffffffffffffffffffffffffffff166002600084815260200190815260200160002060009054906101000a900473ffffffffffffffffffffffffffffffffffffffff1673ffffffffffffffffffffffffffffffffffffffff1614159050919050565b505050565b505050565b60006125ba8473ffffffffffffffffffffffffffffffffffffffff166128db565b15612713578373ffffffffffffffffffffffffffffffffffffffff1663150b7a026125e3611e71565b8786866040518563ffffffff1660e01b81526004016126059493929190614348565b6020604051808303816000875af192505050801561264157506040513d601f19601f8201168201806040525081019061263e91906143a9565b60015b6126c3573d8060008114612671576040519150601f19603f3d011682016040523d82523d6000602084013e612676565b606091505b5060008151036126bb576040517f08c379a00000000000000000000000000000000000000000000000000000000081526004016126b290614252565b60405180910390fd5b805181602001fd5b63150b7a0260e01b7bffffffffffffffffffffffffffffffffffffffffffffffffffffffff1916817bffffffffffffffffffffffffffffffffffffffffffffffffffffffff191614915050612718565b600190505b949350505050565b606060008203612767576040518060400160405280600181526020017f3000000000000000000000000000000000000000000000000000000000000000815250905061287b565b600082905060005b60008214612799578080612782906143d6565b915050600a82612792919061444d565b915061276f565b60008167ffffffffffffffff8111156127b5576127b4613116565b5b6040519080825280601f01601f1916602001820160405280156127e75781602001600182028036833780820191505090505b5090505b600085146128745760018261280091906140ea565b9150600a8561280f919061447e565b603061281b919061411e565b60f81b818381518110612831576128306144af565b5b60200101907effffffffffffffffffffffffffffffffffffffffffffffffffffffffffffff1916908160001a905350600a8561286d919061444d565b94506127eb565b8093505050505b919050565b61288a83836128fe565b6128976000848484612599565b6128d6576040517f08c379a00000000000000000000000000000000000000000000000000000000081526004016128cd90614252565b60405180910390fd5b505050565b6000808273ffffffffffffffffffffffffffffffffffffffff163b119050919050565b600073ffffffffffffffffffffffffffffffffffffffff168273ffffffffffffffffffffffffffffffffffffffff160361296d576040517f08c379a00000000000000000000000000000000000000000000000000000000081526004016129649061452a565b60405180910390fd5b61297681612523565b156129b6576040517f08c379a00000000000000000000000000000000000000000000000000000000081526004016129ad90614596565b60405180910390fd5b6129c26000838361258f565b6001600360008473ffffffffffffffffffffffffffffffffffffffff1673ffffffffffffffffffffffffffffffffffffffff1681526020019081526020016000206000828254612a12919061411e565b92505081905550816002600083815260200190815260200160002060006101000a81548173ffffffffffffffffffffffffffffffffffffffff021916908373ffffffffffffffffffffffffffffffffffffffff160217905550808273ffffffffffffffffffffffffffffffffffffffff16600073ffffffffffffffffffffffffffffffffffffffff167fddf252ad1be2c89b69c2b068fc378daa952ba7f163c4a11628f55a4df523b3ef60405160405180910390a4612ad360008383612594565b5050565b6000604051905090565b600080fd5b600080fd5b600073ffffffffffffffffffffffffffffffffffffffff82169050919050565b6000612b1682612aeb565b9050919050565b612b2681612b0b565b8114612b3157600080fd5b50565b600081359050612b4381612b1d565b92915050565b6000819050919050565b612b5c81612b49565b8114612b6757600080fd5b50565b600081359050612b7981612b53565b92915050565b600080fd5b600080fd5b600080fd5b60008083601f840112612ba457612ba3612b7f565b5b8235905067ffffffffffffffff811115612bc157612bc0612b84565b5b602083019150836001820283011115612bdd57612bdc612b89565b5b9250929050565b60008060008060008060008060c0898b031215612c0457612c03612ae1565b5b6000612c128b828c01612b34565b9850506020612c238b828c01612b34565b9750506040612c348b828c01612b34565b9650506060612c458b828c01612b6a565b955050608089013567ffffffffffffffff811115612c6657612c65612ae6565b5b612c728b828c01612b8e565b945094505060a089013567ffffffffffffffff811115612c9557612c94612ae6565b5b612ca18b828c01612b8e565b92509250509295985092959890939650565b60007fffffffff0000000000000000000000000000000000000000000000000000000082169050919050565b612ce881612cb3565b8114612cf357600080fd5b50565b600081359050612d0581612cdf565b92915050565b600060208284031215612d2157612d20612ae1565b5b6000612d2f84828501612cf6565b91505092915050565b60008115159050919050565b612d4d81612d38565b82525050565b6000602082019050612d686000830184612d44565b92915050565b600081519050919050565b600082825260208201905092915050565b60005b83811015612da8578082015181840152602081019050612d8d565b83811115612db7576000848401525b50505050565b6000601f19601f8301169050919050565b6000612dd982612d6e565b612de38185612d79565b9350612df3818560208601612d8a565b612dfc81612dbd565b840191505092915050565b60006020820190508181036000830152612e218184612dce565b905092915050565b600060208284031215612e3f57612e3e612ae1565b5b6000612e4d84828501612b6a565b91505092915050565b612e5f81612b0b565b82525050565b6000602082019050612e7a6000830184612e56565b92915050565b60008060408385031215612e9757612e96612ae1565b5b6000612ea585828601612b34565b9250506020612eb685828601612b6a565b9150509250929050565b600060208284031215612ed657612ed5612ae1565b5b6000612ee484828501612b34565b91505092915050565b600080600060608486031215612f0657612f05612ae1565b5b6000612f1486828701612b34565b9350506020612f2586828701612b34565b9250506040612f3686828701612b6a565b9150509250925092565b612f4981612b49565b82525050565b6000604082019050612f646000830185612f40565b8181036020830152612f768184612dce565b90509392505050565b6000612f8a82612b0b565b9050919050565b612f9a81612f7f565b8114612fa557600080fd5b50565b600081359050612fb781612f91565b92915050565b600080600060608486031215612fd657612fd5612ae1565b5b6000612fe486828701612fa8565b9350506020612ff586828701612b6a565b925050604061300686828701612b6a565b9150509250925092565b60006020820190506130256000830184612f40565b92915050565b6000819050919050565b600061305061304b61304684612aeb565b61302b565b612aeb565b9050919050565b600061306282613035565b9050919050565b600061307482613057565b9050919050565b61308481613069565b82525050565b600060208201905061309f600083018461307b565b92915050565b6130ae81612d38565b81146130b957600080fd5b50565b6000813590506130cb816130a5565b92915050565b600080604083850312156130e8576130e7612ae1565b5b60006130f685828601612b34565b9250506020613107858286016130bc565b9150509250929050565b600080fd5b7f4e487b7100000000000000000000000000000000000000000000000000000000600052604160045260246000fd5b61314e82612dbd565b810181811067ffffffffffffffff8211171561316d5761316c613116565b5b80604052505050565b6000613180612ad7565b905061318c8282613145565b919050565b600067ffffffffffffffff8211156131ac576131ab613116565b5b6131b582612dbd565b9050602081019050919050565b82818337600083830152505050565b60006131e46131df84613191565b613176565b905082815260208101848484011115613200576131ff613111565b5b61320b8482856131c2565b509392505050565b600082601f83011261322857613227612b7f565b5b81356132388482602086016131d1565b91505092915050565b6000806000806080858703121561325b5761325a612ae1565b5b600061326987828801612b34565b945050602061327a87828801612b34565b935050604061328b87828801612b6a565b925050606085013567ffffffffffffffff8111156132ac576132ab612ae6565b5b6132b887828801613213565b91505092959194509250565b60006132cf82613057565b9050919050565b6132df816132c4565b82525050565b60006132f082612aeb565b9050919050565b613300816132e5565b82525050565b600060e08201905061331b600083018a612f40565b61332860208301896132d6565b6133356040830188612f40565b81810360608301526133478187612dce565b90506133566080830186612f40565b61336360a0830185612d44565b61337060c08301846132f7565b98975050505050505050565b600067ffffffffffffffff82111561339757613396613116565b5b6133a082612dbd565b9050602081019050919050565b60006133c06133bb8461337c565b613176565b9050828152602081018484840111156133dc576133db613111565b5b6133e78482856131c2565b509392505050565b600082601f83011261340457613403612b7f565b5b81356134148482602086016133ad565b91505092915050565b60006020828403121561343357613432612ae1565b5b600082013567ffffffffffffffff81111561345157613450612ae6565b5b61345d848285016133ef565b91505092915050565b6000806040838503121561347d5761347c612ae1565b5b600061348b85828601612b34565b925050602061349c85828601612b34565b9150509250929050565b7f4e487b7100000000000000000000000000000000000000000000000000000000600052602260045260246000fd5b600060028204905060018216806134ed57607f821691505b602082108103613500576134ff6134a6565b5b50919050565b7f4552433732313a20617070726f76616c20746f2063757272656e74206f776e6560008201527f7200000000000000000000000000000000000000000000000000000000000000602082015250565b6000613562602183612d79565b915061356d82613506565b604082019050919050565b6000602082019050818103600083015261359181613555565b9050919050565b7f4552433732313a20617070726f76652063616c6c6572206973206e6f7420746f60008201527f6b656e206f776e6572206e6f7220617070726f76656420666f7220616c6c0000602082015250565b60006135f4603e83612d79565b91506135ff82613598565b604082019050919050565b60006020820190508181036000830152613623816135e7565b9050919050565b7f4552433732313a2063616c6c6572206973206e6f7420746f6b656e206f776e6560008201527f72206e6f7220617070726f766564000000000000000000000000000000000000602082015250565b6000613686602e83612d79565b91506136918261362a565b604082019050919050565b600060208201905081810360008301526136b581613679565b9050919050565b7f4552433732313a20696e76616c696420746f6b656e2049440000000000000000600082015250565b60006136f2601883612d79565b91506136fd826136bc565b602082019050919050565b60006020820190508181036000830152613721816136e5565b9050919050565b7f4d61726b6574506c616365436f6e74726163743a2063616c6c6572206973206e60008201527f6f7420746865206f776e65720000000000000000000000000000000000000000602082015250565b6000613784602c83612d79565b915061378f82613728565b604082019050919050565b600060208201905081810360008301526137b381613777565b9050919050565b7f5265656e7472616e637947756172643a207265656e7472616e742063616c6c00600082015250565b60006137f0601f83612d79565b91506137fb826137ba565b602082019050919050565b6000602082019050818103600083015261381f816137e3565b9050919050565b7f5072696365206d75737420626520677265617465722074686174203000000000600082015250565b600061385c601c83612d79565b915061386782613826565b602082019050919050565b6000602082019050818103600083015261388b8161384f565b9050919050565b60006060820190506138a76000830186612e56565b6138b46020830185612e56565b6138c16040830184612f40565b949350505050565b60008190508160005260206000209050919050565b60006020601f8301049050919050565b600082821b905092915050565b60006008830261392b7fffffffffffffffffffffffffffffffffffffffffffffffffffffffffffffffff826138ee565b61393586836138ee565b95508019841693508086168417925050509392505050565b600061396861396361395e84612b49565b61302b565b612b49565b9050919050565b6000819050919050565b6139828361394d565b61399661398e8261396f565b8484546138fb565b825550505050565b600090565b6139ab61399e565b6139b6818484613979565b505050565b5b818110156139da576139cf6000826139a3565b6001810190506139bc565b5050565b601f821115613a1f576139f0816138c9565b6139f9846138de565b81016020851015613a08578190505b613a1c613a14856138de565b8301826139bb565b50505b505050565b600082821c905092915050565b6000613a4260001984600802613a24565b1980831691505092915050565b6000613a5b8383613a31565b9150826002028217905092915050565b613a7482612d6e565b67ffffffffffffffff811115613a8d57613a8c613116565b5b613a9782546134d5565b613aa28282856139de565b600060209050601f831160018114613ad55760008415613ac3578287015190505b613acd8582613a4f565b865550613b35565b601f198416613ae3866138c9565b60005b82811015613b0b57848901518255600182019150602085019450602081019050613ae6565b86831015613b285784890151613b24601f891682613a31565b8355505b6001600288020188555050505b505050505050565b6000608082019050613b526000830187612f40565b613b5f6020830186612f40565b8181036040830152613b718185612dce565b9050613b806060830184612f40565b95945050505050565b7f4552433732313a2061646472657373207a65726f206973206e6f74206120766160008201527f6c6964206f776e65720000000000000000000000000000000000000000000000602082015250565b6000613be5602983612d79565b9150613bf082613b89565b604082019050919050565b60006020820190508181036000830152613c1481613bd8565b9050919050565b7f546865726520646f6e277420746f6b656e730000000000000000000000000000600082015250565b6000613c51601283612d79565b9150613c5c82613c1b565b602082019050919050565b60006020820190508181036000830152613c8081613c44565b9050919050565b600082825260208201905092915050565b50565b6000613ca8600083613c87565b9150613cb382613c98565b600082019050919050565b600060a082019050613cd36000830186612e56565b613ce06020830185612e56565b613ced6040830184612f40565b8181036060830152613cfe81613c9b565b90508181036080830152613d1181613c9b565b9050949350505050565b7f5468697320746f6b656e20697320616c726561647920617070726f7665640000600082015250565b6000613d51601e83612d79565b9150613d5c82613d1b565b602082019050919050565b60006020820190508181036000830152613d8081613d44565b9050919050565b7f576520646f6e277420616363657074207468697320746f6b656e000000000000600082015250565b6000613dbd601a83612d79565b9150613dc882613d87565b602082019050919050565b60006020820190508181036000830152613dec81613db0565b9050919050565b7f4974656d20646f6e277420657869737400000000000000000000000000000000600082015250565b6000613e29601083612d79565b9150613e3482613df3565b602082019050919050565b60006020820190508181036000830152613e5881613e1c565b9050919050565b7f496e73756666696369656e742066756e64730000000000000000000000000000600082015250565b6000613e95601283612d79565b9150613ea082613e5f565b602082019050919050565b60006020820190508181036000830152613ec481613e88565b9050919050565b7f4974656d20616c726561647920736f6c64000000000000000000000000000000600082015250565b6000613f01601183612d79565b9150613f0c82613ecb565b602082019050919050565b60006020820190508181036000830152613f3081613ef4565b9050919050565b600081905092915050565b6000613f4d82612d6e565b613f578185613f37565b9350613f67818560208601612d8a565b80840191505092915050565b6000613f7f8285613f42565b9150613f8b8284613f42565b91508190509392505050565b7f4552433732313a207472616e736665722066726f6d20696e636f72726563742060008201527f6f776e6572000000000000000000000000000000000000000000000000000000602082015250565b6000613ff3602583612d79565b9150613ffe82613f97565b604082019050919050565b6000602082019050818103600083015261402281613fe6565b9050919050565b7f4552433732313a207472616e7366657220746f20746865207a65726f2061646460008201527f7265737300000000000000000000000000000000000000000000000000000000602082015250565b6000614085602483612d79565b915061409082614029565b604082019050919050565b600060208201905081810360008301526140b481614078565b9050919050565b7f4e487b7100000000000000000000000000000000000000000000000000000000600052601160045260246000fd5b60006140f582612b49565b915061410083612b49565b925082821015614113576141126140bb565b5b828203905092915050565b600061412982612b49565b915061413483612b49565b9250827fffffffffffffffffffffffffffffffffffffffffffffffffffffffffffffffff03821115614169576141686140bb565b5b828201905092915050565b7f4552433732313a20617070726f766520746f2063616c6c657200000000000000600082015250565b60006141aa601983612d79565b91506141b582614174565b602082019050919050565b600060208201905081810360008301526141d98161419d565b9050919050565b7f4552433732313a207472616e7366657220746f206e6f6e20455243373231526560008201527f63656976657220696d706c656d656e7465720000000000000000000000000000602082015250565b600061423c603283612d79565b9150614247826141e0565b604082019050919050565b6000602082019050818103600083015261426b8161422f565b9050919050565b7f45524337323155524953746f726167653a2055524920736574206f66206e6f6e60008201527f6578697374656e7420746f6b656e000000000000000000000000000000000000602082015250565b60006142ce602e83612d79565b91506142d982614272565b604082019050919050565b600060208201905081810360008301526142fd816142c1565b9050919050565b600081519050919050565b600061431a82614304565b6143248185613c87565b9350614334818560208601612d8a565b61433d81612dbd565b840191505092915050565b600060808201905061435d6000830187612e56565b61436a6020830186612e56565b6143776040830185612f40565b8181036060830152614389818461430f565b905095945050505050565b6000815190506143a381612cdf565b92915050565b6000602082840312156143bf576143be612ae1565b5b60006143cd84828501614394565b91505092915050565b60006143e182612b49565b91507fffffffffffffffffffffffffffffffffffffffffffffffffffffffffffffffff8203614413576144126140bb565b5b600182019050919050565b7f4e487b7100000000000000000000000000000000000000000000000000000000600052601260045260246000fd5b600061445882612b49565b915061446383612b49565b9250826144735761447261441e565b5b828204905092915050565b600061448982612b49565b915061449483612b49565b9250826144a4576144a361441e565b5b828206905092915050565b7f4e487b7100000000000000000000000000000000000000000000000000000000600052603260045260246000fd5b7f4552433732313a206d696e7420746f20746865207a65726f2061646472657373600082015250565b6000614514602083612d79565b915061451f826144de565b602082019050919050565b6000602082019050818103600083015261454381614507565b9050919050565b7f4552433732313a20746f6b656e20616c7265616479206d696e74656400000000600082015250565b6000614580601c83612d79565b915061458b8261454a565b602082019050919050565b600060208201905081810360008301526145af81614573565b905091905056fea26469706673582212200972fa0aaa5799207b0e692706912d82350248004550b84977dfbd7522fa80eb64736f6c634300080f0033",
  "linkReferences": {},
  "deployedLinkReferences": {}
}