{
  "_format": "hh-sol-artifact-1",
  "contractName": "PaymentGatewayGaslessContract",
  "sourceName": "src/blockchain/hardhat/contracts/PaymentGatewayGaslessContract.sol",
  "abi": [
    {
      "inputs": [
        {
          "internalType": "contract MinimalForwarder",
          "name": "forwarder",
          "type": "address"
        },
        {
          "internalType": "address",
          "name": "_cycliContract",
          "type": "address"
        }
      ],
      "stateMutability": "nonpayable",
      "type": "constructor"
    },
    {
      "anonymous": false,
      "inputs": [
        {
          "indexed": true,
          "internalType": "bytes32",
          "name": "id",
          "type": "bytes32"
        }
      ],
      "name": "ChainlinkCancelled",
      "type": "event"
    },
    {
      "anonymous": false,
      "inputs": [
        {
          "indexed": true,
          "internalType": "bytes32",
          "name": "id",
          "type": "bytes32"
        }
      ],
      "name": "ChainlinkFulfilled",
      "type": "event"
    },
    {
      "anonymous": false,
      "inputs": [
        {
          "indexed": true,
          "internalType": "bytes32",
          "name": "id",
          "type": "bytes32"
        }
      ],
      "name": "ChainlinkRequested",
      "type": "event"
    },
    {
      "anonymous": false,
      "inputs": [
        {
          "indexed": true,
          "internalType": "address",
          "name": "from",
          "type": "address"
        },
        {
          "indexed": true,
          "internalType": "address",
          "name": "to",
          "type": "address"
        }
      ],
      "name": "OwnershipTransferRequested",
      "type": "event"
    },
    {
      "anonymous": false,
      "inputs": [
        {
          "indexed": true,
          "internalType": "address",
          "name": "from",
          "type": "address"
        },
        {
          "indexed": true,
          "internalType": "address",
          "name": "to",
          "type": "address"
        }
      ],
      "name": "OwnershipTransferred",
      "type": "event"
    },
    {
      "anonymous": false,
      "inputs": [
        {
          "indexed": true,
          "internalType": "bytes32",
          "name": "requestId",
          "type": "bytes32"
        },
        {
          "indexed": true,
          "internalType": "string",
          "name": "response",
          "type": "string"
        }
      ],
      "name": "RequestForInfoFulfilled",
      "type": "event"
    },
    {
      "inputs": [],
      "name": "acceptOwnership",
      "outputs": [],
      "stateMutability": "nonpayable",
      "type": "function"
    },
    {
      "inputs": [],
      "name": "account",
      "outputs": [
        {
          "internalType": "address",
          "name": "",
          "type": "address"
        }
      ],
      "stateMutability": "view",
      "type": "function"
    },
    {
      "inputs": [],
      "name": "amount",
      "outputs": [
        {
          "internalType": "uint256",
          "name": "",
          "type": "uint256"
        }
      ],
      "stateMutability": "view",
      "type": "function"
    },
    {
      "inputs": [
        {
          "internalType": "bytes32",
          "name": "_requestId",
          "type": "bytes32"
        },
        {
          "internalType": "uint256",
          "name": "_payment",
          "type": "uint256"
        },
        {
          "internalType": "bytes4",
          "name": "_callbackFunctionId",
          "type": "bytes4"
        },
        {
          "internalType": "uint256",
          "name": "_expiration",
          "type": "uint256"
        }
      ],
      "name": "cancelRequest",
      "outputs": [],
      "stateMutability": "nonpayable",
      "type": "function"
    },
    {
      "inputs": [],
      "name": "contractBalances",
      "outputs": [
        {
          "internalType": "uint256",
          "name": "eth",
          "type": "uint256"
        },
        {
          "internalType": "uint256",
          "name": "link",
          "type": "uint256"
        }
      ],
      "stateMutability": "view",
      "type": "function"
    },
    {
      "inputs": [],
      "name": "erc777",
      "outputs": [
        {
          "internalType": "contract ERC777",
          "name": "",
          "type": "address"
        }
      ],
      "stateMutability": "view",
      "type": "function"
    },
    {
      "inputs": [
        {
          "internalType": "bytes32",
          "name": "_requestId",
          "type": "bytes32"
        },
        {
          "internalType": "string",
          "name": "_info",
          "type": "string"
        }
      ],
      "name": "fulfillRequestInfo",
      "outputs": [],
      "stateMutability": "nonpayable",
      "type": "function"
    },
    {
      "inputs": [],
      "name": "getChainlinkToken",
      "outputs": [
        {
          "internalType": "address",
          "name": "",
          "type": "address"
        }
      ],
      "stateMutability": "view",
      "type": "function"
    },
    {
      "inputs": [
        {
          "internalType": "address",
          "name": "forwarder",
          "type": "address"
        }
      ],
      "name": "isTrustedForwarder",
      "outputs": [
        {
          "internalType": "bool",
          "name": "",
          "type": "bool"
        }
      ],
      "stateMutability": "view",
      "type": "function"
    },
    {
      "inputs": [],
      "name": "lastRetrievedInfo",
      "outputs": [
        {
          "internalType": "string",
          "name": "",
          "type": "string"
        }
      ],
      "stateMutability": "view",
      "type": "function"
    },
    {
      "inputs": [],
      "name": "owner",
      "outputs": [
        {
          "internalType": "address",
          "name": "",
          "type": "address"
        }
      ],
      "stateMutability": "view",
      "type": "function"
    },
    {
      "inputs": [
        {
          "internalType": "address",
          "name": "_oracle",
          "type": "address"
        },
        {
          "internalType": "string",
          "name": "_jobId",
          "type": "string"
        },
        {
          "internalType": "string",
          "name": "email",
          "type": "string"
        },
        {
          "internalType": "uint256",
          "name": "value",
          "type": "uint256"
        },
        {
          "internalType": "string",
          "name": "valor",
          "type": "string"
        }
      ],
      "name": "requestPayOut",
      "outputs": [],
      "stateMutability": "nonpayable",
      "type": "function"
    },
    {
      "inputs": [
        {
          "internalType": "address",
          "name": "_operator",
          "type": "address"
        },
        {
          "internalType": "address",
          "name": "_from",
          "type": "address"
        },
        {
          "internalType": "address",
          "name": "_to",
          "type": "address"
        },
        {
          "internalType": "uint256",
          "name": "_amount",
          "type": "uint256"
        },
        {
          "internalType": "bytes",
          "name": "_userData",
          "type": "bytes"
        },
        {
          "internalType": "bytes",
          "name": "_operatorData",
          "type": "bytes"
        }
      ],
      "name": "tokensReceived",
      "outputs": [],
      "stateMutability": "nonpayable",
      "type": "function"
    },
    {
      "inputs": [
        {
          "internalType": "address",
          "name": "to",
          "type": "address"
        }
      ],
      "name": "transferOwnership",
      "outputs": [],
      "stateMutability": "nonpayable",
      "type": "function"
    },
    {
      "inputs": [],
      "name": "withdrawBalance",
      "outputs": [],
      "stateMutability": "nonpayable",
      "type": "function"
    },
    {
      "inputs": [],
      "name": "withdrawLink",
      "outputs": [],
      "stateMutability": "nonpayable",
      "type": "function"
    },
    {
      "inputs": [],
      "name": "withdrawTokens",
      "outputs": [],
      "stateMutability": "nonpayable",
      "type": "function"
    }
  ],
  "bytecode": "0x60e060405260016005553480156200001657600080fd5b50604051620034a6380380620034a683398181016040528101906200003c919062000516565b3380600083858073ffffffffffffffffffffffffffffffffffffffff1660808173ffffffffffffffffffffffffffffffffffffffff168152505050731820a4b7618bde71dce8cdc73aab6c95905fad2473ffffffffffffffffffffffffffffffffffffffff166329965a1d307fb281fc8c12954d22544db45de3159a39272895b169a852b314f9cc762e44c53b306040518463ffffffff1660e01b8152600401620000ea9392919062000589565b600060405180830381600087803b1580156200010557600080fd5b505af11580156200011a573d6000803e3d6000fd5b505050508073ffffffffffffffffffffffffffffffffffffffff1660a08173ffffffffffffffffffffffffffffffffffffffff16815250503373ffffffffffffffffffffffffffffffffffffffff1660c08173ffffffffffffffffffffffffffffffffffffffff168152505050600073ffffffffffffffffffffffffffffffffffffffff168273ffffffffffffffffffffffffffffffffffffffff1603620001f9576040517f08c379a0000000000000000000000000000000000000000000000000000000008152600401620001f09062000627565b60405180910390fd5b81600760006101000a81548173ffffffffffffffffffffffffffffffffffffffff021916908373ffffffffffffffffffffffffffffffffffffffff160217905550600073ffffffffffffffffffffffffffffffffffffffff168173ffffffffffffffffffffffffffffffffffffffff161462000281576200028081620002f260201b60201c565b5b505050620002a973326c977e6efc84e512bb9c30f76e30c160ed06fb6200042360201b60201c565b80600960006101000a81548173ffffffffffffffffffffffffffffffffffffffff021916908373ffffffffffffffffffffffffffffffffffffffff1602179055505050620006bb565b3373ffffffffffffffffffffffffffffffffffffffff168173ffffffffffffffffffffffffffffffffffffffff160362000363576040517f08c379a00000000000000000000000000000000000000000000000000000000081526004016200035a9062000699565b60405180910390fd5b80600860006101000a81548173ffffffffffffffffffffffffffffffffffffffff021916908373ffffffffffffffffffffffffffffffffffffffff1602179055508073ffffffffffffffffffffffffffffffffffffffff16600760009054906101000a900473ffffffffffffffffffffffffffffffffffffffff1673ffffffffffffffffffffffffffffffffffffffff167fed8889f560326eb138920d842192f0eb3dd22b4f139c87a2c57538e05bae127860405160405180910390a350565b80600360006101000a81548173ffffffffffffffffffffffffffffffffffffffff021916908373ffffffffffffffffffffffffffffffffffffffff16021790555050565b600080fd5b600073ffffffffffffffffffffffffffffffffffffffff82169050919050565b600062000499826200046c565b9050919050565b6000620004ad826200048c565b9050919050565b620004bf81620004a0565b8114620004cb57600080fd5b50565b600081519050620004df81620004b4565b92915050565b620004f0816200048c565b8114620004fc57600080fd5b50565b6000815190506200051081620004e5565b92915050565b6000806040838503121562000530576200052f62000467565b5b60006200054085828601620004ce565b92505060206200055385828601620004ff565b9150509250929050565b62000568816200048c565b82525050565b6000819050919050565b62000583816200056e565b82525050565b6000606082019050620005a060008301866200055d565b620005af602083018562000578565b620005be60408301846200055d565b949350505050565b600082825260208201905092915050565b7f43616e6e6f7420736574206f776e657220746f207a65726f0000000000000000600082015250565b60006200060f601883620005c6565b91506200061c82620005d7565b602082019050919050565b60006020820190508181036000830152620006428162000600565b9050919050565b7f43616e6e6f74207472616e7366657220746f2073656c66000000000000000000600082015250565b600062000681601783620005c6565b91506200068e8262000649565b602082019050919050565b60006020820190508181036000830152620006b48162000672565b9050919050565b60805160a05160c051612dad620006f960003960006103e401526000818161079101528181610c6e0152610d820152600061038e0152612dad6000f3fe608060405234801561001057600080fd5b506004361061010a5760003560e01c80638d8f2adb116100a257806399fbe43e1161007157806399fbe43e146102365780639e8e4d1d14610252578063aa8c217c14610270578063ec65d0f81461028e578063f2fde38b146102aa5761010a565b80638d8f2adb146101e65780638da5cb5b146101f05780638dc654a21461020e57806392bb9e18146102185761010a565b80635dab2420116100de5780635dab2420146101985780635fd8c710146101b65780637642d375146101c057806379ba5097146101dc5761010a565b806223de291461010f578063165d35e11461012b5780632163885a14610149578063572b6c0514610168575b600080fd5b61012960048036038101906101249190611a25565b6102c6565b005b6101336102e8565b6040516101409190611b03565b60405180910390f35b6101516102f7565b60405161015f929190611b2d565b60405180910390f35b610182600480360381019061017d9190611b56565b61038a565b60405161018f9190611b9e565b60405180910390f35b6101a06103e2565b6040516101ad9190611b03565b60405180910390f35b6101be610406565b005b6101da60048036038101906101d59190611d30565b610457565b005b6101e46105b4565b005b6101ee61074b565b005b6101f8610829565b6040516102059190611b03565b60405180910390f35b610216610853565b005b6102206109a0565b60405161022d9190611e14565b60405180910390f35b610250600480360381019061024b9190611e36565b610a2e565b005b61025a610c6c565b6040516102679190611f64565b60405180910390f35b610278610c90565b6040516102859190611f7f565b60405180910390f35b6102a860048036038101906102a39190611ff2565b610c96565b005b6102c460048036038101906102bf9190611b56565b610cb0565b005b846000808282546102d79190612088565b925050819055505050505050505050565b60006102f2610cc4565b905090565b6000804791506000610307610cc4565b90508073ffffffffffffffffffffffffffffffffffffffff166370a08231306040518263ffffffff1660e01b81526004016103429190611b03565b602060405180830381865afa15801561035f573d6000803e3d6000fd5b505050506040513d601f19601f8201168201806040525081019061038391906120f3565b9150509091565b60007f000000000000000000000000000000000000000000000000000000000000000073ffffffffffffffffffffffffffffffffffffffff168273ffffffffffffffffffffffffffffffffffffffff16149050919050565b7f000000000000000000000000000000000000000000000000000000000000000081565b61040e610cee565b3373ffffffffffffffffffffffffffffffffffffffff166108fc479081150290604051600060405180830381858888f19350505050158015610454573d6000803e3d6000fd5b50565b816006600082815260200190815260200160002060009054906101000a900473ffffffffffffffffffffffffffffffffffffffff1673ffffffffffffffffffffffffffffffffffffffff163373ffffffffffffffffffffffffffffffffffffffff16146104f9576040517f08c379a00000000000000000000000000000000000000000000000000000000081526004016104f090612192565b60405180910390fd5b6006600082815260200190815260200160002060006101000a81549073ffffffffffffffffffffffffffffffffffffffff0219169055807f7cc135e0cebb02c3480ae5d74d377283180a2601f8f644edf7987b009316c63a60405160405180910390a28160405161056a91906121ee565b6040518091039020837f05d0ea3a4c0dc17f032ba24393c968625c8648a6d6afc1053e8765b0c9519d5a60405160405180910390a381600a90816105ae9190612407565b50505050565b600860009054906101000a900473ffffffffffffffffffffffffffffffffffffffff1673ffffffffffffffffffffffffffffffffffffffff163373ffffffffffffffffffffffffffffffffffffffff1614610644576040517f08c379a000000000000000000000000000000000000000000000000000000000815260040161063b90612525565b60405180910390fd5b6000600760009054906101000a900473ffffffffffffffffffffffffffffffffffffffff16905033600760006101000a81548173ffffffffffffffffffffffffffffffffffffffff021916908373ffffffffffffffffffffffffffffffffffffffff1602179055506000600860006101000a81548173ffffffffffffffffffffffffffffffffffffffff021916908373ffffffffffffffffffffffffffffffffffffffff1602179055503373ffffffffffffffffffffffffffffffffffffffff168173ffffffffffffffffffffffffffffffffffffffff167f8be0079c531659141344cd1fd0a4f28419497f9722a3daafe3b4186f6b6457e060405160405180910390a350565b600080541161078f576040517f08c379a000000000000000000000000000000000000000000000000000000000815260040161078690612591565b60405180910390fd5b7f000000000000000000000000000000000000000000000000000000000000000073ffffffffffffffffffffffffffffffffffffffff166362ad1b8330336000546040518463ffffffff1660e01b81526004016107ee939291906125e8565b600060405180830381600087803b15801561080857600080fd5b505af115801561081c573d6000803e3d6000fd5b5050505060008081905550565b6000600760009054906101000a900473ffffffffffffffffffffffffffffffffffffffff16905090565b61085b610cee565b6000610865610cc4565b90508073ffffffffffffffffffffffffffffffffffffffff1663a9059cbb338373ffffffffffffffffffffffffffffffffffffffff166370a08231306040518263ffffffff1660e01b81526004016108bd9190611b03565b602060405180830381865afa1580156108da573d6000803e3d6000fd5b505050506040513d601f19601f820116820180604052508101906108fe91906120f3565b6040518363ffffffff1660e01b815260040161091b929190612645565b6020604051808303816000875af115801561093a573d6000803e3d6000fd5b505050506040513d601f19601f8201168201806040525081019061095e919061269a565b61099d576040517f08c379a000000000000000000000000000000000000000000000000000000000815260040161099490612713565b60405180910390fd5b50565b600a80546109ad90612234565b80601f01602080910402602001604051908101604052809291908181526020018280546109d990612234565b8015610a265780601f106109fb57610100808354040283529160200191610a26565b820191906000526020600020905b815481529060010190602001808311610a0957829003601f168201915b505050505081565b81600960009054906101000a900473ffffffffffffffffffffffffffffffffffffffff1673ffffffffffffffffffffffffffffffffffffffff1663f38e266a336040518263ffffffff1660e01b8152600401610a8a9190611b03565b602060405180830381865afa158015610aa7573d6000803e3d6000fd5b505050506040513d601f19601f82011682018060405250810190610acb91906120f3565b11610b0b576040517f08c379a0000000000000000000000000000000000000000000000000000000008152600401610b029061277f565b60405180910390fd5b610b1482610d80565b6000610b2f610b2286610e2a565b637642d37560e01b610e53565b9050610b7b6040518060400160405280600581526020017f656d61696c0000000000000000000000000000000000000000000000000000008152508583610e839092919063ffffffff16565b610bc56040518060400160405280600581526020017f76616c75650000000000000000000000000000000000000000000000000000008152508383610e839092919063ffffffff16565b610c446040518060400160405280600981526020017f686173685472616e7800000000000000000000000000000000000000000000008152506040518060400160405280600c81526020017f706f72496d706c656e746172000000000000000000000000000000000000000081525083610e839092919063ffffffff16565b610c638682670de0b6b3a76400006001610c5e919061279f565b610eb6565b50505050505050565b7f000000000000000000000000000000000000000000000000000000000000000081565b60005481565b610c9e610cee565b610caa84848484610f80565b50505050565b610cb8610cee565b610cc181611093565b50565b6000600360009054906101000a900473ffffffffffffffffffffffffffffffffffffffff16905090565b600760009054906101000a900473ffffffffffffffffffffffffffffffffffffffff1673ffffffffffffffffffffffffffffffffffffffff163373ffffffffffffffffffffffffffffffffffffffff1614610d7e576040517f08c379a0000000000000000000000000000000000000000000000000000000008152600401610d7590612845565b60405180910390fd5b565b7f000000000000000000000000000000000000000000000000000000000000000073ffffffffffffffffffffffffffffffffffffffff166362ad1b833330846040518463ffffffff1660e01b8152600401610ddd939291906125e8565b600060405180830381600087803b158015610df757600080fd5b505af1158015610e0b573d6000803e3d6000fd5b5050505080600080828254610e209190612088565b9250508190555050565b6000808290506000815103610e45576000801b915050610e4e565b60208301519150505b919050565b610e5b611891565b610e63611891565b610e7a843085846111c1909392919063ffffffff16565b91505092915050565b610e9a82846080015161127190919063ffffffff16565b610eb181846080015161127190919063ffffffff16565b505050565b6000806005549050600181610ecb9190612088565b6005819055506000633c6d41b960e01b600080876000015188604001518660028b6080015160000151604051602401610f0a97969594939291906128c7565b604051602081830303815290604052907bffffffffffffffffffffffffffffffffffffffffffffffffffffffff19166020820180517bffffffffffffffffffffffffffffffffffffffffffffffffffffffff83818316178352505050509050610f7586838684611296565b925050509392505050565b60006006600086815260200190815260200160002060009054906101000a900473ffffffffffffffffffffffffffffffffffffffff1690506006600086815260200190815260200160002060006101000a81549073ffffffffffffffffffffffffffffffffffffffff0219169055847fe1fe3afa0f7f761ff0a8b89086790efd5140d2907ebd5b7ff6bfcb5e075fd4c560405160405180910390a28073ffffffffffffffffffffffffffffffffffffffff16636ee4d553868686866040518563ffffffff1660e01b815260040161105a949392919061293d565b600060405180830381600087803b15801561107457600080fd5b505af1158015611088573d6000803e3d6000fd5b505050505050505050565b3373ffffffffffffffffffffffffffffffffffffffff168173ffffffffffffffffffffffffffffffffffffffff1603611101576040517f08c379a00000000000000000000000000000000000000000000000000000000081526004016110f8906129ce565b60405180910390fd5b80600860006101000a81548173ffffffffffffffffffffffffffffffffffffffff021916908373ffffffffffffffffffffffffffffffffffffffff1602179055508073ffffffffffffffffffffffffffffffffffffffff16600760009054906101000a900473ffffffffffffffffffffffffffffffffffffffff1673ffffffffffffffffffffffffffffffffffffffff167fed8889f560326eb138920d842192f0eb3dd22b4f139c87a2c57538e05bae127860405160405180910390a350565b6111c9611891565b6111d9856080015161010061142b565b508385600001818152505082856020019073ffffffffffffffffffffffffffffffffffffffff16908173ffffffffffffffffffffffffffffffffffffffff16815250508185604001907bffffffffffffffffffffffffffffffffffffffffffffffffffffffff191690817bffffffffffffffffffffffffffffffffffffffffffffffffffffffff191681525050849050949350505050565b61127e8260038351611495565b611291818361161a90919063ffffffff16565b505050565b600030846040516020016112ab929190612a69565b604051602081830303815290604052805190602001209050846006600083815260200190815260200160002060006101000a81548173ffffffffffffffffffffffffffffffffffffffff021916908373ffffffffffffffffffffffffffffffffffffffff160217905550807fb5e6e01e79f91267dc17b4e6314d5d4d03593d2ceee0fbb452b750bd70ea5af960405160405180910390a2600360009054906101000a900473ffffffffffffffffffffffffffffffffffffffff1673ffffffffffffffffffffffffffffffffffffffff16634000aea08685856040518463ffffffff1660e01b81526004016113a193929190612a95565b6020604051808303816000875af11580156113c0573d6000803e3d6000fd5b505050506040513d601f19601f820116820180604052508101906113e4919061269a565b611423576040517f08c379a000000000000000000000000000000000000000000000000000000000815260040161141a90612b45565b60405180910390fd5b949350505050565b6114336118fe565b60006020836114429190612b94565b1461146e576020826114549190612b94565b60206114609190612bc5565b8261146b9190612088565b91505b81836020018181525050604051808452600081528281016020016040525082905092915050565b60178167ffffffffffffffff16116114cc576114c68160058460ff16901b60ff16178461163c90919063ffffffff16565b50611615565b60ff8167ffffffffffffffff1611611522576114fb601860058460ff16901b178461163c90919063ffffffff16565b5061151c8167ffffffffffffffff1660018561165c9092919063ffffffff16565b50611614565b61ffff8167ffffffffffffffff161161157957611552601960058460ff16901b178461163c90919063ffffffff16565b506115738167ffffffffffffffff1660028561165c9092919063ffffffff16565b50611613565b63ffffffff8167ffffffffffffffff16116115d2576115ab601a60058460ff16901b178461163c90919063ffffffff16565b506115cc8167ffffffffffffffff1660048561165c9092919063ffffffff16565b50611612565b6115ef601b60058460ff16901b178461163c90919063ffffffff16565b506116108167ffffffffffffffff1660088561165c9092919063ffffffff16565b505b5b5b5b505050565b6116226118fe565b6116348384600001515184855161167e565b905092915050565b6116446118fe565b611654838460000151518461176d565b905092915050565b6116646118fe565b6116758485600001515185856117c3565b90509392505050565b6116866118fe565b825182111561169457600080fd5b846020015182856116a59190612088565b11156116da576116d98560026116ca886020015188876116c59190612088565b611851565b6116d4919061279f565b61186d565b5b6000808651805187602083010193508088870111156116f95787860182525b60208701925050505b60208410611740578051825260208261171b9190612088565b915060208161172a9190612088565b90506020846117399190612bc5565b9350611702565b60006001856020036101000a03905080198251168184511681811785525050508692505050949350505050565b6117756118fe565b8360200151831061179b5761179a8460028660200151611795919061279f565b61186d565b5b835180516020858301018481538186036117b6576001820183525b5050508390509392505050565b6117cb6118fe565b846020015184836117dc9190612088565b11156118045761180385600286856117f49190612088565b6117fe919061279f565b61186d565b5b60006001836101006118169190612d2c565b6118209190612bc5565b905085518386820101858319825116178152815185880111156118435784870182525b505085915050949350505050565b60008183111561186357829050611867565b8190505b92915050565b600082600001519050611880838361142b565b5061188b838261161a565b50505050565b6040518060a0016040528060008019168152602001600073ffffffffffffffffffffffffffffffffffffffff16815260200160007bffffffffffffffffffffffffffffffffffffffffffffffffffffffff19168152602001600081526020016118f86118fe565b81525090565b604051806040016040528060608152602001600081525090565b6000604051905090565b600080fd5b600080fd5b600073ffffffffffffffffffffffffffffffffffffffff82169050919050565b60006119578261192c565b9050919050565b6119678161194c565b811461197257600080fd5b50565b6000813590506119848161195e565b92915050565b6000819050919050565b61199d8161198a565b81146119a857600080fd5b50565b6000813590506119ba81611994565b92915050565b600080fd5b600080fd5b600080fd5b60008083601f8401126119e5576119e46119c0565b5b8235905067ffffffffffffffff811115611a0257611a016119c5565b5b602083019150836001820283011115611a1e57611a1d6119ca565b5b9250929050565b60008060008060008060008060c0898b031215611a4557611a44611922565b5b6000611a538b828c01611975565b9850506020611a648b828c01611975565b9750506040611a758b828c01611975565b9650506060611a868b828c016119ab565b955050608089013567ffffffffffffffff811115611aa757611aa6611927565b5b611ab38b828c016119cf565b945094505060a089013567ffffffffffffffff811115611ad657611ad5611927565b5b611ae28b828c016119cf565b92509250509295985092959890939650565b611afd8161194c565b82525050565b6000602082019050611b186000830184611af4565b92915050565b611b278161198a565b82525050565b6000604082019050611b426000830185611b1e565b611b4f6020830184611b1e565b9392505050565b600060208284031215611b6c57611b6b611922565b5b6000611b7a84828501611975565b91505092915050565b60008115159050919050565b611b9881611b83565b82525050565b6000602082019050611bb36000830184611b8f565b92915050565b6000819050919050565b611bcc81611bb9565b8114611bd757600080fd5b50565b600081359050611be981611bc3565b92915050565b600080fd5b6000601f19601f8301169050919050565b7f4e487b7100000000000000000000000000000000000000000000000000000000600052604160045260246000fd5b611c3d82611bf4565b810181811067ffffffffffffffff82111715611c5c57611c5b611c05565b5b80604052505050565b6000611c6f611918565b9050611c7b8282611c34565b919050565b600067ffffffffffffffff821115611c9b57611c9a611c05565b5b611ca482611bf4565b9050602081019050919050565b82818337600083830152505050565b6000611cd3611cce84611c80565b611c65565b905082815260208101848484011115611cef57611cee611bef565b5b611cfa848285611cb1565b509392505050565b600082601f830112611d1757611d166119c0565b5b8135611d27848260208601611cc0565b91505092915050565b60008060408385031215611d4757611d46611922565b5b6000611d5585828601611bda565b925050602083013567ffffffffffffffff811115611d7657611d75611927565b5b611d8285828601611d02565b9150509250929050565b600081519050919050565b600082825260208201905092915050565b60005b83811015611dc6578082015181840152602081019050611dab565b83811115611dd5576000848401525b50505050565b6000611de682611d8c565b611df08185611d97565b9350611e00818560208601611da8565b611e0981611bf4565b840191505092915050565b60006020820190508181036000830152611e2e8184611ddb565b905092915050565b600080600080600060a08688031215611e5257611e51611922565b5b6000611e6088828901611975565b955050602086013567ffffffffffffffff811115611e8157611e80611927565b5b611e8d88828901611d02565b945050604086013567ffffffffffffffff811115611eae57611ead611927565b5b611eba88828901611d02565b9350506060611ecb888289016119ab565b925050608086013567ffffffffffffffff811115611eec57611eeb611927565b5b611ef888828901611d02565b9150509295509295909350565b6000819050919050565b6000611f2a611f25611f208461192c565b611f05565b61192c565b9050919050565b6000611f3c82611f0f565b9050919050565b6000611f4e82611f31565b9050919050565b611f5e81611f43565b82525050565b6000602082019050611f796000830184611f55565b92915050565b6000602082019050611f946000830184611b1e565b92915050565b60007fffffffff0000000000000000000000000000000000000000000000000000000082169050919050565b611fcf81611f9a565b8114611fda57600080fd5b50565b600081359050611fec81611fc6565b92915050565b6000806000806080858703121561200c5761200b611922565b5b600061201a87828801611bda565b945050602061202b878288016119ab565b935050604061203c87828801611fdd565b925050606061204d878288016119ab565b91505092959194509250565b7f4e487b7100000000000000000000000000000000000000000000000000000000600052601160045260246000fd5b60006120938261198a565b915061209e8361198a565b9250827fffffffffffffffffffffffffffffffffffffffffffffffffffffffffffffffff038211156120d3576120d2612059565b5b828201905092915050565b6000815190506120ed81611994565b92915050565b60006020828403121561210957612108611922565b5b6000612117848285016120de565b91505092915050565b7f536f75726365206d75737420626520746865206f7261636c65206f662074686560008201527f2072657175657374000000000000000000000000000000000000000000000000602082015250565b600061217c602883611d97565b915061218782612120565b604082019050919050565b600060208201905081810360008301526121ab8161216f565b9050919050565b600081905092915050565b60006121c882611d8c565b6121d281856121b2565b93506121e2818560208601611da8565b80840191505092915050565b60006121fa82846121bd565b915081905092915050565b7f4e487b7100000000000000000000000000000000000000000000000000000000600052602260045260246000fd5b6000600282049050600182168061224c57607f821691505b60208210810361225f5761225e612205565b5b50919050565b60008190508160005260206000209050919050565b60006020601f8301049050919050565b600082821b905092915050565b6000600883026122c77fffffffffffffffffffffffffffffffffffffffffffffffffffffffffffffffff8261228a565b6122d1868361228a565b95508019841693508086168417925050509392505050565b60006123046122ff6122fa8461198a565b611f05565b61198a565b9050919050565b6000819050919050565b61231e836122e9565b61233261232a8261230b565b848454612297565b825550505050565b600090565b61234761233a565b612352818484612315565b505050565b5b818110156123765761236b60008261233f565b600181019050612358565b5050565b601f8211156123bb5761238c81612265565b6123958461227a565b810160208510156123a4578190505b6123b86123b08561227a565b830182612357565b50505b505050565b600082821c905092915050565b60006123de600019846008026123c0565b1980831691505092915050565b60006123f783836123cd565b9150826002028217905092915050565b61241082611d8c565b67ffffffffffffffff81111561242957612428611c05565b5b6124338254612234565b61243e82828561237a565b600060209050601f831160018114612471576000841561245f578287015190505b61246985826123eb565b8655506124d1565b601f19841661247f86612265565b60005b828110156124a757848901518255600182019150602085019450602081019050612482565b868310156124c457848901516124c0601f8916826123cd565b8355505b6001600288020188555050505b505050505050565b7f4d7573742062652070726f706f736564206f776e657200000000000000000000600082015250565b600061250f601683611d97565b915061251a826124d9565b602082019050919050565b6000602082019050818103600083015261253e81612502565b9050919050565b7f546865726520646f6e277420626520746f6b656e730000000000000000000000600082015250565b600061257b601583611d97565b915061258682612545565b602082019050919050565b600060208201905081810360008301526125aa8161256e565b9050919050565b600082825260208201905092915050565b50565b60006125d26000836125b1565b91506125dd826125c2565b600082019050919050565b600060a0820190506125fd6000830186611af4565b61260a6020830185611af4565b6126176040830184611b1e565b8181036060830152612628816125c5565b9050818103608083015261263b816125c5565b9050949350505050565b600060408201905061265a6000830185611af4565b6126676020830184611b1e565b9392505050565b61267781611b83565b811461268257600080fd5b50565b6000815190506126948161266e565b92915050565b6000602082840312156126b0576126af611922565b5b60006126be84828501612685565b91505092915050565b7f556e61626c6520746f207472616e73666572204c696e6b000000000000000000600082015250565b60006126fd601783611d97565b9150612708826126c7565b602082019050919050565b6000602082019050818103600083015261272c816126f0565b9050919050565b7f496e73756666696369656e7420746f6b656e7300000000000000000000000000600082015250565b6000612769601383611d97565b915061277482612733565b602082019050919050565b600060208201905081810360008301526127988161275c565b9050919050565b60006127aa8261198a565b91506127b58361198a565b9250817fffffffffffffffffffffffffffffffffffffffffffffffffffffffffffffffff04831182151516156127ee576127ed612059565b5b828202905092915050565b7f4f6e6c792063616c6c61626c65206279206f776e657200000000000000000000600082015250565b600061282f601683611d97565b915061283a826127f9565b602082019050919050565b6000602082019050818103600083015261285e81612822565b9050919050565b61286e81611bb9565b82525050565b61287d81611f9a565b82525050565b600081519050919050565b600061289982612883565b6128a381856125b1565b93506128b3818560208601611da8565b6128bc81611bf4565b840191505092915050565b600060e0820190506128dc600083018a611af4565b6128e96020830189611b1e565b6128f66040830188612865565b6129036060830187612874565b6129106080830186611b1e565b61291d60a0830185611b1e565b81810360c083015261292f818461288e565b905098975050505050505050565b60006080820190506129526000830187612865565b61295f6020830186611b1e565b61296c6040830185612874565b6129796060830184611b1e565b95945050505050565b7f43616e6e6f74207472616e7366657220746f2073656c66000000000000000000600082015250565b60006129b8601783611d97565b91506129c382612982565b602082019050919050565b600060208201905081810360008301526129e7816129ab565b9050919050565b60006129f982611f31565b9050919050565b60008160601b9050919050565b6000612a1882612a00565b9050919050565b6000612a2a82612a0d565b9050919050565b612a42612a3d826129ee565b612a1f565b82525050565b6000819050919050565b612a63612a5e8261198a565b612a48565b82525050565b6000612a758285612a31565b601482019150612a858284612a52565b6020820191508190509392505050565b6000606082019050612aaa6000830186611af4565b612ab76020830185611b1e565b8181036040830152612ac9818461288e565b9050949350505050565b7f756e61626c6520746f207472616e73666572416e6443616c6c20746f206f726160008201527f636c650000000000000000000000000000000000000000000000000000000000602082015250565b6000612b2f602383611d97565b9150612b3a82612ad3565b604082019050919050565b60006020820190508181036000830152612b5e81612b22565b9050919050565b7f4e487b7100000000000000000000000000000000000000000000000000000000600052601260045260246000fd5b6000612b9f8261198a565b9150612baa8361198a565b925082612bba57612bb9612b65565b5b828206905092915050565b6000612bd08261198a565b9150612bdb8361198a565b925082821015612bee57612bed612059565b5b828203905092915050565b60008160011c9050919050565b6000808291508390505b6001851115612c5057808604811115612c2c57612c2b612059565b5b6001851615612c3b5780820291505b8081029050612c4985612bf9565b9450612c10565b94509492505050565b600082612c695760019050612d25565b81612c775760009050612d25565b8160018114612c8d5760028114612c9757612cc6565b6001915050612d25565b60ff841115612ca957612ca8612059565b5b8360020a915084821115612cc057612cbf612059565b5b50612d25565b5060208310610133831016604e8410600b8410161715612cfb5782820a905083811115612cf657612cf5612059565b5b612d25565b612d088484846001612c06565b92509050818404811115612d1f57612d1e612059565b5b81810290505b9392505050565b6000612d378261198a565b9150612d428361198a565b9250612d6f7fffffffffffffffffffffffffffffffffffffffffffffffffffffffffffffffff8484612c59565b90509291505056fea26469706673582212201c3d5c5f7bc95bef15948f5bef3ec0a800a7d8284ad87196970feb3237b11b8664736f6c634300080f0033",
  "linkReferences": {},
  "deployedLinkReferences": {}
}