{
  "_format": "hh-sol-artifact-1",
  "contractName": "CosmoContract",
  "sourceName": "src/blockchain/hardhat/contracts/CosmoContract.sol",
  "abi": [
    {
      "inputs": [],
      "stateMutability": "nonpayable",
      "type": "constructor"
    },
    {
      "anonymous": false,
      "inputs": [
        {
          "indexed": true,
          "internalType": "address",
          "name": "owner",
          "type": "address"
        },
        {
          "indexed": true,
          "internalType": "address",
          "name": "spender",
          "type": "address"
        },
        {
          "indexed": false,
          "internalType": "uint256",
          "name": "value",
          "type": "uint256"
        }
      ],
      "name": "Approval",
      "type": "event"
    },
    {
      "anonymous": false,
      "inputs": [
        {
          "indexed": true,
          "internalType": "address",
          "name": "operator",
          "type": "address"
        },
        {
          "indexed": true,
          "internalType": "address",
          "name": "tokenHolder",
          "type": "address"
        }
      ],
      "name": "AuthorizedOperator",
      "type": "event"
    },
    {
      "anonymous": false,
      "inputs": [
        {
          "indexed": true,
          "internalType": "address",
          "name": "operator",
          "type": "address"
        },
        {
          "indexed": true,
          "internalType": "address",
          "name": "from",
          "type": "address"
        },
        {
          "indexed": false,
          "internalType": "uint256",
          "name": "amount",
          "type": "uint256"
        },
        {
          "indexed": false,
          "internalType": "bytes",
          "name": "data",
          "type": "bytes"
        },
        {
          "indexed": false,
          "internalType": "bytes",
          "name": "operatorData",
          "type": "bytes"
        }
      ],
      "name": "Burned",
      "type": "event"
    },
    {
      "anonymous": false,
      "inputs": [
        {
          "indexed": true,
          "internalType": "address",
          "name": "operator",
          "type": "address"
        },
        {
          "indexed": true,
          "internalType": "address",
          "name": "to",
          "type": "address"
        },
        {
          "indexed": false,
          "internalType": "uint256",
          "name": "amount",
          "type": "uint256"
        },
        {
          "indexed": false,
          "internalType": "bytes",
          "name": "data",
          "type": "bytes"
        },
        {
          "indexed": false,
          "internalType": "bytes",
          "name": "operatorData",
          "type": "bytes"
        }
      ],
      "name": "Minted",
      "type": "event"
    },
    {
      "anonymous": false,
      "inputs": [
        {
          "indexed": true,
          "internalType": "address",
          "name": "previousOwner",
          "type": "address"
        },
        {
          "indexed": true,
          "internalType": "address",
          "name": "newOwner",
          "type": "address"
        }
      ],
      "name": "OwnershipTransferred",
      "type": "event"
    },
    {
      "anonymous": false,
      "inputs": [
        {
          "indexed": true,
          "internalType": "address",
          "name": "operator",
          "type": "address"
        },
        {
          "indexed": true,
          "internalType": "address",
          "name": "tokenHolder",
          "type": "address"
        }
      ],
      "name": "RevokedOperator",
      "type": "event"
    },
    {
      "anonymous": false,
      "inputs": [
        {
          "indexed": true,
          "internalType": "address",
          "name": "operator",
          "type": "address"
        },
        {
          "indexed": true,
          "internalType": "address",
          "name": "from",
          "type": "address"
        },
        {
          "indexed": true,
          "internalType": "address",
          "name": "to",
          "type": "address"
        },
        {
          "indexed": false,
          "internalType": "uint256",
          "name": "amount",
          "type": "uint256"
        },
        {
          "indexed": false,
          "internalType": "bytes",
          "name": "data",
          "type": "bytes"
        },
        {
          "indexed": false,
          "internalType": "bytes",
          "name": "operatorData",
          "type": "bytes"
        }
      ],
      "name": "Sent",
      "type": "event"
    },
    {
      "anonymous": false,
      "inputs": [
        {
          "indexed": true,
          "internalType": "address",
          "name": "from",
          "type": "address"
        },
        {
          "indexed": true,
          "internalType": "address",
          "name": "to",
          "type": "address"
        },
        {
          "indexed": false,
          "internalType": "uint256",
          "name": "value",
          "type": "uint256"
        }
      ],
      "name": "Transfer",
      "type": "event"
    },
    {
      "inputs": [],
      "name": "AVAXtotal",
      "outputs": [
        {
          "internalType": "uint256",
          "name": "",
          "type": "uint256"
        }
      ],
      "stateMutability": "view",
      "type": "function"
    },
    {
      "inputs": [
        {
          "internalType": "address",
          "name": "holder",
          "type": "address"
        },
        {
          "internalType": "address",
          "name": "spender",
          "type": "address"
        }
      ],
      "name": "allowance",
      "outputs": [
        {
          "internalType": "uint256",
          "name": "",
          "type": "uint256"
        }
      ],
      "stateMutability": "view",
      "type": "function"
    },
    {
      "inputs": [
        {
          "internalType": "address",
          "name": "spender",
          "type": "address"
        },
        {
          "internalType": "uint256",
          "name": "value",
          "type": "uint256"
        }
      ],
      "name": "approve",
      "outputs": [
        {
          "internalType": "bool",
          "name": "",
          "type": "bool"
        }
      ],
      "stateMutability": "nonpayable",
      "type": "function"
    },
    {
      "inputs": [
        {
          "internalType": "address",
          "name": "operator",
          "type": "address"
        }
      ],
      "name": "authorizeOperator",
      "outputs": [],
      "stateMutability": "nonpayable",
      "type": "function"
    },
    {
      "inputs": [
        {
          "internalType": "address",
          "name": "tokenHolder",
          "type": "address"
        }
      ],
      "name": "balanceOf",
      "outputs": [
        {
          "internalType": "uint256",
          "name": "",
          "type": "uint256"
        }
      ],
      "stateMutability": "view",
      "type": "function"
    },
    {
      "inputs": [
        {
          "internalType": "uint256",
          "name": "amount",
          "type": "uint256"
        },
        {
          "internalType": "bytes",
          "name": "data",
          "type": "bytes"
        }
      ],
      "name": "burn",
      "outputs": [],
      "stateMutability": "nonpayable",
      "type": "function"
    },
    {
      "inputs": [
        {
          "internalType": "uint256",
          "name": "_value",
          "type": "uint256"
        }
      ],
      "name": "buyTokens",
      "outputs": [],
      "stateMutability": "payable",
      "type": "function"
    },
    {
      "inputs": [],
      "name": "decimals",
      "outputs": [
        {
          "internalType": "uint8",
          "name": "",
          "type": "uint8"
        }
      ],
      "stateMutability": "pure",
      "type": "function"
    },
    {
      "inputs": [],
      "name": "defaultOperators",
      "outputs": [
        {
          "internalType": "address[]",
          "name": "",
          "type": "address[]"
        }
      ],
      "stateMutability": "view",
      "type": "function"
    },
    {
      "inputs": [
        {
          "internalType": "address",
          "name": "_address",
          "type": "address"
        }
      ],
      "name": "getSupplyBalance",
      "outputs": [
        {
          "internalType": "uint256",
          "name": "",
          "type": "uint256"
        }
      ],
      "stateMutability": "view",
      "type": "function"
    },
    {
      "inputs": [],
      "name": "granularity",
      "outputs": [
        {
          "internalType": "uint256",
          "name": "",
          "type": "uint256"
        }
      ],
      "stateMutability": "view",
      "type": "function"
    },
    {
      "inputs": [
        {
          "internalType": "address",
          "name": "operator",
          "type": "address"
        },
        {
          "internalType": "address",
          "name": "tokenHolder",
          "type": "address"
        }
      ],
      "name": "isOperatorFor",
      "outputs": [
        {
          "internalType": "bool",
          "name": "",
          "type": "bool"
        }
      ],
      "stateMutability": "view",
      "type": "function"
    },
    {
      "inputs": [],
      "name": "name",
      "outputs": [
        {
          "internalType": "string",
          "name": "",
          "type": "string"
        }
      ],
      "stateMutability": "view",
      "type": "function"
    },
    {
      "inputs": [
        {
          "internalType": "address",
          "name": "account",
          "type": "address"
        },
        {
          "internalType": "uint256",
          "name": "amount",
          "type": "uint256"
        },
        {
          "internalType": "bytes",
          "name": "data",
          "type": "bytes"
        },
        {
          "internalType": "bytes",
          "name": "operatorData",
          "type": "bytes"
        }
      ],
      "name": "operatorBurn",
      "outputs": [],
      "stateMutability": "nonpayable",
      "type": "function"
    },
    {
      "inputs": [
        {
          "internalType": "address",
          "name": "sender",
          "type": "address"
        },
        {
          "internalType": "address",
          "name": "recipient",
          "type": "address"
        },
        {
          "internalType": "uint256",
          "name": "amount",
          "type": "uint256"
        },
        {
          "internalType": "bytes",
          "name": "data",
          "type": "bytes"
        },
        {
          "internalType": "bytes",
          "name": "operatorData",
          "type": "bytes"
        }
      ],
      "name": "operatorSend",
      "outputs": [],
      "stateMutability": "nonpayable",
      "type": "function"
    },
    {
      "inputs": [],
      "name": "owner",
      "outputs": [
        {
          "internalType": "address",
          "name": "",
          "type": "address"
        }
      ],
      "stateMutability": "view",
      "type": "function"
    },
    {
      "inputs": [
        {
          "internalType": "address",
          "name": "",
          "type": "address"
        }
      ],
      "name": "ownerBalances",
      "outputs": [
        {
          "internalType": "address",
          "name": "",
          "type": "address"
        }
      ],
      "stateMutability": "view",
      "type": "function"
    },
    {
      "inputs": [],
      "name": "renounceOwnership",
      "outputs": [],
      "stateMutability": "nonpayable",
      "type": "function"
    },
    {
      "inputs": [
        {
          "internalType": "address",
          "name": "operator",
          "type": "address"
        }
      ],
      "name": "revokeOperator",
      "outputs": [],
      "stateMutability": "nonpayable",
      "type": "function"
    },
    {
      "inputs": [
        {
          "internalType": "address",
          "name": "_contract",
          "type": "address"
        },
        {
          "internalType": "uint256",
          "name": "_supply",
          "type": "uint256"
        }
      ],
      "name": "safeMint",
      "outputs": [],
      "stateMutability": "nonpayable",
      "type": "function"
    },
    {
      "inputs": [
        {
          "internalType": "address",
          "name": "recipient",
          "type": "address"
        },
        {
          "internalType": "uint256",
          "name": "amount",
          "type": "uint256"
        },
        {
          "internalType": "bytes",
          "name": "data",
          "type": "bytes"
        }
      ],
      "name": "send",
      "outputs": [],
      "stateMutability": "nonpayable",
      "type": "function"
    },
    {
      "inputs": [
        {
          "internalType": "address",
          "name": "_address",
          "type": "address"
        },
        {
          "internalType": "uint256",
          "name": "_amount",
          "type": "uint256"
        }
      ],
      "name": "substractCosmo",
      "outputs": [
        {
          "internalType": "bool",
          "name": "",
          "type": "bool"
        }
      ],
      "stateMutability": "nonpayable",
      "type": "function"
    },
    {
      "inputs": [
        {
          "internalType": "address",
          "name": "",
          "type": "address"
        }
      ],
      "name": "supplyCosmoBalances",
      "outputs": [
        {
          "internalType": "uint256",
          "name": "",
          "type": "uint256"
        }
      ],
      "stateMutability": "view",
      "type": "function"
    },
    {
      "inputs": [],
      "name": "symbol",
      "outputs": [
        {
          "internalType": "string",
          "name": "",
          "type": "string"
        }
      ],
      "stateMutability": "view",
      "type": "function"
    },
    {
      "inputs": [],
      "name": "totalSupply",
      "outputs": [
        {
          "internalType": "uint256",
          "name": "",
          "type": "uint256"
        }
      ],
      "stateMutability": "view",
      "type": "function"
    },
    {
      "inputs": [
        {
          "internalType": "address",
          "name": "recipient",
          "type": "address"
        },
        {
          "internalType": "uint256",
          "name": "amount",
          "type": "uint256"
        }
      ],
      "name": "transfer",
      "outputs": [
        {
          "internalType": "bool",
          "name": "",
          "type": "bool"
        }
      ],
      "stateMutability": "nonpayable",
      "type": "function"
    },
    {
      "inputs": [
        {
          "internalType": "address",
          "name": "holder",
          "type": "address"
        },
        {
          "internalType": "address",
          "name": "recipient",
          "type": "address"
        },
        {
          "internalType": "uint256",
          "name": "amount",
          "type": "uint256"
        }
      ],
      "name": "transferFrom",
      "outputs": [
        {
          "internalType": "bool",
          "name": "",
          "type": "bool"
        }
      ],
      "stateMutability": "nonpayable",
      "type": "function"
    },
    {
      "inputs": [
        {
          "internalType": "address",
          "name": "newOwner",
          "type": "address"
        }
      ],
      "name": "transferOwnership",
      "outputs": [],
      "stateMutability": "nonpayable",
      "type": "function"
    },
    {
      "inputs": [],
      "name": "withdrawAVAX",
      "outputs": [],
      "stateMutability": "nonpayable",
      "type": "function"
    }
  ],
  "bytecode": "0x60806040526000600a553480156200001657600080fd5b506040518060400160405280600581526020017f436f736d6f0000000000000000000000000000000000000000000000000000008152506040518060400160405280600381526020017f43534d0000000000000000000000000000000000000000000000000000000000815250600067ffffffffffffffff811115620000a157620000a06200049a565b5b604051908082528060200260200182016040528015620000d05781602001602082028036833780820191505090505b508260029081620000e2919062000714565b508160039081620000f4919062000714565b5080600490805190602001906200010d929190620003ec565b5060005b8151811015620001a657600160056000848481518110620001375762000136620007fb565b5b602002602001015173ffffffffffffffffffffffffffffffffffffffff1673ffffffffffffffffffffffffffffffffffffffff16815260200190815260200160002060006101000a81548160ff02191690831515021790555080806200019d9062000859565b91505062000111565b50731820a4b7618bde71dce8cdc73aab6c95905fad2473ffffffffffffffffffffffffffffffffffffffff166329965a1d307fac7fbab5f54a3ca8194167523c6753bfeb96a445279294b6125b68cce2177054306040518463ffffffff1660e01b81526004016200021a9392919062000906565b600060405180830381600087803b1580156200023557600080fd5b505af11580156200024a573d6000803e3d6000fd5b50505050731820a4b7618bde71dce8cdc73aab6c95905fad2473ffffffffffffffffffffffffffffffffffffffff166329965a1d307faea199e31a596269b42cdafd93407f14436db6e4cad65417994c2eb37381e05a306040518463ffffffff1660e01b8152600401620002c19392919062000906565b600060405180830381600087803b158015620002dc57600080fd5b505af1158015620002f1573d6000803e3d6000fd5b50505050505050620003186200030c6200031e60201b60201c565b6200032660201b60201c565b62000943565b600033905090565b6000600960009054906101000a900473ffffffffffffffffffffffffffffffffffffffff16905081600960006101000a81548173ffffffffffffffffffffffffffffffffffffffff021916908373ffffffffffffffffffffffffffffffffffffffff1602179055508173ffffffffffffffffffffffffffffffffffffffff168173ffffffffffffffffffffffffffffffffffffffff167f8be0079c531659141344cd1fd0a4f28419497f9722a3daafe3b4186f6b6457e060405160405180910390a35050565b82805482825590600052602060002090810192821562000468579160200282015b82811115620004675782518260006101000a81548173ffffffffffffffffffffffffffffffffffffffff021916908373ffffffffffffffffffffffffffffffffffffffff160217905550916020019190600101906200040d565b5b5090506200047791906200047b565b5090565b5b80821115620004965760008160009055506001016200047c565b5090565b7f4e487b7100000000000000000000000000000000000000000000000000000000600052604160045260246000fd5b600081519050919050565b7f4e487b7100000000000000000000000000000000000000000000000000000000600052602260045260246000fd5b600060028204905060018216806200051c57607f821691505b602082108103620005325762000531620004d4565b5b50919050565b60008190508160005260206000209050919050565b60006020601f8301049050919050565b600082821b905092915050565b6000600883026200059c7fffffffffffffffffffffffffffffffffffffffffffffffffffffffffffffffff826200055d565b620005a886836200055d565b95508019841693508086168417925050509392505050565b6000819050919050565b6000819050919050565b6000620005f5620005ef620005e984620005c0565b620005ca565b620005c0565b9050919050565b6000819050919050565b6200061183620005d4565b620006296200062082620005fc565b8484546200056a565b825550505050565b600090565b6200064062000631565b6200064d81848462000606565b505050565b5b8181101562000675576200066960008262000636565b60018101905062000653565b5050565b601f821115620006c4576200068e8162000538565b62000699846200054d565b81016020851015620006a9578190505b620006c1620006b8856200054d565b83018262000652565b50505b505050565b600082821c905092915050565b6000620006e960001984600802620006c9565b1980831691505092915050565b6000620007048383620006d6565b9150826002028217905092915050565b6200071f82620004c9565b67ffffffffffffffff8111156200073b576200073a6200049a565b5b62000747825462000503565b6200075482828562000679565b600060209050601f8311600181146200078c576000841562000777578287015190505b620007838582620006f6565b865550620007f3565b601f1984166200079c8662000538565b60005b82811015620007c6578489015182556001820191506020850194506020810190506200079f565b86831015620007e65784890151620007e2601f891682620006d6565b8355505b6001600288020188555050505b505050505050565b7f4e487b7100000000000000000000000000000000000000000000000000000000600052603260045260246000fd5b7f4e487b7100000000000000000000000000000000000000000000000000000000600052601160045260246000fd5b60006200086682620005c0565b91507fffffffffffffffffffffffffffffffffffffffffffffffffffffffffffffffff82036200089b576200089a6200082a565b5b600182019050919050565b600073ffffffffffffffffffffffffffffffffffffffff82169050919050565b6000620008d382620008a6565b9050919050565b620008e581620008c6565b82525050565b6000819050919050565b6200090081620008eb565b82525050565b60006060820190506200091d6000830186620008da565b6200092c6020830185620008f5565b6200093b6040830184620008da565b949350505050565b6139e080620009536000396000f3fe6080604052600436106101c25760003560e01c8063959b8c3f116100f7578063d95b637111610095578063f38e266a11610064578063f38e266a1461065b578063fad8b32a14610698578063fc673c4f146106c1578063fe9d9303146106ea576101c2565b8063d95b63711461057b578063dd62ed3e146105b8578063e3538bc1146105f5578063f2fde38b14610632576101c2565b8063a1448194116100d1578063a1448194146104c1578063a9059cbb146104ea578063abce145b14610527578063bc0d7cd61461053e576101c2565b8063959b8c3f1461044457806395d89b411461046d5780639bd9bbc614610498576101c2565b80633610724e1161016457806370a082311161013e57806370a082311461039a578063715018a6146103d7578063731861bc146103ee5780638da5cb5b14610419576101c2565b80633610724e1461032a578063556f0dc71461034657806362ad1b8314610371576101c2565b806318160ddd116101a057806318160ddd1461025a57806323b872dd1461028557806325e8e00c146102c2578063313ce567146102ff576101c2565b806306e48538146101c757806306fdde03146101f2578063095ea7b31461021d575b600080fd5b3480156101d357600080fd5b506101dc610713565b6040516101e991906126eb565b60405180910390f35b3480156101fe57600080fd5b506102076107a1565b60405161021491906127a6565b60405180910390f35b34801561022957600080fd5b50610244600480360381019061023f919061283e565b610833565b6040516102519190612899565b60405180910390f35b34801561026657600080fd5b5061026f610856565b60405161027c91906128c3565b60405180910390f35b34801561029157600080fd5b506102ac60048036038101906102a791906128de565b610860565b6040516102b99190612899565b60405180910390f35b3480156102ce57600080fd5b506102e960048036038101906102e4919061283e565b6108b1565b6040516102f69190612899565b60405180910390f35b34801561030b57600080fd5b506103146109e0565b604051610321919061294d565b60405180910390f35b610344600480360381019061033f9190612968565b6109e9565b005b34801561035257600080fd5b5061035b610b46565b60405161036891906128c3565b60405180910390f35b34801561037d57600080fd5b5061039860048036038101906103939190612aca565b610b4f565b005b3480156103a657600080fd5b506103c160048036038101906103bc9190612b7d565b610bb5565b6040516103ce91906128c3565b60405180910390f35b3480156103e357600080fd5b506103ec610bfd565b005b3480156103fa57600080fd5b50610403610c11565b60405161041091906128c3565b60405180910390f35b34801561042557600080fd5b5061042e610c17565b60405161043b9190612bb9565b60405180910390f35b34801561045057600080fd5b5061046b60048036038101906104669190612b7d565b610c41565b005b34801561047957600080fd5b50610482610ea1565b60405161048f91906127a6565b60405180910390f35b3480156104a457600080fd5b506104bf60048036038101906104ba9190612bd4565b610f33565b005b3480156104cd57600080fd5b506104e860048036038101906104e3919061283e565b610f5d565b005b3480156104f657600080fd5b50610511600480360381019061050c919061283e565b61105f565b60405161051e9190612899565b60405180910390f35b34801561053357600080fd5b5061053c61109f565b005b34801561054a57600080fd5b5061056560048036038101906105609190612b7d565b611146565b60405161057291906128c3565b60405180910390f35b34801561058757600080fd5b506105a2600480360381019061059d9190612c43565b61115e565b6040516105af9190612899565b60405180910390f35b3480156105c457600080fd5b506105df60048036038101906105da9190612c43565b61130f565b6040516105ec91906128c3565b60405180910390f35b34801561060157600080fd5b5061061c60048036038101906106179190612b7d565b611396565b6040516106299190612bb9565b60405180910390f35b34801561063e57600080fd5b5061065960048036038101906106549190612b7d565b6113c9565b005b34801561066757600080fd5b50610682600480360381019061067d9190612b7d565b61144c565b60405161068f91906128c3565b60405180910390f35b3480156106a457600080fd5b506106bf60048036038101906106ba9190612b7d565b611495565b005b3480156106cd57600080fd5b506106e860048036038101906106e39190612c83565b6116f5565b005b3480156106f657600080fd5b50610711600480360381019061070c9190612d22565b611757565b005b6060600480548060200260200160405190810160405280929190818152602001828054801561079757602002820191906000526020600020905b8160009054906101000a900473ffffffffffffffffffffffffffffffffffffffff1673ffffffffffffffffffffffffffffffffffffffff168152602001906001019080831161074d575b5050505050905090565b6060600280546107b090612dad565b80601f01602080910402602001604051908101604052809291908181526020018280546107dc90612dad565b80156108295780601f106107fe57610100808354040283529160200191610829565b820191906000526020600020905b81548152906001019060200180831161080c57829003601f168201915b5050505050905090565b60008061083e61177d565b905061084b818585611785565b600191505092915050565b6000600154905090565b60008061086b61177d565b905061087885828561194e565b6108a5858585604051806020016040528060008152506040518060200160405280600081525060006119da565b60019150509392505050565b60008273ffffffffffffffffffffffffffffffffffffffff16600b60008573ffffffffffffffffffffffffffffffffffffffff1673ffffffffffffffffffffffffffffffffffffffff16815260200190815260200160002060009054906101000a900473ffffffffffffffffffffffffffffffffffffffff1673ffffffffffffffffffffffffffffffffffffffff1614610980576040517f08c379a000000000000000000000000000000000000000000000000000000000815260040161097790612e2a565b60405180910390fd5b81600c60008573ffffffffffffffffffffffffffffffffffffffff1673ffffffffffffffffffffffffffffffffffffffff16815260200190815260200160002060008282546109cf9190612e79565b925050819055506001905092915050565b60006012905090565b80341015610a2c576040517f08c379a0000000000000000000000000000000000000000000000000000000008152600401610a2390612ef9565b60405180910390fd5b33600b60003373ffffffffffffffffffffffffffffffffffffffff1673ffffffffffffffffffffffffffffffffffffffff16815260200190815260200160002060006101000a81548173ffffffffffffffffffffffffffffffffffffffff021916908373ffffffffffffffffffffffffffffffffffffffff16021790555080600c60003373ffffffffffffffffffffffffffffffffffffffff1673ffffffffffffffffffffffffffffffffffffffff1681526020019081526020016000206000828254610af99190612f19565b92505081905550610b2a33826040518060200160405280600081525060405180602001604052806000815250611af8565b80600a6000828254610b3c9190612f19565b9250508190555050565b60006001905090565b610b60610b5a61177d565b8661115e565b610b9f576040517f08c379a0000000000000000000000000000000000000000000000000000000008152600401610b9690612fe1565b60405180910390fd5b610bae858585858560016119da565b5050505050565b60008060008373ffffffffffffffffffffffffffffffffffffffff1673ffffffffffffffffffffffffffffffffffffffff168152602001908152602001600020549050919050565b610c05611b0c565b610c0f6000611b8a565b565b600a5481565b6000600960009054906101000a900473ffffffffffffffffffffffffffffffffffffffff16905090565b8073ffffffffffffffffffffffffffffffffffffffff16610c6061177d565b73ffffffffffffffffffffffffffffffffffffffff1603610cb6576040517f08c379a0000000000000000000000000000000000000000000000000000000008152600401610cad90613073565b60405180910390fd5b600560008273ffffffffffffffffffffffffffffffffffffffff1673ffffffffffffffffffffffffffffffffffffffff16815260200190815260200160002060009054906101000a900460ff1615610da05760076000610d1461177d565b73ffffffffffffffffffffffffffffffffffffffff1673ffffffffffffffffffffffffffffffffffffffff16815260200190815260200160002060008273ffffffffffffffffffffffffffffffffffffffff1673ffffffffffffffffffffffffffffffffffffffff16815260200190815260200160002060006101000a81549060ff0219169055610e3d565b600160066000610dae61177d565b73ffffffffffffffffffffffffffffffffffffffff1673ffffffffffffffffffffffffffffffffffffffff16815260200190815260200160002060008373ffffffffffffffffffffffffffffffffffffffff1673ffffffffffffffffffffffffffffffffffffffff16815260200190815260200160002060006101000a81548160ff0219169083151502179055505b610e4561177d565b73ffffffffffffffffffffffffffffffffffffffff168173ffffffffffffffffffffffffffffffffffffffff167ff4caeb2d6ca8932a215a353d0703c326ec2d81fc68170f320eb2ab49e9df61f960405160405180910390a350565b606060038054610eb090612dad565b80601f0160208091040260200160405190810160405280929190818152602001828054610edc90612dad565b8015610f295780601f10610efe57610100808354040283529160200191610f29565b820191906000526020600020905b815481529060010190602001808311610f0c57829003601f168201915b5050505050905090565b610f58610f3e61177d565b8484846040518060200160405280600081525060016119da565b505050565b81600b60008473ffffffffffffffffffffffffffffffffffffffff1673ffffffffffffffffffffffffffffffffffffffff16815260200190815260200160002060006101000a81548173ffffffffffffffffffffffffffffffffffffffff021916908373ffffffffffffffffffffffffffffffffffffffff16021790555080600c60008473ffffffffffffffffffffffffffffffffffffffff1673ffffffffffffffffffffffffffffffffffffffff168152602001908152602001600020600082825461102a9190612f19565b9250508190555061105b82826040518060200160405280600081525060405180602001604052806000815250611af8565b5050565b600061109561106c61177d565b8484604051806020016040528060008152506040518060200160405280600081525060006119da565b6001905092915050565b6110a7611b0c565b6000600a54116110ec576040517f08c379a00000000000000000000000000000000000000000000000000000000081526004016110e3906130df565b60405180910390fd5b6110f4610c17565b73ffffffffffffffffffffffffffffffffffffffff166108fc600a549081150290604051600060405180830381858888f1935050505015801561113b573d6000803e3d6000fd5b506000600a81905550565b600c6020528060005260406000206000915090505481565b60008173ffffffffffffffffffffffffffffffffffffffff168373ffffffffffffffffffffffffffffffffffffffff1614806112765750600560008473ffffffffffffffffffffffffffffffffffffffff1673ffffffffffffffffffffffffffffffffffffffff16815260200190815260200160002060009054906101000a900460ff1680156112755750600760008373ffffffffffffffffffffffffffffffffffffffff1673ffffffffffffffffffffffffffffffffffffffff16815260200190815260200160002060008473ffffffffffffffffffffffffffffffffffffffff1673ffffffffffffffffffffffffffffffffffffffff16815260200190815260200160002060009054906101000a900460ff16155b5b806113075750600660008373ffffffffffffffffffffffffffffffffffffffff1673ffffffffffffffffffffffffffffffffffffffff16815260200190815260200160002060008473ffffffffffffffffffffffffffffffffffffffff1673ffffffffffffffffffffffffffffffffffffffff16815260200190815260200160002060009054906101000a900460ff165b905092915050565b6000600860008473ffffffffffffffffffffffffffffffffffffffff1673ffffffffffffffffffffffffffffffffffffffff16815260200190815260200160002060008373ffffffffffffffffffffffffffffffffffffffff1673ffffffffffffffffffffffffffffffffffffffff16815260200190815260200160002054905092915050565b600b6020528060005260406000206000915054906101000a900473ffffffffffffffffffffffffffffffffffffffff1681565b6113d1611b0c565b600073ffffffffffffffffffffffffffffffffffffffff168173ffffffffffffffffffffffffffffffffffffffff1603611440576040517f08c379a000000000000000000000000000000000000000000000000000000000815260040161143790613171565b60405180910390fd5b61144981611b8a565b50565b6000600c60008373ffffffffffffffffffffffffffffffffffffffff1673ffffffffffffffffffffffffffffffffffffffff168152602001908152602001600020549050919050565b61149d61177d565b73ffffffffffffffffffffffffffffffffffffffff168173ffffffffffffffffffffffffffffffffffffffff160361150a576040517f08c379a000000000000000000000000000000000000000000000000000000000815260040161150190613203565b60405180910390fd5b600560008273ffffffffffffffffffffffffffffffffffffffff1673ffffffffffffffffffffffffffffffffffffffff16815260200190815260200160002060009054906101000a900460ff16156115fd5760016007600061156a61177d565b73ffffffffffffffffffffffffffffffffffffffff1673ffffffffffffffffffffffffffffffffffffffff16815260200190815260200160002060008373ffffffffffffffffffffffffffffffffffffffff1673ffffffffffffffffffffffffffffffffffffffff16815260200190815260200160002060006101000a81548160ff021916908315150217905550611691565b6006600061160961177d565b73ffffffffffffffffffffffffffffffffffffffff1673ffffffffffffffffffffffffffffffffffffffff16815260200190815260200160002060008273ffffffffffffffffffffffffffffffffffffffff1673ffffffffffffffffffffffffffffffffffffffff16815260200190815260200160002060006101000a81549060ff02191690555b61169961177d565b73ffffffffffffffffffffffffffffffffffffffff168173ffffffffffffffffffffffffffffffffffffffff167f50546e66e5f44d728365dc3908c63bc5cfeeab470722c1677e3073a6ac294aa160405160405180910390a350565b61170661170061177d565b8561115e565b611745576040517f08c379a000000000000000000000000000000000000000000000000000000000815260040161173c90612fe1565b60405180910390fd5b61175184848484611c50565b50505050565b61177961176261177d565b838360405180602001604052806000815250611c50565b5050565b600033905090565b600073ffffffffffffffffffffffffffffffffffffffff168373ffffffffffffffffffffffffffffffffffffffff16036117f4576040517f08c379a00000000000000000000000000000000000000000000000000000000081526004016117eb90613295565b60405180910390fd5b600073ffffffffffffffffffffffffffffffffffffffff168273ffffffffffffffffffffffffffffffffffffffff1603611863576040517f08c379a000000000000000000000000000000000000000000000000000000000815260040161185a90613327565b60405180910390fd5b80600860008573ffffffffffffffffffffffffffffffffffffffff1673ffffffffffffffffffffffffffffffffffffffff16815260200190815260200160002060008473ffffffffffffffffffffffffffffffffffffffff1673ffffffffffffffffffffffffffffffffffffffff168152602001908152602001600020819055508173ffffffffffffffffffffffffffffffffffffffff168373ffffffffffffffffffffffffffffffffffffffff167f8c5be1e5ebec7d5bd14f71427d1e84f3dd0314c0f7b2291e5b200ac8c7c3b9258360405161194191906128c3565b60405180910390a3505050565b600061195a848461130f565b90507fffffffffffffffffffffffffffffffffffffffffffffffffffffffffffffffff81146119d457818110156119c6576040517f08c379a00000000000000000000000000000000000000000000000000000000081526004016119bd90613393565b60405180910390fd5b6119d38484848403611785565b5b50505050565b600073ffffffffffffffffffffffffffffffffffffffff168673ffffffffffffffffffffffffffffffffffffffff1603611a49576040517f08c379a0000000000000000000000000000000000000000000000000000000008152600401611a4090613425565b60405180910390fd5b600073ffffffffffffffffffffffffffffffffffffffff168573ffffffffffffffffffffffffffffffffffffffff1603611ab8576040517f08c379a0000000000000000000000000000000000000000000000000000000008152600401611aaf906134b7565b60405180910390fd5b6000611ac261177d565b9050611ad2818888888888611ea2565b611ae0818888888888612009565b611aef81888888888888612223565b50505050505050565b611b068484848460016123f5565b50505050565b611b1461177d565b73ffffffffffffffffffffffffffffffffffffffff16611b32610c17565b73ffffffffffffffffffffffffffffffffffffffff1614611b88576040517f08c379a0000000000000000000000000000000000000000000000000000000008152600401611b7f90613523565b60405180910390fd5b565b6000600960009054906101000a900473ffffffffffffffffffffffffffffffffffffffff16905081600960006101000a81548173ffffffffffffffffffffffffffffffffffffffff021916908373ffffffffffffffffffffffffffffffffffffffff1602179055508173ffffffffffffffffffffffffffffffffffffffff168173ffffffffffffffffffffffffffffffffffffffff167f8be0079c531659141344cd1fd0a4f28419497f9722a3daafe3b4186f6b6457e060405160405180910390a35050565b600073ffffffffffffffffffffffffffffffffffffffff168473ffffffffffffffffffffffffffffffffffffffff1603611cbf576040517f08c379a0000000000000000000000000000000000000000000000000000000008152600401611cb6906135b5565b60405180910390fd5b6000611cc961177d565b9050611cda81866000878787611ea2565b611ce781866000876125d2565b60008060008773ffffffffffffffffffffffffffffffffffffffff1673ffffffffffffffffffffffffffffffffffffffff16815260200190815260200160002054905084811015611d6d576040517f08c379a0000000000000000000000000000000000000000000000000000000008152600401611d6490613647565b60405180910390fd5b8481036000808873ffffffffffffffffffffffffffffffffffffffff1673ffffffffffffffffffffffffffffffffffffffff168152602001908152602001600020819055508460016000828254611dc49190612e79565b925050819055508573ffffffffffffffffffffffffffffffffffffffff168273ffffffffffffffffffffffffffffffffffffffff167fa78a9be3a7b862d26933ad85fb11d80ef66b8f972d7cbba06621d583943a4098878787604051611e2c939291906136bc565b60405180910390a3600073ffffffffffffffffffffffffffffffffffffffff168673ffffffffffffffffffffffffffffffffffffffff167fddf252ad1be2c89b69c2b068fc378daa952ba7f163c4a11628f55a4df523b3ef87604051611e9291906128c3565b60405180910390a3505050505050565b6000731820a4b7618bde71dce8cdc73aab6c95905fad2473ffffffffffffffffffffffffffffffffffffffff1663aabbb8ca877f29ddb589b1fb5fc7cf394961c1adf5f8c6454761adf795e67fe149f658abe8956040518363ffffffff1660e01b8152600401611f1392919061371a565b602060405180830381865afa158015611f30573d6000803e3d6000fd5b505050506040513d601f19601f82011682018060405250810190611f549190613758565b9050600073ffffffffffffffffffffffffffffffffffffffff168173ffffffffffffffffffffffffffffffffffffffff1614612000578073ffffffffffffffffffffffffffffffffffffffff166375ab97828888888888886040518763ffffffff1660e01b8152600401611fcd96959493929190613785565b600060405180830381600087803b158015611fe757600080fd5b505af1158015611ffb573d6000803e3d6000fd5b505050505b50505050505050565b612015868686866125d2565b60008060008773ffffffffffffffffffffffffffffffffffffffff1673ffffffffffffffffffffffffffffffffffffffff1681526020019081526020016000205490508381101561209b576040517f08c379a000000000000000000000000000000000000000000000000000000000815260040161209290613866565b60405180910390fd5b8381036000808873ffffffffffffffffffffffffffffffffffffffff1673ffffffffffffffffffffffffffffffffffffffff16815260200190815260200160002081905550836000808773ffffffffffffffffffffffffffffffffffffffff1673ffffffffffffffffffffffffffffffffffffffff168152602001908152602001600020600082825461212e9190612f19565b925050819055508473ffffffffffffffffffffffffffffffffffffffff168673ffffffffffffffffffffffffffffffffffffffff168873ffffffffffffffffffffffffffffffffffffffff167f06b541ddaa720db2b10a4d0cdac39b8d360425fc073085fac19bc826146779878787876040516121ad939291906136bc565b60405180910390a48473ffffffffffffffffffffffffffffffffffffffff168673ffffffffffffffffffffffffffffffffffffffff167fddf252ad1be2c89b69c2b068fc378daa952ba7f163c4a11628f55a4df523b3ef8660405161221291906128c3565b60405180910390a350505050505050565b6000731820a4b7618bde71dce8cdc73aab6c95905fad2473ffffffffffffffffffffffffffffffffffffffff1663aabbb8ca877fb281fc8c12954d22544db45de3159a39272895b169a852b314f9cc762e44c53b6040518363ffffffff1660e01b815260040161229492919061371a565b602060405180830381865afa1580156122b1573d6000803e3d6000fd5b505050506040513d601f19601f820116820180604052508101906122d59190613758565b9050600073ffffffffffffffffffffffffffffffffffffffff168173ffffffffffffffffffffffffffffffffffffffff1614612384578073ffffffffffffffffffffffffffffffffffffffff166223de298989898989896040518763ffffffff1660e01b815260040161234d96959493929190613785565b600060405180830381600087803b15801561236757600080fd5b505af115801561237b573d6000803e3d6000fd5b505050506123eb565b81156123ea576123a98673ffffffffffffffffffffffffffffffffffffffff166125d8565b156123e9576040517f08c379a00000000000000000000000000000000000000000000000000000000081526004016123e09061391e565b60405180910390fd5b5b5b5050505050505050565b600073ffffffffffffffffffffffffffffffffffffffff168573ffffffffffffffffffffffffffffffffffffffff1603612464576040517f08c379a000000000000000000000000000000000000000000000000000000000815260040161245b9061398a565b60405180910390fd5b600061246e61177d565b905061247d81600088886125d2565b846001600082825461248f9190612f19565b92505081905550846000808873ffffffffffffffffffffffffffffffffffffffff1673ffffffffffffffffffffffffffffffffffffffff16815260200190815260200160002060008282546124e49190612f19565b925050819055506124fb8160008888888888612223565b8573ffffffffffffffffffffffffffffffffffffffff168173ffffffffffffffffffffffffffffffffffffffff167f2fe5be0146f74c5bce36c0b80911af6c7d86ff27e89d5cfa61fc681327954e5d87878760405161255c939291906136bc565b60405180910390a38573ffffffffffffffffffffffffffffffffffffffff16600073ffffffffffffffffffffffffffffffffffffffff167fddf252ad1be2c89b69c2b068fc378daa952ba7f163c4a11628f55a4df523b3ef876040516125c291906128c3565b60405180910390a3505050505050565b50505050565b6000808273ffffffffffffffffffffffffffffffffffffffff163b119050919050565b600081519050919050565b600082825260208201905092915050565b6000819050602082019050919050565b600073ffffffffffffffffffffffffffffffffffffffff82169050919050565b600061265282612627565b9050919050565b61266281612647565b82525050565b60006126748383612659565b60208301905092915050565b6000602082019050919050565b6000612698826125fb565b6126a28185612606565b93506126ad83612617565b8060005b838110156126de5781516126c58882612668565b97506126d083612680565b9250506001810190506126b1565b5085935050505092915050565b60006020820190508181036000830152612705818461268d565b905092915050565b600081519050919050565b600082825260208201905092915050565b60005b8381101561274757808201518184015260208101905061272c565b83811115612756576000848401525b50505050565b6000601f19601f8301169050919050565b60006127788261270d565b6127828185612718565b9350612792818560208601612729565b61279b8161275c565b840191505092915050565b600060208201905081810360008301526127c0818461276d565b905092915050565b6000604051905090565b600080fd5b600080fd5b6127e581612647565b81146127f057600080fd5b50565b600081359050612802816127dc565b92915050565b6000819050919050565b61281b81612808565b811461282657600080fd5b50565b60008135905061283881612812565b92915050565b60008060408385031215612855576128546127d2565b5b6000612863858286016127f3565b925050602061287485828601612829565b9150509250929050565b60008115159050919050565b6128938161287e565b82525050565b60006020820190506128ae600083018461288a565b92915050565b6128bd81612808565b82525050565b60006020820190506128d860008301846128b4565b92915050565b6000806000606084860312156128f7576128f66127d2565b5b6000612905868287016127f3565b9350506020612916868287016127f3565b925050604061292786828701612829565b9150509250925092565b600060ff82169050919050565b61294781612931565b82525050565b6000602082019050612962600083018461293e565b92915050565b60006020828403121561297e5761297d6127d2565b5b600061298c84828501612829565b91505092915050565b600080fd5b600080fd5b7f4e487b7100000000000000000000000000000000000000000000000000000000600052604160045260246000fd5b6129d78261275c565b810181811067ffffffffffffffff821117156129f6576129f561299f565b5b80604052505050565b6000612a096127c8565b9050612a1582826129ce565b919050565b600067ffffffffffffffff821115612a3557612a3461299f565b5b612a3e8261275c565b9050602081019050919050565b82818337600083830152505050565b6000612a6d612a6884612a1a565b6129ff565b905082815260208101848484011115612a8957612a8861299a565b5b612a94848285612a4b565b509392505050565b600082601f830112612ab157612ab0612995565b5b8135612ac1848260208601612a5a565b91505092915050565b600080600080600060a08688031215612ae657612ae56127d2565b5b6000612af4888289016127f3565b9550506020612b05888289016127f3565b9450506040612b1688828901612829565b935050606086013567ffffffffffffffff811115612b3757612b366127d7565b5b612b4388828901612a9c565b925050608086013567ffffffffffffffff811115612b6457612b636127d7565b5b612b7088828901612a9c565b9150509295509295909350565b600060208284031215612b9357612b926127d2565b5b6000612ba1848285016127f3565b91505092915050565b612bb381612647565b82525050565b6000602082019050612bce6000830184612baa565b92915050565b600080600060608486031215612bed57612bec6127d2565b5b6000612bfb868287016127f3565b9350506020612c0c86828701612829565b925050604084013567ffffffffffffffff811115612c2d57612c2c6127d7565b5b612c3986828701612a9c565b9150509250925092565b60008060408385031215612c5a57612c596127d2565b5b6000612c68858286016127f3565b9250506020612c79858286016127f3565b9150509250929050565b60008060008060808587031215612c9d57612c9c6127d2565b5b6000612cab878288016127f3565b9450506020612cbc87828801612829565b935050604085013567ffffffffffffffff811115612cdd57612cdc6127d7565b5b612ce987828801612a9c565b925050606085013567ffffffffffffffff811115612d0a57612d096127d7565b5b612d1687828801612a9c565b91505092959194509250565b60008060408385031215612d3957612d386127d2565b5b6000612d4785828601612829565b925050602083013567ffffffffffffffff811115612d6857612d676127d7565b5b612d7485828601612a9c565b9150509250929050565b7f4e487b7100000000000000000000000000000000000000000000000000000000600052602260045260246000fd5b60006002820490506001821680612dc557607f821691505b602082108103612dd857612dd7612d7e565b5b50919050565b7f596f7520617265206e6f7420746865206f776e65720000000000000000000000600082015250565b6000612e14601583612718565b9150612e1f82612dde565b602082019050919050565b60006020820190508181036000830152612e4381612e07565b9050919050565b7f4e487b7100000000000000000000000000000000000000000000000000000000600052601160045260246000fd5b6000612e8482612808565b9150612e8f83612808565b925082821015612ea257612ea1612e4a565b5b828203905092915050565b7f496e737566666369656e742066756e6473000000000000000000000000000000600082015250565b6000612ee3601183612718565b9150612eee82612ead565b602082019050919050565b60006020820190508181036000830152612f1281612ed6565b9050919050565b6000612f2482612808565b9150612f2f83612808565b9250827fffffffffffffffffffffffffffffffffffffffffffffffffffffffffffffffff03821115612f6457612f63612e4a565b5b828201905092915050565b7f4552433737373a2063616c6c6572206973206e6f7420616e206f70657261746f60008201527f7220666f7220686f6c6465720000000000000000000000000000000000000000602082015250565b6000612fcb602c83612718565b9150612fd682612f6f565b604082019050919050565b60006020820190508181036000830152612ffa81612fbe565b9050919050565b7f4552433737373a20617574686f72697a696e672073656c66206173206f70657260008201527f61746f7200000000000000000000000000000000000000000000000000000000602082015250565b600061305d602483612718565b915061306882613001565b604082019050919050565b6000602082019050818103600083015261308c81613050565b9050919050565b7f446f6e277420686176652066756e647300000000000000000000000000000000600082015250565b60006130c9601083612718565b91506130d482613093565b602082019050919050565b600060208201905081810360008301526130f8816130bc565b9050919050565b7f4f776e61626c653a206e6577206f776e657220697320746865207a65726f206160008201527f6464726573730000000000000000000000000000000000000000000000000000602082015250565b600061315b602683612718565b9150613166826130ff565b604082019050919050565b6000602082019050818103600083015261318a8161314e565b9050919050565b7f4552433737373a207265766f6b696e672073656c66206173206f70657261746f60008201527f7200000000000000000000000000000000000000000000000000000000000000602082015250565b60006131ed602183612718565b91506131f882613191565b604082019050919050565b6000602082019050818103600083015261321c816131e0565b9050919050565b7f4552433737373a20617070726f76652066726f6d20746865207a65726f20616460008201527f6472657373000000000000000000000000000000000000000000000000000000602082015250565b600061327f602583612718565b915061328a82613223565b604082019050919050565b600060208201905081810360008301526132ae81613272565b9050919050565b7f4552433737373a20617070726f766520746f20746865207a65726f206164647260008201527f6573730000000000000000000000000000000000000000000000000000000000602082015250565b6000613311602383612718565b915061331c826132b5565b604082019050919050565b6000602082019050818103600083015261334081613304565b9050919050565b7f4552433737373a20696e73756666696369656e7420616c6c6f77616e63650000600082015250565b600061337d601e83612718565b915061338882613347565b602082019050919050565b600060208201905081810360008301526133ac81613370565b9050919050565b7f4552433737373a207472616e736665722066726f6d20746865207a65726f206160008201527f6464726573730000000000000000000000000000000000000000000000000000602082015250565b600061340f602683612718565b915061341a826133b3565b604082019050919050565b6000602082019050818103600083015261343e81613402565b9050919050565b7f4552433737373a207472616e7366657220746f20746865207a65726f2061646460008201527f7265737300000000000000000000000000000000000000000000000000000000602082015250565b60006134a1602483612718565b91506134ac82613445565b604082019050919050565b600060208201905081810360008301526134d081613494565b9050919050565b7f4f776e61626c653a2063616c6c6572206973206e6f7420746865206f776e6572600082015250565b600061350d602083612718565b9150613518826134d7565b602082019050919050565b6000602082019050818103600083015261353c81613500565b9050919050565b7f4552433737373a206275726e2066726f6d20746865207a65726f20616464726560008201527f7373000000000000000000000000000000000000000000000000000000000000602082015250565b600061359f602283612718565b91506135aa82613543565b604082019050919050565b600060208201905081810360008301526135ce81613592565b9050919050565b7f4552433737373a206275726e20616d6f756e7420657863656564732062616c6160008201527f6e63650000000000000000000000000000000000000000000000000000000000602082015250565b6000613631602383612718565b915061363c826135d5565b604082019050919050565b6000602082019050818103600083015261366081613624565b9050919050565b600081519050919050565b600082825260208201905092915050565b600061368e82613667565b6136988185613672565b93506136a8818560208601612729565b6136b18161275c565b840191505092915050565b60006060820190506136d160008301866128b4565b81810360208301526136e38185613683565b905081810360408301526136f78184613683565b9050949350505050565b6000819050919050565b61371481613701565b82525050565b600060408201905061372f6000830185612baa565b61373c602083018461370b565b9392505050565b600081519050613752816127dc565b92915050565b60006020828403121561376e5761376d6127d2565b5b600061377c84828501613743565b91505092915050565b600060c08201905061379a6000830189612baa565b6137a76020830188612baa565b6137b46040830187612baa565b6137c160608301866128b4565b81810360808301526137d38185613683565b905081810360a08301526137e78184613683565b9050979650505050505050565b7f4552433737373a207472616e7366657220616d6f756e7420657863656564732060008201527f62616c616e636500000000000000000000000000000000000000000000000000602082015250565b6000613850602783612718565b915061385b826137f4565b604082019050919050565b6000602082019050818103600083015261387f81613843565b9050919050565b7f4552433737373a20746f6b656e20726563697069656e7420636f6e747261637460008201527f20686173206e6f20696d706c656d656e74657220666f7220455243373737546f60208201527f6b656e73526563697069656e7400000000000000000000000000000000000000604082015250565b6000613908604d83612718565b915061391382613886565b606082019050919050565b60006020820190508181036000830152613937816138fb565b9050919050565b7f4552433737373a206d696e7420746f20746865207a65726f2061646472657373600082015250565b6000613974602083612718565b915061397f8261393e565b602082019050919050565b600060208201905081810360008301526139a381613967565b905091905056fea2646970667358221220293f6728583029ad88a4f7e337da5dfe452367ccbbf2a4acefb73023743a32bc64736f6c634300080f0033",
  "linkReferences": {},
  "deployedLinkReferences": {}
}