{"src/blockchain/hardhat/contracts/MarketPlaceContract.sol":{"MarketPlaceContract":{"abi":[{"inputs":[{"internalType":"address","name":"_erc777Address","type":"address"}],"stateMutability":"nonpayable","type":"constructor"},{"anonymous":false,"inputs":[{"indexed":true,"internalType":"address","name":"owner","type":"address"},{"indexed":true,"internalType":"address","name":"approved","type":"address"},{"indexed":true,"internalType":"uint256","name":"tokenId","type":"uint256"}],"name":"Approval","type":"event"},{"anonymous":false,"inputs":[{"indexed":true,"internalType":"address","name":"owner","type":"address"},{"indexed":true,"internalType":"address","name":"operator","type":"address"},{"indexed":false,"internalType":"bool","name":"approved","type":"bool"}],"name":"ApprovalForAll","type":"event"},{"anonymous":false,"inputs":[{"indexed":false,"internalType":"uint256","name":"_itemId","type":"uint256"},{"indexed":true,"internalType":"address","name":"_nft","type":"address"},{"indexed":false,"internalType":"uint256","name":"_tokenId","type":"uint256"},{"indexed":false,"internalType":"string","name":"_tokenURI","type":"string"},{"indexed":false,"internalType":"uint256","name":"_price","type":"uint256"},{"indexed":true,"internalType":"address","name":"_buyer","type":"address"}],"name":"Bought","type":"event"},{"anonymous":false,"inputs":[{"indexed":false,"internalType":"uint256","name":"_itemId","type":"uint256"},{"indexed":true,"internalType":"address","name":"_nft","type":"address"},{"indexed":false,"internalType":"uint256","name":"_tokenId","type":"uint256"},{"indexed":false,"internalType":"string","name":"_tokenURI","type":"string"},{"indexed":false,"internalType":"uint256","name":"_price","type":"uint256"},{"indexed":true,"internalType":"address","name":"_seller","type":"address"}],"name":"Offerd","type":"event"},{"anonymous":false,"inputs":[{"indexed":true,"internalType":"address","name":"from","type":"address"},{"indexed":true,"internalType":"address","name":"to","type":"address"},{"indexed":true,"internalType":"uint256","name":"tokenId","type":"uint256"}],"name":"Transfer","type":"event"},{"inputs":[],"name":"ItemCounter","outputs":[{"internalType":"uint256","name":"_value","type":"uint256"}],"stateMutability":"view","type":"function"},{"inputs":[],"name":"account","outputs":[{"internalType":"address","name":"","type":"address"}],"stateMutability":"view","type":"function"},{"inputs":[{"internalType":"address","name":"_address","type":"address"}],"name":"addContractToken","outputs":[],"stateMutability":"nonpayable","type":"function"},{"inputs":[],"name":"amount","outputs":[{"internalType":"uint256","name":"","type":"uint256"}],"stateMutability":"view","type":"function"},{"inputs":[{"internalType":"address","name":"to","type":"address"},{"internalType":"uint256","name":"tokenId","type":"uint256"}],"name":"approve","outputs":[],"stateMutability":"nonpayable","type":"function"},{"inputs":[{"internalType":"address","name":"owner","type":"address"}],"name":"balanceOf","outputs":[{"internalType":"uint256","name":"","type":"uint256"}],"stateMutability":"view","type":"function"},{"inputs":[{"internalType":"address","name":"_tokenAddress","type":"address"},{"internalType":"uint256","name":"_itemId","type":"uint256"}],"name":"buyItem","outputs":[],"stateMutability":"payable","type":"function"},{"inputs":[],"name":"erc777","outputs":[{"internalType":"contract ERC777","name":"","type":"address"}],"stateMutability":"view","type":"function"},{"inputs":[{"internalType":"uint256","name":"tokenId","type":"uint256"}],"name":"getApproved","outputs":[{"internalType":"address","name":"","type":"address"}],"stateMutability":"view","type":"function"},{"inputs":[{"internalType":"address","name":"owner","type":"address"},{"internalType":"address","name":"operator","type":"address"}],"name":"isApprovedForAll","outputs":[{"internalType":"bool","name":"","type":"bool"}],"stateMutability":"view","type":"function"},{"inputs":[{"internalType":"uint256","name":"","type":"uint256"}],"name":"items","outputs":[{"internalType":"uint256","name":"itemId","type":"uint256"},{"internalType":"contract IERC721","name":"nft","type":"address"},{"internalType":"uint256","name":"tokenId","type":"uint256"},{"internalType":"string","name":"tokenURI","type":"string"},{"internalType":"uint256","name":"price","type":"uint256"},{"internalType":"bool","name":"sold","type":"bool"},{"internalType":"address payable","name":"seller","type":"address"}],"stateMutability":"view","type":"function"},{"inputs":[{"internalType":"string","name":"_tokenURI","type":"string"}],"name":"mint","outputs":[{"internalType":"uint256","name":"","type":"uint256"}],"stateMutability":"nonpayable","type":"function"},{"inputs":[],"name":"name","outputs":[{"internalType":"string","name":"","type":"string"}],"stateMutability":"view","type":"function"},{"inputs":[{"internalType":"uint256","name":"tokenId","type":"uint256"}],"name":"ownerOf","outputs":[{"internalType":"address","name":"","type":"address"}],"stateMutability":"view","type":"function"},{"inputs":[{"internalType":"address","name":"from","type":"address"},{"internalType":"address","name":"to","type":"address"},{"internalType":"uint256","name":"tokenId","type":"uint256"}],"name":"safeTransferFrom","outputs":[],"stateMutability":"nonpayable","type":"function"},{"inputs":[{"internalType":"address","name":"from","type":"address"},{"internalType":"address","name":"to","type":"address"},{"internalType":"uint256","name":"tokenId","type":"uint256"},{"internalType":"bytes","name":"data","type":"bytes"}],"name":"safeTransferFrom","outputs":[],"stateMutability":"nonpayable","type":"function"},{"inputs":[{"internalType":"contract IERC721","name":"_nft","type":"address"},{"internalType":"uint256","name":"_tokenId","type":"uint256"},{"internalType":"uint256","name":"_price","type":"uint256"}],"name":"sellItem","outputs":[],"stateMutability":"nonpayable","type":"function"},{"inputs":[{"internalType":"address","name":"operator","type":"address"},{"internalType":"bool","name":"approved","type":"bool"}],"name":"setApprovalForAll","outputs":[],"stateMutability":"nonpayable","type":"function"},{"inputs":[{"internalType":"bytes4","name":"interfaceId","type":"bytes4"}],"name":"supportsInterface","outputs":[{"internalType":"bool","name":"","type":"bool"}],"stateMutability":"view","type":"function"},{"inputs":[],"name":"symbol","outputs":[{"internalType":"string","name":"","type":"string"}],"stateMutability":"view","type":"function"},{"inputs":[{"internalType":"address","name":"","type":"address"}],"name":"tokenApproved","outputs":[{"internalType":"bool","name":"","type":"bool"}],"stateMutability":"view","type":"function"},{"inputs":[],"name":"tokenIdCounter","outputs":[{"internalType":"uint256","name":"_value","type":"uint256"}],"stateMutability":"view","type":"function"},{"inputs":[{"internalType":"uint256","name":"tokenId","type":"uint256"}],"name":"tokenURI","outputs":[{"internalType":"string","name":"","type":"string"}],"stateMutability":"view","type":"function"},{"inputs":[{"internalType":"uint256","name":"","type":"uint256"}],"name":"tokens","outputs":[{"internalType":"uint256","name":"id","type":"uint256"},{"internalType":"string","name":"URI","type":"string"}],"stateMutability":"view","type":"function"},{"inputs":[{"internalType":"address","name":"_operator","type":"address"},{"internalType":"address","name":"_from","type":"address"},{"internalType":"address","name":"_to","type":"address"},{"internalType":"uint256","name":"_amount","type":"uint256"},{"internalType":"bytes","name":"_userData","type":"bytes"},{"internalType":"bytes","name":"_operatorData","type":"bytes"}],"name":"tokensReceived","outputs":[],"stateMutability":"nonpayable","type":"function"},{"inputs":[{"internalType":"address","name":"from","type":"address"},{"internalType":"address","name":"to","type":"address"},{"internalType":"uint256","name":"tokenId","type":"uint256"}],"name":"transferFrom","outputs":[],"stateMutability":"nonpayable","type":"function"},{"inputs":[],"name":"withdrawTokens","outputs":[],"stateMutability":"nonpayable","type":"function"}],"evm":{"bytecode":{"linkReferences":{},"object":"60c06040523480156200001157600080fd5b5060405162004e2f38038062004e2f833981810160405281019062000037919062000253565b806040518060400160405280600681526020017f436f736d6f7300000000000000000000000000000000000000000000000000008152506040518060400160405280600481526020017f43534d53000000000000000000000000000000000000000000000000000000008152508160009081620000b59190620004ff565b508060019081620000c79190620004ff565b5050506001600781905550731820a4b7618bde71dce8cdc73aab6c95905fad2473ffffffffffffffffffffffffffffffffffffffff166329965a1d307fb281fc8c12954d22544db45de3159a39272895b169a852b314f9cc762e44c53b306040518463ffffffff1660e01b8152600401620001459392919062000612565b600060405180830381600087803b1580156200016057600080fd5b505af115801562000175573d6000803e3d6000fd5b505050508073ffffffffffffffffffffffffffffffffffffffff1660808173ffffffffffffffffffffffffffffffffffffffff16815250503373ffffffffffffffffffffffffffffffffffffffff1660a08173ffffffffffffffffffffffffffffffffffffffff168152505050506200064f565b600080fd5b600073ffffffffffffffffffffffffffffffffffffffff82169050919050565b60006200021b82620001ee565b9050919050565b6200022d816200020e565b81146200023957600080fd5b50565b6000815190506200024d8162000222565b92915050565b6000602082840312156200026c576200026b620001e9565b5b60006200027c848285016200023c565b91505092915050565b600081519050919050565b7f4e487b7100000000000000000000000000000000000000000000000000000000600052604160045260246000fd5b7f4e487b7100000000000000000000000000000000000000000000000000000000600052602260045260246000fd5b600060028204905060018216806200030757607f821691505b6020821081036200031d576200031c620002bf565b5b50919050565b60008190508160005260206000209050919050565b60006020601f8301049050919050565b600082821b905092915050565b600060088302620003877fffffffffffffffffffffffffffffffffffffffffffffffffffffffffffffffff8262000348565b62000393868362000348565b95508019841693508086168417925050509392505050565b6000819050919050565b6000819050919050565b6000620003e0620003da620003d484620003ab565b620003b5565b620003ab565b9050919050565b6000819050919050565b620003fc83620003bf565b620004146200040b82620003e7565b84845462000355565b825550505050565b600090565b6200042b6200041c565b62000438818484620003f1565b505050565b5b8181101562000460576200045460008262000421565b6001810190506200043e565b5050565b601f821115620004af57620004798162000323565b620004848462000338565b8101602085101562000494578190505b620004ac620004a38562000338565b8301826200043d565b50505b505050565b600082821c905092915050565b6000620004d460001984600802620004b4565b1980831691505092915050565b6000620004ef8383620004c1565b9150826002028217905092915050565b6200050a8262000285565b67ffffffffffffffff81111562000526576200052562000290565b5b620005328254620002ee565b6200053f82828562000464565b600060209050601f83116001811462000577576000841562000562578287015190505b6200056e8582620004e1565b865550620005de565b601f198416620005878662000323565b60005b82811015620005b1578489015182556001820191506020850194506020810190506200058a565b86831015620005d15784890151620005cd601f891682620004c1565b8355505b6001600288020188555050505b505050505050565b620005f1816200020e565b82525050565b6000819050919050565b6200060c81620005f7565b82525050565b6000606082019050620006296000830186620005e6565b62000638602083018562000601565b620006476040830184620005e6565b949350505050565b60805160a0516147906200069f60003960008181610af301528181610bc8015281816110c4015281816112d00152611c5c0152600081816111970152818161144c015261229f01526147906000f3fe60806040526004361061019b5760003560e01c80638d8f2adb116100ec578063aa8c217c1161008a578063c87b56dd11610064578063c87b56dd146105cf578063d85d3d271461060c578063e985e9c514610649578063f958aada146106865761019b565b8063aa8c217c14610538578063b88d4fde14610563578063bfb231d21461058c5761019b565b80639e70b75c116100c65780639e70b75c1461049f5780639e8e4d1d146104c85780639f37092a146104f3578063a22cb4651461050f5761019b565b80638d8f2adb1461043257806395d89b411461044957806398bdf6f5146104745761019b565b806323b872dd116101595780635dab2420116101335780635dab2420146103645780636352211e1461038f57806368915327146103cc57806370a08231146103f55761019b565b806323b872dd146102d457806342842e0e146102fd5780634f64b2be146103265761019b565b806223de29146101a057806301ffc9a7146101c957806306fdde0314610206578063081812fc14610231578063095ea7b31461026e578063170e2b8a14610297575b600080fd5b3480156101ac57600080fd5b506101c760048036038101906101c29190612cdb565b6106b1565b005b3480156101d557600080fd5b506101f060048036038101906101eb9190612e02565b6106d4565b6040516101fd9190612e4a565b60405180910390f35b34801561021257600080fd5b5061021b6107b6565b6040516102289190612efe565b60405180910390f35b34801561023d57600080fd5b5061025860048036038101906102539190612f20565b610848565b6040516102659190612f5c565b60405180910390f35b34801561027a57600080fd5b5061029560048036038101906102909190612f77565b61088e565b005b3480156102a357600080fd5b506102be60048036038101906102b99190612fb7565b6109a5565b6040516102cb9190612e4a565b60405180910390f35b3480156102e057600080fd5b506102fb60048036038101906102f69190612fe4565b6109c5565b005b34801561030957600080fd5b50610324600480360381019061031f9190612fe4565b610a25565b005b34801561033257600080fd5b5061034d60048036038101906103489190612f20565b610a45565b60405161035b929190613046565b60405180910390f35b34801561037057600080fd5b50610379610af1565b6040516103869190612f5c565b60405180910390f35b34801561039b57600080fd5b506103b660048036038101906103b19190612f20565b610b15565b6040516103c39190612f5c565b60405180910390f35b3480156103d857600080fd5b506103f360048036038101906103ee91906130b4565b610bc6565b005b34801561040157600080fd5b5061041c60048036038101906104179190612fb7565b61100b565b6040516104299190613107565b60405180910390f35b34801561043e57600080fd5b506104476110c2565b005b34801561045557600080fd5b5061045e611230565b60405161046b9190612efe565b60405180910390f35b34801561048057600080fd5b506104896112c2565b6040516104969190613107565b60405180910390f35b3480156104ab57600080fd5b506104c660048036038101906104c19190612fb7565b6112ce565b005b3480156104d457600080fd5b506104dd61144a565b6040516104ea9190613181565b60405180910390f35b61050d60048036038101906105089190612f77565b61146e565b005b34801561051b57600080fd5b50610536600480360381019061053191906131c8565b6119b1565b005b34801561054457600080fd5b5061054d6119c7565b60405161055a9190613107565b60405180910390f35b34801561056f57600080fd5b5061058a60048036038101906105859190613338565b6119cd565b005b34801561059857600080fd5b506105b360048036038101906105ae9190612f20565b611a2f565b6040516105c697969594939291906133fd565b60405180910390f35b3480156105db57600080fd5b506105f660048036038101906105f19190612f20565b611b46565b6040516106039190612efe565b60405180910390f35b34801561061857600080fd5b50610633600480360381019061062e9190613514565b611c58565b6040516106409190613107565b60405180910390f35b34801561065557600080fd5b50610670600480360381019061066b919061355d565b611d68565b60405161067d9190612e4a565b60405180910390f35b34801561069257600080fd5b5061069b611dfc565b6040516106a89190613107565b60405180910390f35b84600860008282546106c391906135cc565b925050819055505050505050505050565b60007f80ac58cd000000000000000000000000000000000000000000000000000000007bffffffffffffffffffffffffffffffffffffffffffffffffffffffff1916827bffffffffffffffffffffffffffffffffffffffffffffffffffffffff1916148061079f57507f5b5e139f000000000000000000000000000000000000000000000000000000007bffffffffffffffffffffffffffffffffffffffffffffffffffffffff1916827bffffffffffffffffffffffffffffffffffffffffffffffffffffffff1916145b806107af57506107ae82611e08565b5b9050919050565b6060600080546107c590613651565b80601f01602080910402602001604051908101604052809291908181526020018280546107f190613651565b801561083e5780601f106108135761010080835404028352916020019161083e565b820191906000526020600020905b81548152906001019060200180831161082157829003601f168201915b5050505050905090565b600061085382611e72565b6004600083815260200190815260200160002060009054906101000a900473ffffffffffffffffffffffffffffffffffffffff169050919050565b600061089982610b15565b90508073ffffffffffffffffffffffffffffffffffffffff168373ffffffffffffffffffffffffffffffffffffffff1603610909576040517f08c379a0000000000000000000000000000000000000000000000000000000008152600401610900906136f4565b60405180910390fd5b8073ffffffffffffffffffffffffffffffffffffffff16610928611ebd565b73ffffffffffffffffffffffffffffffffffffffff161480610957575061095681610951611ebd565b611d68565b5b610996576040517f08c379a000000000000000000000000000000000000000000000000000000000815260040161098d90613786565b60405180910390fd5b6109a08383611ec5565b505050565b600d6020528060005260406000206000915054906101000a900460ff1681565b6109d66109d0611ebd565b82611f7e565b610a15576040517f08c379a0000000000000000000000000000000000000000000000000000000008152600401610a0c90613818565b60405180910390fd5b610a20838383612013565b505050565b610a40838383604051806020016040528060008152506119cd565b505050565b600c602052806000526040600020600091509050806000015490806001018054610a6e90613651565b80601f0160208091040260200160405190810160405280929190818152602001828054610a9a90613651565b8015610ae75780601f10610abc57610100808354040283529160200191610ae7565b820191906000526020600020905b815481529060010190602001808311610aca57829003601f168201915b5050505050905082565b7f000000000000000000000000000000000000000000000000000000000000000081565b6000806002600084815260200190815260200160002060009054906101000a900473ffffffffffffffffffffffffffffffffffffffff169050600073ffffffffffffffffffffffffffffffffffffffff168173ffffffffffffffffffffffffffffffffffffffff1603610bbd576040517f08c379a0000000000000000000000000000000000000000000000000000000008152600401610bb490613884565b60405180910390fd5b80915050919050565b7f000000000000000000000000000000000000000000000000000000000000000073ffffffffffffffffffffffffffffffffffffffff163373ffffffffffffffffffffffffffffffffffffffff1614610c54576040517f08c379a0000000000000000000000000000000000000000000000000000000008152600401610c4b90613916565b60405180910390fd5b600260075403610c99576040517f08c379a0000000000000000000000000000000000000000000000000000000008152600401610c9090613982565b60405180910390fd5b600260078190555060008111610ce4576040517f08c379a0000000000000000000000000000000000000000000000000000000008152600401610cdb906139ee565b60405180910390fd5b610cee6009612279565b6000610cfa600961228f565b90508373ffffffffffffffffffffffffffffffffffffffff166323b872dd3330866040518463ffffffff1660e01b8152600401610d3993929190613a0e565b600060405180830381600087803b158015610d5357600080fd5b505af1158015610d67573d6000803e3d6000fd5b505050506000600c600085815260200190815260200160002060405180604001604052908160008201548152602001600182018054610da590613651565b80601f0160208091040260200160405190810160405280929190818152602001828054610dd190613651565b8015610e1e5780601f10610df357610100808354040283529160200191610e1e565b820191906000526020600020905b815481529060010190602001808311610e0157829003601f168201915b505050505081525050905060006040518060e001604052808481526020018773ffffffffffffffffffffffffffffffffffffffff168152602001868152602001836020015181526020018581526020016000151581526020013373ffffffffffffffffffffffffffffffffffffffff16815250905080600b60008581526020019081526020016000206000820151816000015560208201518160010160006101000a81548173ffffffffffffffffffffffffffffffffffffffff021916908373ffffffffffffffffffffffffffffffffffffffff160217905550604082015181600201556060820151816003019081610f179190613be7565b506080820151816004015560a08201518160050160006101000a81548160ff02191690831515021790555060c08201518160050160016101000a81548173ffffffffffffffffffffffffffffffffffffffff021916908373ffffffffffffffffffffffffffffffffffffffff1602179055509050503373ffffffffffffffffffffffffffffffffffffffff168673ffffffffffffffffffffffffffffffffffffffff167ffbb702af9404f72d4778d0a1a80c9c80e330025cf49efc62679bf95f636a4be78588866020015189604051610ff39493929190613cb9565b60405180910390a35050506001600781905550505050565b60008073ffffffffffffffffffffffffffffffffffffffff168273ffffffffffffffffffffffffffffffffffffffff160361107b576040517f08c379a000000000000000000000000000000000000000000000000000000000815260040161107290613d77565b60405180910390fd5b600360008373ffffffffffffffffffffffffffffffffffffffff1673ffffffffffffffffffffffffffffffffffffffff168152602001908152602001600020549050919050565b7f000000000000000000000000000000000000000000000000000000000000000073ffffffffffffffffffffffffffffffffffffffff163373ffffffffffffffffffffffffffffffffffffffff1614611150576040517f08c379a000000000000000000000000000000000000000000000000000000000815260040161114790613916565b60405180910390fd5b600060085411611195576040517f08c379a000000000000000000000000000000000000000000000000000000000815260040161118c90613de3565b60405180910390fd5b7f000000000000000000000000000000000000000000000000000000000000000073ffffffffffffffffffffffffffffffffffffffff166362ad1b8330336008546040518463ffffffff1660e01b81526004016111f493929190613e3a565b600060405180830381600087803b15801561120e57600080fd5b505af1158015611222573d6000803e3d6000fd5b505050506000600881905550565b60606001805461123f90613651565b80601f016020809104026020016040519081016040528092919081815260200182805461126b90613651565b80156112b85780601f1061128d576101008083540402835291602001916112b8565b820191906000526020600020905b81548152906001019060200180831161129b57829003601f168201915b5050505050905090565b600a8060000154905081565b7f000000000000000000000000000000000000000000000000000000000000000073ffffffffffffffffffffffffffffffffffffffff163373ffffffffffffffffffffffffffffffffffffffff161461135c576040517f08c379a000000000000000000000000000000000000000000000000000000000815260040161135390613916565b60405180910390fd5b60001515600d60008373ffffffffffffffffffffffffffffffffffffffff1673ffffffffffffffffffffffffffffffffffffffff16815260200190815260200160002060009054906101000a900460ff161515146113ef576040517f08c379a00000000000000000000000000000000000000000000000000000000081526004016113e690613ee3565b60405180910390fd5b6001600d60008373ffffffffffffffffffffffffffffffffffffffff1673ffffffffffffffffffffffffffffffffffffffff16815260200190815260200160002060006101000a81548160ff02191690831515021790555050565b7f000000000000000000000000000000000000000000000000000000000000000081565b6002600754036114b3576040517f08c379a00000000000000000000000000000000000000000000000000000000081526004016114aa90613982565b60405180910390fd5b60026007819055506000600b60008381526020019081526020016000206004015490506000600b6000848152602001908152602001600020905060011515600d60008673ffffffffffffffffffffffffffffffffffffffff1673ffffffffffffffffffffffffffffffffffffffff16815260200190815260200160002060009054906101000a900460ff16151514611580576040517f08c379a000000000000000000000000000000000000000000000000000000000815260040161157790613f4f565b60405180910390fd5b818473ffffffffffffffffffffffffffffffffffffffff1663f38e266a336040518263ffffffff1660e01b81526004016115ba9190612f5c565b602060405180830381865afa1580156115d7573d6000803e3d6000fd5b505050506040513d601f19601f820116820180604052508101906115fb9190613f84565b1161163b576040517f08c379a000000000000000000000000000000000000000000000000000000000815260040161163290613ffd565b60405180910390fd5b6000831180156116545750611650600961228f565b8311155b611693576040517f08c379a000000000000000000000000000000000000000000000000000000000815260040161168a90614069565b60405180910390fd5b8060050160009054906101000a900460ff16156116e5576040517f08c379a00000000000000000000000000000000000000000000000000000000081526004016116dc906140d5565b60405180910390fd5b8373ffffffffffffffffffffffffffffffffffffffff166332973ee233846040518363ffffffff1660e01b81526004016117209291906140f5565b6020604051808303816000875af115801561173f573d6000803e3d6000fd5b505050506040513d601f19601f820116820180604052508101906117639190614133565b61176c57600080fd5b6117758261229d565b8060010160009054906101000a900473ffffffffffffffffffffffffffffffffffffffff1673ffffffffffffffffffffffffffffffffffffffff166323b872dd303384600201546040518463ffffffff1660e01b81526004016117da93929190613a0e565b600060405180830381600087803b1580156117f457600080fd5b505af1158015611808573d6000803e3d6000fd5b505050506000600b6000858152602001908152602001600020905060018160050160006101000a81548160ff0219169083151502179055506000600c6000836002015481526020019081526020016000206040518060400160405290816000820154815260200160018201805461187e90613651565b80601f01602080910402602001604051908101604052809291908181526020018280546118aa90613651565b80156118f75780601f106118cc576101008083540402835291602001916118f7565b820191906000526020600020905b8154815290600101906020018083116118da57829003601f168201915b50505050508152505090503373ffffffffffffffffffffffffffffffffffffffff168360010160009054906101000a900473ffffffffffffffffffffffffffffffffffffffff1673ffffffffffffffffffffffffffffffffffffffff167ff0640a5e49fe03f4079b28dce79dc3ecebd847760c8fed4b6095e30bd1f16c5585600001548660020154856020015188600401546040516119999493929190613cb9565b60405180910390a35050505060016007819055505050565b6119c36119bc611ebd565b8383612348565b5050565b60085481565b6119de6119d8611ebd565b83611f7e565b611a1d576040517f08c379a0000000000000000000000000000000000000000000000000000000008152600401611a1490613818565b60405180910390fd5b611a29848484846124b4565b50505050565b600b6020528060005260406000206000915090508060000154908060010160009054906101000a900473ffffffffffffffffffffffffffffffffffffffff1690806002015490806003018054611a8490613651565b80601f0160208091040260200160405190810160405280929190818152602001828054611ab090613651565b8015611afd5780601f10611ad257610100808354040283529160200191611afd565b820191906000526020600020905b815481529060010190602001808311611ae057829003601f168201915b5050505050908060040154908060050160009054906101000a900460ff16908060050160019054906101000a900473ffffffffffffffffffffffffffffffffffffffff16905087565b6060611b5182611e72565b6000600660008481526020019081526020016000208054611b7190613651565b80601f0160208091040260200160405190810160405280929190818152602001828054611b9d90613651565b8015611bea5780601f10611bbf57610100808354040283529160200191611bea565b820191906000526020600020905b815481529060010190602001808311611bcd57829003601f168201915b505050505090506000611bfb612510565b90506000815103611c10578192505050611c53565b600082511115611c45578082604051602001611c2d92919061419c565b60405160208183030381529060405292505050611c53565b611c4e84612527565b925050505b919050565b60007f000000000000000000000000000000000000000000000000000000000000000073ffffffffffffffffffffffffffffffffffffffff163373ffffffffffffffffffffffffffffffffffffffff1614611ce8576040517f08c379a0000000000000000000000000000000000000000000000000000000008152600401611cdf90613916565b60405180910390fd5b6000611cf4600a61228f565b9050611d00600a612279565b611d0a338261258f565b611d1481846125ad565b604051806040016040528082815260200184815250600c6000838152602001908152602001600020600082015181600001556020820151816001019081611d5b9190613be7565b5090505080915050919050565b6000600560008473ffffffffffffffffffffffffffffffffffffffff1673ffffffffffffffffffffffffffffffffffffffff16815260200190815260200160002060008373ffffffffffffffffffffffffffffffffffffffff1673ffffffffffffffffffffffffffffffffffffffff16815260200190815260200160002060009054906101000a900460ff16905092915050565b60098060000154905081565b60007f01ffc9a7000000000000000000000000000000000000000000000000000000007bffffffffffffffffffffffffffffffffffffffffffffffffffffffff1916827bffffffffffffffffffffffffffffffffffffffffffffffffffffffff1916149050919050565b611e7b8161261a565b611eba576040517f08c379a0000000000000000000000000000000000000000000000000000000008152600401611eb190613884565b60405180910390fd5b50565b600033905090565b816004600083815260200190815260200160002060006101000a81548173ffffffffffffffffffffffffffffffffffffffff021916908373ffffffffffffffffffffffffffffffffffffffff160217905550808273ffffffffffffffffffffffffffffffffffffffff16611f3883610b15565b73ffffffffffffffffffffffffffffffffffffffff167f8c5be1e5ebec7d5bd14f71427d1e84f3dd0314c0f7b2291e5b200ac8c7c3b92560405160405180910390a45050565b600080611f8a83610b15565b90508073ffffffffffffffffffffffffffffffffffffffff168473ffffffffffffffffffffffffffffffffffffffff161480611fcc5750611fcb8185611d68565b5b8061200a57508373ffffffffffffffffffffffffffffffffffffffff16611ff284610848565b73ffffffffffffffffffffffffffffffffffffffff16145b91505092915050565b8273ffffffffffffffffffffffffffffffffffffffff1661203382610b15565b73ffffffffffffffffffffffffffffffffffffffff1614612089576040517f08c379a000000000000000000000000000000000000000000000000000000000815260040161208090614232565b60405180910390fd5b600073ffffffffffffffffffffffffffffffffffffffff168273ffffffffffffffffffffffffffffffffffffffff16036120f8576040517f08c379a00000000000000000000000000000000000000000000000000000000081526004016120ef906142c4565b60405180910390fd5b612103838383612686565b61210e600082611ec5565b6001600360008573ffffffffffffffffffffffffffffffffffffffff1673ffffffffffffffffffffffffffffffffffffffff168152602001908152602001600020600082825461215e91906142e4565b925050819055506001600360008473ffffffffffffffffffffffffffffffffffffffff1673ffffffffffffffffffffffffffffffffffffffff16815260200190815260200160002060008282546121b591906135cc565b92505081905550816002600083815260200190815260200160002060006101000a81548173ffffffffffffffffffffffffffffffffffffffff021916908373ffffffffffffffffffffffffffffffffffffffff160217905550808273ffffffffffffffffffffffffffffffffffffffff168473ffffffffffffffffffffffffffffffffffffffff167fddf252ad1be2c89b69c2b068fc378daa952ba7f163c4a11628f55a4df523b3ef60405160405180910390a461227483838361268b565b505050565b6001816000016000828254019250508190555050565b600081600001549050919050565b7f000000000000000000000000000000000000000000000000000000000000000073ffffffffffffffffffffffffffffffffffffffff166362ad1b833330846040518463ffffffff1660e01b81526004016122fa93929190613e3a565b600060405180830381600087803b15801561231457600080fd5b505af1158015612328573d6000803e3d6000fd5b50505050806008600082825461233e91906135cc565b9250508190555050565b8173ffffffffffffffffffffffffffffffffffffffff168373ffffffffffffffffffffffffffffffffffffffff16036123b6576040517f08c379a00000000000000000000000000000000000000000000000000000000081526004016123ad90614364565b60405180910390fd5b80600560008573ffffffffffffffffffffffffffffffffffffffff1673ffffffffffffffffffffffffffffffffffffffff16815260200190815260200160002060008473ffffffffffffffffffffffffffffffffffffffff1673ffffffffffffffffffffffffffffffffffffffff16815260200190815260200160002060006101000a81548160ff0219169083151502179055508173ffffffffffffffffffffffffffffffffffffffff168373ffffffffffffffffffffffffffffffffffffffff167f17307eab39ab6107e8899845ad3d59bd9653f200f220920489ca2b5937696c31836040516124a79190612e4a565b60405180910390a3505050565b6124bf848484612013565b6124cb84848484612690565b61250a576040517f08c379a0000000000000000000000000000000000000000000000000000000008152600401612501906143f6565b60405180910390fd5b50505050565b606060405180602001604052806000815250905090565b606061253282611e72565b600061253c612510565b9050600081511161255c5760405180602001604052806000815250612587565b8061256684612817565b60405160200161257792919061419c565b6040516020818303038152906040525b915050919050565b6125a9828260405180602001604052806000815250612977565b5050565b6125b68261261a565b6125f5576040517f08c379a00000000000000000000000000000000000000000000000000000000081526004016125ec90614488565b60405180910390fd5b806006600084815260200190815260200160002090816126159190613be7565b505050565b60008073ffffffffffffffffffffffffffffffffffffffff166002600084815260200190815260200160002060009054906101000a900473ffffffffffffffffffffffffffffffffffffffff1673ffffffffffffffffffffffffffffffffffffffff1614159050919050565b505050565b505050565b60006126b18473ffffffffffffffffffffffffffffffffffffffff166129d2565b1561280a578373ffffffffffffffffffffffffffffffffffffffff1663150b7a026126da611ebd565b8786866040518563ffffffff1660e01b81526004016126fc94939291906144ec565b6020604051808303816000875af192505050801561273857506040513d601f19601f82011682018060405250810190612735919061454d565b60015b6127ba573d8060008114612768576040519150601f19603f3d011682016040523d82523d6000602084013e61276d565b606091505b5060008151036127b2576040517f08c379a00000000000000000000000000000000000000000000000000000000081526004016127a9906143f6565b60405180910390fd5b805181602001fd5b63150b7a0260e01b7bffffffffffffffffffffffffffffffffffffffffffffffffffffffff1916817bffffffffffffffffffffffffffffffffffffffffffffffffffffffff19161491505061280f565b600190505b949350505050565b60606000820361285e576040518060400160405280600181526020017f30000000000000000000000000000000000000000000000000000000000000008152509050612972565b600082905060005b600082146128905780806128799061457a565b915050600a8261288991906145f1565b9150612866565b60008167ffffffffffffffff8111156128ac576128ab61320d565b5b6040519080825280601f01601f1916602001820160405280156128de5781602001600182028036833780820191505090505b5090505b6000851461296b576001826128f791906142e4565b9150600a856129069190614622565b603061291291906135cc565b60f81b81838151811061292857612927614653565b5b60200101907effffffffffffffffffffffffffffffffffffffffffffffffffffffffffffff1916908160001a905350600a8561296491906145f1565b94506128e2565b8093505050505b919050565b61298183836129f5565b61298e6000848484612690565b6129cd576040517f08c379a00000000000000000000000000000000000000000000000000000000081526004016129c4906143f6565b60405180910390fd5b505050565b6000808273ffffffffffffffffffffffffffffffffffffffff163b119050919050565b600073ffffffffffffffffffffffffffffffffffffffff168273ffffffffffffffffffffffffffffffffffffffff1603612a64576040517f08c379a0000000000000000000000000000000000000000000000000000000008152600401612a5b906146ce565b60405180910390fd5b612a6d8161261a565b15612aad576040517f08c379a0000000000000000000000000000000000000000000000000000000008152600401612aa49061473a565b60405180910390fd5b612ab960008383612686565b6001600360008473ffffffffffffffffffffffffffffffffffffffff1673ffffffffffffffffffffffffffffffffffffffff1681526020019081526020016000206000828254612b0991906135cc565b92505081905550816002600083815260200190815260200160002060006101000a81548173ffffffffffffffffffffffffffffffffffffffff021916908373ffffffffffffffffffffffffffffffffffffffff160217905550808273ffffffffffffffffffffffffffffffffffffffff16600073ffffffffffffffffffffffffffffffffffffffff167fddf252ad1be2c89b69c2b068fc378daa952ba7f163c4a11628f55a4df523b3ef60405160405180910390a4612bca6000838361268b565b5050565b6000604051905090565b600080fd5b600080fd5b600073ffffffffffffffffffffffffffffffffffffffff82169050919050565b6000612c0d82612be2565b9050919050565b612c1d81612c02565b8114612c2857600080fd5b50565b600081359050612c3a81612c14565b92915050565b6000819050919050565b612c5381612c40565b8114612c5e57600080fd5b50565b600081359050612c7081612c4a565b92915050565b600080fd5b600080fd5b600080fd5b60008083601f840112612c9b57612c9a612c76565b5b8235905067ffffffffffffffff811115612cb857612cb7612c7b565b5b602083019150836001820283011115612cd457612cd3612c80565b5b9250929050565b60008060008060008060008060c0898b031215612cfb57612cfa612bd8565b5b6000612d098b828c01612c2b565b9850506020612d1a8b828c01612c2b565b9750506040612d2b8b828c01612c2b565b9650506060612d3c8b828c01612c61565b955050608089013567ffffffffffffffff811115612d5d57612d5c612bdd565b5b612d698b828c01612c85565b945094505060a089013567ffffffffffffffff811115612d8c57612d8b612bdd565b5b612d988b828c01612c85565b92509250509295985092959890939650565b60007fffffffff0000000000000000000000000000000000000000000000000000000082169050919050565b612ddf81612daa565b8114612dea57600080fd5b50565b600081359050612dfc81612dd6565b92915050565b600060208284031215612e1857612e17612bd8565b5b6000612e2684828501612ded565b91505092915050565b60008115159050919050565b612e4481612e2f565b82525050565b6000602082019050612e5f6000830184612e3b565b92915050565b600081519050919050565b600082825260208201905092915050565b60005b83811015612e9f578082015181840152602081019050612e84565b83811115612eae576000848401525b50505050565b6000601f19601f8301169050919050565b6000612ed082612e65565b612eda8185612e70565b9350612eea818560208601612e81565b612ef381612eb4565b840191505092915050565b60006020820190508181036000830152612f188184612ec5565b905092915050565b600060208284031215612f3657612f35612bd8565b5b6000612f4484828501612c61565b91505092915050565b612f5681612c02565b82525050565b6000602082019050612f716000830184612f4d565b92915050565b60008060408385031215612f8e57612f8d612bd8565b5b6000612f9c85828601612c2b565b9250506020612fad85828601612c61565b9150509250929050565b600060208284031215612fcd57612fcc612bd8565b5b6000612fdb84828501612c2b565b91505092915050565b600080600060608486031215612ffd57612ffc612bd8565b5b600061300b86828701612c2b565b935050602061301c86828701612c2b565b925050604061302d86828701612c61565b9150509250925092565b61304081612c40565b82525050565b600060408201905061305b6000830185613037565b818103602083015261306d8184612ec5565b90509392505050565b600061308182612c02565b9050919050565b61309181613076565b811461309c57600080fd5b50565b6000813590506130ae81613088565b92915050565b6000806000606084860312156130cd576130cc612bd8565b5b60006130db8682870161309f565b93505060206130ec86828701612c61565b92505060406130fd86828701612c61565b9150509250925092565b600060208201905061311c6000830184613037565b92915050565b6000819050919050565b600061314761314261313d84612be2565b613122565b612be2565b9050919050565b60006131598261312c565b9050919050565b600061316b8261314e565b9050919050565b61317b81613160565b82525050565b60006020820190506131966000830184613172565b92915050565b6131a581612e2f565b81146131b057600080fd5b50565b6000813590506131c28161319c565b92915050565b600080604083850312156131df576131de612bd8565b5b60006131ed85828601612c2b565b92505060206131fe858286016131b3565b9150509250929050565b600080fd5b7f4e487b7100000000000000000000000000000000000000000000000000000000600052604160045260246000fd5b61324582612eb4565b810181811067ffffffffffffffff821117156132645761326361320d565b5b80604052505050565b6000613277612bce565b9050613283828261323c565b919050565b600067ffffffffffffffff8211156132a3576132a261320d565b5b6132ac82612eb4565b9050602081019050919050565b82818337600083830152505050565b60006132db6132d684613288565b61326d565b9050828152602081018484840111156132f7576132f6613208565b5b6133028482856132b9565b509392505050565b600082601f83011261331f5761331e612c76565b5b813561332f8482602086016132c8565b91505092915050565b6000806000806080858703121561335257613351612bd8565b5b600061336087828801612c2b565b945050602061337187828801612c2b565b935050604061338287828801612c61565b925050606085013567ffffffffffffffff8111156133a3576133a2612bdd565b5b6133af8782880161330a565b91505092959194509250565b60006133c68261314e565b9050919050565b6133d6816133bb565b82525050565b60006133e782612be2565b9050919050565b6133f7816133dc565b82525050565b600060e082019050613412600083018a613037565b61341f60208301896133cd565b61342c6040830188613037565b818103606083015261343e8187612ec5565b905061344d6080830186613037565b61345a60a0830185612e3b565b61346760c08301846133ee565b98975050505050505050565b600067ffffffffffffffff82111561348e5761348d61320d565b5b61349782612eb4565b9050602081019050919050565b60006134b76134b284613473565b61326d565b9050828152602081018484840111156134d3576134d2613208565b5b6134de8482856132b9565b509392505050565b600082601f8301126134fb576134fa612c76565b5b813561350b8482602086016134a4565b91505092915050565b60006020828403121561352a57613529612bd8565b5b600082013567ffffffffffffffff81111561354857613547612bdd565b5b613554848285016134e6565b91505092915050565b6000806040838503121561357457613573612bd8565b5b600061358285828601612c2b565b925050602061359385828601612c2b565b9150509250929050565b7f4e487b7100000000000000000000000000000000000000000000000000000000600052601160045260246000fd5b60006135d782612c40565b91506135e283612c40565b9250827fffffffffffffffffffffffffffffffffffffffffffffffffffffffffffffffff038211156136175761361661359d565b5b828201905092915050565b7f4e487b7100000000000000000000000000000000000000000000000000000000600052602260045260246000fd5b6000600282049050600182168061366957607f821691505b60208210810361367c5761367b613622565b5b50919050565b7f4552433732313a20617070726f76616c20746f2063757272656e74206f776e6560008201527f7200000000000000000000000000000000000000000000000000000000000000602082015250565b60006136de602183612e70565b91506136e982613682565b604082019050919050565b6000602082019050818103600083015261370d816136d1565b9050919050565b7f4552433732313a20617070726f76652063616c6c6572206973206e6f7420746f60008201527f6b656e206f776e6572206e6f7220617070726f76656420666f7220616c6c0000602082015250565b6000613770603e83612e70565b915061377b82613714565b604082019050919050565b6000602082019050818103600083015261379f81613763565b9050919050565b7f4552433732313a2063616c6c6572206973206e6f7420746f6b656e206f776e6560008201527f72206e6f7220617070726f766564000000000000000000000000000000000000602082015250565b6000613802602e83612e70565b915061380d826137a6565b604082019050919050565b60006020820190508181036000830152613831816137f5565b9050919050565b7f4552433732313a20696e76616c696420746f6b656e2049440000000000000000600082015250565b600061386e601883612e70565b915061387982613838565b602082019050919050565b6000602082019050818103600083015261389d81613861565b9050919050565b7f4d61726b6574506c616365436f6e74726163743a2063616c6c6572206973206e60008201527f6f7420746865206f776e65720000000000000000000000000000000000000000602082015250565b6000613900602c83612e70565b915061390b826138a4565b604082019050919050565b6000602082019050818103600083015261392f816138f3565b9050919050565b7f5265656e7472616e637947756172643a207265656e7472616e742063616c6c00600082015250565b600061396c601f83612e70565b915061397782613936565b602082019050919050565b6000602082019050818103600083015261399b8161395f565b9050919050565b7f5072696365206d75737420626520677265617465722074686174203000000000600082015250565b60006139d8601c83612e70565b91506139e3826139a2565b602082019050919050565b60006020820190508181036000830152613a07816139cb565b9050919050565b6000606082019050613a236000830186612f4d565b613a306020830185612f4d565b613a3d6040830184613037565b949350505050565b60008190508160005260206000209050919050565b60006020601f8301049050919050565b600082821b905092915050565b600060088302613aa77fffffffffffffffffffffffffffffffffffffffffffffffffffffffffffffffff82613a6a565b613ab18683613a6a565b95508019841693508086168417925050509392505050565b6000613ae4613adf613ada84612c40565b613122565b612c40565b9050919050565b6000819050919050565b613afe83613ac9565b613b12613b0a82613aeb565b848454613a77565b825550505050565b600090565b613b27613b1a565b613b32818484613af5565b505050565b5b81811015613b5657613b4b600082613b1f565b600181019050613b38565b5050565b601f821115613b9b57613b6c81613a45565b613b7584613a5a565b81016020851015613b84578190505b613b98613b9085613a5a565b830182613b37565b50505b505050565b600082821c905092915050565b6000613bbe60001984600802613ba0565b1980831691505092915050565b6000613bd78383613bad565b9150826002028217905092915050565b613bf082612e65565b67ffffffffffffffff811115613c0957613c0861320d565b5b613c138254613651565b613c1e828285613b5a565b600060209050601f831160018114613c515760008415613c3f578287015190505b613c498582613bcb565b865550613cb1565b601f198416613c5f86613a45565b60005b82811015613c8757848901518255600182019150602085019450602081019050613c62565b86831015613ca45784890151613ca0601f891682613bad565b8355505b6001600288020188555050505b505050505050565b6000608082019050613cce6000830187613037565b613cdb6020830186613037565b8181036040830152613ced8185612ec5565b9050613cfc6060830184613037565b95945050505050565b7f4552433732313a2061646472657373207a65726f206973206e6f74206120766160008201527f6c6964206f776e65720000000000000000000000000000000000000000000000602082015250565b6000613d61602983612e70565b9150613d6c82613d05565b604082019050919050565b60006020820190508181036000830152613d9081613d54565b9050919050565b7f546865726520646f6e277420626520746f6b656e730000000000000000000000600082015250565b6000613dcd601583612e70565b9150613dd882613d97565b602082019050919050565b60006020820190508181036000830152613dfc81613dc0565b9050919050565b600082825260208201905092915050565b50565b6000613e24600083613e03565b9150613e2f82613e14565b600082019050919050565b600060a082019050613e4f6000830186612f4d565b613e5c6020830185612f4d565b613e696040830184613037565b8181036060830152613e7a81613e17565b90508181036080830152613e8d81613e17565b9050949350505050565b7f5468697320746f6b656e20697320616c726561647920617070726f7665640000600082015250565b6000613ecd601e83612e70565b9150613ed882613e97565b602082019050919050565b60006020820190508181036000830152613efc81613ec0565b9050919050565b7f576520646f6e277420616363657074207468697320746f6b656e000000000000600082015250565b6000613f39601a83612e70565b9150613f4482613f03565b602082019050919050565b60006020820190508181036000830152613f6881613f2c565b9050919050565b600081519050613f7e81612c4a565b92915050565b600060208284031215613f9a57613f99612bd8565b5b6000613fa884828501613f6f565b91505092915050565b7f496e73756666696369656e7420746f6b656e7300000000000000000000000000600082015250565b6000613fe7601383612e70565b9150613ff282613fb1565b602082019050919050565b6000602082019050818103600083015261401681613fda565b9050919050565b7f4974656d20646f6e277420657869737400000000000000000000000000000000600082015250565b6000614053601083612e70565b915061405e8261401d565b602082019050919050565b6000602082019050818103600083015261408281614046565b9050919050565b7f4974656d20616c726561647920736f6c64000000000000000000000000000000600082015250565b60006140bf601183612e70565b91506140ca82614089565b602082019050919050565b600060208201905081810360008301526140ee816140b2565b9050919050565b600060408201905061410a6000830185612f4d565b6141176020830184613037565b9392505050565b60008151905061412d8161319c565b92915050565b60006020828403121561414957614148612bd8565b5b60006141578482850161411e565b91505092915050565b600081905092915050565b600061417682612e65565b6141808185614160565b9350614190818560208601612e81565b80840191505092915050565b60006141a8828561416b565b91506141b4828461416b565b91508190509392505050565b7f4552433732313a207472616e736665722066726f6d20696e636f72726563742060008201527f6f776e6572000000000000000000000000000000000000000000000000000000602082015250565b600061421c602583612e70565b9150614227826141c0565b604082019050919050565b6000602082019050818103600083015261424b8161420f565b9050919050565b7f4552433732313a207472616e7366657220746f20746865207a65726f2061646460008201527f7265737300000000000000000000000000000000000000000000000000000000602082015250565b60006142ae602483612e70565b91506142b982614252565b604082019050919050565b600060208201905081810360008301526142dd816142a1565b9050919050565b60006142ef82612c40565b91506142fa83612c40565b92508282101561430d5761430c61359d565b5b828203905092915050565b7f4552433732313a20617070726f766520746f2063616c6c657200000000000000600082015250565b600061434e601983612e70565b915061435982614318565b602082019050919050565b6000602082019050818103600083015261437d81614341565b9050919050565b7f4552433732313a207472616e7366657220746f206e6f6e20455243373231526560008201527f63656976657220696d706c656d656e7465720000000000000000000000000000602082015250565b60006143e0603283612e70565b91506143eb82614384565b604082019050919050565b6000602082019050818103600083015261440f816143d3565b9050919050565b7f45524337323155524953746f726167653a2055524920736574206f66206e6f6e60008201527f6578697374656e7420746f6b656e000000000000000000000000000000000000602082015250565b6000614472602e83612e70565b915061447d82614416565b604082019050919050565b600060208201905081810360008301526144a181614465565b9050919050565b600081519050919050565b60006144be826144a8565b6144c88185613e03565b93506144d8818560208601612e81565b6144e181612eb4565b840191505092915050565b60006080820190506145016000830187612f4d565b61450e6020830186612f4d565b61451b6040830185613037565b818103606083015261452d81846144b3565b905095945050505050565b60008151905061454781612dd6565b92915050565b60006020828403121561456357614562612bd8565b5b600061457184828501614538565b91505092915050565b600061458582612c40565b91507fffffffffffffffffffffffffffffffffffffffffffffffffffffffffffffffff82036145b7576145b661359d565b5b600182019050919050565b7f4e487b7100000000000000000000000000000000000000000000000000000000600052601260045260246000fd5b60006145fc82612c40565b915061460783612c40565b925082614617576146166145c2565b5b828204905092915050565b600061462d82612c40565b915061463883612c40565b925082614648576146476145c2565b5b828206905092915050565b7f4e487b7100000000000000000000000000000000000000000000000000000000600052603260045260246000fd5b7f4552433732313a206d696e7420746f20746865207a65726f2061646472657373600082015250565b60006146b8602083612e70565b91506146c382614682565b602082019050919050565b600060208201905081810360008301526146e7816146ab565b9050919050565b7f4552433732313a20746f6b656e20616c7265616479206d696e74656400000000600082015250565b6000614724601c83612e70565b915061472f826146ee565b602082019050919050565b6000602082019050818103600083015261475381614717565b905091905056fea26469706673582212200ba373a42284267cced428821569acadc525f69e10640aa60ac2886e7af5995b64736f6c634300080f0033","opcodes":"PUSH1 0xC0 PUSH1 0x40 MSTORE CALLVALUE DUP1 ISZERO PUSH3 0x11 JUMPI PUSH1 0x0 DUP1 REVERT JUMPDEST POP PUSH1 0x40 MLOAD PUSH3 0x4E2F CODESIZE SUB DUP1 PUSH3 0x4E2F DUP4 CODECOPY DUP2 DUP2 ADD PUSH1 0x40 MSTORE DUP2 ADD SWAP1 PUSH3 0x37 SWAP2 SWAP1 PUSH3 0x253 JUMP JUMPDEST DUP1 PUSH1 0x40 MLOAD DUP1 PUSH1 0x40 ADD PUSH1 0x40 MSTORE DUP1 PUSH1 0x6 DUP2 MSTORE PUSH1 0x20 ADD PUSH32 0x436F736D6F730000000000000000000000000000000000000000000000000000 DUP2 MSTORE POP PUSH1 0x40 MLOAD DUP1 PUSH1 0x40 ADD PUSH1 0x40 MSTORE DUP1 PUSH1 0x4 DUP2 MSTORE PUSH1 0x20 ADD PUSH32 0x43534D5300000000000000000000000000000000000000000000000000000000 DUP2 MSTORE POP DUP2 PUSH1 0x0 SWAP1 DUP2 PUSH3 0xB5 SWAP2 SWAP1 PUSH3 0x4FF JUMP JUMPDEST POP DUP1 PUSH1 0x1 SWAP1 DUP2 PUSH3 0xC7 SWAP2 SWAP1 PUSH3 0x4FF JUMP JUMPDEST POP POP POP PUSH1 0x1 PUSH1 0x7 DUP2 SWAP1 SSTORE POP PUSH20 0x1820A4B7618BDE71DCE8CDC73AAB6C95905FAD24 PUSH20 0xFFFFFFFFFFFFFFFFFFFFFFFFFFFFFFFFFFFFFFFF AND PUSH4 0x29965A1D ADDRESS PUSH32 0xB281FC8C12954D22544DB45DE3159A39272895B169A852B314F9CC762E44C53B ADDRESS PUSH1 0x40 MLOAD DUP5 PUSH4 0xFFFFFFFF AND PUSH1 0xE0 SHL DUP2 MSTORE PUSH1 0x4 ADD PUSH3 0x145 SWAP4 SWAP3 SWAP2 SWAP1 PUSH3 0x612 JUMP JUMPDEST PUSH1 0x0 PUSH1 0x40 MLOAD DUP1 DUP4 SUB DUP2 PUSH1 0x0 DUP8 DUP1 EXTCODESIZE ISZERO DUP1 ISZERO PUSH3 0x160 JUMPI PUSH1 0x0 DUP1 REVERT JUMPDEST POP GAS CALL ISZERO DUP1 ISZERO PUSH3 0x175 JUMPI RETURNDATASIZE PUSH1 0x0 DUP1 RETURNDATACOPY RETURNDATASIZE PUSH1 0x0 REVERT JUMPDEST POP POP POP POP DUP1 PUSH20 0xFFFFFFFFFFFFFFFFFFFFFFFFFFFFFFFFFFFFFFFF AND PUSH1 0x80 DUP2 PUSH20 0xFFFFFFFFFFFFFFFFFFFFFFFFFFFFFFFFFFFFFFFF AND DUP2 MSTORE POP POP CALLER PUSH20 0xFFFFFFFFFFFFFFFFFFFFFFFFFFFFFFFFFFFFFFFF AND PUSH1 0xA0 DUP2 PUSH20 0xFFFFFFFFFFFFFFFFFFFFFFFFFFFFFFFFFFFFFFFF AND DUP2 MSTORE POP POP POP POP PUSH3 0x64F JUMP JUMPDEST PUSH1 0x0 DUP1 REVERT JUMPDEST PUSH1 0x0 PUSH20 0xFFFFFFFFFFFFFFFFFFFFFFFFFFFFFFFFFFFFFFFF DUP3 AND SWAP1 POP SWAP2 SWAP1 POP JUMP JUMPDEST PUSH1 0x0 PUSH3 0x21B DUP3 PUSH3 0x1EE JUMP JUMPDEST SWAP1 POP SWAP2 SWAP1 POP JUMP JUMPDEST PUSH3 0x22D DUP2 PUSH3 0x20E JUMP JUMPDEST DUP2 EQ PUSH3 0x239 JUMPI PUSH1 0x0 DUP1 REVERT JUMPDEST POP JUMP JUMPDEST PUSH1 0x0 DUP2 MLOAD SWAP1 POP PUSH3 0x24D DUP2 PUSH3 0x222 JUMP JUMPDEST SWAP3 SWAP2 POP POP JUMP JUMPDEST PUSH1 0x0 PUSH1 0x20 DUP3 DUP5 SUB SLT ISZERO PUSH3 0x26C JUMPI PUSH3 0x26B PUSH3 0x1E9 JUMP JUMPDEST JUMPDEST PUSH1 0x0 PUSH3 0x27C DUP5 DUP3 DUP6 ADD PUSH3 0x23C JUMP JUMPDEST SWAP2 POP POP SWAP3 SWAP2 POP POP JUMP JUMPDEST PUSH1 0x0 DUP2 MLOAD SWAP1 POP SWAP2 SWAP1 POP JUMP JUMPDEST PUSH32 0x4E487B7100000000000000000000000000000000000000000000000000000000 PUSH1 0x0 MSTORE PUSH1 0x41 PUSH1 0x4 MSTORE PUSH1 0x24 PUSH1 0x0 REVERT JUMPDEST PUSH32 0x4E487B7100000000000000000000000000000000000000000000000000000000 PUSH1 0x0 MSTORE PUSH1 0x22 PUSH1 0x4 MSTORE PUSH1 0x24 PUSH1 0x0 REVERT JUMPDEST PUSH1 0x0 PUSH1 0x2 DUP3 DIV SWAP1 POP PUSH1 0x1 DUP3 AND DUP1 PUSH3 0x307 JUMPI PUSH1 0x7F DUP3 AND SWAP2 POP JUMPDEST PUSH1 0x20 DUP3 LT DUP2 SUB PUSH3 0x31D JUMPI PUSH3 0x31C PUSH3 0x2BF JUMP JUMPDEST JUMPDEST POP SWAP2 SWAP1 POP JUMP JUMPDEST PUSH1 0x0 DUP2 SWAP1 POP DUP2 PUSH1 0x0 MSTORE PUSH1 0x20 PUSH1 0x0 KECCAK256 SWAP1 POP SWAP2 SWAP1 POP JUMP JUMPDEST PUSH1 0x0 PUSH1 0x20 PUSH1 0x1F DUP4 ADD DIV SWAP1 POP SWAP2 SWAP1 POP JUMP JUMPDEST PUSH1 0x0 DUP3 DUP3 SHL SWAP1 POP SWAP3 SWAP2 POP POP JUMP JUMPDEST PUSH1 0x0 PUSH1 0x8 DUP4 MUL PUSH3 0x387 PUSH32 0xFFFFFFFFFFFFFFFFFFFFFFFFFFFFFFFFFFFFFFFFFFFFFFFFFFFFFFFFFFFFFFFF DUP3 PUSH3 0x348 JUMP JUMPDEST PUSH3 0x393 DUP7 DUP4 PUSH3 0x348 JUMP JUMPDEST SWAP6 POP DUP1 NOT DUP5 AND SWAP4 POP DUP1 DUP7 AND DUP5 OR SWAP3 POP POP POP SWAP4 SWAP3 POP POP POP JUMP JUMPDEST PUSH1 0x0 DUP2 SWAP1 POP SWAP2 SWAP1 POP JUMP JUMPDEST PUSH1 0x0 DUP2 SWAP1 POP SWAP2 SWAP1 POP JUMP JUMPDEST PUSH1 0x0 PUSH3 0x3E0 PUSH3 0x3DA PUSH3 0x3D4 DUP5 PUSH3 0x3AB JUMP JUMPDEST PUSH3 0x3B5 JUMP JUMPDEST PUSH3 0x3AB JUMP JUMPDEST SWAP1 POP SWAP2 SWAP1 POP JUMP JUMPDEST PUSH1 0x0 DUP2 SWAP1 POP SWAP2 SWAP1 POP JUMP JUMPDEST PUSH3 0x3FC DUP4 PUSH3 0x3BF JUMP JUMPDEST PUSH3 0x414 PUSH3 0x40B DUP3 PUSH3 0x3E7 JUMP JUMPDEST DUP5 DUP5 SLOAD PUSH3 0x355 JUMP JUMPDEST DUP3 SSTORE POP POP POP POP JUMP JUMPDEST PUSH1 0x0 SWAP1 JUMP JUMPDEST PUSH3 0x42B PUSH3 0x41C JUMP JUMPDEST PUSH3 0x438 DUP2 DUP5 DUP5 PUSH3 0x3F1 JUMP JUMPDEST POP POP POP JUMP JUMPDEST JUMPDEST DUP2 DUP2 LT ISZERO PUSH3 0x460 JUMPI PUSH3 0x454 PUSH1 0x0 DUP3 PUSH3 0x421 JUMP JUMPDEST PUSH1 0x1 DUP2 ADD SWAP1 POP PUSH3 0x43E JUMP JUMPDEST POP POP JUMP JUMPDEST PUSH1 0x1F DUP3 GT ISZERO PUSH3 0x4AF JUMPI PUSH3 0x479 DUP2 PUSH3 0x323 JUMP JUMPDEST PUSH3 0x484 DUP5 PUSH3 0x338 JUMP JUMPDEST DUP2 ADD PUSH1 0x20 DUP6 LT ISZERO PUSH3 0x494 JUMPI DUP2 SWAP1 POP JUMPDEST PUSH3 0x4AC PUSH3 0x4A3 DUP6 PUSH3 0x338 JUMP JUMPDEST DUP4 ADD DUP3 PUSH3 0x43D JUMP JUMPDEST POP POP JUMPDEST POP POP POP JUMP JUMPDEST PUSH1 0x0 DUP3 DUP3 SHR SWAP1 POP SWAP3 SWAP2 POP POP JUMP JUMPDEST PUSH1 0x0 PUSH3 0x4D4 PUSH1 0x0 NOT DUP5 PUSH1 0x8 MUL PUSH3 0x4B4 JUMP JUMPDEST NOT DUP1 DUP4 AND SWAP2 POP POP SWAP3 SWAP2 POP POP JUMP JUMPDEST PUSH1 0x0 PUSH3 0x4EF DUP4 DUP4 PUSH3 0x4C1 JUMP JUMPDEST SWAP2 POP DUP3 PUSH1 0x2 MUL DUP3 OR SWAP1 POP SWAP3 SWAP2 POP POP JUMP JUMPDEST PUSH3 0x50A DUP3 PUSH3 0x285 JUMP JUMPDEST PUSH8 0xFFFFFFFFFFFFFFFF DUP2 GT ISZERO PUSH3 0x526 JUMPI PUSH3 0x525 PUSH3 0x290 JUMP JUMPDEST JUMPDEST PUSH3 0x532 DUP3 SLOAD PUSH3 0x2EE JUMP JUMPDEST PUSH3 0x53F DUP3 DUP3 DUP6 PUSH3 0x464 JUMP JUMPDEST PUSH1 0x0 PUSH1 0x20 SWAP1 POP PUSH1 0x1F DUP4 GT PUSH1 0x1 DUP2 EQ PUSH3 0x577 JUMPI PUSH1 0x0 DUP5 ISZERO PUSH3 0x562 JUMPI DUP3 DUP8 ADD MLOAD SWAP1 POP JUMPDEST PUSH3 0x56E DUP6 DUP3 PUSH3 0x4E1 JUMP JUMPDEST DUP7 SSTORE POP PUSH3 0x5DE JUMP JUMPDEST PUSH1 0x1F NOT DUP5 AND PUSH3 0x587 DUP7 PUSH3 0x323 JUMP JUMPDEST PUSH1 0x0 JUMPDEST DUP3 DUP2 LT ISZERO PUSH3 0x5B1 JUMPI DUP5 DUP10 ADD MLOAD DUP3 SSTORE PUSH1 0x1 DUP3 ADD SWAP2 POP PUSH1 0x20 DUP6 ADD SWAP5 POP PUSH1 0x20 DUP2 ADD SWAP1 POP PUSH3 0x58A JUMP JUMPDEST DUP7 DUP4 LT ISZERO PUSH3 0x5D1 JUMPI DUP5 DUP10 ADD MLOAD PUSH3 0x5CD PUSH1 0x1F DUP10 AND DUP3 PUSH3 0x4C1 JUMP JUMPDEST DUP4 SSTORE POP JUMPDEST PUSH1 0x1 PUSH1 0x2 DUP9 MUL ADD DUP9 SSTORE POP POP POP JUMPDEST POP POP POP POP POP POP JUMP JUMPDEST PUSH3 0x5F1 DUP2 PUSH3 0x20E JUMP JUMPDEST DUP3 MSTORE POP POP JUMP JUMPDEST PUSH1 0x0 DUP2 SWAP1 POP SWAP2 SWAP1 POP JUMP JUMPDEST PUSH3 0x60C DUP2 PUSH3 0x5F7 JUMP JUMPDEST DUP3 MSTORE POP POP JUMP JUMPDEST PUSH1 0x0 PUSH1 0x60 DUP3 ADD SWAP1 POP PUSH3 0x629 PUSH1 0x0 DUP4 ADD DUP7 PUSH3 0x5E6 JUMP JUMPDEST PUSH3 0x638 PUSH1 0x20 DUP4 ADD DUP6 PUSH3 0x601 JUMP JUMPDEST PUSH3 0x647 PUSH1 0x40 DUP4 ADD DUP5 PUSH3 0x5E6 JUMP JUMPDEST SWAP5 SWAP4 POP POP POP POP JUMP JUMPDEST PUSH1 0x80 MLOAD PUSH1 0xA0 MLOAD PUSH2 0x4790 PUSH3 0x69F PUSH1 0x0 CODECOPY PUSH1 0x0 DUP2 DUP2 PUSH2 0xAF3 ADD MSTORE DUP2 DUP2 PUSH2 0xBC8 ADD MSTORE DUP2 DUP2 PUSH2 0x10C4 ADD MSTORE DUP2 DUP2 PUSH2 0x12D0 ADD MSTORE PUSH2 0x1C5C ADD MSTORE PUSH1 0x0 DUP2 DUP2 PUSH2 0x1197 ADD MSTORE DUP2 DUP2 PUSH2 0x144C ADD MSTORE PUSH2 0x229F ADD MSTORE PUSH2 0x4790 PUSH1 0x0 RETURN INVALID PUSH1 0x80 PUSH1 0x40 MSTORE PUSH1 0x4 CALLDATASIZE LT PUSH2 0x19B JUMPI PUSH1 0x0 CALLDATALOAD PUSH1 0xE0 SHR DUP1 PUSH4 0x8D8F2ADB GT PUSH2 0xEC JUMPI DUP1 PUSH4 0xAA8C217C GT PUSH2 0x8A JUMPI DUP1 PUSH4 0xC87B56DD GT PUSH2 0x64 JUMPI DUP1 PUSH4 0xC87B56DD EQ PUSH2 0x5CF JUMPI DUP1 PUSH4 0xD85D3D27 EQ PUSH2 0x60C JUMPI DUP1 PUSH4 0xE985E9C5 EQ PUSH2 0x649 JUMPI DUP1 PUSH4 0xF958AADA EQ PUSH2 0x686 JUMPI PUSH2 0x19B JUMP JUMPDEST DUP1 PUSH4 0xAA8C217C EQ PUSH2 0x538 JUMPI DUP1 PUSH4 0xB88D4FDE EQ PUSH2 0x563 JUMPI DUP1 PUSH4 0xBFB231D2 EQ PUSH2 0x58C JUMPI PUSH2 0x19B JUMP JUMPDEST DUP1 PUSH4 0x9E70B75C GT PUSH2 0xC6 JUMPI DUP1 PUSH4 0x9E70B75C EQ PUSH2 0x49F JUMPI DUP1 PUSH4 0x9E8E4D1D EQ PUSH2 0x4C8 JUMPI DUP1 PUSH4 0x9F37092A EQ PUSH2 0x4F3 JUMPI DUP1 PUSH4 0xA22CB465 EQ PUSH2 0x50F JUMPI PUSH2 0x19B JUMP JUMPDEST DUP1 PUSH4 0x8D8F2ADB EQ PUSH2 0x432 JUMPI DUP1 PUSH4 0x95D89B41 EQ PUSH2 0x449 JUMPI DUP1 PUSH4 0x98BDF6F5 EQ PUSH2 0x474 JUMPI PUSH2 0x19B JUMP JUMPDEST DUP1 PUSH4 0x23B872DD GT PUSH2 0x159 JUMPI DUP1 PUSH4 0x5DAB2420 GT PUSH2 0x133 JUMPI DUP1 PUSH4 0x5DAB2420 EQ PUSH2 0x364 JUMPI DUP1 PUSH4 0x6352211E EQ PUSH2 0x38F JUMPI DUP1 PUSH4 0x68915327 EQ PUSH2 0x3CC JUMPI DUP1 PUSH4 0x70A08231 EQ PUSH2 0x3F5 JUMPI PUSH2 0x19B JUMP JUMPDEST DUP1 PUSH4 0x23B872DD EQ PUSH2 0x2D4 JUMPI DUP1 PUSH4 0x42842E0E EQ PUSH2 0x2FD JUMPI DUP1 PUSH4 0x4F64B2BE EQ PUSH2 0x326 JUMPI PUSH2 0x19B JUMP JUMPDEST DUP1 PUSH3 0x23DE29 EQ PUSH2 0x1A0 JUMPI DUP1 PUSH4 0x1FFC9A7 EQ PUSH2 0x1C9 JUMPI DUP1 PUSH4 0x6FDDE03 EQ PUSH2 0x206 JUMPI DUP1 PUSH4 0x81812FC EQ PUSH2 0x231 JUMPI DUP1 PUSH4 0x95EA7B3 EQ PUSH2 0x26E JUMPI DUP1 PUSH4 0x170E2B8A EQ PUSH2 0x297 JUMPI JUMPDEST PUSH1 0x0 DUP1 REVERT JUMPDEST CALLVALUE DUP1 ISZERO PUSH2 0x1AC JUMPI PUSH1 0x0 DUP1 REVERT JUMPDEST POP PUSH2 0x1C7 PUSH1 0x4 DUP1 CALLDATASIZE SUB DUP2 ADD SWAP1 PUSH2 0x1C2 SWAP2 SWAP1 PUSH2 0x2CDB JUMP JUMPDEST PUSH2 0x6B1 JUMP JUMPDEST STOP JUMPDEST CALLVALUE DUP1 ISZERO PUSH2 0x1D5 JUMPI PUSH1 0x0 DUP1 REVERT JUMPDEST POP PUSH2 0x1F0 PUSH1 0x4 DUP1 CALLDATASIZE SUB DUP2 ADD SWAP1 PUSH2 0x1EB SWAP2 SWAP1 PUSH2 0x2E02 JUMP JUMPDEST PUSH2 0x6D4 JUMP JUMPDEST PUSH1 0x40 MLOAD PUSH2 0x1FD SWAP2 SWAP1 PUSH2 0x2E4A JUMP JUMPDEST PUSH1 0x40 MLOAD DUP1 SWAP2 SUB SWAP1 RETURN JUMPDEST CALLVALUE DUP1 ISZERO PUSH2 0x212 JUMPI PUSH1 0x0 DUP1 REVERT JUMPDEST POP PUSH2 0x21B PUSH2 0x7B6 JUMP JUMPDEST PUSH1 0x40 MLOAD PUSH2 0x228 SWAP2 SWAP1 PUSH2 0x2EFE JUMP JUMPDEST PUSH1 0x40 MLOAD DUP1 SWAP2 SUB SWAP1 RETURN JUMPDEST CALLVALUE DUP1 ISZERO PUSH2 0x23D JUMPI PUSH1 0x0 DUP1 REVERT JUMPDEST POP PUSH2 0x258 PUSH1 0x4 DUP1 CALLDATASIZE SUB DUP2 ADD SWAP1 PUSH2 0x253 SWAP2 SWAP1 PUSH2 0x2F20 JUMP JUMPDEST PUSH2 0x848 JUMP JUMPDEST PUSH1 0x40 MLOAD PUSH2 0x265 SWAP2 SWAP1 PUSH2 0x2F5C JUMP JUMPDEST PUSH1 0x40 MLOAD DUP1 SWAP2 SUB SWAP1 RETURN JUMPDEST CALLVALUE DUP1 ISZERO PUSH2 0x27A JUMPI PUSH1 0x0 DUP1 REVERT JUMPDEST POP PUSH2 0x295 PUSH1 0x4 DUP1 CALLDATASIZE SUB DUP2 ADD SWAP1 PUSH2 0x290 SWAP2 SWAP1 PUSH2 0x2F77 JUMP JUMPDEST PUSH2 0x88E JUMP JUMPDEST STOP JUMPDEST CALLVALUE DUP1 ISZERO PUSH2 0x2A3 JUMPI PUSH1 0x0 DUP1 REVERT JUMPDEST POP PUSH2 0x2BE PUSH1 0x4 DUP1 CALLDATASIZE SUB DUP2 ADD SWAP1 PUSH2 0x2B9 SWAP2 SWAP1 PUSH2 0x2FB7 JUMP JUMPDEST PUSH2 0x9A5 JUMP JUMPDEST PUSH1 0x40 MLOAD PUSH2 0x2CB SWAP2 SWAP1 PUSH2 0x2E4A JUMP JUMPDEST PUSH1 0x40 MLOAD DUP1 SWAP2 SUB SWAP1 RETURN JUMPDEST CALLVALUE DUP1 ISZERO PUSH2 0x2E0 JUMPI PUSH1 0x0 DUP1 REVERT JUMPDEST POP PUSH2 0x2FB PUSH1 0x4 DUP1 CALLDATASIZE SUB DUP2 ADD SWAP1 PUSH2 0x2F6 SWAP2 SWAP1 PUSH2 0x2FE4 JUMP JUMPDEST PUSH2 0x9C5 JUMP JUMPDEST STOP JUMPDEST CALLVALUE DUP1 ISZERO PUSH2 0x309 JUMPI PUSH1 0x0 DUP1 REVERT JUMPDEST POP PUSH2 0x324 PUSH1 0x4 DUP1 CALLDATASIZE SUB DUP2 ADD SWAP1 PUSH2 0x31F SWAP2 SWAP1 PUSH2 0x2FE4 JUMP JUMPDEST PUSH2 0xA25 JUMP JUMPDEST STOP JUMPDEST CALLVALUE DUP1 ISZERO PUSH2 0x332 JUMPI PUSH1 0x0 DUP1 REVERT JUMPDEST POP PUSH2 0x34D PUSH1 0x4 DUP1 CALLDATASIZE SUB DUP2 ADD SWAP1 PUSH2 0x348 SWAP2 SWAP1 PUSH2 0x2F20 JUMP JUMPDEST PUSH2 0xA45 JUMP JUMPDEST PUSH1 0x40 MLOAD PUSH2 0x35B SWAP3 SWAP2 SWAP1 PUSH2 0x3046 JUMP JUMPDEST PUSH1 0x40 MLOAD DUP1 SWAP2 SUB SWAP1 RETURN JUMPDEST CALLVALUE DUP1 ISZERO PUSH2 0x370 JUMPI PUSH1 0x0 DUP1 REVERT JUMPDEST POP PUSH2 0x379 PUSH2 0xAF1 JUMP JUMPDEST PUSH1 0x40 MLOAD PUSH2 0x386 SWAP2 SWAP1 PUSH2 0x2F5C JUMP JUMPDEST PUSH1 0x40 MLOAD DUP1 SWAP2 SUB SWAP1 RETURN JUMPDEST CALLVALUE DUP1 ISZERO PUSH2 0x39B JUMPI PUSH1 0x0 DUP1 REVERT JUMPDEST POP PUSH2 0x3B6 PUSH1 0x4 DUP1 CALLDATASIZE SUB DUP2 ADD SWAP1 PUSH2 0x3B1 SWAP2 SWAP1 PUSH2 0x2F20 JUMP JUMPDEST PUSH2 0xB15 JUMP JUMPDEST PUSH1 0x40 MLOAD PUSH2 0x3C3 SWAP2 SWAP1 PUSH2 0x2F5C JUMP JUMPDEST PUSH1 0x40 MLOAD DUP1 SWAP2 SUB SWAP1 RETURN JUMPDEST CALLVALUE DUP1 ISZERO PUSH2 0x3D8 JUMPI PUSH1 0x0 DUP1 REVERT JUMPDEST POP PUSH2 0x3F3 PUSH1 0x4 DUP1 CALLDATASIZE SUB DUP2 ADD SWAP1 PUSH2 0x3EE SWAP2 SWAP1 PUSH2 0x30B4 JUMP JUMPDEST PUSH2 0xBC6 JUMP JUMPDEST STOP JUMPDEST CALLVALUE DUP1 ISZERO PUSH2 0x401 JUMPI PUSH1 0x0 DUP1 REVERT JUMPDEST POP PUSH2 0x41C PUSH1 0x4 DUP1 CALLDATASIZE SUB DUP2 ADD SWAP1 PUSH2 0x417 SWAP2 SWAP1 PUSH2 0x2FB7 JUMP JUMPDEST PUSH2 0x100B JUMP JUMPDEST PUSH1 0x40 MLOAD PUSH2 0x429 SWAP2 SWAP1 PUSH2 0x3107 JUMP JUMPDEST PUSH1 0x40 MLOAD DUP1 SWAP2 SUB SWAP1 RETURN JUMPDEST CALLVALUE DUP1 ISZERO PUSH2 0x43E JUMPI PUSH1 0x0 DUP1 REVERT JUMPDEST POP PUSH2 0x447 PUSH2 0x10C2 JUMP JUMPDEST STOP JUMPDEST CALLVALUE DUP1 ISZERO PUSH2 0x455 JUMPI PUSH1 0x0 DUP1 REVERT JUMPDEST POP PUSH2 0x45E PUSH2 0x1230 JUMP JUMPDEST PUSH1 0x40 MLOAD PUSH2 0x46B SWAP2 SWAP1 PUSH2 0x2EFE JUMP JUMPDEST PUSH1 0x40 MLOAD DUP1 SWAP2 SUB SWAP1 RETURN JUMPDEST CALLVALUE DUP1 ISZERO PUSH2 0x480 JUMPI PUSH1 0x0 DUP1 REVERT JUMPDEST POP PUSH2 0x489 PUSH2 0x12C2 JUMP JUMPDEST PUSH1 0x40 MLOAD PUSH2 0x496 SWAP2 SWAP1 PUSH2 0x3107 JUMP JUMPDEST PUSH1 0x40 MLOAD DUP1 SWAP2 SUB SWAP1 RETURN JUMPDEST CALLVALUE DUP1 ISZERO PUSH2 0x4AB JUMPI PUSH1 0x0 DUP1 REVERT JUMPDEST POP PUSH2 0x4C6 PUSH1 0x4 DUP1 CALLDATASIZE SUB DUP2 ADD SWAP1 PUSH2 0x4C1 SWAP2 SWAP1 PUSH2 0x2FB7 JUMP JUMPDEST PUSH2 0x12CE JUMP JUMPDEST STOP JUMPDEST CALLVALUE DUP1 ISZERO PUSH2 0x4D4 JUMPI PUSH1 0x0 DUP1 REVERT JUMPDEST POP PUSH2 0x4DD PUSH2 0x144A JUMP JUMPDEST PUSH1 0x40 MLOAD PUSH2 0x4EA SWAP2 SWAP1 PUSH2 0x3181 JUMP JUMPDEST PUSH1 0x40 MLOAD DUP1 SWAP2 SUB SWAP1 RETURN JUMPDEST PUSH2 0x50D PUSH1 0x4 DUP1 CALLDATASIZE SUB DUP2 ADD SWAP1 PUSH2 0x508 SWAP2 SWAP1 PUSH2 0x2F77 JUMP JUMPDEST PUSH2 0x146E JUMP JUMPDEST STOP JUMPDEST CALLVALUE DUP1 ISZERO PUSH2 0x51B JUMPI PUSH1 0x0 DUP1 REVERT JUMPDEST POP PUSH2 0x536 PUSH1 0x4 DUP1 CALLDATASIZE SUB DUP2 ADD SWAP1 PUSH2 0x531 SWAP2 SWAP1 PUSH2 0x31C8 JUMP JUMPDEST PUSH2 0x19B1 JUMP JUMPDEST STOP JUMPDEST CALLVALUE DUP1 ISZERO PUSH2 0x544 JUMPI PUSH1 0x0 DUP1 REVERT JUMPDEST POP PUSH2 0x54D PUSH2 0x19C7 JUMP JUMPDEST PUSH1 0x40 MLOAD PUSH2 0x55A SWAP2 SWAP1 PUSH2 0x3107 JUMP JUMPDEST PUSH1 0x40 MLOAD DUP1 SWAP2 SUB SWAP1 RETURN JUMPDEST CALLVALUE DUP1 ISZERO PUSH2 0x56F JUMPI PUSH1 0x0 DUP1 REVERT JUMPDEST POP PUSH2 0x58A PUSH1 0x4 DUP1 CALLDATASIZE SUB DUP2 ADD SWAP1 PUSH2 0x585 SWAP2 SWAP1 PUSH2 0x3338 JUMP JUMPDEST PUSH2 0x19CD JUMP JUMPDEST STOP JUMPDEST CALLVALUE DUP1 ISZERO PUSH2 0x598 JUMPI PUSH1 0x0 DUP1 REVERT JUMPDEST POP PUSH2 0x5B3 PUSH1 0x4 DUP1 CALLDATASIZE SUB DUP2 ADD SWAP1 PUSH2 0x5AE SWAP2 SWAP1 PUSH2 0x2F20 JUMP JUMPDEST PUSH2 0x1A2F JUMP JUMPDEST PUSH1 0x40 MLOAD PUSH2 0x5C6 SWAP8 SWAP7 SWAP6 SWAP5 SWAP4 SWAP3 SWAP2 SWAP1 PUSH2 0x33FD JUMP JUMPDEST PUSH1 0x40 MLOAD DUP1 SWAP2 SUB SWAP1 RETURN JUMPDEST CALLVALUE DUP1 ISZERO PUSH2 0x5DB JUMPI PUSH1 0x0 DUP1 REVERT JUMPDEST POP PUSH2 0x5F6 PUSH1 0x4 DUP1 CALLDATASIZE SUB DUP2 ADD SWAP1 PUSH2 0x5F1 SWAP2 SWAP1 PUSH2 0x2F20 JUMP JUMPDEST PUSH2 0x1B46 JUMP JUMPDEST PUSH1 0x40 MLOAD PUSH2 0x603 SWAP2 SWAP1 PUSH2 0x2EFE JUMP JUMPDEST PUSH1 0x40 MLOAD DUP1 SWAP2 SUB SWAP1 RETURN JUMPDEST CALLVALUE DUP1 ISZERO PUSH2 0x618 JUMPI PUSH1 0x0 DUP1 REVERT JUMPDEST POP PUSH2 0x633 PUSH1 0x4 DUP1 CALLDATASIZE SUB DUP2 ADD SWAP1 PUSH2 0x62E SWAP2 SWAP1 PUSH2 0x3514 JUMP JUMPDEST PUSH2 0x1C58 JUMP JUMPDEST PUSH1 0x40 MLOAD PUSH2 0x640 SWAP2 SWAP1 PUSH2 0x3107 JUMP JUMPDEST PUSH1 0x40 MLOAD DUP1 SWAP2 SUB SWAP1 RETURN JUMPDEST CALLVALUE DUP1 ISZERO PUSH2 0x655 JUMPI PUSH1 0x0 DUP1 REVERT JUMPDEST POP PUSH2 0x670 PUSH1 0x4 DUP1 CALLDATASIZE SUB DUP2 ADD SWAP1 PUSH2 0x66B SWAP2 SWAP1 PUSH2 0x355D JUMP JUMPDEST PUSH2 0x1D68 JUMP JUMPDEST PUSH1 0x40 MLOAD PUSH2 0x67D SWAP2 SWAP1 PUSH2 0x2E4A JUMP JUMPDEST PUSH1 0x40 MLOAD DUP1 SWAP2 SUB SWAP1 RETURN JUMPDEST CALLVALUE DUP1 ISZERO PUSH2 0x692 JUMPI PUSH1 0x0 DUP1 REVERT JUMPDEST POP PUSH2 0x69B PUSH2 0x1DFC JUMP JUMPDEST PUSH1 0x40 MLOAD PUSH2 0x6A8 SWAP2 SWAP1 PUSH2 0x3107 JUMP JUMPDEST PUSH1 0x40 MLOAD DUP1 SWAP2 SUB SWAP1 RETURN JUMPDEST DUP5 PUSH1 0x8 PUSH1 0x0 DUP3 DUP3 SLOAD PUSH2 0x6C3 SWAP2 SWAP1 PUSH2 0x35CC JUMP JUMPDEST SWAP3 POP POP DUP2 SWAP1 SSTORE POP POP POP POP POP POP POP POP POP JUMP JUMPDEST PUSH1 0x0 PUSH32 0x80AC58CD00000000000000000000000000000000000000000000000000000000 PUSH28 0xFFFFFFFFFFFFFFFFFFFFFFFFFFFFFFFFFFFFFFFFFFFFFFFFFFFFFFFF NOT AND DUP3 PUSH28 0xFFFFFFFFFFFFFFFFFFFFFFFFFFFFFFFFFFFFFFFFFFFFFFFFFFFFFFFF NOT AND EQ DUP1 PUSH2 0x79F JUMPI POP PUSH32 0x5B5E139F00000000000000000000000000000000000000000000000000000000 PUSH28 0xFFFFFFFFFFFFFFFFFFFFFFFFFFFFFFFFFFFFFFFFFFFFFFFFFFFFFFFF NOT AND DUP3 PUSH28 0xFFFFFFFFFFFFFFFFFFFFFFFFFFFFFFFFFFFFFFFFFFFFFFFFFFFFFFFF NOT AND EQ JUMPDEST DUP1 PUSH2 0x7AF JUMPI POP PUSH2 0x7AE DUP3 PUSH2 0x1E08 JUMP JUMPDEST JUMPDEST SWAP1 POP SWAP2 SWAP1 POP JUMP JUMPDEST PUSH1 0x60 PUSH1 0x0 DUP1 SLOAD PUSH2 0x7C5 SWAP1 PUSH2 0x3651 JUMP JUMPDEST DUP1 PUSH1 0x1F ADD PUSH1 0x20 DUP1 SWAP2 DIV MUL PUSH1 0x20 ADD PUSH1 0x40 MLOAD SWAP1 DUP2 ADD PUSH1 0x40 MSTORE DUP1 SWAP3 SWAP2 SWAP1 DUP2 DUP2 MSTORE PUSH1 0x20 ADD DUP3 DUP1 SLOAD PUSH2 0x7F1 SWAP1 PUSH2 0x3651 JUMP JUMPDEST DUP1 ISZERO PUSH2 0x83E JUMPI DUP1 PUSH1 0x1F LT PUSH2 0x813 JUMPI PUSH2 0x100 DUP1 DUP4 SLOAD DIV MUL DUP4 MSTORE SWAP2 PUSH1 0x20 ADD SWAP2 PUSH2 0x83E JUMP JUMPDEST DUP3 ADD SWAP2 SWAP1 PUSH1 0x0 MSTORE PUSH1 0x20 PUSH1 0x0 KECCAK256 SWAP1 JUMPDEST DUP2 SLOAD DUP2 MSTORE SWAP1 PUSH1 0x1 ADD SWAP1 PUSH1 0x20 ADD DUP1 DUP4 GT PUSH2 0x821 JUMPI DUP3 SWAP1 SUB PUSH1 0x1F AND DUP3 ADD SWAP2 JUMPDEST POP POP POP POP POP SWAP1 POP SWAP1 JUMP JUMPDEST PUSH1 0x0 PUSH2 0x853 DUP3 PUSH2 0x1E72 JUMP JUMPDEST PUSH1 0x4 PUSH1 0x0 DUP4 DUP2 MSTORE PUSH1 0x20 ADD SWAP1 DUP2 MSTORE PUSH1 0x20 ADD PUSH1 0x0 KECCAK256 PUSH1 0x0 SWAP1 SLOAD SWAP1 PUSH2 0x100 EXP SWAP1 DIV PUSH20 0xFFFFFFFFFFFFFFFFFFFFFFFFFFFFFFFFFFFFFFFF AND SWAP1 POP SWAP2 SWAP1 POP JUMP JUMPDEST PUSH1 0x0 PUSH2 0x899 DUP3 PUSH2 0xB15 JUMP JUMPDEST SWAP1 POP DUP1 PUSH20 0xFFFFFFFFFFFFFFFFFFFFFFFFFFFFFFFFFFFFFFFF AND DUP4 PUSH20 0xFFFFFFFFFFFFFFFFFFFFFFFFFFFFFFFFFFFFFFFF AND SUB PUSH2 0x909 JUMPI PUSH1 0x40 MLOAD PUSH32 0x8C379A000000000000000000000000000000000000000000000000000000000 DUP2 MSTORE PUSH1 0x4 ADD PUSH2 0x900 SWAP1 PUSH2 0x36F4 JUMP JUMPDEST PUSH1 0x40 MLOAD DUP1 SWAP2 SUB SWAP1 REVERT JUMPDEST DUP1 PUSH20 0xFFFFFFFFFFFFFFFFFFFFFFFFFFFFFFFFFFFFFFFF AND PUSH2 0x928 PUSH2 0x1EBD JUMP JUMPDEST PUSH20 0xFFFFFFFFFFFFFFFFFFFFFFFFFFFFFFFFFFFFFFFF AND EQ DUP1 PUSH2 0x957 JUMPI POP PUSH2 0x956 DUP2 PUSH2 0x951 PUSH2 0x1EBD JUMP JUMPDEST PUSH2 0x1D68 JUMP JUMPDEST JUMPDEST PUSH2 0x996 JUMPI PUSH1 0x40 MLOAD PUSH32 0x8C379A000000000000000000000000000000000000000000000000000000000 DUP2 MSTORE PUSH1 0x4 ADD PUSH2 0x98D SWAP1 PUSH2 0x3786 JUMP JUMPDEST PUSH1 0x40 MLOAD DUP1 SWAP2 SUB SWAP1 REVERT JUMPDEST PUSH2 0x9A0 DUP4 DUP4 PUSH2 0x1EC5 JUMP JUMPDEST POP POP POP JUMP JUMPDEST PUSH1 0xD PUSH1 0x20 MSTORE DUP1 PUSH1 0x0 MSTORE PUSH1 0x40 PUSH1 0x0 KECCAK256 PUSH1 0x0 SWAP2 POP SLOAD SWAP1 PUSH2 0x100 EXP SWAP1 DIV PUSH1 0xFF AND DUP2 JUMP JUMPDEST PUSH2 0x9D6 PUSH2 0x9D0 PUSH2 0x1EBD JUMP JUMPDEST DUP3 PUSH2 0x1F7E JUMP JUMPDEST PUSH2 0xA15 JUMPI PUSH1 0x40 MLOAD PUSH32 0x8C379A000000000000000000000000000000000000000000000000000000000 DUP2 MSTORE PUSH1 0x4 ADD PUSH2 0xA0C SWAP1 PUSH2 0x3818 JUMP JUMPDEST PUSH1 0x40 MLOAD DUP1 SWAP2 SUB SWAP1 REVERT JUMPDEST PUSH2 0xA20 DUP4 DUP4 DUP4 PUSH2 0x2013 JUMP JUMPDEST POP POP POP JUMP JUMPDEST PUSH2 0xA40 DUP4 DUP4 DUP4 PUSH1 0x40 MLOAD DUP1 PUSH1 0x20 ADD PUSH1 0x40 MSTORE DUP1 PUSH1 0x0 DUP2 MSTORE POP PUSH2 0x19CD JUMP JUMPDEST POP POP POP JUMP JUMPDEST PUSH1 0xC PUSH1 0x20 MSTORE DUP1 PUSH1 0x0 MSTORE PUSH1 0x40 PUSH1 0x0 KECCAK256 PUSH1 0x0 SWAP2 POP SWAP1 POP DUP1 PUSH1 0x0 ADD SLOAD SWAP1 DUP1 PUSH1 0x1 ADD DUP1 SLOAD PUSH2 0xA6E SWAP1 PUSH2 0x3651 JUMP JUMPDEST DUP1 PUSH1 0x1F ADD PUSH1 0x20 DUP1 SWAP2 DIV MUL PUSH1 0x20 ADD PUSH1 0x40 MLOAD SWAP1 DUP2 ADD PUSH1 0x40 MSTORE DUP1 SWAP3 SWAP2 SWAP1 DUP2 DUP2 MSTORE PUSH1 0x20 ADD DUP3 DUP1 SLOAD PUSH2 0xA9A SWAP1 PUSH2 0x3651 JUMP JUMPDEST DUP1 ISZERO PUSH2 0xAE7 JUMPI DUP1 PUSH1 0x1F LT PUSH2 0xABC JUMPI PUSH2 0x100 DUP1 DUP4 SLOAD DIV MUL DUP4 MSTORE SWAP2 PUSH1 0x20 ADD SWAP2 PUSH2 0xAE7 JUMP JUMPDEST DUP3 ADD SWAP2 SWAP1 PUSH1 0x0 MSTORE PUSH1 0x20 PUSH1 0x0 KECCAK256 SWAP1 JUMPDEST DUP2 SLOAD DUP2 MSTORE SWAP1 PUSH1 0x1 ADD SWAP1 PUSH1 0x20 ADD DUP1 DUP4 GT PUSH2 0xACA JUMPI DUP3 SWAP1 SUB PUSH1 0x1F AND DUP3 ADD SWAP2 JUMPDEST POP POP POP POP POP SWAP1 POP DUP3 JUMP JUMPDEST PUSH32 0x0 DUP2 JUMP JUMPDEST PUSH1 0x0 DUP1 PUSH1 0x2 PUSH1 0x0 DUP5 DUP2 MSTORE PUSH1 0x20 ADD SWAP1 DUP2 MSTORE PUSH1 0x20 ADD PUSH1 0x0 KECCAK256 PUSH1 0x0 SWAP1 SLOAD SWAP1 PUSH2 0x100 EXP SWAP1 DIV PUSH20 0xFFFFFFFFFFFFFFFFFFFFFFFFFFFFFFFFFFFFFFFF AND SWAP1 POP PUSH1 0x0 PUSH20 0xFFFFFFFFFFFFFFFFFFFFFFFFFFFFFFFFFFFFFFFF AND DUP2 PUSH20 0xFFFFFFFFFFFFFFFFFFFFFFFFFFFFFFFFFFFFFFFF AND SUB PUSH2 0xBBD JUMPI PUSH1 0x40 MLOAD PUSH32 0x8C379A000000000000000000000000000000000000000000000000000000000 DUP2 MSTORE PUSH1 0x4 ADD PUSH2 0xBB4 SWAP1 PUSH2 0x3884 JUMP JUMPDEST PUSH1 0x40 MLOAD DUP1 SWAP2 SUB SWAP1 REVERT JUMPDEST DUP1 SWAP2 POP POP SWAP2 SWAP1 POP JUMP JUMPDEST PUSH32 0x0 PUSH20 0xFFFFFFFFFFFFFFFFFFFFFFFFFFFFFFFFFFFFFFFF AND CALLER PUSH20 0xFFFFFFFFFFFFFFFFFFFFFFFFFFFFFFFFFFFFFFFF AND EQ PUSH2 0xC54 JUMPI PUSH1 0x40 MLOAD PUSH32 0x8C379A000000000000000000000000000000000000000000000000000000000 DUP2 MSTORE PUSH1 0x4 ADD PUSH2 0xC4B SWAP1 PUSH2 0x3916 JUMP JUMPDEST PUSH1 0x40 MLOAD DUP1 SWAP2 SUB SWAP1 REVERT JUMPDEST PUSH1 0x2 PUSH1 0x7 SLOAD SUB PUSH2 0xC99 JUMPI PUSH1 0x40 MLOAD PUSH32 0x8C379A000000000000000000000000000000000000000000000000000000000 DUP2 MSTORE PUSH1 0x4 ADD PUSH2 0xC90 SWAP1 PUSH2 0x3982 JUMP JUMPDEST PUSH1 0x40 MLOAD DUP1 SWAP2 SUB SWAP1 REVERT JUMPDEST PUSH1 0x2 PUSH1 0x7 DUP2 SWAP1 SSTORE POP PUSH1 0x0 DUP2 GT PUSH2 0xCE4 JUMPI PUSH1 0x40 MLOAD PUSH32 0x8C379A000000000000000000000000000000000000000000000000000000000 DUP2 MSTORE PUSH1 0x4 ADD PUSH2 0xCDB SWAP1 PUSH2 0x39EE JUMP JUMPDEST PUSH1 0x40 MLOAD DUP1 SWAP2 SUB SWAP1 REVERT JUMPDEST PUSH2 0xCEE PUSH1 0x9 PUSH2 0x2279 JUMP JUMPDEST PUSH1 0x0 PUSH2 0xCFA PUSH1 0x9 PUSH2 0x228F JUMP JUMPDEST SWAP1 POP DUP4 PUSH20 0xFFFFFFFFFFFFFFFFFFFFFFFFFFFFFFFFFFFFFFFF AND PUSH4 0x23B872DD CALLER ADDRESS DUP7 PUSH1 0x40 MLOAD DUP5 PUSH4 0xFFFFFFFF AND PUSH1 0xE0 SHL DUP2 MSTORE PUSH1 0x4 ADD PUSH2 0xD39 SWAP4 SWAP3 SWAP2 SWAP1 PUSH2 0x3A0E JUMP JUMPDEST PUSH1 0x0 PUSH1 0x40 MLOAD DUP1 DUP4 SUB DUP2 PUSH1 0x0 DUP8 DUP1 EXTCODESIZE ISZERO DUP1 ISZERO PUSH2 0xD53 JUMPI PUSH1 0x0 DUP1 REVERT JUMPDEST POP GAS CALL ISZERO DUP1 ISZERO PUSH2 0xD67 JUMPI RETURNDATASIZE PUSH1 0x0 DUP1 RETURNDATACOPY RETURNDATASIZE PUSH1 0x0 REVERT JUMPDEST POP POP POP POP PUSH1 0x0 PUSH1 0xC PUSH1 0x0 DUP6 DUP2 MSTORE PUSH1 0x20 ADD SWAP1 DUP2 MSTORE PUSH1 0x20 ADD PUSH1 0x0 KECCAK256 PUSH1 0x40 MLOAD DUP1 PUSH1 0x40 ADD PUSH1 0x40 MSTORE SWAP1 DUP2 PUSH1 0x0 DUP3 ADD SLOAD DUP2 MSTORE PUSH1 0x20 ADD PUSH1 0x1 DUP3 ADD DUP1 SLOAD PUSH2 0xDA5 SWAP1 PUSH2 0x3651 JUMP JUMPDEST DUP1 PUSH1 0x1F ADD PUSH1 0x20 DUP1 SWAP2 DIV MUL PUSH1 0x20 ADD PUSH1 0x40 MLOAD SWAP1 DUP2 ADD PUSH1 0x40 MSTORE DUP1 SWAP3 SWAP2 SWAP1 DUP2 DUP2 MSTORE PUSH1 0x20 ADD DUP3 DUP1 SLOAD PUSH2 0xDD1 SWAP1 PUSH2 0x3651 JUMP JUMPDEST DUP1 ISZERO PUSH2 0xE1E JUMPI DUP1 PUSH1 0x1F LT PUSH2 0xDF3 JUMPI PUSH2 0x100 DUP1 DUP4 SLOAD DIV MUL DUP4 MSTORE SWAP2 PUSH1 0x20 ADD SWAP2 PUSH2 0xE1E JUMP JUMPDEST DUP3 ADD SWAP2 SWAP1 PUSH1 0x0 MSTORE PUSH1 0x20 PUSH1 0x0 KECCAK256 SWAP1 JUMPDEST DUP2 SLOAD DUP2 MSTORE SWAP1 PUSH1 0x1 ADD SWAP1 PUSH1 0x20 ADD DUP1 DUP4 GT PUSH2 0xE01 JUMPI DUP3 SWAP1 SUB PUSH1 0x1F AND DUP3 ADD SWAP2 JUMPDEST POP POP POP POP POP DUP2 MSTORE POP POP SWAP1 POP PUSH1 0x0 PUSH1 0x40 MLOAD DUP1 PUSH1 0xE0 ADD PUSH1 0x40 MSTORE DUP1 DUP5 DUP2 MSTORE PUSH1 0x20 ADD DUP8 PUSH20 0xFFFFFFFFFFFFFFFFFFFFFFFFFFFFFFFFFFFFFFFF AND DUP2 MSTORE PUSH1 0x20 ADD DUP7 DUP2 MSTORE PUSH1 0x20 ADD DUP4 PUSH1 0x20 ADD MLOAD DUP2 MSTORE PUSH1 0x20 ADD DUP6 DUP2 MSTORE PUSH1 0x20 ADD PUSH1 0x0 ISZERO ISZERO DUP2 MSTORE PUSH1 0x20 ADD CALLER PUSH20 0xFFFFFFFFFFFFFFFFFFFFFFFFFFFFFFFFFFFFFFFF AND DUP2 MSTORE POP SWAP1 POP DUP1 PUSH1 0xB PUSH1 0x0 DUP6 DUP2 MSTORE PUSH1 0x20 ADD SWAP1 DUP2 MSTORE PUSH1 0x20 ADD PUSH1 0x0 KECCAK256 PUSH1 0x0 DUP3 ADD MLOAD DUP2 PUSH1 0x0 ADD SSTORE PUSH1 0x20 DUP3 ADD MLOAD DUP2 PUSH1 0x1 ADD PUSH1 0x0 PUSH2 0x100 EXP DUP2 SLOAD DUP2 PUSH20 0xFFFFFFFFFFFFFFFFFFFFFFFFFFFFFFFFFFFFFFFF MUL NOT AND SWAP1 DUP4 PUSH20 0xFFFFFFFFFFFFFFFFFFFFFFFFFFFFFFFFFFFFFFFF AND MUL OR SWAP1 SSTORE POP PUSH1 0x40 DUP3 ADD MLOAD DUP2 PUSH1 0x2 ADD SSTORE PUSH1 0x60 DUP3 ADD MLOAD DUP2 PUSH1 0x3 ADD SWAP1 DUP2 PUSH2 0xF17 SWAP2 SWAP1 PUSH2 0x3BE7 JUMP JUMPDEST POP PUSH1 0x80 DUP3 ADD MLOAD DUP2 PUSH1 0x4 ADD SSTORE PUSH1 0xA0 DUP3 ADD MLOAD DUP2 PUSH1 0x5 ADD PUSH1 0x0 PUSH2 0x100 EXP DUP2 SLOAD DUP2 PUSH1 0xFF MUL NOT AND SWAP1 DUP4 ISZERO ISZERO MUL OR SWAP1 SSTORE POP PUSH1 0xC0 DUP3 ADD MLOAD DUP2 PUSH1 0x5 ADD PUSH1 0x1 PUSH2 0x100 EXP DUP2 SLOAD DUP2 PUSH20 0xFFFFFFFFFFFFFFFFFFFFFFFFFFFFFFFFFFFFFFFF MUL NOT AND SWAP1 DUP4 PUSH20 0xFFFFFFFFFFFFFFFFFFFFFFFFFFFFFFFFFFFFFFFF AND MUL OR SWAP1 SSTORE POP SWAP1 POP POP CALLER PUSH20 0xFFFFFFFFFFFFFFFFFFFFFFFFFFFFFFFFFFFFFFFF AND DUP7 PUSH20 0xFFFFFFFFFFFFFFFFFFFFFFFFFFFFFFFFFFFFFFFF AND PUSH32 0xFBB702AF9404F72D4778D0A1A80C9C80E330025CF49EFC62679BF95F636A4BE7 DUP6 DUP9 DUP7 PUSH1 0x20 ADD MLOAD DUP10 PUSH1 0x40 MLOAD PUSH2 0xFF3 SWAP5 SWAP4 SWAP3 SWAP2 SWAP1 PUSH2 0x3CB9 JUMP JUMPDEST PUSH1 0x40 MLOAD DUP1 SWAP2 SUB SWAP1 LOG3 POP POP POP PUSH1 0x1 PUSH1 0x7 DUP2 SWAP1 SSTORE POP POP POP POP JUMP JUMPDEST PUSH1 0x0 DUP1 PUSH20 0xFFFFFFFFFFFFFFFFFFFFFFFFFFFFFFFFFFFFFFFF AND DUP3 PUSH20 0xFFFFFFFFFFFFFFFFFFFFFFFFFFFFFFFFFFFFFFFF AND SUB PUSH2 0x107B JUMPI PUSH1 0x40 MLOAD PUSH32 0x8C379A000000000000000000000000000000000000000000000000000000000 DUP2 MSTORE PUSH1 0x4 ADD PUSH2 0x1072 SWAP1 PUSH2 0x3D77 JUMP JUMPDEST PUSH1 0x40 MLOAD DUP1 SWAP2 SUB SWAP1 REVERT JUMPDEST PUSH1 0x3 PUSH1 0x0 DUP4 PUSH20 0xFFFFFFFFFFFFFFFFFFFFFFFFFFFFFFFFFFFFFFFF AND PUSH20 0xFFFFFFFFFFFFFFFFFFFFFFFFFFFFFFFFFFFFFFFF AND DUP2 MSTORE PUSH1 0x20 ADD SWAP1 DUP2 MSTORE PUSH1 0x20 ADD PUSH1 0x0 KECCAK256 SLOAD SWAP1 POP SWAP2 SWAP1 POP JUMP JUMPDEST PUSH32 0x0 PUSH20 0xFFFFFFFFFFFFFFFFFFFFFFFFFFFFFFFFFFFFFFFF AND CALLER PUSH20 0xFFFFFFFFFFFFFFFFFFFFFFFFFFFFFFFFFFFFFFFF AND EQ PUSH2 0x1150 JUMPI PUSH1 0x40 MLOAD PUSH32 0x8C379A000000000000000000000000000000000000000000000000000000000 DUP2 MSTORE PUSH1 0x4 ADD PUSH2 0x1147 SWAP1 PUSH2 0x3916 JUMP JUMPDEST PUSH1 0x40 MLOAD DUP1 SWAP2 SUB SWAP1 REVERT JUMPDEST PUSH1 0x0 PUSH1 0x8 SLOAD GT PUSH2 0x1195 JUMPI PUSH1 0x40 MLOAD PUSH32 0x8C379A000000000000000000000000000000000000000000000000000000000 DUP2 MSTORE PUSH1 0x4 ADD PUSH2 0x118C SWAP1 PUSH2 0x3DE3 JUMP JUMPDEST PUSH1 0x40 MLOAD DUP1 SWAP2 SUB SWAP1 REVERT JUMPDEST PUSH32 0x0 PUSH20 0xFFFFFFFFFFFFFFFFFFFFFFFFFFFFFFFFFFFFFFFF AND PUSH4 0x62AD1B83 ADDRESS CALLER PUSH1 0x8 SLOAD PUSH1 0x40 MLOAD DUP5 PUSH4 0xFFFFFFFF AND PUSH1 0xE0 SHL DUP2 MSTORE PUSH1 0x4 ADD PUSH2 0x11F4 SWAP4 SWAP3 SWAP2 SWAP1 PUSH2 0x3E3A JUMP JUMPDEST PUSH1 0x0 PUSH1 0x40 MLOAD DUP1 DUP4 SUB DUP2 PUSH1 0x0 DUP8 DUP1 EXTCODESIZE ISZERO DUP1 ISZERO PUSH2 0x120E JUMPI PUSH1 0x0 DUP1 REVERT JUMPDEST POP GAS CALL ISZERO DUP1 ISZERO PUSH2 0x1222 JUMPI RETURNDATASIZE PUSH1 0x0 DUP1 RETURNDATACOPY RETURNDATASIZE PUSH1 0x0 REVERT JUMPDEST POP POP POP POP PUSH1 0x0 PUSH1 0x8 DUP2 SWAP1 SSTORE POP JUMP JUMPDEST PUSH1 0x60 PUSH1 0x1 DUP1 SLOAD PUSH2 0x123F SWAP1 PUSH2 0x3651 JUMP JUMPDEST DUP1 PUSH1 0x1F ADD PUSH1 0x20 DUP1 SWAP2 DIV MUL PUSH1 0x20 ADD PUSH1 0x40 MLOAD SWAP1 DUP2 ADD PUSH1 0x40 MSTORE DUP1 SWAP3 SWAP2 SWAP1 DUP2 DUP2 MSTORE PUSH1 0x20 ADD DUP3 DUP1 SLOAD PUSH2 0x126B SWAP1 PUSH2 0x3651 JUMP JUMPDEST DUP1 ISZERO PUSH2 0x12B8 JUMPI DUP1 PUSH1 0x1F LT PUSH2 0x128D JUMPI PUSH2 0x100 DUP1 DUP4 SLOAD DIV MUL DUP4 MSTORE SWAP2 PUSH1 0x20 ADD SWAP2 PUSH2 0x12B8 JUMP JUMPDEST DUP3 ADD SWAP2 SWAP1 PUSH1 0x0 MSTORE PUSH1 0x20 PUSH1 0x0 KECCAK256 SWAP1 JUMPDEST DUP2 SLOAD DUP2 MSTORE SWAP1 PUSH1 0x1 ADD SWAP1 PUSH1 0x20 ADD DUP1 DUP4 GT PUSH2 0x129B JUMPI DUP3 SWAP1 SUB PUSH1 0x1F AND DUP3 ADD SWAP2 JUMPDEST POP POP POP POP POP SWAP1 POP SWAP1 JUMP JUMPDEST PUSH1 0xA DUP1 PUSH1 0x0 ADD SLOAD SWAP1 POP DUP2 JUMP JUMPDEST PUSH32 0x0 PUSH20 0xFFFFFFFFFFFFFFFFFFFFFFFFFFFFFFFFFFFFFFFF AND CALLER PUSH20 0xFFFFFFFFFFFFFFFFFFFFFFFFFFFFFFFFFFFFFFFF AND EQ PUSH2 0x135C JUMPI PUSH1 0x40 MLOAD PUSH32 0x8C379A000000000000000000000000000000000000000000000000000000000 DUP2 MSTORE PUSH1 0x4 ADD PUSH2 0x1353 SWAP1 PUSH2 0x3916 JUMP JUMPDEST PUSH1 0x40 MLOAD DUP1 SWAP2 SUB SWAP1 REVERT JUMPDEST PUSH1 0x0 ISZERO ISZERO PUSH1 0xD PUSH1 0x0 DUP4 PUSH20 0xFFFFFFFFFFFFFFFFFFFFFFFFFFFFFFFFFFFFFFFF AND PUSH20 0xFFFFFFFFFFFFFFFFFFFFFFFFFFFFFFFFFFFFFFFF AND DUP2 MSTORE PUSH1 0x20 ADD SWAP1 DUP2 MSTORE PUSH1 0x20 ADD PUSH1 0x0 KECCAK256 PUSH1 0x0 SWAP1 SLOAD SWAP1 PUSH2 0x100 EXP SWAP1 DIV PUSH1 0xFF AND ISZERO ISZERO EQ PUSH2 0x13EF JUMPI PUSH1 0x40 MLOAD PUSH32 0x8C379A000000000000000000000000000000000000000000000000000000000 DUP2 MSTORE PUSH1 0x4 ADD PUSH2 0x13E6 SWAP1 PUSH2 0x3EE3 JUMP JUMPDEST PUSH1 0x40 MLOAD DUP1 SWAP2 SUB SWAP1 REVERT JUMPDEST PUSH1 0x1 PUSH1 0xD PUSH1 0x0 DUP4 PUSH20 0xFFFFFFFFFFFFFFFFFFFFFFFFFFFFFFFFFFFFFFFF AND PUSH20 0xFFFFFFFFFFFFFFFFFFFFFFFFFFFFFFFFFFFFFFFF AND DUP2 MSTORE PUSH1 0x20 ADD SWAP1 DUP2 MSTORE PUSH1 0x20 ADD PUSH1 0x0 KECCAK256 PUSH1 0x0 PUSH2 0x100 EXP DUP2 SLOAD DUP2 PUSH1 0xFF MUL NOT AND SWAP1 DUP4 ISZERO ISZERO MUL OR SWAP1 SSTORE POP POP JUMP JUMPDEST PUSH32 0x0 DUP2 JUMP JUMPDEST PUSH1 0x2 PUSH1 0x7 SLOAD SUB PUSH2 0x14B3 JUMPI PUSH1 0x40 MLOAD PUSH32 0x8C379A000000000000000000000000000000000000000000000000000000000 DUP2 MSTORE PUSH1 0x4 ADD PUSH2 0x14AA SWAP1 PUSH2 0x3982 JUMP JUMPDEST PUSH1 0x40 MLOAD DUP1 SWAP2 SUB SWAP1 REVERT JUMPDEST PUSH1 0x2 PUSH1 0x7 DUP2 SWAP1 SSTORE POP PUSH1 0x0 PUSH1 0xB PUSH1 0x0 DUP4 DUP2 MSTORE PUSH1 0x20 ADD SWAP1 DUP2 MSTORE PUSH1 0x20 ADD PUSH1 0x0 KECCAK256 PUSH1 0x4 ADD SLOAD SWAP1 POP PUSH1 0x0 PUSH1 0xB PUSH1 0x0 DUP5 DUP2 MSTORE PUSH1 0x20 ADD SWAP1 DUP2 MSTORE PUSH1 0x20 ADD PUSH1 0x0 KECCAK256 SWAP1 POP PUSH1 0x1 ISZERO ISZERO PUSH1 0xD PUSH1 0x0 DUP7 PUSH20 0xFFFFFFFFFFFFFFFFFFFFFFFFFFFFFFFFFFFFFFFF AND PUSH20 0xFFFFFFFFFFFFFFFFFFFFFFFFFFFFFFFFFFFFFFFF AND DUP2 MSTORE PUSH1 0x20 ADD SWAP1 DUP2 MSTORE PUSH1 0x20 ADD PUSH1 0x0 KECCAK256 PUSH1 0x0 SWAP1 SLOAD SWAP1 PUSH2 0x100 EXP SWAP1 DIV PUSH1 0xFF AND ISZERO ISZERO EQ PUSH2 0x1580 JUMPI PUSH1 0x40 MLOAD PUSH32 0x8C379A000000000000000000000000000000000000000000000000000000000 DUP2 MSTORE PUSH1 0x4 ADD PUSH2 0x1577 SWAP1 PUSH2 0x3F4F JUMP JUMPDEST PUSH1 0x40 MLOAD DUP1 SWAP2 SUB SWAP1 REVERT JUMPDEST DUP2 DUP5 PUSH20 0xFFFFFFFFFFFFFFFFFFFFFFFFFFFFFFFFFFFFFFFF AND PUSH4 0xF38E266A CALLER PUSH1 0x40 MLOAD DUP3 PUSH4 0xFFFFFFFF AND PUSH1 0xE0 SHL DUP2 MSTORE PUSH1 0x4 ADD PUSH2 0x15BA SWAP2 SWAP1 PUSH2 0x2F5C JUMP JUMPDEST PUSH1 0x20 PUSH1 0x40 MLOAD DUP1 DUP4 SUB DUP2 DUP7 GAS STATICCALL ISZERO DUP1 ISZERO PUSH2 0x15D7 JUMPI RETURNDATASIZE PUSH1 0x0 DUP1 RETURNDATACOPY RETURNDATASIZE PUSH1 0x0 REVERT JUMPDEST POP POP POP POP PUSH1 0x40 MLOAD RETURNDATASIZE PUSH1 0x1F NOT PUSH1 0x1F DUP3 ADD AND DUP3 ADD DUP1 PUSH1 0x40 MSTORE POP DUP2 ADD SWAP1 PUSH2 0x15FB SWAP2 SWAP1 PUSH2 0x3F84 JUMP JUMPDEST GT PUSH2 0x163B JUMPI PUSH1 0x40 MLOAD PUSH32 0x8C379A000000000000000000000000000000000000000000000000000000000 DUP2 MSTORE PUSH1 0x4 ADD PUSH2 0x1632 SWAP1 PUSH2 0x3FFD JUMP JUMPDEST PUSH1 0x40 MLOAD DUP1 SWAP2 SUB SWAP1 REVERT JUMPDEST PUSH1 0x0 DUP4 GT DUP1 ISZERO PUSH2 0x1654 JUMPI POP PUSH2 0x1650 PUSH1 0x9 PUSH2 0x228F JUMP JUMPDEST DUP4 GT ISZERO JUMPDEST PUSH2 0x1693 JUMPI PUSH1 0x40 MLOAD PUSH32 0x8C379A000000000000000000000000000000000000000000000000000000000 DUP2 MSTORE PUSH1 0x4 ADD PUSH2 0x168A SWAP1 PUSH2 0x4069 JUMP JUMPDEST PUSH1 0x40 MLOAD DUP1 SWAP2 SUB SWAP1 REVERT JUMPDEST DUP1 PUSH1 0x5 ADD PUSH1 0x0 SWAP1 SLOAD SWAP1 PUSH2 0x100 EXP SWAP1 DIV PUSH1 0xFF AND ISZERO PUSH2 0x16E5 JUMPI PUSH1 0x40 MLOAD PUSH32 0x8C379A000000000000000000000000000000000000000000000000000000000 DUP2 MSTORE PUSH1 0x4 ADD PUSH2 0x16DC SWAP1 PUSH2 0x40D5 JUMP JUMPDEST PUSH1 0x40 MLOAD DUP1 SWAP2 SUB SWAP1 REVERT JUMPDEST DUP4 PUSH20 0xFFFFFFFFFFFFFFFFFFFFFFFFFFFFFFFFFFFFFFFF AND PUSH4 0x32973EE2 CALLER DUP5 PUSH1 0x40 MLOAD DUP4 PUSH4 0xFFFFFFFF AND PUSH1 0xE0 SHL DUP2 MSTORE PUSH1 0x4 ADD PUSH2 0x1720 SWAP3 SWAP2 SWAP1 PUSH2 0x40F5 JUMP JUMPDEST PUSH1 0x20 PUSH1 0x40 MLOAD DUP1 DUP4 SUB DUP2 PUSH1 0x0 DUP8 GAS CALL ISZERO DUP1 ISZERO PUSH2 0x173F JUMPI RETURNDATASIZE PUSH1 0x0 DUP1 RETURNDATACOPY RETURNDATASIZE PUSH1 0x0 REVERT JUMPDEST POP POP POP POP PUSH1 0x40 MLOAD RETURNDATASIZE PUSH1 0x1F NOT PUSH1 0x1F DUP3 ADD AND DUP3 ADD DUP1 PUSH1 0x40 MSTORE POP DUP2 ADD SWAP1 PUSH2 0x1763 SWAP2 SWAP1 PUSH2 0x4133 JUMP JUMPDEST PUSH2 0x176C JUMPI PUSH1 0x0 DUP1 REVERT JUMPDEST PUSH2 0x1775 DUP3 PUSH2 0x229D JUMP JUMPDEST DUP1 PUSH1 0x1 ADD PUSH1 0x0 SWAP1 SLOAD SWAP1 PUSH2 0x100 EXP SWAP1 DIV PUSH20 0xFFFFFFFFFFFFFFFFFFFFFFFFFFFFFFFFFFFFFFFF AND PUSH20 0xFFFFFFFFFFFFFFFFFFFFFFFFFFFFFFFFFFFFFFFF AND PUSH4 0x23B872DD ADDRESS CALLER DUP5 PUSH1 0x2 ADD SLOAD PUSH1 0x40 MLOAD DUP5 PUSH4 0xFFFFFFFF AND PUSH1 0xE0 SHL DUP2 MSTORE PUSH1 0x4 ADD PUSH2 0x17DA SWAP4 SWAP3 SWAP2 SWAP1 PUSH2 0x3A0E JUMP JUMPDEST PUSH1 0x0 PUSH1 0x40 MLOAD DUP1 DUP4 SUB DUP2 PUSH1 0x0 DUP8 DUP1 EXTCODESIZE ISZERO DUP1 ISZERO PUSH2 0x17F4 JUMPI PUSH1 0x0 DUP1 REVERT JUMPDEST POP GAS CALL ISZERO DUP1 ISZERO PUSH2 0x1808 JUMPI RETURNDATASIZE PUSH1 0x0 DUP1 RETURNDATACOPY RETURNDATASIZE PUSH1 0x0 REVERT JUMPDEST POP POP POP POP PUSH1 0x0 PUSH1 0xB PUSH1 0x0 DUP6 DUP2 MSTORE PUSH1 0x20 ADD SWAP1 DUP2 MSTORE PUSH1 0x20 ADD PUSH1 0x0 KECCAK256 SWAP1 POP PUSH1 0x1 DUP2 PUSH1 0x5 ADD PUSH1 0x0 PUSH2 0x100 EXP DUP2 SLOAD DUP2 PUSH1 0xFF MUL NOT AND SWAP1 DUP4 ISZERO ISZERO MUL OR SWAP1 SSTORE POP PUSH1 0x0 PUSH1 0xC PUSH1 0x0 DUP4 PUSH1 0x2 ADD SLOAD DUP2 MSTORE PUSH1 0x20 ADD SWAP1 DUP2 MSTORE PUSH1 0x20 ADD PUSH1 0x0 KECCAK256 PUSH1 0x40 MLOAD DUP1 PUSH1 0x40 ADD PUSH1 0x40 MSTORE SWAP1 DUP2 PUSH1 0x0 DUP3 ADD SLOAD DUP2 MSTORE PUSH1 0x20 ADD PUSH1 0x1 DUP3 ADD DUP1 SLOAD PUSH2 0x187E SWAP1 PUSH2 0x3651 JUMP JUMPDEST DUP1 PUSH1 0x1F ADD PUSH1 0x20 DUP1 SWAP2 DIV MUL PUSH1 0x20 ADD PUSH1 0x40 MLOAD SWAP1 DUP2 ADD PUSH1 0x40 MSTORE DUP1 SWAP3 SWAP2 SWAP1 DUP2 DUP2 MSTORE PUSH1 0x20 ADD DUP3 DUP1 SLOAD PUSH2 0x18AA SWAP1 PUSH2 0x3651 JUMP JUMPDEST DUP1 ISZERO PUSH2 0x18F7 JUMPI DUP1 PUSH1 0x1F LT PUSH2 0x18CC JUMPI PUSH2 0x100 DUP1 DUP4 SLOAD DIV MUL DUP4 MSTORE SWAP2 PUSH1 0x20 ADD SWAP2 PUSH2 0x18F7 JUMP JUMPDEST DUP3 ADD SWAP2 SWAP1 PUSH1 0x0 MSTORE PUSH1 0x20 PUSH1 0x0 KECCAK256 SWAP1 JUMPDEST DUP2 SLOAD DUP2 MSTORE SWAP1 PUSH1 0x1 ADD SWAP1 PUSH1 0x20 ADD DUP1 DUP4 GT PUSH2 0x18DA JUMPI DUP3 SWAP1 SUB PUSH1 0x1F AND DUP3 ADD SWAP2 JUMPDEST POP POP POP POP POP DUP2 MSTORE POP POP SWAP1 POP CALLER PUSH20 0xFFFFFFFFFFFFFFFFFFFFFFFFFFFFFFFFFFFFFFFF AND DUP4 PUSH1 0x1 ADD PUSH1 0x0 SWAP1 SLOAD SWAP1 PUSH2 0x100 EXP SWAP1 DIV PUSH20 0xFFFFFFFFFFFFFFFFFFFFFFFFFFFFFFFFFFFFFFFF AND PUSH20 0xFFFFFFFFFFFFFFFFFFFFFFFFFFFFFFFFFFFFFFFF AND PUSH32 0xF0640A5E49FE03F4079B28DCE79DC3ECEBD847760C8FED4B6095E30BD1F16C55 DUP6 PUSH1 0x0 ADD SLOAD DUP7 PUSH1 0x2 ADD SLOAD DUP6 PUSH1 0x20 ADD MLOAD DUP9 PUSH1 0x4 ADD SLOAD PUSH1 0x40 MLOAD PUSH2 0x1999 SWAP5 SWAP4 SWAP3 SWAP2 SWAP1 PUSH2 0x3CB9 JUMP JUMPDEST PUSH1 0x40 MLOAD DUP1 SWAP2 SUB SWAP1 LOG3 POP POP POP POP PUSH1 0x1 PUSH1 0x7 DUP2 SWAP1 SSTORE POP POP POP JUMP JUMPDEST PUSH2 0x19C3 PUSH2 0x19BC PUSH2 0x1EBD JUMP JUMPDEST DUP4 DUP4 PUSH2 0x2348 JUMP JUMPDEST POP POP JUMP JUMPDEST PUSH1 0x8 SLOAD DUP2 JUMP JUMPDEST PUSH2 0x19DE PUSH2 0x19D8 PUSH2 0x1EBD JUMP JUMPDEST DUP4 PUSH2 0x1F7E JUMP JUMPDEST PUSH2 0x1A1D JUMPI PUSH1 0x40 MLOAD PUSH32 0x8C379A000000000000000000000000000000000000000000000000000000000 DUP2 MSTORE PUSH1 0x4 ADD PUSH2 0x1A14 SWAP1 PUSH2 0x3818 JUMP JUMPDEST PUSH1 0x40 MLOAD DUP1 SWAP2 SUB SWAP1 REVERT JUMPDEST PUSH2 0x1A29 DUP5 DUP5 DUP5 DUP5 PUSH2 0x24B4 JUMP JUMPDEST POP POP POP POP JUMP JUMPDEST PUSH1 0xB PUSH1 0x20 MSTORE DUP1 PUSH1 0x0 MSTORE PUSH1 0x40 PUSH1 0x0 KECCAK256 PUSH1 0x0 SWAP2 POP SWAP1 POP DUP1 PUSH1 0x0 ADD SLOAD SWAP1 DUP1 PUSH1 0x1 ADD PUSH1 0x0 SWAP1 SLOAD SWAP1 PUSH2 0x100 EXP SWAP1 DIV PUSH20 0xFFFFFFFFFFFFFFFFFFFFFFFFFFFFFFFFFFFFFFFF AND SWAP1 DUP1 PUSH1 0x2 ADD SLOAD SWAP1 DUP1 PUSH1 0x3 ADD DUP1 SLOAD PUSH2 0x1A84 SWAP1 PUSH2 0x3651 JUMP JUMPDEST DUP1 PUSH1 0x1F ADD PUSH1 0x20 DUP1 SWAP2 DIV MUL PUSH1 0x20 ADD PUSH1 0x40 MLOAD SWAP1 DUP2 ADD PUSH1 0x40 MSTORE DUP1 SWAP3 SWAP2 SWAP1 DUP2 DUP2 MSTORE PUSH1 0x20 ADD DUP3 DUP1 SLOAD PUSH2 0x1AB0 SWAP1 PUSH2 0x3651 JUMP JUMPDEST DUP1 ISZERO PUSH2 0x1AFD JUMPI DUP1 PUSH1 0x1F LT PUSH2 0x1AD2 JUMPI PUSH2 0x100 DUP1 DUP4 SLOAD DIV MUL DUP4 MSTORE SWAP2 PUSH1 0x20 ADD SWAP2 PUSH2 0x1AFD JUMP JUMPDEST DUP3 ADD SWAP2 SWAP1 PUSH1 0x0 MSTORE PUSH1 0x20 PUSH1 0x0 KECCAK256 SWAP1 JUMPDEST DUP2 SLOAD DUP2 MSTORE SWAP1 PUSH1 0x1 ADD SWAP1 PUSH1 0x20 ADD DUP1 DUP4 GT PUSH2 0x1AE0 JUMPI DUP3 SWAP1 SUB PUSH1 0x1F AND DUP3 ADD SWAP2 JUMPDEST POP POP POP POP POP SWAP1 DUP1 PUSH1 0x4 ADD SLOAD SWAP1 DUP1 PUSH1 0x5 ADD PUSH1 0x0 SWAP1 SLOAD SWAP1 PUSH2 0x100 EXP SWAP1 DIV PUSH1 0xFF AND SWAP1 DUP1 PUSH1 0x5 ADD PUSH1 0x1 SWAP1 SLOAD SWAP1 PUSH2 0x100 EXP SWAP1 DIV PUSH20 0xFFFFFFFFFFFFFFFFFFFFFFFFFFFFFFFFFFFFFFFF AND SWAP1 POP DUP8 JUMP JUMPDEST PUSH1 0x60 PUSH2 0x1B51 DUP3 PUSH2 0x1E72 JUMP JUMPDEST PUSH1 0x0 PUSH1 0x6 PUSH1 0x0 DUP5 DUP2 MSTORE PUSH1 0x20 ADD SWAP1 DUP2 MSTORE PUSH1 0x20 ADD PUSH1 0x0 KECCAK256 DUP1 SLOAD PUSH2 0x1B71 SWAP1 PUSH2 0x3651 JUMP JUMPDEST DUP1 PUSH1 0x1F ADD PUSH1 0x20 DUP1 SWAP2 DIV MUL PUSH1 0x20 ADD PUSH1 0x40 MLOAD SWAP1 DUP2 ADD PUSH1 0x40 MSTORE DUP1 SWAP3 SWAP2 SWAP1 DUP2 DUP2 MSTORE PUSH1 0x20 ADD DUP3 DUP1 SLOAD PUSH2 0x1B9D SWAP1 PUSH2 0x3651 JUMP JUMPDEST DUP1 ISZERO PUSH2 0x1BEA JUMPI DUP1 PUSH1 0x1F LT PUSH2 0x1BBF JUMPI PUSH2 0x100 DUP1 DUP4 SLOAD DIV MUL DUP4 MSTORE SWAP2 PUSH1 0x20 ADD SWAP2 PUSH2 0x1BEA JUMP JUMPDEST DUP3 ADD SWAP2 SWAP1 PUSH1 0x0 MSTORE PUSH1 0x20 PUSH1 0x0 KECCAK256 SWAP1 JUMPDEST DUP2 SLOAD DUP2 MSTORE SWAP1 PUSH1 0x1 ADD SWAP1 PUSH1 0x20 ADD DUP1 DUP4 GT PUSH2 0x1BCD JUMPI DUP3 SWAP1 SUB PUSH1 0x1F AND DUP3 ADD SWAP2 JUMPDEST POP POP POP POP POP SWAP1 POP PUSH1 0x0 PUSH2 0x1BFB PUSH2 0x2510 JUMP JUMPDEST SWAP1 POP PUSH1 0x0 DUP2 MLOAD SUB PUSH2 0x1C10 JUMPI DUP2 SWAP3 POP POP POP PUSH2 0x1C53 JUMP JUMPDEST PUSH1 0x0 DUP3 MLOAD GT ISZERO PUSH2 0x1C45 JUMPI DUP1 DUP3 PUSH1 0x40 MLOAD PUSH1 0x20 ADD PUSH2 0x1C2D SWAP3 SWAP2 SWAP1 PUSH2 0x419C JUMP JUMPDEST PUSH1 0x40 MLOAD PUSH1 0x20 DUP2 DUP4 SUB SUB DUP2 MSTORE SWAP1 PUSH1 0x40 MSTORE SWAP3 POP POP POP PUSH2 0x1C53 JUMP JUMPDEST PUSH2 0x1C4E DUP5 PUSH2 0x2527 JUMP JUMPDEST SWAP3 POP POP POP JUMPDEST SWAP2 SWAP1 POP JUMP JUMPDEST PUSH1 0x0 PUSH32 0x0 PUSH20 0xFFFFFFFFFFFFFFFFFFFFFFFFFFFFFFFFFFFFFFFF AND CALLER PUSH20 0xFFFFFFFFFFFFFFFFFFFFFFFFFFFFFFFFFFFFFFFF AND EQ PUSH2 0x1CE8 JUMPI PUSH1 0x40 MLOAD PUSH32 0x8C379A000000000000000000000000000000000000000000000000000000000 DUP2 MSTORE PUSH1 0x4 ADD PUSH2 0x1CDF SWAP1 PUSH2 0x3916 JUMP JUMPDEST PUSH1 0x40 MLOAD DUP1 SWAP2 SUB SWAP1 REVERT JUMPDEST PUSH1 0x0 PUSH2 0x1CF4 PUSH1 0xA PUSH2 0x228F JUMP JUMPDEST SWAP1 POP PUSH2 0x1D00 PUSH1 0xA PUSH2 0x2279 JUMP JUMPDEST PUSH2 0x1D0A CALLER DUP3 PUSH2 0x258F JUMP JUMPDEST PUSH2 0x1D14 DUP2 DUP5 PUSH2 0x25AD JUMP JUMPDEST PUSH1 0x40 MLOAD DUP1 PUSH1 0x40 ADD PUSH1 0x40 MSTORE DUP1 DUP3 DUP2 MSTORE PUSH1 0x20 ADD DUP5 DUP2 MSTORE POP PUSH1 0xC PUSH1 0x0 DUP4 DUP2 MSTORE PUSH1 0x20 ADD SWAP1 DUP2 MSTORE PUSH1 0x20 ADD PUSH1 0x0 KECCAK256 PUSH1 0x0 DUP3 ADD MLOAD DUP2 PUSH1 0x0 ADD SSTORE PUSH1 0x20 DUP3 ADD MLOAD DUP2 PUSH1 0x1 ADD SWAP1 DUP2 PUSH2 0x1D5B SWAP2 SWAP1 PUSH2 0x3BE7 JUMP JUMPDEST POP SWAP1 POP POP DUP1 SWAP2 POP POP SWAP2 SWAP1 POP JUMP JUMPDEST PUSH1 0x0 PUSH1 0x5 PUSH1 0x0 DUP5 PUSH20 0xFFFFFFFFFFFFFFFFFFFFFFFFFFFFFFFFFFFFFFFF AND PUSH20 0xFFFFFFFFFFFFFFFFFFFFFFFFFFFFFFFFFFFFFFFF AND DUP2 MSTORE PUSH1 0x20 ADD SWAP1 DUP2 MSTORE PUSH1 0x20 ADD PUSH1 0x0 KECCAK256 PUSH1 0x0 DUP4 PUSH20 0xFFFFFFFFFFFFFFFFFFFFFFFFFFFFFFFFFFFFFFFF AND PUSH20 0xFFFFFFFFFFFFFFFFFFFFFFFFFFFFFFFFFFFFFFFF AND DUP2 MSTORE PUSH1 0x20 ADD SWAP1 DUP2 MSTORE PUSH1 0x20 ADD PUSH1 0x0 KECCAK256 PUSH1 0x0 SWAP1 SLOAD SWAP1 PUSH2 0x100 EXP SWAP1 DIV PUSH1 0xFF AND SWAP1 POP SWAP3 SWAP2 POP POP JUMP JUMPDEST PUSH1 0x9 DUP1 PUSH1 0x0 ADD SLOAD SWAP1 POP DUP2 JUMP JUMPDEST PUSH1 0x0 PUSH32 0x1FFC9A700000000000000000000000000000000000000000000000000000000 PUSH28 0xFFFFFFFFFFFFFFFFFFFFFFFFFFFFFFFFFFFFFFFFFFFFFFFFFFFFFFFF NOT AND DUP3 PUSH28 0xFFFFFFFFFFFFFFFFFFFFFFFFFFFFFFFFFFFFFFFFFFFFFFFFFFFFFFFF NOT AND EQ SWAP1 POP SWAP2 SWAP1 POP JUMP JUMPDEST PUSH2 0x1E7B DUP2 PUSH2 0x261A JUMP JUMPDEST PUSH2 0x1EBA JUMPI PUSH1 0x40 MLOAD PUSH32 0x8C379A000000000000000000000000000000000000000000000000000000000 DUP2 MSTORE PUSH1 0x4 ADD PUSH2 0x1EB1 SWAP1 PUSH2 0x3884 JUMP JUMPDEST PUSH1 0x40 MLOAD DUP1 SWAP2 SUB SWAP1 REVERT JUMPDEST POP JUMP JUMPDEST PUSH1 0x0 CALLER SWAP1 POP SWAP1 JUMP JUMPDEST DUP2 PUSH1 0x4 PUSH1 0x0 DUP4 DUP2 MSTORE PUSH1 0x20 ADD SWAP1 DUP2 MSTORE PUSH1 0x20 ADD PUSH1 0x0 KECCAK256 PUSH1 0x0 PUSH2 0x100 EXP DUP2 SLOAD DUP2 PUSH20 0xFFFFFFFFFFFFFFFFFFFFFFFFFFFFFFFFFFFFFFFF MUL NOT AND SWAP1 DUP4 PUSH20 0xFFFFFFFFFFFFFFFFFFFFFFFFFFFFFFFFFFFFFFFF AND MUL OR SWAP1 SSTORE POP DUP1 DUP3 PUSH20 0xFFFFFFFFFFFFFFFFFFFFFFFFFFFFFFFFFFFFFFFF AND PUSH2 0x1F38 DUP4 PUSH2 0xB15 JUMP JUMPDEST PUSH20 0xFFFFFFFFFFFFFFFFFFFFFFFFFFFFFFFFFFFFFFFF AND PUSH32 0x8C5BE1E5EBEC7D5BD14F71427D1E84F3DD0314C0F7B2291E5B200AC8C7C3B925 PUSH1 0x40 MLOAD PUSH1 0x40 MLOAD DUP1 SWAP2 SUB SWAP1 LOG4 POP POP JUMP JUMPDEST PUSH1 0x0 DUP1 PUSH2 0x1F8A DUP4 PUSH2 0xB15 JUMP JUMPDEST SWAP1 POP DUP1 PUSH20 0xFFFFFFFFFFFFFFFFFFFFFFFFFFFFFFFFFFFFFFFF AND DUP5 PUSH20 0xFFFFFFFFFFFFFFFFFFFFFFFFFFFFFFFFFFFFFFFF AND EQ DUP1 PUSH2 0x1FCC JUMPI POP PUSH2 0x1FCB DUP2 DUP6 PUSH2 0x1D68 JUMP JUMPDEST JUMPDEST DUP1 PUSH2 0x200A JUMPI POP DUP4 PUSH20 0xFFFFFFFFFFFFFFFFFFFFFFFFFFFFFFFFFFFFFFFF AND PUSH2 0x1FF2 DUP5 PUSH2 0x848 JUMP JUMPDEST PUSH20 0xFFFFFFFFFFFFFFFFFFFFFFFFFFFFFFFFFFFFFFFF AND EQ JUMPDEST SWAP2 POP POP SWAP3 SWAP2 POP POP JUMP JUMPDEST DUP3 PUSH20 0xFFFFFFFFFFFFFFFFFFFFFFFFFFFFFFFFFFFFFFFF AND PUSH2 0x2033 DUP3 PUSH2 0xB15 JUMP JUMPDEST PUSH20 0xFFFFFFFFFFFFFFFFFFFFFFFFFFFFFFFFFFFFFFFF AND EQ PUSH2 0x2089 JUMPI PUSH1 0x40 MLOAD PUSH32 0x8C379A000000000000000000000000000000000000000000000000000000000 DUP2 MSTORE PUSH1 0x4 ADD PUSH2 0x2080 SWAP1 PUSH2 0x4232 JUMP JUMPDEST PUSH1 0x40 MLOAD DUP1 SWAP2 SUB SWAP1 REVERT JUMPDEST PUSH1 0x0 PUSH20 0xFFFFFFFFFFFFFFFFFFFFFFFFFFFFFFFFFFFFFFFF AND DUP3 PUSH20 0xFFFFFFFFFFFFFFFFFFFFFFFFFFFFFFFFFFFFFFFF AND SUB PUSH2 0x20F8 JUMPI PUSH1 0x40 MLOAD PUSH32 0x8C379A000000000000000000000000000000000000000000000000000000000 DUP2 MSTORE PUSH1 0x4 ADD PUSH2 0x20EF SWAP1 PUSH2 0x42C4 JUMP JUMPDEST PUSH1 0x40 MLOAD DUP1 SWAP2 SUB SWAP1 REVERT JUMPDEST PUSH2 0x2103 DUP4 DUP4 DUP4 PUSH2 0x2686 JUMP JUMPDEST PUSH2 0x210E PUSH1 0x0 DUP3 PUSH2 0x1EC5 JUMP JUMPDEST PUSH1 0x1 PUSH1 0x3 PUSH1 0x0 DUP6 PUSH20 0xFFFFFFFFFFFFFFFFFFFFFFFFFFFFFFFFFFFFFFFF AND PUSH20 0xFFFFFFFFFFFFFFFFFFFFFFFFFFFFFFFFFFFFFFFF AND DUP2 MSTORE PUSH1 0x20 ADD SWAP1 DUP2 MSTORE PUSH1 0x20 ADD PUSH1 0x0 KECCAK256 PUSH1 0x0 DUP3 DUP3 SLOAD PUSH2 0x215E SWAP2 SWAP1 PUSH2 0x42E4 JUMP JUMPDEST SWAP3 POP POP DUP2 SWAP1 SSTORE POP PUSH1 0x1 PUSH1 0x3 PUSH1 0x0 DUP5 PUSH20 0xFFFFFFFFFFFFFFFFFFFFFFFFFFFFFFFFFFFFFFFF AND PUSH20 0xFFFFFFFFFFFFFFFFFFFFFFFFFFFFFFFFFFFFFFFF AND DUP2 MSTORE PUSH1 0x20 ADD SWAP1 DUP2 MSTORE PUSH1 0x20 ADD PUSH1 0x0 KECCAK256 PUSH1 0x0 DUP3 DUP3 SLOAD PUSH2 0x21B5 SWAP2 SWAP1 PUSH2 0x35CC JUMP JUMPDEST SWAP3 POP POP DUP2 SWAP1 SSTORE POP DUP2 PUSH1 0x2 PUSH1 0x0 DUP4 DUP2 MSTORE PUSH1 0x20 ADD SWAP1 DUP2 MSTORE PUSH1 0x20 ADD PUSH1 0x0 KECCAK256 PUSH1 0x0 PUSH2 0x100 EXP DUP2 SLOAD DUP2 PUSH20 0xFFFFFFFFFFFFFFFFFFFFFFFFFFFFFFFFFFFFFFFF MUL NOT AND SWAP1 DUP4 PUSH20 0xFFFFFFFFFFFFFFFFFFFFFFFFFFFFFFFFFFFFFFFF AND MUL OR SWAP1 SSTORE POP DUP1 DUP3 PUSH20 0xFFFFFFFFFFFFFFFFFFFFFFFFFFFFFFFFFFFFFFFF AND DUP5 PUSH20 0xFFFFFFFFFFFFFFFFFFFFFFFFFFFFFFFFFFFFFFFF AND PUSH32 0xDDF252AD1BE2C89B69C2B068FC378DAA952BA7F163C4A11628F55A4DF523B3EF PUSH1 0x40 MLOAD PUSH1 0x40 MLOAD DUP1 SWAP2 SUB SWAP1 LOG4 PUSH2 0x2274 DUP4 DUP4 DUP4 PUSH2 0x268B JUMP JUMPDEST POP POP POP JUMP JUMPDEST PUSH1 0x1 DUP2 PUSH1 0x0 ADD PUSH1 0x0 DUP3 DUP3 SLOAD ADD SWAP3 POP POP DUP2 SWAP1 SSTORE POP POP JUMP JUMPDEST PUSH1 0x0 DUP2 PUSH1 0x0 ADD SLOAD SWAP1 POP SWAP2 SWAP1 POP JUMP JUMPDEST PUSH32 0x0 PUSH20 0xFFFFFFFFFFFFFFFFFFFFFFFFFFFFFFFFFFFFFFFF AND PUSH4 0x62AD1B83 CALLER ADDRESS DUP5 PUSH1 0x40 MLOAD DUP5 PUSH4 0xFFFFFFFF AND PUSH1 0xE0 SHL DUP2 MSTORE PUSH1 0x4 ADD PUSH2 0x22FA SWAP4 SWAP3 SWAP2 SWAP1 PUSH2 0x3E3A JUMP JUMPDEST PUSH1 0x0 PUSH1 0x40 MLOAD DUP1 DUP4 SUB DUP2 PUSH1 0x0 DUP8 DUP1 EXTCODESIZE ISZERO DUP1 ISZERO PUSH2 0x2314 JUMPI PUSH1 0x0 DUP1 REVERT JUMPDEST POP GAS CALL ISZERO DUP1 ISZERO PUSH2 0x2328 JUMPI RETURNDATASIZE PUSH1 0x0 DUP1 RETURNDATACOPY RETURNDATASIZE PUSH1 0x0 REVERT JUMPDEST POP POP POP POP DUP1 PUSH1 0x8 PUSH1 0x0 DUP3 DUP3 SLOAD PUSH2 0x233E SWAP2 SWAP1 PUSH2 0x35CC JUMP JUMPDEST SWAP3 POP POP DUP2 SWAP1 SSTORE POP POP JUMP JUMPDEST DUP2 PUSH20 0xFFFFFFFFFFFFFFFFFFFFFFFFFFFFFFFFFFFFFFFF AND DUP4 PUSH20 0xFFFFFFFFFFFFFFFFFFFFFFFFFFFFFFFFFFFFFFFF AND SUB PUSH2 0x23B6 JUMPI PUSH1 0x40 MLOAD PUSH32 0x8C379A000000000000000000000000000000000000000000000000000000000 DUP2 MSTORE PUSH1 0x4 ADD PUSH2 0x23AD SWAP1 PUSH2 0x4364 JUMP JUMPDEST PUSH1 0x40 MLOAD DUP1 SWAP2 SUB SWAP1 REVERT JUMPDEST DUP1 PUSH1 0x5 PUSH1 0x0 DUP6 PUSH20 0xFFFFFFFFFFFFFFFFFFFFFFFFFFFFFFFFFFFFFFFF AND PUSH20 0xFFFFFFFFFFFFFFFFFFFFFFFFFFFFFFFFFFFFFFFF AND DUP2 MSTORE PUSH1 0x20 ADD SWAP1 DUP2 MSTORE PUSH1 0x20 ADD PUSH1 0x0 KECCAK256 PUSH1 0x0 DUP5 PUSH20 0xFFFFFFFFFFFFFFFFFFFFFFFFFFFFFFFFFFFFFFFF AND PUSH20 0xFFFFFFFFFFFFFFFFFFFFFFFFFFFFFFFFFFFFFFFF AND DUP2 MSTORE PUSH1 0x20 ADD SWAP1 DUP2 MSTORE PUSH1 0x20 ADD PUSH1 0x0 KECCAK256 PUSH1 0x0 PUSH2 0x100 EXP DUP2 SLOAD DUP2 PUSH1 0xFF MUL NOT AND SWAP1 DUP4 ISZERO ISZERO MUL OR SWAP1 SSTORE POP DUP2 PUSH20 0xFFFFFFFFFFFFFFFFFFFFFFFFFFFFFFFFFFFFFFFF AND DUP4 PUSH20 0xFFFFFFFFFFFFFFFFFFFFFFFFFFFFFFFFFFFFFFFF AND PUSH32 0x17307EAB39AB6107E8899845AD3D59BD9653F200F220920489CA2B5937696C31 DUP4 PUSH1 0x40 MLOAD PUSH2 0x24A7 SWAP2 SWAP1 PUSH2 0x2E4A JUMP JUMPDEST PUSH1 0x40 MLOAD DUP1 SWAP2 SUB SWAP1 LOG3 POP POP POP JUMP JUMPDEST PUSH2 0x24BF DUP5 DUP5 DUP5 PUSH2 0x2013 JUMP JUMPDEST PUSH2 0x24CB DUP5 DUP5 DUP5 DUP5 PUSH2 0x2690 JUMP JUMPDEST PUSH2 0x250A JUMPI PUSH1 0x40 MLOAD PUSH32 0x8C379A000000000000000000000000000000000000000000000000000000000 DUP2 MSTORE PUSH1 0x4 ADD PUSH2 0x2501 SWAP1 PUSH2 0x43F6 JUMP JUMPDEST PUSH1 0x40 MLOAD DUP1 SWAP2 SUB SWAP1 REVERT JUMPDEST POP POP POP POP JUMP JUMPDEST PUSH1 0x60 PUSH1 0x40 MLOAD DUP1 PUSH1 0x20 ADD PUSH1 0x40 MSTORE DUP1 PUSH1 0x0 DUP2 MSTORE POP SWAP1 POP SWAP1 JUMP JUMPDEST PUSH1 0x60 PUSH2 0x2532 DUP3 PUSH2 0x1E72 JUMP JUMPDEST PUSH1 0x0 PUSH2 0x253C PUSH2 0x2510 JUMP JUMPDEST SWAP1 POP PUSH1 0x0 DUP2 MLOAD GT PUSH2 0x255C JUMPI PUSH1 0x40 MLOAD DUP1 PUSH1 0x20 ADD PUSH1 0x40 MSTORE DUP1 PUSH1 0x0 DUP2 MSTORE POP PUSH2 0x2587 JUMP JUMPDEST DUP1 PUSH2 0x2566 DUP5 PUSH2 0x2817 JUMP JUMPDEST PUSH1 0x40 MLOAD PUSH1 0x20 ADD PUSH2 0x2577 SWAP3 SWAP2 SWAP1 PUSH2 0x419C JUMP JUMPDEST PUSH1 0x40 MLOAD PUSH1 0x20 DUP2 DUP4 SUB SUB DUP2 MSTORE SWAP1 PUSH1 0x40 MSTORE JUMPDEST SWAP2 POP POP SWAP2 SWAP1 POP JUMP JUMPDEST PUSH2 0x25A9 DUP3 DUP3 PUSH1 0x40 MLOAD DUP1 PUSH1 0x20 ADD PUSH1 0x40 MSTORE DUP1 PUSH1 0x0 DUP2 MSTORE POP PUSH2 0x2977 JUMP JUMPDEST POP POP JUMP JUMPDEST PUSH2 0x25B6 DUP3 PUSH2 0x261A JUMP JUMPDEST PUSH2 0x25F5 JUMPI PUSH1 0x40 MLOAD PUSH32 0x8C379A000000000000000000000000000000000000000000000000000000000 DUP2 MSTORE PUSH1 0x4 ADD PUSH2 0x25EC SWAP1 PUSH2 0x4488 JUMP JUMPDEST PUSH1 0x40 MLOAD DUP1 SWAP2 SUB SWAP1 REVERT JUMPDEST DUP1 PUSH1 0x6 PUSH1 0x0 DUP5 DUP2 MSTORE PUSH1 0x20 ADD SWAP1 DUP2 MSTORE PUSH1 0x20 ADD PUSH1 0x0 KECCAK256 SWAP1 DUP2 PUSH2 0x2615 SWAP2 SWAP1 PUSH2 0x3BE7 JUMP JUMPDEST POP POP POP JUMP JUMPDEST PUSH1 0x0 DUP1 PUSH20 0xFFFFFFFFFFFFFFFFFFFFFFFFFFFFFFFFFFFFFFFF AND PUSH1 0x2 PUSH1 0x0 DUP5 DUP2 MSTORE PUSH1 0x20 ADD SWAP1 DUP2 MSTORE PUSH1 0x20 ADD PUSH1 0x0 KECCAK256 PUSH1 0x0 SWAP1 SLOAD SWAP1 PUSH2 0x100 EXP SWAP1 DIV PUSH20 0xFFFFFFFFFFFFFFFFFFFFFFFFFFFFFFFFFFFFFFFF AND PUSH20 0xFFFFFFFFFFFFFFFFFFFFFFFFFFFFFFFFFFFFFFFF AND EQ ISZERO SWAP1 POP SWAP2 SWAP1 POP JUMP JUMPDEST POP POP POP JUMP JUMPDEST POP POP POP JUMP JUMPDEST PUSH1 0x0 PUSH2 0x26B1 DUP5 PUSH20 0xFFFFFFFFFFFFFFFFFFFFFFFFFFFFFFFFFFFFFFFF AND PUSH2 0x29D2 JUMP JUMPDEST ISZERO PUSH2 0x280A JUMPI DUP4 PUSH20 0xFFFFFFFFFFFFFFFFFFFFFFFFFFFFFFFFFFFFFFFF AND PUSH4 0x150B7A02 PUSH2 0x26DA PUSH2 0x1EBD JUMP JUMPDEST DUP8 DUP7 DUP7 PUSH1 0x40 MLOAD DUP6 PUSH4 0xFFFFFFFF AND PUSH1 0xE0 SHL DUP2 MSTORE PUSH1 0x4 ADD PUSH2 0x26FC SWAP5 SWAP4 SWAP3 SWAP2 SWAP1 PUSH2 0x44EC JUMP JUMPDEST PUSH1 0x20 PUSH1 0x40 MLOAD DUP1 DUP4 SUB DUP2 PUSH1 0x0 DUP8 GAS CALL SWAP3 POP POP POP DUP1 ISZERO PUSH2 0x2738 JUMPI POP PUSH1 0x40 MLOAD RETURNDATASIZE PUSH1 0x1F NOT PUSH1 0x1F DUP3 ADD AND DUP3 ADD DUP1 PUSH1 0x40 MSTORE POP DUP2 ADD SWAP1 PUSH2 0x2735 SWAP2 SWAP1 PUSH2 0x454D JUMP JUMPDEST PUSH1 0x1 JUMPDEST PUSH2 0x27BA JUMPI RETURNDATASIZE DUP1 PUSH1 0x0 DUP2 EQ PUSH2 0x2768 JUMPI PUSH1 0x40 MLOAD SWAP2 POP PUSH1 0x1F NOT PUSH1 0x3F RETURNDATASIZE ADD AND DUP3 ADD PUSH1 0x40 MSTORE RETURNDATASIZE DUP3 MSTORE RETURNDATASIZE PUSH1 0x0 PUSH1 0x20 DUP5 ADD RETURNDATACOPY PUSH2 0x276D JUMP JUMPDEST PUSH1 0x60 SWAP2 POP JUMPDEST POP PUSH1 0x0 DUP2 MLOAD SUB PUSH2 0x27B2 JUMPI PUSH1 0x40 MLOAD PUSH32 0x8C379A000000000000000000000000000000000000000000000000000000000 DUP2 MSTORE PUSH1 0x4 ADD PUSH2 0x27A9 SWAP1 PUSH2 0x43F6 JUMP JUMPDEST PUSH1 0x40 MLOAD DUP1 SWAP2 SUB SWAP1 REVERT JUMPDEST DUP1 MLOAD DUP2 PUSH1 0x20 ADD REVERT JUMPDEST PUSH4 0x150B7A02 PUSH1 0xE0 SHL PUSH28 0xFFFFFFFFFFFFFFFFFFFFFFFFFFFFFFFFFFFFFFFFFFFFFFFFFFFFFFFF NOT AND DUP2 PUSH28 0xFFFFFFFFFFFFFFFFFFFFFFFFFFFFFFFFFFFFFFFFFFFFFFFFFFFFFFFF NOT AND EQ SWAP2 POP POP PUSH2 0x280F JUMP JUMPDEST PUSH1 0x1 SWAP1 POP JUMPDEST SWAP5 SWAP4 POP POP POP POP JUMP JUMPDEST PUSH1 0x60 PUSH1 0x0 DUP3 SUB PUSH2 0x285E JUMPI PUSH1 0x40 MLOAD DUP1 PUSH1 0x40 ADD PUSH1 0x40 MSTORE DUP1 PUSH1 0x1 DUP2 MSTORE PUSH1 0x20 ADD PUSH32 0x3000000000000000000000000000000000000000000000000000000000000000 DUP2 MSTORE POP SWAP1 POP PUSH2 0x2972 JUMP JUMPDEST PUSH1 0x0 DUP3 SWAP1 POP PUSH1 0x0 JUMPDEST PUSH1 0x0 DUP3 EQ PUSH2 0x2890 JUMPI DUP1 DUP1 PUSH2 0x2879 SWAP1 PUSH2 0x457A JUMP JUMPDEST SWAP2 POP POP PUSH1 0xA DUP3 PUSH2 0x2889 SWAP2 SWAP1 PUSH2 0x45F1 JUMP JUMPDEST SWAP2 POP PUSH2 0x2866 JUMP JUMPDEST PUSH1 0x0 DUP2 PUSH8 0xFFFFFFFFFFFFFFFF DUP2 GT ISZERO PUSH2 0x28AC JUMPI PUSH2 0x28AB PUSH2 0x320D JUMP JUMPDEST JUMPDEST PUSH1 0x40 MLOAD SWAP1 DUP1 DUP3 MSTORE DUP1 PUSH1 0x1F ADD PUSH1 0x1F NOT AND PUSH1 0x20 ADD DUP3 ADD PUSH1 0x40 MSTORE DUP1 ISZERO PUSH2 0x28DE JUMPI DUP2 PUSH1 0x20 ADD PUSH1 0x1 DUP3 MUL DUP1 CALLDATASIZE DUP4 CALLDATACOPY DUP1 DUP3 ADD SWAP2 POP POP SWAP1 POP JUMPDEST POP SWAP1 POP JUMPDEST PUSH1 0x0 DUP6 EQ PUSH2 0x296B JUMPI PUSH1 0x1 DUP3 PUSH2 0x28F7 SWAP2 SWAP1 PUSH2 0x42E4 JUMP JUMPDEST SWAP2 POP PUSH1 0xA DUP6 PUSH2 0x2906 SWAP2 SWAP1 PUSH2 0x4622 JUMP JUMPDEST PUSH1 0x30 PUSH2 0x2912 SWAP2 SWAP1 PUSH2 0x35CC JUMP JUMPDEST PUSH1 0xF8 SHL DUP2 DUP4 DUP2 MLOAD DUP2 LT PUSH2 0x2928 JUMPI PUSH2 0x2927 PUSH2 0x4653 JUMP JUMPDEST JUMPDEST PUSH1 0x20 ADD ADD SWAP1 PUSH31 0xFFFFFFFFFFFFFFFFFFFFFFFFFFFFFFFFFFFFFFFFFFFFFFFFFFFFFFFFFFFFFF NOT AND SWAP1 DUP2 PUSH1 0x0 BYTE SWAP1 MSTORE8 POP PUSH1 0xA DUP6 PUSH2 0x2964 SWAP2 SWAP1 PUSH2 0x45F1 JUMP JUMPDEST SWAP5 POP PUSH2 0x28E2 JUMP JUMPDEST DUP1 SWAP4 POP POP POP POP JUMPDEST SWAP2 SWAP1 POP JUMP JUMPDEST PUSH2 0x2981 DUP4 DUP4 PUSH2 0x29F5 JUMP JUMPDEST PUSH2 0x298E PUSH1 0x0 DUP5 DUP5 DUP5 PUSH2 0x2690 JUMP JUMPDEST PUSH2 0x29CD JUMPI PUSH1 0x40 MLOAD PUSH32 0x8C379A000000000000000000000000000000000000000000000000000000000 DUP2 MSTORE PUSH1 0x4 ADD PUSH2 0x29C4 SWAP1 PUSH2 0x43F6 JUMP JUMPDEST PUSH1 0x40 MLOAD DUP1 SWAP2 SUB SWAP1 REVERT JUMPDEST POP POP POP JUMP JUMPDEST PUSH1 0x0 DUP1 DUP3 PUSH20 0xFFFFFFFFFFFFFFFFFFFFFFFFFFFFFFFFFFFFFFFF AND EXTCODESIZE GT SWAP1 POP SWAP2 SWAP1 POP JUMP JUMPDEST PUSH1 0x0 PUSH20 0xFFFFFFFFFFFFFFFFFFFFFFFFFFFFFFFFFFFFFFFF AND DUP3 PUSH20 0xFFFFFFFFFFFFFFFFFFFFFFFFFFFFFFFFFFFFFFFF AND SUB PUSH2 0x2A64 JUMPI PUSH1 0x40 MLOAD PUSH32 0x8C379A000000000000000000000000000000000000000000000000000000000 DUP2 MSTORE PUSH1 0x4 ADD PUSH2 0x2A5B SWAP1 PUSH2 0x46CE JUMP JUMPDEST PUSH1 0x40 MLOAD DUP1 SWAP2 SUB SWAP1 REVERT JUMPDEST PUSH2 0x2A6D DUP2 PUSH2 0x261A JUMP JUMPDEST ISZERO PUSH2 0x2AAD JUMPI PUSH1 0x40 MLOAD PUSH32 0x8C379A000000000000000000000000000000000000000000000000000000000 DUP2 MSTORE PUSH1 0x4 ADD PUSH2 0x2AA4 SWAP1 PUSH2 0x473A JUMP JUMPDEST PUSH1 0x40 MLOAD DUP1 SWAP2 SUB SWAP1 REVERT JUMPDEST PUSH2 0x2AB9 PUSH1 0x0 DUP4 DUP4 PUSH2 0x2686 JUMP JUMPDEST PUSH1 0x1 PUSH1 0x3 PUSH1 0x0 DUP5 PUSH20 0xFFFFFFFFFFFFFFFFFFFFFFFFFFFFFFFFFFFFFFFF AND PUSH20 0xFFFFFFFFFFFFFFFFFFFFFFFFFFFFFFFFFFFFFFFF AND DUP2 MSTORE PUSH1 0x20 ADD SWAP1 DUP2 MSTORE PUSH1 0x20 ADD PUSH1 0x0 KECCAK256 PUSH1 0x0 DUP3 DUP3 SLOAD PUSH2 0x2B09 SWAP2 SWAP1 PUSH2 0x35CC JUMP JUMPDEST SWAP3 POP POP DUP2 SWAP1 SSTORE POP DUP2 PUSH1 0x2 PUSH1 0x0 DUP4 DUP2 MSTORE PUSH1 0x20 ADD SWAP1 DUP2 MSTORE PUSH1 0x20 ADD PUSH1 0x0 KECCAK256 PUSH1 0x0 PUSH2 0x100 EXP DUP2 SLOAD DUP2 PUSH20 0xFFFFFFFFFFFFFFFFFFFFFFFFFFFFFFFFFFFFFFFF MUL NOT AND SWAP1 DUP4 PUSH20 0xFFFFFFFFFFFFFFFFFFFFFFFFFFFFFFFFFFFFFFFF AND MUL OR SWAP1 SSTORE POP DUP1 DUP3 PUSH20 0xFFFFFFFFFFFFFFFFFFFFFFFFFFFFFFFFFFFFFFFF AND PUSH1 0x0 PUSH20 0xFFFFFFFFFFFFFFFFFFFFFFFFFFFFFFFFFFFFFFFF AND PUSH32 0xDDF252AD1BE2C89B69C2B068FC378DAA952BA7F163C4A11628F55A4DF523B3EF PUSH1 0x40 MLOAD PUSH1 0x40 MLOAD DUP1 SWAP2 SUB SWAP1 LOG4 PUSH2 0x2BCA PUSH1 0x0 DUP4 DUP4 PUSH2 0x268B JUMP JUMPDEST POP POP JUMP JUMPDEST PUSH1 0x0 PUSH1 0x40 MLOAD SWAP1 POP SWAP1 JUMP JUMPDEST PUSH1 0x0 DUP1 REVERT JUMPDEST PUSH1 0x0 DUP1 REVERT JUMPDEST PUSH1 0x0 PUSH20 0xFFFFFFFFFFFFFFFFFFFFFFFFFFFFFFFFFFFFFFFF DUP3 AND SWAP1 POP SWAP2 SWAP1 POP JUMP JUMPDEST PUSH1 0x0 PUSH2 0x2C0D DUP3 PUSH2 0x2BE2 JUMP JUMPDEST SWAP1 POP SWAP2 SWAP1 POP JUMP JUMPDEST PUSH2 0x2C1D DUP2 PUSH2 0x2C02 JUMP JUMPDEST DUP2 EQ PUSH2 0x2C28 JUMPI PUSH1 0x0 DUP1 REVERT JUMPDEST POP JUMP JUMPDEST PUSH1 0x0 DUP2 CALLDATALOAD SWAP1 POP PUSH2 0x2C3A DUP2 PUSH2 0x2C14 JUMP JUMPDEST SWAP3 SWAP2 POP POP JUMP JUMPDEST PUSH1 0x0 DUP2 SWAP1 POP SWAP2 SWAP1 POP JUMP JUMPDEST PUSH2 0x2C53 DUP2 PUSH2 0x2C40 JUMP JUMPDEST DUP2 EQ PUSH2 0x2C5E JUMPI PUSH1 0x0 DUP1 REVERT JUMPDEST POP JUMP JUMPDEST PUSH1 0x0 DUP2 CALLDATALOAD SWAP1 POP PUSH2 0x2C70 DUP2 PUSH2 0x2C4A JUMP JUMPDEST SWAP3 SWAP2 POP POP JUMP JUMPDEST PUSH1 0x0 DUP1 REVERT JUMPDEST PUSH1 0x0 DUP1 REVERT JUMPDEST PUSH1 0x0 DUP1 REVERT JUMPDEST PUSH1 0x0 DUP1 DUP4 PUSH1 0x1F DUP5 ADD SLT PUSH2 0x2C9B JUMPI PUSH2 0x2C9A PUSH2 0x2C76 JUMP JUMPDEST JUMPDEST DUP3 CALLDATALOAD SWAP1 POP PUSH8 0xFFFFFFFFFFFFFFFF DUP2 GT ISZERO PUSH2 0x2CB8 JUMPI PUSH2 0x2CB7 PUSH2 0x2C7B JUMP JUMPDEST JUMPDEST PUSH1 0x20 DUP4 ADD SWAP2 POP DUP4 PUSH1 0x1 DUP3 MUL DUP4 ADD GT ISZERO PUSH2 0x2CD4 JUMPI PUSH2 0x2CD3 PUSH2 0x2C80 JUMP JUMPDEST JUMPDEST SWAP3 POP SWAP3 SWAP1 POP JUMP JUMPDEST PUSH1 0x0 DUP1 PUSH1 0x0 DUP1 PUSH1 0x0 DUP1 PUSH1 0x0 DUP1 PUSH1 0xC0 DUP10 DUP12 SUB SLT ISZERO PUSH2 0x2CFB JUMPI PUSH2 0x2CFA PUSH2 0x2BD8 JUMP JUMPDEST JUMPDEST PUSH1 0x0 PUSH2 0x2D09 DUP12 DUP3 DUP13 ADD PUSH2 0x2C2B JUMP JUMPDEST SWAP9 POP POP PUSH1 0x20 PUSH2 0x2D1A DUP12 DUP3 DUP13 ADD PUSH2 0x2C2B JUMP JUMPDEST SWAP8 POP POP PUSH1 0x40 PUSH2 0x2D2B DUP12 DUP3 DUP13 ADD PUSH2 0x2C2B JUMP JUMPDEST SWAP7 POP POP PUSH1 0x60 PUSH2 0x2D3C DUP12 DUP3 DUP13 ADD PUSH2 0x2C61 JUMP JUMPDEST SWAP6 POP POP PUSH1 0x80 DUP10 ADD CALLDATALOAD PUSH8 0xFFFFFFFFFFFFFFFF DUP2 GT ISZERO PUSH2 0x2D5D JUMPI PUSH2 0x2D5C PUSH2 0x2BDD JUMP JUMPDEST JUMPDEST PUSH2 0x2D69 DUP12 DUP3 DUP13 ADD PUSH2 0x2C85 JUMP JUMPDEST SWAP5 POP SWAP5 POP POP PUSH1 0xA0 DUP10 ADD CALLDATALOAD PUSH8 0xFFFFFFFFFFFFFFFF DUP2 GT ISZERO PUSH2 0x2D8C JUMPI PUSH2 0x2D8B PUSH2 0x2BDD JUMP JUMPDEST JUMPDEST PUSH2 0x2D98 DUP12 DUP3 DUP13 ADD PUSH2 0x2C85 JUMP JUMPDEST SWAP3 POP SWAP3 POP POP SWAP3 SWAP6 SWAP9 POP SWAP3 SWAP6 SWAP9 SWAP1 SWAP4 SWAP7 POP JUMP JUMPDEST PUSH1 0x0 PUSH32 0xFFFFFFFF00000000000000000000000000000000000000000000000000000000 DUP3 AND SWAP1 POP SWAP2 SWAP1 POP JUMP JUMPDEST PUSH2 0x2DDF DUP2 PUSH2 0x2DAA JUMP JUMPDEST DUP2 EQ PUSH2 0x2DEA JUMPI PUSH1 0x0 DUP1 REVERT JUMPDEST POP JUMP JUMPDEST PUSH1 0x0 DUP2 CALLDATALOAD SWAP1 POP PUSH2 0x2DFC DUP2 PUSH2 0x2DD6 JUMP JUMPDEST SWAP3 SWAP2 POP POP JUMP JUMPDEST PUSH1 0x0 PUSH1 0x20 DUP3 DUP5 SUB SLT ISZERO PUSH2 0x2E18 JUMPI PUSH2 0x2E17 PUSH2 0x2BD8 JUMP JUMPDEST JUMPDEST PUSH1 0x0 PUSH2 0x2E26 DUP5 DUP3 DUP6 ADD PUSH2 0x2DED JUMP JUMPDEST SWAP2 POP POP SWAP3 SWAP2 POP POP JUMP JUMPDEST PUSH1 0x0 DUP2 ISZERO ISZERO SWAP1 POP SWAP2 SWAP1 POP JUMP JUMPDEST PUSH2 0x2E44 DUP2 PUSH2 0x2E2F JUMP JUMPDEST DUP3 MSTORE POP POP JUMP JUMPDEST PUSH1 0x0 PUSH1 0x20 DUP3 ADD SWAP1 POP PUSH2 0x2E5F PUSH1 0x0 DUP4 ADD DUP5 PUSH2 0x2E3B JUMP JUMPDEST SWAP3 SWAP2 POP POP JUMP JUMPDEST PUSH1 0x0 DUP2 MLOAD SWAP1 POP SWAP2 SWAP1 POP JUMP JUMPDEST PUSH1 0x0 DUP3 DUP3 MSTORE PUSH1 0x20 DUP3 ADD SWAP1 POP SWAP3 SWAP2 POP POP JUMP JUMPDEST PUSH1 0x0 JUMPDEST DUP4 DUP2 LT ISZERO PUSH2 0x2E9F JUMPI DUP1 DUP3 ADD MLOAD DUP2 DUP5 ADD MSTORE PUSH1 0x20 DUP2 ADD SWAP1 POP PUSH2 0x2E84 JUMP JUMPDEST DUP4 DUP2 GT ISZERO PUSH2 0x2EAE JUMPI PUSH1 0x0 DUP5 DUP5 ADD MSTORE JUMPDEST POP POP POP POP JUMP JUMPDEST PUSH1 0x0 PUSH1 0x1F NOT PUSH1 0x1F DUP4 ADD AND SWAP1 POP SWAP2 SWAP1 POP JUMP JUMPDEST PUSH1 0x0 PUSH2 0x2ED0 DUP3 PUSH2 0x2E65 JUMP JUMPDEST PUSH2 0x2EDA DUP2 DUP6 PUSH2 0x2E70 JUMP JUMPDEST SWAP4 POP PUSH2 0x2EEA DUP2 DUP6 PUSH1 0x20 DUP7 ADD PUSH2 0x2E81 JUMP JUMPDEST PUSH2 0x2EF3 DUP2 PUSH2 0x2EB4 JUMP JUMPDEST DUP5 ADD SWAP2 POP POP SWAP3 SWAP2 POP POP JUMP JUMPDEST PUSH1 0x0 PUSH1 0x20 DUP3 ADD SWAP1 POP DUP2 DUP2 SUB PUSH1 0x0 DUP4 ADD MSTORE PUSH2 0x2F18 DUP2 DUP5 PUSH2 0x2EC5 JUMP JUMPDEST SWAP1 POP SWAP3 SWAP2 POP POP JUMP JUMPDEST PUSH1 0x0 PUSH1 0x20 DUP3 DUP5 SUB SLT ISZERO PUSH2 0x2F36 JUMPI PUSH2 0x2F35 PUSH2 0x2BD8 JUMP JUMPDEST JUMPDEST PUSH1 0x0 PUSH2 0x2F44 DUP5 DUP3 DUP6 ADD PUSH2 0x2C61 JUMP JUMPDEST SWAP2 POP POP SWAP3 SWAP2 POP POP JUMP JUMPDEST PUSH2 0x2F56 DUP2 PUSH2 0x2C02 JUMP JUMPDEST DUP3 MSTORE POP POP JUMP JUMPDEST PUSH1 0x0 PUSH1 0x20 DUP3 ADD SWAP1 POP PUSH2 0x2F71 PUSH1 0x0 DUP4 ADD DUP5 PUSH2 0x2F4D JUMP JUMPDEST SWAP3 SWAP2 POP POP JUMP JUMPDEST PUSH1 0x0 DUP1 PUSH1 0x40 DUP4 DUP6 SUB SLT ISZERO PUSH2 0x2F8E JUMPI PUSH2 0x2F8D PUSH2 0x2BD8 JUMP JUMPDEST JUMPDEST PUSH1 0x0 PUSH2 0x2F9C DUP6 DUP3 DUP7 ADD PUSH2 0x2C2B JUMP JUMPDEST SWAP3 POP POP PUSH1 0x20 PUSH2 0x2FAD DUP6 DUP3 DUP7 ADD PUSH2 0x2C61 JUMP JUMPDEST SWAP2 POP POP SWAP3 POP SWAP3 SWAP1 POP JUMP JUMPDEST PUSH1 0x0 PUSH1 0x20 DUP3 DUP5 SUB SLT ISZERO PUSH2 0x2FCD JUMPI PUSH2 0x2FCC PUSH2 0x2BD8 JUMP JUMPDEST JUMPDEST PUSH1 0x0 PUSH2 0x2FDB DUP5 DUP3 DUP6 ADD PUSH2 0x2C2B JUMP JUMPDEST SWAP2 POP POP SWAP3 SWAP2 POP POP JUMP JUMPDEST PUSH1 0x0 DUP1 PUSH1 0x0 PUSH1 0x60 DUP5 DUP7 SUB SLT ISZERO PUSH2 0x2FFD JUMPI PUSH2 0x2FFC PUSH2 0x2BD8 JUMP JUMPDEST JUMPDEST PUSH1 0x0 PUSH2 0x300B DUP7 DUP3 DUP8 ADD PUSH2 0x2C2B JUMP JUMPDEST SWAP4 POP POP PUSH1 0x20 PUSH2 0x301C DUP7 DUP3 DUP8 ADD PUSH2 0x2C2B JUMP JUMPDEST SWAP3 POP POP PUSH1 0x40 PUSH2 0x302D DUP7 DUP3 DUP8 ADD PUSH2 0x2C61 JUMP JUMPDEST SWAP2 POP POP SWAP3 POP SWAP3 POP SWAP3 JUMP JUMPDEST PUSH2 0x3040 DUP2 PUSH2 0x2C40 JUMP JUMPDEST DUP3 MSTORE POP POP JUMP JUMPDEST PUSH1 0x0 PUSH1 0x40 DUP3 ADD SWAP1 POP PUSH2 0x305B PUSH1 0x0 DUP4 ADD DUP6 PUSH2 0x3037 JUMP JUMPDEST DUP2 DUP2 SUB PUSH1 0x20 DUP4 ADD MSTORE PUSH2 0x306D DUP2 DUP5 PUSH2 0x2EC5 JUMP JUMPDEST SWAP1 POP SWAP4 SWAP3 POP POP POP JUMP JUMPDEST PUSH1 0x0 PUSH2 0x3081 DUP3 PUSH2 0x2C02 JUMP JUMPDEST SWAP1 POP SWAP2 SWAP1 POP JUMP JUMPDEST PUSH2 0x3091 DUP2 PUSH2 0x3076 JUMP JUMPDEST DUP2 EQ PUSH2 0x309C JUMPI PUSH1 0x0 DUP1 REVERT JUMPDEST POP JUMP JUMPDEST PUSH1 0x0 DUP2 CALLDATALOAD SWAP1 POP PUSH2 0x30AE DUP2 PUSH2 0x3088 JUMP JUMPDEST SWAP3 SWAP2 POP POP JUMP JUMPDEST PUSH1 0x0 DUP1 PUSH1 0x0 PUSH1 0x60 DUP5 DUP7 SUB SLT ISZERO PUSH2 0x30CD JUMPI PUSH2 0x30CC PUSH2 0x2BD8 JUMP JUMPDEST JUMPDEST PUSH1 0x0 PUSH2 0x30DB DUP7 DUP3 DUP8 ADD PUSH2 0x309F JUMP JUMPDEST SWAP4 POP POP PUSH1 0x20 PUSH2 0x30EC DUP7 DUP3 DUP8 ADD PUSH2 0x2C61 JUMP JUMPDEST SWAP3 POP POP PUSH1 0x40 PUSH2 0x30FD DUP7 DUP3 DUP8 ADD PUSH2 0x2C61 JUMP JUMPDEST SWAP2 POP POP SWAP3 POP SWAP3 POP SWAP3 JUMP JUMPDEST PUSH1 0x0 PUSH1 0x20 DUP3 ADD SWAP1 POP PUSH2 0x311C PUSH1 0x0 DUP4 ADD DUP5 PUSH2 0x3037 JUMP JUMPDEST SWAP3 SWAP2 POP POP JUMP JUMPDEST PUSH1 0x0 DUP2 SWAP1 POP SWAP2 SWAP1 POP JUMP JUMPDEST PUSH1 0x0 PUSH2 0x3147 PUSH2 0x3142 PUSH2 0x313D DUP5 PUSH2 0x2BE2 JUMP JUMPDEST PUSH2 0x3122 JUMP JUMPDEST PUSH2 0x2BE2 JUMP JUMPDEST SWAP1 POP SWAP2 SWAP1 POP JUMP JUMPDEST PUSH1 0x0 PUSH2 0x3159 DUP3 PUSH2 0x312C JUMP JUMPDEST SWAP1 POP SWAP2 SWAP1 POP JUMP JUMPDEST PUSH1 0x0 PUSH2 0x316B DUP3 PUSH2 0x314E JUMP JUMPDEST SWAP1 POP SWAP2 SWAP1 POP JUMP JUMPDEST PUSH2 0x317B DUP2 PUSH2 0x3160 JUMP JUMPDEST DUP3 MSTORE POP POP JUMP JUMPDEST PUSH1 0x0 PUSH1 0x20 DUP3 ADD SWAP1 POP PUSH2 0x3196 PUSH1 0x0 DUP4 ADD DUP5 PUSH2 0x3172 JUMP JUMPDEST SWAP3 SWAP2 POP POP JUMP JUMPDEST PUSH2 0x31A5 DUP2 PUSH2 0x2E2F JUMP JUMPDEST DUP2 EQ PUSH2 0x31B0 JUMPI PUSH1 0x0 DUP1 REVERT JUMPDEST POP JUMP JUMPDEST PUSH1 0x0 DUP2 CALLDATALOAD SWAP1 POP PUSH2 0x31C2 DUP2 PUSH2 0x319C JUMP JUMPDEST SWAP3 SWAP2 POP POP JUMP JUMPDEST PUSH1 0x0 DUP1 PUSH1 0x40 DUP4 DUP6 SUB SLT ISZERO PUSH2 0x31DF JUMPI PUSH2 0x31DE PUSH2 0x2BD8 JUMP JUMPDEST JUMPDEST PUSH1 0x0 PUSH2 0x31ED DUP6 DUP3 DUP7 ADD PUSH2 0x2C2B JUMP JUMPDEST SWAP3 POP POP PUSH1 0x20 PUSH2 0x31FE DUP6 DUP3 DUP7 ADD PUSH2 0x31B3 JUMP JUMPDEST SWAP2 POP POP SWAP3 POP SWAP3 SWAP1 POP JUMP JUMPDEST PUSH1 0x0 DUP1 REVERT JUMPDEST PUSH32 0x4E487B7100000000000000000000000000000000000000000000000000000000 PUSH1 0x0 MSTORE PUSH1 0x41 PUSH1 0x4 MSTORE PUSH1 0x24 PUSH1 0x0 REVERT JUMPDEST PUSH2 0x3245 DUP3 PUSH2 0x2EB4 JUMP JUMPDEST DUP2 ADD DUP2 DUP2 LT PUSH8 0xFFFFFFFFFFFFFFFF DUP3 GT OR ISZERO PUSH2 0x3264 JUMPI PUSH2 0x3263 PUSH2 0x320D JUMP JUMPDEST JUMPDEST DUP1 PUSH1 0x40 MSTORE POP POP POP JUMP JUMPDEST PUSH1 0x0 PUSH2 0x3277 PUSH2 0x2BCE JUMP JUMPDEST SWAP1 POP PUSH2 0x3283 DUP3 DUP3 PUSH2 0x323C JUMP JUMPDEST SWAP2 SWAP1 POP JUMP JUMPDEST PUSH1 0x0 PUSH8 0xFFFFFFFFFFFFFFFF DUP3 GT ISZERO PUSH2 0x32A3 JUMPI PUSH2 0x32A2 PUSH2 0x320D JUMP JUMPDEST JUMPDEST PUSH2 0x32AC DUP3 PUSH2 0x2EB4 JUMP JUMPDEST SWAP1 POP PUSH1 0x20 DUP2 ADD SWAP1 POP SWAP2 SWAP1 POP JUMP JUMPDEST DUP3 DUP2 DUP4 CALLDATACOPY PUSH1 0x0 DUP4 DUP4 ADD MSTORE POP POP POP JUMP JUMPDEST PUSH1 0x0 PUSH2 0x32DB PUSH2 0x32D6 DUP5 PUSH2 0x3288 JUMP JUMPDEST PUSH2 0x326D JUMP JUMPDEST SWAP1 POP DUP3 DUP2 MSTORE PUSH1 0x20 DUP2 ADD DUP5 DUP5 DUP5 ADD GT ISZERO PUSH2 0x32F7 JUMPI PUSH2 0x32F6 PUSH2 0x3208 JUMP JUMPDEST JUMPDEST PUSH2 0x3302 DUP5 DUP3 DUP6 PUSH2 0x32B9 JUMP JUMPDEST POP SWAP4 SWAP3 POP POP POP JUMP JUMPDEST PUSH1 0x0 DUP3 PUSH1 0x1F DUP4 ADD SLT PUSH2 0x331F JUMPI PUSH2 0x331E PUSH2 0x2C76 JUMP JUMPDEST JUMPDEST DUP2 CALLDATALOAD PUSH2 0x332F DUP5 DUP3 PUSH1 0x20 DUP7 ADD PUSH2 0x32C8 JUMP JUMPDEST SWAP2 POP POP SWAP3 SWAP2 POP POP JUMP JUMPDEST PUSH1 0x0 DUP1 PUSH1 0x0 DUP1 PUSH1 0x80 DUP6 DUP8 SUB SLT ISZERO PUSH2 0x3352 JUMPI PUSH2 0x3351 PUSH2 0x2BD8 JUMP JUMPDEST JUMPDEST PUSH1 0x0 PUSH2 0x3360 DUP8 DUP3 DUP9 ADD PUSH2 0x2C2B JUMP JUMPDEST SWAP5 POP POP PUSH1 0x20 PUSH2 0x3371 DUP8 DUP3 DUP9 ADD PUSH2 0x2C2B JUMP JUMPDEST SWAP4 POP POP PUSH1 0x40 PUSH2 0x3382 DUP8 DUP3 DUP9 ADD PUSH2 0x2C61 JUMP JUMPDEST SWAP3 POP POP PUSH1 0x60 DUP6 ADD CALLDATALOAD PUSH8 0xFFFFFFFFFFFFFFFF DUP2 GT ISZERO PUSH2 0x33A3 JUMPI PUSH2 0x33A2 PUSH2 0x2BDD JUMP JUMPDEST JUMPDEST PUSH2 0x33AF DUP8 DUP3 DUP9 ADD PUSH2 0x330A JUMP JUMPDEST SWAP2 POP POP SWAP3 SWAP6 SWAP2 SWAP5 POP SWAP3 POP JUMP JUMPDEST PUSH1 0x0 PUSH2 0x33C6 DUP3 PUSH2 0x314E JUMP JUMPDEST SWAP1 POP SWAP2 SWAP1 POP JUMP JUMPDEST PUSH2 0x33D6 DUP2 PUSH2 0x33BB JUMP JUMPDEST DUP3 MSTORE POP POP JUMP JUMPDEST PUSH1 0x0 PUSH2 0x33E7 DUP3 PUSH2 0x2BE2 JUMP JUMPDEST SWAP1 POP SWAP2 SWAP1 POP JUMP JUMPDEST PUSH2 0x33F7 DUP2 PUSH2 0x33DC JUMP JUMPDEST DUP3 MSTORE POP POP JUMP JUMPDEST PUSH1 0x0 PUSH1 0xE0 DUP3 ADD SWAP1 POP PUSH2 0x3412 PUSH1 0x0 DUP4 ADD DUP11 PUSH2 0x3037 JUMP JUMPDEST PUSH2 0x341F PUSH1 0x20 DUP4 ADD DUP10 PUSH2 0x33CD JUMP JUMPDEST PUSH2 0x342C PUSH1 0x40 DUP4 ADD DUP9 PUSH2 0x3037 JUMP JUMPDEST DUP2 DUP2 SUB PUSH1 0x60 DUP4 ADD MSTORE PUSH2 0x343E DUP2 DUP8 PUSH2 0x2EC5 JUMP JUMPDEST SWAP1 POP PUSH2 0x344D PUSH1 0x80 DUP4 ADD DUP7 PUSH2 0x3037 JUMP JUMPDEST PUSH2 0x345A PUSH1 0xA0 DUP4 ADD DUP6 PUSH2 0x2E3B JUMP JUMPDEST PUSH2 0x3467 PUSH1 0xC0 DUP4 ADD DUP5 PUSH2 0x33EE JUMP JUMPDEST SWAP9 SWAP8 POP POP POP POP POP POP POP POP JUMP JUMPDEST PUSH1 0x0 PUSH8 0xFFFFFFFFFFFFFFFF DUP3 GT ISZERO PUSH2 0x348E JUMPI PUSH2 0x348D PUSH2 0x320D JUMP JUMPDEST JUMPDEST PUSH2 0x3497 DUP3 PUSH2 0x2EB4 JUMP JUMPDEST SWAP1 POP PUSH1 0x20 DUP2 ADD SWAP1 POP SWAP2 SWAP1 POP JUMP JUMPDEST PUSH1 0x0 PUSH2 0x34B7 PUSH2 0x34B2 DUP5 PUSH2 0x3473 JUMP JUMPDEST PUSH2 0x326D JUMP JUMPDEST SWAP1 POP DUP3 DUP2 MSTORE PUSH1 0x20 DUP2 ADD DUP5 DUP5 DUP5 ADD GT ISZERO PUSH2 0x34D3 JUMPI PUSH2 0x34D2 PUSH2 0x3208 JUMP JUMPDEST JUMPDEST PUSH2 0x34DE DUP5 DUP3 DUP6 PUSH2 0x32B9 JUMP JUMPDEST POP SWAP4 SWAP3 POP POP POP JUMP JUMPDEST PUSH1 0x0 DUP3 PUSH1 0x1F DUP4 ADD SLT PUSH2 0x34FB JUMPI PUSH2 0x34FA PUSH2 0x2C76 JUMP JUMPDEST JUMPDEST DUP2 CALLDATALOAD PUSH2 0x350B DUP5 DUP3 PUSH1 0x20 DUP7 ADD PUSH2 0x34A4 JUMP JUMPDEST SWAP2 POP POP SWAP3 SWAP2 POP POP JUMP JUMPDEST PUSH1 0x0 PUSH1 0x20 DUP3 DUP5 SUB SLT ISZERO PUSH2 0x352A JUMPI PUSH2 0x3529 PUSH2 0x2BD8 JUMP JUMPDEST JUMPDEST PUSH1 0x0 DUP3 ADD CALLDATALOAD PUSH8 0xFFFFFFFFFFFFFFFF DUP2 GT ISZERO PUSH2 0x3548 JUMPI PUSH2 0x3547 PUSH2 0x2BDD JUMP JUMPDEST JUMPDEST PUSH2 0x3554 DUP5 DUP3 DUP6 ADD PUSH2 0x34E6 JUMP JUMPDEST SWAP2 POP POP SWAP3 SWAP2 POP POP JUMP JUMPDEST PUSH1 0x0 DUP1 PUSH1 0x40 DUP4 DUP6 SUB SLT ISZERO PUSH2 0x3574 JUMPI PUSH2 0x3573 PUSH2 0x2BD8 JUMP JUMPDEST JUMPDEST PUSH1 0x0 PUSH2 0x3582 DUP6 DUP3 DUP7 ADD PUSH2 0x2C2B JUMP JUMPDEST SWAP3 POP POP PUSH1 0x20 PUSH2 0x3593 DUP6 DUP3 DUP7 ADD PUSH2 0x2C2B JUMP JUMPDEST SWAP2 POP POP SWAP3 POP SWAP3 SWAP1 POP JUMP JUMPDEST PUSH32 0x4E487B7100000000000000000000000000000000000000000000000000000000 PUSH1 0x0 MSTORE PUSH1 0x11 PUSH1 0x4 MSTORE PUSH1 0x24 PUSH1 0x0 REVERT JUMPDEST PUSH1 0x0 PUSH2 0x35D7 DUP3 PUSH2 0x2C40 JUMP JUMPDEST SWAP2 POP PUSH2 0x35E2 DUP4 PUSH2 0x2C40 JUMP JUMPDEST SWAP3 POP DUP3 PUSH32 0xFFFFFFFFFFFFFFFFFFFFFFFFFFFFFFFFFFFFFFFFFFFFFFFFFFFFFFFFFFFFFFFF SUB DUP3 GT ISZERO PUSH2 0x3617 JUMPI PUSH2 0x3616 PUSH2 0x359D JUMP JUMPDEST JUMPDEST DUP3 DUP3 ADD SWAP1 POP SWAP3 SWAP2 POP POP JUMP JUMPDEST PUSH32 0x4E487B7100000000000000000000000000000000000000000000000000000000 PUSH1 0x0 MSTORE PUSH1 0x22 PUSH1 0x4 MSTORE PUSH1 0x24 PUSH1 0x0 REVERT JUMPDEST PUSH1 0x0 PUSH1 0x2 DUP3 DIV SWAP1 POP PUSH1 0x1 DUP3 AND DUP1 PUSH2 0x3669 JUMPI PUSH1 0x7F DUP3 AND SWAP2 POP JUMPDEST PUSH1 0x20 DUP3 LT DUP2 SUB PUSH2 0x367C JUMPI PUSH2 0x367B PUSH2 0x3622 JUMP JUMPDEST JUMPDEST POP SWAP2 SWAP1 POP JUMP JUMPDEST PUSH32 0x4552433732313A20617070726F76616C20746F2063757272656E74206F776E65 PUSH1 0x0 DUP3 ADD MSTORE PUSH32 0x7200000000000000000000000000000000000000000000000000000000000000 PUSH1 0x20 DUP3 ADD MSTORE POP JUMP JUMPDEST PUSH1 0x0 PUSH2 0x36DE PUSH1 0x21 DUP4 PUSH2 0x2E70 JUMP JUMPDEST SWAP2 POP PUSH2 0x36E9 DUP3 PUSH2 0x3682 JUMP JUMPDEST PUSH1 0x40 DUP3 ADD SWAP1 POP SWAP2 SWAP1 POP JUMP JUMPDEST PUSH1 0x0 PUSH1 0x20 DUP3 ADD SWAP1 POP DUP2 DUP2 SUB PUSH1 0x0 DUP4 ADD MSTORE PUSH2 0x370D DUP2 PUSH2 0x36D1 JUMP JUMPDEST SWAP1 POP SWAP2 SWAP1 POP JUMP JUMPDEST PUSH32 0x4552433732313A20617070726F76652063616C6C6572206973206E6F7420746F PUSH1 0x0 DUP3 ADD MSTORE PUSH32 0x6B656E206F776E6572206E6F7220617070726F76656420666F7220616C6C0000 PUSH1 0x20 DUP3 ADD MSTORE POP JUMP JUMPDEST PUSH1 0x0 PUSH2 0x3770 PUSH1 0x3E DUP4 PUSH2 0x2E70 JUMP JUMPDEST SWAP2 POP PUSH2 0x377B DUP3 PUSH2 0x3714 JUMP JUMPDEST PUSH1 0x40 DUP3 ADD SWAP1 POP SWAP2 SWAP1 POP JUMP JUMPDEST PUSH1 0x0 PUSH1 0x20 DUP3 ADD SWAP1 POP DUP2 DUP2 SUB PUSH1 0x0 DUP4 ADD MSTORE PUSH2 0x379F DUP2 PUSH2 0x3763 JUMP JUMPDEST SWAP1 POP SWAP2 SWAP1 POP JUMP JUMPDEST PUSH32 0x4552433732313A2063616C6C6572206973206E6F7420746F6B656E206F776E65 PUSH1 0x0 DUP3 ADD MSTORE PUSH32 0x72206E6F7220617070726F766564000000000000000000000000000000000000 PUSH1 0x20 DUP3 ADD MSTORE POP JUMP JUMPDEST PUSH1 0x0 PUSH2 0x3802 PUSH1 0x2E DUP4 PUSH2 0x2E70 JUMP JUMPDEST SWAP2 POP PUSH2 0x380D DUP3 PUSH2 0x37A6 JUMP JUMPDEST PUSH1 0x40 DUP3 ADD SWAP1 POP SWAP2 SWAP1 POP JUMP JUMPDEST PUSH1 0x0 PUSH1 0x20 DUP3 ADD SWAP1 POP DUP2 DUP2 SUB PUSH1 0x0 DUP4 ADD MSTORE PUSH2 0x3831 DUP2 PUSH2 0x37F5 JUMP JUMPDEST SWAP1 POP SWAP2 SWAP1 POP JUMP JUMPDEST PUSH32 0x4552433732313A20696E76616C696420746F6B656E2049440000000000000000 PUSH1 0x0 DUP3 ADD MSTORE POP JUMP JUMPDEST PUSH1 0x0 PUSH2 0x386E PUSH1 0x18 DUP4 PUSH2 0x2E70 JUMP JUMPDEST SWAP2 POP PUSH2 0x3879 DUP3 PUSH2 0x3838 JUMP JUMPDEST PUSH1 0x20 DUP3 ADD SWAP1 POP SWAP2 SWAP1 POP JUMP JUMPDEST PUSH1 0x0 PUSH1 0x20 DUP3 ADD SWAP1 POP DUP2 DUP2 SUB PUSH1 0x0 DUP4 ADD MSTORE PUSH2 0x389D DUP2 PUSH2 0x3861 JUMP JUMPDEST SWAP1 POP SWAP2 SWAP1 POP JUMP JUMPDEST PUSH32 0x4D61726B6574506C616365436F6E74726163743A2063616C6C6572206973206E PUSH1 0x0 DUP3 ADD MSTORE PUSH32 0x6F7420746865206F776E65720000000000000000000000000000000000000000 PUSH1 0x20 DUP3 ADD MSTORE POP JUMP JUMPDEST PUSH1 0x0 PUSH2 0x3900 PUSH1 0x2C DUP4 PUSH2 0x2E70 JUMP JUMPDEST SWAP2 POP PUSH2 0x390B DUP3 PUSH2 0x38A4 JUMP JUMPDEST PUSH1 0x40 DUP3 ADD SWAP1 POP SWAP2 SWAP1 POP JUMP JUMPDEST PUSH1 0x0 PUSH1 0x20 DUP3 ADD SWAP1 POP DUP2 DUP2 SUB PUSH1 0x0 DUP4 ADD MSTORE PUSH2 0x392F DUP2 PUSH2 0x38F3 JUMP JUMPDEST SWAP1 POP SWAP2 SWAP1 POP JUMP JUMPDEST PUSH32 0x5265656E7472616E637947756172643A207265656E7472616E742063616C6C00 PUSH1 0x0 DUP3 ADD MSTORE POP JUMP JUMPDEST PUSH1 0x0 PUSH2 0x396C PUSH1 0x1F DUP4 PUSH2 0x2E70 JUMP JUMPDEST SWAP2 POP PUSH2 0x3977 DUP3 PUSH2 0x3936 JUMP JUMPDEST PUSH1 0x20 DUP3 ADD SWAP1 POP SWAP2 SWAP1 POP JUMP JUMPDEST PUSH1 0x0 PUSH1 0x20 DUP3 ADD SWAP1 POP DUP2 DUP2 SUB PUSH1 0x0 DUP4 ADD MSTORE PUSH2 0x399B DUP2 PUSH2 0x395F JUMP JUMPDEST SWAP1 POP SWAP2 SWAP1 POP JUMP JUMPDEST PUSH32 0x5072696365206D75737420626520677265617465722074686174203000000000 PUSH1 0x0 DUP3 ADD MSTORE POP JUMP JUMPDEST PUSH1 0x0 PUSH2 0x39D8 PUSH1 0x1C DUP4 PUSH2 0x2E70 JUMP JUMPDEST SWAP2 POP PUSH2 0x39E3 DUP3 PUSH2 0x39A2 JUMP JUMPDEST PUSH1 0x20 DUP3 ADD SWAP1 POP SWAP2 SWAP1 POP JUMP JUMPDEST PUSH1 0x0 PUSH1 0x20 DUP3 ADD SWAP1 POP DUP2 DUP2 SUB PUSH1 0x0 DUP4 ADD MSTORE PUSH2 0x3A07 DUP2 PUSH2 0x39CB JUMP JUMPDEST SWAP1 POP SWAP2 SWAP1 POP JUMP JUMPDEST PUSH1 0x0 PUSH1 0x60 DUP3 ADD SWAP1 POP PUSH2 0x3A23 PUSH1 0x0 DUP4 ADD DUP7 PUSH2 0x2F4D JUMP JUMPDEST PUSH2 0x3A30 PUSH1 0x20 DUP4 ADD DUP6 PUSH2 0x2F4D JUMP JUMPDEST PUSH2 0x3A3D PUSH1 0x40 DUP4 ADD DUP5 PUSH2 0x3037 JUMP JUMPDEST SWAP5 SWAP4 POP POP POP POP JUMP JUMPDEST PUSH1 0x0 DUP2 SWAP1 POP DUP2 PUSH1 0x0 MSTORE PUSH1 0x20 PUSH1 0x0 KECCAK256 SWAP1 POP SWAP2 SWAP1 POP JUMP JUMPDEST PUSH1 0x0 PUSH1 0x20 PUSH1 0x1F DUP4 ADD DIV SWAP1 POP SWAP2 SWAP1 POP JUMP JUMPDEST PUSH1 0x0 DUP3 DUP3 SHL SWAP1 POP SWAP3 SWAP2 POP POP JUMP JUMPDEST PUSH1 0x0 PUSH1 0x8 DUP4 MUL PUSH2 0x3AA7 PUSH32 0xFFFFFFFFFFFFFFFFFFFFFFFFFFFFFFFFFFFFFFFFFFFFFFFFFFFFFFFFFFFFFFFF DUP3 PUSH2 0x3A6A JUMP JUMPDEST PUSH2 0x3AB1 DUP7 DUP4 PUSH2 0x3A6A JUMP JUMPDEST SWAP6 POP DUP1 NOT DUP5 AND SWAP4 POP DUP1 DUP7 AND DUP5 OR SWAP3 POP POP POP SWAP4 SWAP3 POP POP POP JUMP JUMPDEST PUSH1 0x0 PUSH2 0x3AE4 PUSH2 0x3ADF PUSH2 0x3ADA DUP5 PUSH2 0x2C40 JUMP JUMPDEST PUSH2 0x3122 JUMP JUMPDEST PUSH2 0x2C40 JUMP JUMPDEST SWAP1 POP SWAP2 SWAP1 POP JUMP JUMPDEST PUSH1 0x0 DUP2 SWAP1 POP SWAP2 SWAP1 POP JUMP JUMPDEST PUSH2 0x3AFE DUP4 PUSH2 0x3AC9 JUMP JUMPDEST PUSH2 0x3B12 PUSH2 0x3B0A DUP3 PUSH2 0x3AEB JUMP JUMPDEST DUP5 DUP5 SLOAD PUSH2 0x3A77 JUMP JUMPDEST DUP3 SSTORE POP POP POP POP JUMP JUMPDEST PUSH1 0x0 SWAP1 JUMP JUMPDEST PUSH2 0x3B27 PUSH2 0x3B1A JUMP JUMPDEST PUSH2 0x3B32 DUP2 DUP5 DUP5 PUSH2 0x3AF5 JUMP JUMPDEST POP POP POP JUMP JUMPDEST JUMPDEST DUP2 DUP2 LT ISZERO PUSH2 0x3B56 JUMPI PUSH2 0x3B4B PUSH1 0x0 DUP3 PUSH2 0x3B1F JUMP JUMPDEST PUSH1 0x1 DUP2 ADD SWAP1 POP PUSH2 0x3B38 JUMP JUMPDEST POP POP JUMP JUMPDEST PUSH1 0x1F DUP3 GT ISZERO PUSH2 0x3B9B JUMPI PUSH2 0x3B6C DUP2 PUSH2 0x3A45 JUMP JUMPDEST PUSH2 0x3B75 DUP5 PUSH2 0x3A5A JUMP JUMPDEST DUP2 ADD PUSH1 0x20 DUP6 LT ISZERO PUSH2 0x3B84 JUMPI DUP2 SWAP1 POP JUMPDEST PUSH2 0x3B98 PUSH2 0x3B90 DUP6 PUSH2 0x3A5A JUMP JUMPDEST DUP4 ADD DUP3 PUSH2 0x3B37 JUMP JUMPDEST POP POP JUMPDEST POP POP POP JUMP JUMPDEST PUSH1 0x0 DUP3 DUP3 SHR SWAP1 POP SWAP3 SWAP2 POP POP JUMP JUMPDEST PUSH1 0x0 PUSH2 0x3BBE PUSH1 0x0 NOT DUP5 PUSH1 0x8 MUL PUSH2 0x3BA0 JUMP JUMPDEST NOT DUP1 DUP4 AND SWAP2 POP POP SWAP3 SWAP2 POP POP JUMP JUMPDEST PUSH1 0x0 PUSH2 0x3BD7 DUP4 DUP4 PUSH2 0x3BAD JUMP JUMPDEST SWAP2 POP DUP3 PUSH1 0x2 MUL DUP3 OR SWAP1 POP SWAP3 SWAP2 POP POP JUMP JUMPDEST PUSH2 0x3BF0 DUP3 PUSH2 0x2E65 JUMP JUMPDEST PUSH8 0xFFFFFFFFFFFFFFFF DUP2 GT ISZERO PUSH2 0x3C09 JUMPI PUSH2 0x3C08 PUSH2 0x320D JUMP JUMPDEST JUMPDEST PUSH2 0x3C13 DUP3 SLOAD PUSH2 0x3651 JUMP JUMPDEST PUSH2 0x3C1E DUP3 DUP3 DUP6 PUSH2 0x3B5A JUMP JUMPDEST PUSH1 0x0 PUSH1 0x20 SWAP1 POP PUSH1 0x1F DUP4 GT PUSH1 0x1 DUP2 EQ PUSH2 0x3C51 JUMPI PUSH1 0x0 DUP5 ISZERO PUSH2 0x3C3F JUMPI DUP3 DUP8 ADD MLOAD SWAP1 POP JUMPDEST PUSH2 0x3C49 DUP6 DUP3 PUSH2 0x3BCB JUMP JUMPDEST DUP7 SSTORE POP PUSH2 0x3CB1 JUMP JUMPDEST PUSH1 0x1F NOT DUP5 AND PUSH2 0x3C5F DUP7 PUSH2 0x3A45 JUMP JUMPDEST PUSH1 0x0 JUMPDEST DUP3 DUP2 LT ISZERO PUSH2 0x3C87 JUMPI DUP5 DUP10 ADD MLOAD DUP3 SSTORE PUSH1 0x1 DUP3 ADD SWAP2 POP PUSH1 0x20 DUP6 ADD SWAP5 POP PUSH1 0x20 DUP2 ADD SWAP1 POP PUSH2 0x3C62 JUMP JUMPDEST DUP7 DUP4 LT ISZERO PUSH2 0x3CA4 JUMPI DUP5 DUP10 ADD MLOAD PUSH2 0x3CA0 PUSH1 0x1F DUP10 AND DUP3 PUSH2 0x3BAD JUMP JUMPDEST DUP4 SSTORE POP JUMPDEST PUSH1 0x1 PUSH1 0x2 DUP9 MUL ADD DUP9 SSTORE POP POP POP JUMPDEST POP POP POP POP POP POP JUMP JUMPDEST PUSH1 0x0 PUSH1 0x80 DUP3 ADD SWAP1 POP PUSH2 0x3CCE PUSH1 0x0 DUP4 ADD DUP8 PUSH2 0x3037 JUMP JUMPDEST PUSH2 0x3CDB PUSH1 0x20 DUP4 ADD DUP7 PUSH2 0x3037 JUMP JUMPDEST DUP2 DUP2 SUB PUSH1 0x40 DUP4 ADD MSTORE PUSH2 0x3CED DUP2 DUP6 PUSH2 0x2EC5 JUMP JUMPDEST SWAP1 POP PUSH2 0x3CFC PUSH1 0x60 DUP4 ADD DUP5 PUSH2 0x3037 JUMP JUMPDEST SWAP6 SWAP5 POP POP POP POP POP JUMP JUMPDEST PUSH32 0x4552433732313A2061646472657373207A65726F206973206E6F742061207661 PUSH1 0x0 DUP3 ADD MSTORE PUSH32 0x6C6964206F776E65720000000000000000000000000000000000000000000000 PUSH1 0x20 DUP3 ADD MSTORE POP JUMP JUMPDEST PUSH1 0x0 PUSH2 0x3D61 PUSH1 0x29 DUP4 PUSH2 0x2E70 JUMP JUMPDEST SWAP2 POP PUSH2 0x3D6C DUP3 PUSH2 0x3D05 JUMP JUMPDEST PUSH1 0x40 DUP3 ADD SWAP1 POP SWAP2 SWAP1 POP JUMP JUMPDEST PUSH1 0x0 PUSH1 0x20 DUP3 ADD SWAP1 POP DUP2 DUP2 SUB PUSH1 0x0 DUP4 ADD MSTORE PUSH2 0x3D90 DUP2 PUSH2 0x3D54 JUMP JUMPDEST SWAP1 POP SWAP2 SWAP1 POP JUMP JUMPDEST PUSH32 0x546865726520646F6E277420626520746F6B656E730000000000000000000000 PUSH1 0x0 DUP3 ADD MSTORE POP JUMP JUMPDEST PUSH1 0x0 PUSH2 0x3DCD PUSH1 0x15 DUP4 PUSH2 0x2E70 JUMP JUMPDEST SWAP2 POP PUSH2 0x3DD8 DUP3 PUSH2 0x3D97 JUMP JUMPDEST PUSH1 0x20 DUP3 ADD SWAP1 POP SWAP2 SWAP1 POP JUMP JUMPDEST PUSH1 0x0 PUSH1 0x20 DUP3 ADD SWAP1 POP DUP2 DUP2 SUB PUSH1 0x0 DUP4 ADD MSTORE PUSH2 0x3DFC DUP2 PUSH2 0x3DC0 JUMP JUMPDEST SWAP1 POP SWAP2 SWAP1 POP JUMP JUMPDEST PUSH1 0x0 DUP3 DUP3 MSTORE PUSH1 0x20 DUP3 ADD SWAP1 POP SWAP3 SWAP2 POP POP JUMP JUMPDEST POP JUMP JUMPDEST PUSH1 0x0 PUSH2 0x3E24 PUSH1 0x0 DUP4 PUSH2 0x3E03 JUMP JUMPDEST SWAP2 POP PUSH2 0x3E2F DUP3 PUSH2 0x3E14 JUMP JUMPDEST PUSH1 0x0 DUP3 ADD SWAP1 POP SWAP2 SWAP1 POP JUMP JUMPDEST PUSH1 0x0 PUSH1 0xA0 DUP3 ADD SWAP1 POP PUSH2 0x3E4F PUSH1 0x0 DUP4 ADD DUP7 PUSH2 0x2F4D JUMP JUMPDEST PUSH2 0x3E5C PUSH1 0x20 DUP4 ADD DUP6 PUSH2 0x2F4D JUMP JUMPDEST PUSH2 0x3E69 PUSH1 0x40 DUP4 ADD DUP5 PUSH2 0x3037 JUMP JUMPDEST DUP2 DUP2 SUB PUSH1 0x60 DUP4 ADD MSTORE PUSH2 0x3E7A DUP2 PUSH2 0x3E17 JUMP JUMPDEST SWAP1 POP DUP2 DUP2 SUB PUSH1 0x80 DUP4 ADD MSTORE PUSH2 0x3E8D DUP2 PUSH2 0x3E17 JUMP JUMPDEST SWAP1 POP SWAP5 SWAP4 POP POP POP POP JUMP JUMPDEST PUSH32 0x5468697320746F6B656E20697320616C726561647920617070726F7665640000 PUSH1 0x0 DUP3 ADD MSTORE POP JUMP JUMPDEST PUSH1 0x0 PUSH2 0x3ECD PUSH1 0x1E DUP4 PUSH2 0x2E70 JUMP JUMPDEST SWAP2 POP PUSH2 0x3ED8 DUP3 PUSH2 0x3E97 JUMP JUMPDEST PUSH1 0x20 DUP3 ADD SWAP1 POP SWAP2 SWAP1 POP JUMP JUMPDEST PUSH1 0x0 PUSH1 0x20 DUP3 ADD SWAP1 POP DUP2 DUP2 SUB PUSH1 0x0 DUP4 ADD MSTORE PUSH2 0x3EFC DUP2 PUSH2 0x3EC0 JUMP JUMPDEST SWAP1 POP SWAP2 SWAP1 POP JUMP JUMPDEST PUSH32 0x576520646F6E277420616363657074207468697320746F6B656E000000000000 PUSH1 0x0 DUP3 ADD MSTORE POP JUMP JUMPDEST PUSH1 0x0 PUSH2 0x3F39 PUSH1 0x1A DUP4 PUSH2 0x2E70 JUMP JUMPDEST SWAP2 POP PUSH2 0x3F44 DUP3 PUSH2 0x3F03 JUMP JUMPDEST PUSH1 0x20 DUP3 ADD SWAP1 POP SWAP2 SWAP1 POP JUMP JUMPDEST PUSH1 0x0 PUSH1 0x20 DUP3 ADD SWAP1 POP DUP2 DUP2 SUB PUSH1 0x0 DUP4 ADD MSTORE PUSH2 0x3F68 DUP2 PUSH2 0x3F2C JUMP JUMPDEST SWAP1 POP SWAP2 SWAP1 POP JUMP JUMPDEST PUSH1 0x0 DUP2 MLOAD SWAP1 POP PUSH2 0x3F7E DUP2 PUSH2 0x2C4A JUMP JUMPDEST SWAP3 SWAP2 POP POP JUMP JUMPDEST PUSH1 0x0 PUSH1 0x20 DUP3 DUP5 SUB SLT ISZERO PUSH2 0x3F9A JUMPI PUSH2 0x3F99 PUSH2 0x2BD8 JUMP JUMPDEST JUMPDEST PUSH1 0x0 PUSH2 0x3FA8 DUP5 DUP3 DUP6 ADD PUSH2 0x3F6F JUMP JUMPDEST SWAP2 POP POP SWAP3 SWAP2 POP POP JUMP JUMPDEST PUSH32 0x496E73756666696369656E7420746F6B656E7300000000000000000000000000 PUSH1 0x0 DUP3 ADD MSTORE POP JUMP JUMPDEST PUSH1 0x0 PUSH2 0x3FE7 PUSH1 0x13 DUP4 PUSH2 0x2E70 JUMP JUMPDEST SWAP2 POP PUSH2 0x3FF2 DUP3 PUSH2 0x3FB1 JUMP JUMPDEST PUSH1 0x20 DUP3 ADD SWAP1 POP SWAP2 SWAP1 POP JUMP JUMPDEST PUSH1 0x0 PUSH1 0x20 DUP3 ADD SWAP1 POP DUP2 DUP2 SUB PUSH1 0x0 DUP4 ADD MSTORE PUSH2 0x4016 DUP2 PUSH2 0x3FDA JUMP JUMPDEST SWAP1 POP SWAP2 SWAP1 POP JUMP JUMPDEST PUSH32 0x4974656D20646F6E277420657869737400000000000000000000000000000000 PUSH1 0x0 DUP3 ADD MSTORE POP JUMP JUMPDEST PUSH1 0x0 PUSH2 0x4053 PUSH1 0x10 DUP4 PUSH2 0x2E70 JUMP JUMPDEST SWAP2 POP PUSH2 0x405E DUP3 PUSH2 0x401D JUMP JUMPDEST PUSH1 0x20 DUP3 ADD SWAP1 POP SWAP2 SWAP1 POP JUMP JUMPDEST PUSH1 0x0 PUSH1 0x20 DUP3 ADD SWAP1 POP DUP2 DUP2 SUB PUSH1 0x0 DUP4 ADD MSTORE PUSH2 0x4082 DUP2 PUSH2 0x4046 JUMP JUMPDEST SWAP1 POP SWAP2 SWAP1 POP JUMP JUMPDEST PUSH32 0x4974656D20616C726561647920736F6C64000000000000000000000000000000 PUSH1 0x0 DUP3 ADD MSTORE POP JUMP JUMPDEST PUSH1 0x0 PUSH2 0x40BF PUSH1 0x11 DUP4 PUSH2 0x2E70 JUMP JUMPDEST SWAP2 POP PUSH2 0x40CA DUP3 PUSH2 0x4089 JUMP JUMPDEST PUSH1 0x20 DUP3 ADD SWAP1 POP SWAP2 SWAP1 POP JUMP JUMPDEST PUSH1 0x0 PUSH1 0x20 DUP3 ADD SWAP1 POP DUP2 DUP2 SUB PUSH1 0x0 DUP4 ADD MSTORE PUSH2 0x40EE DUP2 PUSH2 0x40B2 JUMP JUMPDEST SWAP1 POP SWAP2 SWAP1 POP JUMP JUMPDEST PUSH1 0x0 PUSH1 0x40 DUP3 ADD SWAP1 POP PUSH2 0x410A PUSH1 0x0 DUP4 ADD DUP6 PUSH2 0x2F4D JUMP JUMPDEST PUSH2 0x4117 PUSH1 0x20 DUP4 ADD DUP5 PUSH2 0x3037 JUMP JUMPDEST SWAP4 SWAP3 POP POP POP JUMP JUMPDEST PUSH1 0x0 DUP2 MLOAD SWAP1 POP PUSH2 0x412D DUP2 PUSH2 0x319C JUMP JUMPDEST SWAP3 SWAP2 POP POP JUMP JUMPDEST PUSH1 0x0 PUSH1 0x20 DUP3 DUP5 SUB SLT ISZERO PUSH2 0x4149 JUMPI PUSH2 0x4148 PUSH2 0x2BD8 JUMP JUMPDEST JUMPDEST PUSH1 0x0 PUSH2 0x4157 DUP5 DUP3 DUP6 ADD PUSH2 0x411E JUMP JUMPDEST SWAP2 POP POP SWAP3 SWAP2 POP POP JUMP JUMPDEST PUSH1 0x0 DUP2 SWAP1 POP SWAP3 SWAP2 POP POP JUMP JUMPDEST PUSH1 0x0 PUSH2 0x4176 DUP3 PUSH2 0x2E65 JUMP JUMPDEST PUSH2 0x4180 DUP2 DUP6 PUSH2 0x4160 JUMP JUMPDEST SWAP4 POP PUSH2 0x4190 DUP2 DUP6 PUSH1 0x20 DUP7 ADD PUSH2 0x2E81 JUMP JUMPDEST DUP1 DUP5 ADD SWAP2 POP POP SWAP3 SWAP2 POP POP JUMP JUMPDEST PUSH1 0x0 PUSH2 0x41A8 DUP3 DUP6 PUSH2 0x416B JUMP JUMPDEST SWAP2 POP PUSH2 0x41B4 DUP3 DUP5 PUSH2 0x416B JUMP JUMPDEST SWAP2 POP DUP2 SWAP1 POP SWAP4 SWAP3 POP POP POP JUMP JUMPDEST PUSH32 0x4552433732313A207472616E736665722066726F6D20696E636F727265637420 PUSH1 0x0 DUP3 ADD MSTORE PUSH32 0x6F776E6572000000000000000000000000000000000000000000000000000000 PUSH1 0x20 DUP3 ADD MSTORE POP JUMP JUMPDEST PUSH1 0x0 PUSH2 0x421C PUSH1 0x25 DUP4 PUSH2 0x2E70 JUMP JUMPDEST SWAP2 POP PUSH2 0x4227 DUP3 PUSH2 0x41C0 JUMP JUMPDEST PUSH1 0x40 DUP3 ADD SWAP1 POP SWAP2 SWAP1 POP JUMP JUMPDEST PUSH1 0x0 PUSH1 0x20 DUP3 ADD SWAP1 POP DUP2 DUP2 SUB PUSH1 0x0 DUP4 ADD MSTORE PUSH2 0x424B DUP2 PUSH2 0x420F JUMP JUMPDEST SWAP1 POP SWAP2 SWAP1 POP JUMP JUMPDEST PUSH32 0x4552433732313A207472616E7366657220746F20746865207A65726F20616464 PUSH1 0x0 DUP3 ADD MSTORE PUSH32 0x7265737300000000000000000000000000000000000000000000000000000000 PUSH1 0x20 DUP3 ADD MSTORE POP JUMP JUMPDEST PUSH1 0x0 PUSH2 0x42AE PUSH1 0x24 DUP4 PUSH2 0x2E70 JUMP JUMPDEST SWAP2 POP PUSH2 0x42B9 DUP3 PUSH2 0x4252 JUMP JUMPDEST PUSH1 0x40 DUP3 ADD SWAP1 POP SWAP2 SWAP1 POP JUMP JUMPDEST PUSH1 0x0 PUSH1 0x20 DUP3 ADD SWAP1 POP DUP2 DUP2 SUB PUSH1 0x0 DUP4 ADD MSTORE PUSH2 0x42DD DUP2 PUSH2 0x42A1 JUMP JUMPDEST SWAP1 POP SWAP2 SWAP1 POP JUMP JUMPDEST PUSH1 0x0 PUSH2 0x42EF DUP3 PUSH2 0x2C40 JUMP JUMPDEST SWAP2 POP PUSH2 0x42FA DUP4 PUSH2 0x2C40 JUMP JUMPDEST SWAP3 POP DUP3 DUP3 LT ISZERO PUSH2 0x430D JUMPI PUSH2 0x430C PUSH2 0x359D JUMP JUMPDEST JUMPDEST DUP3 DUP3 SUB SWAP1 POP SWAP3 SWAP2 POP POP JUMP JUMPDEST PUSH32 0x4552433732313A20617070726F766520746F2063616C6C657200000000000000 PUSH1 0x0 DUP3 ADD MSTORE POP JUMP JUMPDEST PUSH1 0x0 PUSH2 0x434E PUSH1 0x19 DUP4 PUSH2 0x2E70 JUMP JUMPDEST SWAP2 POP PUSH2 0x4359 DUP3 PUSH2 0x4318 JUMP JUMPDEST PUSH1 0x20 DUP3 ADD SWAP1 POP SWAP2 SWAP1 POP JUMP JUMPDEST PUSH1 0x0 PUSH1 0x20 DUP3 ADD SWAP1 POP DUP2 DUP2 SUB PUSH1 0x0 DUP4 ADD MSTORE PUSH2 0x437D DUP2 PUSH2 0x4341 JUMP JUMPDEST SWAP1 POP SWAP2 SWAP1 POP JUMP JUMPDEST PUSH32 0x4552433732313A207472616E7366657220746F206E6F6E204552433732315265 PUSH1 0x0 DUP3 ADD MSTORE PUSH32 0x63656976657220696D706C656D656E7465720000000000000000000000000000 PUSH1 0x20 DUP3 ADD MSTORE POP JUMP JUMPDEST PUSH1 0x0 PUSH2 0x43E0 PUSH1 0x32 DUP4 PUSH2 0x2E70 JUMP JUMPDEST SWAP2 POP PUSH2 0x43EB DUP3 PUSH2 0x4384 JUMP JUMPDEST PUSH1 0x40 DUP3 ADD SWAP1 POP SWAP2 SWAP1 POP JUMP JUMPDEST PUSH1 0x0 PUSH1 0x20 DUP3 ADD SWAP1 POP DUP2 DUP2 SUB PUSH1 0x0 DUP4 ADD MSTORE PUSH2 0x440F DUP2 PUSH2 0x43D3 JUMP JUMPDEST SWAP1 POP SWAP2 SWAP1 POP JUMP JUMPDEST PUSH32 0x45524337323155524953746F726167653A2055524920736574206F66206E6F6E PUSH1 0x0 DUP3 ADD MSTORE PUSH32 0x6578697374656E7420746F6B656E000000000000000000000000000000000000 PUSH1 0x20 DUP3 ADD MSTORE POP JUMP JUMPDEST PUSH1 0x0 PUSH2 0x4472 PUSH1 0x2E DUP4 PUSH2 0x2E70 JUMP JUMPDEST SWAP2 POP PUSH2 0x447D DUP3 PUSH2 0x4416 JUMP JUMPDEST PUSH1 0x40 DUP3 ADD SWAP1 POP SWAP2 SWAP1 POP JUMP JUMPDEST PUSH1 0x0 PUSH1 0x20 DUP3 ADD SWAP1 POP DUP2 DUP2 SUB PUSH1 0x0 DUP4 ADD MSTORE PUSH2 0x44A1 DUP2 PUSH2 0x4465 JUMP JUMPDEST SWAP1 POP SWAP2 SWAP1 POP JUMP JUMPDEST PUSH1 0x0 DUP2 MLOAD SWAP1 POP SWAP2 SWAP1 POP JUMP JUMPDEST PUSH1 0x0 PUSH2 0x44BE DUP3 PUSH2 0x44A8 JUMP JUMPDEST PUSH2 0x44C8 DUP2 DUP6 PUSH2 0x3E03 JUMP JUMPDEST SWAP4 POP PUSH2 0x44D8 DUP2 DUP6 PUSH1 0x20 DUP7 ADD PUSH2 0x2E81 JUMP JUMPDEST PUSH2 0x44E1 DUP2 PUSH2 0x2EB4 JUMP JUMPDEST DUP5 ADD SWAP2 POP POP SWAP3 SWAP2 POP POP JUMP JUMPDEST PUSH1 0x0 PUSH1 0x80 DUP3 ADD SWAP1 POP PUSH2 0x4501 PUSH1 0x0 DUP4 ADD DUP8 PUSH2 0x2F4D JUMP JUMPDEST PUSH2 0x450E PUSH1 0x20 DUP4 ADD DUP7 PUSH2 0x2F4D JUMP JUMPDEST PUSH2 0x451B PUSH1 0x40 DUP4 ADD DUP6 PUSH2 0x3037 JUMP JUMPDEST DUP2 DUP2 SUB PUSH1 0x60 DUP4 ADD MSTORE PUSH2 0x452D DUP2 DUP5 PUSH2 0x44B3 JUMP JUMPDEST SWAP1 POP SWAP6 SWAP5 POP POP POP POP POP JUMP JUMPDEST PUSH1 0x0 DUP2 MLOAD SWAP1 POP PUSH2 0x4547 DUP2 PUSH2 0x2DD6 JUMP JUMPDEST SWAP3 SWAP2 POP POP JUMP JUMPDEST PUSH1 0x0 PUSH1 0x20 DUP3 DUP5 SUB SLT ISZERO PUSH2 0x4563 JUMPI PUSH2 0x4562 PUSH2 0x2BD8 JUMP JUMPDEST JUMPDEST PUSH1 0x0 PUSH2 0x4571 DUP5 DUP3 DUP6 ADD PUSH2 0x4538 JUMP JUMPDEST SWAP2 POP POP SWAP3 SWAP2 POP POP JUMP JUMPDEST PUSH1 0x0 PUSH2 0x4585 DUP3 PUSH2 0x2C40 JUMP JUMPDEST SWAP2 POP PUSH32 0xFFFFFFFFFFFFFFFFFFFFFFFFFFFFFFFFFFFFFFFFFFFFFFFFFFFFFFFFFFFFFFFF DUP3 SUB PUSH2 0x45B7 JUMPI PUSH2 0x45B6 PUSH2 0x359D JUMP JUMPDEST JUMPDEST PUSH1 0x1 DUP3 ADD SWAP1 POP SWAP2 SWAP1 POP JUMP JUMPDEST PUSH32 0x4E487B7100000000000000000000000000000000000000000000000000000000 PUSH1 0x0 MSTORE PUSH1 0x12 PUSH1 0x4 MSTORE PUSH1 0x24 PUSH1 0x0 REVERT JUMPDEST PUSH1 0x0 PUSH2 0x45FC DUP3 PUSH2 0x2C40 JUMP JUMPDEST SWAP2 POP PUSH2 0x4607 DUP4 PUSH2 0x2C40 JUMP JUMPDEST SWAP3 POP DUP3 PUSH2 0x4617 JUMPI PUSH2 0x4616 PUSH2 0x45C2 JUMP JUMPDEST JUMPDEST DUP3 DUP3 DIV SWAP1 POP SWAP3 SWAP2 POP POP JUMP JUMPDEST PUSH1 0x0 PUSH2 0x462D DUP3 PUSH2 0x2C40 JUMP JUMPDEST SWAP2 POP PUSH2 0x4638 DUP4 PUSH2 0x2C40 JUMP JUMPDEST SWAP3 POP DUP3 PUSH2 0x4648 JUMPI PUSH2 0x4647 PUSH2 0x45C2 JUMP JUMPDEST JUMPDEST DUP3 DUP3 MOD SWAP1 POP SWAP3 SWAP2 POP POP JUMP JUMPDEST PUSH32 0x4E487B7100000000000000000000000000000000000000000000000000000000 PUSH1 0x0 MSTORE PUSH1 0x32 PUSH1 0x4 MSTORE PUSH1 0x24 PUSH1 0x0 REVERT JUMPDEST PUSH32 0x4552433732313A206D696E7420746F20746865207A65726F2061646472657373 PUSH1 0x0 DUP3 ADD MSTORE POP JUMP JUMPDEST PUSH1 0x0 PUSH2 0x46B8 PUSH1 0x20 DUP4 PUSH2 0x2E70 JUMP JUMPDEST SWAP2 POP PUSH2 0x46C3 DUP3 PUSH2 0x4682 JUMP JUMPDEST PUSH1 0x20 DUP3 ADD SWAP1 POP SWAP2 SWAP1 POP JUMP JUMPDEST PUSH1 0x0 PUSH1 0x20 DUP3 ADD SWAP1 POP DUP2 DUP2 SUB PUSH1 0x0 DUP4 ADD MSTORE PUSH2 0x46E7 DUP2 PUSH2 0x46AB JUMP JUMPDEST SWAP1 POP SWAP2 SWAP1 POP JUMP JUMPDEST PUSH32 0x4552433732313A20746F6B656E20616C7265616479206D696E74656400000000 PUSH1 0x0 DUP3 ADD MSTORE POP JUMP JUMPDEST PUSH1 0x0 PUSH2 0x4724 PUSH1 0x1C DUP4 PUSH2 0x2E70 JUMP JUMPDEST SWAP2 POP PUSH2 0x472F DUP3 PUSH2 0x46EE JUMP JUMPDEST PUSH1 0x20 DUP3 ADD SWAP1 POP SWAP2 SWAP1 POP JUMP JUMPDEST PUSH1 0x0 PUSH1 0x20 DUP3 ADD SWAP1 POP DUP2 DUP2 SUB PUSH1 0x0 DUP4 ADD MSTORE PUSH2 0x4753 DUP2 PUSH2 0x4717 JUMP JUMPDEST SWAP1 POP SWAP2 SWAP1 POP JUMP INVALID LOG2 PUSH5 0x6970667358 0x22 SLT KECCAK256 SIGNEXTEND LOG3 PUSH20 0xA42284267CCED428821569ACADC525F69E10640A 0xA6 EXP 0xC2 DUP9 PUSH15 0x7AF5995B64736F6C634300080F0033 "},"methodIdentifiers":{"ItemCounter()":"f958aada","account()":"5dab2420","addContractToken(address)":"9e70b75c","amount()":"aa8c217c","approve(address,uint256)":"095ea7b3","balanceOf(address)":"70a08231","buyItem(address,uint256)":"9f37092a","erc777()":"9e8e4d1d","getApproved(uint256)":"081812fc","isApprovedForAll(address,address)":"e985e9c5","items(uint256)":"bfb231d2","mint(string)":"d85d3d27","name()":"06fdde03","ownerOf(uint256)":"6352211e","safeTransferFrom(address,address,uint256)":"42842e0e","safeTransferFrom(address,address,uint256,bytes)":"b88d4fde","sellItem(address,uint256,uint256)":"68915327","setApprovalForAll(address,bool)":"a22cb465","supportsInterface(bytes4)":"01ffc9a7","symbol()":"95d89b41","tokenApproved(address)":"170e2b8a","tokenIdCounter()":"98bdf6f5","tokenURI(uint256)":"c87b56dd","tokens(uint256)":"4f64b2be","tokensReceived(address,address,address,uint256,bytes,bytes)":"0023de29","transferFrom(address,address,uint256)":"23b872dd","withdrawTokens()":"8d8f2adb"}}}}}