{
  "_format": "hh-sol-artifact-1",
  "contractName": "RedeemDataContract",
  "sourceName": "src/blockchain/hardhat/contracts/RedeemDataGaslessContract.sol",
  "abi": [
    {
      "inputs": [
        {
          "internalType": "contract MinimalForwarder",
          "name": "forwarder",
          "type": "address"
        },
        {
          "internalType": "address",
          "name": "_oracle",
          "type": "address"
        },
        {
          "internalType": "address",
          "name": "_cycliContract",
          "type": "address"
        }
      ],
      "stateMutability": "nonpayable",
      "type": "constructor"
    },
    {
      "anonymous": false,
      "inputs": [
        {
          "indexed": true,
          "internalType": "bytes32",
          "name": "id",
          "type": "bytes32"
        }
      ],
      "name": "ChainlinkCancelled",
      "type": "event"
    },
    {
      "anonymous": false,
      "inputs": [
        {
          "indexed": true,
          "internalType": "bytes32",
          "name": "id",
          "type": "bytes32"
        }
      ],
      "name": "ChainlinkFulfilled",
      "type": "event"
    },
    {
      "anonymous": false,
      "inputs": [
        {
          "indexed": true,
          "internalType": "bytes32",
          "name": "id",
          "type": "bytes32"
        }
      ],
      "name": "ChainlinkRequested",
      "type": "event"
    },
    {
      "anonymous": false,
      "inputs": [
        {
          "indexed": true,
          "internalType": "address",
          "name": "from",
          "type": "address"
        },
        {
          "indexed": true,
          "internalType": "address",
          "name": "to",
          "type": "address"
        }
      ],
      "name": "OwnershipTransferRequested",
      "type": "event"
    },
    {
      "anonymous": false,
      "inputs": [
        {
          "indexed": true,
          "internalType": "address",
          "name": "from",
          "type": "address"
        },
        {
          "indexed": true,
          "internalType": "address",
          "name": "to",
          "type": "address"
        }
      ],
      "name": "OwnershipTransferred",
      "type": "event"
    },
    {
      "anonymous": false,
      "inputs": [
        {
          "indexed": true,
          "internalType": "bytes32",
          "name": "requestId",
          "type": "bytes32"
        },
        {
          "indexed": true,
          "internalType": "string",
          "name": "response",
          "type": "string"
        }
      ],
      "name": "RequestForInfoFulfilled",
      "type": "event"
    },
    {
      "inputs": [],
      "name": "acceptOwnership",
      "outputs": [],
      "stateMutability": "nonpayable",
      "type": "function"
    },
    {
      "inputs": [],
      "name": "account",
      "outputs": [
        {
          "internalType": "address",
          "name": "",
          "type": "address"
        }
      ],
      "stateMutability": "view",
      "type": "function"
    },
    {
      "inputs": [
        {
          "internalType": "bytes32",
          "name": "",
          "type": "bytes32"
        }
      ],
      "name": "addressBalances",
      "outputs": [
        {
          "internalType": "address",
          "name": "",
          "type": "address"
        }
      ],
      "stateMutability": "view",
      "type": "function"
    },
    {
      "inputs": [],
      "name": "amount",
      "outputs": [
        {
          "internalType": "uint256",
          "name": "",
          "type": "uint256"
        }
      ],
      "stateMutability": "view",
      "type": "function"
    },
    {
      "inputs": [],
      "name": "boom",
      "outputs": [
        {
          "internalType": "bool",
          "name": "",
          "type": "bool"
        }
      ],
      "stateMutability": "view",
      "type": "function"
    },
    {
      "inputs": [
        {
          "internalType": "bytes32",
          "name": "_requestId",
          "type": "bytes32"
        },
        {
          "internalType": "uint256",
          "name": "_payment",
          "type": "uint256"
        },
        {
          "internalType": "bytes4",
          "name": "_callbackFunctionId",
          "type": "bytes4"
        },
        {
          "internalType": "uint256",
          "name": "_expiration",
          "type": "uint256"
        }
      ],
      "name": "cancelRequest",
      "outputs": [],
      "stateMutability": "nonpayable",
      "type": "function"
    },
    {
      "inputs": [],
      "name": "cid",
      "outputs": [
        {
          "internalType": "string",
          "name": "",
          "type": "string"
        }
      ],
      "stateMutability": "view",
      "type": "function"
    },
    {
      "inputs": [],
      "name": "cidURL",
      "outputs": [
        {
          "internalType": "string",
          "name": "",
          "type": "string"
        }
      ],
      "stateMutability": "view",
      "type": "function"
    },
    {
      "inputs": [],
      "name": "claim",
      "outputs": [
        {
          "internalType": "uint256",
          "name": "",
          "type": "uint256"
        }
      ],
      "stateMutability": "view",
      "type": "function"
    },
    {
      "inputs": [],
      "name": "contractBalances",
      "outputs": [
        {
          "internalType": "uint256",
          "name": "eth",
          "type": "uint256"
        },
        {
          "internalType": "uint256",
          "name": "link",
          "type": "uint256"
        }
      ],
      "stateMutability": "view",
      "type": "function"
    },
    {
      "inputs": [],
      "name": "erc777",
      "outputs": [
        {
          "internalType": "contract ERC777",
          "name": "",
          "type": "address"
        }
      ],
      "stateMutability": "view",
      "type": "function"
    },
    {
      "inputs": [
        {
          "internalType": "bytes32",
          "name": "_requestId",
          "type": "bytes32"
        },
        {
          "internalType": "address",
          "name": "_to",
          "type": "address"
        },
        {
          "internalType": "string",
          "name": "_cid",
          "type": "string"
        },
        {
          "internalType": "string",
          "name": "_ret_url",
          "type": "string"
        },
        {
          "internalType": "uint256",
          "name": "_claim",
          "type": "uint256"
        }
      ],
      "name": "fulfillMultipleParameters",
      "outputs": [],
      "stateMutability": "nonpayable",
      "type": "function"
    },
    {
      "inputs": [],
      "name": "getChainlinkToken",
      "outputs": [
        {
          "internalType": "address",
          "name": "",
          "type": "address"
        }
      ],
      "stateMutability": "view",
      "type": "function"
    },
    {
      "inputs": [
        {
          "internalType": "address",
          "name": "forwarder",
          "type": "address"
        }
      ],
      "name": "isTrustedForwarder",
      "outputs": [
        {
          "internalType": "bool",
          "name": "",
          "type": "bool"
        }
      ],
      "stateMutability": "view",
      "type": "function"
    },
    {
      "inputs": [],
      "name": "lastRetrievedInfo",
      "outputs": [
        {
          "internalType": "string",
          "name": "",
          "type": "string"
        }
      ],
      "stateMutability": "view",
      "type": "function"
    },
    {
      "inputs": [],
      "name": "owner",
      "outputs": [
        {
          "internalType": "address",
          "name": "",
          "type": "address"
        }
      ],
      "stateMutability": "view",
      "type": "function"
    },
    {
      "inputs": [
        {
          "internalType": "string",
          "name": "_jobId",
          "type": "string"
        },
        {
          "internalType": "address",
          "name": "_to",
          "type": "address"
        }
      ],
      "name": "requestPayOut",
      "outputs": [],
      "stateMutability": "nonpayable",
      "type": "function"
    },
    {
      "inputs": [],
      "name": "to",
      "outputs": [
        {
          "internalType": "address",
          "name": "",
          "type": "address"
        }
      ],
      "stateMutability": "view",
      "type": "function"
    },
    {
      "inputs": [
        {
          "internalType": "address",
          "name": "_operator",
          "type": "address"
        },
        {
          "internalType": "address",
          "name": "_from",
          "type": "address"
        },
        {
          "internalType": "address",
          "name": "_to",
          "type": "address"
        },
        {
          "internalType": "uint256",
          "name": "_amount",
          "type": "uint256"
        },
        {
          "internalType": "bytes",
          "name": "_userData",
          "type": "bytes"
        },
        {
          "internalType": "bytes",
          "name": "_operatorData",
          "type": "bytes"
        }
      ],
      "name": "tokensReceived",
      "outputs": [],
      "stateMutability": "nonpayable",
      "type": "function"
    },
    {
      "inputs": [
        {
          "internalType": "address",
          "name": "to",
          "type": "address"
        }
      ],
      "name": "transferOwnership",
      "outputs": [],
      "stateMutability": "nonpayable",
      "type": "function"
    },
    {
      "inputs": [],
      "name": "withdrawBalance",
      "outputs": [],
      "stateMutability": "nonpayable",
      "type": "function"
    },
    {
      "inputs": [],
      "name": "withdrawLink",
      "outputs": [],
      "stateMutability": "nonpayable",
      "type": "function"
    },
    {
      "inputs": [],
      "name": "withdrawTokens",
      "outputs": [],
      "stateMutability": "nonpayable",
      "type": "function"
    }
  ],
  "bytecode": "0x60e060405260016005553480156200001657600080fd5b5060405162003a0b38038062003a0b83398181016040528101906200003c91906200056c565b3380600083868073ffffffffffffffffffffffffffffffffffffffff1660808173ffffffffffffffffffffffffffffffffffffffff168152505050731820a4b7618bde71dce8cdc73aab6c95905fad2473ffffffffffffffffffffffffffffffffffffffff166329965a1d307fb281fc8c12954d22544db45de3159a39272895b169a852b314f9cc762e44c53b306040518463ffffffff1660e01b8152600401620000ea93929190620005f4565b600060405180830381600087803b1580156200010557600080fd5b505af11580156200011a573d6000803e3d6000fd5b505050508073ffffffffffffffffffffffffffffffffffffffff1660a08173ffffffffffffffffffffffffffffffffffffffff16815250503373ffffffffffffffffffffffffffffffffffffffff1660c08173ffffffffffffffffffffffffffffffffffffffff168152505050600073ffffffffffffffffffffffffffffffffffffffff168273ffffffffffffffffffffffffffffffffffffffff1603620001f9576040517f08c379a0000000000000000000000000000000000000000000000000000000008152600401620001f09062000692565b60405180910390fd5b81600760006101000a81548173ffffffffffffffffffffffffffffffffffffffff021916908373ffffffffffffffffffffffffffffffffffffffff160217905550600073ffffffffffffffffffffffffffffffffffffffff168173ffffffffffffffffffffffffffffffffffffffff1614620002815762000280816200030460201b60201c565b5b505050620002a973326c977e6efc84e512bb9c30f76e30c160ed06fb6200043560201b60201c565b80600960006101000a81548173ffffffffffffffffffffffffffffffffffffffff021916908373ffffffffffffffffffffffffffffffffffffffff160217905550620002fb826200047960201b60201c565b50505062000726565b3373ffffffffffffffffffffffffffffffffffffffff168173ffffffffffffffffffffffffffffffffffffffff160362000375576040517f08c379a00000000000000000000000000000000000000000000000000000000081526004016200036c9062000704565b60405180910390fd5b80600860006101000a81548173ffffffffffffffffffffffffffffffffffffffff021916908373ffffffffffffffffffffffffffffffffffffffff1602179055508073ffffffffffffffffffffffffffffffffffffffff16600760009054906101000a900473ffffffffffffffffffffffffffffffffffffffff1673ffffffffffffffffffffffffffffffffffffffff167fed8889f560326eb138920d842192f0eb3dd22b4f139c87a2c57538e05bae127860405160405180910390a350565b80600360006101000a81548173ffffffffffffffffffffffffffffffffffffffff021916908373ffffffffffffffffffffffffffffffffffffffff16021790555050565b80600460006101000a81548173ffffffffffffffffffffffffffffffffffffffff021916908373ffffffffffffffffffffffffffffffffffffffff16021790555050565b600080fd5b600073ffffffffffffffffffffffffffffffffffffffff82169050919050565b6000620004ef82620004c2565b9050919050565b60006200050382620004e2565b9050919050565b6200051581620004f6565b81146200052157600080fd5b50565b60008151905062000535816200050a565b92915050565b6200054681620004e2565b81146200055257600080fd5b50565b60008151905062000566816200053b565b92915050565b600080600060608486031215620005885762000587620004bd565b5b6000620005988682870162000524565b9350506020620005ab8682870162000555565b9250506040620005be8682870162000555565b9150509250925092565b620005d381620004e2565b82525050565b6000819050919050565b620005ee81620005d9565b82525050565b60006060820190506200060b6000830186620005c8565b6200061a6020830185620005e3565b620006296040830184620005c8565b949350505050565b600082825260208201905092915050565b7f43616e6e6f7420736574206f776e657220746f207a65726f0000000000000000600082015250565b60006200067a60188362000631565b9150620006878262000642565b602082019050919050565b60006020820190508181036000830152620006ad816200066b565b9050919050565b7f43616e6e6f74207472616e7366657220746f2073656c66000000000000000000600082015250565b6000620006ec60178362000631565b9150620006f982620006b4565b602082019050919050565b600060208201905081810360008301526200071f81620006dd565b9050919050565b60805160a05160c0516132ae6200075d60003960006106020152600081816108e00152610b7f015260006105ac01526132ae6000f3fe608060405234801561001057600080fd5b506004361061014c5760003560e01c80638d8f2adb116100c3578063aa3ec0a91161007c578063aa3ec0a91461030e578063aa8c217c1461032c578063d88fd69f1461034a578063dff885671461037a578063ec65d0f814610396578063f2fde38b146103b25761014c565b80638d8f2adb146102825780638da5cb5b1461028c5780638dc654a2146102aa57806392bb9e18146102b45780639e8e4d1d146102d2578063a169ce09146102f05761014c565b8063516764291161011557806351676429146101e6578063572b6c05146102025780635dab2420146102325780635fd8c710146102505780636b633b321461025a57806379ba5097146102785761014c565b806223de2914610151578063131519811461016d578063165d35e11461018b5780632163885a146101a95780634e71d92d146101c8575b600080fd5b61016b60048036038101906101669190611efb565b6103ce565b005b6101756103f0565b6040516101829190611fd9565b60405180910390f35b610193610416565b6040516101a09190611fd9565b60405180910390f35b6101b1610425565b6040516101bf929190612003565b60405180910390f35b6101d06104b8565b6040516101dd919061202c565b60405180910390f35b61020060048036038101906101fb9190612188565b6104be565b005b61021c600480360381019061021791906121e4565b6105a8565b604051610229919061222c565b60405180910390f35b61023a610600565b6040516102479190611fd9565b60405180910390f35b610258610624565b005b610262610675565b60405161026f91906122cf565b60405180910390f35b610280610703565b005b61028a61089a565b005b610294610978565b6040516102a19190611fd9565b60405180910390f35b6102b26109a2565b005b6102bc610aef565b6040516102c991906122cf565b60405180910390f35b6102da610b7d565b6040516102e79190612350565b60405180910390f35b6102f8610ba1565b604051610305919061222c565b60405180910390f35b610316610bb4565b60405161032391906122cf565b60405180910390f35b610334610c42565b604051610341919061202c565b60405180910390f35b610364600480360381019061035f91906123a1565b610c48565b6040516103719190611fd9565b60405180910390f35b610394600480360381019061038f91906123ce565b610c7b565b005b6103b060048036038101906103ab91906124d9565b610ed1565b005b6103cc60048036038101906103c791906121e4565b610eeb565b005b846000808282546103df919061256f565b925050819055505050505050505050565b600d60009054906101000a900473ffffffffffffffffffffffffffffffffffffffff1681565b6000610420610eff565b905090565b6000804791506000610435610eff565b90508073ffffffffffffffffffffffffffffffffffffffff166370a08231306040518263ffffffff1660e01b81526004016104709190611fd9565b602060405180830381865afa15801561048d573d6000803e3d6000fd5b505050506040513d601f19601f820116820180604052508101906104b191906125da565b9150509091565b600e5481565b60006104da6104cc84610f29565b3063dff8856760e01b610f52565b905061052e6040518060400160405280600281526020017f746f00000000000000000000000000000000000000000000000000000000000081525061051e84610f83565b8361128e9092919063ffffffff16565b61054c81670de0b6b3a764000060016105479190612607565b6112c1565b5033601060008360000151815260200190815260200160002060006101000a81548173ffffffffffffffffffffffffffffffffffffffff021916908373ffffffffffffffffffffffffffffffffffffffff160217905550505050565b60007f000000000000000000000000000000000000000000000000000000000000000073ffffffffffffffffffffffffffffffffffffffff168273ffffffffffffffffffffffffffffffffffffffff16149050919050565b7f000000000000000000000000000000000000000000000000000000000000000081565b61062c6112f8565b3373ffffffffffffffffffffffffffffffffffffffff166108fc479081150290604051600060405180830381858888f19350505050158015610672573d6000803e3d6000fd5b50565b600c805461068290612690565b80601f01602080910402602001604051908101604052809291908181526020018280546106ae90612690565b80156106fb5780601f106106d0576101008083540402835291602001916106fb565b820191906000526020600020905b8154815290600101906020018083116106de57829003601f168201915b505050505081565b600860009054906101000a900473ffffffffffffffffffffffffffffffffffffffff1673ffffffffffffffffffffffffffffffffffffffff163373ffffffffffffffffffffffffffffffffffffffff1614610793576040517f08c379a000000000000000000000000000000000000000000000000000000000815260040161078a9061270d565b60405180910390fd5b6000600760009054906101000a900473ffffffffffffffffffffffffffffffffffffffff16905033600760006101000a81548173ffffffffffffffffffffffffffffffffffffffff021916908373ffffffffffffffffffffffffffffffffffffffff1602179055506000600860006101000a81548173ffffffffffffffffffffffffffffffffffffffff021916908373ffffffffffffffffffffffffffffffffffffffff1602179055503373ffffffffffffffffffffffffffffffffffffffff168173ffffffffffffffffffffffffffffffffffffffff167f8be0079c531659141344cd1fd0a4f28419497f9722a3daafe3b4186f6b6457e060405160405180910390a350565b60008054116108de576040517f08c379a00000000000000000000000000000000000000000000000000000000081526004016108d590612779565b60405180910390fd5b7f000000000000000000000000000000000000000000000000000000000000000073ffffffffffffffffffffffffffffffffffffffff166362ad1b8330336000546040518463ffffffff1660e01b815260040161093d939291906127d0565b600060405180830381600087803b15801561095757600080fd5b505af115801561096b573d6000803e3d6000fd5b5050505060008081905550565b6000600760009054906101000a900473ffffffffffffffffffffffffffffffffffffffff16905090565b6109aa6112f8565b60006109b4610eff565b90508073ffffffffffffffffffffffffffffffffffffffff1663a9059cbb338373ffffffffffffffffffffffffffffffffffffffff166370a08231306040518263ffffffff1660e01b8152600401610a0c9190611fd9565b602060405180830381865afa158015610a29573d6000803e3d6000fd5b505050506040513d601f19601f82011682018060405250810190610a4d91906125da565b6040518363ffffffff1660e01b8152600401610a6a92919061282d565b6020604051808303816000875af1158015610a89573d6000803e3d6000fd5b505050506040513d601f19601f82011682018060405250810190610aad9190612882565b610aec576040517f08c379a0000000000000000000000000000000000000000000000000000000008152600401610ae3906128fb565b60405180910390fd5b50565b600a8054610afc90612690565b80601f0160208091040260200160405190810160405280929190818152602001828054610b2890612690565b8015610b755780601f10610b4a57610100808354040283529160200191610b75565b820191906000526020600020905b815481529060010190602001808311610b5857829003601f168201915b505050505081565b7f000000000000000000000000000000000000000000000000000000000000000081565b600f60009054906101000a900460ff1681565b600b8054610bc190612690565b80601f0160208091040260200160405190810160405280929190818152602001828054610bed90612690565b8015610c3a5780601f10610c0f57610100808354040283529160200191610c3a565b820191906000526020600020905b815481529060010190602001808311610c1d57829003601f168201915b505050505081565b60005481565b60106020528060005260406000206000915054906101000a900473ffffffffffffffffffffffffffffffffffffffff1681565b846006600082815260200190815260200160002060009054906101000a900473ffffffffffffffffffffffffffffffffffffffff1673ffffffffffffffffffffffffffffffffffffffff163373ffffffffffffffffffffffffffffffffffffffff1614610d1d576040517f08c379a0000000000000000000000000000000000000000000000000000000008152600401610d149061298d565b60405180910390fd5b6006600082815260200190815260200160002060006101000a81549073ffffffffffffffffffffffffffffffffffffffff0219169055807f7cc135e0cebb02c3480ae5d74d377283180a2601f8f644edf7987b009316c63a60405160405180910390a284600d60006101000a81548173ffffffffffffffffffffffffffffffffffffffff021916908373ffffffffffffffffffffffffffffffffffffffff16021790555083600b9081610dd09190612b4f565b5082600c9081610de09190612b4f565b50670de0b6b3a764000082610df59190612607565b600e81905550600960009054906101000a900473ffffffffffffffffffffffffffffffffffffffff1673ffffffffffffffffffffffffffffffffffffffff166392d26bf1868686600e546040518563ffffffff1660e01b8152600401610e5e9493929190612c21565b600060405180830381600087803b158015610e7857600080fd5b505af1925050508015610e89575060015b610ead576001600f60006101000a81548160ff021916908315150217905550610eae565b5b6000600f60006101000a81548160ff021916908315150217905550505050505050565b610ed96112f8565b610ee58484848461138a565b50505050565b610ef36112f8565b610efc8161149d565b50565b6000600360009054906101000a900473ffffffffffffffffffffffffffffffffffffffff16905090565b6000808290506000815103610f44576000801b915050610f4d565b60208301519150505b919050565b610f5a611d67565b610f62611d67565b610f79858585846115cb909392919063ffffffff16565b9150509392505050565b606060008273ffffffffffffffffffffffffffffffffffffffff1660001b905060006040518060400160405280601081526020017f303132333435363738396162636465660000000000000000000000000000000081525090506000602a67ffffffffffffffff811115610ffa57610ff961205d565b5b6040519080825280601f01601f19166020018201604052801561102c5781602001600182028036833780820191505090505b5090507f30000000000000000000000000000000000000000000000000000000000000008160008151811061106457611063612c74565b5b60200101907effffffffffffffffffffffffffffffffffffffffffffffffffffffffffffff1916908160001a9053507f7800000000000000000000000000000000000000000000000000000000000000816001815181106110c8576110c7612c74565b5b60200101907effffffffffffffffffffffffffffffffffffffffffffffffffffffffffffff1916908160001a90535060005b60148110156112825782600485600c84611114919061256f565b6020811061112557611124612c74565b5b1a60f81b7effffffffffffffffffffffffffffffffffffffffffffffffffffffffffffff1916901c60f81c60ff168151811061116457611163612c74565b5b602001015160f81c60f81b8260028361117d9190612607565b6002611189919061256f565b8151811061119a57611199612c74565b5b60200101907effffffffffffffffffffffffffffffffffffffffffffffffffffffffffffff1916908160001a90535082600f60f81b85600c846111dd919061256f565b602081106111ee576111ed612c74565b5b1a60f81b1660f81c60ff168151811061120a57611209612c74565b5b602001015160f81c60f81b826002836112239190612607565b600361122f919061256f565b815181106112405761123f612c74565b5b60200101907effffffffffffffffffffffffffffffffffffffffffffffffffffffffffffff1916908160001a905350808061127a90612ca3565b9150506110fa565b50809350505050919050565b6112a582846080015161167b90919063ffffffff16565b6112bc81846080015161167b90919063ffffffff16565b505050565b60006112f0600460009054906101000a900473ffffffffffffffffffffffffffffffffffffffff1684846116a0565b905092915050565b600760009054906101000a900473ffffffffffffffffffffffffffffffffffffffff1673ffffffffffffffffffffffffffffffffffffffff163373ffffffffffffffffffffffffffffffffffffffff1614611388576040517f08c379a000000000000000000000000000000000000000000000000000000000815260040161137f90612d37565b60405180910390fd5b565b60006006600086815260200190815260200160002060009054906101000a900473ffffffffffffffffffffffffffffffffffffffff1690506006600086815260200190815260200160002060006101000a81549073ffffffffffffffffffffffffffffffffffffffff0219169055847fe1fe3afa0f7f761ff0a8b89086790efd5140d2907ebd5b7ff6bfcb5e075fd4c560405160405180910390a28073ffffffffffffffffffffffffffffffffffffffff16636ee4d553868686866040518563ffffffff1660e01b81526004016114649493929190612d75565b600060405180830381600087803b15801561147e57600080fd5b505af1158015611492573d6000803e3d6000fd5b505050505050505050565b3373ffffffffffffffffffffffffffffffffffffffff168173ffffffffffffffffffffffffffffffffffffffff160361150b576040517f08c379a000000000000000000000000000000000000000000000000000000000815260040161150290612e06565b60405180910390fd5b80600860006101000a81548173ffffffffffffffffffffffffffffffffffffffff021916908373ffffffffffffffffffffffffffffffffffffffff1602179055508073ffffffffffffffffffffffffffffffffffffffff16600760009054906101000a900473ffffffffffffffffffffffffffffffffffffffff1673ffffffffffffffffffffffffffffffffffffffff167fed8889f560326eb138920d842192f0eb3dd22b4f139c87a2c57538e05bae127860405160405180910390a350565b6115d3611d67565b6115e3856080015161010061176c565b508385600001818152505082856020019073ffffffffffffffffffffffffffffffffffffffff16908173ffffffffffffffffffffffffffffffffffffffff16815250508185604001907bffffffffffffffffffffffffffffffffffffffffffffffffffffffff191690817bffffffffffffffffffffffffffffffffffffffffffffffffffffffff191681525050849050949350505050565b61168882600383516117d6565b61169b818361195b90919063ffffffff16565b505050565b60008060055490506001816116b5919061256f565b6005819055506000634042994660e01b60008087600001513089604001518760018c60800151600001516040516024016116f6989796959493929190612e6a565b604051602081830303815290604052907bffffffffffffffffffffffffffffffffffffffffffffffffffffffff19166020820180517bffffffffffffffffffffffffffffffffffffffffffffffffffffffff838183161783525050505090506117618683868461197d565b925050509392505050565b611774611dd4565b60006020836117839190612f1e565b146117af576020826117959190612f1e565b60206117a19190612f4f565b826117ac919061256f565b91505b81836020018181525050604051808452600081528281016020016040525082905092915050565b60178167ffffffffffffffff161161180d576118078160058460ff16901b60ff161784611b1290919063ffffffff16565b50611956565b60ff8167ffffffffffffffff16116118635761183c601860058460ff16901b1784611b1290919063ffffffff16565b5061185d8167ffffffffffffffff16600185611b329092919063ffffffff16565b50611955565b61ffff8167ffffffffffffffff16116118ba57611893601960058460ff16901b1784611b1290919063ffffffff16565b506118b48167ffffffffffffffff16600285611b329092919063ffffffff16565b50611954565b63ffffffff8167ffffffffffffffff1611611913576118ec601a60058460ff16901b1784611b1290919063ffffffff16565b5061190d8167ffffffffffffffff16600485611b329092919063ffffffff16565b50611953565b611930601b60058460ff16901b1784611b1290919063ffffffff16565b506119518167ffffffffffffffff16600885611b329092919063ffffffff16565b505b5b5b5b505050565b611963611dd4565b61197583846000015151848551611b54565b905092915050565b60003084604051602001611992929190612ffe565b604051602081830303815290604052805190602001209050846006600083815260200190815260200160002060006101000a81548173ffffffffffffffffffffffffffffffffffffffff021916908373ffffffffffffffffffffffffffffffffffffffff160217905550807fb5e6e01e79f91267dc17b4e6314d5d4d03593d2ceee0fbb452b750bd70ea5af960405160405180910390a2600360009054906101000a900473ffffffffffffffffffffffffffffffffffffffff1673ffffffffffffffffffffffffffffffffffffffff16634000aea08685856040518463ffffffff1660e01b8152600401611a889392919061302a565b6020604051808303816000875af1158015611aa7573d6000803e3d6000fd5b505050506040513d601f19601f82011682018060405250810190611acb9190612882565b611b0a576040517f08c379a0000000000000000000000000000000000000000000000000000000008152600401611b01906130da565b60405180910390fd5b949350505050565b611b1a611dd4565b611b2a8384600001515184611c43565b905092915050565b611b3a611dd4565b611b4b848560000151518585611c99565b90509392505050565b611b5c611dd4565b8251821115611b6a57600080fd5b84602001518285611b7b919061256f565b1115611bb057611baf856002611ba088602001518887611b9b919061256f565b611d27565b611baa9190612607565b611d43565b5b600080865180518760208301019350808887011115611bcf5787860182525b60208701925050505b60208410611c165780518252602082611bf1919061256f565b9150602081611c00919061256f565b9050602084611c0f9190612f4f565b9350611bd8565b60006001856020036101000a03905080198251168184511681811785525050508692505050949350505050565b611c4b611dd4565b83602001518310611c7157611c708460028660200151611c6b9190612607565b611d43565b5b83518051602085830101848153818603611c8c576001820183525b5050508390509392505050565b611ca1611dd4565b84602001518483611cb2919061256f565b1115611cda57611cd98560028685611cca919061256f565b611cd49190612607565b611d43565b5b6000600183610100611cec919061322d565b611cf69190612f4f565b90508551838682010185831982511617815281518588011115611d195784870182525b505085915050949350505050565b600081831115611d3957829050611d3d565b8190505b92915050565b600082600001519050611d56838361176c565b50611d61838261195b565b50505050565b6040518060a0016040528060008019168152602001600073ffffffffffffffffffffffffffffffffffffffff16815260200160007bffffffffffffffffffffffffffffffffffffffffffffffffffffffff1916815260200160008152602001611dce611dd4565b81525090565b604051806040016040528060608152602001600081525090565b6000604051905090565b600080fd5b600080fd5b600073ffffffffffffffffffffffffffffffffffffffff82169050919050565b6000611e2d82611e02565b9050919050565b611e3d81611e22565b8114611e4857600080fd5b50565b600081359050611e5a81611e34565b92915050565b6000819050919050565b611e7381611e60565b8114611e7e57600080fd5b50565b600081359050611e9081611e6a565b92915050565b600080fd5b600080fd5b600080fd5b60008083601f840112611ebb57611eba611e96565b5b8235905067ffffffffffffffff811115611ed857611ed7611e9b565b5b602083019150836001820283011115611ef457611ef3611ea0565b5b9250929050565b60008060008060008060008060c0898b031215611f1b57611f1a611df8565b5b6000611f298b828c01611e4b565b9850506020611f3a8b828c01611e4b565b9750506040611f4b8b828c01611e4b565b9650506060611f5c8b828c01611e81565b955050608089013567ffffffffffffffff811115611f7d57611f7c611dfd565b5b611f898b828c01611ea5565b945094505060a089013567ffffffffffffffff811115611fac57611fab611dfd565b5b611fb88b828c01611ea5565b92509250509295985092959890939650565b611fd381611e22565b82525050565b6000602082019050611fee6000830184611fca565b92915050565b611ffd81611e60565b82525050565b60006040820190506120186000830185611ff4565b6120256020830184611ff4565b9392505050565b60006020820190506120416000830184611ff4565b92915050565b600080fd5b6000601f19601f8301169050919050565b7f4e487b7100000000000000000000000000000000000000000000000000000000600052604160045260246000fd5b6120958261204c565b810181811067ffffffffffffffff821117156120b4576120b361205d565b5b80604052505050565b60006120c7611dee565b90506120d3828261208c565b919050565b600067ffffffffffffffff8211156120f3576120f261205d565b5b6120fc8261204c565b9050602081019050919050565b82818337600083830152505050565b600061212b612126846120d8565b6120bd565b90508281526020810184848401111561214757612146612047565b5b612152848285612109565b509392505050565b600082601f83011261216f5761216e611e96565b5b813561217f848260208601612118565b91505092915050565b6000806040838503121561219f5761219e611df8565b5b600083013567ffffffffffffffff8111156121bd576121bc611dfd565b5b6121c98582860161215a565b92505060206121da85828601611e4b565b9150509250929050565b6000602082840312156121fa576121f9611df8565b5b600061220884828501611e4b565b91505092915050565b60008115159050919050565b61222681612211565b82525050565b6000602082019050612241600083018461221d565b92915050565b600081519050919050565b600082825260208201905092915050565b60005b83811015612281578082015181840152602081019050612266565b83811115612290576000848401525b50505050565b60006122a182612247565b6122ab8185612252565b93506122bb818560208601612263565b6122c48161204c565b840191505092915050565b600060208201905081810360008301526122e98184612296565b905092915050565b6000819050919050565b600061231661231161230c84611e02565b6122f1565b611e02565b9050919050565b6000612328826122fb565b9050919050565b600061233a8261231d565b9050919050565b61234a8161232f565b82525050565b60006020820190506123656000830184612341565b92915050565b6000819050919050565b61237e8161236b565b811461238957600080fd5b50565b60008135905061239b81612375565b92915050565b6000602082840312156123b7576123b6611df8565b5b60006123c58482850161238c565b91505092915050565b600080600080600060a086880312156123ea576123e9611df8565b5b60006123f88882890161238c565b955050602061240988828901611e4b565b945050604086013567ffffffffffffffff81111561242a57612429611dfd565b5b6124368882890161215a565b935050606086013567ffffffffffffffff81111561245757612456611dfd565b5b6124638882890161215a565b925050608061247488828901611e81565b9150509295509295909350565b60007fffffffff0000000000000000000000000000000000000000000000000000000082169050919050565b6124b681612481565b81146124c157600080fd5b50565b6000813590506124d3816124ad565b92915050565b600080600080608085870312156124f3576124f2611df8565b5b60006125018782880161238c565b945050602061251287828801611e81565b9350506040612523878288016124c4565b925050606061253487828801611e81565b91505092959194509250565b7f4e487b7100000000000000000000000000000000000000000000000000000000600052601160045260246000fd5b600061257a82611e60565b915061258583611e60565b9250827fffffffffffffffffffffffffffffffffffffffffffffffffffffffffffffffff038211156125ba576125b9612540565b5b828201905092915050565b6000815190506125d481611e6a565b92915050565b6000602082840312156125f0576125ef611df8565b5b60006125fe848285016125c5565b91505092915050565b600061261282611e60565b915061261d83611e60565b9250817fffffffffffffffffffffffffffffffffffffffffffffffffffffffffffffffff048311821515161561265657612655612540565b5b828202905092915050565b7f4e487b7100000000000000000000000000000000000000000000000000000000600052602260045260246000fd5b600060028204905060018216806126a857607f821691505b6020821081036126bb576126ba612661565b5b50919050565b7f4d7573742062652070726f706f736564206f776e657200000000000000000000600082015250565b60006126f7601683612252565b9150612702826126c1565b602082019050919050565b60006020820190508181036000830152612726816126ea565b9050919050565b7f546865726520646f6e277420626520746f6b656e730000000000000000000000600082015250565b6000612763601583612252565b915061276e8261272d565b602082019050919050565b6000602082019050818103600083015261279281612756565b9050919050565b600082825260208201905092915050565b50565b60006127ba600083612799565b91506127c5826127aa565b600082019050919050565b600060a0820190506127e56000830186611fca565b6127f26020830185611fca565b6127ff6040830184611ff4565b8181036060830152612810816127ad565b90508181036080830152612823816127ad565b9050949350505050565b60006040820190506128426000830185611fca565b61284f6020830184611ff4565b9392505050565b61285f81612211565b811461286a57600080fd5b50565b60008151905061287c81612856565b92915050565b60006020828403121561289857612897611df8565b5b60006128a68482850161286d565b91505092915050565b7f556e61626c6520746f207472616e73666572204c696e6b000000000000000000600082015250565b60006128e5601783612252565b91506128f0826128af565b602082019050919050565b60006020820190508181036000830152612914816128d8565b9050919050565b7f536f75726365206d75737420626520746865206f7261636c65206f662074686560008201527f2072657175657374000000000000000000000000000000000000000000000000602082015250565b6000612977602883612252565b91506129828261291b565b604082019050919050565b600060208201905081810360008301526129a68161296a565b9050919050565b60008190508160005260206000209050919050565b60006020601f8301049050919050565b600082821b905092915050565b600060088302612a0f7fffffffffffffffffffffffffffffffffffffffffffffffffffffffffffffffff826129d2565b612a1986836129d2565b95508019841693508086168417925050509392505050565b6000612a4c612a47612a4284611e60565b6122f1565b611e60565b9050919050565b6000819050919050565b612a6683612a31565b612a7a612a7282612a53565b8484546129df565b825550505050565b600090565b612a8f612a82565b612a9a818484612a5d565b505050565b5b81811015612abe57612ab3600082612a87565b600181019050612aa0565b5050565b601f821115612b0357612ad4816129ad565b612add846129c2565b81016020851015612aec578190505b612b00612af8856129c2565b830182612a9f565b50505b505050565b600082821c905092915050565b6000612b2660001984600802612b08565b1980831691505092915050565b6000612b3f8383612b15565b9150826002028217905092915050565b612b5882612247565b67ffffffffffffffff811115612b7157612b7061205d565b5b612b7b8254612690565b612b86828285612ac2565b600060209050601f831160018114612bb95760008415612ba7578287015190505b612bb18582612b33565b865550612c19565b601f198416612bc7866129ad565b60005b82811015612bef57848901518255600182019150602085019450602081019050612bca565b86831015612c0c5784890151612c08601f891682612b15565b8355505b6001600288020188555050505b505050505050565b6000608082019050612c366000830187611fca565b8181036020830152612c488186612296565b90508181036040830152612c5c8185612296565b9050612c6b6060830184611ff4565b95945050505050565b7f4e487b7100000000000000000000000000000000000000000000000000000000600052603260045260246000fd5b6000612cae82611e60565b91507fffffffffffffffffffffffffffffffffffffffffffffffffffffffffffffffff8203612ce057612cdf612540565b5b600182019050919050565b7f4f6e6c792063616c6c61626c65206279206f776e657200000000000000000000600082015250565b6000612d21601683612252565b9150612d2c82612ceb565b602082019050919050565b60006020820190508181036000830152612d5081612d14565b9050919050565b612d608161236b565b82525050565b612d6f81612481565b82525050565b6000608082019050612d8a6000830187612d57565b612d976020830186611ff4565b612da46040830185612d66565b612db16060830184611ff4565b95945050505050565b7f43616e6e6f74207472616e7366657220746f2073656c66000000000000000000600082015250565b6000612df0601783612252565b9150612dfb82612dba565b602082019050919050565b60006020820190508181036000830152612e1f81612de3565b9050919050565b600081519050919050565b6000612e3c82612e26565b612e468185612799565b9350612e56818560208601612263565b612e5f8161204c565b840191505092915050565b600061010082019050612e80600083018b611fca565b612e8d602083018a611ff4565b612e9a6040830189612d57565b612ea76060830188611fca565b612eb46080830187612d66565b612ec160a0830186611ff4565b612ece60c0830185611ff4565b81810360e0830152612ee08184612e31565b90509998505050505050505050565b7f4e487b7100000000000000000000000000000000000000000000000000000000600052601260045260246000fd5b6000612f2982611e60565b9150612f3483611e60565b925082612f4457612f43612eef565b5b828206905092915050565b6000612f5a82611e60565b9150612f6583611e60565b925082821015612f7857612f77612540565b5b828203905092915050565b6000612f8e8261231d565b9050919050565b60008160601b9050919050565b6000612fad82612f95565b9050919050565b6000612fbf82612fa2565b9050919050565b612fd7612fd282612f83565b612fb4565b82525050565b6000819050919050565b612ff8612ff382611e60565b612fdd565b82525050565b600061300a8285612fc6565b60148201915061301a8284612fe7565b6020820191508190509392505050565b600060608201905061303f6000830186611fca565b61304c6020830185611ff4565b818103604083015261305e8184612e31565b9050949350505050565b7f756e61626c6520746f207472616e73666572416e6443616c6c20746f206f726160008201527f636c650000000000000000000000000000000000000000000000000000000000602082015250565b60006130c4602383612252565b91506130cf82613068565b604082019050919050565b600060208201905081810360008301526130f3816130b7565b9050919050565b60008160011c9050919050565b6000808291508390505b60018511156131515780860481111561312d5761312c612540565b5b600185161561313c5780820291505b808102905061314a856130fa565b9450613111565b94509492505050565b60008261316a5760019050613226565b816131785760009050613226565b816001811461318e5760028114613198576131c7565b6001915050613226565b60ff8411156131aa576131a9612540565b5b8360020a9150848211156131c1576131c0612540565b5b50613226565b5060208310610133831016604e8410600b84101617156131fc5782820a9050838111156131f7576131f6612540565b5b613226565b6132098484846001613107565b925090508184048111156132205761321f612540565b5b81810290505b9392505050565b600061323882611e60565b915061324383611e60565b92506132707fffffffffffffffffffffffffffffffffffffffffffffffffffffffffffffffff848461315a565b90509291505056fea26469706673582212200b32a7d3ad41fbd439e6cca129404c82f12f46fed629693a7336654203b78f5264736f6c634300080f0033",
  "linkReferences": {},
  "deployedLinkReferences": {}
}