{
  "_format": "hh-sol-artifact-1",
  "contractName": "CosmoGaslessContract",
  "sourceName": "src/blockchain/hardhat/contracts/CosmoGaslessContract.sol",
  "abi": [
    {
      "inputs": [
        {
          "internalType": "contract MinimalForwarder",
          "name": "forwarder",
          "type": "address"
        }
      ],
      "stateMutability": "nonpayable",
      "type": "constructor"
    },
    {
      "anonymous": false,
      "inputs": [
        {
          "indexed": true,
          "internalType": "address",
          "name": "owner",
          "type": "address"
        },
        {
          "indexed": true,
          "internalType": "address",
          "name": "spender",
          "type": "address"
        },
        {
          "indexed": false,
          "internalType": "uint256",
          "name": "value",
          "type": "uint256"
        }
      ],
      "name": "Approval",
      "type": "event"
    },
    {
      "anonymous": false,
      "inputs": [
        {
          "indexed": true,
          "internalType": "address",
          "name": "operator",
          "type": "address"
        },
        {
          "indexed": true,
          "internalType": "address",
          "name": "tokenHolder",
          "type": "address"
        }
      ],
      "name": "AuthorizedOperator",
      "type": "event"
    },
    {
      "anonymous": false,
      "inputs": [
        {
          "indexed": true,
          "internalType": "address",
          "name": "operator",
          "type": "address"
        },
        {
          "indexed": true,
          "internalType": "address",
          "name": "from",
          "type": "address"
        },
        {
          "indexed": false,
          "internalType": "uint256",
          "name": "amount",
          "type": "uint256"
        },
        {
          "indexed": false,
          "internalType": "bytes",
          "name": "data",
          "type": "bytes"
        },
        {
          "indexed": false,
          "internalType": "bytes",
          "name": "operatorData",
          "type": "bytes"
        }
      ],
      "name": "Burned",
      "type": "event"
    },
    {
      "anonymous": false,
      "inputs": [
        {
          "indexed": true,
          "internalType": "address",
          "name": "operator",
          "type": "address"
        },
        {
          "indexed": true,
          "internalType": "address",
          "name": "to",
          "type": "address"
        },
        {
          "indexed": false,
          "internalType": "uint256",
          "name": "amount",
          "type": "uint256"
        },
        {
          "indexed": false,
          "internalType": "bytes",
          "name": "data",
          "type": "bytes"
        },
        {
          "indexed": false,
          "internalType": "bytes",
          "name": "operatorData",
          "type": "bytes"
        }
      ],
      "name": "Minted",
      "type": "event"
    },
    {
      "anonymous": false,
      "inputs": [
        {
          "indexed": true,
          "internalType": "address",
          "name": "previousOwner",
          "type": "address"
        },
        {
          "indexed": true,
          "internalType": "address",
          "name": "newOwner",
          "type": "address"
        }
      ],
      "name": "OwnershipTransferred",
      "type": "event"
    },
    {
      "anonymous": false,
      "inputs": [
        {
          "indexed": true,
          "internalType": "address",
          "name": "operator",
          "type": "address"
        },
        {
          "indexed": true,
          "internalType": "address",
          "name": "tokenHolder",
          "type": "address"
        }
      ],
      "name": "RevokedOperator",
      "type": "event"
    },
    {
      "anonymous": false,
      "inputs": [
        {
          "indexed": true,
          "internalType": "address",
          "name": "operator",
          "type": "address"
        },
        {
          "indexed": true,
          "internalType": "address",
          "name": "from",
          "type": "address"
        },
        {
          "indexed": true,
          "internalType": "address",
          "name": "to",
          "type": "address"
        },
        {
          "indexed": false,
          "internalType": "uint256",
          "name": "amount",
          "type": "uint256"
        },
        {
          "indexed": false,
          "internalType": "bytes",
          "name": "data",
          "type": "bytes"
        },
        {
          "indexed": false,
          "internalType": "bytes",
          "name": "operatorData",
          "type": "bytes"
        }
      ],
      "name": "Sent",
      "type": "event"
    },
    {
      "anonymous": false,
      "inputs": [
        {
          "indexed": true,
          "internalType": "address",
          "name": "from",
          "type": "address"
        },
        {
          "indexed": true,
          "internalType": "address",
          "name": "to",
          "type": "address"
        },
        {
          "indexed": false,
          "internalType": "uint256",
          "name": "value",
          "type": "uint256"
        }
      ],
      "name": "Transfer",
      "type": "event"
    },
    {
      "inputs": [],
      "name": "AVAXtotal",
      "outputs": [
        {
          "internalType": "uint256",
          "name": "",
          "type": "uint256"
        }
      ],
      "stateMutability": "view",
      "type": "function"
    },
    {
      "inputs": [
        {
          "internalType": "address",
          "name": "holder",
          "type": "address"
        },
        {
          "internalType": "address",
          "name": "spender",
          "type": "address"
        }
      ],
      "name": "allowance",
      "outputs": [
        {
          "internalType": "uint256",
          "name": "",
          "type": "uint256"
        }
      ],
      "stateMutability": "view",
      "type": "function"
    },
    {
      "inputs": [
        {
          "internalType": "address",
          "name": "spender",
          "type": "address"
        },
        {
          "internalType": "uint256",
          "name": "value",
          "type": "uint256"
        }
      ],
      "name": "approve",
      "outputs": [
        {
          "internalType": "bool",
          "name": "",
          "type": "bool"
        }
      ],
      "stateMutability": "nonpayable",
      "type": "function"
    },
    {
      "inputs": [
        {
          "internalType": "address",
          "name": "operator",
          "type": "address"
        }
      ],
      "name": "authorizeOperator",
      "outputs": [],
      "stateMutability": "nonpayable",
      "type": "function"
    },
    {
      "inputs": [
        {
          "internalType": "address",
          "name": "tokenHolder",
          "type": "address"
        }
      ],
      "name": "balanceOf",
      "outputs": [
        {
          "internalType": "uint256",
          "name": "",
          "type": "uint256"
        }
      ],
      "stateMutability": "view",
      "type": "function"
    },
    {
      "inputs": [
        {
          "internalType": "uint256",
          "name": "amount",
          "type": "uint256"
        },
        {
          "internalType": "bytes",
          "name": "data",
          "type": "bytes"
        }
      ],
      "name": "burn",
      "outputs": [],
      "stateMutability": "nonpayable",
      "type": "function"
    },
    {
      "inputs": [
        {
          "internalType": "uint256",
          "name": "_value",
          "type": "uint256"
        }
      ],
      "name": "buyTokens",
      "outputs": [],
      "stateMutability": "payable",
      "type": "function"
    },
    {
      "inputs": [],
      "name": "decimals",
      "outputs": [
        {
          "internalType": "uint8",
          "name": "",
          "type": "uint8"
        }
      ],
      "stateMutability": "pure",
      "type": "function"
    },
    {
      "inputs": [],
      "name": "defaultOperators",
      "outputs": [
        {
          "internalType": "address[]",
          "name": "",
          "type": "address[]"
        }
      ],
      "stateMutability": "view",
      "type": "function"
    },
    {
      "inputs": [
        {
          "internalType": "address",
          "name": "_address",
          "type": "address"
        }
      ],
      "name": "getSupplyBalance",
      "outputs": [
        {
          "internalType": "uint256",
          "name": "",
          "type": "uint256"
        }
      ],
      "stateMutability": "view",
      "type": "function"
    },
    {
      "inputs": [],
      "name": "granularity",
      "outputs": [
        {
          "internalType": "uint256",
          "name": "",
          "type": "uint256"
        }
      ],
      "stateMutability": "view",
      "type": "function"
    },
    {
      "inputs": [
        {
          "internalType": "address",
          "name": "operator",
          "type": "address"
        },
        {
          "internalType": "address",
          "name": "tokenHolder",
          "type": "address"
        }
      ],
      "name": "isOperatorFor",
      "outputs": [
        {
          "internalType": "bool",
          "name": "",
          "type": "bool"
        }
      ],
      "stateMutability": "view",
      "type": "function"
    },
    {
      "inputs": [
        {
          "internalType": "address",
          "name": "forwarder",
          "type": "address"
        }
      ],
      "name": "isTrustedForwarder",
      "outputs": [
        {
          "internalType": "bool",
          "name": "",
          "type": "bool"
        }
      ],
      "stateMutability": "view",
      "type": "function"
    },
    {
      "inputs": [],
      "name": "name",
      "outputs": [
        {
          "internalType": "string",
          "name": "",
          "type": "string"
        }
      ],
      "stateMutability": "view",
      "type": "function"
    },
    {
      "inputs": [
        {
          "internalType": "address",
          "name": "account",
          "type": "address"
        },
        {
          "internalType": "uint256",
          "name": "amount",
          "type": "uint256"
        },
        {
          "internalType": "bytes",
          "name": "data",
          "type": "bytes"
        },
        {
          "internalType": "bytes",
          "name": "operatorData",
          "type": "bytes"
        }
      ],
      "name": "operatorBurn",
      "outputs": [],
      "stateMutability": "nonpayable",
      "type": "function"
    },
    {
      "inputs": [
        {
          "internalType": "address",
          "name": "sender",
          "type": "address"
        },
        {
          "internalType": "address",
          "name": "recipient",
          "type": "address"
        },
        {
          "internalType": "uint256",
          "name": "amount",
          "type": "uint256"
        },
        {
          "internalType": "bytes",
          "name": "data",
          "type": "bytes"
        },
        {
          "internalType": "bytes",
          "name": "operatorData",
          "type": "bytes"
        }
      ],
      "name": "operatorSend",
      "outputs": [],
      "stateMutability": "nonpayable",
      "type": "function"
    },
    {
      "inputs": [],
      "name": "owner",
      "outputs": [
        {
          "internalType": "address",
          "name": "",
          "type": "address"
        }
      ],
      "stateMutability": "view",
      "type": "function"
    },
    {
      "inputs": [
        {
          "internalType": "address",
          "name": "",
          "type": "address"
        }
      ],
      "name": "ownerBalances",
      "outputs": [
        {
          "internalType": "address",
          "name": "",
          "type": "address"
        }
      ],
      "stateMutability": "view",
      "type": "function"
    },
    {
      "inputs": [],
      "name": "renounceOwnership",
      "outputs": [],
      "stateMutability": "nonpayable",
      "type": "function"
    },
    {
      "inputs": [
        {
          "internalType": "address",
          "name": "operator",
          "type": "address"
        }
      ],
      "name": "revokeOperator",
      "outputs": [],
      "stateMutability": "nonpayable",
      "type": "function"
    },
    {
      "inputs": [
        {
          "internalType": "address",
          "name": "_contract",
          "type": "address"
        },
        {
          "internalType": "uint256",
          "name": "_supply",
          "type": "uint256"
        }
      ],
      "name": "safeMint",
      "outputs": [],
      "stateMutability": "nonpayable",
      "type": "function"
    },
    {
      "inputs": [
        {
          "internalType": "address",
          "name": "recipient",
          "type": "address"
        },
        {
          "internalType": "uint256",
          "name": "amount",
          "type": "uint256"
        },
        {
          "internalType": "bytes",
          "name": "data",
          "type": "bytes"
        }
      ],
      "name": "send",
      "outputs": [],
      "stateMutability": "nonpayable",
      "type": "function"
    },
    {
      "inputs": [
        {
          "internalType": "address",
          "name": "_address",
          "type": "address"
        },
        {
          "internalType": "uint256",
          "name": "_amount",
          "type": "uint256"
        }
      ],
      "name": "substractCosmo",
      "outputs": [
        {
          "internalType": "bool",
          "name": "",
          "type": "bool"
        }
      ],
      "stateMutability": "nonpayable",
      "type": "function"
    },
    {
      "inputs": [
        {
          "internalType": "address",
          "name": "",
          "type": "address"
        }
      ],
      "name": "supplyCosmoBalances",
      "outputs": [
        {
          "internalType": "uint256",
          "name": "",
          "type": "uint256"
        }
      ],
      "stateMutability": "view",
      "type": "function"
    },
    {
      "inputs": [],
      "name": "symbol",
      "outputs": [
        {
          "internalType": "string",
          "name": "",
          "type": "string"
        }
      ],
      "stateMutability": "view",
      "type": "function"
    },
    {
      "inputs": [],
      "name": "totalSupply",
      "outputs": [
        {
          "internalType": "uint256",
          "name": "",
          "type": "uint256"
        }
      ],
      "stateMutability": "view",
      "type": "function"
    },
    {
      "inputs": [
        {
          "internalType": "address",
          "name": "recipient",
          "type": "address"
        },
        {
          "internalType": "uint256",
          "name": "amount",
          "type": "uint256"
        }
      ],
      "name": "transfer",
      "outputs": [
        {
          "internalType": "bool",
          "name": "",
          "type": "bool"
        }
      ],
      "stateMutability": "nonpayable",
      "type": "function"
    },
    {
      "inputs": [
        {
          "internalType": "address",
          "name": "holder",
          "type": "address"
        },
        {
          "internalType": "address",
          "name": "recipient",
          "type": "address"
        },
        {
          "internalType": "uint256",
          "name": "amount",
          "type": "uint256"
        }
      ],
      "name": "transferFrom",
      "outputs": [
        {
          "internalType": "bool",
          "name": "",
          "type": "bool"
        }
      ],
      "stateMutability": "nonpayable",
      "type": "function"
    },
    {
      "inputs": [
        {
          "internalType": "address",
          "name": "newOwner",
          "type": "address"
        }
      ],
      "name": "transferOwnership",
      "outputs": [],
      "stateMutability": "nonpayable",
      "type": "function"
    },
    {
      "inputs": [],
      "name": "withdrawAVAX",
      "outputs": [],
      "stateMutability": "nonpayable",
      "type": "function"
    }
  ],
  "bytecode": "0x60a06040526000600a553480156200001657600080fd5b50604051620045983803806200459883398181016040528101906200003c919062000614565b6040518060400160405280600581526020017f436f736d6f0000000000000000000000000000000000000000000000000000008152506040518060400160405280600381526020017f43534d0000000000000000000000000000000000000000000000000000000000815250600067ffffffffffffffff811115620000c657620000c562000646565b5b604051908082528060200260200182016040528015620000f55781602001602082028036833780820191505090505b50838073ffffffffffffffffffffffffffffffffffffffff1660808173ffffffffffffffffffffffffffffffffffffffff16815250505082600290816200013d9190620008c0565b5081600390816200014f9190620008c0565b50806004908051906020019062000168929190620004e8565b5060005b81518110156200020157600160056000848481518110620001925762000191620009a7565b5b602002602001015173ffffffffffffffffffffffffffffffffffffffff1673ffffffffffffffffffffffffffffffffffffffff16815260200190815260200160002060006101000a81548160ff0219169083151502179055508080620001f89062000a05565b9150506200016c565b50731820a4b7618bde71dce8cdc73aab6c95905fad2473ffffffffffffffffffffffffffffffffffffffff166329965a1d307fac7fbab5f54a3ca8194167523c6753bfeb96a445279294b6125b68cce2177054306040518463ffffffff1660e01b8152600401620002759392919062000a7e565b600060405180830381600087803b1580156200029057600080fd5b505af1158015620002a5573d6000803e3d6000fd5b50505050731820a4b7618bde71dce8cdc73aab6c95905fad2473ffffffffffffffffffffffffffffffffffffffff166329965a1d307faea199e31a596269b42cdafd93407f14436db6e4cad65417994c2eb37381e05a306040518463ffffffff1660e01b81526004016200031c9392919062000a7e565b600060405180830381600087803b1580156200033757600080fd5b505af11580156200034c573d6000803e3d6000fd5b5050505050505062000373620003676200037a60201b60201c565b6200039660201b60201c565b5062000abb565b6000620003916200045c60201b6200181d1760201c565b905090565b6000600960009054906101000a900473ffffffffffffffffffffffffffffffffffffffff16905081600960006101000a81548173ffffffffffffffffffffffffffffffffffffffff021916908373ffffffffffffffffffffffffffffffffffffffff1602179055508173ffffffffffffffffffffffffffffffffffffffff168173ffffffffffffffffffffffffffffffffffffffff167f8be0079c531659141344cd1fd0a4f28419497f9722a3daafe3b4186f6b6457e060405160405180910390a35050565b60006200046f33620004a660201b60201c565b156200048557601436033560601c9050620004a2565b6200049a620004e060201b6200184f1760201c565b9050620004a3565b5b90565b600060805173ffffffffffffffffffffffffffffffffffffffff168273ffffffffffffffffffffffffffffffffffffffff16149050919050565b600033905090565b82805482825590600052602060002090810192821562000564579160200282015b82811115620005635782518260006101000a81548173ffffffffffffffffffffffffffffffffffffffff021916908373ffffffffffffffffffffffffffffffffffffffff1602179055509160200191906001019062000509565b5b50905062000573919062000577565b5090565b5b808211156200059257600081600090555060010162000578565b5090565b600080fd5b600073ffffffffffffffffffffffffffffffffffffffff82169050919050565b6000620005c8826200059b565b9050919050565b6000620005dc82620005bb565b9050919050565b620005ee81620005cf565b8114620005fa57600080fd5b50565b6000815190506200060e81620005e3565b92915050565b6000602082840312156200062d576200062c62000596565b5b60006200063d84828501620005fd565b91505092915050565b7f4e487b7100000000000000000000000000000000000000000000000000000000600052604160045260246000fd5b600081519050919050565b7f4e487b7100000000000000000000000000000000000000000000000000000000600052602260045260246000fd5b60006002820490506001821680620006c857607f821691505b602082108103620006de57620006dd62000680565b5b50919050565b60008190508160005260206000209050919050565b60006020601f8301049050919050565b600082821b905092915050565b600060088302620007487fffffffffffffffffffffffffffffffffffffffffffffffffffffffffffffffff8262000709565b62000754868362000709565b95508019841693508086168417925050509392505050565b6000819050919050565b6000819050919050565b6000620007a16200079b62000795846200076c565b62000776565b6200076c565b9050919050565b6000819050919050565b620007bd8362000780565b620007d5620007cc82620007a8565b84845462000716565b825550505050565b600090565b620007ec620007dd565b620007f9818484620007b2565b505050565b5b81811015620008215762000815600082620007e2565b600181019050620007ff565b5050565b601f82111562000870576200083a81620006e4565b6200084584620006f9565b8101602085101562000855578190505b6200086d6200086485620006f9565b830182620007fe565b50505b505050565b600082821c905092915050565b6000620008956000198460080262000875565b1980831691505092915050565b6000620008b0838362000882565b9150826002028217905092915050565b620008cb8262000675565b67ffffffffffffffff811115620008e757620008e662000646565b5b620008f38254620006af565b6200090082828562000825565b600060209050601f83116001811462000938576000841562000923578287015190505b6200092f8582620008a2565b8655506200099f565b601f1984166200094886620006e4565b60005b8281101562000972578489015182556001820191506020850194506020810190506200094b565b868310156200099257848901516200098e601f89168262000882565b8355505b6001600288020188555050505b505050505050565b7f4e487b7100000000000000000000000000000000000000000000000000000000600052603260045260246000fd5b7f4e487b7100000000000000000000000000000000000000000000000000000000600052601160045260246000fd5b600062000a12826200076c565b91507fffffffffffffffffffffffffffffffffffffffffffffffffffffffffffffffff820362000a475762000a46620009d6565b5b600182019050919050565b62000a5d81620005bb565b82525050565b6000819050919050565b62000a788162000a63565b82525050565b600060608201905062000a95600083018662000a52565b62000aa4602083018562000a6d565b62000ab3604083018462000a52565b949350505050565b608051613ac162000ad76000396000610b9b0152613ac16000f3fe6080604052600436106101cd5760003560e01c8063959b8c3f116100f7578063d95b637111610095578063f38e266a11610064578063f38e266a146106a3578063fad8b32a146106e0578063fc673c4f14610709578063fe9d930314610732576101cd565b8063d95b6371146105c3578063dd62ed3e14610600578063e3538bc11461063d578063f2fde38b1461067a576101cd565b8063a1448194116100d1578063a144819414610509578063a9059cbb14610532578063abce145b1461056f578063bc0d7cd614610586576101cd565b8063959b8c3f1461048c57806395d89b41146104b55780639bd9bbc6146104e0576101cd565b80633610724e1161016f57806370a082311161013e57806370a08231146103e2578063715018a61461041f578063731861bc146104365780638da5cb5b14610461576101cd565b80633610724e14610335578063556f0dc714610351578063572b6c051461037c57806362ad1b83146103b9576101cd565b806318160ddd116101ab57806318160ddd1461026557806323b872dd1461029057806325e8e00c146102cd578063313ce5671461030a576101cd565b806306e48538146101d257806306fdde03146101fd578063095ea7b314610228575b600080fd5b3480156101de57600080fd5b506101e761075b565b6040516101f491906127cc565b60405180910390f35b34801561020957600080fd5b506102126107e9565b60405161021f9190612887565b60405180910390f35b34801561023457600080fd5b5061024f600480360381019061024a919061291f565b61087b565b60405161025c919061297a565b60405180910390f35b34801561027157600080fd5b5061027a61089e565b60405161028791906129a4565b60405180910390f35b34801561029c57600080fd5b506102b760048036038101906102b291906129bf565b6108a8565b6040516102c4919061297a565b60405180910390f35b3480156102d957600080fd5b506102f460048036038101906102ef919061291f565b6108f9565b604051610301919061297a565b60405180910390f35b34801561031657600080fd5b5061031f610a28565b60405161032c9190612a2e565b60405180910390f35b61034f600480360381019061034a9190612a49565b610a31565b005b34801561035d57600080fd5b50610366610b8e565b60405161037391906129a4565b60405180910390f35b34801561038857600080fd5b506103a3600480360381019061039e9190612a76565b610b97565b6040516103b0919061297a565b60405180910390f35b3480156103c557600080fd5b506103e060048036038101906103db9190612bd8565b610bef565b005b3480156103ee57600080fd5b5061040960048036038101906104049190612a76565b610c55565b60405161041691906129a4565b60405180910390f35b34801561042b57600080fd5b50610434610c9d565b005b34801561044257600080fd5b5061044b610cb1565b60405161045891906129a4565b60405180910390f35b34801561046d57600080fd5b50610476610cb7565b6040516104839190612c9a565b60405180910390f35b34801561049857600080fd5b506104b360048036038101906104ae9190612a76565b610ce1565b005b3480156104c157600080fd5b506104ca610f41565b6040516104d79190612887565b60405180910390f35b3480156104ec57600080fd5b5061050760048036038101906105029190612cb5565b610fd3565b005b34801561051557600080fd5b50610530600480360381019061052b919061291f565b610ffd565b005b34801561053e57600080fd5b506105596004803603810190610554919061291f565b6110ff565b604051610566919061297a565b60405180910390f35b34801561057b57600080fd5b5061058461113f565b005b34801561059257600080fd5b506105ad60048036038101906105a89190612a76565b6111e6565b6040516105ba91906129a4565b60405180910390f35b3480156105cf57600080fd5b506105ea60048036038101906105e59190612d24565b6111fe565b6040516105f7919061297a565b60405180910390f35b34801561060c57600080fd5b5061062760048036038101906106229190612d24565b6113af565b60405161063491906129a4565b60405180910390f35b34801561064957600080fd5b50610664600480360381019061065f9190612a76565b611436565b6040516106719190612c9a565b60405180910390f35b34801561068657600080fd5b506106a1600480360381019061069c9190612a76565b611469565b005b3480156106af57600080fd5b506106ca60048036038101906106c59190612a76565b6114ec565b6040516106d791906129a4565b60405180910390f35b3480156106ec57600080fd5b5061070760048036038101906107029190612a76565b611535565b005b34801561071557600080fd5b50610730600480360381019061072b9190612d64565b611795565b005b34801561073e57600080fd5b5061075960048036038101906107549190612e03565b6117f7565b005b606060048054806020026020016040519081016040528092919081815260200182805480156107df57602002820191906000526020600020905b8160009054906101000a900473ffffffffffffffffffffffffffffffffffffffff1673ffffffffffffffffffffffffffffffffffffffff1681526020019060010190808311610795575b5050505050905090565b6060600280546107f890612e8e565b80601f016020809104026020016040519081016040528092919081815260200182805461082490612e8e565b80156108715780601f1061084657610100808354040283529160200191610871565b820191906000526020600020905b81548152906001019060200180831161085457829003601f168201915b5050505050905090565b600080610886611857565b9050610893818585611866565b600191505092915050565b6000600154905090565b6000806108b3611857565b90506108c0858285611a2f565b6108ed85858560405180602001604052806000815250604051806020016040528060008152506000611abb565b60019150509392505050565b60008273ffffffffffffffffffffffffffffffffffffffff16600b60008573ffffffffffffffffffffffffffffffffffffffff1673ffffffffffffffffffffffffffffffffffffffff16815260200190815260200160002060009054906101000a900473ffffffffffffffffffffffffffffffffffffffff1673ffffffffffffffffffffffffffffffffffffffff16146109c8576040517f08c379a00000000000000000000000000000000000000000000000000000000081526004016109bf90612f0b565b60405180910390fd5b81600c60008573ffffffffffffffffffffffffffffffffffffffff1673ffffffffffffffffffffffffffffffffffffffff1681526020019081526020016000206000828254610a179190612f5a565b925050819055506001905092915050565b60006012905090565b80341015610a74576040517f08c379a0000000000000000000000000000000000000000000000000000000008152600401610a6b90612fda565b60405180910390fd5b33600b60003373ffffffffffffffffffffffffffffffffffffffff1673ffffffffffffffffffffffffffffffffffffffff16815260200190815260200160002060006101000a81548173ffffffffffffffffffffffffffffffffffffffff021916908373ffffffffffffffffffffffffffffffffffffffff16021790555080600c60003373ffffffffffffffffffffffffffffffffffffffff1673ffffffffffffffffffffffffffffffffffffffff1681526020019081526020016000206000828254610b419190612ffa565b92505081905550610b7233826040518060200160405280600081525060405180602001604052806000815250611bd9565b80600a6000828254610b849190612ffa565b9250508190555050565b60006001905090565b60007f000000000000000000000000000000000000000000000000000000000000000073ffffffffffffffffffffffffffffffffffffffff168273ffffffffffffffffffffffffffffffffffffffff16149050919050565b610c00610bfa611857565b866111fe565b610c3f576040517f08c379a0000000000000000000000000000000000000000000000000000000008152600401610c36906130c2565b60405180910390fd5b610c4e85858585856001611abb565b5050505050565b60008060008373ffffffffffffffffffffffffffffffffffffffff1673ffffffffffffffffffffffffffffffffffffffff168152602001908152602001600020549050919050565b610ca5611bed565b610caf6000611c6b565b565b600a5481565b6000600960009054906101000a900473ffffffffffffffffffffffffffffffffffffffff16905090565b8073ffffffffffffffffffffffffffffffffffffffff16610d00611857565b73ffffffffffffffffffffffffffffffffffffffff1603610d56576040517f08c379a0000000000000000000000000000000000000000000000000000000008152600401610d4d90613154565b60405180910390fd5b600560008273ffffffffffffffffffffffffffffffffffffffff1673ffffffffffffffffffffffffffffffffffffffff16815260200190815260200160002060009054906101000a900460ff1615610e405760076000610db4611857565b73ffffffffffffffffffffffffffffffffffffffff1673ffffffffffffffffffffffffffffffffffffffff16815260200190815260200160002060008273ffffffffffffffffffffffffffffffffffffffff1673ffffffffffffffffffffffffffffffffffffffff16815260200190815260200160002060006101000a81549060ff0219169055610edd565b600160066000610e4e611857565b73ffffffffffffffffffffffffffffffffffffffff1673ffffffffffffffffffffffffffffffffffffffff16815260200190815260200160002060008373ffffffffffffffffffffffffffffffffffffffff1673ffffffffffffffffffffffffffffffffffffffff16815260200190815260200160002060006101000a81548160ff0219169083151502179055505b610ee5611857565b73ffffffffffffffffffffffffffffffffffffffff168173ffffffffffffffffffffffffffffffffffffffff167ff4caeb2d6ca8932a215a353d0703c326ec2d81fc68170f320eb2ab49e9df61f960405160405180910390a350565b606060038054610f5090612e8e565b80601f0160208091040260200160405190810160405280929190818152602001828054610f7c90612e8e565b8015610fc95780601f10610f9e57610100808354040283529160200191610fc9565b820191906000526020600020905b815481529060010190602001808311610fac57829003601f168201915b5050505050905090565b610ff8610fde611857565b848484604051806020016040528060008152506001611abb565b505050565b81600b60008473ffffffffffffffffffffffffffffffffffffffff1673ffffffffffffffffffffffffffffffffffffffff16815260200190815260200160002060006101000a81548173ffffffffffffffffffffffffffffffffffffffff021916908373ffffffffffffffffffffffffffffffffffffffff16021790555080600c60008473ffffffffffffffffffffffffffffffffffffffff1673ffffffffffffffffffffffffffffffffffffffff16815260200190815260200160002060008282546110ca9190612ffa565b925050819055506110fb82826040518060200160405280600081525060405180602001604052806000815250611bd9565b5050565b600061113561110c611857565b848460405180602001604052806000815250604051806020016040528060008152506000611abb565b6001905092915050565b611147611bed565b6000600a541161118c576040517f08c379a0000000000000000000000000000000000000000000000000000000008152600401611183906131c0565b60405180910390fd5b611194610cb7565b73ffffffffffffffffffffffffffffffffffffffff166108fc600a549081150290604051600060405180830381858888f193505050501580156111db573d6000803e3d6000fd5b506000600a81905550565b600c6020528060005260406000206000915090505481565b60008173ffffffffffffffffffffffffffffffffffffffff168373ffffffffffffffffffffffffffffffffffffffff1614806113165750600560008473ffffffffffffffffffffffffffffffffffffffff1673ffffffffffffffffffffffffffffffffffffffff16815260200190815260200160002060009054906101000a900460ff1680156113155750600760008373ffffffffffffffffffffffffffffffffffffffff1673ffffffffffffffffffffffffffffffffffffffff16815260200190815260200160002060008473ffffffffffffffffffffffffffffffffffffffff1673ffffffffffffffffffffffffffffffffffffffff16815260200190815260200160002060009054906101000a900460ff16155b5b806113a75750600660008373ffffffffffffffffffffffffffffffffffffffff1673ffffffffffffffffffffffffffffffffffffffff16815260200190815260200160002060008473ffffffffffffffffffffffffffffffffffffffff1673ffffffffffffffffffffffffffffffffffffffff16815260200190815260200160002060009054906101000a900460ff165b905092915050565b6000600860008473ffffffffffffffffffffffffffffffffffffffff1673ffffffffffffffffffffffffffffffffffffffff16815260200190815260200160002060008373ffffffffffffffffffffffffffffffffffffffff1673ffffffffffffffffffffffffffffffffffffffff16815260200190815260200160002054905092915050565b600b6020528060005260406000206000915054906101000a900473ffffffffffffffffffffffffffffffffffffffff1681565b611471611bed565b600073ffffffffffffffffffffffffffffffffffffffff168173ffffffffffffffffffffffffffffffffffffffff16036114e0576040517f08c379a00000000000000000000000000000000000000000000000000000000081526004016114d790613252565b60405180910390fd5b6114e981611c6b565b50565b6000600c60008373ffffffffffffffffffffffffffffffffffffffff1673ffffffffffffffffffffffffffffffffffffffff168152602001908152602001600020549050919050565b61153d611857565b73ffffffffffffffffffffffffffffffffffffffff168173ffffffffffffffffffffffffffffffffffffffff16036115aa576040517f08c379a00000000000000000000000000000000000000000000000000000000081526004016115a1906132e4565b60405180910390fd5b600560008273ffffffffffffffffffffffffffffffffffffffff1673ffffffffffffffffffffffffffffffffffffffff16815260200190815260200160002060009054906101000a900460ff161561169d5760016007600061160a611857565b73ffffffffffffffffffffffffffffffffffffffff1673ffffffffffffffffffffffffffffffffffffffff16815260200190815260200160002060008373ffffffffffffffffffffffffffffffffffffffff1673ffffffffffffffffffffffffffffffffffffffff16815260200190815260200160002060006101000a81548160ff021916908315150217905550611731565b600660006116a9611857565b73ffffffffffffffffffffffffffffffffffffffff1673ffffffffffffffffffffffffffffffffffffffff16815260200190815260200160002060008273ffffffffffffffffffffffffffffffffffffffff1673ffffffffffffffffffffffffffffffffffffffff16815260200190815260200160002060006101000a81549060ff02191690555b611739611857565b73ffffffffffffffffffffffffffffffffffffffff168173ffffffffffffffffffffffffffffffffffffffff167f50546e66e5f44d728365dc3908c63bc5cfeeab470722c1677e3073a6ac294aa160405160405180910390a350565b6117a66117a0611857565b856111fe565b6117e5576040517f08c379a00000000000000000000000000000000000000000000000000000000081526004016117dc906130c2565b60405180910390fd5b6117f184848484611d31565b50505050565b611819611802611857565b838360405180602001604052806000815250611d31565b5050565b600061182833610b97565b1561183c57601436033560601c905061184b565b61184461184f565b905061184c565b5b90565b600033905090565b600061186161181d565b905090565b600073ffffffffffffffffffffffffffffffffffffffff168373ffffffffffffffffffffffffffffffffffffffff16036118d5576040517f08c379a00000000000000000000000000000000000000000000000000000000081526004016118cc90613376565b60405180910390fd5b600073ffffffffffffffffffffffffffffffffffffffff168273ffffffffffffffffffffffffffffffffffffffff1603611944576040517f08c379a000000000000000000000000000000000000000000000000000000000815260040161193b90613408565b60405180910390fd5b80600860008573ffffffffffffffffffffffffffffffffffffffff1673ffffffffffffffffffffffffffffffffffffffff16815260200190815260200160002060008473ffffffffffffffffffffffffffffffffffffffff1673ffffffffffffffffffffffffffffffffffffffff168152602001908152602001600020819055508173ffffffffffffffffffffffffffffffffffffffff168373ffffffffffffffffffffffffffffffffffffffff167f8c5be1e5ebec7d5bd14f71427d1e84f3dd0314c0f7b2291e5b200ac8c7c3b92583604051611a2291906129a4565b60405180910390a3505050565b6000611a3b84846113af565b90507fffffffffffffffffffffffffffffffffffffffffffffffffffffffffffffffff8114611ab55781811015611aa7576040517f08c379a0000000000000000000000000000000000000000000000000000000008152600401611a9e90613474565b60405180910390fd5b611ab48484848403611866565b5b50505050565b600073ffffffffffffffffffffffffffffffffffffffff168673ffffffffffffffffffffffffffffffffffffffff1603611b2a576040517f08c379a0000000000000000000000000000000000000000000000000000000008152600401611b2190613506565b60405180910390fd5b600073ffffffffffffffffffffffffffffffffffffffff168573ffffffffffffffffffffffffffffffffffffffff1603611b99576040517f08c379a0000000000000000000000000000000000000000000000000000000008152600401611b9090613598565b60405180910390fd5b6000611ba3611857565b9050611bb3818888888888611f83565b611bc18188888888886120ea565b611bd081888888888888612304565b50505050505050565b611be78484848460016124d6565b50505050565b611bf5611857565b73ffffffffffffffffffffffffffffffffffffffff16611c13610cb7565b73ffffffffffffffffffffffffffffffffffffffff1614611c69576040517f08c379a0000000000000000000000000000000000000000000000000000000008152600401611c6090613604565b60405180910390fd5b565b6000600960009054906101000a900473ffffffffffffffffffffffffffffffffffffffff16905081600960006101000a81548173ffffffffffffffffffffffffffffffffffffffff021916908373ffffffffffffffffffffffffffffffffffffffff1602179055508173ffffffffffffffffffffffffffffffffffffffff168173ffffffffffffffffffffffffffffffffffffffff167f8be0079c531659141344cd1fd0a4f28419497f9722a3daafe3b4186f6b6457e060405160405180910390a35050565b600073ffffffffffffffffffffffffffffffffffffffff168473ffffffffffffffffffffffffffffffffffffffff1603611da0576040517f08c379a0000000000000000000000000000000000000000000000000000000008152600401611d9790613696565b60405180910390fd5b6000611daa611857565b9050611dbb81866000878787611f83565b611dc881866000876126b3565b60008060008773ffffffffffffffffffffffffffffffffffffffff1673ffffffffffffffffffffffffffffffffffffffff16815260200190815260200160002054905084811015611e4e576040517f08c379a0000000000000000000000000000000000000000000000000000000008152600401611e4590613728565b60405180910390fd5b8481036000808873ffffffffffffffffffffffffffffffffffffffff1673ffffffffffffffffffffffffffffffffffffffff168152602001908152602001600020819055508460016000828254611ea59190612f5a565b925050819055508573ffffffffffffffffffffffffffffffffffffffff168273ffffffffffffffffffffffffffffffffffffffff167fa78a9be3a7b862d26933ad85fb11d80ef66b8f972d7cbba06621d583943a4098878787604051611f0d9392919061379d565b60405180910390a3600073ffffffffffffffffffffffffffffffffffffffff168673ffffffffffffffffffffffffffffffffffffffff167fddf252ad1be2c89b69c2b068fc378daa952ba7f163c4a11628f55a4df523b3ef87604051611f7391906129a4565b60405180910390a3505050505050565b6000731820a4b7618bde71dce8cdc73aab6c95905fad2473ffffffffffffffffffffffffffffffffffffffff1663aabbb8ca877f29ddb589b1fb5fc7cf394961c1adf5f8c6454761adf795e67fe149f658abe8956040518363ffffffff1660e01b8152600401611ff49291906137fb565b602060405180830381865afa158015612011573d6000803e3d6000fd5b505050506040513d601f19601f820116820180604052508101906120359190613839565b9050600073ffffffffffffffffffffffffffffffffffffffff168173ffffffffffffffffffffffffffffffffffffffff16146120e1578073ffffffffffffffffffffffffffffffffffffffff166375ab97828888888888886040518763ffffffff1660e01b81526004016120ae96959493929190613866565b600060405180830381600087803b1580156120c857600080fd5b505af11580156120dc573d6000803e3d6000fd5b505050505b50505050505050565b6120f6868686866126b3565b60008060008773ffffffffffffffffffffffffffffffffffffffff1673ffffffffffffffffffffffffffffffffffffffff1681526020019081526020016000205490508381101561217c576040517f08c379a000000000000000000000000000000000000000000000000000000000815260040161217390613947565b60405180910390fd5b8381036000808873ffffffffffffffffffffffffffffffffffffffff1673ffffffffffffffffffffffffffffffffffffffff16815260200190815260200160002081905550836000808773ffffffffffffffffffffffffffffffffffffffff1673ffffffffffffffffffffffffffffffffffffffff168152602001908152602001600020600082825461220f9190612ffa565b925050819055508473ffffffffffffffffffffffffffffffffffffffff168673ffffffffffffffffffffffffffffffffffffffff168873ffffffffffffffffffffffffffffffffffffffff167f06b541ddaa720db2b10a4d0cdac39b8d360425fc073085fac19bc8261467798787878760405161228e9392919061379d565b60405180910390a48473ffffffffffffffffffffffffffffffffffffffff168673ffffffffffffffffffffffffffffffffffffffff167fddf252ad1be2c89b69c2b068fc378daa952ba7f163c4a11628f55a4df523b3ef866040516122f391906129a4565b60405180910390a350505050505050565b6000731820a4b7618bde71dce8cdc73aab6c95905fad2473ffffffffffffffffffffffffffffffffffffffff1663aabbb8ca877fb281fc8c12954d22544db45de3159a39272895b169a852b314f9cc762e44c53b6040518363ffffffff1660e01b81526004016123759291906137fb565b602060405180830381865afa158015612392573d6000803e3d6000fd5b505050506040513d601f19601f820116820180604052508101906123b69190613839565b9050600073ffffffffffffffffffffffffffffffffffffffff168173ffffffffffffffffffffffffffffffffffffffff1614612465578073ffffffffffffffffffffffffffffffffffffffff166223de298989898989896040518763ffffffff1660e01b815260040161242e96959493929190613866565b600060405180830381600087803b15801561244857600080fd5b505af115801561245c573d6000803e3d6000fd5b505050506124cc565b81156124cb5761248a8673ffffffffffffffffffffffffffffffffffffffff166126b9565b156124ca576040517f08c379a00000000000000000000000000000000000000000000000000000000081526004016124c1906139ff565b60405180910390fd5b5b5b5050505050505050565b600073ffffffffffffffffffffffffffffffffffffffff168573ffffffffffffffffffffffffffffffffffffffff1603612545576040517f08c379a000000000000000000000000000000000000000000000000000000000815260040161253c90613a6b565b60405180910390fd5b600061254f611857565b905061255e81600088886126b3565b84600160008282546125709190612ffa565b92505081905550846000808873ffffffffffffffffffffffffffffffffffffffff1673ffffffffffffffffffffffffffffffffffffffff16815260200190815260200160002060008282546125c59190612ffa565b925050819055506125dc8160008888888888612304565b8573ffffffffffffffffffffffffffffffffffffffff168173ffffffffffffffffffffffffffffffffffffffff167f2fe5be0146f74c5bce36c0b80911af6c7d86ff27e89d5cfa61fc681327954e5d87878760405161263d9392919061379d565b60405180910390a38573ffffffffffffffffffffffffffffffffffffffff16600073ffffffffffffffffffffffffffffffffffffffff167fddf252ad1be2c89b69c2b068fc378daa952ba7f163c4a11628f55a4df523b3ef876040516126a391906129a4565b60405180910390a3505050505050565b50505050565b6000808273ffffffffffffffffffffffffffffffffffffffff163b119050919050565b600081519050919050565b600082825260208201905092915050565b6000819050602082019050919050565b600073ffffffffffffffffffffffffffffffffffffffff82169050919050565b600061273382612708565b9050919050565b61274381612728565b82525050565b6000612755838361273a565b60208301905092915050565b6000602082019050919050565b6000612779826126dc565b61278381856126e7565b935061278e836126f8565b8060005b838110156127bf5781516127a68882612749565b97506127b183612761565b925050600181019050612792565b5085935050505092915050565b600060208201905081810360008301526127e6818461276e565b905092915050565b600081519050919050565b600082825260208201905092915050565b60005b8381101561282857808201518184015260208101905061280d565b83811115612837576000848401525b50505050565b6000601f19601f8301169050919050565b6000612859826127ee565b61286381856127f9565b935061287381856020860161280a565b61287c8161283d565b840191505092915050565b600060208201905081810360008301526128a1818461284e565b905092915050565b6000604051905090565b600080fd5b600080fd5b6128c681612728565b81146128d157600080fd5b50565b6000813590506128e3816128bd565b92915050565b6000819050919050565b6128fc816128e9565b811461290757600080fd5b50565b600081359050612919816128f3565b92915050565b60008060408385031215612936576129356128b3565b5b6000612944858286016128d4565b92505060206129558582860161290a565b9150509250929050565b60008115159050919050565b6129748161295f565b82525050565b600060208201905061298f600083018461296b565b92915050565b61299e816128e9565b82525050565b60006020820190506129b96000830184612995565b92915050565b6000806000606084860312156129d8576129d76128b3565b5b60006129e6868287016128d4565b93505060206129f7868287016128d4565b9250506040612a088682870161290a565b9150509250925092565b600060ff82169050919050565b612a2881612a12565b82525050565b6000602082019050612a436000830184612a1f565b92915050565b600060208284031215612a5f57612a5e6128b3565b5b6000612a6d8482850161290a565b91505092915050565b600060208284031215612a8c57612a8b6128b3565b5b6000612a9a848285016128d4565b91505092915050565b600080fd5b600080fd5b7f4e487b7100000000000000000000000000000000000000000000000000000000600052604160045260246000fd5b612ae58261283d565b810181811067ffffffffffffffff82111715612b0457612b03612aad565b5b80604052505050565b6000612b176128a9565b9050612b238282612adc565b919050565b600067ffffffffffffffff821115612b4357612b42612aad565b5b612b4c8261283d565b9050602081019050919050565b82818337600083830152505050565b6000612b7b612b7684612b28565b612b0d565b905082815260208101848484011115612b9757612b96612aa8565b5b612ba2848285612b59565b509392505050565b600082601f830112612bbf57612bbe612aa3565b5b8135612bcf848260208601612b68565b91505092915050565b600080600080600060a08688031215612bf457612bf36128b3565b5b6000612c02888289016128d4565b9550506020612c13888289016128d4565b9450506040612c248882890161290a565b935050606086013567ffffffffffffffff811115612c4557612c446128b8565b5b612c5188828901612baa565b925050608086013567ffffffffffffffff811115612c7257612c716128b8565b5b612c7e88828901612baa565b9150509295509295909350565b612c9481612728565b82525050565b6000602082019050612caf6000830184612c8b565b92915050565b600080600060608486031215612cce57612ccd6128b3565b5b6000612cdc868287016128d4565b9350506020612ced8682870161290a565b925050604084013567ffffffffffffffff811115612d0e57612d0d6128b8565b5b612d1a86828701612baa565b9150509250925092565b60008060408385031215612d3b57612d3a6128b3565b5b6000612d49858286016128d4565b9250506020612d5a858286016128d4565b9150509250929050565b60008060008060808587031215612d7e57612d7d6128b3565b5b6000612d8c878288016128d4565b9450506020612d9d8782880161290a565b935050604085013567ffffffffffffffff811115612dbe57612dbd6128b8565b5b612dca87828801612baa565b925050606085013567ffffffffffffffff811115612deb57612dea6128b8565b5b612df787828801612baa565b91505092959194509250565b60008060408385031215612e1a57612e196128b3565b5b6000612e288582860161290a565b925050602083013567ffffffffffffffff811115612e4957612e486128b8565b5b612e5585828601612baa565b9150509250929050565b7f4e487b7100000000000000000000000000000000000000000000000000000000600052602260045260246000fd5b60006002820490506001821680612ea657607f821691505b602082108103612eb957612eb8612e5f565b5b50919050565b7f596f7520617265206e6f7420746865206f776e65720000000000000000000000600082015250565b6000612ef56015836127f9565b9150612f0082612ebf565b602082019050919050565b60006020820190508181036000830152612f2481612ee8565b9050919050565b7f4e487b7100000000000000000000000000000000000000000000000000000000600052601160045260246000fd5b6000612f65826128e9565b9150612f70836128e9565b925082821015612f8357612f82612f2b565b5b828203905092915050565b7f496e737566666369656e742066756e6473000000000000000000000000000000600082015250565b6000612fc46011836127f9565b9150612fcf82612f8e565b602082019050919050565b60006020820190508181036000830152612ff381612fb7565b9050919050565b6000613005826128e9565b9150613010836128e9565b9250827fffffffffffffffffffffffffffffffffffffffffffffffffffffffffffffffff0382111561304557613044612f2b565b5b828201905092915050565b7f4552433737373a2063616c6c6572206973206e6f7420616e206f70657261746f60008201527f7220666f7220686f6c6465720000000000000000000000000000000000000000602082015250565b60006130ac602c836127f9565b91506130b782613050565b604082019050919050565b600060208201905081810360008301526130db8161309f565b9050919050565b7f4552433737373a20617574686f72697a696e672073656c66206173206f70657260008201527f61746f7200000000000000000000000000000000000000000000000000000000602082015250565b600061313e6024836127f9565b9150613149826130e2565b604082019050919050565b6000602082019050818103600083015261316d81613131565b9050919050565b7f446f6e277420686176652066756e647300000000000000000000000000000000600082015250565b60006131aa6010836127f9565b91506131b582613174565b602082019050919050565b600060208201905081810360008301526131d98161319d565b9050919050565b7f4f776e61626c653a206e6577206f776e657220697320746865207a65726f206160008201527f6464726573730000000000000000000000000000000000000000000000000000602082015250565b600061323c6026836127f9565b9150613247826131e0565b604082019050919050565b6000602082019050818103600083015261326b8161322f565b9050919050565b7f4552433737373a207265766f6b696e672073656c66206173206f70657261746f60008201527f7200000000000000000000000000000000000000000000000000000000000000602082015250565b60006132ce6021836127f9565b91506132d982613272565b604082019050919050565b600060208201905081810360008301526132fd816132c1565b9050919050565b7f4552433737373a20617070726f76652066726f6d20746865207a65726f20616460008201527f6472657373000000000000000000000000000000000000000000000000000000602082015250565b60006133606025836127f9565b915061336b82613304565b604082019050919050565b6000602082019050818103600083015261338f81613353565b9050919050565b7f4552433737373a20617070726f766520746f20746865207a65726f206164647260008201527f6573730000000000000000000000000000000000000000000000000000000000602082015250565b60006133f26023836127f9565b91506133fd82613396565b604082019050919050565b60006020820190508181036000830152613421816133e5565b9050919050565b7f4552433737373a20696e73756666696369656e7420616c6c6f77616e63650000600082015250565b600061345e601e836127f9565b915061346982613428565b602082019050919050565b6000602082019050818103600083015261348d81613451565b9050919050565b7f4552433737373a207472616e736665722066726f6d20746865207a65726f206160008201527f6464726573730000000000000000000000000000000000000000000000000000602082015250565b60006134f06026836127f9565b91506134fb82613494565b604082019050919050565b6000602082019050818103600083015261351f816134e3565b9050919050565b7f4552433737373a207472616e7366657220746f20746865207a65726f2061646460008201527f7265737300000000000000000000000000000000000000000000000000000000602082015250565b60006135826024836127f9565b915061358d82613526565b604082019050919050565b600060208201905081810360008301526135b181613575565b9050919050565b7f4f776e61626c653a2063616c6c6572206973206e6f7420746865206f776e6572600082015250565b60006135ee6020836127f9565b91506135f9826135b8565b602082019050919050565b6000602082019050818103600083015261361d816135e1565b9050919050565b7f4552433737373a206275726e2066726f6d20746865207a65726f20616464726560008201527f7373000000000000000000000000000000000000000000000000000000000000602082015250565b60006136806022836127f9565b915061368b82613624565b604082019050919050565b600060208201905081810360008301526136af81613673565b9050919050565b7f4552433737373a206275726e20616d6f756e7420657863656564732062616c6160008201527f6e63650000000000000000000000000000000000000000000000000000000000602082015250565b60006137126023836127f9565b915061371d826136b6565b604082019050919050565b6000602082019050818103600083015261374181613705565b9050919050565b600081519050919050565b600082825260208201905092915050565b600061376f82613748565b6137798185613753565b935061378981856020860161280a565b6137928161283d565b840191505092915050565b60006060820190506137b26000830186612995565b81810360208301526137c48185613764565b905081810360408301526137d88184613764565b9050949350505050565b6000819050919050565b6137f5816137e2565b82525050565b60006040820190506138106000830185612c8b565b61381d60208301846137ec565b9392505050565b600081519050613833816128bd565b92915050565b60006020828403121561384f5761384e6128b3565b5b600061385d84828501613824565b91505092915050565b600060c08201905061387b6000830189612c8b565b6138886020830188612c8b565b6138956040830187612c8b565b6138a26060830186612995565b81810360808301526138b48185613764565b905081810360a08301526138c88184613764565b9050979650505050505050565b7f4552433737373a207472616e7366657220616d6f756e7420657863656564732060008201527f62616c616e636500000000000000000000000000000000000000000000000000602082015250565b60006139316027836127f9565b915061393c826138d5565b604082019050919050565b6000602082019050818103600083015261396081613924565b9050919050565b7f4552433737373a20746f6b656e20726563697069656e7420636f6e747261637460008201527f20686173206e6f20696d706c656d656e74657220666f7220455243373737546f60208201527f6b656e73526563697069656e7400000000000000000000000000000000000000604082015250565b60006139e9604d836127f9565b91506139f482613967565b606082019050919050565b60006020820190508181036000830152613a18816139dc565b9050919050565b7f4552433737373a206d696e7420746f20746865207a65726f2061646472657373600082015250565b6000613a556020836127f9565b9150613a6082613a1f565b602082019050919050565b60006020820190508181036000830152613a8481613a48565b905091905056fea26469706673582212209fe49e5047649baca089fafea201fe48492dfad86605235adada84b35b8b669764736f6c634300080f0033",
  "linkReferences": {},
  "deployedLinkReferences": {}
}