{
  "_format": "hh-sol-artifact-1",
  "contractName": "BenefitContract",
  "sourceName": "src/blockchain/hardhat/contracts/BenefitContract.sol",
  "abi": [
    {
      "inputs": [
        {
          "internalType": "address",
          "name": "_manager",
          "type": "address"
        },
        {
          "internalType": "uint256",
          "name": "_maxMint",
          "type": "uint256"
        },
        {
          "internalType": "string",
          "name": "_uri",
          "type": "string"
        },
        {
          "internalType": "uint256",
          "name": "_price",
          "type": "uint256"
        },
        {
          "internalType": "address",
          "name": "_erc777Address",
          "type": "address"
        },
        {
          "internalType": "string",
          "name": "_name",
          "type": "string"
        },
        {
          "internalType": "string",
          "name": "_symbol",
          "type": "string"
        }
      ],
      "stateMutability": "nonpayable",
      "type": "constructor"
    },
    {
      "anonymous": false,
      "inputs": [
        {
          "indexed": true,
          "internalType": "address",
          "name": "owner",
          "type": "address"
        },
        {
          "indexed": true,
          "internalType": "address",
          "name": "approved",
          "type": "address"
        },
        {
          "indexed": true,
          "internalType": "uint256",
          "name": "tokenId",
          "type": "uint256"
        }
      ],
      "name": "Approval",
      "type": "event"
    },
    {
      "anonymous": false,
      "inputs": [
        {
          "indexed": true,
          "internalType": "address",
          "name": "owner",
          "type": "address"
        },
        {
          "indexed": true,
          "internalType": "address",
          "name": "operator",
          "type": "address"
        },
        {
          "indexed": false,
          "internalType": "bool",
          "name": "approved",
          "type": "bool"
        }
      ],
      "name": "ApprovalForAll",
      "type": "event"
    },
    {
      "anonymous": false,
      "inputs": [
        {
          "indexed": true,
          "internalType": "address",
          "name": "from",
          "type": "address"
        },
        {
          "indexed": true,
          "internalType": "address",
          "name": "to",
          "type": "address"
        },
        {
          "indexed": true,
          "internalType": "uint256",
          "name": "tokenId",
          "type": "uint256"
        }
      ],
      "name": "Transfer",
      "type": "event"
    },
    {
      "inputs": [],
      "name": "ItemCounter",
      "outputs": [
        {
          "internalType": "uint256",
          "name": "_value",
          "type": "uint256"
        }
      ],
      "stateMutability": "view",
      "type": "function"
    },
    {
      "inputs": [],
      "name": "account",
      "outputs": [
        {
          "internalType": "address",
          "name": "",
          "type": "address"
        }
      ],
      "stateMutability": "view",
      "type": "function"
    },
    {
      "inputs": [],
      "name": "amount",
      "outputs": [
        {
          "internalType": "uint256",
          "name": "",
          "type": "uint256"
        }
      ],
      "stateMutability": "view",
      "type": "function"
    },
    {
      "inputs": [
        {
          "internalType": "address",
          "name": "to",
          "type": "address"
        },
        {
          "internalType": "uint256",
          "name": "tokenId",
          "type": "uint256"
        }
      ],
      "name": "approve",
      "outputs": [],
      "stateMutability": "nonpayable",
      "type": "function"
    },
    {
      "inputs": [
        {
          "internalType": "address",
          "name": "owner",
          "type": "address"
        }
      ],
      "name": "balanceOf",
      "outputs": [
        {
          "internalType": "uint256",
          "name": "",
          "type": "uint256"
        }
      ],
      "stateMutability": "view",
      "type": "function"
    },
    {
      "inputs": [
        {
          "internalType": "address",
          "name": "",
          "type": "address"
        },
        {
          "internalType": "uint256",
          "name": "",
          "type": "uint256"
        }
      ],
      "name": "benefitsIdByCustomer",
      "outputs": [
        {
          "internalType": "uint256",
          "name": "",
          "type": "uint256"
        }
      ],
      "stateMutability": "view",
      "type": "function"
    },
    {
      "inputs": [
        {
          "internalType": "uint256",
          "name": "_tokenId",
          "type": "uint256"
        }
      ],
      "name": "checkIn",
      "outputs": [
        {
          "internalType": "bool",
          "name": "",
          "type": "bool"
        }
      ],
      "stateMutability": "nonpayable",
      "type": "function"
    },
    {
      "inputs": [],
      "name": "erc777",
      "outputs": [
        {
          "internalType": "contract ERC777",
          "name": "",
          "type": "address"
        }
      ],
      "stateMutability": "view",
      "type": "function"
    },
    {
      "inputs": [
        {
          "internalType": "uint256",
          "name": "tokenId",
          "type": "uint256"
        }
      ],
      "name": "getApproved",
      "outputs": [
        {
          "internalType": "address",
          "name": "",
          "type": "address"
        }
      ],
      "stateMutability": "view",
      "type": "function"
    },
    {
      "inputs": [
        {
          "internalType": "address",
          "name": "_owner",
          "type": "address"
        }
      ],
      "name": "getBenefitsIdsByCustomer",
      "outputs": [
        {
          "internalType": "uint256[]",
          "name": "",
          "type": "uint256[]"
        }
      ],
      "stateMutability": "view",
      "type": "function"
    },
    {
      "inputs": [
        {
          "internalType": "address",
          "name": "owner",
          "type": "address"
        },
        {
          "internalType": "address",
          "name": "operator",
          "type": "address"
        }
      ],
      "name": "isApprovedForAll",
      "outputs": [
        {
          "internalType": "bool",
          "name": "",
          "type": "bool"
        }
      ],
      "stateMutability": "view",
      "type": "function"
    },
    {
      "inputs": [],
      "name": "maxMint",
      "outputs": [
        {
          "internalType": "uint256",
          "name": "",
          "type": "uint256"
        }
      ],
      "stateMutability": "view",
      "type": "function"
    },
    {
      "inputs": [],
      "name": "name",
      "outputs": [
        {
          "internalType": "string",
          "name": "",
          "type": "string"
        }
      ],
      "stateMutability": "view",
      "type": "function"
    },
    {
      "inputs": [
        {
          "internalType": "uint256",
          "name": "tokenId",
          "type": "uint256"
        }
      ],
      "name": "ownerOf",
      "outputs": [
        {
          "internalType": "address",
          "name": "",
          "type": "address"
        }
      ],
      "stateMutability": "view",
      "type": "function"
    },
    {
      "inputs": [],
      "name": "price",
      "outputs": [
        {
          "internalType": "uint256",
          "name": "",
          "type": "uint256"
        }
      ],
      "stateMutability": "view",
      "type": "function"
    },
    {
      "inputs": [
        {
          "internalType": "address",
          "name": "_customer",
          "type": "address"
        },
        {
          "internalType": "uint256",
          "name": "_tokenId",
          "type": "uint256"
        }
      ],
      "name": "redeemBenefit",
      "outputs": [
        {
          "internalType": "bool",
          "name": "",
          "type": "bool"
        }
      ],
      "stateMutability": "nonpayable",
      "type": "function"
    },
    {
      "inputs": [
        {
          "internalType": "address",
          "name": "_tokenAddress",
          "type": "address"
        }
      ],
      "name": "safeMint",
      "outputs": [
        {
          "internalType": "uint256",
          "name": "",
          "type": "uint256"
        }
      ],
      "stateMutability": "nonpayable",
      "type": "function"
    },
    {
      "inputs": [
        {
          "internalType": "address",
          "name": "from",
          "type": "address"
        },
        {
          "internalType": "address",
          "name": "to",
          "type": "address"
        },
        {
          "internalType": "uint256",
          "name": "tokenId",
          "type": "uint256"
        }
      ],
      "name": "safeTransferFrom",
      "outputs": [],
      "stateMutability": "nonpayable",
      "type": "function"
    },
    {
      "inputs": [
        {
          "internalType": "address",
          "name": "from",
          "type": "address"
        },
        {
          "internalType": "address",
          "name": "to",
          "type": "address"
        },
        {
          "internalType": "uint256",
          "name": "tokenId",
          "type": "uint256"
        },
        {
          "internalType": "bytes",
          "name": "data",
          "type": "bytes"
        }
      ],
      "name": "safeTransferFrom",
      "outputs": [],
      "stateMutability": "nonpayable",
      "type": "function"
    },
    {
      "inputs": [
        {
          "internalType": "address",
          "name": "operator",
          "type": "address"
        },
        {
          "internalType": "bool",
          "name": "approved",
          "type": "bool"
        }
      ],
      "name": "setApprovalForAll",
      "outputs": [],
      "stateMutability": "nonpayable",
      "type": "function"
    },
    {
      "inputs": [
        {
          "internalType": "bytes4",
          "name": "interfaceId",
          "type": "bytes4"
        }
      ],
      "name": "supportsInterface",
      "outputs": [
        {
          "internalType": "bool",
          "name": "",
          "type": "bool"
        }
      ],
      "stateMutability": "view",
      "type": "function"
    },
    {
      "inputs": [],
      "name": "symbol",
      "outputs": [
        {
          "internalType": "string",
          "name": "",
          "type": "string"
        }
      ],
      "stateMutability": "view",
      "type": "function"
    },
    {
      "inputs": [],
      "name": "tokenIdCounter",
      "outputs": [
        {
          "internalType": "uint256",
          "name": "_value",
          "type": "uint256"
        }
      ],
      "stateMutability": "view",
      "type": "function"
    },
    {
      "inputs": [
        {
          "internalType": "uint256",
          "name": "tokenId",
          "type": "uint256"
        }
      ],
      "name": "tokenURI",
      "outputs": [
        {
          "internalType": "string",
          "name": "",
          "type": "string"
        }
      ],
      "stateMutability": "view",
      "type": "function"
    },
    {
      "inputs": [
        {
          "internalType": "uint256",
          "name": "",
          "type": "uint256"
        }
      ],
      "name": "tokens",
      "outputs": [
        {
          "internalType": "uint256",
          "name": "id",
          "type": "uint256"
        },
        {
          "internalType": "string",
          "name": "URI",
          "type": "string"
        },
        {
          "internalType": "bool",
          "name": "checkIn",
          "type": "bool"
        },
        {
          "internalType": "bool",
          "name": "redeem",
          "type": "bool"
        },
        {
          "internalType": "address",
          "name": "buyer",
          "type": "address"
        }
      ],
      "stateMutability": "view",
      "type": "function"
    },
    {
      "inputs": [
        {
          "internalType": "address",
          "name": "_operator",
          "type": "address"
        },
        {
          "internalType": "address",
          "name": "_from",
          "type": "address"
        },
        {
          "internalType": "address",
          "name": "_to",
          "type": "address"
        },
        {
          "internalType": "uint256",
          "name": "_amount",
          "type": "uint256"
        },
        {
          "internalType": "bytes",
          "name": "_userData",
          "type": "bytes"
        },
        {
          "internalType": "bytes",
          "name": "_operatorData",
          "type": "bytes"
        }
      ],
      "name": "tokensReceived",
      "outputs": [],
      "stateMutability": "nonpayable",
      "type": "function"
    },
    {
      "inputs": [
        {
          "internalType": "address",
          "name": "from",
          "type": "address"
        },
        {
          "internalType": "address",
          "name": "to",
          "type": "address"
        },
        {
          "internalType": "uint256",
          "name": "tokenId",
          "type": "uint256"
        }
      ],
      "name": "transferFrom",
      "outputs": [],
      "stateMutability": "nonpayable",
      "type": "function"
    },
    {
      "inputs": [],
      "name": "uri",
      "outputs": [
        {
          "internalType": "string",
          "name": "",
          "type": "string"
        }
      ],
      "stateMutability": "view",
      "type": "function"
    },
    {
      "inputs": [],
      "name": "withdrawTokens",
      "outputs": [],
      "stateMutability": "nonpayable",
      "type": "function"
    }
  ],
  "bytecode": "0x60c06040523480156200001157600080fd5b5060405162004d9738038062004d9783398181016040528101906200003791906200058d565b82828281600090816200004b9190620008de565b5080600190816200005d9190620008de565b505050731820a4b7618bde71dce8cdc73aab6c95905fad2473ffffffffffffffffffffffffffffffffffffffff166329965a1d307fb281fc8c12954d22544db45de3159a39272895b169a852b314f9cc762e44c53b306040518463ffffffff1660e01b8152600401620000d393929190620009f1565b600060405180830381600087803b158015620000ee57600080fd5b505af115801562000103573d6000803e3d6000fd5b505050508073ffffffffffffffffffffffffffffffffffffffff1660808173ffffffffffffffffffffffffffffffffffffffff16815250503373ffffffffffffffffffffffffffffffffffffffff1660a08173ffffffffffffffffffffffffffffffffffffffff1681525050506200018b336008620001d360201b620018361790919060201c565b620001a6876009620001d360201b620018361790919060201c565b84600e9081620001b79190620008de565b508360108190555085600f819055505050505050505062000b49565b620001e582826200028660201b60201c565b1562000228576040517f08c379a00000000000000000000000000000000000000000000000000000000081526004016200021f9062000a8f565b60405180910390fd5b60018260000160008373ffffffffffffffffffffffffffffffffffffffff1673ffffffffffffffffffffffffffffffffffffffff16815260200190815260200160002060006101000a81548160ff0219169083151502179055505050565b60008073ffffffffffffffffffffffffffffffffffffffff168273ffffffffffffffffffffffffffffffffffffffff1603620002f9576040517f08c379a0000000000000000000000000000000000000000000000000000000008152600401620002f09062000b27565b60405180910390fd5b8260000160008373ffffffffffffffffffffffffffffffffffffffff1673ffffffffffffffffffffffffffffffffffffffff16815260200190815260200160002060009054906101000a900460ff16905092915050565b6000604051905090565b600080fd5b600080fd5b600073ffffffffffffffffffffffffffffffffffffffff82169050919050565b6000620003918262000364565b9050919050565b620003a38162000384565b8114620003af57600080fd5b50565b600081519050620003c38162000398565b92915050565b6000819050919050565b620003de81620003c9565b8114620003ea57600080fd5b50565b600081519050620003fe81620003d3565b92915050565b600080fd5b600080fd5b6000601f19601f8301169050919050565b7f4e487b7100000000000000000000000000000000000000000000000000000000600052604160045260246000fd5b62000459826200040e565b810181811067ffffffffffffffff821117156200047b576200047a6200041f565b5b80604052505050565b60006200049062000350565b90506200049e82826200044e565b919050565b600067ffffffffffffffff821115620004c157620004c06200041f565b5b620004cc826200040e565b9050602081019050919050565b60005b83811015620004f9578082015181840152602081019050620004dc565b8381111562000509576000848401525b50505050565b6000620005266200052084620004a3565b62000484565b90508281526020810184848401111562000545576200054462000409565b5b62000552848285620004d9565b509392505050565b600082601f83011262000572576200057162000404565b5b8151620005848482602086016200050f565b91505092915050565b600080600080600080600060e0888a031215620005af57620005ae6200035a565b5b6000620005bf8a828b01620003b2565b9750506020620005d28a828b01620003ed565b965050604088015167ffffffffffffffff811115620005f657620005f56200035f565b5b620006048a828b016200055a565b9550506060620006178a828b01620003ed565b94505060806200062a8a828b01620003b2565b93505060a088015167ffffffffffffffff8111156200064e576200064d6200035f565b5b6200065c8a828b016200055a565b92505060c088015167ffffffffffffffff81111562000680576200067f6200035f565b5b6200068e8a828b016200055a565b91505092959891949750929550565b600081519050919050565b7f4e487b7100000000000000000000000000000000000000000000000000000000600052602260045260246000fd5b60006002820490506001821680620006f057607f821691505b602082108103620007065762000705620006a8565b5b50919050565b60008190508160005260206000209050919050565b60006020601f8301049050919050565b600082821b905092915050565b600060088302620007707fffffffffffffffffffffffffffffffffffffffffffffffffffffffffffffffff8262000731565b6200077c868362000731565b95508019841693508086168417925050509392505050565b6000819050919050565b6000620007bf620007b9620007b384620003c9565b62000794565b620003c9565b9050919050565b6000819050919050565b620007db836200079e565b620007f3620007ea82620007c6565b8484546200073e565b825550505050565b600090565b6200080a620007fb565b62000817818484620007d0565b505050565b5b818110156200083f576200083360008262000800565b6001810190506200081d565b5050565b601f8211156200088e5762000858816200070c565b620008638462000721565b8101602085101562000873578190505b6200088b620008828562000721565b8301826200081c565b50505b505050565b600082821c905092915050565b6000620008b36000198460080262000893565b1980831691505092915050565b6000620008ce8383620008a0565b9150826002028217905092915050565b620008e9826200069d565b67ffffffffffffffff8111156200090557620009046200041f565b5b620009118254620006d7565b6200091e82828562000843565b600060209050601f83116001811462000956576000841562000941578287015190505b6200094d8582620008c0565b865550620009bd565b601f19841662000966866200070c565b60005b82811015620009905784890151825560018201915060208501945060208101905062000969565b86831015620009b05784890151620009ac601f891682620008a0565b8355505b6001600288020188555050505b505050505050565b620009d08162000384565b82525050565b6000819050919050565b620009eb81620009d6565b82525050565b600060608201905062000a086000830186620009c5565b62000a176020830185620009e0565b62000a266040830184620009c5565b949350505050565b600082825260208201905092915050565b7f526f6c65733a206163636f756e7420616c72656164792068617320726f6c6500600082015250565b600062000a77601f8362000a2e565b915062000a848262000a3f565b602082019050919050565b6000602082019050818103600083015262000aaa8162000a68565b9050919050565b7f526f6c65733a206163636f756e7420697320746865207a65726f20616464726560008201527f7373000000000000000000000000000000000000000000000000000000000000602082015250565b600062000b0f60228362000a2e565b915062000b1c8262000ab1565b604082019050919050565b6000602082019050818103600083015262000b428162000b00565b9050919050565b60805160a05161421362000b8460003960008181610f8001526111120152600081816111e50152818161131e0152611d7501526142136000f3fe608060405234801561001057600080fd5b50600436106101ce5760003560e01c80637501f74111610104578063aa8c217c116100a2578063e95a644f11610071578063e95a644f14610559578063e985e9c514610589578063eac989f8146105b9578063f958aada146105d7576101ce565b8063aa8c217c146104bf578063b88d4fde146104dd578063c87b56dd146104f9578063cef073cb14610529576101ce565b806398bdf6f5116100de57806398bdf6f5146104495780639e8e4d1d14610467578063a035b1fe14610485578063a22cb465146104a3576101ce565b80637501f741146104035780638d8f2adb1461042157806395d89b411461042b576101ce565b806340d097c31161017157806355cfab221161014b57806355cfab22146103555780635dab2420146103855780636352211e146103a357806370a08231146103d3576101ce565b806340d097c3146102d557806342842e0e146103055780634f64b2be14610321576101ce565b8063081812fc116101ad578063081812fc1461023d578063095ea7b31461026d5780630e1443671461028957806323b872dd146102b9576101ce565b806223de29146101d357806301ffc9a7146101ef57806306fdde031461021f575b600080fd5b6101ed60048036038101906101e89190612878565b6105f5565b005b6102096004803603810190610204919061299f565b610618565b60405161021691906129e7565b60405180910390f35b6102276106fa565b6040516102349190612a9b565b60405180910390f35b61025760048036038101906102529190612abd565b61078c565b6040516102649190612af9565b60405180910390f35b61028760048036038101906102829190612b14565b6107d2565b005b6102a3600480360381019061029e9190612b14565b6108e9565b6040516102b09190612b63565b60405180910390f35b6102d360048036038101906102ce9190612b7e565b61091a565b005b6102ef60048036038101906102ea9190612bd1565b61097a565b6040516102fc9190612b63565b60405180910390f35b61031f600480360381019061031a9190612b7e565b610dcf565b005b61033b60048036038101906103369190612abd565b610def565b60405161034c959493929190612bfe565b60405180910390f35b61036f600480360381019061036a9190612bd1565b610ee7565b60405161037c9190612d16565b60405180910390f35b61038d610f7e565b60405161039a9190612af9565b60405180910390f35b6103bd60048036038101906103b89190612abd565b610fa2565b6040516103ca9190612af9565b60405180910390f35b6103ed60048036038101906103e89190612bd1565b611053565b6040516103fa9190612b63565b60405180910390f35b61040b61110a565b6040516104189190612b63565b60405180910390f35b610429611110565b005b61043361127e565b6040516104409190612a9b565b60405180910390f35b610451611310565b60405161045e9190612b63565b60405180910390f35b61046f61131c565b60405161047c9190612d97565b60405180910390f35b61048d611340565b60405161049a9190612b63565b60405180910390f35b6104bd60048036038101906104b89190612dde565b611346565b005b6104c761135c565b6040516104d49190612b63565b60405180910390f35b6104f760048036038101906104f29190612f4e565b611362565b005b610513600480360381019061050e9190612abd565b6113c4565b6040516105209190612a9b565b60405180910390f35b610543600480360381019061053e9190612b14565b6114d6565b60405161055091906129e7565b60405180910390f35b610573600480360381019061056e9190612abd565b611642565b60405161058091906129e7565b60405180910390f35b6105a3600480360381019061059e9190612fd1565b611708565b6040516105b091906129e7565b60405180910390f35b6105c161179c565b6040516105ce9190612a9b565b60405180910390f35b6105df61182a565b6040516105ec9190612b63565b60405180910390f35b84600760008282546106079190613040565b925050819055505050505050505050565b60007f80ac58cd000000000000000000000000000000000000000000000000000000007bffffffffffffffffffffffffffffffffffffffffffffffffffffffff1916827bffffffffffffffffffffffffffffffffffffffffffffffffffffffff191614806106e357507f5b5e139f000000000000000000000000000000000000000000000000000000007bffffffffffffffffffffffffffffffffffffffffffffffffffffffff1916827bffffffffffffffffffffffffffffffffffffffffffffffffffffffff1916145b806106f357506106f2826118de565b5b9050919050565b606060008054610709906130c5565b80601f0160208091040260200160405190810160405280929190818152602001828054610735906130c5565b80156107825780601f1061075757610100808354040283529160200191610782565b820191906000526020600020905b81548152906001019060200180831161076557829003601f168201915b5050505050905090565b600061079782611948565b6004600083815260200190815260200160002060009054906101000a900473ffffffffffffffffffffffffffffffffffffffff169050919050565b60006107dd82610fa2565b90508073ffffffffffffffffffffffffffffffffffffffff168373ffffffffffffffffffffffffffffffffffffffff160361084d576040517f08c379a000000000000000000000000000000000000000000000000000000000815260040161084490613168565b60405180910390fd5b8073ffffffffffffffffffffffffffffffffffffffff1661086c611993565b73ffffffffffffffffffffffffffffffffffffffff16148061089b575061089a81610895611993565b611708565b5b6108da576040517f08c379a00000000000000000000000000000000000000000000000000000000081526004016108d1906131fa565b60405180910390fd5b6108e4838361199b565b505050565b600d602052816000526040600020818154811061090557600080fd5b90600052602060002001600091509150505481565b61092b610925611993565b82611a54565b61096a576040517f08c379a00000000000000000000000000000000000000000000000000000000081526004016109619061328c565b60405180910390fd5b610975838383611ae9565b505050565b6000600f54610989600b611d4f565b106109c9576040517f08c379a00000000000000000000000000000000000000000000000000000000081526004016109c0906132f8565b60405180910390fd5b6010548273ffffffffffffffffffffffffffffffffffffffff1663f38e266a336040518263ffffffff1660e01b8152600401610a059190612af9565b602060405180830381865afa158015610a22573d6000803e3d6000fd5b505050506040513d601f19601f82011682018060405250810190610a46919061332d565b11610a86576040517f08c379a0000000000000000000000000000000000000000000000000000000008152600401610a7d906133a6565b60405180910390fd5b8173ffffffffffffffffffffffffffffffffffffffff166325e8e00c336010546040518363ffffffff1660e01b8152600401610ac39291906133c6565b6020604051808303816000875af1158015610ae2573d6000803e3d6000fd5b505050506040513d601f19601f82011682018060405250810190610b069190613404565b610b0f57600080fd5b6000610b1b600b611d4f565b9050610b27600b611d5d565b60006040518060a00160405280838152602001600e8054610b47906130c5565b80601f0160208091040260200160405190810160405280929190818152602001828054610b73906130c5565b8015610bc05780601f10610b9557610100808354040283529160200191610bc0565b820191906000526020600020905b815481529060010190602001808311610ba357829003601f168201915b505050505081526020016000151581526020016000151581526020013373ffffffffffffffffffffffffffffffffffffffff16815250905080600c6000848152602001908152602001600020600082015181600001556020820151816001019081610c2b91906135d3565b5060408201518160020160006101000a81548160ff02191690831515021790555060608201518160020160016101000a81548160ff02191690831515021790555060808201518160020160026101000a81548173ffffffffffffffffffffffffffffffffffffffff021916908373ffffffffffffffffffffffffffffffffffffffff160217905550905050600d60003373ffffffffffffffffffffffffffffffffffffffff1673ffffffffffffffffffffffffffffffffffffffff168152602001908152602001600020829080600181540180825580915050600190039060005260206000200160009091909190915055610d27601054611d73565b610d313383611e1e565b610dc582600e8054610d42906130c5565b80601f0160208091040260200160405190810160405280929190818152602001828054610d6e906130c5565b8015610dbb5780601f10610d9057610100808354040283529160200191610dbb565b820191906000526020600020905b815481529060010190602001808311610d9e57829003601f168201915b5050505050611e3c565b8192505050919050565b610dea83838360405180602001604052806000815250611362565b505050565b600c602052806000526040600020600091509050806000015490806001018054610e18906130c5565b80601f0160208091040260200160405190810160405280929190818152602001828054610e44906130c5565b8015610e915780601f10610e6657610100808354040283529160200191610e91565b820191906000526020600020905b815481529060010190602001808311610e7457829003601f168201915b5050505050908060020160009054906101000a900460ff16908060020160019054906101000a900460ff16908060020160029054906101000a900473ffffffffffffffffffffffffffffffffffffffff16905085565b6060600d60008373ffffffffffffffffffffffffffffffffffffffff1673ffffffffffffffffffffffffffffffffffffffff168152602001908152602001600020805480602002602001604051908101604052809291908181526020018280548015610f7257602002820191906000526020600020905b815481526020019060010190808311610f5e575b50505050509050919050565b7f000000000000000000000000000000000000000000000000000000000000000081565b6000806002600084815260200190815260200160002060009054906101000a900473ffffffffffffffffffffffffffffffffffffffff169050600073ffffffffffffffffffffffffffffffffffffffff168173ffffffffffffffffffffffffffffffffffffffff160361104a576040517f08c379a0000000000000000000000000000000000000000000000000000000008152600401611041906136f1565b60405180910390fd5b80915050919050565b60008073ffffffffffffffffffffffffffffffffffffffff168273ffffffffffffffffffffffffffffffffffffffff16036110c3576040517f08c379a00000000000000000000000000000000000000000000000000000000081526004016110ba90613783565b60405180910390fd5b600360008373ffffffffffffffffffffffffffffffffffffffff1673ffffffffffffffffffffffffffffffffffffffff168152602001908152602001600020549050919050565b600f5481565b7f000000000000000000000000000000000000000000000000000000000000000073ffffffffffffffffffffffffffffffffffffffff163373ffffffffffffffffffffffffffffffffffffffff161461119e576040517f08c379a000000000000000000000000000000000000000000000000000000000815260040161119590613815565b60405180910390fd5b6000600754116111e3576040517f08c379a00000000000000000000000000000000000000000000000000000000081526004016111da90613881565b60405180910390fd5b7f000000000000000000000000000000000000000000000000000000000000000073ffffffffffffffffffffffffffffffffffffffff166362ad1b8330336007546040518463ffffffff1660e01b8152600401611242939291906138d8565b600060405180830381600087803b15801561125c57600080fd5b505af1158015611270573d6000803e3d6000fd5b505050506000600781905550565b60606001805461128d906130c5565b80601f01602080910402602001604051908101604052809291908181526020018280546112b9906130c5565b80156113065780601f106112db57610100808354040283529160200191611306565b820191906000526020600020905b8154815290600101906020018083116112e957829003601f168201915b5050505050905090565b600b8060000154905081565b7f000000000000000000000000000000000000000000000000000000000000000081565b60105481565b611358611351611993565b8383611ea9565b5050565b60075481565b61137361136d611993565b83611a54565b6113b2576040517f08c379a00000000000000000000000000000000000000000000000000000000081526004016113a99061328c565b60405180910390fd5b6113be84848484612015565b50505050565b60606113cf82611948565b60006006600084815260200190815260200160002080546113ef906130c5565b80601f016020809104026020016040519081016040528092919081815260200182805461141b906130c5565b80156114685780601f1061143d57610100808354040283529160200191611468565b820191906000526020600020905b81548152906001019060200180831161144b57829003601f168201915b505050505090506000611479612071565b9050600081510361148e5781925050506114d1565b6000825111156114c35780826040516020016114ab929190613971565b604051602081830303815290604052925050506114d1565b6114cc84612088565b925050505b919050565b60006114ec3360096120f090919063ffffffff16565b8061150757506115063360086120f090919063ffffffff16565b5b611546576040517f08c379a000000000000000000000000000000000000000000000000000000000815260040161153d906139e1565b60405180910390fd5b8161155084611053565b14611590576040517f08c379a000000000000000000000000000000000000000000000000000000000815260040161158790613a4d565b60405180910390fd5b600c600083815260200190815260200160002060020160009054906101000a900460ff166115f3576040517f08c379a00000000000000000000000000000000000000000000000000000000081526004016115ea90613ab9565b60405180910390fd5b6000600c6000848152602001908152602001600020905060018160020160016101000a81548160ff0219169083151502179055508060020160019054906101000a900460ff1691505092915050565b60003373ffffffffffffffffffffffffffffffffffffffff1661166483610fa2565b73ffffffffffffffffffffffffffffffffffffffff16146116ba576040517f08c379a00000000000000000000000000000000000000000000000000000000081526004016116b190613b25565b60405180910390fd5b6000600c6000848152602001908152602001600020905060018160020160006101000a81548160ff0219169083151502179055508060020160009054906101000a900460ff16915050919050565b6000600560008473ffffffffffffffffffffffffffffffffffffffff1673ffffffffffffffffffffffffffffffffffffffff16815260200190815260200160002060008373ffffffffffffffffffffffffffffffffffffffff1673ffffffffffffffffffffffffffffffffffffffff16815260200190815260200160002060009054906101000a900460ff16905092915050565b600e80546117a9906130c5565b80601f01602080910402602001604051908101604052809291908181526020018280546117d5906130c5565b80156118225780601f106117f757610100808354040283529160200191611822565b820191906000526020600020905b81548152906001019060200180831161180557829003601f168201915b505050505081565b600a8060000154905081565b61184082826120f0565b15611880576040517f08c379a000000000000000000000000000000000000000000000000000000000815260040161187790613b91565b60405180910390fd5b60018260000160008373ffffffffffffffffffffffffffffffffffffffff1673ffffffffffffffffffffffffffffffffffffffff16815260200190815260200160002060006101000a81548160ff0219169083151502179055505050565b60007f01ffc9a7000000000000000000000000000000000000000000000000000000007bffffffffffffffffffffffffffffffffffffffffffffffffffffffff1916827bffffffffffffffffffffffffffffffffffffffffffffffffffffffff1916149050919050565b611951816121b7565b611990576040517f08c379a0000000000000000000000000000000000000000000000000000000008152600401611987906136f1565b60405180910390fd5b50565b600033905090565b816004600083815260200190815260200160002060006101000a81548173ffffffffffffffffffffffffffffffffffffffff021916908373ffffffffffffffffffffffffffffffffffffffff160217905550808273ffffffffffffffffffffffffffffffffffffffff16611a0e83610fa2565b73ffffffffffffffffffffffffffffffffffffffff167f8c5be1e5ebec7d5bd14f71427d1e84f3dd0314c0f7b2291e5b200ac8c7c3b92560405160405180910390a45050565b600080611a6083610fa2565b90508073ffffffffffffffffffffffffffffffffffffffff168473ffffffffffffffffffffffffffffffffffffffff161480611aa25750611aa18185611708565b5b80611ae057508373ffffffffffffffffffffffffffffffffffffffff16611ac88461078c565b73ffffffffffffffffffffffffffffffffffffffff16145b91505092915050565b8273ffffffffffffffffffffffffffffffffffffffff16611b0982610fa2565b73ffffffffffffffffffffffffffffffffffffffff1614611b5f576040517f08c379a0000000000000000000000000000000000000000000000000000000008152600401611b5690613c23565b60405180910390fd5b600073ffffffffffffffffffffffffffffffffffffffff168273ffffffffffffffffffffffffffffffffffffffff1603611bce576040517f08c379a0000000000000000000000000000000000000000000000000000000008152600401611bc590613cb5565b60405180910390fd5b611bd9838383612223565b611be460008261199b565b6001600360008573ffffffffffffffffffffffffffffffffffffffff1673ffffffffffffffffffffffffffffffffffffffff1681526020019081526020016000206000828254611c349190613cd5565b925050819055506001600360008473ffffffffffffffffffffffffffffffffffffffff1673ffffffffffffffffffffffffffffffffffffffff1681526020019081526020016000206000828254611c8b9190613040565b92505081905550816002600083815260200190815260200160002060006101000a81548173ffffffffffffffffffffffffffffffffffffffff021916908373ffffffffffffffffffffffffffffffffffffffff160217905550808273ffffffffffffffffffffffffffffffffffffffff168473ffffffffffffffffffffffffffffffffffffffff167fddf252ad1be2c89b69c2b068fc378daa952ba7f163c4a11628f55a4df523b3ef60405160405180910390a4611d4a838383612228565b505050565b600081600001549050919050565b6001816000016000828254019250508190555050565b7f000000000000000000000000000000000000000000000000000000000000000073ffffffffffffffffffffffffffffffffffffffff166362ad1b833330846040518463ffffffff1660e01b8152600401611dd0939291906138d8565b600060405180830381600087803b158015611dea57600080fd5b505af1158015611dfe573d6000803e3d6000fd5b505050508060076000828254611e149190613040565b9250508190555050565b611e3882826040518060200160405280600081525061222d565b5050565b611e45826121b7565b611e84576040517f08c379a0000000000000000000000000000000000000000000000000000000008152600401611e7b90613d7b565b60405180910390fd5b80600660008481526020019081526020016000209081611ea491906135d3565b505050565b8173ffffffffffffffffffffffffffffffffffffffff168373ffffffffffffffffffffffffffffffffffffffff1603611f17576040517f08c379a0000000000000000000000000000000000000000000000000000000008152600401611f0e90613de7565b60405180910390fd5b80600560008573ffffffffffffffffffffffffffffffffffffffff1673ffffffffffffffffffffffffffffffffffffffff16815260200190815260200160002060008473ffffffffffffffffffffffffffffffffffffffff1673ffffffffffffffffffffffffffffffffffffffff16815260200190815260200160002060006101000a81548160ff0219169083151502179055508173ffffffffffffffffffffffffffffffffffffffff168373ffffffffffffffffffffffffffffffffffffffff167f17307eab39ab6107e8899845ad3d59bd9653f200f220920489ca2b5937696c318360405161200891906129e7565b60405180910390a3505050565b612020848484611ae9565b61202c84848484612288565b61206b576040517f08c379a000000000000000000000000000000000000000000000000000000000815260040161206290613e79565b60405180910390fd5b50505050565b606060405180602001604052806000815250905090565b606061209382611948565b600061209d612071565b905060008151116120bd57604051806020016040528060008152506120e8565b806120c78461240f565b6040516020016120d8929190613971565b6040516020818303038152906040525b915050919050565b60008073ffffffffffffffffffffffffffffffffffffffff168273ffffffffffffffffffffffffffffffffffffffff1603612160576040517f08c379a000000000000000000000000000000000000000000000000000000000815260040161215790613f0b565b60405180910390fd5b8260000160008373ffffffffffffffffffffffffffffffffffffffff1673ffffffffffffffffffffffffffffffffffffffff16815260200190815260200160002060009054906101000a900460ff16905092915050565b60008073ffffffffffffffffffffffffffffffffffffffff166002600084815260200190815260200160002060009054906101000a900473ffffffffffffffffffffffffffffffffffffffff1673ffffffffffffffffffffffffffffffffffffffff1614159050919050565b505050565b505050565b612237838361256f565b6122446000848484612288565b612283576040517f08c379a000000000000000000000000000000000000000000000000000000000815260040161227a90613e79565b60405180910390fd5b505050565b60006122a98473ffffffffffffffffffffffffffffffffffffffff16612748565b15612402578373ffffffffffffffffffffffffffffffffffffffff1663150b7a026122d2611993565b8786866040518563ffffffff1660e01b81526004016122f49493929190613f6f565b6020604051808303816000875af192505050801561233057506040513d601f19601f8201168201806040525081019061232d9190613fd0565b60015b6123b2573d8060008114612360576040519150601f19603f3d011682016040523d82523d6000602084013e612365565b606091505b5060008151036123aa576040517f08c379a00000000000000000000000000000000000000000000000000000000081526004016123a190613e79565b60405180910390fd5b805181602001fd5b63150b7a0260e01b7bffffffffffffffffffffffffffffffffffffffffffffffffffffffff1916817bffffffffffffffffffffffffffffffffffffffffffffffffffffffff191614915050612407565b600190505b949350505050565b606060008203612456576040518060400160405280600181526020017f3000000000000000000000000000000000000000000000000000000000000000815250905061256a565b600082905060005b6000821461248857808061247190613ffd565b915050600a826124819190614074565b915061245e565b60008167ffffffffffffffff8111156124a4576124a3612e23565b5b6040519080825280601f01601f1916602001820160405280156124d65781602001600182028036833780820191505090505b5090505b60008514612563576001826124ef9190613cd5565b9150600a856124fe91906140a5565b603061250a9190613040565b60f81b8183815181106125205761251f6140d6565b5b60200101907effffffffffffffffffffffffffffffffffffffffffffffffffffffffffffff1916908160001a905350600a8561255c9190614074565b94506124da565b8093505050505b919050565b600073ffffffffffffffffffffffffffffffffffffffff168273ffffffffffffffffffffffffffffffffffffffff16036125de576040517f08c379a00000000000000000000000000000000000000000000000000000000081526004016125d590614151565b60405180910390fd5b6125e7816121b7565b15612627576040517f08c379a000000000000000000000000000000000000000000000000000000000815260040161261e906141bd565b60405180910390fd5b61263360008383612223565b6001600360008473ffffffffffffffffffffffffffffffffffffffff1673ffffffffffffffffffffffffffffffffffffffff16815260200190815260200160002060008282546126839190613040565b92505081905550816002600083815260200190815260200160002060006101000a81548173ffffffffffffffffffffffffffffffffffffffff021916908373ffffffffffffffffffffffffffffffffffffffff160217905550808273ffffffffffffffffffffffffffffffffffffffff16600073ffffffffffffffffffffffffffffffffffffffff167fddf252ad1be2c89b69c2b068fc378daa952ba7f163c4a11628f55a4df523b3ef60405160405180910390a461274460008383612228565b5050565b6000808273ffffffffffffffffffffffffffffffffffffffff163b119050919050565b6000604051905090565b600080fd5b600080fd5b600073ffffffffffffffffffffffffffffffffffffffff82169050919050565b60006127aa8261277f565b9050919050565b6127ba8161279f565b81146127c557600080fd5b50565b6000813590506127d7816127b1565b92915050565b6000819050919050565b6127f0816127dd565b81146127fb57600080fd5b50565b60008135905061280d816127e7565b92915050565b600080fd5b600080fd5b600080fd5b60008083601f84011261283857612837612813565b5b8235905067ffffffffffffffff81111561285557612854612818565b5b6020830191508360018202830111156128715761287061281d565b5b9250929050565b60008060008060008060008060c0898b03121561289857612897612775565b5b60006128a68b828c016127c8565b98505060206128b78b828c016127c8565b97505060406128c88b828c016127c8565b96505060606128d98b828c016127fe565b955050608089013567ffffffffffffffff8111156128fa576128f961277a565b5b6129068b828c01612822565b945094505060a089013567ffffffffffffffff8111156129295761292861277a565b5b6129358b828c01612822565b92509250509295985092959890939650565b60007fffffffff0000000000000000000000000000000000000000000000000000000082169050919050565b61297c81612947565b811461298757600080fd5b50565b60008135905061299981612973565b92915050565b6000602082840312156129b5576129b4612775565b5b60006129c38482850161298a565b91505092915050565b60008115159050919050565b6129e1816129cc565b82525050565b60006020820190506129fc60008301846129d8565b92915050565b600081519050919050565b600082825260208201905092915050565b60005b83811015612a3c578082015181840152602081019050612a21565b83811115612a4b576000848401525b50505050565b6000601f19601f8301169050919050565b6000612a6d82612a02565b612a778185612a0d565b9350612a87818560208601612a1e565b612a9081612a51565b840191505092915050565b60006020820190508181036000830152612ab58184612a62565b905092915050565b600060208284031215612ad357612ad2612775565b5b6000612ae1848285016127fe565b91505092915050565b612af38161279f565b82525050565b6000602082019050612b0e6000830184612aea565b92915050565b60008060408385031215612b2b57612b2a612775565b5b6000612b39858286016127c8565b9250506020612b4a858286016127fe565b9150509250929050565b612b5d816127dd565b82525050565b6000602082019050612b786000830184612b54565b92915050565b600080600060608486031215612b9757612b96612775565b5b6000612ba5868287016127c8565b9350506020612bb6868287016127c8565b9250506040612bc7868287016127fe565b9150509250925092565b600060208284031215612be757612be6612775565b5b6000612bf5848285016127c8565b91505092915050565b600060a082019050612c136000830188612b54565b8181036020830152612c258187612a62565b9050612c3460408301866129d8565b612c4160608301856129d8565b612c4e6080830184612aea565b9695505050505050565b600081519050919050565b600082825260208201905092915050565b6000819050602082019050919050565b612c8d816127dd565b82525050565b6000612c9f8383612c84565b60208301905092915050565b6000602082019050919050565b6000612cc382612c58565b612ccd8185612c63565b9350612cd883612c74565b8060005b83811015612d09578151612cf08882612c93565b9750612cfb83612cab565b925050600181019050612cdc565b5085935050505092915050565b60006020820190508181036000830152612d308184612cb8565b905092915050565b6000819050919050565b6000612d5d612d58612d538461277f565b612d38565b61277f565b9050919050565b6000612d6f82612d42565b9050919050565b6000612d8182612d64565b9050919050565b612d9181612d76565b82525050565b6000602082019050612dac6000830184612d88565b92915050565b612dbb816129cc565b8114612dc657600080fd5b50565b600081359050612dd881612db2565b92915050565b60008060408385031215612df557612df4612775565b5b6000612e03858286016127c8565b9250506020612e1485828601612dc9565b9150509250929050565b600080fd5b7f4e487b7100000000000000000000000000000000000000000000000000000000600052604160045260246000fd5b612e5b82612a51565b810181811067ffffffffffffffff82111715612e7a57612e79612e23565b5b80604052505050565b6000612e8d61276b565b9050612e998282612e52565b919050565b600067ffffffffffffffff821115612eb957612eb8612e23565b5b612ec282612a51565b9050602081019050919050565b82818337600083830152505050565b6000612ef1612eec84612e9e565b612e83565b905082815260208101848484011115612f0d57612f0c612e1e565b5b612f18848285612ecf565b509392505050565b600082601f830112612f3557612f34612813565b5b8135612f45848260208601612ede565b91505092915050565b60008060008060808587031215612f6857612f67612775565b5b6000612f76878288016127c8565b9450506020612f87878288016127c8565b9350506040612f98878288016127fe565b925050606085013567ffffffffffffffff811115612fb957612fb861277a565b5b612fc587828801612f20565b91505092959194509250565b60008060408385031215612fe857612fe7612775565b5b6000612ff6858286016127c8565b9250506020613007858286016127c8565b9150509250929050565b7f4e487b7100000000000000000000000000000000000000000000000000000000600052601160045260246000fd5b600061304b826127dd565b9150613056836127dd565b9250827fffffffffffffffffffffffffffffffffffffffffffffffffffffffffffffffff0382111561308b5761308a613011565b5b828201905092915050565b7f4e487b7100000000000000000000000000000000000000000000000000000000600052602260045260246000fd5b600060028204905060018216806130dd57607f821691505b6020821081036130f0576130ef613096565b5b50919050565b7f4552433732313a20617070726f76616c20746f2063757272656e74206f776e6560008201527f7200000000000000000000000000000000000000000000000000000000000000602082015250565b6000613152602183612a0d565b915061315d826130f6565b604082019050919050565b6000602082019050818103600083015261318181613145565b9050919050565b7f4552433732313a20617070726f76652063616c6c6572206973206e6f7420746f60008201527f6b656e206f776e6572206e6f7220617070726f76656420666f7220616c6c0000602082015250565b60006131e4603e83612a0d565b91506131ef82613188565b604082019050919050565b60006020820190508181036000830152613213816131d7565b9050919050565b7f4552433732313a2063616c6c6572206973206e6f7420746f6b656e206f776e6560008201527f72206e6f7220617070726f766564000000000000000000000000000000000000602082015250565b6000613276602e83612a0d565b91506132818261321a565b604082019050919050565b600060208201905081810360008301526132a581613269565b9050919050565b7f4d696e74206c696d697420636f6d706c65746564000000000000000000000000600082015250565b60006132e2601483612a0d565b91506132ed826132ac565b602082019050919050565b60006020820190508181036000830152613311816132d5565b9050919050565b600081519050613327816127e7565b92915050565b60006020828403121561334357613342612775565b5b600061335184828501613318565b91505092915050565b7f496e73756666696369656e7420746f6b656e7300000000000000000000000000600082015250565b6000613390601383612a0d565b915061339b8261335a565b602082019050919050565b600060208201905081810360008301526133bf81613383565b9050919050565b60006040820190506133db6000830185612aea565b6133e86020830184612b54565b9392505050565b6000815190506133fe81612db2565b92915050565b60006020828403121561341a57613419612775565b5b6000613428848285016133ef565b91505092915050565b60008190508160005260206000209050919050565b60006020601f8301049050919050565b600082821b905092915050565b6000600883026134937fffffffffffffffffffffffffffffffffffffffffffffffffffffffffffffffff82613456565b61349d8683613456565b95508019841693508086168417925050509392505050565b60006134d06134cb6134c6846127dd565b612d38565b6127dd565b9050919050565b6000819050919050565b6134ea836134b5565b6134fe6134f6826134d7565b848454613463565b825550505050565b600090565b613513613506565b61351e8184846134e1565b505050565b5b818110156135425761353760008261350b565b600181019050613524565b5050565b601f8211156135875761355881613431565b61356184613446565b81016020851015613570578190505b61358461357c85613446565b830182613523565b50505b505050565b600082821c905092915050565b60006135aa6000198460080261358c565b1980831691505092915050565b60006135c38383613599565b9150826002028217905092915050565b6135dc82612a02565b67ffffffffffffffff8111156135f5576135f4612e23565b5b6135ff82546130c5565b61360a828285613546565b600060209050601f83116001811461363d576000841561362b578287015190505b61363585826135b7565b86555061369d565b601f19841661364b86613431565b60005b828110156136735784890151825560018201915060208501945060208101905061364e565b86831015613690578489015161368c601f891682613599565b8355505b6001600288020188555050505b505050505050565b7f4552433732313a20696e76616c696420746f6b656e2049440000000000000000600082015250565b60006136db601883612a0d565b91506136e6826136a5565b602082019050919050565b6000602082019050818103600083015261370a816136ce565b9050919050565b7f4552433732313a2061646472657373207a65726f206973206e6f74206120766160008201527f6c6964206f776e65720000000000000000000000000000000000000000000000602082015250565b600061376d602983612a0d565b915061377882613711565b604082019050919050565b6000602082019050818103600083015261379c81613760565b9050919050565b7f4d61726b6574506c616365436f6e74726163743a2063616c6c6572206973206e60008201527f6f7420746865206f776e65720000000000000000000000000000000000000000602082015250565b60006137ff602c83612a0d565b915061380a826137a3565b604082019050919050565b6000602082019050818103600083015261382e816137f2565b9050919050565b7f546865726520646f6e277420626520746f6b656e730000000000000000000000600082015250565b600061386b601583612a0d565b915061387682613835565b602082019050919050565b6000602082019050818103600083015261389a8161385e565b9050919050565b600082825260208201905092915050565b50565b60006138c26000836138a1565b91506138cd826138b2565b600082019050919050565b600060a0820190506138ed6000830186612aea565b6138fa6020830185612aea565b6139076040830184612b54565b8181036060830152613918816138b5565b9050818103608083015261392b816138b5565b9050949350505050565b600081905092915050565b600061394b82612a02565b6139558185613935565b9350613965818560208601612a1e565b80840191505092915050565b600061397d8285613940565b91506139898284613940565b91508190509392505050565b7f444f45535f4e4f545f484156455f4d494e5445525f524f4c4500000000000000600082015250565b60006139cb601983612a0d565b91506139d682613995565b602082019050919050565b600060208201905081810360008301526139fa816139be565b9050919050565b7f5468697320746f6b656e20646f65736e277420796f7572000000000000000000600082015250565b6000613a37601783612a0d565b9150613a4282613a01565b602082019050919050565b60006020820190508181036000830152613a6681613a2a565b9050919050565b7f596f75206e65656420746f20646f20636865636b2d696e000000000000000000600082015250565b6000613aa3601783612a0d565b9150613aae82613a6d565b602082019050919050565b60006020820190508181036000830152613ad281613a96565b9050919050565b7f596f7520617265206e6f7420746865206f776e6572206f6620746865204e4654600082015250565b6000613b0f602083612a0d565b9150613b1a82613ad9565b602082019050919050565b60006020820190508181036000830152613b3e81613b02565b9050919050565b7f526f6c65733a206163636f756e7420616c72656164792068617320726f6c6500600082015250565b6000613b7b601f83612a0d565b9150613b8682613b45565b602082019050919050565b60006020820190508181036000830152613baa81613b6e565b9050919050565b7f4552433732313a207472616e736665722066726f6d20696e636f72726563742060008201527f6f776e6572000000000000000000000000000000000000000000000000000000602082015250565b6000613c0d602583612a0d565b9150613c1882613bb1565b604082019050919050565b60006020820190508181036000830152613c3c81613c00565b9050919050565b7f4552433732313a207472616e7366657220746f20746865207a65726f2061646460008201527f7265737300000000000000000000000000000000000000000000000000000000602082015250565b6000613c9f602483612a0d565b9150613caa82613c43565b604082019050919050565b60006020820190508181036000830152613cce81613c92565b9050919050565b6000613ce0826127dd565b9150613ceb836127dd565b925082821015613cfe57613cfd613011565b5b828203905092915050565b7f45524337323155524953746f726167653a2055524920736574206f66206e6f6e60008201527f6578697374656e7420746f6b656e000000000000000000000000000000000000602082015250565b6000613d65602e83612a0d565b9150613d7082613d09565b604082019050919050565b60006020820190508181036000830152613d9481613d58565b9050919050565b7f4552433732313a20617070726f766520746f2063616c6c657200000000000000600082015250565b6000613dd1601983612a0d565b9150613ddc82613d9b565b602082019050919050565b60006020820190508181036000830152613e0081613dc4565b9050919050565b7f4552433732313a207472616e7366657220746f206e6f6e20455243373231526560008201527f63656976657220696d706c656d656e7465720000000000000000000000000000602082015250565b6000613e63603283612a0d565b9150613e6e82613e07565b604082019050919050565b60006020820190508181036000830152613e9281613e56565b9050919050565b7f526f6c65733a206163636f756e7420697320746865207a65726f20616464726560008201527f7373000000000000000000000000000000000000000000000000000000000000602082015250565b6000613ef5602283612a0d565b9150613f0082613e99565b604082019050919050565b60006020820190508181036000830152613f2481613ee8565b9050919050565b600081519050919050565b6000613f4182613f2b565b613f4b81856138a1565b9350613f5b818560208601612a1e565b613f6481612a51565b840191505092915050565b6000608082019050613f846000830187612aea565b613f916020830186612aea565b613f9e6040830185612b54565b8181036060830152613fb08184613f36565b905095945050505050565b600081519050613fca81612973565b92915050565b600060208284031215613fe657613fe5612775565b5b6000613ff484828501613fbb565b91505092915050565b6000614008826127dd565b91507fffffffffffffffffffffffffffffffffffffffffffffffffffffffffffffffff820361403a57614039613011565b5b600182019050919050565b7f4e487b7100000000000000000000000000000000000000000000000000000000600052601260045260246000fd5b600061407f826127dd565b915061408a836127dd565b92508261409a57614099614045565b5b828204905092915050565b60006140b0826127dd565b91506140bb836127dd565b9250826140cb576140ca614045565b5b828206905092915050565b7f4e487b7100000000000000000000000000000000000000000000000000000000600052603260045260246000fd5b7f4552433732313a206d696e7420746f20746865207a65726f2061646472657373600082015250565b600061413b602083612a0d565b915061414682614105565b602082019050919050565b6000602082019050818103600083015261416a8161412e565b9050919050565b7f4552433732313a20746f6b656e20616c7265616479206d696e74656400000000600082015250565b60006141a7601c83612a0d565b91506141b282614171565b602082019050919050565b600060208201905081810360008301526141d68161419a565b905091905056fea264697066735822122009a3c6aeb1ec460e76af554922225cd25150b36d73838100fe70469b016058f764736f6c634300080f0033",
  "linkReferences": {},
  "deployedLinkReferences": {}
}