{
  "_format": "hh-sol-artifact-1",
  "contractName": "BenefitContract",
  "sourceName": "src/blockchain/hardhat/contracts/BenefitContract.sol",
  "abi": [
    {
      "inputs": [
        {
          "internalType": "address",
          "name": "_manager",
          "type": "address"
        },
        {
          "internalType": "uint256",
          "name": "_maxMint",
          "type": "uint256"
        },
        {
          "internalType": "string",
          "name": "_uri",
          "type": "string"
        },
        {
          "internalType": "uint256",
          "name": "_price",
          "type": "uint256"
        },
        {
          "internalType": "address",
          "name": "_erc777Address",
          "type": "address"
        },
        {
          "internalType": "string",
          "name": "_name",
          "type": "string"
        },
        {
          "internalType": "string",
          "name": "_symbol",
          "type": "string"
        }
      ],
      "stateMutability": "nonpayable",
      "type": "constructor"
    },
    {
      "anonymous": false,
      "inputs": [
        {
          "indexed": true,
          "internalType": "address",
          "name": "owner",
          "type": "address"
        },
        {
          "indexed": true,
          "internalType": "address",
          "name": "approved",
          "type": "address"
        },
        {
          "indexed": true,
          "internalType": "uint256",
          "name": "tokenId",
          "type": "uint256"
        }
      ],
      "name": "Approval",
      "type": "event"
    },
    {
      "anonymous": false,
      "inputs": [
        {
          "indexed": true,
          "internalType": "address",
          "name": "owner",
          "type": "address"
        },
        {
          "indexed": true,
          "internalType": "address",
          "name": "operator",
          "type": "address"
        },
        {
          "indexed": false,
          "internalType": "bool",
          "name": "approved",
          "type": "bool"
        }
      ],
      "name": "ApprovalForAll",
      "type": "event"
    },
    {
      "anonymous": false,
      "inputs": [
        {
          "indexed": true,
          "internalType": "address",
          "name": "from",
          "type": "address"
        },
        {
          "indexed": true,
          "internalType": "address",
          "name": "to",
          "type": "address"
        },
        {
          "indexed": true,
          "internalType": "uint256",
          "name": "tokenId",
          "type": "uint256"
        }
      ],
      "name": "Transfer",
      "type": "event"
    },
    {
      "inputs": [],
      "name": "ItemCounter",
      "outputs": [
        {
          "internalType": "uint256",
          "name": "_value",
          "type": "uint256"
        }
      ],
      "stateMutability": "view",
      "type": "function"
    },
    {
      "inputs": [],
      "name": "account",
      "outputs": [
        {
          "internalType": "address",
          "name": "",
          "type": "address"
        }
      ],
      "stateMutability": "view",
      "type": "function"
    },
    {
      "inputs": [],
      "name": "amount",
      "outputs": [
        {
          "internalType": "uint256",
          "name": "",
          "type": "uint256"
        }
      ],
      "stateMutability": "view",
      "type": "function"
    },
    {
      "inputs": [
        {
          "internalType": "address",
          "name": "to",
          "type": "address"
        },
        {
          "internalType": "uint256",
          "name": "tokenId",
          "type": "uint256"
        }
      ],
      "name": "approve",
      "outputs": [],
      "stateMutability": "nonpayable",
      "type": "function"
    },
    {
      "inputs": [
        {
          "internalType": "address",
          "name": "owner",
          "type": "address"
        }
      ],
      "name": "balanceOf",
      "outputs": [
        {
          "internalType": "uint256",
          "name": "",
          "type": "uint256"
        }
      ],
      "stateMutability": "view",
      "type": "function"
    },
    {
      "inputs": [
        {
          "internalType": "address",
          "name": "",
          "type": "address"
        },
        {
          "internalType": "uint256",
          "name": "",
          "type": "uint256"
        }
      ],
      "name": "benefitsIdByCustomer",
      "outputs": [
        {
          "internalType": "uint256",
          "name": "",
          "type": "uint256"
        }
      ],
      "stateMutability": "view",
      "type": "function"
    },
    {
      "inputs": [
        {
          "internalType": "uint256",
          "name": "_tokenId",
          "type": "uint256"
        }
      ],
      "name": "checkIn",
      "outputs": [
        {
          "internalType": "bool",
          "name": "",
          "type": "bool"
        }
      ],
      "stateMutability": "nonpayable",
      "type": "function"
    },
    {
      "inputs": [],
      "name": "erc777",
      "outputs": [
        {
          "internalType": "contract ERC777",
          "name": "",
          "type": "address"
        }
      ],
      "stateMutability": "view",
      "type": "function"
    },
    {
      "inputs": [
        {
          "internalType": "uint256",
          "name": "tokenId",
          "type": "uint256"
        }
      ],
      "name": "getApproved",
      "outputs": [
        {
          "internalType": "address",
          "name": "",
          "type": "address"
        }
      ],
      "stateMutability": "view",
      "type": "function"
    },
    {
      "inputs": [
        {
          "internalType": "address",
          "name": "_owner",
          "type": "address"
        }
      ],
      "name": "getBenefitsIdsByCustomer",
      "outputs": [
        {
          "internalType": "uint256[]",
          "name": "",
          "type": "uint256[]"
        }
      ],
      "stateMutability": "view",
      "type": "function"
    },
    {
      "inputs": [
        {
          "internalType": "address",
          "name": "owner",
          "type": "address"
        },
        {
          "internalType": "address",
          "name": "operator",
          "type": "address"
        }
      ],
      "name": "isApprovedForAll",
      "outputs": [
        {
          "internalType": "bool",
          "name": "",
          "type": "bool"
        }
      ],
      "stateMutability": "view",
      "type": "function"
    },
    {
      "inputs": [],
      "name": "isManagerOrAdmin",
      "outputs": [
        {
          "internalType": "bool",
          "name": "",
          "type": "bool"
        }
      ],
      "stateMutability": "view",
      "type": "function"
    },
    {
      "inputs": [],
      "name": "maxMint",
      "outputs": [
        {
          "internalType": "uint256",
          "name": "",
          "type": "uint256"
        }
      ],
      "stateMutability": "view",
      "type": "function"
    },
    {
      "inputs": [],
      "name": "name",
      "outputs": [
        {
          "internalType": "string",
          "name": "",
          "type": "string"
        }
      ],
      "stateMutability": "view",
      "type": "function"
    },
    {
      "inputs": [
        {
          "internalType": "uint256",
          "name": "tokenId",
          "type": "uint256"
        }
      ],
      "name": "ownerOf",
      "outputs": [
        {
          "internalType": "address",
          "name": "",
          "type": "address"
        }
      ],
      "stateMutability": "view",
      "type": "function"
    },
    {
      "inputs": [],
      "name": "price",
      "outputs": [
        {
          "internalType": "uint256",
          "name": "",
          "type": "uint256"
        }
      ],
      "stateMutability": "view",
      "type": "function"
    },
    {
      "inputs": [
        {
          "internalType": "address",
          "name": "_customer",
          "type": "address"
        },
        {
          "internalType": "uint256",
          "name": "_tokenId",
          "type": "uint256"
        }
      ],
      "name": "redeemBenefit",
      "outputs": [
        {
          "internalType": "bool",
          "name": "",
          "type": "bool"
        }
      ],
      "stateMutability": "nonpayable",
      "type": "function"
    },
    {
      "inputs": [
        {
          "internalType": "address",
          "name": "_tokenAddress",
          "type": "address"
        }
      ],
      "name": "safeMint",
      "outputs": [
        {
          "internalType": "uint256",
          "name": "",
          "type": "uint256"
        }
      ],
      "stateMutability": "nonpayable",
      "type": "function"
    },
    {
      "inputs": [
        {
          "internalType": "address",
          "name": "from",
          "type": "address"
        },
        {
          "internalType": "address",
          "name": "to",
          "type": "address"
        },
        {
          "internalType": "uint256",
          "name": "tokenId",
          "type": "uint256"
        }
      ],
      "name": "safeTransferFrom",
      "outputs": [],
      "stateMutability": "nonpayable",
      "type": "function"
    },
    {
      "inputs": [
        {
          "internalType": "address",
          "name": "from",
          "type": "address"
        },
        {
          "internalType": "address",
          "name": "to",
          "type": "address"
        },
        {
          "internalType": "uint256",
          "name": "tokenId",
          "type": "uint256"
        },
        {
          "internalType": "bytes",
          "name": "data",
          "type": "bytes"
        }
      ],
      "name": "safeTransferFrom",
      "outputs": [],
      "stateMutability": "nonpayable",
      "type": "function"
    },
    {
      "inputs": [
        {
          "internalType": "address",
          "name": "operator",
          "type": "address"
        },
        {
          "internalType": "bool",
          "name": "approved",
          "type": "bool"
        }
      ],
      "name": "setApprovalForAll",
      "outputs": [],
      "stateMutability": "nonpayable",
      "type": "function"
    },
    {
      "inputs": [
        {
          "internalType": "bytes4",
          "name": "interfaceId",
          "type": "bytes4"
        }
      ],
      "name": "supportsInterface",
      "outputs": [
        {
          "internalType": "bool",
          "name": "",
          "type": "bool"
        }
      ],
      "stateMutability": "view",
      "type": "function"
    },
    {
      "inputs": [],
      "name": "symbol",
      "outputs": [
        {
          "internalType": "string",
          "name": "",
          "type": "string"
        }
      ],
      "stateMutability": "view",
      "type": "function"
    },
    {
      "inputs": [],
      "name": "tokenIdCounter",
      "outputs": [
        {
          "internalType": "uint256",
          "name": "_value",
          "type": "uint256"
        }
      ],
      "stateMutability": "view",
      "type": "function"
    },
    {
      "inputs": [
        {
          "internalType": "uint256",
          "name": "tokenId",
          "type": "uint256"
        }
      ],
      "name": "tokenURI",
      "outputs": [
        {
          "internalType": "string",
          "name": "",
          "type": "string"
        }
      ],
      "stateMutability": "view",
      "type": "function"
    },
    {
      "inputs": [
        {
          "internalType": "uint256",
          "name": "",
          "type": "uint256"
        }
      ],
      "name": "tokens",
      "outputs": [
        {
          "internalType": "uint256",
          "name": "id",
          "type": "uint256"
        },
        {
          "internalType": "string",
          "name": "URI",
          "type": "string"
        },
        {
          "internalType": "bool",
          "name": "checkIn",
          "type": "bool"
        },
        {
          "internalType": "bool",
          "name": "redeem",
          "type": "bool"
        },
        {
          "internalType": "address",
          "name": "buyer",
          "type": "address"
        }
      ],
      "stateMutability": "view",
      "type": "function"
    },
    {
      "inputs": [
        {
          "internalType": "address",
          "name": "_operator",
          "type": "address"
        },
        {
          "internalType": "address",
          "name": "_from",
          "type": "address"
        },
        {
          "internalType": "address",
          "name": "_to",
          "type": "address"
        },
        {
          "internalType": "uint256",
          "name": "_amount",
          "type": "uint256"
        },
        {
          "internalType": "bytes",
          "name": "_userData",
          "type": "bytes"
        },
        {
          "internalType": "bytes",
          "name": "_operatorData",
          "type": "bytes"
        }
      ],
      "name": "tokensReceived",
      "outputs": [],
      "stateMutability": "nonpayable",
      "type": "function"
    },
    {
      "inputs": [
        {
          "internalType": "address",
          "name": "from",
          "type": "address"
        },
        {
          "internalType": "address",
          "name": "to",
          "type": "address"
        },
        {
          "internalType": "uint256",
          "name": "tokenId",
          "type": "uint256"
        }
      ],
      "name": "transferFrom",
      "outputs": [],
      "stateMutability": "nonpayable",
      "type": "function"
    },
    {
      "inputs": [],
      "name": "uri",
      "outputs": [
        {
          "internalType": "string",
          "name": "",
          "type": "string"
        }
      ],
      "stateMutability": "view",
      "type": "function"
    },
    {
      "inputs": [],
      "name": "withdrawTokens",
      "outputs": [],
      "stateMutability": "nonpayable",
      "type": "function"
    }
  ],
  "bytecode": "0x60c06040523480156200001157600080fd5b50604051620050023803806200500283398181016040528101906200003791906200058d565b82828281600090816200004b9190620008de565b5080600190816200005d9190620008de565b505050731820a4b7618bde71dce8cdc73aab6c95905fad2473ffffffffffffffffffffffffffffffffffffffff166329965a1d307fb281fc8c12954d22544db45de3159a39272895b169a852b314f9cc762e44c53b306040518463ffffffff1660e01b8152600401620000d393929190620009f1565b600060405180830381600087803b158015620000ee57600080fd5b505af115801562000103573d6000803e3d6000fd5b505050508073ffffffffffffffffffffffffffffffffffffffff1660808173ffffffffffffffffffffffffffffffffffffffff16815250503373ffffffffffffffffffffffffffffffffffffffff1660a08173ffffffffffffffffffffffffffffffffffffffff1681525050506200018b336008620001d360201b620018ae1790919060201c565b620001a6876009620001d360201b620018ae1790919060201c565b84600e9081620001b79190620008de565b508360108190555085600f819055505050505050505062000b49565b620001e582826200028660201b60201c565b1562000228576040517f08c379a00000000000000000000000000000000000000000000000000000000081526004016200021f9062000a8f565b60405180910390fd5b60018260000160008373ffffffffffffffffffffffffffffffffffffffff1673ffffffffffffffffffffffffffffffffffffffff16815260200190815260200160002060006101000a81548160ff0219169083151502179055505050565b60008073ffffffffffffffffffffffffffffffffffffffff168273ffffffffffffffffffffffffffffffffffffffff1603620002f9576040517f08c379a0000000000000000000000000000000000000000000000000000000008152600401620002f09062000b27565b60405180910390fd5b8260000160008373ffffffffffffffffffffffffffffffffffffffff1673ffffffffffffffffffffffffffffffffffffffff16815260200190815260200160002060009054906101000a900460ff16905092915050565b6000604051905090565b600080fd5b600080fd5b600073ffffffffffffffffffffffffffffffffffffffff82169050919050565b6000620003918262000364565b9050919050565b620003a38162000384565b8114620003af57600080fd5b50565b600081519050620003c38162000398565b92915050565b6000819050919050565b620003de81620003c9565b8114620003ea57600080fd5b50565b600081519050620003fe81620003d3565b92915050565b600080fd5b600080fd5b6000601f19601f8301169050919050565b7f4e487b7100000000000000000000000000000000000000000000000000000000600052604160045260246000fd5b62000459826200040e565b810181811067ffffffffffffffff821117156200047b576200047a6200041f565b5b80604052505050565b60006200049062000350565b90506200049e82826200044e565b919050565b600067ffffffffffffffff821115620004c157620004c06200041f565b5b620004cc826200040e565b9050602081019050919050565b60005b83811015620004f9578082015181840152602081019050620004dc565b8381111562000509576000848401525b50505050565b6000620005266200052084620004a3565b62000484565b90508281526020810184848401111562000545576200054462000409565b5b62000552848285620004d9565b509392505050565b600082601f83011262000572576200057162000404565b5b8151620005848482602086016200050f565b91505092915050565b600080600080600080600060e0888a031215620005af57620005ae6200035a565b5b6000620005bf8a828b01620003b2565b9750506020620005d28a828b01620003ed565b965050604088015167ffffffffffffffff811115620005f657620005f56200035f565b5b620006048a828b016200055a565b9550506060620006178a828b01620003ed565b94505060806200062a8a828b01620003b2565b93505060a088015167ffffffffffffffff8111156200064e576200064d6200035f565b5b6200065c8a828b016200055a565b92505060c088015167ffffffffffffffff81111562000680576200067f6200035f565b5b6200068e8a828b016200055a565b91505092959891949750929550565b600081519050919050565b7f4e487b7100000000000000000000000000000000000000000000000000000000600052602260045260246000fd5b60006002820490506001821680620006f057607f821691505b602082108103620007065762000705620006a8565b5b50919050565b60008190508160005260206000209050919050565b60006020601f8301049050919050565b600082821b905092915050565b600060088302620007707fffffffffffffffffffffffffffffffffffffffffffffffffffffffffffffffff8262000731565b6200077c868362000731565b95508019841693508086168417925050509392505050565b6000819050919050565b6000620007bf620007b9620007b384620003c9565b62000794565b620003c9565b9050919050565b6000819050919050565b620007db836200079e565b620007f3620007ea82620007c6565b8484546200073e565b825550505050565b600090565b6200080a620007fb565b62000817818484620007d0565b505050565b5b818110156200083f576200083360008262000800565b6001810190506200081d565b5050565b601f8211156200088e5762000858816200070c565b620008638462000721565b8101602085101562000873578190505b6200088b620008828562000721565b8301826200081c565b50505b505050565b600082821c905092915050565b6000620008b36000198460080262000893565b1980831691505092915050565b6000620008ce8383620008a0565b9150826002028217905092915050565b620008e9826200069d565b67ffffffffffffffff8111156200090557620009046200041f565b5b620009118254620006d7565b6200091e82828562000843565b600060209050601f83116001811462000956576000841562000941578287015190505b6200094d8582620008c0565b865550620009bd565b601f19841662000966866200070c565b60005b82811015620009905784890151825560018201915060208501945060208101905062000969565b86831015620009b05784890151620009ac601f891682620008a0565b8355505b6001600288020188555050505b505050505050565b620009d08162000384565b82525050565b6000819050919050565b620009eb81620009d6565b82525050565b600060608201905062000a086000830186620009c5565b62000a176020830185620009e0565b62000a266040830184620009c5565b949350505050565b600082825260208201905092915050565b7f526f6c65733a206163636f756e7420616c72656164792068617320726f6c6500600082015250565b600062000a77601f8362000a2e565b915062000a848262000a3f565b602082019050919050565b6000602082019050818103600083015262000aaa8162000a68565b9050919050565b7f526f6c65733a206163636f756e7420697320746865207a65726f20616464726560008201527f7373000000000000000000000000000000000000000000000000000000000000602082015250565b600062000b0f60228362000a2e565b915062000b1c8262000ab1565b604082019050919050565b6000602082019050818103600083015262000b428162000b00565b9050919050565b60805160a05161447e62000b8460003960008181610fa901526111100152600081816111e30152818161131c0152611e80015261447e6000f3fe608060405234801561001057600080fd5b50600436106101d95760003560e01c80638d8f2adb11610104578063b88d4fde116100a2578063e95a644f11610071578063e95a644f14610582578063e985e9c5146105b2578063eac989f8146105e2578063f958aada14610600576101d9565b8063b88d4fde146104e8578063c87b56dd14610504578063cef073cb14610534578063d4ff134814610564576101d9565b80639e8e4d1d116100de5780639e8e4d1d14610472578063a035b1fe14610490578063a22cb465146104ae578063aa8c217c146104ca576101d9565b80638d8f2adb1461042c57806395d89b411461043657806398bdf6f514610454576101d9565b806340d097c31161017c5780635dab24201161014b5780635dab2420146103905780636352211e146103ae57806370a08231146103de5780637501f7411461040e576101d9565b806340d097c3146102e057806342842e0e146103105780634f64b2be1461032c57806355cfab2214610360576101d9565b8063081812fc116101b8578063081812fc14610248578063095ea7b3146102785780630e1443671461029457806323b872dd146102c4576101d9565b806223de29146101de57806301ffc9a7146101fa57806306fdde031461022a575b600080fd5b6101f860048036038101906101f39190612bbc565b61061e565b005b610214600480360381019061020f9190612ce3565b610641565b6040516102219190612d2b565b60405180910390f35b610232610723565b60405161023f9190612ddf565b60405180910390f35b610262600480360381019061025d9190612e01565b6107b5565b60405161026f9190612e3d565b60405180910390f35b610292600480360381019061028d9190612e58565b6107fb565b005b6102ae60048036038101906102a99190612e58565b610912565b6040516102bb9190612ea7565b60405180910390f35b6102de60048036038101906102d99190612ec2565b610943565b005b6102fa60048036038101906102f59190612f15565b6109a3565b6040516103079190612ea7565b60405180910390f35b61032a60048036038101906103259190612ec2565b610df8565b005b61034660048036038101906103419190612e01565b610e18565b604051610357959493929190612f42565b60405180910390f35b61037a60048036038101906103759190612f15565b610f10565b604051610387919061305a565b60405180910390f35b610398610fa7565b6040516103a59190612e3d565b60405180910390f35b6103c860048036038101906103c39190612e01565b610fcb565b6040516103d59190612e3d565b60405180910390f35b6103f860048036038101906103f39190612f15565b611051565b6040516104059190612ea7565b60405180910390f35b610416611108565b6040516104239190612ea7565b60405180910390f35b61043461110e565b005b61043e61127c565b60405161044b9190612ddf565b60405180910390f35b61045c61130e565b6040516104699190612ea7565b60405180910390f35b61047a61131a565b60405161048791906130db565b60405180910390f35b61049861133e565b6040516104a59190612ea7565b60405180910390f35b6104c860048036038101906104c39190613122565b611344565b005b6104d261135a565b6040516104df9190612ea7565b60405180910390f35b61050260048036038101906104fd9190613292565b611360565b005b61051e60048036038101906105199190612e01565b6113c2565b60405161052b9190612ddf565b60405180910390f35b61054e60048036038101906105499190612e58565b6114d4565b60405161055b9190612d2b565b60405180910390f35b61056c61166c565b6040516105799190612d2b565b60405180910390f35b61059c60048036038101906105979190612e01565b6116ba565b6040516105a99190612d2b565b60405180910390f35b6105cc60048036038101906105c79190613315565b611780565b6040516105d99190612d2b565b60405180910390f35b6105ea611814565b6040516105f79190612ddf565b60405180910390f35b6106086118a2565b6040516106159190612ea7565b60405180910390f35b84600760008282546106309190613384565b925050819055505050505050505050565b60007f80ac58cd000000000000000000000000000000000000000000000000000000007bffffffffffffffffffffffffffffffffffffffffffffffffffffffff1916827bffffffffffffffffffffffffffffffffffffffffffffffffffffffff1916148061070c57507f5b5e139f000000000000000000000000000000000000000000000000000000007bffffffffffffffffffffffffffffffffffffffffffffffffffffffff1916827bffffffffffffffffffffffffffffffffffffffffffffffffffffffff1916145b8061071c575061071b82611956565b5b9050919050565b60606000805461073290613409565b80601f016020809104026020016040519081016040528092919081815260200182805461075e90613409565b80156107ab5780601f10610780576101008083540402835291602001916107ab565b820191906000526020600020905b81548152906001019060200180831161078e57829003601f168201915b5050505050905090565b60006107c0826119c0565b6004600083815260200190815260200160002060009054906101000a900473ffffffffffffffffffffffffffffffffffffffff169050919050565b600061080682610fcb565b90508073ffffffffffffffffffffffffffffffffffffffff168373ffffffffffffffffffffffffffffffffffffffff1603610876576040517f08c379a000000000000000000000000000000000000000000000000000000000815260040161086d906134ac565b60405180910390fd5b8073ffffffffffffffffffffffffffffffffffffffff16610895611a0b565b73ffffffffffffffffffffffffffffffffffffffff1614806108c457506108c3816108be611a0b565b611780565b5b610903576040517f08c379a00000000000000000000000000000000000000000000000000000000081526004016108fa9061353e565b60405180910390fd5b61090d8383611a13565b505050565b600d602052816000526040600020818154811061092e57600080fd5b90600052602060002001600091509150505481565b61095461094e611a0b565b82611acc565b610993576040517f08c379a000000000000000000000000000000000000000000000000000000000815260040161098a906135d0565b60405180910390fd5b61099e838383611b61565b505050565b6000600f546109b2600b611e5a565b106109f2576040517f08c379a00000000000000000000000000000000000000000000000000000000081526004016109e99061363c565b60405180910390fd5b6010548273ffffffffffffffffffffffffffffffffffffffff1663f38e266a336040518263ffffffff1660e01b8152600401610a2e9190612e3d565b602060405180830381865afa158015610a4b573d6000803e3d6000fd5b505050506040513d601f19601f82011682018060405250810190610a6f9190613671565b11610aaf576040517f08c379a0000000000000000000000000000000000000000000000000000000008152600401610aa6906136ea565b60405180910390fd5b8173ffffffffffffffffffffffffffffffffffffffff166325e8e00c336010546040518363ffffffff1660e01b8152600401610aec92919061370a565b6020604051808303816000875af1158015610b0b573d6000803e3d6000fd5b505050506040513d601f19601f82011682018060405250810190610b2f9190613748565b610b3857600080fd5b6000610b44600b611e5a565b9050610b50600b611e68565b60006040518060a00160405280838152602001600e8054610b7090613409565b80601f0160208091040260200160405190810160405280929190818152602001828054610b9c90613409565b8015610be95780601f10610bbe57610100808354040283529160200191610be9565b820191906000526020600020905b815481529060010190602001808311610bcc57829003601f168201915b505050505081526020016000151581526020016000151581526020013373ffffffffffffffffffffffffffffffffffffffff16815250905080600c6000848152602001908152602001600020600082015181600001556020820151816001019081610c549190613917565b5060408201518160020160006101000a81548160ff02191690831515021790555060608201518160020160016101000a81548160ff02191690831515021790555060808201518160020160026101000a81548173ffffffffffffffffffffffffffffffffffffffff021916908373ffffffffffffffffffffffffffffffffffffffff160217905550905050600d60003373ffffffffffffffffffffffffffffffffffffffff1673ffffffffffffffffffffffffffffffffffffffff168152602001908152602001600020829080600181540180825580915050600190039060005260206000200160009091909190915055610d50601054611e7e565b610d5a3383611f29565b610dee82600e8054610d6b90613409565b80601f0160208091040260200160405190810160405280929190818152602001828054610d9790613409565b8015610de45780601f10610db957610100808354040283529160200191610de4565b820191906000526020600020905b815481529060010190602001808311610dc757829003601f168201915b5050505050611f47565b8192505050919050565b610e1383838360405180602001604052806000815250611360565b505050565b600c602052806000526040600020600091509050806000015490806001018054610e4190613409565b80601f0160208091040260200160405190810160405280929190818152602001828054610e6d90613409565b8015610eba5780601f10610e8f57610100808354040283529160200191610eba565b820191906000526020600020905b815481529060010190602001808311610e9d57829003601f168201915b5050505050908060020160009054906101000a900460ff16908060020160019054906101000a900460ff16908060020160029054906101000a900473ffffffffffffffffffffffffffffffffffffffff16905085565b6060600d60008373ffffffffffffffffffffffffffffffffffffffff1673ffffffffffffffffffffffffffffffffffffffff168152602001908152602001600020805480602002602001604051908101604052809291908181526020018280548015610f9b57602002820191906000526020600020905b815481526020019060010190808311610f87575b50505050509050919050565b7f000000000000000000000000000000000000000000000000000000000000000081565b600080610fd783611fb4565b9050600073ffffffffffffffffffffffffffffffffffffffff168173ffffffffffffffffffffffffffffffffffffffff1603611048576040517f08c379a000000000000000000000000000000000000000000000000000000000815260040161103f90613a35565b60405180910390fd5b80915050919050565b60008073ffffffffffffffffffffffffffffffffffffffff168273ffffffffffffffffffffffffffffffffffffffff16036110c1576040517f08c379a00000000000000000000000000000000000000000000000000000000081526004016110b890613ac7565b60405180910390fd5b600360008373ffffffffffffffffffffffffffffffffffffffff1673ffffffffffffffffffffffffffffffffffffffff168152602001908152602001600020549050919050565b600f5481565b7f000000000000000000000000000000000000000000000000000000000000000073ffffffffffffffffffffffffffffffffffffffff163373ffffffffffffffffffffffffffffffffffffffff161461119c576040517f08c379a000000000000000000000000000000000000000000000000000000000815260040161119390613b59565b60405180910390fd5b6000600754116111e1576040517f08c379a00000000000000000000000000000000000000000000000000000000081526004016111d890613bc5565b60405180910390fd5b7f000000000000000000000000000000000000000000000000000000000000000073ffffffffffffffffffffffffffffffffffffffff166362ad1b8330336007546040518463ffffffff1660e01b815260040161124093929190613c1c565b600060405180830381600087803b15801561125a57600080fd5b505af115801561126e573d6000803e3d6000fd5b505050506000600781905550565b60606001805461128b90613409565b80601f01602080910402602001604051908101604052809291908181526020018280546112b790613409565b80156113045780601f106112d957610100808354040283529160200191611304565b820191906000526020600020905b8154815290600101906020018083116112e757829003601f168201915b5050505050905090565b600b8060000154905081565b7f000000000000000000000000000000000000000000000000000000000000000081565b60105481565b61135661134f611a0b565b8383611ff1565b5050565b60075481565b61137161136b611a0b565b83611acc565b6113b0576040517f08c379a00000000000000000000000000000000000000000000000000000000081526004016113a7906135d0565b60405180910390fd5b6113bc8484848461215d565b50505050565b60606113cd826119c0565b60006006600084815260200190815260200160002080546113ed90613409565b80601f016020809104026020016040519081016040528092919081815260200182805461141990613409565b80156114665780601f1061143b57610100808354040283529160200191611466565b820191906000526020600020905b81548152906001019060200180831161144957829003601f168201915b5050505050905060006114776121b9565b9050600081510361148c5781925050506114cf565b6000825111156114c15780826040516020016114a9929190613cb5565b604051602081830303815290604052925050506114cf565b6114ca846121d0565b925050505b919050565b60006114ea33600961223890919063ffffffff16565b80611505575061150433600861223890919063ffffffff16565b5b611544576040517f08c379a000000000000000000000000000000000000000000000000000000000815260040161153b90613d25565b60405180910390fd5b8273ffffffffffffffffffffffffffffffffffffffff1661156483610fcb565b73ffffffffffffffffffffffffffffffffffffffff16146115ba576040517f08c379a00000000000000000000000000000000000000000000000000000000081526004016115b190613d91565b60405180910390fd5b600c600083815260200190815260200160002060020160009054906101000a900460ff1661161d576040517f08c379a000000000000000000000000000000000000000000000000000000000815260040161161490613dfd565b60405180910390fd5b6000600c6000848152602001908152602001600020905060018160020160016101000a81548160ff0219169083151502179055508060020160019054906101000a900460ff1691505092915050565b600061168233600961223890919063ffffffff16565b1561169057600190506116b7565b6116a433600861223890919063ffffffff16565b156116b257600190506116b7565b600090505b90565b60003373ffffffffffffffffffffffffffffffffffffffff166116dc83610fcb565b73ffffffffffffffffffffffffffffffffffffffff1614611732576040517f08c379a000000000000000000000000000000000000000000000000000000000815260040161172990613e69565b60405180910390fd5b6000600c6000848152602001908152602001600020905060018160020160006101000a81548160ff0219169083151502179055508060020160009054906101000a900460ff16915050919050565b6000600560008473ffffffffffffffffffffffffffffffffffffffff1673ffffffffffffffffffffffffffffffffffffffff16815260200190815260200160002060008373ffffffffffffffffffffffffffffffffffffffff1673ffffffffffffffffffffffffffffffffffffffff16815260200190815260200160002060009054906101000a900460ff16905092915050565b600e805461182190613409565b80601f016020809104026020016040519081016040528092919081815260200182805461184d90613409565b801561189a5780601f1061186f5761010080835404028352916020019161189a565b820191906000526020600020905b81548152906001019060200180831161187d57829003601f168201915b505050505081565b600a8060000154905081565b6118b88282612238565b156118f8576040517f08c379a00000000000000000000000000000000000000000000000000000000081526004016118ef90613ed5565b60405180910390fd5b60018260000160008373ffffffffffffffffffffffffffffffffffffffff1673ffffffffffffffffffffffffffffffffffffffff16815260200190815260200160002060006101000a81548160ff0219169083151502179055505050565b60007f01ffc9a7000000000000000000000000000000000000000000000000000000007bffffffffffffffffffffffffffffffffffffffffffffffffffffffff1916827bffffffffffffffffffffffffffffffffffffffffffffffffffffffff1916149050919050565b6119c9816122ff565b611a08576040517f08c379a00000000000000000000000000000000000000000000000000000000081526004016119ff90613a35565b60405180910390fd5b50565b600033905090565b816004600083815260200190815260200160002060006101000a81548173ffffffffffffffffffffffffffffffffffffffff021916908373ffffffffffffffffffffffffffffffffffffffff160217905550808273ffffffffffffffffffffffffffffffffffffffff16611a8683610fcb565b73ffffffffffffffffffffffffffffffffffffffff167f8c5be1e5ebec7d5bd14f71427d1e84f3dd0314c0f7b2291e5b200ac8c7c3b92560405160405180910390a45050565b600080611ad883610fcb565b90508073ffffffffffffffffffffffffffffffffffffffff168473ffffffffffffffffffffffffffffffffffffffff161480611b1a5750611b198185611780565b5b80611b5857508373ffffffffffffffffffffffffffffffffffffffff16611b40846107b5565b73ffffffffffffffffffffffffffffffffffffffff16145b91505092915050565b8273ffffffffffffffffffffffffffffffffffffffff16611b8182610fcb565b73ffffffffffffffffffffffffffffffffffffffff1614611bd7576040517f08c379a0000000000000000000000000000000000000000000000000000000008152600401611bce90613f67565b60405180910390fd5b600073ffffffffffffffffffffffffffffffffffffffff168273ffffffffffffffffffffffffffffffffffffffff1603611c46576040517f08c379a0000000000000000000000000000000000000000000000000000000008152600401611c3d90613ff9565b60405180910390fd5b611c538383836001612340565b8273ffffffffffffffffffffffffffffffffffffffff16611c7382610fcb565b73ffffffffffffffffffffffffffffffffffffffff1614611cc9576040517f08c379a0000000000000000000000000000000000000000000000000000000008152600401611cc090613f67565b60405180910390fd5b6004600082815260200190815260200160002060006101000a81549073ffffffffffffffffffffffffffffffffffffffff02191690556001600360008573ffffffffffffffffffffffffffffffffffffffff1673ffffffffffffffffffffffffffffffffffffffff168152602001908152602001600020600082825403925050819055506001600360008473ffffffffffffffffffffffffffffffffffffffff1673ffffffffffffffffffffffffffffffffffffffff16815260200190815260200160002060008282540192505081905550816002600083815260200190815260200160002060006101000a81548173ffffffffffffffffffffffffffffffffffffffff021916908373ffffffffffffffffffffffffffffffffffffffff160217905550808273ffffffffffffffffffffffffffffffffffffffff168473ffffffffffffffffffffffffffffffffffffffff167fddf252ad1be2c89b69c2b068fc378daa952ba7f163c4a11628f55a4df523b3ef60405160405180910390a4611e558383836001612466565b505050565b600081600001549050919050565b6001816000016000828254019250508190555050565b7f000000000000000000000000000000000000000000000000000000000000000073ffffffffffffffffffffffffffffffffffffffff166362ad1b833330846040518463ffffffff1660e01b8152600401611edb93929190613c1c565b600060405180830381600087803b158015611ef557600080fd5b505af1158015611f09573d6000803e3d6000fd5b505050508060076000828254611f1f9190613384565b9250508190555050565b611f4382826040518060200160405280600081525061246c565b5050565b611f50826122ff565b611f8f576040517f08c379a0000000000000000000000000000000000000000000000000000000008152600401611f869061408b565b60405180910390fd5b80600660008481526020019081526020016000209081611faf9190613917565b505050565b60006002600083815260200190815260200160002060009054906101000a900473ffffffffffffffffffffffffffffffffffffffff169050919050565b8173ffffffffffffffffffffffffffffffffffffffff168373ffffffffffffffffffffffffffffffffffffffff160361205f576040517f08c379a0000000000000000000000000000000000000000000000000000000008152600401612056906140f7565b60405180910390fd5b80600560008573ffffffffffffffffffffffffffffffffffffffff1673ffffffffffffffffffffffffffffffffffffffff16815260200190815260200160002060008473ffffffffffffffffffffffffffffffffffffffff1673ffffffffffffffffffffffffffffffffffffffff16815260200190815260200160002060006101000a81548160ff0219169083151502179055508173ffffffffffffffffffffffffffffffffffffffff168373ffffffffffffffffffffffffffffffffffffffff167f17307eab39ab6107e8899845ad3d59bd9653f200f220920489ca2b5937696c31836040516121509190612d2b565b60405180910390a3505050565b612168848484611b61565b612174848484846124c7565b6121b3576040517f08c379a00000000000000000000000000000000000000000000000000000000081526004016121aa90614189565b60405180910390fd5b50505050565b606060405180602001604052806000815250905090565b60606121db826119c0565b60006121e56121b9565b905060008151116122055760405180602001604052806000815250612230565b8061220f8461264e565b604051602001612220929190613cb5565b6040516020818303038152906040525b915050919050565b60008073ffffffffffffffffffffffffffffffffffffffff168273ffffffffffffffffffffffffffffffffffffffff16036122a8576040517f08c379a000000000000000000000000000000000000000000000000000000000815260040161229f9061421b565b60405180910390fd5b8260000160008373ffffffffffffffffffffffffffffffffffffffff1673ffffffffffffffffffffffffffffffffffffffff16815260200190815260200160002060009054906101000a900460ff16905092915050565b60008073ffffffffffffffffffffffffffffffffffffffff1661232183611fb4565b73ffffffffffffffffffffffffffffffffffffffff1614159050919050565b600181111561246057600073ffffffffffffffffffffffffffffffffffffffff168473ffffffffffffffffffffffffffffffffffffffff16146123d45780600360008673ffffffffffffffffffffffffffffffffffffffff1673ffffffffffffffffffffffffffffffffffffffff16815260200190815260200160002060008282546123cc919061423b565b925050819055505b600073ffffffffffffffffffffffffffffffffffffffff168373ffffffffffffffffffffffffffffffffffffffff161461245f5780600360008573ffffffffffffffffffffffffffffffffffffffff1673ffffffffffffffffffffffffffffffffffffffff16815260200190815260200160002060008282546124579190613384565b925050819055505b5b50505050565b50505050565b612476838361271c565b61248360008484846124c7565b6124c2576040517f08c379a00000000000000000000000000000000000000000000000000000000081526004016124b990614189565b60405180910390fd5b505050565b60006124e88473ffffffffffffffffffffffffffffffffffffffff16612939565b15612641578373ffffffffffffffffffffffffffffffffffffffff1663150b7a02612511611a0b565b8786866040518563ffffffff1660e01b815260040161253394939291906142b3565b6020604051808303816000875af192505050801561256f57506040513d601f19601f8201168201806040525081019061256c9190614314565b60015b6125f1573d806000811461259f576040519150601f19603f3d011682016040523d82523d6000602084013e6125a4565b606091505b5060008151036125e9576040517f08c379a00000000000000000000000000000000000000000000000000000000081526004016125e090614189565b60405180910390fd5b805181602001fd5b63150b7a0260e01b7bffffffffffffffffffffffffffffffffffffffffffffffffffffffff1916817bffffffffffffffffffffffffffffffffffffffffffffffffffffffff191614915050612646565b600190505b949350505050565b60606000600161265d8461295c565b01905060008167ffffffffffffffff81111561267c5761267b613167565b5b6040519080825280601f01601f1916602001820160405280156126ae5781602001600182028036833780820191505090505b509050600082602001820190505b600115612711578080600190039150507f3031323334353637383961626364656600000000000000000000000000000000600a86061a8153600a858161270557612704614341565b5b049450600085036126bc575b819350505050919050565b600073ffffffffffffffffffffffffffffffffffffffff168273ffffffffffffffffffffffffffffffffffffffff160361278b576040517f08c379a0000000000000000000000000000000000000000000000000000000008152600401612782906143bc565b60405180910390fd5b612794816122ff565b156127d4576040517f08c379a00000000000000000000000000000000000000000000000000000000081526004016127cb90614428565b60405180910390fd5b6127e2600083836001612340565b6127eb816122ff565b1561282b576040517f08c379a000000000000000000000000000000000000000000000000000000000815260040161282290614428565b60405180910390fd5b6001600360008473ffffffffffffffffffffffffffffffffffffffff1673ffffffffffffffffffffffffffffffffffffffff16815260200190815260200160002060008282540192505081905550816002600083815260200190815260200160002060006101000a81548173ffffffffffffffffffffffffffffffffffffffff021916908373ffffffffffffffffffffffffffffffffffffffff160217905550808273ffffffffffffffffffffffffffffffffffffffff16600073ffffffffffffffffffffffffffffffffffffffff167fddf252ad1be2c89b69c2b068fc378daa952ba7f163c4a11628f55a4df523b3ef60405160405180910390a4612935600083836001612466565b5050565b6000808273ffffffffffffffffffffffffffffffffffffffff163b119050919050565b600080600090507a184f03e93ff9f4daa797ed6e38ed64bf6a1f01000000000000000083106129ba577a184f03e93ff9f4daa797ed6e38ed64bf6a1f01000000000000000083816129b0576129af614341565b5b0492506040810190505b6d04ee2d6d415b85acef810000000083106129f7576d04ee2d6d415b85acef810000000083816129ed576129ec614341565b5b0492506020810190505b662386f26fc100008310612a2657662386f26fc100008381612a1c57612a1b614341565b5b0492506010810190505b6305f5e1008310612a4f576305f5e1008381612a4557612a44614341565b5b0492506008810190505b6127108310612a74576127108381612a6a57612a69614341565b5b0492506004810190505b60648310612a975760648381612a8d57612a8c614341565b5b0492506002810190505b600a8310612aa6576001810190505b80915050919050565b6000604051905090565b600080fd5b600080fd5b600073ffffffffffffffffffffffffffffffffffffffff82169050919050565b6000612aee82612ac3565b9050919050565b612afe81612ae3565b8114612b0957600080fd5b50565b600081359050612b1b81612af5565b92915050565b6000819050919050565b612b3481612b21565b8114612b3f57600080fd5b50565b600081359050612b5181612b2b565b92915050565b600080fd5b600080fd5b600080fd5b60008083601f840112612b7c57612b7b612b57565b5b8235905067ffffffffffffffff811115612b9957612b98612b5c565b5b602083019150836001820283011115612bb557612bb4612b61565b5b9250929050565b60008060008060008060008060c0898b031215612bdc57612bdb612ab9565b5b6000612bea8b828c01612b0c565b9850506020612bfb8b828c01612b0c565b9750506040612c0c8b828c01612b0c565b9650506060612c1d8b828c01612b42565b955050608089013567ffffffffffffffff811115612c3e57612c3d612abe565b5b612c4a8b828c01612b66565b945094505060a089013567ffffffffffffffff811115612c6d57612c6c612abe565b5b612c798b828c01612b66565b92509250509295985092959890939650565b60007fffffffff0000000000000000000000000000000000000000000000000000000082169050919050565b612cc081612c8b565b8114612ccb57600080fd5b50565b600081359050612cdd81612cb7565b92915050565b600060208284031215612cf957612cf8612ab9565b5b6000612d0784828501612cce565b91505092915050565b60008115159050919050565b612d2581612d10565b82525050565b6000602082019050612d406000830184612d1c565b92915050565b600081519050919050565b600082825260208201905092915050565b60005b83811015612d80578082015181840152602081019050612d65565b83811115612d8f576000848401525b50505050565b6000601f19601f8301169050919050565b6000612db182612d46565b612dbb8185612d51565b9350612dcb818560208601612d62565b612dd481612d95565b840191505092915050565b60006020820190508181036000830152612df98184612da6565b905092915050565b600060208284031215612e1757612e16612ab9565b5b6000612e2584828501612b42565b91505092915050565b612e3781612ae3565b82525050565b6000602082019050612e526000830184612e2e565b92915050565b60008060408385031215612e6f57612e6e612ab9565b5b6000612e7d85828601612b0c565b9250506020612e8e85828601612b42565b9150509250929050565b612ea181612b21565b82525050565b6000602082019050612ebc6000830184612e98565b92915050565b600080600060608486031215612edb57612eda612ab9565b5b6000612ee986828701612b0c565b9350506020612efa86828701612b0c565b9250506040612f0b86828701612b42565b9150509250925092565b600060208284031215612f2b57612f2a612ab9565b5b6000612f3984828501612b0c565b91505092915050565b600060a082019050612f576000830188612e98565b8181036020830152612f698187612da6565b9050612f786040830186612d1c565b612f856060830185612d1c565b612f926080830184612e2e565b9695505050505050565b600081519050919050565b600082825260208201905092915050565b6000819050602082019050919050565b612fd181612b21565b82525050565b6000612fe38383612fc8565b60208301905092915050565b6000602082019050919050565b600061300782612f9c565b6130118185612fa7565b935061301c83612fb8565b8060005b8381101561304d5781516130348882612fd7565b975061303f83612fef565b925050600181019050613020565b5085935050505092915050565b600060208201905081810360008301526130748184612ffc565b905092915050565b6000819050919050565b60006130a161309c61309784612ac3565b61307c565b612ac3565b9050919050565b60006130b382613086565b9050919050565b60006130c5826130a8565b9050919050565b6130d5816130ba565b82525050565b60006020820190506130f060008301846130cc565b92915050565b6130ff81612d10565b811461310a57600080fd5b50565b60008135905061311c816130f6565b92915050565b6000806040838503121561313957613138612ab9565b5b600061314785828601612b0c565b92505060206131588582860161310d565b9150509250929050565b600080fd5b7f4e487b7100000000000000000000000000000000000000000000000000000000600052604160045260246000fd5b61319f82612d95565b810181811067ffffffffffffffff821117156131be576131bd613167565b5b80604052505050565b60006131d1612aaf565b90506131dd8282613196565b919050565b600067ffffffffffffffff8211156131fd576131fc613167565b5b61320682612d95565b9050602081019050919050565b82818337600083830152505050565b6000613235613230846131e2565b6131c7565b90508281526020810184848401111561325157613250613162565b5b61325c848285613213565b509392505050565b600082601f83011261327957613278612b57565b5b8135613289848260208601613222565b91505092915050565b600080600080608085870312156132ac576132ab612ab9565b5b60006132ba87828801612b0c565b94505060206132cb87828801612b0c565b93505060406132dc87828801612b42565b925050606085013567ffffffffffffffff8111156132fd576132fc612abe565b5b61330987828801613264565b91505092959194509250565b6000806040838503121561332c5761332b612ab9565b5b600061333a85828601612b0c565b925050602061334b85828601612b0c565b9150509250929050565b7f4e487b7100000000000000000000000000000000000000000000000000000000600052601160045260246000fd5b600061338f82612b21565b915061339a83612b21565b9250827fffffffffffffffffffffffffffffffffffffffffffffffffffffffffffffffff038211156133cf576133ce613355565b5b828201905092915050565b7f4e487b7100000000000000000000000000000000000000000000000000000000600052602260045260246000fd5b6000600282049050600182168061342157607f821691505b602082108103613434576134336133da565b5b50919050565b7f4552433732313a20617070726f76616c20746f2063757272656e74206f776e6560008201527f7200000000000000000000000000000000000000000000000000000000000000602082015250565b6000613496602183612d51565b91506134a18261343a565b604082019050919050565b600060208201905081810360008301526134c581613489565b9050919050565b7f4552433732313a20617070726f76652063616c6c6572206973206e6f7420746f60008201527f6b656e206f776e6572206f7220617070726f76656420666f7220616c6c000000602082015250565b6000613528603d83612d51565b9150613533826134cc565b604082019050919050565b600060208201905081810360008301526135578161351b565b9050919050565b7f4552433732313a2063616c6c6572206973206e6f7420746f6b656e206f776e6560008201527f72206f7220617070726f76656400000000000000000000000000000000000000602082015250565b60006135ba602d83612d51565b91506135c58261355e565b604082019050919050565b600060208201905081810360008301526135e9816135ad565b9050919050565b7f4d696e74206c696d697420636f6d706c65746564000000000000000000000000600082015250565b6000613626601483612d51565b9150613631826135f0565b602082019050919050565b6000602082019050818103600083015261365581613619565b9050919050565b60008151905061366b81612b2b565b92915050565b60006020828403121561368757613686612ab9565b5b60006136958482850161365c565b91505092915050565b7f496e73756666696369656e7420746f6b656e7300000000000000000000000000600082015250565b60006136d4601383612d51565b91506136df8261369e565b602082019050919050565b60006020820190508181036000830152613703816136c7565b9050919050565b600060408201905061371f6000830185612e2e565b61372c6020830184612e98565b9392505050565b600081519050613742816130f6565b92915050565b60006020828403121561375e5761375d612ab9565b5b600061376c84828501613733565b91505092915050565b60008190508160005260206000209050919050565b60006020601f8301049050919050565b600082821b905092915050565b6000600883026137d77fffffffffffffffffffffffffffffffffffffffffffffffffffffffffffffffff8261379a565b6137e1868361379a565b95508019841693508086168417925050509392505050565b600061381461380f61380a84612b21565b61307c565b612b21565b9050919050565b6000819050919050565b61382e836137f9565b61384261383a8261381b565b8484546137a7565b825550505050565b600090565b61385761384a565b613862818484613825565b505050565b5b818110156138865761387b60008261384f565b600181019050613868565b5050565b601f8211156138cb5761389c81613775565b6138a58461378a565b810160208510156138b4578190505b6138c86138c08561378a565b830182613867565b50505b505050565b600082821c905092915050565b60006138ee600019846008026138d0565b1980831691505092915050565b600061390783836138dd565b9150826002028217905092915050565b61392082612d46565b67ffffffffffffffff81111561393957613938613167565b5b6139438254613409565b61394e82828561388a565b600060209050601f831160018114613981576000841561396f578287015190505b61397985826138fb565b8655506139e1565b601f19841661398f86613775565b60005b828110156139b757848901518255600182019150602085019450602081019050613992565b868310156139d457848901516139d0601f8916826138dd565b8355505b6001600288020188555050505b505050505050565b7f4552433732313a20696e76616c696420746f6b656e2049440000000000000000600082015250565b6000613a1f601883612d51565b9150613a2a826139e9565b602082019050919050565b60006020820190508181036000830152613a4e81613a12565b9050919050565b7f4552433732313a2061646472657373207a65726f206973206e6f74206120766160008201527f6c6964206f776e65720000000000000000000000000000000000000000000000602082015250565b6000613ab1602983612d51565b9150613abc82613a55565b604082019050919050565b60006020820190508181036000830152613ae081613aa4565b9050919050565b7f4d61726b6574506c616365436f6e74726163743a2063616c6c6572206973206e60008201527f6f7420746865206f776e65720000000000000000000000000000000000000000602082015250565b6000613b43602c83612d51565b9150613b4e82613ae7565b604082019050919050565b60006020820190508181036000830152613b7281613b36565b9050919050565b7f546865726520646f6e277420626520746f6b656e730000000000000000000000600082015250565b6000613baf601583612d51565b9150613bba82613b79565b602082019050919050565b60006020820190508181036000830152613bde81613ba2565b9050919050565b600082825260208201905092915050565b50565b6000613c06600083613be5565b9150613c1182613bf6565b600082019050919050565b600060a082019050613c316000830186612e2e565b613c3e6020830185612e2e565b613c4b6040830184612e98565b8181036060830152613c5c81613bf9565b90508181036080830152613c6f81613bf9565b9050949350505050565b600081905092915050565b6000613c8f82612d46565b613c998185613c79565b9350613ca9818560208601612d62565b80840191505092915050565b6000613cc18285613c84565b9150613ccd8284613c84565b91508190509392505050565b7f444f45535f4e4f545f484156455f4d494e5445525f524f4c4500000000000000600082015250565b6000613d0f601983612d51565b9150613d1a82613cd9565b602082019050919050565b60006020820190508181036000830152613d3e81613d02565b9050919050565b7f5468697320746f6b656e20646f65736e277420796f7572000000000000000000600082015250565b6000613d7b601783612d51565b9150613d8682613d45565b602082019050919050565b60006020820190508181036000830152613daa81613d6e565b9050919050565b7f596f75206e65656420746f20646f20636865636b2d696e000000000000000000600082015250565b6000613de7601783612d51565b9150613df282613db1565b602082019050919050565b60006020820190508181036000830152613e1681613dda565b9050919050565b7f596f7520617265206e6f7420746865206f776e6572206f6620746865204e4654600082015250565b6000613e53602083612d51565b9150613e5e82613e1d565b602082019050919050565b60006020820190508181036000830152613e8281613e46565b9050919050565b7f526f6c65733a206163636f756e7420616c72656164792068617320726f6c6500600082015250565b6000613ebf601f83612d51565b9150613eca82613e89565b602082019050919050565b60006020820190508181036000830152613eee81613eb2565b9050919050565b7f4552433732313a207472616e736665722066726f6d20696e636f72726563742060008201527f6f776e6572000000000000000000000000000000000000000000000000000000602082015250565b6000613f51602583612d51565b9150613f5c82613ef5565b604082019050919050565b60006020820190508181036000830152613f8081613f44565b9050919050565b7f4552433732313a207472616e7366657220746f20746865207a65726f2061646460008201527f7265737300000000000000000000000000000000000000000000000000000000602082015250565b6000613fe3602483612d51565b9150613fee82613f87565b604082019050919050565b6000602082019050818103600083015261401281613fd6565b9050919050565b7f45524337323155524953746f726167653a2055524920736574206f66206e6f6e60008201527f6578697374656e7420746f6b656e000000000000000000000000000000000000602082015250565b6000614075602e83612d51565b915061408082614019565b604082019050919050565b600060208201905081810360008301526140a481614068565b9050919050565b7f4552433732313a20617070726f766520746f2063616c6c657200000000000000600082015250565b60006140e1601983612d51565b91506140ec826140ab565b602082019050919050565b60006020820190508181036000830152614110816140d4565b9050919050565b7f4552433732313a207472616e7366657220746f206e6f6e20455243373231526560008201527f63656976657220696d706c656d656e7465720000000000000000000000000000602082015250565b6000614173603283612d51565b915061417e82614117565b604082019050919050565b600060208201905081810360008301526141a281614166565b9050919050565b7f526f6c65733a206163636f756e7420697320746865207a65726f20616464726560008201527f7373000000000000000000000000000000000000000000000000000000000000602082015250565b6000614205602283612d51565b9150614210826141a9565b604082019050919050565b60006020820190508181036000830152614234816141f8565b9050919050565b600061424682612b21565b915061425183612b21565b92508282101561426457614263613355565b5b828203905092915050565b600081519050919050565b60006142858261426f565b61428f8185613be5565b935061429f818560208601612d62565b6142a881612d95565b840191505092915050565b60006080820190506142c86000830187612e2e565b6142d56020830186612e2e565b6142e26040830185612e98565b81810360608301526142f4818461427a565b905095945050505050565b60008151905061430e81612cb7565b92915050565b60006020828403121561432a57614329612ab9565b5b6000614338848285016142ff565b91505092915050565b7f4e487b7100000000000000000000000000000000000000000000000000000000600052601260045260246000fd5b7f4552433732313a206d696e7420746f20746865207a65726f2061646472657373600082015250565b60006143a6602083612d51565b91506143b182614370565b602082019050919050565b600060208201905081810360008301526143d581614399565b9050919050565b7f4552433732313a20746f6b656e20616c7265616479206d696e74656400000000600082015250565b6000614412601c83612d51565b915061441d826143dc565b602082019050919050565b6000602082019050818103600083015261444181614405565b905091905056fea2646970667358221220ebc56fe3fd3865231769409cf71be01e25a66b4e22cb6051f6db25034836809a64736f6c634300080f0033",
  "linkReferences": {},
  "deployedLinkReferences": {}
}