{
  "_format": "hh-sol-artifact-1",
  "contractName": "BenefitContract",
  "sourceName": "src/blockchain/hardhat/contracts/BenefitContract.sol",
  "abi": [
    {
      "inputs": [
        {
          "internalType": "address",
          "name": "_manager",
          "type": "address"
        },
        {
          "internalType": "uint256",
          "name": "_maxMint",
          "type": "uint256"
        },
        {
          "internalType": "string",
          "name": "_uri",
          "type": "string"
        },
        {
          "internalType": "uint256",
          "name": "_price",
          "type": "uint256"
        },
        {
          "internalType": "address",
          "name": "_erc777Address",
          "type": "address"
        },
        {
          "internalType": "string",
          "name": "_name",
          "type": "string"
        },
        {
          "internalType": "string",
          "name": "_symbol",
          "type": "string"
        }
      ],
      "stateMutability": "nonpayable",
      "type": "constructor"
    },
    {
      "anonymous": false,
      "inputs": [
        {
          "indexed": true,
          "internalType": "address",
          "name": "owner",
          "type": "address"
        },
        {
          "indexed": true,
          "internalType": "address",
          "name": "approved",
          "type": "address"
        },
        {
          "indexed": true,
          "internalType": "uint256",
          "name": "tokenId",
          "type": "uint256"
        }
      ],
      "name": "Approval",
      "type": "event"
    },
    {
      "anonymous": false,
      "inputs": [
        {
          "indexed": true,
          "internalType": "address",
          "name": "owner",
          "type": "address"
        },
        {
          "indexed": true,
          "internalType": "address",
          "name": "operator",
          "type": "address"
        },
        {
          "indexed": false,
          "internalType": "bool",
          "name": "approved",
          "type": "bool"
        }
      ],
      "name": "ApprovalForAll",
      "type": "event"
    },
    {
      "anonymous": false,
      "inputs": [
        {
          "indexed": true,
          "internalType": "address",
          "name": "from",
          "type": "address"
        },
        {
          "indexed": true,
          "internalType": "address",
          "name": "to",
          "type": "address"
        },
        {
          "indexed": true,
          "internalType": "uint256",
          "name": "tokenId",
          "type": "uint256"
        }
      ],
      "name": "Transfer",
      "type": "event"
    },
    {
      "inputs": [],
      "name": "ItemCounter",
      "outputs": [
        {
          "internalType": "uint256",
          "name": "_value",
          "type": "uint256"
        }
      ],
      "stateMutability": "view",
      "type": "function"
    },
    {
      "inputs": [],
      "name": "account",
      "outputs": [
        {
          "internalType": "address",
          "name": "",
          "type": "address"
        }
      ],
      "stateMutability": "view",
      "type": "function"
    },
    {
      "inputs": [],
      "name": "amount",
      "outputs": [
        {
          "internalType": "uint256",
          "name": "",
          "type": "uint256"
        }
      ],
      "stateMutability": "view",
      "type": "function"
    },
    {
      "inputs": [
        {
          "internalType": "address",
          "name": "to",
          "type": "address"
        },
        {
          "internalType": "uint256",
          "name": "tokenId",
          "type": "uint256"
        }
      ],
      "name": "approve",
      "outputs": [],
      "stateMutability": "nonpayable",
      "type": "function"
    },
    {
      "inputs": [
        {
          "internalType": "address",
          "name": "owner",
          "type": "address"
        }
      ],
      "name": "balanceOf",
      "outputs": [
        {
          "internalType": "uint256",
          "name": "",
          "type": "uint256"
        }
      ],
      "stateMutability": "view",
      "type": "function"
    },
    {
      "inputs": [
        {
          "internalType": "address",
          "name": "",
          "type": "address"
        },
        {
          "internalType": "uint256",
          "name": "",
          "type": "uint256"
        }
      ],
      "name": "benefitsIdByCustomer",
      "outputs": [
        {
          "internalType": "uint256",
          "name": "",
          "type": "uint256"
        }
      ],
      "stateMutability": "view",
      "type": "function"
    },
    {
      "inputs": [
        {
          "internalType": "uint256",
          "name": "_tokenId",
          "type": "uint256"
        }
      ],
      "name": "checkIn",
      "outputs": [
        {
          "internalType": "bool",
          "name": "",
          "type": "bool"
        }
      ],
      "stateMutability": "nonpayable",
      "type": "function"
    },
    {
      "inputs": [],
      "name": "erc777",
      "outputs": [
        {
          "internalType": "contract ERC777",
          "name": "",
          "type": "address"
        }
      ],
      "stateMutability": "view",
      "type": "function"
    },
    {
      "inputs": [
        {
          "internalType": "uint256",
          "name": "tokenId",
          "type": "uint256"
        }
      ],
      "name": "getApproved",
      "outputs": [
        {
          "internalType": "address",
          "name": "",
          "type": "address"
        }
      ],
      "stateMutability": "view",
      "type": "function"
    },
    {
      "inputs": [
        {
          "internalType": "address",
          "name": "_owner",
          "type": "address"
        }
      ],
      "name": "getBenefitsIdsByCustomer",
      "outputs": [
        {
          "internalType": "uint256[]",
          "name": "",
          "type": "uint256[]"
        }
      ],
      "stateMutability": "view",
      "type": "function"
    },
    {
      "inputs": [
        {
          "internalType": "address",
          "name": "owner",
          "type": "address"
        },
        {
          "internalType": "address",
          "name": "operator",
          "type": "address"
        }
      ],
      "name": "isApprovedForAll",
      "outputs": [
        {
          "internalType": "bool",
          "name": "",
          "type": "bool"
        }
      ],
      "stateMutability": "view",
      "type": "function"
    },
    {
      "inputs": [],
      "name": "isManagerOrAdmin",
      "outputs": [
        {
          "internalType": "bool",
          "name": "",
          "type": "bool"
        }
      ],
      "stateMutability": "view",
      "type": "function"
    },
    {
      "inputs": [],
      "name": "maxMint",
      "outputs": [
        {
          "internalType": "uint256",
          "name": "",
          "type": "uint256"
        }
      ],
      "stateMutability": "view",
      "type": "function"
    },
    {
      "inputs": [],
      "name": "name",
      "outputs": [
        {
          "internalType": "string",
          "name": "",
          "type": "string"
        }
      ],
      "stateMutability": "view",
      "type": "function"
    },
    {
      "inputs": [
        {
          "internalType": "uint256",
          "name": "tokenId",
          "type": "uint256"
        }
      ],
      "name": "ownerOf",
      "outputs": [
        {
          "internalType": "address",
          "name": "",
          "type": "address"
        }
      ],
      "stateMutability": "view",
      "type": "function"
    },
    {
      "inputs": [],
      "name": "price",
      "outputs": [
        {
          "internalType": "uint256",
          "name": "",
          "type": "uint256"
        }
      ],
      "stateMutability": "view",
      "type": "function"
    },
    {
      "inputs": [
        {
          "internalType": "address",
          "name": "_customer",
          "type": "address"
        },
        {
          "internalType": "uint256",
          "name": "_tokenId",
          "type": "uint256"
        }
      ],
      "name": "redeemBenefit",
      "outputs": [
        {
          "internalType": "bool",
          "name": "",
          "type": "bool"
        }
      ],
      "stateMutability": "nonpayable",
      "type": "function"
    },
    {
      "inputs": [
        {
          "internalType": "address",
          "name": "_tokenAddress",
          "type": "address"
        }
      ],
      "name": "safeMint",
      "outputs": [
        {
          "internalType": "uint256",
          "name": "",
          "type": "uint256"
        }
      ],
      "stateMutability": "nonpayable",
      "type": "function"
    },
    {
      "inputs": [
        {
          "internalType": "address",
          "name": "from",
          "type": "address"
        },
        {
          "internalType": "address",
          "name": "to",
          "type": "address"
        },
        {
          "internalType": "uint256",
          "name": "tokenId",
          "type": "uint256"
        }
      ],
      "name": "safeTransferFrom",
      "outputs": [],
      "stateMutability": "nonpayable",
      "type": "function"
    },
    {
      "inputs": [
        {
          "internalType": "address",
          "name": "from",
          "type": "address"
        },
        {
          "internalType": "address",
          "name": "to",
          "type": "address"
        },
        {
          "internalType": "uint256",
          "name": "tokenId",
          "type": "uint256"
        },
        {
          "internalType": "bytes",
          "name": "data",
          "type": "bytes"
        }
      ],
      "name": "safeTransferFrom",
      "outputs": [],
      "stateMutability": "nonpayable",
      "type": "function"
    },
    {
      "inputs": [
        {
          "internalType": "address",
          "name": "operator",
          "type": "address"
        },
        {
          "internalType": "bool",
          "name": "approved",
          "type": "bool"
        }
      ],
      "name": "setApprovalForAll",
      "outputs": [],
      "stateMutability": "nonpayable",
      "type": "function"
    },
    {
      "inputs": [
        {
          "internalType": "bytes4",
          "name": "interfaceId",
          "type": "bytes4"
        }
      ],
      "name": "supportsInterface",
      "outputs": [
        {
          "internalType": "bool",
          "name": "",
          "type": "bool"
        }
      ],
      "stateMutability": "view",
      "type": "function"
    },
    {
      "inputs": [],
      "name": "symbol",
      "outputs": [
        {
          "internalType": "string",
          "name": "",
          "type": "string"
        }
      ],
      "stateMutability": "view",
      "type": "function"
    },
    {
      "inputs": [],
      "name": "tokenIdCounter",
      "outputs": [
        {
          "internalType": "uint256",
          "name": "_value",
          "type": "uint256"
        }
      ],
      "stateMutability": "view",
      "type": "function"
    },
    {
      "inputs": [
        {
          "internalType": "uint256",
          "name": "tokenId",
          "type": "uint256"
        }
      ],
      "name": "tokenURI",
      "outputs": [
        {
          "internalType": "string",
          "name": "",
          "type": "string"
        }
      ],
      "stateMutability": "view",
      "type": "function"
    },
    {
      "inputs": [
        {
          "internalType": "uint256",
          "name": "",
          "type": "uint256"
        }
      ],
      "name": "tokens",
      "outputs": [
        {
          "internalType": "uint256",
          "name": "id",
          "type": "uint256"
        },
        {
          "internalType": "string",
          "name": "URI",
          "type": "string"
        },
        {
          "internalType": "bool",
          "name": "checkIn",
          "type": "bool"
        },
        {
          "internalType": "bool",
          "name": "redeem",
          "type": "bool"
        },
        {
          "internalType": "address",
          "name": "buyer",
          "type": "address"
        }
      ],
      "stateMutability": "view",
      "type": "function"
    },
    {
      "inputs": [
        {
          "internalType": "address",
          "name": "_operator",
          "type": "address"
        },
        {
          "internalType": "address",
          "name": "_from",
          "type": "address"
        },
        {
          "internalType": "address",
          "name": "_to",
          "type": "address"
        },
        {
          "internalType": "uint256",
          "name": "_amount",
          "type": "uint256"
        },
        {
          "internalType": "bytes",
          "name": "_userData",
          "type": "bytes"
        },
        {
          "internalType": "bytes",
          "name": "_operatorData",
          "type": "bytes"
        }
      ],
      "name": "tokensReceived",
      "outputs": [],
      "stateMutability": "nonpayable",
      "type": "function"
    },
    {
      "inputs": [
        {
          "internalType": "address",
          "name": "from",
          "type": "address"
        },
        {
          "internalType": "address",
          "name": "to",
          "type": "address"
        },
        {
          "internalType": "uint256",
          "name": "tokenId",
          "type": "uint256"
        }
      ],
      "name": "transferFrom",
      "outputs": [],
      "stateMutability": "nonpayable",
      "type": "function"
    },
    {
      "inputs": [],
      "name": "uri",
      "outputs": [
        {
          "internalType": "string",
          "name": "",
          "type": "string"
        }
      ],
      "stateMutability": "view",
      "type": "function"
    },
    {
      "inputs": [],
      "name": "withdrawTokens",
      "outputs": [],
      "stateMutability": "nonpayable",
      "type": "function"
    }
  ],
  "bytecode": "0x60c06040523480156200001157600080fd5b5060405162004e3a38038062004e3a83398181016040528101906200003791906200058d565b82828281600090816200004b9190620008de565b5080600190816200005d9190620008de565b505050731820a4b7618bde71dce8cdc73aab6c95905fad2473ffffffffffffffffffffffffffffffffffffffff166329965a1d307fb281fc8c12954d22544db45de3159a39272895b169a852b314f9cc762e44c53b306040518463ffffffff1660e01b8152600401620000d393929190620009f1565b600060405180830381600087803b158015620000ee57600080fd5b505af115801562000103573d6000803e3d6000fd5b505050508073ffffffffffffffffffffffffffffffffffffffff1660808173ffffffffffffffffffffffffffffffffffffffff16815250503373ffffffffffffffffffffffffffffffffffffffff1660a08173ffffffffffffffffffffffffffffffffffffffff1681525050506200018b336008620001d360201b620018d91790919060201c565b620001a6876009620001d360201b620018d91790919060201c565b84600e9081620001b79190620008de565b508360108190555085600f819055505050505050505062000b49565b620001e582826200028660201b60201c565b1562000228576040517f08c379a00000000000000000000000000000000000000000000000000000000081526004016200021f9062000a8f565b60405180910390fd5b60018260000160008373ffffffffffffffffffffffffffffffffffffffff1673ffffffffffffffffffffffffffffffffffffffff16815260200190815260200160002060006101000a81548160ff0219169083151502179055505050565b60008073ffffffffffffffffffffffffffffffffffffffff168273ffffffffffffffffffffffffffffffffffffffff1603620002f9576040517f08c379a0000000000000000000000000000000000000000000000000000000008152600401620002f09062000b27565b60405180910390fd5b8260000160008373ffffffffffffffffffffffffffffffffffffffff1673ffffffffffffffffffffffffffffffffffffffff16815260200190815260200160002060009054906101000a900460ff16905092915050565b6000604051905090565b600080fd5b600080fd5b600073ffffffffffffffffffffffffffffffffffffffff82169050919050565b6000620003918262000364565b9050919050565b620003a38162000384565b8114620003af57600080fd5b50565b600081519050620003c38162000398565b92915050565b6000819050919050565b620003de81620003c9565b8114620003ea57600080fd5b50565b600081519050620003fe81620003d3565b92915050565b600080fd5b600080fd5b6000601f19601f8301169050919050565b7f4e487b7100000000000000000000000000000000000000000000000000000000600052604160045260246000fd5b62000459826200040e565b810181811067ffffffffffffffff821117156200047b576200047a6200041f565b5b80604052505050565b60006200049062000350565b90506200049e82826200044e565b919050565b600067ffffffffffffffff821115620004c157620004c06200041f565b5b620004cc826200040e565b9050602081019050919050565b60005b83811015620004f9578082015181840152602081019050620004dc565b8381111562000509576000848401525b50505050565b6000620005266200052084620004a3565b62000484565b90508281526020810184848401111562000545576200054462000409565b5b62000552848285620004d9565b509392505050565b600082601f83011262000572576200057162000404565b5b8151620005848482602086016200050f565b91505092915050565b600080600080600080600060e0888a031215620005af57620005ae6200035a565b5b6000620005bf8a828b01620003b2565b9750506020620005d28a828b01620003ed565b965050604088015167ffffffffffffffff811115620005f657620005f56200035f565b5b620006048a828b016200055a565b9550506060620006178a828b01620003ed565b94505060806200062a8a828b01620003b2565b93505060a088015167ffffffffffffffff8111156200064e576200064d6200035f565b5b6200065c8a828b016200055a565b92505060c088015167ffffffffffffffff81111562000680576200067f6200035f565b5b6200068e8a828b016200055a565b91505092959891949750929550565b600081519050919050565b7f4e487b7100000000000000000000000000000000000000000000000000000000600052602260045260246000fd5b60006002820490506001821680620006f057607f821691505b602082108103620007065762000705620006a8565b5b50919050565b60008190508160005260206000209050919050565b60006020601f8301049050919050565b600082821b905092915050565b600060088302620007707fffffffffffffffffffffffffffffffffffffffffffffffffffffffffffffffff8262000731565b6200077c868362000731565b95508019841693508086168417925050509392505050565b6000819050919050565b6000620007bf620007b9620007b384620003c9565b62000794565b620003c9565b9050919050565b6000819050919050565b620007db836200079e565b620007f3620007ea82620007c6565b8484546200073e565b825550505050565b600090565b6200080a620007fb565b62000817818484620007d0565b505050565b5b818110156200083f576200083360008262000800565b6001810190506200081d565b5050565b601f8211156200088e5762000858816200070c565b620008638462000721565b8101602085101562000873578190505b6200088b620008828562000721565b8301826200081c565b50505b505050565b600082821c905092915050565b6000620008b36000198460080262000893565b1980831691505092915050565b6000620008ce8383620008a0565b9150826002028217905092915050565b620008e9826200069d565b67ffffffffffffffff8111156200090557620009046200041f565b5b620009118254620006d7565b6200091e82828562000843565b600060209050601f83116001811462000956576000841562000941578287015190505b6200094d8582620008c0565b865550620009bd565b601f19841662000966866200070c565b60005b82811015620009905784890151825560018201915060208501945060208101905062000969565b86831015620009b05784890151620009ac601f891682620008a0565b8355505b6001600288020188555050505b505050505050565b620009d08162000384565b82525050565b6000819050919050565b620009eb81620009d6565b82525050565b600060608201905062000a086000830186620009c5565b62000a176020830185620009e0565b62000a266040830184620009c5565b949350505050565b600082825260208201905092915050565b7f526f6c65733a206163636f756e7420616c72656164792068617320726f6c6500600082015250565b600062000a77601f8362000a2e565b915062000a848262000a3f565b602082019050919050565b6000602082019050818103600083015262000aaa8162000a68565b9050919050565b7f526f6c65733a206163636f756e7420697320746865207a65726f20616464726560008201527f7373000000000000000000000000000000000000000000000000000000000000602082015250565b600062000b0f60228362000a2e565b915062000b1c8262000ab1565b604082019050919050565b6000602082019050818103600083015262000b428162000b00565b9050919050565b60805160a0516142b662000b8460003960008181610fa9015261113b01526000818161120e015281816113470152611e1801526142b66000f3fe608060405234801561001057600080fd5b50600436106101d95760003560e01c80638d8f2adb11610104578063b88d4fde116100a2578063e95a644f11610071578063e95a644f14610582578063e985e9c5146105b2578063eac989f8146105e2578063f958aada14610600576101d9565b8063b88d4fde146104e8578063c87b56dd14610504578063cef073cb14610534578063d4ff134814610564576101d9565b80639e8e4d1d116100de5780639e8e4d1d14610472578063a035b1fe14610490578063a22cb465146104ae578063aa8c217c146104ca576101d9565b80638d8f2adb1461042c57806395d89b411461043657806398bdf6f514610454576101d9565b806340d097c31161017c5780635dab24201161014b5780635dab2420146103905780636352211e146103ae57806370a08231146103de5780637501f7411461040e576101d9565b806340d097c3146102e057806342842e0e146103105780634f64b2be1461032c57806355cfab2214610360576101d9565b8063081812fc116101b8578063081812fc14610248578063095ea7b3146102785780630e1443671461029457806323b872dd146102c4576101d9565b806223de29146101de57806301ffc9a7146101fa57806306fdde031461022a575b600080fd5b6101f860048036038101906101f3919061291b565b61061e565b005b610214600480360381019061020f9190612a42565b610641565b6040516102219190612a8a565b60405180910390f35b610232610723565b60405161023f9190612b3e565b60405180910390f35b610262600480360381019061025d9190612b60565b6107b5565b60405161026f9190612b9c565b60405180910390f35b610292600480360381019061028d9190612bb7565b6107fb565b005b6102ae60048036038101906102a99190612bb7565b610912565b6040516102bb9190612c06565b60405180910390f35b6102de60048036038101906102d99190612c21565b610943565b005b6102fa60048036038101906102f59190612c74565b6109a3565b6040516103079190612c06565b60405180910390f35b61032a60048036038101906103259190612c21565b610df8565b005b61034660048036038101906103419190612b60565b610e18565b604051610357959493929190612ca1565b60405180910390f35b61037a60048036038101906103759190612c74565b610f10565b6040516103879190612db9565b60405180910390f35b610398610fa7565b6040516103a59190612b9c565b60405180910390f35b6103c860048036038101906103c39190612b60565b610fcb565b6040516103d59190612b9c565b60405180910390f35b6103f860048036038101906103f39190612c74565b61107c565b6040516104059190612c06565b60405180910390f35b610416611133565b6040516104239190612c06565b60405180910390f35b610434611139565b005b61043e6112a7565b60405161044b9190612b3e565b60405180910390f35b61045c611339565b6040516104699190612c06565b60405180910390f35b61047a611345565b6040516104879190612e3a565b60405180910390f35b610498611369565b6040516104a59190612c06565b60405180910390f35b6104c860048036038101906104c39190612e81565b61136f565b005b6104d2611385565b6040516104df9190612c06565b60405180910390f35b61050260048036038101906104fd9190612ff1565b61138b565b005b61051e60048036038101906105199190612b60565b6113ed565b60405161052b9190612b3e565b60405180910390f35b61054e60048036038101906105499190612bb7565b6114ff565b60405161055b9190612a8a565b60405180910390f35b61056c611697565b6040516105799190612a8a565b60405180910390f35b61059c60048036038101906105979190612b60565b6116e5565b6040516105a99190612a8a565b60405180910390f35b6105cc60048036038101906105c79190613074565b6117ab565b6040516105d99190612a8a565b60405180910390f35b6105ea61183f565b6040516105f79190612b3e565b60405180910390f35b6106086118cd565b6040516106159190612c06565b60405180910390f35b846007600082825461063091906130e3565b925050819055505050505050505050565b60007f80ac58cd000000000000000000000000000000000000000000000000000000007bffffffffffffffffffffffffffffffffffffffffffffffffffffffff1916827bffffffffffffffffffffffffffffffffffffffffffffffffffffffff1916148061070c57507f5b5e139f000000000000000000000000000000000000000000000000000000007bffffffffffffffffffffffffffffffffffffffffffffffffffffffff1916827bffffffffffffffffffffffffffffffffffffffffffffffffffffffff1916145b8061071c575061071b82611981565b5b9050919050565b60606000805461073290613168565b80601f016020809104026020016040519081016040528092919081815260200182805461075e90613168565b80156107ab5780601f10610780576101008083540402835291602001916107ab565b820191906000526020600020905b81548152906001019060200180831161078e57829003601f168201915b5050505050905090565b60006107c0826119eb565b6004600083815260200190815260200160002060009054906101000a900473ffffffffffffffffffffffffffffffffffffffff169050919050565b600061080682610fcb565b90508073ffffffffffffffffffffffffffffffffffffffff168373ffffffffffffffffffffffffffffffffffffffff1603610876576040517f08c379a000000000000000000000000000000000000000000000000000000000815260040161086d9061320b565b60405180910390fd5b8073ffffffffffffffffffffffffffffffffffffffff16610895611a36565b73ffffffffffffffffffffffffffffffffffffffff1614806108c457506108c3816108be611a36565b6117ab565b5b610903576040517f08c379a00000000000000000000000000000000000000000000000000000000081526004016108fa9061329d565b60405180910390fd5b61090d8383611a3e565b505050565b600d602052816000526040600020818154811061092e57600080fd5b90600052602060002001600091509150505481565b61095461094e611a36565b82611af7565b610993576040517f08c379a000000000000000000000000000000000000000000000000000000000815260040161098a9061332f565b60405180910390fd5b61099e838383611b8c565b505050565b6000600f546109b2600b611df2565b106109f2576040517f08c379a00000000000000000000000000000000000000000000000000000000081526004016109e99061339b565b60405180910390fd5b6010548273ffffffffffffffffffffffffffffffffffffffff1663f38e266a336040518263ffffffff1660e01b8152600401610a2e9190612b9c565b602060405180830381865afa158015610a4b573d6000803e3d6000fd5b505050506040513d601f19601f82011682018060405250810190610a6f91906133d0565b11610aaf576040517f08c379a0000000000000000000000000000000000000000000000000000000008152600401610aa690613449565b60405180910390fd5b8173ffffffffffffffffffffffffffffffffffffffff166325e8e00c336010546040518363ffffffff1660e01b8152600401610aec929190613469565b6020604051808303816000875af1158015610b0b573d6000803e3d6000fd5b505050506040513d601f19601f82011682018060405250810190610b2f91906134a7565b610b3857600080fd5b6000610b44600b611df2565b9050610b50600b611e00565b60006040518060a00160405280838152602001600e8054610b7090613168565b80601f0160208091040260200160405190810160405280929190818152602001828054610b9c90613168565b8015610be95780601f10610bbe57610100808354040283529160200191610be9565b820191906000526020600020905b815481529060010190602001808311610bcc57829003601f168201915b505050505081526020016000151581526020016000151581526020013373ffffffffffffffffffffffffffffffffffffffff16815250905080600c6000848152602001908152602001600020600082015181600001556020820151816001019081610c549190613676565b5060408201518160020160006101000a81548160ff02191690831515021790555060608201518160020160016101000a81548160ff02191690831515021790555060808201518160020160026101000a81548173ffffffffffffffffffffffffffffffffffffffff021916908373ffffffffffffffffffffffffffffffffffffffff160217905550905050600d60003373ffffffffffffffffffffffffffffffffffffffff1673ffffffffffffffffffffffffffffffffffffffff168152602001908152602001600020829080600181540180825580915050600190039060005260206000200160009091909190915055610d50601054611e16565b610d5a3383611ec1565b610dee82600e8054610d6b90613168565b80601f0160208091040260200160405190810160405280929190818152602001828054610d9790613168565b8015610de45780601f10610db957610100808354040283529160200191610de4565b820191906000526020600020905b815481529060010190602001808311610dc757829003601f168201915b5050505050611edf565b8192505050919050565b610e138383836040518060200160405280600081525061138b565b505050565b600c602052806000526040600020600091509050806000015490806001018054610e4190613168565b80601f0160208091040260200160405190810160405280929190818152602001828054610e6d90613168565b8015610eba5780601f10610e8f57610100808354040283529160200191610eba565b820191906000526020600020905b815481529060010190602001808311610e9d57829003601f168201915b5050505050908060020160009054906101000a900460ff16908060020160019054906101000a900460ff16908060020160029054906101000a900473ffffffffffffffffffffffffffffffffffffffff16905085565b6060600d60008373ffffffffffffffffffffffffffffffffffffffff1673ffffffffffffffffffffffffffffffffffffffff168152602001908152602001600020805480602002602001604051908101604052809291908181526020018280548015610f9b57602002820191906000526020600020905b815481526020019060010190808311610f87575b50505050509050919050565b7f000000000000000000000000000000000000000000000000000000000000000081565b6000806002600084815260200190815260200160002060009054906101000a900473ffffffffffffffffffffffffffffffffffffffff169050600073ffffffffffffffffffffffffffffffffffffffff168173ffffffffffffffffffffffffffffffffffffffff1603611073576040517f08c379a000000000000000000000000000000000000000000000000000000000815260040161106a90613794565b60405180910390fd5b80915050919050565b60008073ffffffffffffffffffffffffffffffffffffffff168273ffffffffffffffffffffffffffffffffffffffff16036110ec576040517f08c379a00000000000000000000000000000000000000000000000000000000081526004016110e390613826565b60405180910390fd5b600360008373ffffffffffffffffffffffffffffffffffffffff1673ffffffffffffffffffffffffffffffffffffffff168152602001908152602001600020549050919050565b600f5481565b7f000000000000000000000000000000000000000000000000000000000000000073ffffffffffffffffffffffffffffffffffffffff163373ffffffffffffffffffffffffffffffffffffffff16146111c7576040517f08c379a00000000000000000000000000000000000000000000000000000000081526004016111be906138b8565b60405180910390fd5b60006007541161120c576040517f08c379a000000000000000000000000000000000000000000000000000000000815260040161120390613924565b60405180910390fd5b7f000000000000000000000000000000000000000000000000000000000000000073ffffffffffffffffffffffffffffffffffffffff166362ad1b8330336007546040518463ffffffff1660e01b815260040161126b9392919061397b565b600060405180830381600087803b15801561128557600080fd5b505af1158015611299573d6000803e3d6000fd5b505050506000600781905550565b6060600180546112b690613168565b80601f01602080910402602001604051908101604052809291908181526020018280546112e290613168565b801561132f5780601f106113045761010080835404028352916020019161132f565b820191906000526020600020905b81548152906001019060200180831161131257829003601f168201915b5050505050905090565b600b8060000154905081565b7f000000000000000000000000000000000000000000000000000000000000000081565b60105481565b61138161137a611a36565b8383611f4c565b5050565b60075481565b61139c611396611a36565b83611af7565b6113db576040517f08c379a00000000000000000000000000000000000000000000000000000000081526004016113d29061332f565b60405180910390fd5b6113e7848484846120b8565b50505050565b60606113f8826119eb565b600060066000848152602001908152602001600020805461141890613168565b80601f016020809104026020016040519081016040528092919081815260200182805461144490613168565b80156114915780601f1061146657610100808354040283529160200191611491565b820191906000526020600020905b81548152906001019060200180831161147457829003601f168201915b5050505050905060006114a2612114565b905060008151036114b75781925050506114fa565b6000825111156114ec5780826040516020016114d4929190613a14565b604051602081830303815290604052925050506114fa565b6114f58461212b565b925050505b919050565b600061151533600961219390919063ffffffff16565b80611530575061152f33600861219390919063ffffffff16565b5b61156f576040517f08c379a000000000000000000000000000000000000000000000000000000000815260040161156690613a84565b60405180910390fd5b8273ffffffffffffffffffffffffffffffffffffffff1661158f83610fcb565b73ffffffffffffffffffffffffffffffffffffffff16146115e5576040517f08c379a00000000000000000000000000000000000000000000000000000000081526004016115dc90613af0565b60405180910390fd5b600c600083815260200190815260200160002060020160009054906101000a900460ff16611648576040517f08c379a000000000000000000000000000000000000000000000000000000000815260040161163f90613b5c565b60405180910390fd5b6000600c6000848152602001908152602001600020905060018160020160016101000a81548160ff0219169083151502179055508060020160019054906101000a900460ff1691505092915050565b60006116ad33600961219390919063ffffffff16565b156116bb57600190506116e2565b6116cf33600861219390919063ffffffff16565b156116dd57600190506116e2565b600090505b90565b60003373ffffffffffffffffffffffffffffffffffffffff1661170783610fcb565b73ffffffffffffffffffffffffffffffffffffffff161461175d576040517f08c379a000000000000000000000000000000000000000000000000000000000815260040161175490613bc8565b60405180910390fd5b6000600c6000848152602001908152602001600020905060018160020160006101000a81548160ff0219169083151502179055508060020160009054906101000a900460ff16915050919050565b6000600560008473ffffffffffffffffffffffffffffffffffffffff1673ffffffffffffffffffffffffffffffffffffffff16815260200190815260200160002060008373ffffffffffffffffffffffffffffffffffffffff1673ffffffffffffffffffffffffffffffffffffffff16815260200190815260200160002060009054906101000a900460ff16905092915050565b600e805461184c90613168565b80601f016020809104026020016040519081016040528092919081815260200182805461187890613168565b80156118c55780601f1061189a576101008083540402835291602001916118c5565b820191906000526020600020905b8154815290600101906020018083116118a857829003601f168201915b505050505081565b600a8060000154905081565b6118e38282612193565b15611923576040517f08c379a000000000000000000000000000000000000000000000000000000000815260040161191a90613c34565b60405180910390fd5b60018260000160008373ffffffffffffffffffffffffffffffffffffffff1673ffffffffffffffffffffffffffffffffffffffff16815260200190815260200160002060006101000a81548160ff0219169083151502179055505050565b60007f01ffc9a7000000000000000000000000000000000000000000000000000000007bffffffffffffffffffffffffffffffffffffffffffffffffffffffff1916827bffffffffffffffffffffffffffffffffffffffffffffffffffffffff1916149050919050565b6119f48161225a565b611a33576040517f08c379a0000000000000000000000000000000000000000000000000000000008152600401611a2a90613794565b60405180910390fd5b50565b600033905090565b816004600083815260200190815260200160002060006101000a81548173ffffffffffffffffffffffffffffffffffffffff021916908373ffffffffffffffffffffffffffffffffffffffff160217905550808273ffffffffffffffffffffffffffffffffffffffff16611ab183610fcb565b73ffffffffffffffffffffffffffffffffffffffff167f8c5be1e5ebec7d5bd14f71427d1e84f3dd0314c0f7b2291e5b200ac8c7c3b92560405160405180910390a45050565b600080611b0383610fcb565b90508073ffffffffffffffffffffffffffffffffffffffff168473ffffffffffffffffffffffffffffffffffffffff161480611b455750611b4481856117ab565b5b80611b8357508373ffffffffffffffffffffffffffffffffffffffff16611b6b846107b5565b73ffffffffffffffffffffffffffffffffffffffff16145b91505092915050565b8273ffffffffffffffffffffffffffffffffffffffff16611bac82610fcb565b73ffffffffffffffffffffffffffffffffffffffff1614611c02576040517f08c379a0000000000000000000000000000000000000000000000000000000008152600401611bf990613cc6565b60405180910390fd5b600073ffffffffffffffffffffffffffffffffffffffff168273ffffffffffffffffffffffffffffffffffffffff1603611c71576040517f08c379a0000000000000000000000000000000000000000000000000000000008152600401611c6890613d58565b60405180910390fd5b611c7c8383836122c6565b611c87600082611a3e565b6001600360008573ffffffffffffffffffffffffffffffffffffffff1673ffffffffffffffffffffffffffffffffffffffff1681526020019081526020016000206000828254611cd79190613d78565b925050819055506001600360008473ffffffffffffffffffffffffffffffffffffffff1673ffffffffffffffffffffffffffffffffffffffff1681526020019081526020016000206000828254611d2e91906130e3565b92505081905550816002600083815260200190815260200160002060006101000a81548173ffffffffffffffffffffffffffffffffffffffff021916908373ffffffffffffffffffffffffffffffffffffffff160217905550808273ffffffffffffffffffffffffffffffffffffffff168473ffffffffffffffffffffffffffffffffffffffff167fddf252ad1be2c89b69c2b068fc378daa952ba7f163c4a11628f55a4df523b3ef60405160405180910390a4611ded8383836122cb565b505050565b600081600001549050919050565b6001816000016000828254019250508190555050565b7f000000000000000000000000000000000000000000000000000000000000000073ffffffffffffffffffffffffffffffffffffffff166362ad1b833330846040518463ffffffff1660e01b8152600401611e739392919061397b565b600060405180830381600087803b158015611e8d57600080fd5b505af1158015611ea1573d6000803e3d6000fd5b505050508060076000828254611eb791906130e3565b9250508190555050565b611edb8282604051806020016040528060008152506122d0565b5050565b611ee88261225a565b611f27576040517f08c379a0000000000000000000000000000000000000000000000000000000008152600401611f1e90613e1e565b60405180910390fd5b80600660008481526020019081526020016000209081611f479190613676565b505050565b8173ffffffffffffffffffffffffffffffffffffffff168373ffffffffffffffffffffffffffffffffffffffff1603611fba576040517f08c379a0000000000000000000000000000000000000000000000000000000008152600401611fb190613e8a565b60405180910390fd5b80600560008573ffffffffffffffffffffffffffffffffffffffff1673ffffffffffffffffffffffffffffffffffffffff16815260200190815260200160002060008473ffffffffffffffffffffffffffffffffffffffff1673ffffffffffffffffffffffffffffffffffffffff16815260200190815260200160002060006101000a81548160ff0219169083151502179055508173ffffffffffffffffffffffffffffffffffffffff168373ffffffffffffffffffffffffffffffffffffffff167f17307eab39ab6107e8899845ad3d59bd9653f200f220920489ca2b5937696c31836040516120ab9190612a8a565b60405180910390a3505050565b6120c3848484611b8c565b6120cf8484848461232b565b61210e576040517f08c379a000000000000000000000000000000000000000000000000000000000815260040161210590613f1c565b60405180910390fd5b50505050565b606060405180602001604052806000815250905090565b6060612136826119eb565b6000612140612114565b90506000815111612160576040518060200160405280600081525061218b565b8061216a846124b2565b60405160200161217b929190613a14565b6040516020818303038152906040525b915050919050565b60008073ffffffffffffffffffffffffffffffffffffffff168273ffffffffffffffffffffffffffffffffffffffff1603612203576040517f08c379a00000000000000000000000000000000000000000000000000000000081526004016121fa90613fae565b60405180910390fd5b8260000160008373ffffffffffffffffffffffffffffffffffffffff1673ffffffffffffffffffffffffffffffffffffffff16815260200190815260200160002060009054906101000a900460ff16905092915050565b60008073ffffffffffffffffffffffffffffffffffffffff166002600084815260200190815260200160002060009054906101000a900473ffffffffffffffffffffffffffffffffffffffff1673ffffffffffffffffffffffffffffffffffffffff1614159050919050565b505050565b505050565b6122da8383612612565b6122e7600084848461232b565b612326576040517f08c379a000000000000000000000000000000000000000000000000000000000815260040161231d90613f1c565b60405180910390fd5b505050565b600061234c8473ffffffffffffffffffffffffffffffffffffffff166127eb565b156124a5578373ffffffffffffffffffffffffffffffffffffffff1663150b7a02612375611a36565b8786866040518563ffffffff1660e01b81526004016123979493929190614012565b6020604051808303816000875af19250505080156123d357506040513d601f19601f820116820180604052508101906123d09190614073565b60015b612455573d8060008114612403576040519150601f19603f3d011682016040523d82523d6000602084013e612408565b606091505b50600081510361244d576040517f08c379a000000000000000000000000000000000000000000000000000000000815260040161244490613f1c565b60405180910390fd5b805181602001fd5b63150b7a0260e01b7bffffffffffffffffffffffffffffffffffffffffffffffffffffffff1916817bffffffffffffffffffffffffffffffffffffffffffffffffffffffff1916149150506124aa565b600190505b949350505050565b6060600082036124f9576040518060400160405280600181526020017f3000000000000000000000000000000000000000000000000000000000000000815250905061260d565b600082905060005b6000821461252b578080612514906140a0565b915050600a826125249190614117565b9150612501565b60008167ffffffffffffffff81111561254757612546612ec6565b5b6040519080825280601f01601f1916602001820160405280156125795781602001600182028036833780820191505090505b5090505b60008514612606576001826125929190613d78565b9150600a856125a19190614148565b60306125ad91906130e3565b60f81b8183815181106125c3576125c2614179565b5b60200101907effffffffffffffffffffffffffffffffffffffffffffffffffffffffffffff1916908160001a905350600a856125ff9190614117565b945061257d565b8093505050505b919050565b600073ffffffffffffffffffffffffffffffffffffffff168273ffffffffffffffffffffffffffffffffffffffff1603612681576040517f08c379a0000000000000000000000000000000000000000000000000000000008152600401612678906141f4565b60405180910390fd5b61268a8161225a565b156126ca576040517f08c379a00000000000000000000000000000000000000000000000000000000081526004016126c190614260565b60405180910390fd5b6126d6600083836122c6565b6001600360008473ffffffffffffffffffffffffffffffffffffffff1673ffffffffffffffffffffffffffffffffffffffff168152602001908152602001600020600082825461272691906130e3565b92505081905550816002600083815260200190815260200160002060006101000a81548173ffffffffffffffffffffffffffffffffffffffff021916908373ffffffffffffffffffffffffffffffffffffffff160217905550808273ffffffffffffffffffffffffffffffffffffffff16600073ffffffffffffffffffffffffffffffffffffffff167fddf252ad1be2c89b69c2b068fc378daa952ba7f163c4a11628f55a4df523b3ef60405160405180910390a46127e7600083836122cb565b5050565b6000808273ffffffffffffffffffffffffffffffffffffffff163b119050919050565b6000604051905090565b600080fd5b600080fd5b600073ffffffffffffffffffffffffffffffffffffffff82169050919050565b600061284d82612822565b9050919050565b61285d81612842565b811461286857600080fd5b50565b60008135905061287a81612854565b92915050565b6000819050919050565b61289381612880565b811461289e57600080fd5b50565b6000813590506128b08161288a565b92915050565b600080fd5b600080fd5b600080fd5b60008083601f8401126128db576128da6128b6565b5b8235905067ffffffffffffffff8111156128f8576128f76128bb565b5b602083019150836001820283011115612914576129136128c0565b5b9250929050565b60008060008060008060008060c0898b03121561293b5761293a612818565b5b60006129498b828c0161286b565b985050602061295a8b828c0161286b565b975050604061296b8b828c0161286b565b965050606061297c8b828c016128a1565b955050608089013567ffffffffffffffff81111561299d5761299c61281d565b5b6129a98b828c016128c5565b945094505060a089013567ffffffffffffffff8111156129cc576129cb61281d565b5b6129d88b828c016128c5565b92509250509295985092959890939650565b60007fffffffff0000000000000000000000000000000000000000000000000000000082169050919050565b612a1f816129ea565b8114612a2a57600080fd5b50565b600081359050612a3c81612a16565b92915050565b600060208284031215612a5857612a57612818565b5b6000612a6684828501612a2d565b91505092915050565b60008115159050919050565b612a8481612a6f565b82525050565b6000602082019050612a9f6000830184612a7b565b92915050565b600081519050919050565b600082825260208201905092915050565b60005b83811015612adf578082015181840152602081019050612ac4565b83811115612aee576000848401525b50505050565b6000601f19601f8301169050919050565b6000612b1082612aa5565b612b1a8185612ab0565b9350612b2a818560208601612ac1565b612b3381612af4565b840191505092915050565b60006020820190508181036000830152612b588184612b05565b905092915050565b600060208284031215612b7657612b75612818565b5b6000612b84848285016128a1565b91505092915050565b612b9681612842565b82525050565b6000602082019050612bb16000830184612b8d565b92915050565b60008060408385031215612bce57612bcd612818565b5b6000612bdc8582860161286b565b9250506020612bed858286016128a1565b9150509250929050565b612c0081612880565b82525050565b6000602082019050612c1b6000830184612bf7565b92915050565b600080600060608486031215612c3a57612c39612818565b5b6000612c488682870161286b565b9350506020612c598682870161286b565b9250506040612c6a868287016128a1565b9150509250925092565b600060208284031215612c8a57612c89612818565b5b6000612c988482850161286b565b91505092915050565b600060a082019050612cb66000830188612bf7565b8181036020830152612cc88187612b05565b9050612cd76040830186612a7b565b612ce46060830185612a7b565b612cf16080830184612b8d565b9695505050505050565b600081519050919050565b600082825260208201905092915050565b6000819050602082019050919050565b612d3081612880565b82525050565b6000612d428383612d27565b60208301905092915050565b6000602082019050919050565b6000612d6682612cfb565b612d708185612d06565b9350612d7b83612d17565b8060005b83811015612dac578151612d938882612d36565b9750612d9e83612d4e565b925050600181019050612d7f565b5085935050505092915050565b60006020820190508181036000830152612dd38184612d5b565b905092915050565b6000819050919050565b6000612e00612dfb612df684612822565b612ddb565b612822565b9050919050565b6000612e1282612de5565b9050919050565b6000612e2482612e07565b9050919050565b612e3481612e19565b82525050565b6000602082019050612e4f6000830184612e2b565b92915050565b612e5e81612a6f565b8114612e6957600080fd5b50565b600081359050612e7b81612e55565b92915050565b60008060408385031215612e9857612e97612818565b5b6000612ea68582860161286b565b9250506020612eb785828601612e6c565b9150509250929050565b600080fd5b7f4e487b7100000000000000000000000000000000000000000000000000000000600052604160045260246000fd5b612efe82612af4565b810181811067ffffffffffffffff82111715612f1d57612f1c612ec6565b5b80604052505050565b6000612f3061280e565b9050612f3c8282612ef5565b919050565b600067ffffffffffffffff821115612f5c57612f5b612ec6565b5b612f6582612af4565b9050602081019050919050565b82818337600083830152505050565b6000612f94612f8f84612f41565b612f26565b905082815260208101848484011115612fb057612faf612ec1565b5b612fbb848285612f72565b509392505050565b600082601f830112612fd857612fd76128b6565b5b8135612fe8848260208601612f81565b91505092915050565b6000806000806080858703121561300b5761300a612818565b5b60006130198782880161286b565b945050602061302a8782880161286b565b935050604061303b878288016128a1565b925050606085013567ffffffffffffffff81111561305c5761305b61281d565b5b61306887828801612fc3565b91505092959194509250565b6000806040838503121561308b5761308a612818565b5b60006130998582860161286b565b92505060206130aa8582860161286b565b9150509250929050565b7f4e487b7100000000000000000000000000000000000000000000000000000000600052601160045260246000fd5b60006130ee82612880565b91506130f983612880565b9250827fffffffffffffffffffffffffffffffffffffffffffffffffffffffffffffffff0382111561312e5761312d6130b4565b5b828201905092915050565b7f4e487b7100000000000000000000000000000000000000000000000000000000600052602260045260246000fd5b6000600282049050600182168061318057607f821691505b60208210810361319357613192613139565b5b50919050565b7f4552433732313a20617070726f76616c20746f2063757272656e74206f776e6560008201527f7200000000000000000000000000000000000000000000000000000000000000602082015250565b60006131f5602183612ab0565b915061320082613199565b604082019050919050565b60006020820190508181036000830152613224816131e8565b9050919050565b7f4552433732313a20617070726f76652063616c6c6572206973206e6f7420746f60008201527f6b656e206f776e6572206e6f7220617070726f76656420666f7220616c6c0000602082015250565b6000613287603e83612ab0565b91506132928261322b565b604082019050919050565b600060208201905081810360008301526132b68161327a565b9050919050565b7f4552433732313a2063616c6c6572206973206e6f7420746f6b656e206f776e6560008201527f72206e6f7220617070726f766564000000000000000000000000000000000000602082015250565b6000613319602e83612ab0565b9150613324826132bd565b604082019050919050565b600060208201905081810360008301526133488161330c565b9050919050565b7f4d696e74206c696d697420636f6d706c65746564000000000000000000000000600082015250565b6000613385601483612ab0565b91506133908261334f565b602082019050919050565b600060208201905081810360008301526133b481613378565b9050919050565b6000815190506133ca8161288a565b92915050565b6000602082840312156133e6576133e5612818565b5b60006133f4848285016133bb565b91505092915050565b7f496e73756666696369656e7420746f6b656e7300000000000000000000000000600082015250565b6000613433601383612ab0565b915061343e826133fd565b602082019050919050565b6000602082019050818103600083015261346281613426565b9050919050565b600060408201905061347e6000830185612b8d565b61348b6020830184612bf7565b9392505050565b6000815190506134a181612e55565b92915050565b6000602082840312156134bd576134bc612818565b5b60006134cb84828501613492565b91505092915050565b60008190508160005260206000209050919050565b60006020601f8301049050919050565b600082821b905092915050565b6000600883026135367fffffffffffffffffffffffffffffffffffffffffffffffffffffffffffffffff826134f9565b61354086836134f9565b95508019841693508086168417925050509392505050565b600061357361356e61356984612880565b612ddb565b612880565b9050919050565b6000819050919050565b61358d83613558565b6135a16135998261357a565b848454613506565b825550505050565b600090565b6135b66135a9565b6135c1818484613584565b505050565b5b818110156135e5576135da6000826135ae565b6001810190506135c7565b5050565b601f82111561362a576135fb816134d4565b613604846134e9565b81016020851015613613578190505b61362761361f856134e9565b8301826135c6565b50505b505050565b600082821c905092915050565b600061364d6000198460080261362f565b1980831691505092915050565b6000613666838361363c565b9150826002028217905092915050565b61367f82612aa5565b67ffffffffffffffff81111561369857613697612ec6565b5b6136a28254613168565b6136ad8282856135e9565b600060209050601f8311600181146136e057600084156136ce578287015190505b6136d8858261365a565b865550613740565b601f1984166136ee866134d4565b60005b82811015613716578489015182556001820191506020850194506020810190506136f1565b86831015613733578489015161372f601f89168261363c565b8355505b6001600288020188555050505b505050505050565b7f4552433732313a20696e76616c696420746f6b656e2049440000000000000000600082015250565b600061377e601883612ab0565b915061378982613748565b602082019050919050565b600060208201905081810360008301526137ad81613771565b9050919050565b7f4552433732313a2061646472657373207a65726f206973206e6f74206120766160008201527f6c6964206f776e65720000000000000000000000000000000000000000000000602082015250565b6000613810602983612ab0565b915061381b826137b4565b604082019050919050565b6000602082019050818103600083015261383f81613803565b9050919050565b7f4d61726b6574506c616365436f6e74726163743a2063616c6c6572206973206e60008201527f6f7420746865206f776e65720000000000000000000000000000000000000000602082015250565b60006138a2602c83612ab0565b91506138ad82613846565b604082019050919050565b600060208201905081810360008301526138d181613895565b9050919050565b7f546865726520646f6e277420626520746f6b656e730000000000000000000000600082015250565b600061390e601583612ab0565b9150613919826138d8565b602082019050919050565b6000602082019050818103600083015261393d81613901565b9050919050565b600082825260208201905092915050565b50565b6000613965600083613944565b915061397082613955565b600082019050919050565b600060a0820190506139906000830186612b8d565b61399d6020830185612b8d565b6139aa6040830184612bf7565b81810360608301526139bb81613958565b905081810360808301526139ce81613958565b9050949350505050565b600081905092915050565b60006139ee82612aa5565b6139f881856139d8565b9350613a08818560208601612ac1565b80840191505092915050565b6000613a2082856139e3565b9150613a2c82846139e3565b91508190509392505050565b7f444f45535f4e4f545f484156455f4d494e5445525f524f4c4500000000000000600082015250565b6000613a6e601983612ab0565b9150613a7982613a38565b602082019050919050565b60006020820190508181036000830152613a9d81613a61565b9050919050565b7f5468697320746f6b656e20646f65736e277420796f7572000000000000000000600082015250565b6000613ada601783612ab0565b9150613ae582613aa4565b602082019050919050565b60006020820190508181036000830152613b0981613acd565b9050919050565b7f596f75206e65656420746f20646f20636865636b2d696e000000000000000000600082015250565b6000613b46601783612ab0565b9150613b5182613b10565b602082019050919050565b60006020820190508181036000830152613b7581613b39565b9050919050565b7f596f7520617265206e6f7420746865206f776e6572206f6620746865204e4654600082015250565b6000613bb2602083612ab0565b9150613bbd82613b7c565b602082019050919050565b60006020820190508181036000830152613be181613ba5565b9050919050565b7f526f6c65733a206163636f756e7420616c72656164792068617320726f6c6500600082015250565b6000613c1e601f83612ab0565b9150613c2982613be8565b602082019050919050565b60006020820190508181036000830152613c4d81613c11565b9050919050565b7f4552433732313a207472616e736665722066726f6d20696e636f72726563742060008201527f6f776e6572000000000000000000000000000000000000000000000000000000602082015250565b6000613cb0602583612ab0565b9150613cbb82613c54565b604082019050919050565b60006020820190508181036000830152613cdf81613ca3565b9050919050565b7f4552433732313a207472616e7366657220746f20746865207a65726f2061646460008201527f7265737300000000000000000000000000000000000000000000000000000000602082015250565b6000613d42602483612ab0565b9150613d4d82613ce6565b604082019050919050565b60006020820190508181036000830152613d7181613d35565b9050919050565b6000613d8382612880565b9150613d8e83612880565b925082821015613da157613da06130b4565b5b828203905092915050565b7f45524337323155524953746f726167653a2055524920736574206f66206e6f6e60008201527f6578697374656e7420746f6b656e000000000000000000000000000000000000602082015250565b6000613e08602e83612ab0565b9150613e1382613dac565b604082019050919050565b60006020820190508181036000830152613e3781613dfb565b9050919050565b7f4552433732313a20617070726f766520746f2063616c6c657200000000000000600082015250565b6000613e74601983612ab0565b9150613e7f82613e3e565b602082019050919050565b60006020820190508181036000830152613ea381613e67565b9050919050565b7f4552433732313a207472616e7366657220746f206e6f6e20455243373231526560008201527f63656976657220696d706c656d656e7465720000000000000000000000000000602082015250565b6000613f06603283612ab0565b9150613f1182613eaa565b604082019050919050565b60006020820190508181036000830152613f3581613ef9565b9050919050565b7f526f6c65733a206163636f756e7420697320746865207a65726f20616464726560008201527f7373000000000000000000000000000000000000000000000000000000000000602082015250565b6000613f98602283612ab0565b9150613fa382613f3c565b604082019050919050565b60006020820190508181036000830152613fc781613f8b565b9050919050565b600081519050919050565b6000613fe482613fce565b613fee8185613944565b9350613ffe818560208601612ac1565b61400781612af4565b840191505092915050565b60006080820190506140276000830187612b8d565b6140346020830186612b8d565b6140416040830185612bf7565b81810360608301526140538184613fd9565b905095945050505050565b60008151905061406d81612a16565b92915050565b60006020828403121561408957614088612818565b5b60006140978482850161405e565b91505092915050565b60006140ab82612880565b91507fffffffffffffffffffffffffffffffffffffffffffffffffffffffffffffffff82036140dd576140dc6130b4565b5b600182019050919050565b7f4e487b7100000000000000000000000000000000000000000000000000000000600052601260045260246000fd5b600061412282612880565b915061412d83612880565b92508261413d5761413c6140e8565b5b828204905092915050565b600061415382612880565b915061415e83612880565b92508261416e5761416d6140e8565b5b828206905092915050565b7f4e487b7100000000000000000000000000000000000000000000000000000000600052603260045260246000fd5b7f4552433732313a206d696e7420746f20746865207a65726f2061646472657373600082015250565b60006141de602083612ab0565b91506141e9826141a8565b602082019050919050565b6000602082019050818103600083015261420d816141d1565b9050919050565b7f4552433732313a20746f6b656e20616c7265616479206d696e74656400000000600082015250565b600061424a601c83612ab0565b915061425582614214565b602082019050919050565b600060208201905081810360008301526142798161423d565b905091905056fea26469706673582212205a8945b1cbe0b382cb680f7a9f47a8259b021fc016f35be956aafcf9809568c464736f6c634300080f0033",
  "linkReferences": {},
  "deployedLinkReferences": {}
}