{
  "_format": "hh-sol-artifact-1",
  "contractName": "BenefitContract",
  "sourceName": "src/blockchain/hardhat/contracts/BenefitContract.sol",
  "abi": [
    {
      "inputs": [
        {
          "internalType": "address",
          "name": "_manager",
          "type": "address"
        },
        {
          "internalType": "uint256",
          "name": "_maxMint",
          "type": "uint256"
        },
        {
          "internalType": "string",
          "name": "_uri",
          "type": "string"
        },
        {
          "internalType": "uint256",
          "name": "_price",
          "type": "uint256"
        },
        {
          "internalType": "address",
          "name": "_erc777Address",
          "type": "address"
        },
        {
          "internalType": "string",
          "name": "_name",
          "type": "string"
        },
        {
          "internalType": "string",
          "name": "_symbol",
          "type": "string"
        }
      ],
      "stateMutability": "nonpayable",
      "type": "constructor"
    },
    {
      "anonymous": false,
      "inputs": [
        {
          "indexed": true,
          "internalType": "address",
          "name": "owner",
          "type": "address"
        },
        {
          "indexed": true,
          "internalType": "address",
          "name": "approved",
          "type": "address"
        },
        {
          "indexed": true,
          "internalType": "uint256",
          "name": "tokenId",
          "type": "uint256"
        }
      ],
      "name": "Approval",
      "type": "event"
    },
    {
      "anonymous": false,
      "inputs": [
        {
          "indexed": true,
          "internalType": "address",
          "name": "owner",
          "type": "address"
        },
        {
          "indexed": true,
          "internalType": "address",
          "name": "operator",
          "type": "address"
        },
        {
          "indexed": false,
          "internalType": "bool",
          "name": "approved",
          "type": "bool"
        }
      ],
      "name": "ApprovalForAll",
      "type": "event"
    },
    {
      "anonymous": false,
      "inputs": [
        {
          "indexed": true,
          "internalType": "address",
          "name": "from",
          "type": "address"
        },
        {
          "indexed": true,
          "internalType": "address",
          "name": "to",
          "type": "address"
        },
        {
          "indexed": true,
          "internalType": "uint256",
          "name": "tokenId",
          "type": "uint256"
        }
      ],
      "name": "Transfer",
      "type": "event"
    },
    {
      "inputs": [],
      "name": "ItemCounter",
      "outputs": [
        {
          "internalType": "uint256",
          "name": "_value",
          "type": "uint256"
        }
      ],
      "stateMutability": "view",
      "type": "function"
    },
    {
      "inputs": [],
      "name": "account",
      "outputs": [
        {
          "internalType": "address",
          "name": "",
          "type": "address"
        }
      ],
      "stateMutability": "view",
      "type": "function"
    },
    {
      "inputs": [],
      "name": "amount",
      "outputs": [
        {
          "internalType": "uint256",
          "name": "",
          "type": "uint256"
        }
      ],
      "stateMutability": "view",
      "type": "function"
    },
    {
      "inputs": [
        {
          "internalType": "address",
          "name": "to",
          "type": "address"
        },
        {
          "internalType": "uint256",
          "name": "tokenId",
          "type": "uint256"
        }
      ],
      "name": "approve",
      "outputs": [],
      "stateMutability": "nonpayable",
      "type": "function"
    },
    {
      "inputs": [
        {
          "internalType": "address",
          "name": "owner",
          "type": "address"
        }
      ],
      "name": "balanceOf",
      "outputs": [
        {
          "internalType": "uint256",
          "name": "",
          "type": "uint256"
        }
      ],
      "stateMutability": "view",
      "type": "function"
    },
    {
      "inputs": [
        {
          "internalType": "uint256",
          "name": "_tokenId",
          "type": "uint256"
        }
      ],
      "name": "checkIn",
      "outputs": [
        {
          "internalType": "bool",
          "name": "",
          "type": "bool"
        }
      ],
      "stateMutability": "nonpayable",
      "type": "function"
    },
    {
      "inputs": [],
      "name": "erc777",
      "outputs": [
        {
          "internalType": "contract ERC777",
          "name": "",
          "type": "address"
        }
      ],
      "stateMutability": "view",
      "type": "function"
    },
    {
      "inputs": [
        {
          "internalType": "uint256",
          "name": "tokenId",
          "type": "uint256"
        }
      ],
      "name": "getApproved",
      "outputs": [
        {
          "internalType": "address",
          "name": "",
          "type": "address"
        }
      ],
      "stateMutability": "view",
      "type": "function"
    },
    {
      "inputs": [
        {
          "internalType": "address",
          "name": "owner",
          "type": "address"
        },
        {
          "internalType": "address",
          "name": "operator",
          "type": "address"
        }
      ],
      "name": "isApprovedForAll",
      "outputs": [
        {
          "internalType": "bool",
          "name": "",
          "type": "bool"
        }
      ],
      "stateMutability": "view",
      "type": "function"
    },
    {
      "inputs": [],
      "name": "name",
      "outputs": [
        {
          "internalType": "string",
          "name": "",
          "type": "string"
        }
      ],
      "stateMutability": "view",
      "type": "function"
    },
    {
      "inputs": [
        {
          "internalType": "uint256",
          "name": "tokenId",
          "type": "uint256"
        }
      ],
      "name": "ownerOf",
      "outputs": [
        {
          "internalType": "address",
          "name": "",
          "type": "address"
        }
      ],
      "stateMutability": "view",
      "type": "function"
    },
    {
      "inputs": [
        {
          "internalType": "address",
          "name": "_customer",
          "type": "address"
        },
        {
          "internalType": "uint256",
          "name": "_tokenId",
          "type": "uint256"
        }
      ],
      "name": "redeemBenefit",
      "outputs": [
        {
          "internalType": "bool",
          "name": "",
          "type": "bool"
        }
      ],
      "stateMutability": "nonpayable",
      "type": "function"
    },
    {
      "inputs": [
        {
          "internalType": "address",
          "name": "_tokenAddress",
          "type": "address"
        }
      ],
      "name": "safeMint",
      "outputs": [
        {
          "internalType": "uint256",
          "name": "",
          "type": "uint256"
        }
      ],
      "stateMutability": "nonpayable",
      "type": "function"
    },
    {
      "inputs": [
        {
          "internalType": "address",
          "name": "from",
          "type": "address"
        },
        {
          "internalType": "address",
          "name": "to",
          "type": "address"
        },
        {
          "internalType": "uint256",
          "name": "tokenId",
          "type": "uint256"
        }
      ],
      "name": "safeTransferFrom",
      "outputs": [],
      "stateMutability": "nonpayable",
      "type": "function"
    },
    {
      "inputs": [
        {
          "internalType": "address",
          "name": "from",
          "type": "address"
        },
        {
          "internalType": "address",
          "name": "to",
          "type": "address"
        },
        {
          "internalType": "uint256",
          "name": "tokenId",
          "type": "uint256"
        },
        {
          "internalType": "bytes",
          "name": "data",
          "type": "bytes"
        }
      ],
      "name": "safeTransferFrom",
      "outputs": [],
      "stateMutability": "nonpayable",
      "type": "function"
    },
    {
      "inputs": [
        {
          "internalType": "address",
          "name": "operator",
          "type": "address"
        },
        {
          "internalType": "bool",
          "name": "approved",
          "type": "bool"
        }
      ],
      "name": "setApprovalForAll",
      "outputs": [],
      "stateMutability": "nonpayable",
      "type": "function"
    },
    {
      "inputs": [
        {
          "internalType": "bytes4",
          "name": "interfaceId",
          "type": "bytes4"
        }
      ],
      "name": "supportsInterface",
      "outputs": [
        {
          "internalType": "bool",
          "name": "",
          "type": "bool"
        }
      ],
      "stateMutability": "view",
      "type": "function"
    },
    {
      "inputs": [],
      "name": "symbol",
      "outputs": [
        {
          "internalType": "string",
          "name": "",
          "type": "string"
        }
      ],
      "stateMutability": "view",
      "type": "function"
    },
    {
      "inputs": [],
      "name": "tokenIdCounter",
      "outputs": [
        {
          "internalType": "uint256",
          "name": "_value",
          "type": "uint256"
        }
      ],
      "stateMutability": "view",
      "type": "function"
    },
    {
      "inputs": [
        {
          "internalType": "uint256",
          "name": "tokenId",
          "type": "uint256"
        }
      ],
      "name": "tokenURI",
      "outputs": [
        {
          "internalType": "string",
          "name": "",
          "type": "string"
        }
      ],
      "stateMutability": "view",
      "type": "function"
    },
    {
      "inputs": [
        {
          "internalType": "uint256",
          "name": "",
          "type": "uint256"
        }
      ],
      "name": "tokens",
      "outputs": [
        {
          "internalType": "uint256",
          "name": "id",
          "type": "uint256"
        },
        {
          "internalType": "string",
          "name": "URI",
          "type": "string"
        },
        {
          "internalType": "bool",
          "name": "checkIn",
          "type": "bool"
        },
        {
          "internalType": "bool",
          "name": "redeem",
          "type": "bool"
        }
      ],
      "stateMutability": "view",
      "type": "function"
    },
    {
      "inputs": [
        {
          "internalType": "address",
          "name": "_operator",
          "type": "address"
        },
        {
          "internalType": "address",
          "name": "_from",
          "type": "address"
        },
        {
          "internalType": "address",
          "name": "_to",
          "type": "address"
        },
        {
          "internalType": "uint256",
          "name": "_amount",
          "type": "uint256"
        },
        {
          "internalType": "bytes",
          "name": "_userData",
          "type": "bytes"
        },
        {
          "internalType": "bytes",
          "name": "_operatorData",
          "type": "bytes"
        }
      ],
      "name": "tokensReceived",
      "outputs": [],
      "stateMutability": "nonpayable",
      "type": "function"
    },
    {
      "inputs": [
        {
          "internalType": "address",
          "name": "from",
          "type": "address"
        },
        {
          "internalType": "address",
          "name": "to",
          "type": "address"
        },
        {
          "internalType": "uint256",
          "name": "tokenId",
          "type": "uint256"
        }
      ],
      "name": "transferFrom",
      "outputs": [],
      "stateMutability": "nonpayable",
      "type": "function"
    },
    {
      "inputs": [],
      "name": "withdrawTokens",
      "outputs": [],
      "stateMutability": "nonpayable",
      "type": "function"
    }
  ],
  "bytecode": "0x60c06040523480156200001157600080fd5b50604051620049203803806200492083398181016040528101906200003791906200058d565b82828281600090816200004b9190620008de565b5080600190816200005d9190620008de565b505050731820a4b7618bde71dce8cdc73aab6c95905fad2473ffffffffffffffffffffffffffffffffffffffff166329965a1d307fb281fc8c12954d22544db45de3159a39272895b169a852b314f9cc762e44c53b306040518463ffffffff1660e01b8152600401620000d393929190620009f1565b600060405180830381600087803b158015620000ee57600080fd5b505af115801562000103573d6000803e3d6000fd5b505050508073ffffffffffffffffffffffffffffffffffffffff1660808173ffffffffffffffffffffffffffffffffffffffff16815250503373ffffffffffffffffffffffffffffffffffffffff1660a08173ffffffffffffffffffffffffffffffffffffffff1681525050506200018b336008620001d360201b620014ad1790919060201c565b620001a6876009620001d360201b620014ad1790919060201c565b84600d9081620001b79190620008de565b5083600f8190555085600e819055505050505050505062000b49565b620001e582826200028660201b60201c565b1562000228576040517f08c379a00000000000000000000000000000000000000000000000000000000081526004016200021f9062000a8f565b60405180910390fd5b60018260000160008373ffffffffffffffffffffffffffffffffffffffff1673ffffffffffffffffffffffffffffffffffffffff16815260200190815260200160002060006101000a81548160ff0219169083151502179055505050565b60008073ffffffffffffffffffffffffffffffffffffffff168273ffffffffffffffffffffffffffffffffffffffff1603620002f9576040517f08c379a0000000000000000000000000000000000000000000000000000000008152600401620002f09062000b27565b60405180910390fd5b8260000160008373ffffffffffffffffffffffffffffffffffffffff1673ffffffffffffffffffffffffffffffffffffffff16815260200190815260200160002060009054906101000a900460ff16905092915050565b6000604051905090565b600080fd5b600080fd5b600073ffffffffffffffffffffffffffffffffffffffff82169050919050565b6000620003918262000364565b9050919050565b620003a38162000384565b8114620003af57600080fd5b50565b600081519050620003c38162000398565b92915050565b6000819050919050565b620003de81620003c9565b8114620003ea57600080fd5b50565b600081519050620003fe81620003d3565b92915050565b600080fd5b600080fd5b6000601f19601f8301169050919050565b7f4e487b7100000000000000000000000000000000000000000000000000000000600052604160045260246000fd5b62000459826200040e565b810181811067ffffffffffffffff821117156200047b576200047a6200041f565b5b80604052505050565b60006200049062000350565b90506200049e82826200044e565b919050565b600067ffffffffffffffff821115620004c157620004c06200041f565b5b620004cc826200040e565b9050602081019050919050565b60005b83811015620004f9578082015181840152602081019050620004dc565b8381111562000509576000848401525b50505050565b6000620005266200052084620004a3565b62000484565b90508281526020810184848401111562000545576200054462000409565b5b62000552848285620004d9565b509392505050565b600082601f83011262000572576200057162000404565b5b8151620005848482602086016200050f565b91505092915050565b600080600080600080600060e0888a031215620005af57620005ae6200035a565b5b6000620005bf8a828b01620003b2565b9750506020620005d28a828b01620003ed565b965050604088015167ffffffffffffffff811115620005f657620005f56200035f565b5b620006048a828b016200055a565b9550506060620006178a828b01620003ed565b94505060806200062a8a828b01620003b2565b93505060a088015167ffffffffffffffff8111156200064e576200064d6200035f565b5b6200065c8a828b016200055a565b92505060c088015167ffffffffffffffff81111562000680576200067f6200035f565b5b6200068e8a828b016200055a565b91505092959891949750929550565b600081519050919050565b7f4e487b7100000000000000000000000000000000000000000000000000000000600052602260045260246000fd5b60006002820490506001821680620006f057607f821691505b602082108103620007065762000705620006a8565b5b50919050565b60008190508160005260206000209050919050565b60006020601f8301049050919050565b600082821b905092915050565b600060088302620007707fffffffffffffffffffffffffffffffffffffffffffffffffffffffffffffffff8262000731565b6200077c868362000731565b95508019841693508086168417925050509392505050565b6000819050919050565b6000620007bf620007b9620007b384620003c9565b62000794565b620003c9565b9050919050565b6000819050919050565b620007db836200079e565b620007f3620007ea82620007c6565b8484546200073e565b825550505050565b600090565b6200080a620007fb565b62000817818484620007d0565b505050565b5b818110156200083f576200083360008262000800565b6001810190506200081d565b5050565b601f8211156200088e5762000858816200070c565b620008638462000721565b8101602085101562000873578190505b6200088b620008828562000721565b8301826200081c565b50505b505050565b600082821c905092915050565b6000620008b36000198460080262000893565b1980831691505092915050565b6000620008ce8383620008a0565b9150826002028217905092915050565b620008e9826200069d565b67ffffffffffffffff8111156200090557620009046200041f565b5b620009118254620006d7565b6200091e82828562000843565b600060209050601f83116001811462000956576000841562000941578287015190505b6200094d8582620008c0565b865550620009bd565b601f19841662000966866200070c565b60005b82811015620009905784890151825560018201915060208501945060208101905062000969565b86831015620009b05784890151620009ac601f891682620008a0565b8355505b6001600288020188555050505b505050505050565b620009d08162000384565b82525050565b6000819050919050565b620009eb81620009d6565b82525050565b600060608201905062000a086000830186620009c5565b62000a176020830185620009e0565b62000a266040830184620009c5565b949350505050565b600082825260208201905092915050565b7f526f6c65733a206163636f756e7420616c72656164792068617320726f6c6500600082015250565b600062000a77601f8362000a2e565b915062000a848262000a3f565b602082019050919050565b6000602082019050818103600083015262000aaa8162000a68565b9050919050565b7f526f6c65733a206163636f756e7420697320746865207a65726f20616464726560008201527f7373000000000000000000000000000000000000000000000000000000000000602082015250565b600062000b0f60228362000a2e565b915062000b1c8262000ab1565b604082019050919050565b6000602082019050818103600083015262000b428162000b00565b9050919050565b60805160a051613d9c62000b8460003960008181610c910152610e1d015260008181610ef00152818161102901526119ec0152613d9c6000f3fe608060405234801561001057600080fd5b50600436106101575760003560e01c80638d8f2adb116100c3578063b88d4fde1161007c578063b88d4fde146103c9578063c87b56dd146103e5578063cef073cb14610415578063e95a644f14610445578063e985e9c514610475578063f958aada146104a557610157565b80638d8f2adb1461032b57806395d89b411461033557806398bdf6f5146103535780639e8e4d1d14610371578063a22cb4651461038f578063aa8c217c146103ab57610157565b806340d097c31161011557806340d097c31461022e57806342842e0e1461025e5780634f64b2be1461027a5780635dab2420146102ad5780636352211e146102cb57806370a08231146102fb57610157565b806223de291461015c57806301ffc9a71461017857806306fdde03146101a8578063081812fc146101c6578063095ea7b3146101f657806323b872dd14610212575b600080fd5b610176600480360381019061017191906124ef565b6104c3565b005b610192600480360381019061018d9190612616565b6104e6565b60405161019f919061265e565b60405180910390f35b6101b06105c8565b6040516101bd9190612712565b60405180910390f35b6101e060048036038101906101db9190612734565b61065a565b6040516101ed9190612770565b60405180910390f35b610210600480360381019061020b919061278b565b6106a0565b005b61022c600480360381019061022791906127cb565b6107b7565b005b6102486004803603810190610243919061281e565b610817565b604051610255919061285a565b60405180910390f35b610278600480360381019061027391906127cb565b610b9d565b005b610294600480360381019061028f9190612734565b610bbd565b6040516102a49493929190612875565b60405180910390f35b6102b5610c8f565b6040516102c29190612770565b60405180910390f35b6102e560048036038101906102e09190612734565b610cb3565b6040516102f29190612770565b60405180910390f35b6103156004803603810190610310919061281e565b610d64565b604051610322919061285a565b60405180910390f35b610333610e1b565b005b61033d610f89565b60405161034a9190612712565b60405180910390f35b61035b61101b565b604051610368919061285a565b60405180910390f35b610379611027565b6040516103869190612920565b60405180910390f35b6103a960048036038101906103a49190612967565b61104b565b005b6103b3611061565b6040516103c0919061285a565b60405180910390f35b6103e360048036038101906103de9190612ad7565b611067565b005b6103ff60048036038101906103fa9190612734565b6110c9565b60405161040c9190612712565b60405180910390f35b61042f600480360381019061042a919061278b565b6111db565b60405161043c919061265e565b60405180910390f35b61045f600480360381019061045a9190612734565b611347565b60405161046c919061265e565b60405180910390f35b61048f600480360381019061048a9190612b5a565b61140d565b60405161049c919061265e565b60405180910390f35b6104ad6114a1565b6040516104ba919061285a565b60405180910390f35b84600760008282546104d59190612bc9565b925050819055505050505050505050565b60007f80ac58cd000000000000000000000000000000000000000000000000000000007bffffffffffffffffffffffffffffffffffffffffffffffffffffffff1916827bffffffffffffffffffffffffffffffffffffffffffffffffffffffff191614806105b157507f5b5e139f000000000000000000000000000000000000000000000000000000007bffffffffffffffffffffffffffffffffffffffffffffffffffffffff1916827bffffffffffffffffffffffffffffffffffffffffffffffffffffffff1916145b806105c157506105c082611555565b5b9050919050565b6060600080546105d790612c4e565b80601f016020809104026020016040519081016040528092919081815260200182805461060390612c4e565b80156106505780601f1061062557610100808354040283529160200191610650565b820191906000526020600020905b81548152906001019060200180831161063357829003601f168201915b5050505050905090565b6000610665826115bf565b6004600083815260200190815260200160002060009054906101000a900473ffffffffffffffffffffffffffffffffffffffff169050919050565b60006106ab82610cb3565b90508073ffffffffffffffffffffffffffffffffffffffff168373ffffffffffffffffffffffffffffffffffffffff160361071b576040517f08c379a000000000000000000000000000000000000000000000000000000000815260040161071290612cf1565b60405180910390fd5b8073ffffffffffffffffffffffffffffffffffffffff1661073a61160a565b73ffffffffffffffffffffffffffffffffffffffff16148061076957506107688161076361160a565b61140d565b5b6107a8576040517f08c379a000000000000000000000000000000000000000000000000000000000815260040161079f90612d83565b60405180910390fd5b6107b28383611612565b505050565b6107c86107c261160a565b826116cb565b610807576040517f08c379a00000000000000000000000000000000000000000000000000000000081526004016107fe90612e15565b60405180910390fd5b610812838383611760565b505050565b6000600e54610826600b6119c6565b10610866576040517f08c379a000000000000000000000000000000000000000000000000000000000815260040161085d90612e81565b60405180910390fd5b600f548273ffffffffffffffffffffffffffffffffffffffff1663f38e266a336040518263ffffffff1660e01b81526004016108a29190612770565b602060405180830381865afa1580156108bf573d6000803e3d6000fd5b505050506040513d601f19601f820116820180604052508101906108e39190612eb6565b11610923576040517f08c379a000000000000000000000000000000000000000000000000000000000815260040161091a90612f2f565b60405180910390fd5b8173ffffffffffffffffffffffffffffffffffffffff166325e8e00c33600f546040518363ffffffff1660e01b8152600401610960929190612f4f565b6020604051808303816000875af115801561097f573d6000803e3d6000fd5b505050506040513d601f19601f820116820180604052508101906109a39190612f8d565b6109ac57600080fd5b60006109b8600b6119c6565b90506109c4600b6119d4565b6040518060800160405280828152602001600d80546109e290612c4e565b80601f0160208091040260200160405190810160405280929190818152602001828054610a0e90612c4e565b8015610a5b5780601f10610a3057610100808354040283529160200191610a5b565b820191906000526020600020905b815481529060010190602001808311610a3e57829003601f168201915b5050505050815260200160001515815260200160001515815250600c6000838152602001908152602001600020600082015181600001556020820151816001019081610aa7919061315c565b5060408201518160020160006101000a81548160ff02191690831515021790555060608201518160020160016101000a81548160ff021916908315150217905550905050610af6600f546119ea565b610b003382611a95565b610b9481600d8054610b1190612c4e565b80601f0160208091040260200160405190810160405280929190818152602001828054610b3d90612c4e565b8015610b8a5780601f10610b5f57610100808354040283529160200191610b8a565b820191906000526020600020905b815481529060010190602001808311610b6d57829003601f168201915b5050505050611ab3565b80915050919050565b610bb883838360405180602001604052806000815250611067565b505050565b600c602052806000526040600020600091509050806000015490806001018054610be690612c4e565b80601f0160208091040260200160405190810160405280929190818152602001828054610c1290612c4e565b8015610c5f5780601f10610c3457610100808354040283529160200191610c5f565b820191906000526020600020905b815481529060010190602001808311610c4257829003601f168201915b5050505050908060020160009054906101000a900460ff16908060020160019054906101000a900460ff16905084565b7f000000000000000000000000000000000000000000000000000000000000000081565b6000806002600084815260200190815260200160002060009054906101000a900473ffffffffffffffffffffffffffffffffffffffff169050600073ffffffffffffffffffffffffffffffffffffffff168173ffffffffffffffffffffffffffffffffffffffff1603610d5b576040517f08c379a0000000000000000000000000000000000000000000000000000000008152600401610d529061327a565b60405180910390fd5b80915050919050565b60008073ffffffffffffffffffffffffffffffffffffffff168273ffffffffffffffffffffffffffffffffffffffff1603610dd4576040517f08c379a0000000000000000000000000000000000000000000000000000000008152600401610dcb9061330c565b60405180910390fd5b600360008373ffffffffffffffffffffffffffffffffffffffff1673ffffffffffffffffffffffffffffffffffffffff168152602001908152602001600020549050919050565b7f000000000000000000000000000000000000000000000000000000000000000073ffffffffffffffffffffffffffffffffffffffff163373ffffffffffffffffffffffffffffffffffffffff1614610ea9576040517f08c379a0000000000000000000000000000000000000000000000000000000008152600401610ea09061339e565b60405180910390fd5b600060075411610eee576040517f08c379a0000000000000000000000000000000000000000000000000000000008152600401610ee59061340a565b60405180910390fd5b7f000000000000000000000000000000000000000000000000000000000000000073ffffffffffffffffffffffffffffffffffffffff166362ad1b8330336007546040518463ffffffff1660e01b8152600401610f4d93929190613461565b600060405180830381600087803b158015610f6757600080fd5b505af1158015610f7b573d6000803e3d6000fd5b505050506000600781905550565b606060018054610f9890612c4e565b80601f0160208091040260200160405190810160405280929190818152602001828054610fc490612c4e565b80156110115780601f10610fe657610100808354040283529160200191611011565b820191906000526020600020905b815481529060010190602001808311610ff457829003601f168201915b5050505050905090565b600b8060000154905081565b7f000000000000000000000000000000000000000000000000000000000000000081565b61105d61105661160a565b8383611b20565b5050565b60075481565b61107861107261160a565b836116cb565b6110b7576040517f08c379a00000000000000000000000000000000000000000000000000000000081526004016110ae90612e15565b60405180910390fd5b6110c384848484611c8c565b50505050565b60606110d4826115bf565b60006006600084815260200190815260200160002080546110f490612c4e565b80601f016020809104026020016040519081016040528092919081815260200182805461112090612c4e565b801561116d5780601f106111425761010080835404028352916020019161116d565b820191906000526020600020905b81548152906001019060200180831161115057829003601f168201915b50505050509050600061117e611ce8565b905060008151036111935781925050506111d6565b6000825111156111c85780826040516020016111b09291906134fa565b604051602081830303815290604052925050506111d6565b6111d184611cff565b925050505b919050565b60006111f1336009611d6790919063ffffffff16565b8061120c575061120b336008611d6790919063ffffffff16565b5b61124b576040517f08c379a00000000000000000000000000000000000000000000000000000000081526004016112429061356a565b60405180910390fd5b8161125584610d64565b14611295576040517f08c379a000000000000000000000000000000000000000000000000000000000815260040161128c906135d6565b60405180910390fd5b600c600083815260200190815260200160002060020160009054906101000a900460ff166112f8576040517f08c379a00000000000000000000000000000000000000000000000000000000081526004016112ef90613642565b60405180910390fd5b6000600c6000848152602001908152602001600020905060018160020160016101000a81548160ff0219169083151502179055508060020160019054906101000a900460ff1691505092915050565b60003373ffffffffffffffffffffffffffffffffffffffff1661136983610cb3565b73ffffffffffffffffffffffffffffffffffffffff16146113bf576040517f08c379a00000000000000000000000000000000000000000000000000000000081526004016113b6906136ae565b60405180910390fd5b6000600c6000848152602001908152602001600020905060018160020160006101000a81548160ff0219169083151502179055508060020160009054906101000a900460ff16915050919050565b6000600560008473ffffffffffffffffffffffffffffffffffffffff1673ffffffffffffffffffffffffffffffffffffffff16815260200190815260200160002060008373ffffffffffffffffffffffffffffffffffffffff1673ffffffffffffffffffffffffffffffffffffffff16815260200190815260200160002060009054906101000a900460ff16905092915050565b600a8060000154905081565b6114b78282611d67565b156114f7576040517f08c379a00000000000000000000000000000000000000000000000000000000081526004016114ee9061371a565b60405180910390fd5b60018260000160008373ffffffffffffffffffffffffffffffffffffffff1673ffffffffffffffffffffffffffffffffffffffff16815260200190815260200160002060006101000a81548160ff0219169083151502179055505050565b60007f01ffc9a7000000000000000000000000000000000000000000000000000000007bffffffffffffffffffffffffffffffffffffffffffffffffffffffff1916827bffffffffffffffffffffffffffffffffffffffffffffffffffffffff1916149050919050565b6115c881611e2e565b611607576040517f08c379a00000000000000000000000000000000000000000000000000000000081526004016115fe9061327a565b60405180910390fd5b50565b600033905090565b816004600083815260200190815260200160002060006101000a81548173ffffffffffffffffffffffffffffffffffffffff021916908373ffffffffffffffffffffffffffffffffffffffff160217905550808273ffffffffffffffffffffffffffffffffffffffff1661168583610cb3565b73ffffffffffffffffffffffffffffffffffffffff167f8c5be1e5ebec7d5bd14f71427d1e84f3dd0314c0f7b2291e5b200ac8c7c3b92560405160405180910390a45050565b6000806116d783610cb3565b90508073ffffffffffffffffffffffffffffffffffffffff168473ffffffffffffffffffffffffffffffffffffffff1614806117195750611718818561140d565b5b8061175757508373ffffffffffffffffffffffffffffffffffffffff1661173f8461065a565b73ffffffffffffffffffffffffffffffffffffffff16145b91505092915050565b8273ffffffffffffffffffffffffffffffffffffffff1661178082610cb3565b73ffffffffffffffffffffffffffffffffffffffff16146117d6576040517f08c379a00000000000000000000000000000000000000000000000000000000081526004016117cd906137ac565b60405180910390fd5b600073ffffffffffffffffffffffffffffffffffffffff168273ffffffffffffffffffffffffffffffffffffffff1603611845576040517f08c379a000000000000000000000000000000000000000000000000000000000815260040161183c9061383e565b60405180910390fd5b611850838383611e9a565b61185b600082611612565b6001600360008573ffffffffffffffffffffffffffffffffffffffff1673ffffffffffffffffffffffffffffffffffffffff16815260200190815260200160002060008282546118ab919061385e565b925050819055506001600360008473ffffffffffffffffffffffffffffffffffffffff1673ffffffffffffffffffffffffffffffffffffffff16815260200190815260200160002060008282546119029190612bc9565b92505081905550816002600083815260200190815260200160002060006101000a81548173ffffffffffffffffffffffffffffffffffffffff021916908373ffffffffffffffffffffffffffffffffffffffff160217905550808273ffffffffffffffffffffffffffffffffffffffff168473ffffffffffffffffffffffffffffffffffffffff167fddf252ad1be2c89b69c2b068fc378daa952ba7f163c4a11628f55a4df523b3ef60405160405180910390a46119c1838383611e9f565b505050565b600081600001549050919050565b6001816000016000828254019250508190555050565b7f000000000000000000000000000000000000000000000000000000000000000073ffffffffffffffffffffffffffffffffffffffff166362ad1b833330846040518463ffffffff1660e01b8152600401611a4793929190613461565b600060405180830381600087803b158015611a6157600080fd5b505af1158015611a75573d6000803e3d6000fd5b505050508060076000828254611a8b9190612bc9565b9250508190555050565b611aaf828260405180602001604052806000815250611ea4565b5050565b611abc82611e2e565b611afb576040517f08c379a0000000000000000000000000000000000000000000000000000000008152600401611af290613904565b60405180910390fd5b80600660008481526020019081526020016000209081611b1b919061315c565b505050565b8173ffffffffffffffffffffffffffffffffffffffff168373ffffffffffffffffffffffffffffffffffffffff1603611b8e576040517f08c379a0000000000000000000000000000000000000000000000000000000008152600401611b8590613970565b60405180910390fd5b80600560008573ffffffffffffffffffffffffffffffffffffffff1673ffffffffffffffffffffffffffffffffffffffff16815260200190815260200160002060008473ffffffffffffffffffffffffffffffffffffffff1673ffffffffffffffffffffffffffffffffffffffff16815260200190815260200160002060006101000a81548160ff0219169083151502179055508173ffffffffffffffffffffffffffffffffffffffff168373ffffffffffffffffffffffffffffffffffffffff167f17307eab39ab6107e8899845ad3d59bd9653f200f220920489ca2b5937696c3183604051611c7f919061265e565b60405180910390a3505050565b611c97848484611760565b611ca384848484611eff565b611ce2576040517f08c379a0000000000000000000000000000000000000000000000000000000008152600401611cd990613a02565b60405180910390fd5b50505050565b606060405180602001604052806000815250905090565b6060611d0a826115bf565b6000611d14611ce8565b90506000815111611d345760405180602001604052806000815250611d5f565b80611d3e84612086565b604051602001611d4f9291906134fa565b6040516020818303038152906040525b915050919050565b60008073ffffffffffffffffffffffffffffffffffffffff168273ffffffffffffffffffffffffffffffffffffffff1603611dd7576040517f08c379a0000000000000000000000000000000000000000000000000000000008152600401611dce90613a94565b60405180910390fd5b8260000160008373ffffffffffffffffffffffffffffffffffffffff1673ffffffffffffffffffffffffffffffffffffffff16815260200190815260200160002060009054906101000a900460ff16905092915050565b60008073ffffffffffffffffffffffffffffffffffffffff166002600084815260200190815260200160002060009054906101000a900473ffffffffffffffffffffffffffffffffffffffff1673ffffffffffffffffffffffffffffffffffffffff1614159050919050565b505050565b505050565b611eae83836121e6565b611ebb6000848484611eff565b611efa576040517f08c379a0000000000000000000000000000000000000000000000000000000008152600401611ef190613a02565b60405180910390fd5b505050565b6000611f208473ffffffffffffffffffffffffffffffffffffffff166123bf565b15612079578373ffffffffffffffffffffffffffffffffffffffff1663150b7a02611f4961160a565b8786866040518563ffffffff1660e01b8152600401611f6b9493929190613af8565b6020604051808303816000875af1925050508015611fa757506040513d601f19601f82011682018060405250810190611fa49190613b59565b60015b612029573d8060008114611fd7576040519150601f19603f3d011682016040523d82523d6000602084013e611fdc565b606091505b506000815103612021576040517f08c379a000000000000000000000000000000000000000000000000000000000815260040161201890613a02565b60405180910390fd5b805181602001fd5b63150b7a0260e01b7bffffffffffffffffffffffffffffffffffffffffffffffffffffffff1916817bffffffffffffffffffffffffffffffffffffffffffffffffffffffff19161491505061207e565b600190505b949350505050565b6060600082036120cd576040518060400160405280600181526020017f300000000000000000000000000000000000000000000000000000000000000081525090506121e1565b600082905060005b600082146120ff5780806120e890613b86565b915050600a826120f89190613bfd565b91506120d5565b60008167ffffffffffffffff81111561211b5761211a6129ac565b5b6040519080825280601f01601f19166020018201604052801561214d5781602001600182028036833780820191505090505b5090505b600085146121da57600182612166919061385e565b9150600a856121759190613c2e565b60306121819190612bc9565b60f81b81838151811061219757612196613c5f565b5b60200101907effffffffffffffffffffffffffffffffffffffffffffffffffffffffffffff1916908160001a905350600a856121d39190613bfd565b9450612151565b8093505050505b919050565b600073ffffffffffffffffffffffffffffffffffffffff168273ffffffffffffffffffffffffffffffffffffffff1603612255576040517f08c379a000000000000000000000000000000000000000000000000000000000815260040161224c90613cda565b60405180910390fd5b61225e81611e2e565b1561229e576040517f08c379a000000000000000000000000000000000000000000000000000000000815260040161229590613d46565b60405180910390fd5b6122aa60008383611e9a565b6001600360008473ffffffffffffffffffffffffffffffffffffffff1673ffffffffffffffffffffffffffffffffffffffff16815260200190815260200160002060008282546122fa9190612bc9565b92505081905550816002600083815260200190815260200160002060006101000a81548173ffffffffffffffffffffffffffffffffffffffff021916908373ffffffffffffffffffffffffffffffffffffffff160217905550808273ffffffffffffffffffffffffffffffffffffffff16600073ffffffffffffffffffffffffffffffffffffffff167fddf252ad1be2c89b69c2b068fc378daa952ba7f163c4a11628f55a4df523b3ef60405160405180910390a46123bb60008383611e9f565b5050565b6000808273ffffffffffffffffffffffffffffffffffffffff163b119050919050565b6000604051905090565b600080fd5b600080fd5b600073ffffffffffffffffffffffffffffffffffffffff82169050919050565b6000612421826123f6565b9050919050565b61243181612416565b811461243c57600080fd5b50565b60008135905061244e81612428565b92915050565b6000819050919050565b61246781612454565b811461247257600080fd5b50565b6000813590506124848161245e565b92915050565b600080fd5b600080fd5b600080fd5b60008083601f8401126124af576124ae61248a565b5b8235905067ffffffffffffffff8111156124cc576124cb61248f565b5b6020830191508360018202830111156124e8576124e7612494565b5b9250929050565b60008060008060008060008060c0898b03121561250f5761250e6123ec565b5b600061251d8b828c0161243f565b985050602061252e8b828c0161243f565b975050604061253f8b828c0161243f565b96505060606125508b828c01612475565b955050608089013567ffffffffffffffff811115612571576125706123f1565b5b61257d8b828c01612499565b945094505060a089013567ffffffffffffffff8111156125a05761259f6123f1565b5b6125ac8b828c01612499565b92509250509295985092959890939650565b60007fffffffff0000000000000000000000000000000000000000000000000000000082169050919050565b6125f3816125be565b81146125fe57600080fd5b50565b600081359050612610816125ea565b92915050565b60006020828403121561262c5761262b6123ec565b5b600061263a84828501612601565b91505092915050565b60008115159050919050565b61265881612643565b82525050565b6000602082019050612673600083018461264f565b92915050565b600081519050919050565b600082825260208201905092915050565b60005b838110156126b3578082015181840152602081019050612698565b838111156126c2576000848401525b50505050565b6000601f19601f8301169050919050565b60006126e482612679565b6126ee8185612684565b93506126fe818560208601612695565b612707816126c8565b840191505092915050565b6000602082019050818103600083015261272c81846126d9565b905092915050565b60006020828403121561274a576127496123ec565b5b600061275884828501612475565b91505092915050565b61276a81612416565b82525050565b60006020820190506127856000830184612761565b92915050565b600080604083850312156127a2576127a16123ec565b5b60006127b08582860161243f565b92505060206127c185828601612475565b9150509250929050565b6000806000606084860312156127e4576127e36123ec565b5b60006127f28682870161243f565b93505060206128038682870161243f565b925050604061281486828701612475565b9150509250925092565b600060208284031215612834576128336123ec565b5b60006128428482850161243f565b91505092915050565b61285481612454565b82525050565b600060208201905061286f600083018461284b565b92915050565b600060808201905061288a600083018761284b565b818103602083015261289c81866126d9565b90506128ab604083018561264f565b6128b8606083018461264f565b95945050505050565b6000819050919050565b60006128e66128e16128dc846123f6565b6128c1565b6123f6565b9050919050565b60006128f8826128cb565b9050919050565b600061290a826128ed565b9050919050565b61291a816128ff565b82525050565b60006020820190506129356000830184612911565b92915050565b61294481612643565b811461294f57600080fd5b50565b6000813590506129618161293b565b92915050565b6000806040838503121561297e5761297d6123ec565b5b600061298c8582860161243f565b925050602061299d85828601612952565b9150509250929050565b600080fd5b7f4e487b7100000000000000000000000000000000000000000000000000000000600052604160045260246000fd5b6129e4826126c8565b810181811067ffffffffffffffff82111715612a0357612a026129ac565b5b80604052505050565b6000612a166123e2565b9050612a2282826129db565b919050565b600067ffffffffffffffff821115612a4257612a416129ac565b5b612a4b826126c8565b9050602081019050919050565b82818337600083830152505050565b6000612a7a612a7584612a27565b612a0c565b905082815260208101848484011115612a9657612a956129a7565b5b612aa1848285612a58565b509392505050565b600082601f830112612abe57612abd61248a565b5b8135612ace848260208601612a67565b91505092915050565b60008060008060808587031215612af157612af06123ec565b5b6000612aff8782880161243f565b9450506020612b108782880161243f565b9350506040612b2187828801612475565b925050606085013567ffffffffffffffff811115612b4257612b416123f1565b5b612b4e87828801612aa9565b91505092959194509250565b60008060408385031215612b7157612b706123ec565b5b6000612b7f8582860161243f565b9250506020612b908582860161243f565b9150509250929050565b7f4e487b7100000000000000000000000000000000000000000000000000000000600052601160045260246000fd5b6000612bd482612454565b9150612bdf83612454565b9250827fffffffffffffffffffffffffffffffffffffffffffffffffffffffffffffffff03821115612c1457612c13612b9a565b5b828201905092915050565b7f4e487b7100000000000000000000000000000000000000000000000000000000600052602260045260246000fd5b60006002820490506001821680612c6657607f821691505b602082108103612c7957612c78612c1f565b5b50919050565b7f4552433732313a20617070726f76616c20746f2063757272656e74206f776e6560008201527f7200000000000000000000000000000000000000000000000000000000000000602082015250565b6000612cdb602183612684565b9150612ce682612c7f565b604082019050919050565b60006020820190508181036000830152612d0a81612cce565b9050919050565b7f4552433732313a20617070726f76652063616c6c6572206973206e6f7420746f60008201527f6b656e206f776e6572206e6f7220617070726f76656420666f7220616c6c0000602082015250565b6000612d6d603e83612684565b9150612d7882612d11565b604082019050919050565b60006020820190508181036000830152612d9c81612d60565b9050919050565b7f4552433732313a2063616c6c6572206973206e6f7420746f6b656e206f776e6560008201527f72206e6f7220617070726f766564000000000000000000000000000000000000602082015250565b6000612dff602e83612684565b9150612e0a82612da3565b604082019050919050565b60006020820190508181036000830152612e2e81612df2565b9050919050565b7f4d696e74206c696d697420636f6d706c65746564000000000000000000000000600082015250565b6000612e6b601483612684565b9150612e7682612e35565b602082019050919050565b60006020820190508181036000830152612e9a81612e5e565b9050919050565b600081519050612eb08161245e565b92915050565b600060208284031215612ecc57612ecb6123ec565b5b6000612eda84828501612ea1565b91505092915050565b7f496e73756666696369656e7420746f6b656e7300000000000000000000000000600082015250565b6000612f19601383612684565b9150612f2482612ee3565b602082019050919050565b60006020820190508181036000830152612f4881612f0c565b9050919050565b6000604082019050612f646000830185612761565b612f71602083018461284b565b9392505050565b600081519050612f878161293b565b92915050565b600060208284031215612fa357612fa26123ec565b5b6000612fb184828501612f78565b91505092915050565b60008190508160005260206000209050919050565b60006020601f8301049050919050565b600082821b905092915050565b60006008830261301c7fffffffffffffffffffffffffffffffffffffffffffffffffffffffffffffffff82612fdf565b6130268683612fdf565b95508019841693508086168417925050509392505050565b600061305961305461304f84612454565b6128c1565b612454565b9050919050565b6000819050919050565b6130738361303e565b61308761307f82613060565b848454612fec565b825550505050565b600090565b61309c61308f565b6130a781848461306a565b505050565b5b818110156130cb576130c0600082613094565b6001810190506130ad565b5050565b601f821115613110576130e181612fba565b6130ea84612fcf565b810160208510156130f9578190505b61310d61310585612fcf565b8301826130ac565b50505b505050565b600082821c905092915050565b600061313360001984600802613115565b1980831691505092915050565b600061314c8383613122565b9150826002028217905092915050565b61316582612679565b67ffffffffffffffff81111561317e5761317d6129ac565b5b6131888254612c4e565b6131938282856130cf565b600060209050601f8311600181146131c657600084156131b4578287015190505b6131be8582613140565b865550613226565b601f1984166131d486612fba565b60005b828110156131fc578489015182556001820191506020850194506020810190506131d7565b868310156132195784890151613215601f891682613122565b8355505b6001600288020188555050505b505050505050565b7f4552433732313a20696e76616c696420746f6b656e2049440000000000000000600082015250565b6000613264601883612684565b915061326f8261322e565b602082019050919050565b6000602082019050818103600083015261329381613257565b9050919050565b7f4552433732313a2061646472657373207a65726f206973206e6f74206120766160008201527f6c6964206f776e65720000000000000000000000000000000000000000000000602082015250565b60006132f6602983612684565b91506133018261329a565b604082019050919050565b60006020820190508181036000830152613325816132e9565b9050919050565b7f4d61726b6574506c616365436f6e74726163743a2063616c6c6572206973206e60008201527f6f7420746865206f776e65720000000000000000000000000000000000000000602082015250565b6000613388602c83612684565b91506133938261332c565b604082019050919050565b600060208201905081810360008301526133b78161337b565b9050919050565b7f546865726520646f6e277420626520746f6b656e730000000000000000000000600082015250565b60006133f4601583612684565b91506133ff826133be565b602082019050919050565b60006020820190508181036000830152613423816133e7565b9050919050565b600082825260208201905092915050565b50565b600061344b60008361342a565b91506134568261343b565b600082019050919050565b600060a0820190506134766000830186612761565b6134836020830185612761565b613490604083018461284b565b81810360608301526134a18161343e565b905081810360808301526134b48161343e565b9050949350505050565b600081905092915050565b60006134d482612679565b6134de81856134be565b93506134ee818560208601612695565b80840191505092915050565b600061350682856134c9565b915061351282846134c9565b91508190509392505050565b7f444f45535f4e4f545f484156455f4d494e5445525f524f4c4500000000000000600082015250565b6000613554601983612684565b915061355f8261351e565b602082019050919050565b6000602082019050818103600083015261358381613547565b9050919050565b7f5468697320746f6b656e20646f65736e277420796f7572000000000000000000600082015250565b60006135c0601783612684565b91506135cb8261358a565b602082019050919050565b600060208201905081810360008301526135ef816135b3565b9050919050565b7f596f75206e65656420746f20646f20636865636b2d696e000000000000000000600082015250565b600061362c601783612684565b9150613637826135f6565b602082019050919050565b6000602082019050818103600083015261365b8161361f565b9050919050565b7f596f7520617265206e6f7420746865206f776e6572206f6620746865204e4654600082015250565b6000613698602083612684565b91506136a382613662565b602082019050919050565b600060208201905081810360008301526136c78161368b565b9050919050565b7f526f6c65733a206163636f756e7420616c72656164792068617320726f6c6500600082015250565b6000613704601f83612684565b915061370f826136ce565b602082019050919050565b60006020820190508181036000830152613733816136f7565b9050919050565b7f4552433732313a207472616e736665722066726f6d20696e636f72726563742060008201527f6f776e6572000000000000000000000000000000000000000000000000000000602082015250565b6000613796602583612684565b91506137a18261373a565b604082019050919050565b600060208201905081810360008301526137c581613789565b9050919050565b7f4552433732313a207472616e7366657220746f20746865207a65726f2061646460008201527f7265737300000000000000000000000000000000000000000000000000000000602082015250565b6000613828602483612684565b9150613833826137cc565b604082019050919050565b600060208201905081810360008301526138578161381b565b9050919050565b600061386982612454565b915061387483612454565b92508282101561388757613886612b9a565b5b828203905092915050565b7f45524337323155524953746f726167653a2055524920736574206f66206e6f6e60008201527f6578697374656e7420746f6b656e000000000000000000000000000000000000602082015250565b60006138ee602e83612684565b91506138f982613892565b604082019050919050565b6000602082019050818103600083015261391d816138e1565b9050919050565b7f4552433732313a20617070726f766520746f2063616c6c657200000000000000600082015250565b600061395a601983612684565b915061396582613924565b602082019050919050565b600060208201905081810360008301526139898161394d565b9050919050565b7f4552433732313a207472616e7366657220746f206e6f6e20455243373231526560008201527f63656976657220696d706c656d656e7465720000000000000000000000000000602082015250565b60006139ec603283612684565b91506139f782613990565b604082019050919050565b60006020820190508181036000830152613a1b816139df565b9050919050565b7f526f6c65733a206163636f756e7420697320746865207a65726f20616464726560008201527f7373000000000000000000000000000000000000000000000000000000000000602082015250565b6000613a7e602283612684565b9150613a8982613a22565b604082019050919050565b60006020820190508181036000830152613aad81613a71565b9050919050565b600081519050919050565b6000613aca82613ab4565b613ad4818561342a565b9350613ae4818560208601612695565b613aed816126c8565b840191505092915050565b6000608082019050613b0d6000830187612761565b613b1a6020830186612761565b613b27604083018561284b565b8181036060830152613b398184613abf565b905095945050505050565b600081519050613b53816125ea565b92915050565b600060208284031215613b6f57613b6e6123ec565b5b6000613b7d84828501613b44565b91505092915050565b6000613b9182612454565b91507fffffffffffffffffffffffffffffffffffffffffffffffffffffffffffffffff8203613bc357613bc2612b9a565b5b600182019050919050565b7f4e487b7100000000000000000000000000000000000000000000000000000000600052601260045260246000fd5b6000613c0882612454565b9150613c1383612454565b925082613c2357613c22613bce565b5b828204905092915050565b6000613c3982612454565b9150613c4483612454565b925082613c5457613c53613bce565b5b828206905092915050565b7f4e487b7100000000000000000000000000000000000000000000000000000000600052603260045260246000fd5b7f4552433732313a206d696e7420746f20746865207a65726f2061646472657373600082015250565b6000613cc4602083612684565b9150613ccf82613c8e565b602082019050919050565b60006020820190508181036000830152613cf381613cb7565b9050919050565b7f4552433732313a20746f6b656e20616c7265616479206d696e74656400000000600082015250565b6000613d30601c83612684565b9150613d3b82613cfa565b602082019050919050565b60006020820190508181036000830152613d5f81613d23565b905091905056fea2646970667358221220bb95548b949aa4f4804ae6c1bae83ac3baeda2dc551679e1c42cadcd35afaf8f64736f6c634300080f0033",
  "linkReferences": {},
  "deployedLinkReferences": {}
}